###############################################################################
#
# IAR C/C++ Compiler V10.10.1.4655 for 8051               08/Apr/2021  22:48:36
# Copyright 2004-2017 IAR Systems AB.
# Standalone license - IAR Embedded Workbench for 8051
#
#    Core               =  plain
#    Code model         =  banked
#    Data model         =  large
#    Calling convention =  xdata reentrant
#    Constant location  =  data_rom
#    Dptr setup         =  1,16
#                          
#    Source file        =  
#        E:\ZLinker 1.0.3\Z-Stack 3.0.2\Components\stack\bdb\bdb.c
#    Command line       =  
#        -f C:\Users\Michael\AppData\Local\Temp\EWBBFB.tmp ("E:\ZLinker
#        1.0.3\Z-Stack 3.0.2\Components\stack\bdb\bdb.c" -D SECURE=1 -D
#        TC_LINKKEY_JOIN -D NV_INIT -D NV_RESTORE -D xZTOOL_P1 -D xMT_TASK -D
#        xMT_APP_FUNC -D xMT_SYS_FUNC -D xMT_ZDO_FUNC -D xMT_ZDO_MGMT -D
#        xMT_APP_CNF_FUNC -D LCD_SUPPORTED=DEBUG -D MULTICAST_ENABLED=FALSE -D
#        ZCL_READ -D ZCL_DISCOVER -D ZCL_WRITE -D ZCL_BASIC -D ZCL_IDENTIFY -D
#        ZCL_ON_OFF -D ZCL_GROUPS -D ZCL_LEVEL_CTRL -D HAL_KEY=TRUE -D
#        ISR_KEYINTERRUPT -D HAL_LCD=TRUE -D HAL_ADC=TRUE -D HAL_DHT11=TRUE -D
#        ZB_CONFIG_PA_ENABLE=TRUE -D TEST_RSSI=TRUE -lC "E:\ZLinker
#        1.0.3\Z-Stack 3.0.2\Projects\CC2530\Category\Router\List" -lA
#        "E:\ZLinker 1.0.3\Z-Stack 3.0.2\Projects\CC2530\Category\Router\List"
#        --diag_suppress Pe001,Pa010 -o "E:\ZLinker 1.0.3\Z-Stack
#        3.0.2\Projects\CC2530\Category\Router\Obj" -e --debug --core=plain
#        --dptr=16,1 --data_model=large --code_model=banked
#        --calling_convention=xdata_reentrant --place_constants=data_rom
#        --nr_virtual_regs 16 -f "E:\ZLinker 1.0.3\Z-Stack
#        3.0.2\Projects\CC2530\Tools\f8wRouter.cfg" (-DCPU32MHZ
#        -DROOT=__near_func -DMAC_CFG_APP_PENDING_QUEUE=TRUE
#        -DMAC_CFG_TX_DATA_MAX=5 -DMAC_CFG_TX_MAX=8 -DMAC_CFG_RX_MAX=5
#        -DRTR_NWK) -f "E:\ZLinker 1.0.3\Z-Stack
#        3.0.2\Projects\CC2530\Tools\f8wConfig.cfg" (-DZIGBEEPRO -DSECURE=1
#        -DZG_SECURE_DYNAMIC=0 -DREFLECTOR -DDEFAULT_CHANLIST=0x00000800
#        -DZDAPP_CONFIG_PAN_ID=0xFFFF -DNWK_START_DELAY=100
#        -DEXTENDED_JOINING_RANDOM_MASK=0x007F -DBEACON_REQUEST_DELAY=100
#        -DBEACON_REQ_DELAY_MASK=0x00FF -DLINK_STATUS_JITTER_MASK=0x007F
#        -DROUTE_EXPIRY_TIME=30 -DAPSC_ACK_WAIT_DURATION_POLLED=3000
#        -DNWK_INDIRECT_MSG_TIMEOUT=7 -DMAX_RREQ_ENTRIES=8
#        -DAPSC_MAX_FRAME_RETRIES=3 -DNWK_MAX_DATA_RETRIES=2
#        -DMAX_POLL_FAILURE_RETRIES=2 -DMAX_BCAST=9 -DAPS_MAX_GROUPS=16
#        -DMAX_RTG_ENTRIES=40 -DNWK_MAX_BINDING_ENTRIES=4
#        -DMAX_BINDING_CLUSTER_IDS=4 -DDEFAULT_KEY={0} -DMAC_MAX_FRAME_SIZE=116
#        -DZDNWKMGR_MIN_TRANSMISSIONS=20 "-DCONST=const __code"
#        -DGENERIC=__generic -DRFD_RCVC_ALWAYS_ON=FALSE -DPOLL_RATE=1000
#        -DQUEUED_POLL_RATE=100 -DRESPONSE_POLL_RATE=100 -DREJOIN_POLL_RATE=440
#        -DREJOIN_BACKOFF=900000 -DREJOIN_SCAN=900000 -DENABLE_LED4_DISABLE_S1)
#        -f "E:\ZLinker 1.0.3\Z-Stack 3.0.2\Projects\CC2530\Tools\f8wZCL.cfg"
#        -I "E:\ZLinker 1.0.3\Z-Stack 3.0.2\Projects\CC2530\" -I "E:\ZLinker
#        1.0.3\Z-Stack 3.0.2\Projects\CC2530\..\..\Components\hal\include\" -I
#        "E:\ZLinker 1.0.3\Z-Stack
#        3.0.2\Projects\CC2530\..\..\Components\hal\target\CC2530EB\" -I
#        "E:\ZLinker 1.0.3\Z-Stack
#        3.0.2\Projects\CC2530\..\..\Components\hal\userspace\" -I "E:\ZLinker
#        1.0.3\Z-Stack 3.0.2\Projects\CC2530\..\..\Components\mac\include\" -I
#        "E:\ZLinker 1.0.3\Z-Stack
#        3.0.2\Projects\CC2530\..\..\Components\mac\high_level\" -I "E:\ZLinker
#        1.0.3\Z-Stack
#        3.0.2\Projects\CC2530\..\..\Components\mac\low_level\srf04\" -I
#        "E:\ZLinker 1.0.3\Z-Stack
#        3.0.2\Projects\CC2530\..\..\Components\mac\low_level\srf04\single_chip\"
#        -I "E:\ZLinker 1.0.3\Z-Stack
#        3.0.2\Projects\CC2530\..\..\Components\mt\" -I "E:\ZLinker
#        1.0.3\Z-Stack 3.0.2\Projects\CC2530\..\..\Components\osal\include\" -I
#        "E:\ZLinker 1.0.3\Z-Stack
#        3.0.2\Projects\CC2530\..\..\Components\services\saddr\" -I "E:\ZLinker
#        1.0.3\Z-Stack 3.0.2\Projects\CC2530\..\..\Components\services\sdata\"
#        -I "E:\ZLinker 1.0.3\Z-Stack
#        3.0.2\Projects\CC2530\..\..\Components\stack\af\" -I "E:\ZLinker
#        1.0.3\Z-Stack 3.0.2\Projects\CC2530\..\..\Components\stack\bdb\" -I
#        "E:\ZLinker 1.0.3\Z-Stack
#        3.0.2\Projects\CC2530\..\..\Components\stack\gp\" -I "E:\ZLinker
#        1.0.3\Z-Stack 3.0.2\Projects\CC2530\..\..\Components\stack\nwk\" -I
#        "E:\ZLinker 1.0.3\Z-Stack
#        3.0.2\Projects\CC2530\..\..\Components\stack\sapi\" -I "E:\ZLinker
#        1.0.3\Z-Stack 3.0.2\Projects\CC2530\..\..\Components\stack\sec\" -I
#        "E:\ZLinker 1.0.3\Z-Stack
#        3.0.2\Projects\CC2530\..\..\Components\stack\sys\" -I "E:\ZLinker
#        1.0.3\Z-Stack 3.0.2\Projects\CC2530\..\..\Components\stack\zcl\" -I
#        "E:\ZLinker 1.0.3\Z-Stack
#        3.0.2\Projects\CC2530\..\..\Components\stack\zdo\" -I "E:\ZLinker
#        1.0.3\Z-Stack 3.0.2\Projects\CC2530\..\..\Components\zmac\" -I
#        "E:\ZLinker 1.0.3\Z-Stack
#        3.0.2\Projects\CC2530\..\..\Components\zmac\f8w\" -I "E:\ZLinker
#        1.0.3\Z-Stack 3.0.2\Projects\CC2530\..\..\Applications\" -Ohz
#        --require_prototypes)
#    Locale             =  Chinese (Simplified)_China.936
#    List file          =  
#        E:\ZLinker 1.0.3\Z-Stack
#        3.0.2\Projects\CC2530\Category\Router\List\bdb.lst
#    Object file        =  
#        E:\ZLinker 1.0.3\Z-Stack
#        3.0.2\Projects\CC2530\Category\Router\Obj\bdb.r51
#
###############################################################################

E:\ZLinker 1.0.3\Z-Stack 3.0.2\Components\stack\bdb\bdb.c
      1          /**************************************************************************************************
      2            Filename:       bdb.c
      3            Revised:        $Date: 2016-02-25 11:51:49 -0700 (Thu, 25 Feb 2016) $
      4            Revision:       $Revision: - $
      5          
      6            Description:    This file contains the Base Device Behavior functions and attributes.
      7          
      8          
      9            Copyright 2006-2015 Texas Instruments Incorporated. All rights reserved.
     10          
     11            IMPORTANT: Your use of this Software is limited to those specific rights
     12            granted under the terms of a software license agreement between the user
     13            who downloaded the software, his/her employer (which must be your employer)
     14            and Texas Instruments Incorporated (the "License").  You may not use this
     15            Software unless you agree to abide by the terms of the License. The License
     16            limits your use, and you acknowledge, that the Software may not be modified,
     17            copied or distributed unless embedded on a Texas Instruments microcontroller
     18            or used solely and exclusively in conjunction with a Texas Instruments radio
     19            frequency transceiver, which is integrated into your product.  Other than for
     20            the foregoing purpose, you may not use, reproduce, copy, prepare derivative
     21            works of, modify, distribute, perform, display or sell this Software and/or
     22            its documentation for any purpose.
     23          
     24            YOU FURTHER ACKNOWLEDGE AND AGREE THAT THE SOFTWARE AND DOCUMENTATION ARE
     25            PROVIDED "AS IS" WITHOUT WARRANTY OF ANY KIND, EITHER EXPRESS OR IMPLIED,
     26            INCLUDING WITHOUT LIMITATION, ANY WARRANTY OF MERCHANTABILITY, TITLE,
     27            NON-INFRINGEMENT AND FITNESS FOR A PARTICULAR PURPOSE. IN NO EVENT SHALL
     28            TEXAS INSTRUMENTS OR ITS LICENSORS BE LIABLE OR OBLIGATED UNDER CONTRACT,
     29            NEGLIGENCE, STRICT LIABILITY, CONTRIBUTION, BREACH OF WARRANTY, OR OTHER
     30            LEGAL EQUITABLE THEORY ANY DIRECT OR INDIRECT DAMAGES OR EXPENSES
     31            INCLUDING BUT NOT LIMITED TO ANY INCIDENTAL, SPECIAL, INDIRECT, PUNITIVE
     32            OR CONSEQUENTIAL DAMAGES, LOST PROFITS OR LOST DATA, COST OF PROCUREMENT
     33            OF SUBSTITUTE GOODS, TECHNOLOGY, SERVICES, OR ANY CLAIMS BY THIRD PARTIES
     34            (INCLUDING BUT NOT LIMITED TO ANY DEFENSE THEREOF), OR OTHER SIMILAR COSTS.
     35          
     36            Should you have any questions regarding your right to use this Software,
     37            contact Texas Instruments Incorporated at www.TI.com.
     38          **************************************************************************************************/
     39          
     40          /*********************************************************************
     41           * INCLUDES
     42           */
     43          
     44          #include "bdb.h"
     45          #include "ZDApp.h"
     46          #include "OSAL.h"
     47          #include "ZDConfig.h"
     48          #include "hal_led.h"
     49          #include "ZDObject.h"
     50          #include "OSAL_Nv.h"
     51          #include "AddrMgr.h"
     52          #include "ZDSecMgr.h"
     53          #include "nwk.h"
     54          #include "nwk_util.h"
     55          #include "ssp_hash.h"
     56          #ifdef BDB_REPORTING
     57          #include "bdb_Reporting.h"
     58          #endif 
     59          
     60          #if !defined (DISABLE_GREENPOWER_BASIC_PROXY) && (ZG_BUILD_RTR_TYPE)
     61          #include "gp_interface.h"
     62          #include "gp_common.h"
     63          #include "dgp_stub.h"
     64          #endif
     65          
     66          #include "bdb_interface.h"
     67          
     68          #if defined ( INTER_PAN ) 
     69          #if defined ( BDB_TL_INITIATOR )  
     70          #include "bdb_touchlink_initiator.h"
     71          #endif
     72          #if defined ( BDB_TL_TARGET )  
     73          #include "bdb_touchlink_target.h"
     74          #endif
     75          #endif
     76             
     77          #if defined ( INTER_PAN ) && ( defined ( BDB_TL_INITIATOR ) || defined ( BDB_TL_TARGET ) )
     78            #include "bdb_touchlink.h"
     79          #endif
     80           
     81          #ifdef MT_APP_CNF_FUNC
     82          #include "MT_APP_CONFIG.h"
     83          #endif
     84             
     85           /*********************************************************************
     86           * MACROS
     87           */
     88          //This is actually the channels used
     89          #define vScanChannels  zgDefaultChannelList
     90             
     91           /*********************************************************************
     92           * CONSTANTS
     93           */
     94          
     95          #define NUMBER_OF_CHANNELS     16
     96          
     97          #define CHANNEL_11_MASK_POS    11
     98          #define CHANNEL_26_MASK_POS    26
     99             

   \                                 In  segment XDATA_Z, align 1, keep-with-next
    100          uint8 bdb_FB_InitiatorCurrentCyclesNumber = 0; //last cycle is #1 (i.e. cycles-left = (bdb_FB_InitiatorCurrentCyclesNumber - 1))
   \                     bdb_FB_InitiatorCurrentCyclesNumber:
   \   000000                DS 1
   \   000001                REQUIRE __INIT_XDATA_Z
    101          
    102          /*********************************************************************
    103           * TYPEDEFS
    104           */
    105           
    106           
    107           /*********************************************************************
    108           * GLOBAL VARIABLES
    109           */
    110          

   \                                 In  segment XDATA_Z, align 1, keep-with-next
    111          byte bdb_TaskID;
   \                     bdb_TaskID:
   \   000000                DS 1
   \   000001                REQUIRE __INIT_XDATA_Z

   \                                 In  segment XDATA_I, align 1, keep-with-next
    112          bdbAttributes_t bdbAttributes = BDB_ATTRIBUTES_DEFAULT_CONFIG;
   \                     bdbAttributes:
   \   000000                DS 19
   \   000013                REQUIRE `?<Initializer for bdbAttributes>`
   \   000013                REQUIRE __INIT_XDATA_I

   \                                 In  segment XDATA_Z, align 1, keep-with-next
    113          epList_t *bdb_HeadEpDescriptorList = NULL;
   \                     bdb_HeadEpDescriptorList:
   \   000000                DS 2
   \   000002                REQUIRE __INIT_XDATA_Z

   \                                 In  segment XDATA_Z, align 1, keep-with-next
    114          epList_t *bdb_CurrEpDescriptorList = NULL;
   \                     bdb_CurrEpDescriptorList:
   \   000000                DS 2
   \   000002                REQUIRE __INIT_XDATA_Z
    115          

   \                                 In  segment XDATA_Z, align 1, keep-with-next
    116          bdbFindingBindingRespondent_t *pRespondentHead = NULL;
   \                     pRespondentHead:
   \   000000                DS 2
   \   000002                REQUIRE __INIT_XDATA_Z

   \                                 In  segment XDATA_Z, align 1, keep-with-next
    117          bdbFindingBindingRespondent_t *pRespondentCurr = NULL;
   \                     pRespondentCurr:
   \   000000                DS 2
   \   000002                REQUIRE __INIT_XDATA_Z

   \                                 In  segment XDATA_Z, align 1, keep-with-next
    118          bdbFindingBindingRespondent_t *pRespondentNext = NULL;
   \                     pRespondentNext:
   \   000000                DS 2
   \   000002                REQUIRE __INIT_XDATA_Z
    119          

   \                                 In  segment XDATA_Z, align 1, keep-with-next
    120          bdbCommissioningProcedureState_t bdbCommissioningProcedureState; 
   \                     bdbCommissioningProcedureState:
   \   000000                DS 4
   \   000004                REQUIRE __INIT_XDATA_Z

   \                                 In  segment XDATA_Z, align 1, keep-with-next
    121          bool bdb_initialization = FALSE;  //Variable to tell if the initialization process has been started
   \                     bdb_initialization:
   \   000000                DS 1
   \   000001                REQUIRE __INIT_XDATA_Z
    122          
    123          //Nwk formation and nwk steering for nodes not in nwk

   \                                 In  segment XDATA_I, align 1, keep-with-next
    124          bool vDoPrimaryScan = TRUE;
   \                     vDoPrimaryScan:
   \   000000                DS 1
   \   000001                REQUIRE `?<Initializer for vDoPrimaryScan>`
   \   000001                REQUIRE __INIT_XDATA_I
    125          

   \                                 In  segment XDATA_I, align 1, keep-with-next
    126          uint8 zgBdbInstallCodeCRC[INSTALL_CODE_LEN + INSTALL_CODE_CRC_LEN] = {0x83,0xFE,0xD3,0x40,0x7A,0x93,0x97,0x23,0xA5,0xC6,0x39,0xB2,0x69,0x16,0xD5,0x05,0xC3,0xB5};
   \                     zgBdbInstallCodeCRC:
   \   000000                DS 18
   \   000012                REQUIRE `?<Initializer for zgBdbInstallCodeCRC>`
   \   000012                REQUIRE __INIT_XDATA_I
    127          
    128          //Pointer of the nwk being tried in association process
    129          #if (ZG_BUILD_JOINING_TYPE)

   \                                 In  segment XDATA_Z, align 1, keep-with-next
    130          static networkDesc_t *pBDBListNwk = NULL;
   \                     pBDBListNwk:
   \   000000                DS 2
   \   000002                REQUIRE __INIT_XDATA_Z
    131          #endif
    132          

   \                                 In  segment XDATA_Z, align 1, keep-with-next
    133          uint8 bdb_ZclTransactionSequenceNumber=0x00;
   \                     bdb_ZclTransactionSequenceNumber:
   \   000000                DS 1
   \   000001                REQUIRE __INIT_XDATA_Z
    134          

   \                                 In  segment XDATA_Z, align 1, keep-with-next
    135          bool touchLinkTargetEnabled = FALSE;
   \                     touchLinkTargetEnabled:
   \   000000                DS 1
   \   000001                REQUIRE __INIT_XDATA_Z
    136          
    137           /*********************************************************************
    138           * EXTERNAL VARIABLES
    139           */
    140          
    141          extern devStartModes_t devStartMode;
    142          extern bool  requestNewTrustCenterLinkKey;
    143          extern uint32 requestLinkKeyTimeout;
    144          extern uint32 ZDApp_SavedPollRate;
    145          
    146          #if (BDB_FINDING_BINDING_CAPABILITY_ENABLED==1)
    147          extern bdbGCB_IdentifyTimeChange_t pfnIdentifyTimeChangeCB;
    148          extern uint8 bdbIndentifyActiveEndpoint;
    149          #endif
    150          
    151          extern bdbFindingBindingRespondent_t *pRespondentNext;
    152          
    153          #ifndef DISABLE_GREENPOWER_BASIC_PROXY
    154          extern ZDO_DeviceAnnce_t aliasConflictAnnce;
    155          #endif
    156          
    157          /*********************************************************************
    158           * EXTERNAL FUNCTIONS
    159           */
    160          
    161          extern void ZDApp_ResetTimerStart( uint16 delay );
    162          extern void ZDApp_NodeProfileSync( uint8 stackProfile );
    163          extern uint8 ZDApp_RestoreNwkKey( uint8 incrFrmCnt );
    164          extern uint8 ZDApp_ReadNetworkRestoreState( void );
    165          
    166          extern bdbFindingBindingRespondent_t* bdb_getRespondentRetry(bdbFindingBindingRespondent_t* pRespondentHead);
    167          extern void bdb_ProcessSimpleDesc( zdoIncomingMsg_t *msgPtr );
    168          extern void bdb_ProcessIEEEAddrRsp(zdoIncomingMsg_t *pMsg);
    169          
    170          /*********************************************************************
    171           * LOCAL VARIABLES
    172           */
    173          #if (ZG_BUILD_JOINING_TYPE)

   \                                 In  segment XDATA_Z, align 1, keep-with-next
    174            static uint8 bdb_nwkAssocRetriesCount = 0;
   \                     bdb_nwkAssocRetriesCount:
   \   000000                DS 1
   \   000001                REQUIRE __INIT_XDATA_Z
    175          #endif
    176          #if (ZG_BUILD_COORDINATOR_TYPE)
    177            static bdb_joiningDeviceList_t *bdb_joiningDeviceList = NULL;
    178          #endif
    179            
    180          #if (BDB_FINDING_BINDING_CAPABILITY_ENABLED==1) 
    181          //Latch to save the status success of any attempt in the periodic F&B process  

   \                                 In  segment XDATA_Z, align 1, keep-with-next
    182          static uint8 bdb_FBStateSuccessLatch = FALSE;
   \                     bdb_FBStateSuccessLatch:
   \   000000                DS 1
   \   000001                REQUIRE __INIT_XDATA_Z
    183          #endif
    184           /*********************************************************************
    185           * LOCAL FUNCTIONS
    186           */
    187          static void bdb_ProcessOSALMsg(bdbInMsg_t *msgPtr);
    188          void bdb_NotifyCommissioningModeStart(uint8 commissioningMode);
    189          static void bdb_processZDOMgs(zdoIncomingMsg_t *pMsg);
    190          
    191          #if (ZG_BUILD_JOINING_TYPE)
    192          static void bdb_requestTCStackVersion(void);
    193          static void bdb_requestTCLinkKey(void);
    194          static void bdb_requestVerifyTCLinkKey(void);
    195          static void bdb_tryNwkAssoc(void);
    196          #endif
    197          
    198          
    199          static void bdb_processTimeout(void);
    200          static void bdb_startResumeCommissioningProcess(void);
    201          static void bdb_nwkSteeringDeviceOnNwk(void);
    202          static void bdb_nwkJoiningFormation(bool isJoining);
    203          
    204          #if !defined (DISABLE_GREENPOWER_BASIC_PROXY) && (ZG_BUILD_RTR_TYPE)
    205          static uint8 gp_ChangeChannelReq(void);
    206          static void gp_CBInit(void);
    207          #endif
    208          
    209          
    210          #if (ZG_BUILD_COORDINATOR_TYPE)
    211          static void bdb_TCProcessJoiningList(void);
    212          static ZStatus_t bdb_TCJoiningDeviceFree(bdb_joiningDeviceList_t* JoiningDeviceToRemove);
    213          #endif
    214          #if (ZG_BUILD_COORDINATOR_TYPE)
    215          static bdbGCB_TCLinkKeyExchangeProcess_t  pfnTCLinkKeyExchangeProcessCB = NULL;
    216          #endif

   \                                 In  segment XDATA_Z, align 1, keep-with-next
    217          static bdbGCB_CommissioningStatus_t       pfnCommissioningStatusCB = NULL; 
   \                     pfnCommissioningStatusCB:
   \   000000                DS 2
   \   000002                REQUIRE __INIT_XDATA_Z
    218          #if (ZG_BUILD_JOINING_TYPE)

   \                                 In  segment XDATA_Z, align 1, keep-with-next
    219          static bdbGCB_CBKETCLinkKeyExchange_t     pfnCBKETCLinkKeyExchange = NULL;
   \                     pfnCBKETCLinkKeyExchange:
   \   000000                DS 2
   \   000002                REQUIRE __INIT_XDATA_Z

   \                                 In  segment XDATA_Z, align 1, keep-with-next
    220          static bdbGCB_FilterNwkDesc_t             pfnFilterNwkDesc = NULL;   
   \                     pfnFilterNwkDesc:
   \   000000                DS 2
   \   000002                REQUIRE __INIT_XDATA_Z
    221          #endif
    222          
    223          
    224          
    225          void bdb_calculateCCITT_CRC (uint8 *Mb, uint32 msglen, uint16 *crc);
    226          void bdb_crcInit(uint16 *crc, uint16 *crcinit_direct, uint16 *crcinit_nondirect);
    227          uint16 bdb_crcReflect (uint16 crc, uint16 bitnum);
    228          uint16 bdb_crcBitByBitFast(uint8 * p, uint32 len, uint16 crcinit_direct, uint16 crcinit_nondirect);
    229          void bdb_ProcessNodeDescRsp(zdoIncomingMsg_t *pMsg);
    230          
    231          /*********************************************************************
    232           * PUBLIC FUNCTIONS
    233           *********************************************************************/
    234          void bdb_filterNwkDisc(void);
    235          ZStatus_t bdb_joinProcess(networkDesc_t *pChosenNwk);
    236          
    237          ZStatus_t bdb_TCAddJoiningDevice(uint16 parentAddr, uint8* JoiningExtAddr);
    238          void bdb_TCjoiningDeviceComplete(uint8* JoiningExtAddr);
    239          
    240           /*********************************************************************
    241           * @fn          bdb_Init
    242           *
    243           * @brief       Initialization function for the Base Device Behavior.
    244           *
    245           * @param       task_id - bdb_TaskID Task ID
    246           *
    247           * @return      none
    248           */

   \                                 In  segment BANKED_CODE, align 1, keep-with-next
    249          void bdb_Init( byte task_id )
   \                     bdb_Init:
    250          {
   \   000000   74F7         MOV       A,#-0x9
   \   000002   12....       LCALL     ?BANKED_ENTER_XDATA
   \   000005                ; Saved register size: 9
   \   000005                ; Auto size: 0
   \   000005   E9           MOV       A,R1
   \   000006   FE           MOV       R6,A
    251            bdb_TaskID = task_id;
   \   000007   90....       MOV       DPTR,#bdb_TaskID
   \   00000A   F0           MOVX      @DPTR,A
    252              
    253          #if (ZG_BUILD_COORDINATOR_TYPE)
    254            if(ZG_DEVICE_COORDINATOR_TYPE)
    255            {
    256              if(bdbAttributes.bdbJoinUsesInstallCodeKey)
    257              {
    258                zgAllowInstallCodes = ZG_IC_MUST_USED;
    259              }
    260            }
    261          #endif
    262            
    263          #if defined ( INTER_PAN ) && defined ( BDB_TL_INITIATOR )  
    264            touchLinkInitiator_InitDevice( );
    265          #endif
    266          
    267          #if (BDB_REPORTING)
    268            bdb_RepInit();
    269          #endif  
    270            
    271            //Register ZDO callbacks
    272            ZDO_RegisterForZDOMsg ( task_id, Node_Desc_rsp );
   \   00000B                ; Setup parameters for call to function ZDO_RegisterForZDOMsg
   \   00000B   7A02         MOV       R2,#0x2
   \   00000D   7B80         MOV       R3,#-0x80
   \   00000F   12....       LCALL     `??ZDO_RegisterForZDOMsg::?relay`; Banked call to: ZDO_RegisterForZDOMsg
    273          #if (BDB_FINDING_BINDING_CAPABILITY_ENABLED==1)  
    274            ZDO_RegisterForZDOMsg ( task_id, IEEE_addr_rsp );
   \   000012                ; Setup parameters for call to function ZDO_RegisterForZDOMsg
   \   000012   7A01         MOV       R2,#0x1
   \   000014   7B80         MOV       R3,#-0x80
   \   000016   EE           MOV       A,R6
   \   000017   F9           MOV       R1,A
   \   000018   12....       LCALL     `??ZDO_RegisterForZDOMsg::?relay`; Banked call to: ZDO_RegisterForZDOMsg
    275            ZDO_RegisterForZDOMsg ( task_id, Simple_Desc_rsp );
   \   00001B                ; Setup parameters for call to function ZDO_RegisterForZDOMsg
   \   00001B   7A04         MOV       R2,#0x4
   \   00001D   7B80         MOV       R3,#-0x80
   \   00001F   EE           MOV       A,R6
   \   000020   F9           MOV       R1,A
   \   000021   12....       LCALL     `??ZDO_RegisterForZDOMsg::?relay`; Banked call to: ZDO_RegisterForZDOMsg
    276          #endif
    277            
    278          #if !defined (DISABLE_GREENPOWER_BASIC_PROXY) && (ZG_BUILD_RTR_TYPE)
    279            gp_RegisterGPChangeChannelReqForBDBCB(gp_ChangeChannelReq);
   \   000024                ; Setup parameters for call to function gp_RegisterGPChangeChannelReqForBDBCB
   \   000024   7A..         MOV       R2,#`??gp_ChangeChannelReq::?relay` & 0xff
   \   000026   7B..         MOV       R3,#(`??gp_ChangeChannelReq::?relay` >> 8) & 0xff
   \   000028   12....       LCALL     `??gp_RegisterGPChangeChannelReqForBDBCB::?relay`; Banked call to: gp_RegisterGPChangeChannelReqForBDBCB
    280            gp_CBInit();
   \   00002B   90....       MOV       DPTR,#GP_DataCnfGCB
   \   00002E   74..         MOV       A,#`??GP_DataCnf::?relay` & 0xff
   \   000030   F0           MOVX      @DPTR,A
   \   000031   A3           INC       DPTR
   \   000032   74..         MOV       A,#(`??GP_DataCnf::?relay` >> 8) & 0xff
   \   000034   F0           MOVX      @DPTR,A
   \   000035   90....       MOV       DPTR,#GP_endpointInitGCB
   \   000038   74..         MOV       A,#`??gp_endpointInit::?relay` & 0xff
   \   00003A   F0           MOVX      @DPTR,A
   \   00003B   A3           INC       DPTR
   \   00003C   74..         MOV       A,#(`??gp_endpointInit::?relay` >> 8) & 0xff
   \   00003E   F0           MOVX      @DPTR,A
   \   00003F   90....       MOV       DPTR,#GP_expireDuplicateFilteringGCB
   \   000042   74..         MOV       A,#`??gp_expireDuplicateFiltering::?relay` & 0xff
   \   000044   F0           MOVX      @DPTR,A
   \   000045   A3           INC       DPTR
   \   000046   74..         MOV       A,#(`??gp_expireDuplicateFiltering::?relay` >> 8) & 0xff
   \   000048   F0           MOVX      @DPTR,A
   \   000049   90....       MOV       DPTR,#GP_stopCommissioningModeGCB
   \   00004C   74..         MOV       A,#`??gp_stopCommissioningMode::?relay` & 0xff
   \   00004E   F0           MOVX      @DPTR,A
   \   00004F   A3           INC       DPTR
   \   000050   74..         MOV       A,#(`??gp_stopCommissioningMode::?relay` >> 8) & 0xff
   \   000052   F0           MOVX      @DPTR,A
   \   000053   90....       MOV       DPTR,#GP_returnOperationalChannelGCB
   \   000056   74..         MOV       A,#`??gp_returnOperationalChannel::?relay` & 0xff
   \   000058   F0           MOVX      @DPTR,A
   \   000059   A3           INC       DPTR
   \   00005A   74..         MOV       A,#(`??gp_returnOperationalChannel::?relay` >> 8) & 0xff
   \   00005C   F0           MOVX      @DPTR,A
   \   00005D   90....       MOV       DPTR,#GP_DataIndGCB
   \   000060   74..         MOV       A,#`??GP_DataInd::?relay` & 0xff
   \   000062   F0           MOVX      @DPTR,A
   \   000063   A3           INC       DPTR
   \   000064   74..         MOV       A,#(`??GP_DataInd::?relay` >> 8) & 0xff
   \   000066   F0           MOVX      @DPTR,A
   \   000067   90....       MOV       DPTR,#GP_SecReqGCB
   \   00006A   74..         MOV       A,#`??GP_SecReq::?relay` & 0xff
   \   00006C   F0           MOVX      @DPTR,A
   \   00006D   A3           INC       DPTR
   \   00006E   74..         MOV       A,#(`??GP_SecReq::?relay` >> 8) & 0xff
   \   000070   F0           MOVX      @DPTR,A
   \   000071   90....       MOV       DPTR,#GP_CheckAnnouncedDeviceGCB
   \   000074   74..         MOV       A,#`??gp_CheckAnnouncedDevice::?relay` & 0xff
   \   000076   F0           MOVX      @DPTR,A
   \   000077   A3           INC       DPTR
   \   000078   74..         MOV       A,#(`??gp_CheckAnnouncedDevice::?relay` >> 8) & 0xff
   \   00007A   F0           MOVX      @DPTR,A
   \   00007B   90....       MOV       DPTR,#GP_aliasConflictAnnce
   \   00007E   74..         MOV       A,#aliasConflictAnnce & 0xff
   \   000080   F0           MOVX      @DPTR,A
   \   000081   A3           INC       DPTR
   \   000082   74..         MOV       A,#(aliasConflictAnnce >> 8) & 0xff
   \   000084   F0           MOVX      @DPTR,A
   \   000085                ; Setup parameters for call to function gp_endpointInit
   \   000085   12....       LCALL     `??gp_endpointInit::?relay`; Banked call to: gp_endpointInit
    281          #endif
    282          }
   \   000088   02....       LJMP      ?Subroutine0 & 0xFFFF

   \                                 In  segment BANKED_CODE, align 1, keep-with-next
   \                     ?Subroutine0:
   \   000000   7F01         MOV       R7,#0x1
   \   000002   02....       LJMP      ?BANKED_LEAVE_XDATA
    283          
    284          /*********************************************************************
    285           * @fn      bdb_RegisterSimpleDescriptor
    286           *
    287           * @brief   Register the Simple descriptor. This function also registers 
    288           *          the profile's cluster conversion table.
    289           *
    290           * @param   simpleDesc - a pointer to a valid SimpleDescriptionFormat_t, must not be NULL.
    291           *
    292           * @return  none
    293           */

   \                                 In  segment BANKED_CODE, align 1, keep-with-next
    294          void bdb_RegisterSimpleDescriptor( SimpleDescriptionFormat_t *simpleDesc )
   \                     bdb_RegisterSimpleDescriptor:
    295          {
   \   000000                REQUIRE ?V0
   \   000000                REQUIRE ?V1
   \   000000   74F6         MOV       A,#-0xa
   \   000002   12....       LCALL     ?BANKED_ENTER_XDATA
   \   000005                ; Saved register size: 10
   \   000005                ; Auto size: 0
   \   000005   EA           MOV       A,R2
   \   000006   FE           MOV       R6,A
   \   000007   EB           MOV       A,R3
   \   000008   FF           MOV       R7,A
    296            endPointDesc_t *epDesc;
    297          
    298            // Register the application's endpoint descriptor
    299            //  - This memory is allocated and never freed.
    300            epDesc = osal_mem_alloc( sizeof ( endPointDesc_t ) );
   \   000009                ; Setup parameters for call to function osal_mem_alloc
   \   000009   7A07         MOV       R2,#0x7
   \   00000B   7B00         MOV       R3,#0x0
   \   00000D   12....       LCALL     `??osal_mem_alloc::?relay`; Banked call to: osal_mem_alloc
    301            if ( epDesc )
   \   000010   EA           MOV       A,R2
   \   000011   4B           ORL       A,R3
   \   000012   6023         JZ        ??bdb_RegisterSimpleDescriptor_0
    302            {
    303              // Fill out the endpoint description.
    304              epDesc->endPoint = simpleDesc->EndPoint;
   \   000014   8E82         MOV       DPL,R6
   \   000016   8F83         MOV       DPH,R7
   \   000018   E0           MOVX      A,@DPTR
   \   000019   8A82         MOV       DPL,R2
   \   00001B   8B83         MOV       DPH,R3
   \   00001D   F0           MOVX      @DPTR,A
    305              epDesc->task_id = &zcl_TaskID;   // all messages get sent to ZCL first
   \   00001E   A3           INC       DPTR
   \   00001F   A3           INC       DPTR
   \   000020   74..         MOV       A,#zcl_TaskID & 0xff
   \   000022   F0           MOVX      @DPTR,A
   \   000023   A3           INC       DPTR
   \   000024   74..         MOV       A,#(zcl_TaskID >> 8) & 0xff
   \   000026   12....       LCALL     ?Subroutine8 & 0xFFFF
    306              epDesc->simpleDesc = simpleDesc;
   \                     ??CrossCallReturnLabel_8:
   \   000029   EE           MOV       A,R6
   \   00002A   F0           MOVX      @DPTR,A
   \   00002B   A3           INC       DPTR
   \   00002C   EF           MOV       A,R7
   \   00002D   12....       LCALL     ?Subroutine8 & 0xFFFF
    307              epDesc->latencyReq = noLatencyReqs;
   \                     ??CrossCallReturnLabel_9:
   \   000030   A3           INC       DPTR
   \   000031   A3           INC       DPTR
   \   000032   E4           CLR       A
   \   000033   F0           MOVX      @DPTR,A
    308          
    309              // Register the endpoint description with the AF
    310              afRegister( epDesc );
   \   000034                ; Setup parameters for call to function afRegister
   \   000034   12....       LCALL     `??afRegister::?relay`; Banked call to: afRegister
    311            }
    312          }
   \                     ??bdb_RegisterSimpleDescriptor_0:
   \   000037   02....       LJMP      ??Subroutine42_0 & 0xFFFF

   \                                 In  segment BANKED_CODE, align 1, keep-with-next
   \                     ?Subroutine8:
   \   000000   F0           MOVX      @DPTR,A
   \   000001   8A82         MOV       DPL,R2
   \   000003   8B83         MOV       DPH,R3
   \   000005   A3           INC       DPTR
   \   000006   A3           INC       DPTR
   \   000007   A3           INC       DPTR
   \   000008   A3           INC       DPTR
   \   000009   22           RET

   \                                 In  segment BANKED_CODE, align 1, keep-with-next
   \                     ??Subroutine42_0:
   \   000000   7F02         MOV       R7,#0x2
   \   000002   02....       LJMP      ?BANKED_LEAVE_XDATA
    313          
    314          #if (BDB_FINDING_BINDING_CAPABILITY_ENABLED==1)  
    315          /*********************************************************************
    316           * @fn      bdb_ZclIdentifyCmdInd
    317           *
    318           * @brief   Callback from the ZCL General Cluster Library when
    319           *          it received an Identity Command for this application.
    320           *
    321           * @param   identifyTime - the number of seconds to identify yourself
    322           * @param   endpoint - destination endpoint
    323           *
    324           * @return  none
    325           */

   \                                 In  segment BANKED_CODE, align 1, keep-with-next
    326          void bdb_ZclIdentifyCmdInd( uint16 identifyTime, uint8 endpoint )
   \                     bdb_ZclIdentifyCmdInd:
    327          {
   \   000000                REQUIRE ?V0
   \   000000                REQUIRE ?V2
   \   000000                REQUIRE ?V3
   \   000000   74F4         MOV       A,#-0xc
   \   000002   12....       LCALL     ?BANKED_ENTER_XDATA
   \   000005                ; Saved register size: 12
   \   000005                ; Auto size: 8
   \   000005   74F8         MOV       A,#-0x8
   \   000007   12....       LCALL     ?ALLOC_XSTACK8
   \   00000A   EA           MOV       A,R2
   \   00000B   FE           MOV       R6,A
   \   00000C   EB           MOV       A,R3
   \   00000D   FF           MOV       R7,A
   \   00000E   89..         MOV       ?V0,R1
    328            zclAttrRec_t identifyAttrRec;
    329            
    330            if ( zclFindAttrRec( endpoint, ZCL_CLUSTER_ID_GEN_IDENTIFY,
    331                                ATTRID_IDENTIFY_TIME, &identifyAttrRec ) )
   \   000010                ; Setup parameters for call to function zclFindAttrRec
   \   000010   A8..         MOV       R0,?XSP + 0
   \   000012   A9..         MOV       R1,?XSP + 1
   \   000014   88..         MOV       ?V2,R0
   \   000016   89..         MOV       ?V3,R1
   \   000018   78..         MOV       R0,#?V2
   \   00001A   12....       LCALL     ?PUSH_XSTACK_I_TWO
   \   00001D   7C00         MOV       R4,#0x0
   \   00001F   7D00         MOV       R5,#0x0
   \   000021   7A03         MOV       R2,#0x3
   \   000023   7B00         MOV       R3,#0x0
   \   000025   A9..         MOV       R1,?V0
   \   000027   12....       LCALL     `??zclFindAttrRec::?relay`; Banked call to: zclFindAttrRec
   \   00002A   7402         MOV       A,#0x2
   \   00002C   12....       LCALL     ?DEALLOC_XSTACK8
   \   00002F   E9           MOV       A,R1
   \   000030   6056         JZ        ??bdb_ZclIdentifyCmdInd_0
    332            {
    333              //If we are processing an actual change
    334              if(*(uint16*)identifyAttrRec.attr.dataPtr != identifyTime)
   \   000032   7406         MOV       A,#0x6
   \   000034   12....       LCALL     ?XSTACK_DISP0_8
   \   000037   12....       LCALL     ?Subroutine19 & 0xFFFF
   \                     ??CrossCallReturnLabel_28:
   \   00003A   E0           MOVX      A,@DPTR
   \   00003B   6E           XRL       A,R6
   \   00003C   7003         JNZ       ??bdb_ZclIdentifyCmdInd_1
   \   00003E   A3           INC       DPTR
   \   00003F   E0           MOVX      A,@DPTR
   \   000040   6F           XRL       A,R7
   \                     ??bdb_ZclIdentifyCmdInd_1:
   \   000041   6045         JZ        ??bdb_ZclIdentifyCmdInd_0
    335              {
    336                if ( identifyTime > 0 )
   \   000043   EE           MOV       A,R6
   \   000044   4F           ORL       A,R7
   \   000045   8882         MOV       DPL,R0
   \   000047   8983         MOV       DPH,R1
   \   000049   601E         JZ        ??bdb_ZclIdentifyCmdInd_2
    337                {
    338                  *((uint16*)identifyAttrRec.attr.dataPtr) = identifyTime;
   \   00004B   EE           MOV       A,R6
   \   00004C   F0           MOVX      @DPTR,A
   \   00004D   A3           INC       DPTR
   \   00004E   EF           MOV       A,R7
   \   00004F   F0           MOVX      @DPTR,A
    339                  osal_start_timerEx( bdb_TaskID, BDB_IDENTIFY_TIMEOUT, 1000 );
   \   000050                ; Setup parameters for call to function osal_start_timerEx
   \   000050   90....       MOV       DPTR,#__Constant_3e8
   \   000053   12....       LCALL     ?PUSH_XSTACK8_X_FOUR
   \   000056   7A00         MOV       R2,#0x0
   \   000058   7B20         MOV       R3,#0x20
   \   00005A   90....       MOV       DPTR,#bdb_TaskID
   \   00005D   E0           MOVX      A,@DPTR
   \   00005E   F9           MOV       R1,A
   \   00005F   12....       LCALL     `??osal_start_timerEx::?relay`; Banked call to: osal_start_timerEx
   \   000062   7404         MOV       A,#0x4
   \   000064   12....       LCALL     ?DEALLOC_XSTACK8
   \   000067   800F         SJMP      ??bdb_ZclIdentifyCmdInd_3
    340                }
    341                else if ( identifyTime <= 0 )
    342                {
    343                  *((uint16*)identifyAttrRec.attr.dataPtr) = 0;
   \                     ??bdb_ZclIdentifyCmdInd_2:
   \   000069   E4           CLR       A
   \   00006A   F0           MOVX      @DPTR,A
   \   00006B   A3           INC       DPTR
   \   00006C   F0           MOVX      @DPTR,A
    344                  osal_stop_timerEx( bdb_TaskID, BDB_IDENTIFY_TIMEOUT );
   \   00006D                ; Setup parameters for call to function osal_stop_timerEx
   \   00006D   FA           MOV       R2,A
   \   00006E   7B20         MOV       R3,#0x20
   \   000070   90....       MOV       DPTR,#bdb_TaskID
   \   000073   E0           MOVX      A,@DPTR
   \   000074   F9           MOV       R1,A
   \   000075   12....       LCALL     `??osal_stop_timerEx::?relay`; Banked call to: osal_stop_timerEx
    345                }
    346                
    347                if(pfnIdentifyTimeChangeCB != NULL)
   \                     ??bdb_ZclIdentifyCmdInd_3:
   \   000078   90....       MOV       DPTR,#pfnIdentifyTimeChangeCB
   \   00007B   12....       LCALL     ??Subroutine38_0 & 0xFFFF
   \                     ??CrossCallReturnLabel_74:
   \   00007E   6008         JZ        ??bdb_ZclIdentifyCmdInd_0
    348                {
    349                  pfnIdentifyTimeChangeCB(endpoint);
   \   000080                ; Setup parameters for indirect call
   \   000080   A9..         MOV       R1,?V0
   \   000082   12....       LCALL     ??Subroutine35_0 & 0xFFFF
    350                }
    351              }
    352            }
   \                     ??CrossCallReturnLabel_59:
   \   000085   12....       LCALL     ?CALL_IND
    353          }
   \                     ??bdb_ZclIdentifyCmdInd_0:
   \   000088   7408         MOV       A,#0x8
   \   00008A   02....       LJMP      ??Subroutine33_0 & 0xFFFF

   \                                 In  segment BANKED_CODE, align 1, keep-with-next
   \                     ??Subroutine33_0:
   \   000000   12....       LCALL     ?DEALLOC_XSTACK8
   \   000003                REQUIRE ??Subroutine34_0
   \   000003                ; // Fall through to label ??Subroutine34_0

   \                                 In  segment BANKED_CODE, align 1, keep-with-next
   \                     ??Subroutine34_0:
   \   000000   7F04         MOV       R7,#0x4
   \   000002   02....       LJMP      ?BANKED_LEAVE_XDATA

   \                                 In  segment BANKED_CODE, align 1, keep-with-next
   \                     ??Subroutine35_0:
   \   000000   E0           MOVX      A,@DPTR
   \   000001   F583         MOV       DPH,A
   \   000003   8882         MOV       DPL,R0
   \   000005   22           RET

   \                                 In  segment BANKED_CODE, align 1, keep-with-next
   \                     ?Subroutine19:
   \   000000   E0           MOVX      A,@DPTR
   \   000001   F8           MOV       R0,A
   \   000002   A3           INC       DPTR
   \   000003   E0           MOVX      A,@DPTR
   \   000004   F9           MOV       R1,A
   \   000005   8882         MOV       DPL,R0
   \   000007   8983         MOV       DPH,R1
   \   000009   22           RET

   \                                 In  segment BANKED_CODE, align 1, keep-with-next
   \                     ??Subroutine38_0:
   \   000000   E0           MOVX      A,@DPTR
   \   000001   F8           MOV       R0,A
   \   000002   A3           INC       DPTR
   \   000003   E0           MOVX      A,@DPTR
   \   000004   F9           MOV       R1,A
   \   000005   E8           MOV       A,R0
   \   000006   49           ORL       A,R1
   \   000007   22           RET
    354          #endif
    355          
    356          
    357          #if (ZG_BUILD_JOINING_TYPE) 
    358           /*********************************************************************
    359           * @fn          bdb_setActiveCentralizedLinkKey
    360           *
    361           * @brief       Set the active centralized key to be used, Global or IC derived. See zstack_CentralizedLinkKeyModes_t
    362           *
    363           * @param       zstack_CentralizedLinkKeyModes - Key to be used for joining centralized network
    364           * @param       pKey - Key to be used (if any)
    365           *
    366           * @return      ZStatus_t - ZFailure when no valid BDB_INSTALL_CODE_USE is used
    367           *                          ZInvalidParameter when IC buffer is null
    368           */

   \                                 In  segment BANKED_CODE, align 1, keep-with-next
    369          ZStatus_t bdb_setActiveCentralizedLinkKey(uint8 zstack_CentralizedLinkKeyModes, uint8* pKey)
   \                     bdb_setActiveCentralizedLinkKey:
    370          {
   \   000000                REQUIRE ?V0
   \   000000   74F7         MOV       A,#-0x9
   \   000002   12....       LCALL     ?BANKED_ENTER_XDATA
   \   000005                ; Saved register size: 9
   \   000005                ; Auto size: 8
   \   000005   74F8         MOV       A,#-0x8
   \   000007   12....       LCALL     ?ALLOC_XSTACK8
   \   00000A   89..         MOV       ?V0,R1
   \   00000C   EA           MOV       A,R2
   \   00000D   FE           MOV       R6,A
   \   00000E   EB           MOV       A,R3
   \   00000F   FF           MOV       R7,A
    371            ZStatus_t Status;
    372          
    373            uint8 extAddr[Z_EXTADDR_LEN];
    374          
    375            osal_memset(extAddr,0x00,Z_EXTADDR_LEN);
   \   000010                ; Setup parameters for call to function osal_memset
   \   000010   7C08         MOV       R4,#0x8
   \   000012   7D00         MOV       R5,#0x0
   \   000014   7900         MOV       R1,#0x0
   \   000016   AA..         MOV       R2,?XSP + 0
   \   000018   AB..         MOV       R3,?XSP + 1
   \   00001A   12....       LCALL     `??osal_memset::?relay`; Banked call to: osal_memset
    376          
    377            if(pKey == NULL)
   \   00001D   EE           MOV       A,R6
   \   00001E   4F           ORL       A,R7
   \   00001F   603E         JZ        ??bdb_setActiveCentralizedLinkKey_0
    378            {
    379              return ZInvalidParameter;
    380            }
    381          
    382            //Clear it, if the request requires it, it will be set
    383            gZDSECMGR_TC_ATTEMPT_DEFAULT_KEY = FALSE;
   \   000021   90....       MOV       DPTR,#gZDSECMGR_TC_ATTEMPT_DEFAULT_KEY
   \   000024   E4           CLR       A
   \   000025   F0           MOVX      @DPTR,A
    384          
    385            switch(zstack_CentralizedLinkKeyModes)
   \   000026   E5..         MOV       A,?V0
   \   000028   600E         JZ        ??bdb_setActiveCentralizedLinkKey_1
   \   00002A   14           DEC       A
   \   00002B   6013         JZ        ??bdb_setActiveCentralizedLinkKey_2
   \   00002D   14           DEC       A
   \   00002E   600D         JZ        ??bdb_setActiveCentralizedLinkKey_3
   \   000030   14           DEC       A
   \   000031   601D         JZ        ??bdb_setActiveCentralizedLinkKey_4
   \   000033   14           DEC       A
   \   000034   6017         JZ        ??bdb_setActiveCentralizedLinkKey_5
   \   000036   8027         SJMP      ??bdb_setActiveCentralizedLinkKey_0
    386            {
    387              case zstack_UseDefaultGlobalTrustCenterLinkKey:
    388                //Set the default key to be used in centralized networks as defaultTCLinkKey
    389                Status = APSME_SetDefaultKey();
   \                     ??bdb_setActiveCentralizedLinkKey_1:
   \   000038                ; Setup parameters for call to function APSME_SetDefaultKey
   \   000038   12....       LCALL     `??APSME_SetDefaultKey::?relay`; Banked call to: APSME_SetDefaultKey
   \   00003B   801E         SJMP      ??bdb_setActiveCentralizedLinkKey_6
    390              break;
    391          
    392              case zstack_UseInstallCodeWithFallback:
    393                //same as zstack_UseInstallCode but attempt default TRUE
    394                gZDSECMGR_TC_ATTEMPT_DEFAULT_KEY = TRUE;
   \                     ??bdb_setActiveCentralizedLinkKey_3:
   \   00003D   7401         MOV       A,#0x1
   \   00003F   F0           MOVX      @DPTR,A
    395              case zstack_UseInstallCode:
    396                 //Set the install code as default key
    397                Status = bdb_addInstallCode(pKey,extAddr);
   \                     ??bdb_setActiveCentralizedLinkKey_2:
   \   000040                ; Setup parameters for call to function bdb_addInstallCode
   \   000040   AC..         MOV       R4,?XSP + 0
   \   000042   AD..         MOV       R5,?XSP + 1
   \   000044   EE           MOV       A,R6
   \   000045   FA           MOV       R2,A
   \   000046   EF           MOV       A,R7
   \   000047   FB           MOV       R3,A
   \   000048   12....       LCALL     `??bdb_addInstallCode::?relay`; Banked call to: bdb_addInstallCode
   \   00004B   800E         SJMP      ??bdb_setActiveCentralizedLinkKey_6
    398              break;
    399          
    400              case zstack_UseAPSKeyWithFallback:
    401                //same as zstack_UseAPSKey but attempt default TRUE
    402                gZDSECMGR_TC_ATTEMPT_DEFAULT_KEY = TRUE;
   \                     ??bdb_setActiveCentralizedLinkKey_5:
   \   00004D   7401         MOV       A,#0x1
   \   00004F   F0           MOVX      @DPTR,A
    403              case zstack_UseAPSKey:
    404                //Set the key as global default
    405                Status = APSME_AddTCLinkKey(pKey,extAddr);
   \                     ??bdb_setActiveCentralizedLinkKey_4:
   \   000050                ; Setup parameters for call to function APSME_AddTCLinkKey
   \   000050   AC..         MOV       R4,?XSP + 0
   \   000052   AD..         MOV       R5,?XSP + 1
   \   000054   EE           MOV       A,R6
   \   000055   FA           MOV       R2,A
   \   000056   EF           MOV       A,R7
   \   000057   FB           MOV       R3,A
   \   000058   12....       LCALL     `??APSME_AddTCLinkKey::?relay`; Banked call to: APSME_AddTCLinkKey
   \                     ??bdb_setActiveCentralizedLinkKey_6:
   \   00005B   E9           MOV       A,R1
   \   00005C   F9           MOV       R1,A
    406              break;
   \   00005D   8002         SJMP      ??bdb_setActiveCentralizedLinkKey_7
    407              
    408              default:
    409                Status = ZInvalidParameter;
   \                     ??bdb_setActiveCentralizedLinkKey_0:
   \   00005F   7902         MOV       R1,#0x2
    410              break;
    411            }
    412          
    413            return Status;
   \                     ??bdb_setActiveCentralizedLinkKey_7:
   \   000061   7408         MOV       A,#0x8
   \   000063   12....       LCALL     ?DEALLOC_XSTACK8
   \   000066   02....       LJMP      ?Subroutine0 & 0xFFFF
    414          }
    415          #endif
    416          
    417          
    418              
    419            
    420          /******************************************************************************
    421           * @fn          bdb_addInstallCode
    422           *
    423           * @brief       Interface to add an install codes and adds a APS TC Link key.
    424           *
    425           * @param       pInstallCode - [in] Install Code with CRC (buffer size of 18 bytes).
    426           *              pExt - [in] Extended address of the node.
    427           *
    428           * @return      ZStatus_t
    429           */

   \                                 In  segment BANKED_CODE, align 1, keep-with-next
    430          ZStatus_t bdb_addInstallCode(uint8* pInstallCode, uint8* pExt)
   \                     bdb_addInstallCode:
    431          {
   \   000000                REQUIRE ?V0
   \   000000                REQUIRE ?V1
   \   000000                REQUIRE ?V2
   \   000000                REQUIRE ?V3
   \   000000                REQUIRE ?V4
   \   000000                REQUIRE ?V5
   \   000000   74F2         MOV       A,#-0xe
   \   000002   12....       LCALL     ?BANKED_ENTER_XDATA
   \   000005                ; Saved register size: 14
   \   000005                ; Auto size: 16
   \   000005   74F0         MOV       A,#-0x10
   \   000007   12....       LCALL     ?ALLOC_XSTACK8
   \   00000A   EA           MOV       A,R2
   \   00000B   FE           MOV       R6,A
   \   00000C   EB           MOV       A,R3
   \   00000D   FF           MOV       R7,A
   \   00000E   8C..         MOV       ?V0,R4
   \   000010   8D..         MOV       ?V1,R5
    432            uint8  hashOutput[16];
    433            uint16 CRC;
    434            
    435          #if (ZG_BUILD_COORDINATOR_TYPE)
    436            if(ZG_DEVICE_COORDINATOR_TYPE)
    437            {
    438              if(zgAllowInstallCodes == ZG_IC_NOT_SUPPORTED)
    439              {
    440                return ZFailure;
    441              }
    442            }
    443          #endif
    444                 
    445            if((pInstallCode == NULL) || (pExt == NULL))
   \   000012   EE           MOV       A,R6
   \   000013   4F           ORL       A,R7
   \   000014   6020         JZ        ??bdb_addInstallCode_0
   \   000016   EC           MOV       A,R4
   \   000017   45..         ORL       A,?V1
   \   000019   601B         JZ        ??bdb_addInstallCode_0
    446            {
    447              return ZInvalidParameter;
    448            }
    449            
    450            CRC = bdb_GenerateInstallCodeCRC(pInstallCode);
   \   00001B                ; Setup parameters for call to function bdb_GenerateInstallCodeCRC
   \   00001B   12....       LCALL     `??bdb_GenerateInstallCodeCRC::?relay`; Banked call to: bdb_GenerateInstallCodeCRC
   \   00001E   8A..         MOV       ?V2,R2
   \   000020   8B..         MOV       ?V3,R3
    451          
    452            //Validate CRC
    453            if(CRC != osal_build_uint16(&pInstallCode[INSTALL_CODE_LEN]))
   \   000022                ; Setup parameters for call to function osal_build_uint16
   \   000022   EE           MOV       A,R6
   \   000023   2410         ADD       A,#0x10
   \   000025   FA           MOV       R2,A
   \   000026   E4           CLR       A
   \   000027   3F           ADDC      A,R7
   \   000028   FB           MOV       R3,A
   \   000029   12....       LCALL     `??osal_build_uint16::?relay`; Banked call to: osal_build_uint16
   \   00002C   EA           MOV       A,R2
   \   00002D   65..         XRL       A,?V2
   \   00002F   7003         JNZ       ??bdb_addInstallCode_1
   \   000031   EB           MOV       A,R3
   \   000032   65..         XRL       A,?V3
   \                     ??bdb_addInstallCode_1:
   \   000034   6004         JZ        ??bdb_addInstallCode_2
    454            {
    455              return ZInvalidParameter;
   \                     ??bdb_addInstallCode_0:
   \   000036   7902         MOV       R1,#0x2
   \   000038   8035         SJMP      ??bdb_addInstallCode_3
    456            }
    457          
    458            sspMMOHash (NULL, 0, pInstallCode,(INSTALL_CODE_LEN + INSTALL_CODE_CRC_LEN) * BITS_PER_BYTE, hashOutput);
   \                     ??bdb_addInstallCode_2:
   \   00003A                ; Setup parameters for call to function sspMMOHash
   \   00003A   A8..         MOV       R0,?XSP + 0
   \   00003C   A9..         MOV       R1,?XSP + 1
   \   00003E   88..         MOV       ?V2,R0
   \   000040   89..         MOV       ?V3,R1
   \   000042   78..         MOV       R0,#?V2
   \   000044   12....       LCALL     ?PUSH_XSTACK_I_TWO
   \   000047   75..90       MOV       ?V2,#-0x70
   \   00004A   75..00       MOV       ?V3,#0x0
   \   00004D   78..         MOV       R0,#?V2
   \   00004F   12....       LCALL     ?PUSH_XSTACK_I_TWO
   \   000052   EE           MOV       A,R6
   \   000053   FC           MOV       R4,A
   \   000054   EF           MOV       A,R7
   \   000055   FD           MOV       R5,A
   \   000056   7900         MOV       R1,#0x0
   \   000058   7A00         MOV       R2,#0x0
   \   00005A   7B00         MOV       R3,#0x0
   \   00005C   12....       LCALL     `??sspMMOHash::?relay`; Banked call to: sspMMOHash
   \   00005F   7404         MOV       A,#0x4
   \   000061   12....       LCALL     ?DEALLOC_XSTACK8
    459          
    460            return APSME_AddTCLinkKey(hashOutput,pExt);
   \   000064                ; Setup parameters for call to function APSME_AddTCLinkKey
   \   000064   AC..         MOV       R4,?V0
   \   000066   AD..         MOV       R5,?V1
   \   000068   AA..         MOV       R2,?XSP + 0
   \   00006A   AB..         MOV       R3,?XSP + 1
   \   00006C   12....       LCALL     `??APSME_AddTCLinkKey::?relay`; Banked call to: APSME_AddTCLinkKey
   \                     ??bdb_addInstallCode_3:
   \   00006F   7410         MOV       A,#0x10
   \   000071   12....       LCALL     ?DEALLOC_XSTACK8
   \   000074   7F06         MOV       R7,#0x6
   \   000076   02....       LJMP      ?BANKED_LEAVE_XDATA
    461          }    
    462              
    463          
    464          #if (ZG_BUILD_COORDINATOR_TYPE)
    465           /*********************************************************************
    466           * @fn      bdb_RegisterTCLinkKeyExchangeProcessCB
    467           *
    468           * @brief   Register a callback to receive notifications on the joining devices 
    469           *          and its status on TC link key exchange
    470           *
    471           * @param   bdbGCB_TCLinkKeyExchangeProcess - application callback 
    472           *          (extended address of device, status: 0 = Joining, 1 = TC link key exchange success, 2 = TC link key exchange failed)
    473           *
    474           * @return  none
    475           */
    476          void bdb_RegisterTCLinkKeyExchangeProcessCB(bdbGCB_TCLinkKeyExchangeProcess_t bdbGCB_TCLinkKeyExchangeProcess)
    477          {
    478            if(bdbGCB_TCLinkKeyExchangeProcess != NULL)
    479            {
    480              pfnTCLinkKeyExchangeProcessCB = bdbGCB_TCLinkKeyExchangeProcess;
    481            }
    482          }
    483          
    484          
    485          
    486           /*********************************************************************
    487           * @fn          bdb_setTCRequireKeyExchange
    488           *
    489           * @brief       Set the bdb_setTCRequireKeyExchange attribute
    490           *
    491           * @param       isKeyExchangeRequired - True if TC will remove devices that do 
    492           *              not perform key exchange after bdbTrustCenterNodeJoinTimeout, 
    493           *              False to not remove devices.
    494           *
    495           * @return      none
    496           */
    497          void bdb_setTCRequireKeyExchange(bool isKeyExchangeRequired)
    498          {
    499            bdbAttributes.bdbTrustCenterRequireKeyExchange = isKeyExchangeRequired;
    500          }
    501          
    502          
    503          
    504           /*********************************************************************
    505           * @fn          bdb_TCAddJoiningDevice
    506           *
    507           * @brief       Add a joining device to the list of devices that must request a 
    508           *              key before bdbTrustCenterNodeJoinTimeout.
    509           *
    510           * @param       parentAddr - Address of the parent device
    511           * @param       JoiningExtAddr - IEEE address of the joining device
    512           *
    513           * @return      ZStatus_t - ZFailure No memory to allocate the device in the list
    514           *                          ZInvalidParameter
    515           */
    516          ZStatus_t bdb_TCAddJoiningDevice(uint16 parentAddr, uint8* JoiningExtAddr)
    517          {
    518            bdb_joiningDeviceList_t* tempJoiningDescNode;
    519            
    520            if((parentAddr == INVALID_NODE_ADDR) || (JoiningExtAddr == NULL))
    521            {
    522              return ZInvalidParameter;
    523            }
    524            
    525            //If the list was empty and element was allocated, then start the timer
    526            if(bdb_joiningDeviceList == NULL)
    527            {
    528              bdb_joiningDeviceList = osal_mem_alloc(sizeof(bdb_joiningDeviceList_t));
    529              if(bdb_joiningDeviceList == NULL)
    530              {
    531                return ZFailure;
    532              }
    533             
    534              osal_start_reload_timer(bdb_TaskID,BDB_TC_JOIN_TIMEOUT,1000);
    535              tempJoiningDescNode = bdb_joiningDeviceList;
    536            }
    537            //if the list was not empty then add the entry at the end of the list
    538            else
    539            {
    540              tempJoiningDescNode = bdb_joiningDeviceList;
    541              
    542              //Validate that this is not already in the list... somehow
    543              if(osal_memcmp(JoiningExtAddr,tempJoiningDescNode->bdbJoiningNodeEui64,Z_EXTADDR_LEN))
    544              {
    545                //The device added is already in the list, refresh its time and do nothing else
    546                tempJoiningDescNode->NodeJoinTimeout = bdbAttributes.bdbTrustCenterNodeJoinTimeout;
    547                return ZSuccess;
    548              }
    549              
    550              while(tempJoiningDescNode->nextDev != NULL)
    551              {
    552                tempJoiningDescNode = tempJoiningDescNode->nextDev;
    553                
    554                //Validate that this is not already in the list... somehow
    555                if(osal_memcmp(JoiningExtAddr,tempJoiningDescNode->bdbJoiningNodeEui64,Z_EXTADDR_LEN))
    556                {
    557                  //The device added is already in the list, refresh its time and do nothing else
    558                  tempJoiningDescNode->NodeJoinTimeout = bdbAttributes.bdbTrustCenterNodeJoinTimeout;
    559                  return ZSuccess;
    560                }
    561              }
    562              
    563              tempJoiningDescNode->nextDev = osal_mem_alloc(sizeof(bdb_joiningDeviceList_t));
    564              if(tempJoiningDescNode->nextDev == NULL)
    565              {
    566                return ZFailure;
    567              }
    568              
    569              tempJoiningDescNode = tempJoiningDescNode->nextDev;
    570            }
    571            
    572            if(pfnTCLinkKeyExchangeProcessCB)
    573            {
    574              bdb_TCLinkKeyExchProcess_t bdb_TCLinkKeyExchProcess;
    575              osal_memcpy(bdb_TCLinkKeyExchProcess.extAddr,tempJoiningDescNode->bdbJoiningNodeEui64, Z_EXTADDR_LEN);
    576              bdb_TCLinkKeyExchProcess.status = BDB_TC_LK_EXCH_PROCESS_JOINING;
    577              
    578              bdb_SendMsg(bdb_TaskID, BDB_TC_LINK_KEY_EXCHANGE_PROCESS, BDB_MSG_EVENT_SUCCESS,sizeof(bdb_TCLinkKeyExchProcess_t),(uint8*)&bdb_TCLinkKeyExchProcess);
    579            }
    580            
    581            tempJoiningDescNode->nextDev = NULL;
    582            tempJoiningDescNode->NodeJoinTimeout = bdbAttributes.bdbTrustCenterNodeJoinTimeout;
    583            tempJoiningDescNode->parentAddr = parentAddr;
    584            osal_memcpy(tempJoiningDescNode->bdbJoiningNodeEui64, JoiningExtAddr, Z_EXTADDR_LEN);
    585            
    586            return ZSuccess;
    587          }
    588          
    589          /****************************************************************************
    590           * @fn          bdb_TCProcessJoiningList
    591           *
    592           * @brief       Process the timer to handle the joining devices if the TC link 
    593           *              key is mandatory for all devices
    594           *
    595           * @param       none
    596           *
    597           * @return      none
    598           */
    599          void bdb_TCProcessJoiningList(void)
    600          {
    601            bdb_joiningDeviceList_t* tempJoiningDescNode;
    602            
    603            if(bdb_joiningDeviceList)
    604            {
    605              tempJoiningDescNode = bdb_joiningDeviceList;
    606            
    607              while(tempJoiningDescNode)
    608              {
    609                if(tempJoiningDescNode->NodeJoinTimeout)
    610                {
    611                  tempJoiningDescNode->NodeJoinTimeout--;
    612                }
    613                
    614                if(tempJoiningDescNode->NodeJoinTimeout == 0)
    615                {
    616                  //Check if the key exchange is required 
    617                  if(bdb_doTrustCenterRequireKeyExchange())
    618                  {
    619                      AddrMgrEntry_t entry;
    620                      
    621                      entry.user = ADDRMGR_USER_DEFAULT;
    622                      osal_memcpy(entry.extAddr,tempJoiningDescNode->bdbJoiningNodeEui64, Z_EXTADDR_LEN);
    623                      
    624                      if(AddrMgrEntryLookupExt(&entry))
    625                      {
    626                        ZDSecMgrAPSRemove(entry.nwkAddr,entry.extAddr,tempJoiningDescNode->parentAddr);
    627                      }
    628                  }
    629                  
    630                  //Expired device either is legacy device not using the TCLK entry or got 
    631                  //removed from the network because of timeout, eitherway it is not using
    632                  //TCLK entry neither the Security user in the address manager, so free the entry
    633                  //in both tables.
    634                  
    635                  uint16 keyNvIndex;
    636                  uint16 index;        
    637                  APSME_TCLKDevEntry_t TCLKDevEntry;
    638                  uint8 found;
    639                  
    640                  //Remove the entry in address manager
    641                  ZDSecMgrAddrClear(tempJoiningDescNode->bdbJoiningNodeEui64);
    642                  
    643                  //search for the entry in the TCLK table
    644                  keyNvIndex = APSME_SearchTCLinkKeyEntry(tempJoiningDescNode->bdbJoiningNodeEui64,&found, NULL);
    645                  
    646                  //If found, erase it.
    647                  if(found == TRUE)
    648                  {
    649                    osal_memset(&TCLKDevEntry,0,sizeof(APSME_TCLKDevEntry_t));
    650                    TCLKDevEntry.keyAttributes = ZG_DEFAULT_KEY;
    651                    
    652                    //Increase the shift by one. Validate the maximum shift of the seed which is 15
    653                    index = keyNvIndex - ZCD_NV_TCLK_TABLE_START;
    654                    
    655                    TCLinkKeyFrmCntr[index].rxFrmCntr = 0;
    656                    TCLinkKeyFrmCntr[index].txFrmCntr = 0;
    657                    
    658                    //Update the entry
    659                    osal_nv_write(keyNvIndex,0,sizeof(APSME_TCLKDevEntry_t), &TCLKDevEntry );
    660                  }
    661                  
    662                  if(pfnTCLinkKeyExchangeProcessCB)
    663                  {
    664                    bdb_TCLinkKeyExchProcess_t bdb_TCLinkKeyExchProcess;
    665                    osal_memcpy(bdb_TCLinkKeyExchProcess.extAddr,tempJoiningDescNode->bdbJoiningNodeEui64, Z_EXTADDR_LEN);
    666                    bdb_TCLinkKeyExchProcess.status = BDB_TC_LK_EXCH_PROCESS_EXCH_FAIL;
    667                    
    668                    bdb_SendMsg(bdb_TaskID, BDB_TC_LINK_KEY_EXCHANGE_PROCESS, BDB_MSG_EVENT_SUCCESS,sizeof(bdb_TCLinkKeyExchProcess_t),(uint8*)&bdb_TCLinkKeyExchProcess);
    669                  }
    670                 
    671                  //Free the device from the list
    672                  bdb_TCJoiningDeviceFree(tempJoiningDescNode);
    673                }
    674                tempJoiningDescNode = tempJoiningDescNode->nextDev;
    675              }
    676            }
    677          
    678            //we are done with the list
    679            if(bdb_joiningDeviceList == NULL)
    680            {
    681              osal_stop_timerEx(bdb_TaskID,BDB_TC_JOIN_TIMEOUT);
    682            }
    683          }
    684          
    685          
    686          
    687          /****************************************************************************
    688           * @fn          bdb_TCjoiningDeviceComplete
    689           *
    690           * @brief       This function frees a joining device from the list that has 
    691           *              finished TC link key exchange process
    692           *
    693           * @param       JoiningExtAddr - Extended address of the device
    694           *
    695           * @return      none
    696           */
    697          void bdb_TCjoiningDeviceComplete(uint8* JoiningExtAddr)
    698          {
    699            bdb_joiningDeviceList_t* tempJoiningDescNode;
    700            
    701            if((bdb_joiningDeviceList != NULL) && (JoiningExtAddr != NULL))
    702            {
    703              tempJoiningDescNode = bdb_joiningDeviceList;
    704              
    705              while(tempJoiningDescNode != NULL)
    706              {
    707                if(osal_memcmp(tempJoiningDescNode->bdbJoiningNodeEui64,JoiningExtAddr,Z_EXTADDR_LEN))
    708                {
    709                  if(pfnTCLinkKeyExchangeProcessCB)
    710                  {
    711                    bdb_TCLinkKeyExchProcess_t bdb_TCLinkKeyExchProcess;
    712                    osal_memcpy(bdb_TCLinkKeyExchProcess.extAddr,tempJoiningDescNode->bdbJoiningNodeEui64, Z_EXTADDR_LEN);
    713                    bdb_TCLinkKeyExchProcess.status = BDB_TC_LK_EXCH_PROCESS_EXCH_SUCCESS;
    714                    
    715                    bdb_SendMsg(bdb_TaskID, BDB_TC_LINK_KEY_EXCHANGE_PROCESS, BDB_MSG_EVENT_SUCCESS,sizeof(bdb_TCLinkKeyExchProcess_t),(uint8*)&bdb_TCLinkKeyExchProcess);
    716                  }        
    717                  
    718                  bdb_TCJoiningDeviceFree(tempJoiningDescNode);
    719                  break;
    720                }
    721                tempJoiningDescNode = tempJoiningDescNode->nextDev;
    722              }
    723             
    724              if(bdb_joiningDeviceList == NULL)
    725              {
    726                osal_stop_timerEx(bdb_TaskID,BDB_TC_JOIN_TIMEOUT);
    727              }
    728            }
    729          }
    730          
    731          
    732          
    733          /****************************************************************************
    734           * @fn          bdb_TCJoiningDeviceFree
    735           *
    736           * @brief       This function frees a joining device from the list.
    737           *
    738           * @param       ZSuccess - If the device was found and erased
    739           * @param       ZInvalidParameter - Not found
    740           *
    741           * @return      none
    742           */
    743          ZStatus_t bdb_TCJoiningDeviceFree(bdb_joiningDeviceList_t* JoiningDeviceToRemove)
    744          {
    745            bdb_joiningDeviceList_t* descCurrent;
    746            bdb_joiningDeviceList_t* descPrev;
    747            
    748            //validate empty list?
    749            
    750            //Is it the first?
    751            if(osal_memcmp(bdb_joiningDeviceList->bdbJoiningNodeEui64, JoiningDeviceToRemove->bdbJoiningNodeEui64, Z_EXTADDR_LEN))
    752            {
    753              descCurrent = bdb_joiningDeviceList;
    754              bdb_joiningDeviceList = bdb_joiningDeviceList->nextDev;
    755              osal_mem_free( descCurrent );
    756              return ZSuccess;
    757            }
    758            
    759            descPrev = NULL;
    760            descCurrent = bdb_joiningDeviceList;
    761            
    762            while(descCurrent != NULL)
    763            {
    764              if(osal_memcmp(descCurrent->nextDev->bdbJoiningNodeEui64, JoiningDeviceToRemove->bdbJoiningNodeEui64, Z_EXTADDR_LEN))
    765              {
    766                descPrev = descCurrent;
    767                break;
    768              }
    769              descCurrent = descCurrent->nextDev;
    770            }
    771            if(descPrev == NULL)
    772            {
    773              //Not found
    774              return ZInvalidParameter;
    775            }
    776            
    777            descPrev->nextDev = descPrev->nextDev->nextDev;
    778              
    779            osal_mem_free( JoiningDeviceToRemove );
    780            return ZSuccess;
    781          
    782          }
    783          
    784           /*********************************************************************
    785           * @fn          bdb_setJoinUsesInstallCodeKey
    786           *
    787           * @brief       Set BDB attribute bdbJoinUsesInstallCodeKey.
    788           *
    789           * @param       set - If TRUE only devices with IC register in TC can join the 
    790           *              nwk, otherwise devices may or not have a IC register
    791           *
    792           * @return      none
    793           */
    794          void bdb_setJoinUsesInstallCodeKey(bool set)
    795          {
    796            bdbAttributes.bdbJoinUsesInstallCodeKey = set;
    797            if(set)
    798            {
    799              zgAllowInstallCodes = ZG_IC_MUST_USED;
    800            }
    801            else
    802            {
    803              zgAllowInstallCodes = ZG_IC_SUPPORTED_NOT_REQUIRED;
    804            }
    805          }
    806          #endif
    807          
    808           /*********************************************************************
    809           * @fn          bdb_StartCommissioning
    810           *
    811           * @brief       Start the commissioning process setting the commissioning mode given.
    812           *
    813           * @param       mode - refer to bdbCommissioningMode
    814           *
    815           * @return      none
    816           */

   \                                 In  segment BANKED_CODE, align 1, keep-with-next
    817          void bdb_StartCommissioning(uint8 mode)
   \                     bdb_StartCommissioning:
    818          {
   \   000000                REQUIRE ?V0
   \   000000                REQUIRE ?V2
   \   000000                REQUIRE ?V3
   \   000000   74F4         MOV       A,#-0xc
   \   000002   12....       LCALL     ?BANKED_ENTER_XDATA
   \   000005                ; Saved register size: 12
   \   000005                ; Auto size: 20
   \   000005   74EC         MOV       A,#-0x14
   \   000007   12....       LCALL     ?ALLOC_XSTACK8
   \   00000A   89..         MOV       ?V0,R1
    819            //Application cannot request to set the device in initialization mode or parent lost
    820            mode &= ~(BDB_COMMISSIONING_MODE_INITIALIZATION | BDB_COMMISSIONING_MODE_PARENT_LOST);
    821              
    822          #ifdef BDB_TL_INITIATOR
    823            if ( touchlinkFNReset == TRUE )
    824            {
    825              return;
    826            }
    827          #else
    828            //Commissioning mode used only for initiator
    829            mode &= ~BDB_COMMISSIONING_MODE_INITIATOR_TL;
   \   00000C   53..CE       ANL       ?V0,#0xce
    830          #endif
    831            
    832          #if (BDB_FINDING_BINDING_CAPABILITY_ENABLED==0)    
    833            //Commissioning mode used only for devices with F&B
    834            mode &= ~BDB_COMMISSIONING_MODE_FINDING_BINDING;
    835          #endif
    836           
    837            //If we have running process or the machine state is triggered, then just append and it will be excecuted
    838            if((bdbAttributes.bdbCommissioningMode) || (osal_get_timeoutEx(bdb_TaskID,BDB_CHANGE_COMMISSIONING_STATE)))
   \   00000F   90....       MOV       DPTR,#bdbAttributes + 11
   \   000012   E0           MOVX      A,@DPTR
   \   000013   7012         JNZ       ??bdb_StartCommissioning_0
   \   000015                ; Setup parameters for call to function osal_get_timeoutEx
   \   000015   7A04         MOV       R2,#0x4
   \   000017   7B00         MOV       R3,#0x0
   \   000019   90....       MOV       DPTR,#bdb_TaskID
   \   00001C   E0           MOVX      A,@DPTR
   \   00001D   F9           MOV       R1,A
   \   00001E   12....       LCALL     `??osal_get_timeoutEx::?relay`; Banked call to: osal_get_timeoutEx
   \   000021   EA           MOV       A,R2
   \   000022   4B           ORL       A,R3
   \   000023   4C           ORL       A,R4
   \   000024   4D           ORL       A,R5
   \   000025   6027         JZ        ??bdb_StartCommissioning_1
    839            {
    840          #if ZG_BUILD_ENDDEVICE_TYPE
    841              if(ZG_DEVICE_ENDDEVICE_TYPE)
    842              {
    843                //Devices with parent lost are not allowed to perform actions
    844                if(bdbAttributes.bdbCommissioningMode & BDB_COMMISSIONING_MODE_PARENT_LOST)
    845                {
    846                  return;
    847                }
    848              }
    849          #endif
    850              
    851              //If we are on the network and got requested to do nwk steering, we do not need to wait other process, 
    852              // just send permit joining and report the application
    853              if((bdbAttributes.bdbNodeIsOnANetwork) && (mode & BDB_COMMISSIONING_MODE_NWK_STEERING))
   \                     ??bdb_StartCommissioning_0:
   \   000027   90....       MOV       DPTR,#bdbAttributes + 14
   \   00002A   E0           MOVX      A,@DPTR
   \   00002B   6013         JZ        ??bdb_StartCommissioning_2
   \   00002D   E5..         MOV       A,?V0
   \   00002F   A2E1         MOV       C,0xE0 /* A   */.1
   \   000031   500D         JNC       ??bdb_StartCommissioning_2
    854              {
    855                bdb_nwkSteeringDeviceOnNwk();
   \   000033                ; Setup parameters for call to function bdb_nwkSteeringDeviceOnNwk
   \   000033   12....       LCALL     `??bdb_nwkSteeringDeviceOnNwk::?relay`; Banked call to: bdb_nwkSteeringDeviceOnNwk
    856                bdb_reportCommissioningState(BDB_COMMISSIONING_STATE_STEERING_ON_NWK, TRUE);
   \   000036                ; Setup parameters for call to function bdb_reportCommissioningState
   \   000036   7A01         MOV       R2,#0x1
   \   000038   7904         MOV       R1,#0x4
   \   00003A   12....       LCALL     `??bdb_reportCommissioningState::?relay`; Banked call to: bdb_reportCommissioningState
    857                
    858                //Clean nwk steering
    859                mode ^= BDB_COMMISSIONING_MODE_NWK_STEERING; 
   \   00003D   63..02       XRL       ?V0,#0x2
    860              }
    861              
    862              //add the remaining valid commissioning modes requested, those will be process when bdb finish its current process
    863              bdbAttributes.bdbCommissioningMode |= mode & BDB_COMMISSIONING_MODES;
   \                     ??bdb_StartCommissioning_2:
   \   000040   743F         MOV       A,#0x3f
   \   000042   55..         ANL       A,?V0
   \   000044   F8           MOV       R0,A
   \   000045   90....       MOV       DPTR,#bdbAttributes + 11
   \   000048   E0           MOVX      A,@DPTR
   \   000049   48           ORL       A,R0
   \   00004A   F0           MOVX      @DPTR,A
    864              return;      
   \   00004B   02....       LJMP      ??bdb_StartCommissioning_3 & 0xFFFF
    865            }
    866          
    867            //Save the commissioning modes valid requested
    868            bdbAttributes.bdbCommissioningMode |= mode & BDB_COMMISSIONING_MODES;
   \                     ??bdb_StartCommissioning_1:
   \   00004E   743F         MOV       A,#0x3f
   \   000050   55..         ANL       A,?V0
   \   000052   FE           MOV       R6,A
   \   000053   90....       MOV       DPTR,#bdbAttributes + 11
   \   000056   E0           MOVX      A,@DPTR
   \   000057   4E           ORL       A,R6
   \   000058   F0           MOVX      @DPTR,A
    869            
    870            
    871            //Start processing the initialization, once per power cycle.
    872            if(!bdb_initialization)
   \   000059   90....       MOV       DPTR,#bdb_initialization
   \   00005C   E0           MOVX      A,@DPTR
   \   00005D   6003         JZ        $+5
   \   00005F   02....       LJMP      ??bdb_StartCommissioning_4 & 0xFFFF
    873            {
    874              bdb_initialization = TRUE;
   \   000062   7401         MOV       A,#0x1
   \   000064   12....       LCALL     ?Subroutine9 & 0xFFFF
    875              
    876          #ifdef BDB_REPORTING
    877              //Delete NV data if startup was with factory reset
    878              if(ZDO_INITDEV_NEW_NETWORK_STATE == ZDApp_ReadNetworkRestoreState())
    879              {
    880                //Factory reset bdb reporting NV data
    881                uint16 attrRepNvLen = osal_nv_item_len( ZCD_NV_BDBREPORTINGCONFIG );
    882                if ( attrRepNvLen > 0 )
    883                {
    884                  osal_nv_delete( ZCD_NV_BDBREPORTINGCONFIG, attrRepNvLen );
    885                }
    886              }
    887          
    888              //Construct the Endpoint-cluster array
    889              bdb_RepConstructReportingData();
    890          #endif //BDB_REPORTING
    891              
    892              osal_nv_read(ZCD_NV_BDBNODEISONANETWORK,0,sizeof(bdbAttributes.bdbNodeIsOnANetwork),&bdbAttributes.bdbNodeIsOnANetwork);
   \                     ??CrossCallReturnLabel_10:
   \   000067   12....       LCALL     ?PUSH_XSTACK_I_TWO
   \   00006A   75..01       MOV       ?V2,#0x1
   \   00006D   75..00       MOV       ?V3,#0x0
   \   000070   78..         MOV       R0,#?V2
   \   000072   12....       LCALL     ?PUSH_XSTACK_I_TWO
   \   000075   7C00         MOV       R4,#0x0
   \   000077   7D00         MOV       R5,#0x0
   \   000079   7A55         MOV       R2,#0x55
   \   00007B   7B00         MOV       R3,#0x0
   \   00007D   12....       LCALL     `??osal_nv_read::?relay`; Banked call to: osal_nv_read
   \   000080   7404         MOV       A,#0x4
   \   000082   12....       LCALL     ?DEALLOC_XSTACK8
    893              
    894              //Are we on a network
    895              if(bdbAttributes.bdbNodeIsOnANetwork == TRUE)
   \   000085   90....       MOV       DPTR,#bdbAttributes + 14
   \   000088   E0           MOVX      A,@DPTR
   \   000089   6401         XRL       A,#0x1
   \   00008B   6003         JZ        $+5
   \   00008D   02....       LJMP      ??bdb_StartCommissioning_4 & 0xFFFF
    896              {
    897          #ifdef ZG_BUILD_JOINING_TYPE
    898                //Only for joining devices validate the joining procedure
    899                if(ZG_DEVICE_JOINING_TYPE)
   \   000090   90....       MOV       DPTR,#zgDeviceLogicalType
   \   000093   E0           MOVX      A,@DPTR
   \   000094   6401         XRL       A,#0x1
   \   000096   6008         JZ        ??bdb_StartCommissioning_5
   \   000098   E0           MOVX      A,@DPTR
   \   000099   6402         XRL       A,#0x2
   \   00009B   6003         JZ        $+5
   \   00009D   02....       LJMP      ??bdb_StartCommissioning_6 & 0xFFFF
    900                {
    901                  //If we got into a network
    902                  if(!osal_isbufset( AIB_apsTrustCenterAddress, 0x00, Z_EXTADDR_LEN ))
   \                     ??bdb_StartCommissioning_5:
   \   0000A0                ; Setup parameters for call to function osal_isbufset
   \   0000A0   7C08         MOV       R4,#0x8
   \   0000A2   7900         MOV       R1,#0x0
   \   0000A4   90....       MOV       DPTR,#AIB_apsTrustCenterAddress
   \   0000A7   12....       LCALL     ??Subroutine43_0 & 0xFFFF
   \                     ??CrossCallReturnLabel_92:
   \   0000AA   12....       LCALL     `??osal_isbufset::?relay`; Banked call to: osal_isbufset
   \   0000AD   E9           MOV       A,R1
   \   0000AE   6003         JZ        $+5
   \   0000B0   02....       LJMP      ??bdb_StartCommissioning_6 & 0xFFFF
    903                  {
    904                    //Which is not distributed
    905                    if(!APSME_IsDistributedSecurity())
   \   0000B3                ; Setup parameters for call to function APSME_IsDistributedSecurity
   \   0000B3   12....       LCALL     `??APSME_IsDistributedSecurity::?relay`; Banked call to: APSME_IsDistributedSecurity
   \   0000B6   E9           MOV       A,R1
   \   0000B7   6003         JZ        $+5
   \   0000B9   02....       LJMP      ??bdb_StartCommissioning_6 & 0xFFFF
    906                    {
    907                      uint8 keyAttributes;
    908                      osal_nv_read(ZCD_NV_TCLK_TABLE_START, osal_offsetof(APSME_TCLKDevEntry_t,keyAttributes), sizeof(uint8), &keyAttributes);
   \   0000BC                ; Setup parameters for call to function osal_nv_read
   \   0000BC   A8..         MOV       R0,?XSP + 0
   \   0000BE   A9..         MOV       R1,?XSP + 1
   \   0000C0   88..         MOV       ?V2,R0
   \   0000C2   89..         MOV       ?V3,R1
   \   0000C4   78..         MOV       R0,#?V2
   \   0000C6   12....       LCALL     ?PUSH_XSTACK_I_TWO
   \   0000C9   75..01       MOV       ?V2,#0x1
   \   0000CC   75..00       MOV       ?V3,#0x0
   \   0000CF   78..         MOV       R0,#?V2
   \   0000D1   12....       LCALL     ?PUSH_XSTACK_I_TWO
   \   0000D4   7C10         MOV       R4,#0x10
   \   0000D6   7D00         MOV       R5,#0x0
   \   0000D8   7A11         MOV       R2,#0x11
   \   0000DA   7B01         MOV       R3,#0x1
   \   0000DC   12....       LCALL     `??osal_nv_read::?relay`; Banked call to: osal_nv_read
   \   0000DF   7404         MOV       A,#0x4
   \   0000E1   12....       LCALL     ?DEALLOC_XSTACK8
    909                      //If we must perform the TCLK exchange and we didn't complete it, then reset to FN
    910                      if(requestNewTrustCenterLinkKey && (keyAttributes != ZG_NON_R21_NWK_JOINED) && (keyAttributes != ZG_VERIFIED_KEY))
   \   0000E4   90....       MOV       DPTR,#requestNewTrustCenterLinkKey
   \   0000E7   E0           MOVX      A,@DPTR
   \   0000E8   7003         JNZ       $+5
   \   0000EA   02....       LJMP      ??bdb_StartCommissioning_6 & 0xFFFF
   \   0000ED   85..82       MOV       DPL,?XSP + 0
   \   0000F0   85..83       MOV       DPH,?XSP + 1
   \   0000F3   E0           MOVX      A,@DPTR
   \   0000F4   64FD         XRL       A,#0xfd
   \   0000F6   7003         JNZ       $+5
   \   0000F8   02....       LJMP      ??bdb_StartCommissioning_6 & 0xFFFF
   \   0000FB   E0           MOVX      A,@DPTR
   \   0000FC   6402         XRL       A,#0x2
   \   0000FE   607F         JZ        ??bdb_StartCommissioning_6
    911                      {
    912                        //Force to initialize the entry
    913                        APSME_TCLKDevEntry_t APSME_TCLKDevEntry;
    914                        
    915                        osal_memset(&APSME_TCLKDevEntry,0,sizeof(APSME_TCLKDevEntry_t));
   \   000100                ; Setup parameters for call to function osal_memset
   \   000100   7C13         MOV       R4,#0x13
   \   000102   7D00         MOV       R5,#0x0
   \   000104   7900         MOV       R1,#0x0
   \   000106   7401         MOV       A,#0x1
   \   000108   12....       LCALL     ?XSTACK_DISP101_8
   \   00010B   12....       LCALL     `??osal_memset::?relay`; Banked call to: osal_memset
    916                        APSME_TCLKDevEntry.keyAttributes = ZG_DEFAULT_KEY;
   \   00010E   7411         MOV       A,#0x11
   \   000110   12....       LCALL     ?XSTACK_DISP0_8
   \   000113   74FF         MOV       A,#-0x1
   \   000115   F0           MOVX      @DPTR,A
    917                        osal_nv_write(ZCD_NV_TCLK_TABLE_START, 0, sizeof(APSME_TCLKDevEntry_t), &APSME_TCLKDevEntry);
   \   000116                ; Setup parameters for call to function osal_nv_write
   \   000116   7401         MOV       A,#0x1
   \   000118   12....       LCALL     ?XSTACK_DISP100_8
   \   00011B   88..         MOV       ?V2,R0
   \   00011D   89..         MOV       ?V3,R1
   \   00011F   78..         MOV       R0,#?V2
   \   000121   12....       LCALL     ?PUSH_XSTACK_I_TWO
   \   000124   75..13       MOV       ?V2,#0x13
   \   000127   75..00       MOV       ?V3,#0x0
   \   00012A   78..         MOV       R0,#?V2
   \   00012C   12....       LCALL     ?PUSH_XSTACK_I_TWO
   \   00012F   7C00         MOV       R4,#0x0
   \   000131   7D00         MOV       R5,#0x0
   \   000133   7A11         MOV       R2,#0x11
   \   000135   7B01         MOV       R3,#0x1
   \   000137   12....       LCALL     `??osal_nv_write::?relay`; Banked call to: osal_nv_write
   \   00013A   7404         MOV       A,#0x4
   \   00013C   12....       LCALL     ?DEALLOC_XSTACK8
    918                        TCLinkKeyFrmCntr[0].txFrmCntr = 0;
   \   00013F   90....       MOV       DPTR,#TCLinkKeyFrmCntr
   \   000142   E4           CLR       A
   \   000143   F0           MOVX      @DPTR,A
   \   000144   A3           INC       DPTR
   \   000145   F0           MOVX      @DPTR,A
   \   000146   A3           INC       DPTR
   \   000147   F0           MOVX      @DPTR,A
   \   000148   A3           INC       DPTR
   \   000149   F0           MOVX      @DPTR,A
    919                        TCLinkKeyFrmCntr[0].rxFrmCntr = 0;
   \   00014A   A3           INC       DPTR
   \   00014B   F0           MOVX      @DPTR,A
   \   00014C   A3           INC       DPTR
   \   00014D   F0           MOVX      @DPTR,A
   \   00014E   A3           INC       DPTR
   \   00014F   F0           MOVX      @DPTR,A
   \   000150   A3           INC       DPTR
   \   000151   F0           MOVX      @DPTR,A
    920                        
    921                        
    922                        //reset the device parameters to FN
    923                        bdbAttributes.bdbNodeIsOnANetwork = FALSE;
   \   000152   90....       MOV       DPTR,#bdbAttributes + 14
   \   000155   12....       LCALL     ?Subroutine9 & 0xFFFF
    924                        osal_nv_write(ZCD_NV_BDBNODEISONANETWORK,0,sizeof(bdbAttributes.bdbNodeIsOnANetwork),&bdbAttributes.bdbNodeIsOnANetwork);
   \                     ??CrossCallReturnLabel_11:
   \   000158   12....       LCALL     ?PUSH_XSTACK_I_TWO
   \   00015B   75..01       MOV       ?V2,#0x1
   \   00015E   75..00       MOV       ?V3,#0x0
   \   000161   78..         MOV       R0,#?V2
   \   000163   12....       LCALL     ?PUSH_XSTACK_I_TWO
   \   000166   7C00         MOV       R4,#0x0
   \   000168   7D00         MOV       R5,#0x0
   \   00016A   7A55         MOV       R2,#0x55
   \   00016C   7B00         MOV       R3,#0x0
   \   00016E   12....       LCALL     `??osal_nv_write::?relay`; Banked call to: osal_nv_write
   \   000171   7404         MOV       A,#0x4
   \   000173   12....       LCALL     ?DEALLOC_XSTACK8
    925                        zgWriteStartupOptions(ZG_STARTUP_SET, ZCD_STARTOPT_DEFAULT_CONFIG_STATE | ZCD_STARTOPT_DEFAULT_NETWORK_STATE);
   \   000176                ; Setup parameters for call to function zgWriteStartupOptions
   \   000176   7A03         MOV       R2,#0x3
   \   000178   79FF         MOV       R1,#-0x1
   \   00017A   12....       LCALL     `??zgWriteStartupOptions::?relay`; Banked call to: zgWriteStartupOptions
    926                        
    927                        //Then start the commissioning process requested
    928                        bdbCommissioningProcedureState.bdbCommissioningState = BDB_COMMISSIONING_STATE_START_RESUME;
   \   00017D   803B         SJMP      ??bdb_StartCommissioning_7
    929                        osal_set_event( bdb_TaskID, BDB_CHANGE_COMMISSIONING_STATE );
    930                        return;
    931                      }
    932                    }
    933                  }
    934                }
    935          #endif //ZG_BUILD_JOINING_TYPE
    936                
    937                //Set the initialization
    938                bdbAttributes.bdbCommissioningMode |= BDB_COMMISSIONING_MODE_INITIALIZATION;
    939                bdbCommissioningProcedureState.bdbCommissioningState = BDB_INITIALIZATION;
   \                     ??bdb_StartCommissioning_6:
   \   00017F   90....       MOV       DPTR,#bdbCommissioningProcedureState
   \   000182   7407         MOV       A,#0x7
   \   000184   F0           MOVX      @DPTR,A
    940                bdbAttributes.bdbCommissioningMode |= mode & BDB_COMMISSIONING_MODES;
   \   000185   7410         MOV       A,#0x10
   \   000187   4E           ORL       A,R6
   \   000188   F8           MOV       R0,A
   \   000189   90....       MOV       DPTR,#bdbAttributes + 11
   \   00018C   E0           MOVX      A,@DPTR
   \   00018D   48           ORL       A,R0
   \   00018E   F0           MOVX      @DPTR,A
    941                
    942                if(ZDOInitDevice(0) == ZDO_INITDEV_RESTORED_NETWORK_STATE)
   \   00018F                ; Setup parameters for call to function ZDOInitDeviceEx
   \   00018F   7900         MOV       R1,#0x0
   \   000191   7A00         MOV       R2,#0x0
   \   000193   7B00         MOV       R3,#0x0
   \   000195   12....       LCALL     `??ZDOInitDeviceEx::?relay`; Banked call to: ZDOInitDeviceEx
   \   000198   E9           MOV       A,R1
   \   000199   602F         JZ        ??bdb_StartCommissioning_3
    943                {
    944          #ifdef BDB_REPORTING
    945                  //Mark the clusterEndpoint entries that have binding, starts reporting if at least one entry was marked
    946                  bdb_RepUpdateMarkBindings();
    947          #endif
    948                  return;
    949                }
    950                bdb_setNodeIsOnANetwork(FALSE);  
   \   00019B                ; Setup parameters for call to function bdb_setNodeIsOnANetwork
   \   00019B   7900         MOV       R1,#0x0
   \   00019D   12....       LCALL     `??bdb_setNodeIsOnANetwork::?relay`; Banked call to: bdb_setNodeIsOnANetwork
    951                //Not in the network
    952                bdb_reportCommissioningState(BDB_INITIALIZATION,FALSE);
   \   0001A0                ; Setup parameters for call to function bdb_reportCommissioningState
   \   0001A0   7A00         MOV       R2,#0x0
   \   0001A2   7907         MOV       R1,#0x7
   \   0001A4   800F         SJMP      ??bdb_StartCommissioning_8
    953                return;
    954              }
    955            }
    956          
    957            //Got requested only to initialize, if so, report that it failed
    958            if(bdbAttributes.bdbCommissioningMode == 0)
   \                     ??bdb_StartCommissioning_4:
   \   0001A6   90....       MOV       DPTR,#bdbAttributes + 11
   \   0001A9   E0           MOVX      A,@DPTR
   \   0001AA   700E         JNZ       ??bdb_StartCommissioning_7
    959            {
    960              //Set the initialization state and report it to fail
    961              bdbCommissioningProcedureState.bdbCommissioningState = BDB_INITIALIZATION;
   \   0001AC   90....       MOV       DPTR,#bdbCommissioningProcedureState
   \   0001AF   7407         MOV       A,#0x7
   \   0001B1   F0           MOVX      @DPTR,A
    962              bdb_reportCommissioningState(BDB_INITIALIZATION,FALSE);
   \   0001B2                ; Setup parameters for call to function bdb_reportCommissioningState
   \   0001B2   7A00         MOV       R2,#0x0
   \   0001B4   F9           MOV       R1,A
   \                     ??bdb_StartCommissioning_8:
   \   0001B5   12....       LCALL     `??bdb_reportCommissioningState::?relay`; Banked call to: bdb_reportCommissioningState
    963              return;
   \   0001B8   8010         SJMP      ??bdb_StartCommissioning_3
    964            }
    965          
    966            
    967            //Start the commissioning process
    968            bdbCommissioningProcedureState.bdbCommissioningState = BDB_COMMISSIONING_STATE_START_RESUME;
   \                     ??bdb_StartCommissioning_7:
   \   0001BA   90....       MOV       DPTR,#bdbCommissioningProcedureState
   \   0001BD   E4           CLR       A
   \   0001BE   F0           MOVX      @DPTR,A
    969            osal_set_event( bdb_TaskID, BDB_CHANGE_COMMISSIONING_STATE );
   \   0001BF                ; Setup parameters for call to function osal_set_event
   \   0001BF   7A04         MOV       R2,#0x4
   \   0001C1   FB           MOV       R3,A
   \   0001C2   90....       MOV       DPTR,#bdb_TaskID
   \   0001C5   E0           MOVX      A,@DPTR
   \   0001C6   F9           MOV       R1,A
   \   0001C7   12....       LCALL     `??osal_set_event::?relay`; Banked call to: osal_set_event
    970          }
   \                     ??bdb_StartCommissioning_3:
   \   0001CA   7414         MOV       A,#0x14
   \   0001CC   02....       LJMP      ??Subroutine33_0 & 0xFFFF

   \                                 In  segment BANKED_CODE, align 1, keep-with-next
   \                     ?Subroutine9:
   \   000000   F0           MOVX      @DPTR,A
   \   000001                ; Setup parameters for call to function osal_nv_read
   \   000001                ; Setup parameters for call to function osal_nv_write
   \   000001   75....       MOV       ?V2,#(bdbAttributes + 14) & 0xff
   \   000004   75....       MOV       ?V3,#((bdbAttributes + 14) >> 8) & 0xff
   \   000007   78..         MOV       R0,#?V2
   \   000009   22           RET

   \                                 In  segment BANKED_CODE, align 1, keep-with-next
   \                     ??Subroutine43_0:
   \   000000   E0           MOVX      A,@DPTR
   \   000001   FA           MOV       R2,A
   \   000002   A3           INC       DPTR
   \   000003   E0           MOVX      A,@DPTR
   \   000004   FB           MOV       R3,A
   \   000005   22           RET
    971          
    972          
    973           /*********************************************************************
    974           * @fn          bdb_NotifyCommissioningModeStart
    975           *
    976           * @brief       Notify the user about a commissioning method just started
    977           *
    978           * @param       commissioningMode
    979           *
    980           * @return      none
    981           */

   \                                 In  segment BANKED_CODE, align 1, keep-with-next
    982          void bdb_NotifyCommissioningModeStart(uint8 commissioningMode)
   \                     bdb_NotifyCommissioningModeStart:
    983          {
   \   000000                REQUIRE ?V0
   \   000000                REQUIRE ?V1
   \   000000   74F6         MOV       A,#-0xa
   \   000002   12....       LCALL     ?BANKED_ENTER_XDATA
   \   000005                ; Saved register size: 10
   \   000005                ; Auto size: 3
   \   000005   74FD         MOV       A,#-0x3
   \   000007   12....       LCALL     ?ALLOC_XSTACK8
    984            bdbCommissioningModeMsg_t bdbCommissioningModeMsg;
    985          
    986            bdbCommissioningModeMsg.bdbCommissioningMode = commissioningMode;
   \   00000A   7401         MOV       A,#0x1
   \   00000C   12....       LCALL     ?XSTACK_DISP0_8
   \   00000F   E9           MOV       A,R1
   \   000010   12....       LCALL     ?Subroutine10 & 0xFFFF
    987            bdbCommissioningModeMsg.bdbCommissioningStatus = BDB_COMMISSIONING_IN_PROGRESS;
   \                     ??CrossCallReturnLabel_12:
   \   000013   12....       LCALL     ?Subroutine5 & 0xFFFF
    988            //Remaining commissioning modes are set just before the call to the application to avoid race conditions
    989          
    990            bdb_NotifyApp((uint8*)&bdbCommissioningModeMsg);
   \                     ??CrossCallReturnLabel_0:
   \   000016   12....       LCALL     ?PUSH_XSTACK_I_TWO
   \   000019   7C03         MOV       R4,#0x3
   \   00001B   7B00         MOV       R3,#0x0
   \   00001D   7A0A         MOV       R2,#0xa
   \   00001F   90....       MOV       DPTR,#bdb_TaskID
   \   000022   E0           MOVX      A,@DPTR
   \   000023   F9           MOV       R1,A
   \   000024   12....       LCALL     `??bdb_SendMsg::?relay`; Banked call to: bdb_SendMsg
   \   000027   7402         MOV       A,#0x2
   \   000029   12....       LCALL     ?DEALLOC_XSTACK8
    991          }
   \   00002C   7403         MOV       A,#0x3
   \   00002E   02....       LJMP      ??Subroutine41_0 & 0xFFFF

   \                                 In  segment BANKED_CODE, align 1, keep-with-next
   \                     ?Subroutine10:
   \   000000   F0           MOVX      @DPTR,A
   \   000001   85..82       MOV       DPL,?XSP + 0
   \   000004   85..83       MOV       DPH,?XSP + 1
   \   000007   7401         MOV       A,#0x1
   \   000009   22           RET

   \                                 In  segment BANKED_CODE, align 1, keep-with-next
   \                     ?Subroutine5:
   \   000000   F0           MOVX      @DPTR,A
   \   000001                ; Setup parameters for call to function bdb_SendMsg
   \   000001                ; Setup parameters for call to function bdb_SendMsg
   \   000001                ; Setup parameters for call to function bdb_SendMsg
   \   000001   A8..         MOV       R0,?XSP + 0
   \   000003   A9..         MOV       R1,?XSP + 1
   \   000005   88..         MOV       ?V0,R0
   \   000007   89..         MOV       ?V1,R1
   \   000009   78..         MOV       R0,#?V0
   \   00000B   22           RET

   \                                 In  segment BANKED_CODE, align 1, keep-with-next
   \                     ??Subroutine41_0:
   \   000000   12....       LCALL     ?DEALLOC_XSTACK8
   \   000003                REQUIRE ??Subroutine42_0
   \   000003                ; // Fall through to label ??Subroutine42_0
    992          
    993          
    994          
    995          #if (ZG_BUILD_JOINING_TYPE)
    996           /*********************************************************************
    997           * @fn          bdb_setNodeJoinLinkKeyType
    998           *
    999           * @brief       Set the key type in use in the network joined. Global centralized key is used by default
   1000           *
   1001           * @param       none
   1002           *
   1003           * @return      none
   1004           */

   \                                 In  segment BANKED_CODE, align 1, keep-with-next
   1005          void bdb_setNodeJoinLinkKeyType(uint8 KeyType)
   \                     bdb_setNodeJoinLinkKeyType:
   1006          {
   \   000000   C082         PUSH      DPL
   \   000002   C083         PUSH      DPH
   \   000004                ; Saved register size: 2
   \   000004                ; Auto size: 0
   1007            bdbAttributes.bdbNodeJoinLinkKeyType = KeyType;
   \   000004   E9           MOV       A,R1
   \   000005   90....       MOV       DPTR,#bdbAttributes + 15
   \   000008   02....       LJMP      ??Subroutine31_0 & 0xFFFF
   1008          }

   \                                 In  segment BANKED_CODE, align 1, keep-with-next
   \                     ??Subroutine31_0:
   \   000000   F0           MOVX      @DPTR,A
   \   000001                REQUIRE ??Subroutine32_0
   \   000001                ; // Fall through to label ??Subroutine32_0

   \                                 In  segment BANKED_CODE, align 1, keep-with-next
   \                     ??Subroutine32_0:
   \   000000   D083         POP       DPH
   \   000002   D082         POP       DPL
   \   000004   02....       LJMP      ?BRET
   1009          #endif
   1010          
   1011           /*********************************************************************
   1012           * @fn          bdb_setFN
   1013           *
   1014           * @brief       Set configuration for FN. This FN configuration will be perfome 
   1015           *              upon call to ZDOInitDevice
   1016           *
   1017           * @param       none
   1018           *
   1019           * @return      none
   1020           */

   \                                 In  segment BANKED_CODE, align 1, keep-with-next
   1021          void bdb_setFN(void)
   \                     bdb_setFN:
   1022          {
   \   000000   C082         PUSH      DPL
   \   000002   C083         PUSH      DPH
   \   000004                ; Saved register size: 2
   \   000004                ; Auto size: 0
   1023            bdb_setNodeIsOnANetwork(FALSE);
   \   000004                ; Setup parameters for call to function bdb_setNodeIsOnANetwork
   \   000004   7900         MOV       R1,#0x0
   \   000006   12....       LCALL     `??bdb_setNodeIsOnANetwork::?relay`; Banked call to: bdb_setNodeIsOnANetwork
   1024          
   1025          #if defined ( INTER_PAN ) && defined ( BDB_TL_INITIATOR )
   1026              touchLink_InitFreeRanges( TRUE );
   1027              touchLink_UpdateNV( TOUCHLINK_UPDATE_NV_RANGES );
   1028          #endif
   1029          #if defined ( INTER_PAN ) && defined ( BDB_TL_TARGET ) 
   1030              touchLink_InitFreeRanges( FALSE );
   1031              touchLink_UpdateNV( TOUCHLINK_UPDATE_NV_RANGES );
   1032          #endif
   1033          
   1034            //Set the device as factory new
   1035            zgWriteStartupOptions(ZG_STARTUP_SET, ZCD_STARTOPT_DEFAULT_CONFIG_STATE | ZCD_STARTOPT_DEFAULT_NETWORK_STATE);
   \   000009                ; Setup parameters for call to function zgWriteStartupOptions
   \   000009   7A03         MOV       R2,#0x3
   \   00000B   79FF         MOV       R1,#-0x1
   \   00000D   12....       LCALL     `??zgWriteStartupOptions::?relay`; Banked call to: zgWriteStartupOptions
   1036          }
   \   000010   02....       LJMP      ??Subroutine32_0 & 0xFFFF
   1037          
   1038           /*********************************************************************
   1039           * @fn          bdb_resetLocalAction
   1040           *
   1041           * @brief       Application interface to perform BDB Reset to FN.
   1042           *
   1043           * @param       none
   1044           *
   1045           * @return      none
   1046           */

   \                                 In  segment BANKED_CODE, align 1, keep-with-next
   1047          void bdb_resetLocalAction(void)
   \                     bdb_resetLocalAction:
   1048          {
   \   000000   C082         PUSH      DPL
   \   000002   C083         PUSH      DPH
   \   000004                ; Saved register size: 2
   \   000004                ; Auto size: 5
   \   000004   74FB         MOV       A,#-0x5
   \   000006   12....       LCALL     ?ALLOC_XSTACK8
   1049            //Process reset as nwk leave if the device is on the network and is able to process it
   1050            if((ZG_BUILD_JOINING_TYPE) && (bdbAttributes.bdbNodeIsOnANetwork) && (!(bdbAttributes.bdbCommissioningMode & BDB_COMMISSIONING_MODE_PARENT_LOST)))
   \   000009   90....       MOV       DPTR,#bdbAttributes + 14
   \   00000C   E0           MOVX      A,@DPTR
   \   00000D   6021         JZ        ??bdb_resetLocalAction_0
   \   00000F   90....       MOV       DPTR,#bdbAttributes + 11
   \   000012   E0           MOVX      A,@DPTR
   \   000013   A2E5         MOV       C,0xE0 /* A   */.5
   \   000015   4019         JC        ??bdb_resetLocalAction_0
   1051            {
   1052              NLME_LeaveReq_t leaveReq;
   1053              // Set every field to 0
   1054              osal_memset( &leaveReq, 0, sizeof( NLME_LeaveReq_t ) );
   \   000017                ; Setup parameters for call to function osal_memset
   \   000017   7C05         MOV       R4,#0x5
   \   000019   7D00         MOV       R5,#0x0
   \   00001B   7900         MOV       R1,#0x0
   \   00001D   AA..         MOV       R2,?XSP + 0
   \   00001F   AB..         MOV       R3,?XSP + 1
   \   000021   12....       LCALL     `??osal_memset::?relay`; Banked call to: osal_memset
   1055              
   1056              bdb_setFN();
   \   000024                ; Setup parameters for call to function bdb_setFN
   \   000024   12....       LCALL     `??bdb_setFN::?relay`; Banked call to: bdb_setFN
   1057                
   1058              NLME_LeaveReq( &leaveReq );
   \   000027                ; Setup parameters for call to function NLME_LeaveReq
   \   000027   AA..         MOV       R2,?XSP + 0
   \   000029   AB..         MOV       R3,?XSP + 1
   \   00002B   12....       LCALL     `??NLME_LeaveReq::?relay`; Banked call to: NLME_LeaveReq
   1059              
   1060              return;
   \   00002E   800A         SJMP      ??bdb_resetLocalAction_1
   1061            }
   1062            else
   1063            {
   1064              bdb_setFN();
   \                     ??bdb_resetLocalAction_0:
   \   000030                ; Setup parameters for call to function bdb_setFN
   \   000030   12....       LCALL     `??bdb_setFN::?relay`; Banked call to: bdb_setFN
   1065              
   1066              ZDApp_ResetTimerStart( 500 );
   \   000033                ; Setup parameters for call to function ZDApp_ResetTimerStart
   \   000033   7AF4         MOV       R2,#-0xc
   \   000035   7B01         MOV       R3,#0x1
   \   000037   12....       LCALL     `??ZDApp_ResetTimerStart::?relay`; Banked call to: ZDApp_ResetTimerStart
   1067            }
   1068          }
   \                     ??bdb_resetLocalAction_1:
   \   00003A   7405         MOV       A,#0x5
   \   00003C                REQUIRE ?Subroutine4
   \   00003C                ; // Fall through to label ?Subroutine4

   \                                 In  segment BANKED_CODE, align 1, keep-with-next
   \                     ?Subroutine4:
   \   000000   12....       LCALL     ?DEALLOC_XSTACK8
   \   000003   02....       LJMP      ??Subroutine32_0 & 0xFFFF
   1069          
   1070          
   1071           /*********************************************************************
   1072           * @fn          bdb_parentLost
   1073           *
   1074           * @brief       Notify bdb that connection with parent is lost
   1075           *
   1076           * @return      none
   1077           */

   \                                 In  segment BANKED_CODE, align 1, keep-with-next
   1078          void bdb_parentLost(void)
   \                     bdb_parentLost:
   1079          {
   \   000000                ; Saved register size: 0
   \   000000                ; Auto size: 0
   1080          #if ZG_BUILD_ENDDEVICE_TYPE
   1081            if(ZG_DEVICE_ENDDEVICE_TYPE)
   1082            {
   1083              while(pBDBListNwk)
   1084              {
   1085                bdb_nwkDescFree(pBDBListNwk);
   1086              }
   1087              
   1088              nwk_desc_list_free();  
   1089              if(bdbCommissioningProcedureState.bdbCommissioningState != BDB_PARENT_LOST)
   1090              {
   1091                //If parent lost during TCLK exchange, then report TCLK exchange fail
   1092                if(bdbCommissioningProcedureState.bdbCommissioningState == BDB_COMMISSIONING_STATE_TC_LINK_KEY_EXCHANGE)
   1093                {
   1094                  bdb_reportCommissioningState(BDB_COMMISSIONING_STATE_TC_LINK_KEY_EXCHANGE, FALSE);
   1095                  return;
   1096                }
   1097                bdbCommissioningProcedureState.bdb_ParentLostSavedState = bdbCommissioningProcedureState.bdbCommissioningState;
   1098                
   1099              }
   1100              bdbCommissioningProcedureState.bdbCommissioningState = BDB_PARENT_LOST;
   1101              NLME_OrphanStateSet();
   1102              ZDApp_ChangeState( DEV_NWK_ORPHAN );
   1103              
   1104              // turn receiver off while in orphan state
   1105              byte temp = FALSE;
   1106              ZMacSetReq(ZMacRxOnIdle, &temp);
   1107              
   1108              bdb_reportCommissioningState(BDB_PARENT_LOST,FALSE);
   1109            }
   1110          #endif
   1111          }
   \   000000   02....       LJMP      ?BRET
   1112          
   1113          
   1114          
   1115          
   1116          
   1117           /*********************************************************************
   1118           * @fn          bdb_NetworkRestoredResumeState
   1119           *
   1120           * @brief       Restore the state of child device after parent lost
   1121           *
   1122           * @return      none
   1123           */

   \                                 In  segment BANKED_CODE, align 1, keep-with-next
   1124          void bdb_NetworkRestoredResumeState(void)
   \                     bdb_NetworkRestoredResumeState:
   1125          {
   \   000000                ; Saved register size: 0
   \   000000                ; Auto size: 0
   1126          #if (BDB_FINDING_BINDING_CAPABILITY_ENABLED==1)   
   1127          #if ZG_BUILD_ENDDEVICE_TYPE
   1128            if(ZG_DEVICE_ENDDEVICE_TYPE)
   1129            {
   1130              uint8 restoreSimpleDesc = FALSE;
   1131              //If restored when F&B still enabled, then restore the simple descriptors attempts
   1132              if(bdbCommissioningProcedureState.bdbCommissioningState == BDB_COMMISSIONING_STATE_FINDING_BINDING)
   1133              {
   1134                bdbFindingBindingRespondent_t  *pRespondentTemp = NULL;
   1135                
   1136                pRespondentTemp = pRespondentHead;
   1137                
   1138                while(pRespondentTemp != NULL)
   1139                {
   1140                  if(pRespondentTemp->attempts & FINDING_AND_BINDING_PARENT_LOST)
   1141                  {
   1142                    pRespondentTemp->attempts &= ~FINDING_AND_BINDING_PARENT_LOST;
   1143                    restoreSimpleDesc = TRUE;
   1144                  }
   1145                  pRespondentTemp = pRespondentTemp->pNext;
   1146                }
   1147              }
   1148              if(restoreSimpleDesc)
   1149              {
   1150                //Restore the simple Descriptor sending after 1 second of restoring the network
   1151                osal_start_timerEx(bdb_TaskID,BDB_RESPONDENT_PROCESS_TIMEOUT, 1000);
   1152              }
   1153            }
   1154          #endif
   1155          #endif
   1156          }
   \   000000   02....       LJMP      ?BRET
   1157          
   1158          #if ZG_BUILD_ENDDEVICE_TYPE
   1159           /*********************************************************************
   1160           * @fn          bdb_ZedAttemptRecoverNwk
   1161           *
   1162           * @brief       Instruct the ZED to try to rejoin its previews network
   1163           *
   1164           * @return      success if the attempt is being excecuted
   1165           *              False if device do not have nwk parameters to perform this action
   1166           */
   1167          uint8 bdb_ZedAttemptRecoverNwk(void)
   1168          {
   1169            if(ZG_DEVICE_ENDDEVICE_TYPE)
   1170            {
   1171              if(bdbAttributes.bdbNodeIsOnANetwork)
   1172              {
   1173                if(bdbCommissioningProcedureState.bdbCommissioningState == BDB_PARENT_LOST)
   1174                {
   1175                  if(ZDOInitDevice(0) == ZDO_INITDEV_RESTORED_NETWORK_STATE)
   1176                  {
   1177                    return ZSuccess;
   1178                  }
   1179                }
   1180              }
   1181            }
   1182            return ZFailure;
   1183          }
   1184          
   1185          #endif
   1186          
   1187           /*********************************************************************
   1188           * @fn          bdb_reportCommissioningState
   1189           *
   1190           * @brief       Process the result of a BDB main state attempt.
   1191           *
   1192           * @param       bdbCommissioningState - MainState that is issuing fail
   1193           * @param       didSuccess - TRUE if the main state were success, FALSE otherwise
   1194           *
   1195           * @return      none
   1196           */

   \                                 In  segment BANKED_CODE, align 1, keep-with-next
   1197          void bdb_reportCommissioningState(uint8 bdbCommissioningState,bool didSuccess)
   \                     bdb_reportCommissioningState:
   1198          {
   \   000000                REQUIRE ?V0
   \   000000                REQUIRE ?V1
   \   000000   74F6         MOV       A,#-0xa
   \   000002   12....       LCALL     ?BANKED_ENTER_XDATA
   \   000005                ; Saved register size: 10
   \   000005                ; Auto size: 4
   \   000005   74FC         MOV       A,#-0x4
   \   000007   12....       LCALL     ?ALLOC_XSTACK8
   \   00000A   E9           MOV       A,R1
   \   00000B   FE           MOV       R6,A
   \   00000C   EA           MOV       A,R2
   \   00000D   FF           MOV       R7,A
   1199            bdbCommissioningModeMsg_t bdbCommissioningModeMsg;
   1200            //Process only if we are in that state, or if we are on parent lost and processing F&B
   1201            if((bdbCommissioningProcedureState.bdbCommissioningState == bdbCommissioningState)
   1202               || ((bdbCommissioningProcedureState.bdbCommissioningState == BDB_PARENT_LOST) && (bdbCommissioningProcedureState.bdb_ParentLostSavedState == BDB_COMMISSIONING_STATE_FINDING_BINDING)))
   \   00000E   90....       MOV       DPTR,#bdbCommissioningProcedureState
   \   000011   E0           MOVX      A,@DPTR
   \   000012   6E           XRL       A,R6
   \   000013   6013         JZ        ??bdb_reportCommissioningState_0
   \   000015   E0           MOVX      A,@DPTR
   \   000016   6408         XRL       A,#0x8
   \   000018   6003         JZ        $+5
   \   00001A   02....       LJMP      ??bdb_reportCommissioningState_1 & 0xFFFF
   \   00001D   90....       MOV       DPTR,#bdbCommissioningProcedureState + 3
   \   000020   E0           MOVX      A,@DPTR
   \   000021   6406         XRL       A,#0x6
   \   000023   6003         JZ        $+5
   \   000025   02....       LJMP      ??bdb_reportCommissioningState_1 & 0xFFFF
   1203            {
   1204              switch(bdbCommissioningState)
   \                     ??bdb_reportCommissioningState_0:
   \   000028   EE           MOV       A,R6
   \   000029   14           DEC       A
   \   00002A   7003         JNZ       $+5
   \   00002C   02....       LJMP      ??bdb_reportCommissioningState_2 & 0xFFFF
   \   00002F   14           DEC       A
   \   000030   7003         JNZ       $+5
   \   000032   02....       LJMP      ??bdb_reportCommissioningState_3 & 0xFFFF
   \   000035   14           DEC       A
   \   000036   601B         JZ        ??bdb_reportCommissioningState_4
   \   000038   14           DEC       A
   \   000039   7003         JNZ       $+5
   \   00003B   02....       LJMP      ??bdb_reportCommissioningState_5 & 0xFFFF
   \   00003E   14           DEC       A
   \   00003F   7003         JNZ       $+5
   \   000041   02....       LJMP      ??bdb_reportCommissioningState_6 & 0xFFFF
   \   000044   14           DEC       A
   \   000045   7003         JNZ       $+5
   \   000047   02....       LJMP      ??bdb_reportCommissioningState_7 & 0xFFFF
   \   00004A   14           DEC       A
   \   00004B   7003         JNZ       $+5
   \   00004D   02....       LJMP      ??bdb_reportCommissioningState_8 & 0xFFFF
   \   000050   02....       LJMP      ??bdb_reportCommissioningState_9 & 0xFFFF
   1205              {
   1206          #if (ZG_BUILD_JOINING_TYPE)
   1207                case BDB_COMMISSIONING_STATE_JOINING:
   1208                  if(ZG_DEVICE_JOINING_TYPE)
   \                     ??bdb_reportCommissioningState_4:
   \   000053   90....       MOV       DPTR,#zgDeviceLogicalType
   \   000056   E0           MOVX      A,@DPTR
   \   000057   6401         XRL       A,#0x1
   \   000059   6008         JZ        ??bdb_reportCommissioningState_10
   \   00005B   E0           MOVX      A,@DPTR
   \   00005C   6402         XRL       A,#0x2
   \   00005E   6003         JZ        $+5
   \   000060   02....       LJMP      ??bdb_reportCommissioningState_9 & 0xFFFF
   1209                  {
   1210                    //Prepare for the next state or commissioning mode to be excecuted
   1211                    osal_start_timerEx(bdb_TaskID,BDB_CHANGE_COMMISSIONING_STATE,50);
   \                     ??bdb_reportCommissioningState_10:
   \   000063                ; Setup parameters for call to function osal_start_timerEx
   \   000063   90....       MOV       DPTR,#__Constant_32
   \   000066   12....       LCALL     ?PUSH_XSTACK8_X_FOUR
   \   000069   7A04         MOV       R2,#0x4
   \   00006B   7B00         MOV       R3,#0x0
   \   00006D   90....       MOV       DPTR,#bdb_TaskID
   \   000070   E0           MOVX      A,@DPTR
   \   000071   F9           MOV       R1,A
   \   000072   12....       LCALL     `??osal_start_timerEx::?relay`; Banked call to: osal_start_timerEx
   \   000075   7404         MOV       A,#0x4
   \   000077   12....       LCALL     ?DEALLOC_XSTACK8
   1212          
   1213                    if(didSuccess)
   \   00007A   EF           MOV       A,R7
   \   00007B   6022         JZ        ??bdb_reportCommissioningState_11
   1214                    {
   1215                      //Next state is TC link key exchange
   1216                      bdbCommissioningProcedureState.bdbCommissioningState = BDB_COMMISSIONING_STATE_TC_LINK_KEY_EXCHANGE;
   \   00007D   90....       MOV       DPTR,#bdbCommissioningProcedureState
   \   000080   7401         MOV       A,#0x1
   \   000082   F0           MOVX      @DPTR,A
   \   000083   8006         SJMP      ??bdb_reportCommissioningState_12
   1217                      //Free the list of nwk discovered
   1218                      while(pBDBListNwk)
   1219                      {
   1220                        bdb_nwkDescFree(pBDBListNwk);
   \                     ??bdb_reportCommissioningState_13:
   \   000085                ; Setup parameters for call to function bdb_nwkDescFree
   \   000085   12....       LCALL     ?Subroutine18 & 0xFFFF
   1221                      }
   \                     ??CrossCallReturnLabel_99:
   \   000088   12....       LCALL     `??bdb_nwkDescFree::?relay`; Banked call to: bdb_nwkDescFree
   \                     ??bdb_reportCommissioningState_12:
   \   00008B   90....       MOV       DPTR,#pBDBListNwk
   \   00008E   12....       LCALL     ??Subroutine38_0 & 0xFFFF
   \                     ??CrossCallReturnLabel_75:
   \   000091   70F2         JNZ       ??bdb_reportCommissioningState_13
   1222                      
   1223                      //Set the poll rate of the ZED joining device to 1 second to allow TCLK 
   1224                      //exchange be perfomed successfully in cases in which application has a 
   1225                      //slow pollrate
   1226                      NLME_SetPollRate(TCLK_POLL_RATE);
   \   000093                ; Setup parameters for call to function NLME_SetPollRate
   \   000093   90....       MOV       DPTR,#__Constant_3e8
   \   000096   12....       LCALL     ?XLOAD_R2345
   \   000099   12....       LCALL     `??NLME_SetPollRate::?relay`; Banked call to: NLME_SetPollRate
   1227                      
   1228                      //No notification in this step
   1229                      return;
   \   00009C   02....       LJMP      ??bdb_reportCommissioningState_1 & 0xFFFF
   1230                    } 
   1231                    else
   1232                    {
   1233                      uint8 temp = FALSE;
   \                     ??bdb_reportCommissioningState_11:
   \   00009F   85..82       MOV       DPL,?XSP + 0
   \   0000A2   85..83       MOV       DPH,?XSP + 1
   \   0000A5   E4           CLR       A
   \   0000A6   F0           MOVX      @DPTR,A
   1234                      //If fail, then restore poll rate
   1235                      NLME_SetPollRate(POLL_RATE);
   \   0000A7                ; Setup parameters for call to function NLME_SetPollRate
   \   0000A7   90....       MOV       DPTR,#__Constant_3e8
   \   0000AA   12....       LCALL     ?XLOAD_R2345
   \   0000AD   12....       LCALL     `??NLME_SetPollRate::?relay`; Banked call to: NLME_SetPollRate
   1236                      bdbAttributes.bdbCommissioningStatus = BDB_COMMISSIONING_NO_NETWORK;
   \   0000B0   90....       MOV       DPTR,#bdbAttributes + 10
   \   0000B3   7402         MOV       A,#0x2
   \   0000B5   F0           MOVX      @DPTR,A
   1237                      bdbCommissioningModeMsg.bdbCommissioningMode = BDB_COMMISSIONING_NWK_STEERING;
   \   0000B6   12....       LCALL     ?XSTACK_DISP0_8
   \   0000B9   7401         MOV       A,#0x1
   \   0000BB   F0           MOVX      @DPTR,A
   1238                      bdbCommissioningProcedureState.bdbCommissioningState = BDB_COMMISSIONING_STATE_START_RESUME;
   \   0000BC   90....       MOV       DPTR,#bdbCommissioningProcedureState
   \   0000BF   E4           CLR       A
   \   0000C0   F0           MOVX      @DPTR,A
   1239                      bdbAttributes.bdbCommissioningMode &= ~BDB_COMMISSIONING_MODE_NWK_STEERING;
   \   0000C1   90....       MOV       DPTR,#bdbAttributes + 11
   \   0000C4   E0           MOVX      A,@DPTR
   \   0000C5   C2E1         CLR       0xE0 /* A   */.1
   \   0000C7   12....       LCALL     ?Subroutine6 & 0xFFFF
   1240                      
   1241                      //Turn off the radio
   1242                      ZMacSetReq(ZMacRxOnIdle, &temp);
   \                     ??CrossCallReturnLabel_3:
   \   0000CA   12....       LCALL     `??ZMacSetReq::?relay`; Banked call to: ZMacSetReq
   1243                      //Set the device to FN, to start as new for subsequent attempts
   1244                      bdb_setFN();
   \   0000CD                ; Setup parameters for call to function bdb_setFN
   \   0000CD   12....       LCALL     `??bdb_setFN::?relay`; Banked call to: bdb_setFN
   1245                      NLME_ResetRequest();
   \   0000D0                ; Setup parameters for call to function NLME_ResetRequest
   \   0000D0   12....       LCALL     `??NLME_ResetRequest::?relay`; Banked call to: NLME_ResetRequest
   1246                      ZDApp_ChangeState( DEV_HOLD );
   \   0000D3                ; Setup parameters for call to function ZDApp_ChangeState
   \   0000D3   7900         MOV       R1,#0x0
   \   0000D5   12....       LCALL     `??ZDApp_ChangeState::?relay`; Banked call to: ZDApp_ChangeState
   1247                      
   1248                      //Free the list of nwk discovered
   1249                      while(pBDBListNwk)
   \                     ??bdb_reportCommissioningState_14:
   \   0000D8   90....       MOV       DPTR,#pBDBListNwk
   \   0000DB   12....       LCALL     ??Subroutine38_0 & 0xFFFF
   \                     ??CrossCallReturnLabel_76:
   \   0000DE   7003         JNZ       $+5
   \   0000E0   02....       LJMP      ??bdb_reportCommissioningState_9 & 0xFFFF
   1250                      {
   1251                        bdb_nwkDescFree(pBDBListNwk);
   \   0000E3                ; Setup parameters for call to function bdb_nwkDescFree
   \   0000E3   12....       LCALL     ?Subroutine18 & 0xFFFF
   1252                      }
   1253                    }
   1254                  }
   \                     ??CrossCallReturnLabel_100:
   \   0000E6   12....       LCALL     `??bdb_nwkDescFree::?relay`; Banked call to: bdb_nwkDescFree
   \   0000E9   80ED         SJMP      ??bdb_reportCommissioningState_14
   1255                break;
   1256          
   1257                case BDB_COMMISSIONING_STATE_TC_LINK_KEY_EXCHANGE:
   1258                  if(ZG_DEVICE_JOINING_TYPE)
   \                     ??bdb_reportCommissioningState_2:
   \   0000EB   90....       MOV       DPTR,#zgDeviceLogicalType
   \   0000EE   E0           MOVX      A,@DPTR
   \   0000EF   6401         XRL       A,#0x1
   \   0000F1   6008         JZ        ??bdb_reportCommissioningState_15
   \   0000F3   E0           MOVX      A,@DPTR
   \   0000F4   6402         XRL       A,#0x2
   \   0000F6   6003         JZ        $+5
   \   0000F8   02....       LJMP      ??bdb_reportCommissioningState_9 & 0xFFFF
   1259                  {
   1260                    if(didSuccess)
   \                     ??bdb_reportCommissioningState_15:
   \   0000FB   EF           MOV       A,R7
   \   0000FC   603B         JZ        ??bdb_reportCommissioningState_16
   1261                    {
   1262                      //Clear any setting that would set the device as FN
   1263                      zgWriteStartupOptions(ZG_STARTUP_CLEAR, ZCD_STARTOPT_DEFAULT_CONFIG_STATE | ZCD_STARTOPT_DEFAULT_NETWORK_STATE);            
   \   0000FE                ; Setup parameters for call to function zgWriteStartupOptions
   \   0000FE   7A03         MOV       R2,#0x3
   \   000100   7900         MOV       R1,#0x0
   \   000102   12....       LCALL     `??zgWriteStartupOptions::?relay`; Banked call to: zgWriteStartupOptions
   1264                      
   1265                      //Next state is nwk steering on the nwk (permit joining)
   1266                      bdbCommissioningProcedureState.bdbCommissioningState = BDB_COMMISSIONING_STATE_STEERING_ON_NWK;
   \   000105   90....       MOV       DPTR,#bdbCommissioningProcedureState
   \   000108   7404         MOV       A,#0x4
   \   00010A   12....       LCALL     ??Subroutine40_0 & 0xFFFF
   1267                      osal_start_timerEx(bdb_TaskID,BDB_CHANGE_COMMISSIONING_STATE, 50);
   \                     ??CrossCallReturnLabel_90:
   \   00010D   12....       LCALL     ?PUSH_XSTACK8_X_FOUR
   \   000110   7A04         MOV       R2,#0x4
   \   000112   7B00         MOV       R3,#0x0
   \   000114   90....       MOV       DPTR,#bdb_TaskID
   \   000117   E0           MOVX      A,@DPTR
   \   000118   F9           MOV       R1,A
   \   000119   12....       LCALL     `??osal_start_timerEx::?relay`; Banked call to: osal_start_timerEx
   \   00011C   7404         MOV       A,#0x4
   \   00011E   12....       LCALL     ?DEALLOC_XSTACK8
   1268                      
   1269                      //Set the poll rate to the application default after TCLK success
   1270                      NLME_SetPollRate(POLL_RATE);
   \   000121                ; Setup parameters for call to function NLME_SetPollRate
   \   000121   90....       MOV       DPTR,#__Constant_3e8
   \   000124   12....       LCALL     ?XLOAD_R2345
   \   000127   12....       LCALL     `??NLME_SetPollRate::?relay`; Banked call to: NLME_SetPollRate
   1271          
   1272                      osal_stop_timerEx( bdb_TaskID, BDB_PROCESS_TIMEOUT );
   \   00012A                ; Setup parameters for call to function osal_stop_timerEx
   \   00012A   7A00         MOV       R2,#0x0
   \   00012C   7B10         MOV       R3,#0x10
   \   00012E   90....       MOV       DPTR,#bdb_TaskID
   \   000131   E0           MOVX      A,@DPTR
   \   000132   F9           MOV       R1,A
   \   000133   12....       LCALL     `??osal_stop_timerEx::?relay`; Banked call to: osal_stop_timerEx
   1273                      //No notification to the user is needed
   1274                      return;
   \   000136   02....       LJMP      ??bdb_reportCommissioningState_1 & 0xFFFF
   1275                    }
   1276                    else
   1277                    {
   1278                      bdbCommissioningModeMsg.bdbCommissioningMode = BDB_COMMISSIONING_NWK_STEERING;
   \                     ??bdb_reportCommissioningState_16:
   \   000139   7402         MOV       A,#0x2
   \   00013B   12....       LCALL     ?XSTACK_DISP0_8
   \   00013E   7401         MOV       A,#0x1
   \   000140   F0           MOVX      @DPTR,A
   1279                      bdbAttributes.bdbCommissioningStatus = BDB_COMMISSIONING_TCLK_EX_FAILURE;
   \   000141   90....       MOV       DPTR,#bdbAttributes + 10
   \   000144   7407         MOV       A,#0x7
   \   000146   F0           MOVX      @DPTR,A
   1280                      
   1281                      osal_stop_timerEx( bdb_TaskID, BDB_PROCESS_TIMEOUT);
   \   000147                ; Setup parameters for call to function osal_stop_timerEx
   \   000147   7A00         MOV       R2,#0x0
   \   000149   7B10         MOV       R3,#0x10
   \   00014B   90....       MOV       DPTR,#bdb_TaskID
   \   00014E   E0           MOVX      A,@DPTR
   \   00014F   F9           MOV       R1,A
   \   000150   12....       LCALL     `??osal_stop_timerEx::?relay`; Banked call to: osal_stop_timerEx
   1282                     
   1283                      //No process shall be attempted after this fail
   1284                      bdbAttributes.bdbCommissioningMode = 0;
   \   000153   90....       MOV       DPTR,#bdbAttributes + 11
   \   000156   E4           CLR       A
   \   000157   F0           MOVX      @DPTR,A
   1285                      
   1286                      //Fill the context for the user notification
   1287                      osal_start_timerEx(bdb_TaskID,BDB_TC_LINK_KEY_EXCHANGE_FAIL,BDB_TC_LINK_KEY_EXCHANGE_FAIL_LEAVE_TIMEOUT);
   \   000158                ; Setup parameters for call to function osal_start_timerEx
   \   000158   90....       MOV       DPTR,#__Constant_1388
   \   00015B   12....       LCALL     ?PUSH_XSTACK8_X_FOUR
   \   00015E   7A02         MOV       R2,#0x2
   \   000160   7B00         MOV       R3,#0x0
   \   000162   90....       MOV       DPTR,#bdb_TaskID
   \   000165   E0           MOVX      A,@DPTR
   \   000166   F9           MOV       R1,A
   \   000167   12....       LCALL     `??osal_start_timerEx::?relay`; Banked call to: osal_start_timerEx
   \   00016A   7404         MOV       A,#0x4
   \   00016C   12....       LCALL     ?DEALLOC_XSTACK8
   \   00016F   02....       LJMP      ??bdb_reportCommissioningState_9 & 0xFFFF
   1288                    }
   1289                  }
   1290                break;
   1291          #endif
   1292                
   1293                case BDB_COMMISSIONING_STATE_STEERING_ON_NWK:
   1294                  bdbCommissioningModeMsg.bdbCommissioningMode = BDB_COMMISSIONING_NWK_STEERING;
   \                     ??bdb_reportCommissioningState_5:
   \   000172   7402         MOV       A,#0x2
   \   000174   12....       LCALL     ?XSTACK_DISP0_8
   \   000177   7401         MOV       A,#0x1
   \   000179   F0           MOVX      @DPTR,A
   1295                  if(didSuccess)
   \   00017A   EF           MOV       A,R7
   \   00017B   600A         JZ        ??bdb_reportCommissioningState_17
   1296                  {
   1297                    bdbAttributes.bdbCommissioningStatus = BDB_COMMISSIONING_SUCCESS;
   \   00017D   90....       MOV       DPTR,#bdbAttributes + 10
   \   000180   E4           CLR       A
   \   000181   F0           MOVX      @DPTR,A
   1298                    
   1299          #if (ZG_BUILD_RTR_TYPE)          
   1300                    //Update ZDApp state
   1301                    if(ZG_DEVICE_RTRONLY_TYPE)
   1302                    {          
   1303                      ZDApp_ChangeState( DEV_ROUTER );
   \   000182                ; Setup parameters for call to function ZDApp_ChangeState
   \   000182   7907         MOV       R1,#0x7
   \   000184   12....       LCALL     `??ZDApp_ChangeState::?relay`; Banked call to: ZDApp_ChangeState
   1304                    }
   1305          #endif
   1306          #if (ZG_BUILD_ENDDEVICE_TYPE)
   1307                    if(ZG_DEVICE_ENDDEVICE_TYPE)
   1308                    {
   1309                      ZDApp_ChangeState( DEV_END_DEVICE );
   1310                    }
   1311          #endif
   1312                  }
   1313          #if (ZG_BUILD_COORDINATOR_TYPE)
   1314                  else
   1315                  {
   1316                    if(ZG_DEVICE_COORDINATOR_TYPE)
   1317                    {
   1318                      bdbAttributes.bdbCommissioningStatus = BDB_COMMISSIONING_NO_NETWORK;
   1319                    }
   1320                  }
   1321          #endif
   1322                  
   1323                  bdbCommissioningProcedureState.bdbCommissioningState = BDB_COMMISSIONING_STATE_START_RESUME;
   \                     ??bdb_reportCommissioningState_17:
   \   000187   12....       LCALL     ?Subroutine14 & 0xFFFF
   1324                  osal_start_timerEx(bdb_TaskID,BDB_CHANGE_COMMISSIONING_STATE,50);
   \                     ??CrossCallReturnLabel_86:
   \   00018A   12....       LCALL     ?PUSH_XSTACK8_X_FOUR
   \   00018D   7A04         MOV       R2,#0x4
   \   00018F   7B00         MOV       R3,#0x0
   \   000191   90....       MOV       DPTR,#bdb_TaskID
   \   000194   E0           MOVX      A,@DPTR
   \   000195   F9           MOV       R1,A
   \   000196   12....       LCALL     `??osal_start_timerEx::?relay`; Banked call to: osal_start_timerEx
   \   000199   7404         MOV       A,#0x4
   \   00019B   12....       LCALL     ?DEALLOC_XSTACK8
   1325                  bdbAttributes.bdbCommissioningMode &= ~BDB_COMMISSIONING_MODE_NWK_STEERING;
   \   00019E   90....       MOV       DPTR,#bdbAttributes + 11
   \   0001A1   E0           MOVX      A,@DPTR
   \   0001A2   C2E1         CLR       0xE0 /* A   */.1
   \   0001A4   02....       LJMP      ??bdb_reportCommissioningState_18 & 0xFFFF
   1326                break;
   1327                
   1328                case BDB_COMMISSIONING_STATE_FORMATION:
   1329                  bdbCommissioningModeMsg.bdbCommissioningMode = BDB_COMMISSIONING_FORMATION;
   \                     ??bdb_reportCommissioningState_6:
   \   0001A7   7402         MOV       A,#0x2
   \   0001A9   12....       LCALL     ?XSTACK_DISP0_8
   \   0001AC   7402         MOV       A,#0x2
   \   0001AE   F0           MOVX      @DPTR,A
   1330          
   1331                  if(didSuccess)
   \   0001AF   EF           MOV       A,R7
   \   0001B0   90....       MOV       DPTR,#bdbAttributes + 10
   \   0001B3   600C         JZ        ??bdb_reportCommissioningState_19
   1332                  {
   1333                    bdbAttributes.bdbCommissioningStatus = BDB_COMMISSIONING_SUCCESS;
   \   0001B5   E4           CLR       A
   \   0001B6   F0           MOVX      @DPTR,A
   1334          
   1335                    //Clear any setting that would set the device as FN
   1336                    zgWriteStartupOptions(ZG_STARTUP_CLEAR, ZCD_STARTOPT_DEFAULT_CONFIG_STATE | ZCD_STARTOPT_DEFAULT_NETWORK_STATE);          
   \   0001B7                ; Setup parameters for call to function zgWriteStartupOptions
   \   0001B7   7A03         MOV       R2,#0x3
   \   0001B9   F9           MOV       R1,A
   \   0001BA   12....       LCALL     `??zgWriteStartupOptions::?relay`; Banked call to: zgWriteStartupOptions
   1337                    
   1338                     //Update ZDApp State
   1339          #if (ZG_BUILD_RTR_TYPE)
   1340                    if(ZG_DEVICE_RTRONLY_TYPE)
   1341                    {          
   1342                      ZDApp_ChangeState( DEV_ROUTER );
   \   0001BD                ; Setup parameters for call to function ZDApp_ChangeState
   \   0001BD   7907         MOV       R1,#0x7
   \   0001BF   8028         SJMP      ??bdb_reportCommissioningState_20
   1343                    }
   1344          #endif    
   1345          #if (ZG_BUILD_COORDINATOR_TYPE)
   1346                    if(ZG_DEVICE_COORDINATOR_TYPE)
   1347                    {          
   1348                      ZDApp_ChangeState( DEV_ZB_COORD );
   1349                    }     
   1350          #endif
   1351                  }
   1352                  else
   1353                  {
   1354                    bdbAttributes.bdbCommissioningStatus = BDB_COMMISSIONING_FORMATION_FAILURE;
   \                     ??bdb_reportCommissioningState_19:
   \   0001C1   7408         MOV       A,#0x8
   \   0001C3   F0           MOVX      @DPTR,A
   1355                    //If not on the nwk, then restart the nwk parameters
   1356          #if (ZG_BUILD_RTR_TYPE)
   1357                    if(ZG_DEVICE_RTR_TYPE)
   \   0001C4   90....       MOV       DPTR,#zgDeviceLogicalType
   \   0001C7   E0           MOVX      A,@DPTR
   \   0001C8   6004         JZ        ??bdb_reportCommissioningState_21
   \   0001CA   6401         XRL       A,#0x1
   \   0001CC   701E         JNZ       ??bdb_reportCommissioningState_22
   1358                    {           
   1359                      if(!bdbAttributes.bdbNodeIsOnANetwork)
   \                     ??bdb_reportCommissioningState_21:
   \   0001CE   90....       MOV       DPTR,#bdbAttributes + 14
   \   0001D1   E0           MOVX      A,@DPTR
   \   0001D2   7018         JNZ       ??bdb_reportCommissioningState_22
   1360                      {
   1361                        uint8 temp = FALSE;
   \   0001D4   85..82       MOV       DPL,?XSP + 0
   \   0001D7   85..83       MOV       DPH,?XSP + 1
   \   0001DA   E4           CLR       A
   \   0001DB   12....       LCALL     ?Subroutine6 & 0xFFFF
   1362                        //Turn off the radio
   1363                        ZMacSetReq(ZMacRxOnIdle, &temp);
   \                     ??CrossCallReturnLabel_4:
   \   0001DE   12....       LCALL     `??ZMacSetReq::?relay`; Banked call to: ZMacSetReq
   1364                        //Set the device to FN, to start as new for subsequent attempts
   1365                        bdb_setFN();
   \   0001E1                ; Setup parameters for call to function bdb_setFN
   \   0001E1   12....       LCALL     `??bdb_setFN::?relay`; Banked call to: bdb_setFN
   1366                        NLME_ResetRequest();
   \   0001E4                ; Setup parameters for call to function NLME_ResetRequest
   \   0001E4   12....       LCALL     `??NLME_ResetRequest::?relay`; Banked call to: NLME_ResetRequest
   1367                        ZDApp_ChangeState( DEV_HOLD );
   \   0001E7                ; Setup parameters for call to function ZDApp_ChangeState
   \   0001E7   7900         MOV       R1,#0x0
   \                     ??bdb_reportCommissioningState_20:
   \   0001E9   12....       LCALL     `??ZDApp_ChangeState::?relay`; Banked call to: ZDApp_ChangeState
   1368                      }
   1369                    }
   1370          #endif
   1371                  }
   1372                  bdbCommissioningProcedureState.bdbCommissioningState = BDB_COMMISSIONING_STATE_START_RESUME;
   \                     ??bdb_reportCommissioningState_22:
   \   0001EC   12....       LCALL     ?Subroutine14 & 0xFFFF
   1373                  osal_start_timerEx(bdb_TaskID,BDB_CHANGE_COMMISSIONING_STATE,50);
   \                     ??CrossCallReturnLabel_87:
   \   0001EF   12....       LCALL     ?PUSH_XSTACK8_X_FOUR
   \   0001F2   7A04         MOV       R2,#0x4
   \   0001F4   7B00         MOV       R3,#0x0
   \   0001F6   90....       MOV       DPTR,#bdb_TaskID
   \   0001F9   E0           MOVX      A,@DPTR
   \   0001FA   F9           MOV       R1,A
   \   0001FB   12....       LCALL     `??osal_start_timerEx::?relay`; Banked call to: osal_start_timerEx
   \   0001FE   7404         MOV       A,#0x4
   \   000200   12....       LCALL     ?DEALLOC_XSTACK8
   1374                  bdbAttributes.bdbCommissioningMode &= ~BDB_COMMISSIONING_MODE_NWK_FORMATION;
   \   000203   90....       MOV       DPTR,#bdbAttributes + 11
   \   000206   E0           MOVX      A,@DPTR
   \   000207   C2E2         CLR       0xE0 /* A   */.2
   \   000209   02....       LJMP      ??bdb_reportCommissioningState_18 & 0xFFFF
   1375                break;  
   1376                
   1377          
   1378                case BDB_COMMISSIONING_STATE_FINDING_BINDING:
   1379          #if (BDB_FINDING_BINDING_CAPABILITY_ENABLED==1) 
   1380                  bdbCommissioningModeMsg.bdbCommissioningMode = BDB_COMMISSIONING_FINDING_BINDING;
   \                     ??bdb_reportCommissioningState_7:
   \   00020C   7402         MOV       A,#0x2
   \   00020E   12....       LCALL     ?XSTACK_DISP0_8
   \   000211   7403         MOV       A,#0x3
   \   000213   F0           MOVX      @DPTR,A
   1381          
   1382                  //Do not notify the status if we have another identify to send
   1383                  if(bdbAttributes.bdbCommissioningStatus == BDB_COMMISSIONING_SUCCESS)
   \   000214   90....       MOV       DPTR,#bdbAttributes + 10
   \   000217   E0           MOVX      A,@DPTR
   \   000218   7006         JNZ       ??bdb_reportCommissioningState_23
   1384                  {
   1385                    //Success at least once during F&B as initiator, mark it
   1386                    bdb_FBStateSuccessLatch = TRUE;
   \   00021A   90....       MOV       DPTR,#bdb_FBStateSuccessLatch
   \   00021D   7401         MOV       A,#0x1
   \   00021F   F0           MOVX      @DPTR,A
   1387                  }        
   1388                  
   1389                  //Will we process another indentify?
   1390                  if(((FINDING_AND_BINDING_PERIODIC_ENABLE == FALSE) || (bdb_FB_InitiatorCurrentCyclesNumber == 0)) && (bdb_getRespondentRetry(pRespondentHead) == NULL) && (osal_get_timeoutEx( bdb_TaskID, BDB_RESPONDENT_PROCESS_TIMEOUT) == 0))
   \                     ??bdb_reportCommissioningState_23:
   \   000220   90....       MOV       DPTR,#bdb_FB_InitiatorCurrentCyclesNumber
   \   000223   E0           MOVX      A,@DPTR
   \   000224   6003         JZ        $+5
   \   000226   02....       LJMP      ??bdb_reportCommissioningState_1 & 0xFFFF
   \   000229                ; Setup parameters for call to function bdb_getRespondentRetry
   \   000229   90....       MOV       DPTR,#pRespondentHead
   \   00022C   12....       LCALL     ??Subroutine43_0 & 0xFFFF
   \                     ??CrossCallReturnLabel_93:
   \   00022F   12....       LCALL     `??bdb_getRespondentRetry::?relay`; Banked call to: bdb_getRespondentRetry
   \   000232   8B..         MOV       ?V1,R3
   \   000234   EA           MOV       A,R2
   \   000235   45..         ORL       A,?V1
   \   000237   6003         JZ        $+5
   \   000239   02....       LJMP      ??bdb_reportCommissioningState_1 & 0xFFFF
   \   00023C                ; Setup parameters for call to function osal_get_timeoutEx
   \   00023C   7A00         MOV       R2,#0x0
   \   00023E   7B40         MOV       R3,#0x40
   \   000240   90....       MOV       DPTR,#bdb_TaskID
   \   000243   E0           MOVX      A,@DPTR
   \   000244   F9           MOV       R1,A
   \   000245   12....       LCALL     `??osal_get_timeoutEx::?relay`; Banked call to: osal_get_timeoutEx
   \   000248   EA           MOV       A,R2
   \   000249   4B           ORL       A,R3
   \   00024A   4C           ORL       A,R4
   \   00024B   4D           ORL       A,R5
   \   00024C   6003         JZ        $+5
   \   00024E   02....       LJMP      ??bdb_reportCommissioningState_1 & 0xFFFF
   1391                  {
   1392                    // Dealocate respondent list and clean all the F&B process
   1393                    pRespondentCurr = NULL;
   \   000251   90....       MOV       DPTR,#pRespondentCurr
   \   000254   E4           CLR       A
   \   000255   F0           MOVX      @DPTR,A
   \   000256   A3           INC       DPTR
   \   000257   F0           MOVX      @DPTR,A
   1394                    pRespondentNext = NULL;
   \   000258   90....       MOV       DPTR,#pRespondentNext
   \   00025B   F0           MOVX      @DPTR,A
   \   00025C   A3           INC       DPTR
   \   00025D   F0           MOVX      @DPTR,A
   1395                    bdb_zclRespondentListClean( &pRespondentHead );
   \   00025E                ; Setup parameters for call to function bdb_zclRespondentListClean
   \   00025E   7A..         MOV       R2,#pRespondentHead & 0xff
   \   000260   7B..         MOV       R3,#(pRespondentHead >> 8) & 0xff
   \   000262   12....       LCALL     `??bdb_zclRespondentListClean::?relay`; Banked call to: bdb_zclRespondentListClean
   1396                    osal_stop_timerEx( bdb_TaskID, BDB_RESPONDENT_PROCESS_TIMEOUT );
   \   000265                ; Setup parameters for call to function osal_stop_timerEx
   \   000265   7A00         MOV       R2,#0x0
   \   000267   7B40         MOV       R3,#0x40
   \   000269   90....       MOV       DPTR,#bdb_TaskID
   \   00026C   E0           MOVX      A,@DPTR
   \   00026D   F9           MOV       R1,A
   \   00026E   12....       LCALL     `??osal_stop_timerEx::?relay`; Banked call to: osal_stop_timerEx
   1397                    
   1398                    //Report success if in any of the attempts we got success, regardless that we did receive no rsp on the last attempt
   1399                    if(bdb_FBStateSuccessLatch && (bdbAttributes.bdbCommissioningStatus == BDB_COMMISSIONING_FB_NO_IDENTIFY_QUERY_RESPONSE))
   \   000271   90....       MOV       DPTR,#bdb_FBStateSuccessLatch
   \   000274   E0           MOVX      A,@DPTR
   \   000275   600A         JZ        ??bdb_reportCommissioningState_24
   \   000277   90....       MOV       DPTR,#bdbAttributes + 10
   \   00027A   E0           MOVX      A,@DPTR
   \   00027B   640B         XRL       A,#0xb
   \   00027D   7002         JNZ       ??bdb_reportCommissioningState_24
   1400                    {
   1401                      bdbAttributes.bdbCommissioningStatus = BDB_COMMISSIONING_SUCCESS;
   \   00027F   E4           CLR       A
   \   000280   F0           MOVX      @DPTR,A
   1402                    }
   1403                    
   1404                    //Set default state
   1405                    bdb_FBStateSuccessLatch = FALSE;
   \                     ??bdb_reportCommissioningState_24:
   \   000281   90....       MOV       DPTR,#bdb_FBStateSuccessLatch
   \   000284   E4           CLR       A
   \   000285   F0           MOVX      @DPTR,A
   1406                    
   1407                    //Resume BDB machine state only if we were in F&B, if we were on parent lost, only clean the commissioning mode and remove from bdb_ParentLostSavedState
   1408                    if(bdbCommissioningProcedureState.bdbCommissioningState == BDB_COMMISSIONING_STATE_FINDING_BINDING)
   \   000286   90....       MOV       DPTR,#bdbCommissioningProcedureState
   \   000289   E0           MOVX      A,@DPTR
   \   00028A   6406         XRL       A,#0x6
   \   00028C   7019         JNZ       ??bdb_reportCommissioningState_25
   1409                    {
   1410                      bdbCommissioningProcedureState.bdbCommissioningState = BDB_COMMISSIONING_STATE_START_RESUME;
   \   00028E   12....       LCALL     ??Subroutine39_0 & 0xFFFF
   1411                      osal_start_timerEx(bdb_TaskID,BDB_CHANGE_COMMISSIONING_STATE,50); 
   1412                    }
   \                     ??CrossCallReturnLabel_89:
   \   000291   12....       LCALL     ?PUSH_XSTACK8_X_FOUR
   \   000294   7A04         MOV       R2,#0x4
   \   000296   7B00         MOV       R3,#0x0
   \   000298   90....       MOV       DPTR,#bdb_TaskID
   \   00029B   E0           MOVX      A,@DPTR
   \   00029C   F9           MOV       R1,A
   \   00029D   12....       LCALL     `??osal_start_timerEx::?relay`; Banked call to: osal_start_timerEx
   \   0002A0   7404         MOV       A,#0x4
   \   0002A2   12....       LCALL     ?DEALLOC_XSTACK8
   \   0002A5   800A         SJMP      ??bdb_reportCommissioningState_26
   1413                    else if(bdbCommissioningProcedureState.bdb_ParentLostSavedState == BDB_COMMISSIONING_STATE_FINDING_BINDING)
   \                     ??bdb_reportCommissioningState_25:
   \   0002A7   90....       MOV       DPTR,#bdbCommissioningProcedureState + 3
   \   0002AA   E0           MOVX      A,@DPTR
   \   0002AB   6406         XRL       A,#0x6
   \   0002AD   7002         JNZ       ??bdb_reportCommissioningState_26
   1414                    {
   1415                      bdbCommissioningProcedureState.bdb_ParentLostSavedState = BDB_COMMISSIONING_STATE_START_RESUME;
   \   0002AF   E4           CLR       A
   \   0002B0   F0           MOVX      @DPTR,A
   1416                    }
   1417                    
   1418                    bdbAttributes.bdbCommissioningMode &= ~BDB_COMMISSIONING_MODE_FINDING_BINDING;
   \                     ??bdb_reportCommissioningState_26:
   \   0002B1   90....       MOV       DPTR,#bdbAttributes + 11
   \   0002B4   E0           MOVX      A,@DPTR
   \   0002B5   C2E3         CLR       0xE0 /* A   */.3
   \   0002B7   8078         SJMP      ??bdb_reportCommissioningState_18
   1419                  }
   1420                  else
   1421                  {
   1422                    return;
   1423                  }
   1424          
   1425          #endif
   1426                break;     
   1427                case BDB_COMMISSIONING_STATE_TL:
   1428                  // Set NWK task to run
   1429                  nwk_setStateIdle( FALSE );
   \                     ??bdb_reportCommissioningState_3:
   \   0002B9                ; Setup parameters for call to function nwk_setStateIdle
   \   0002B9   7900         MOV       R1,#0x0
   \   0002BB   12....       LCALL     `??nwk_setStateIdle::?relay`; Banked call to: nwk_setStateIdle
   1430                  bdbCommissioningModeMsg.bdbCommissioningMode = BDB_COMMISSIONING_TOUCHLINK;
   \   0002BE   7402         MOV       A,#0x2
   \   0002C0   12....       LCALL     ?XSTACK_DISP0_8
   \   0002C3   7404         MOV       A,#0x4
   \   0002C5   F0           MOVX      @DPTR,A
   1431                  if(didSuccess)
   \   0002C6   EF           MOV       A,R7
   \   0002C7   600C         JZ        ??bdb_reportCommissioningState_27
   1432                  {
   1433                    bdbAttributes.bdbCommissioningStatus = BDB_COMMISSIONING_SUCCESS;
   \   0002C9   90....       MOV       DPTR,#bdbAttributes + 10
   \   0002CC   E4           CLR       A
   \   0002CD   F0           MOVX      @DPTR,A
   1434                    bdbAttributes.bdbCommissioningMode = BDB_COMMISSIONING_MODE_IDDLE;
   \   0002CE   A3           INC       DPTR
   \   0002CF   F0           MOVX      @DPTR,A
   1435                    
   1436                    //Update ZDApp state
   1437          #if (ZG_BUILD_RTR_TYPE)
   1438                    if(ZG_DEVICE_RTRONLY_TYPE)
   1439                    {          
   1440                      ZDApp_ChangeState( DEV_ROUTER );
   \   0002D0                ; Setup parameters for call to function ZDApp_ChangeState
   \   0002D0   7907         MOV       R1,#0x7
   \   0002D2   12....       LCALL     `??ZDApp_ChangeState::?relay`; Banked call to: ZDApp_ChangeState
   1441                    }
   1442          #endif
   1443          #if (ZG_BUILD_ENDDEVICE_TYPE)
   1444                    if(ZG_DEVICE_ENDDEVICE_TYPE)
   1445                    {
   1446                      ZDApp_ChangeState( DEV_END_DEVICE );
   1447                    }
   1448          #endif          
   1449                  }
   1450                  //The fail status is already set from the calling function to report commissioning process
   1451                  
   1452                  // The commissioning FAIL status is set before calling the bdb_reportCommissioningState
   1453                  bdbCommissioningProcedureState.bdbCommissioningState = BDB_COMMISSIONING_STATE_START_RESUME;
   \                     ??bdb_reportCommissioningState_27:
   \   0002D5   12....       LCALL     ?Subroutine14 & 0xFFFF
   1454                  osal_start_timerEx(bdb_TaskID,BDB_CHANGE_COMMISSIONING_STATE,50); 
   \                     ??CrossCallReturnLabel_88:
   \   0002D8   12....       LCALL     ?PUSH_XSTACK8_X_FOUR
   \   0002DB   7A04         MOV       R2,#0x4
   \   0002DD   7B00         MOV       R3,#0x0
   \   0002DF   90....       MOV       DPTR,#bdb_TaskID
   \   0002E2   E0           MOVX      A,@DPTR
   \   0002E3   F9           MOV       R1,A
   \   0002E4   12....       LCALL     `??osal_start_timerEx::?relay`; Banked call to: osal_start_timerEx
   \   0002E7   7404         MOV       A,#0x4
   \   0002E9   12....       LCALL     ?DEALLOC_XSTACK8
   1455                  //Clear the event
   1456                  bdbAttributes.bdbCommissioningMode &= ~BDB_COMMISSIONING_MODE_INITIATOR_TL;
   \   0002EC   90....       MOV       DPTR,#bdbAttributes + 11
   \   0002EF   E0           MOVX      A,@DPTR
   \   0002F0   C2E0         CLR       0xE0 /* A   */.0
   \   0002F2   803D         SJMP      ??bdb_reportCommissioningState_18
   1457                  
   1458                break;
   1459                
   1460                case BDB_INITIALIZATION:
   1461                  //Notify user about successfull initialization
   1462                  bdbCommissioningModeMsg.bdbCommissioningMode = BDB_COMMISSIONING_INITIALIZATION;
   \                     ??bdb_reportCommissioningState_8:
   \   0002F4   7402         MOV       A,#0x2
   \   0002F6   12....       LCALL     ?XSTACK_DISP0_8
   \   0002F9   E4           CLR       A
   \   0002FA   F0           MOVX      @DPTR,A
   1463                  if(didSuccess)
   \   0002FB   EF           MOV       A,R7
   \   0002FC   6027         JZ        ??bdb_reportCommissioningState_28
   1464                  {
   1465                    //Update ZDApp state
   1466          #if (ZG_BUILD_COORDINATOR_TYPE)
   1467                    if(ZG_DEVICE_COORDINATOR_TYPE)
   1468                    {          
   1469                      ZDApp_ChangeState( DEV_ZB_COORD );
   1470                    }
   1471          #endif          
   1472          #if (ZG_BUILD_ENDDEVICE_TYPE)
   1473                    if(ZG_DEVICE_ENDDEVICE_TYPE)
   1474                    {
   1475                      uint32 pollrate = POLL_RATE;
   1476                      NLME_SetPollRate(pollrate);
   1477                      ZDApp_ChangeState( DEV_NWK_SEC_REJOIN_CURR_CHANNEL );
   1478                      
   1479                    }
   1480          #endif          
   1481                    ZDApp_RestoreNwkSecMaterial();
   \   0002FE                ; Setup parameters for call to function ZDApp_RestoreNwkSecMaterial
   \   0002FE   12....       LCALL     `??ZDApp_RestoreNwkSecMaterial::?relay`; Banked call to: ZDApp_RestoreNwkSecMaterial
   1482                    bdbAttributes.bdbCommissioningStatus = BDB_COMMISSIONING_NETWORK_RESTORED;
   \   000301   90....       MOV       DPTR,#bdbAttributes + 10
   \   000304   740D         MOV       A,#0xd
   \   000306   F0           MOVX      @DPTR,A
   1483                    bdbCommissioningProcedureState.bdbCommissioningState = BDB_COMMISSIONING_STATE_START_RESUME;
   \   000307   90....       MOV       DPTR,#bdbCommissioningProcedureState
   \   00030A   E4           CLR       A
   \   00030B   F0           MOVX      @DPTR,A
   1484                    osal_start_timerEx(bdb_TaskID,BDB_CHANGE_COMMISSIONING_STATE,200);
   \   00030C                ; Setup parameters for call to function osal_start_timerEx
   \   00030C   90....       MOV       DPTR,#__Constant_c8
   \   00030F   12....       LCALL     ?PUSH_XSTACK8_X_FOUR
   \   000312   7A04         MOV       R2,#0x4
   \   000314   7B00         MOV       R3,#0x0
   \   000316   90....       MOV       DPTR,#bdb_TaskID
   \   000319   E0           MOVX      A,@DPTR
   \   00031A   F9           MOV       R1,A
   \   00031B   12....       LCALL     `??osal_start_timerEx::?relay`; Banked call to: osal_start_timerEx
   \   00031E   7404         MOV       A,#0x4
   \   000320   12....       LCALL     ?DEALLOC_XSTACK8
   \   000323   8006         SJMP      ??bdb_reportCommissioningState_29
   1485                  }
   1486                  else
   1487                  {
   1488          #if (ZG_BUILD_ENDDEVICE_TYPE)                   
   1489                    if(ZG_DEVICE_ENDDEVICE_TYPE)
   1490                    {
   1491                      if(bdb_isDeviceNonFactoryNew())
   1492                      {
   1493                        //Notify the user about losing parent
   1494                        bdbCommissioningModeMsg.bdbCommissioningMode = BDB_COMMISSIONING_PARENT_LOST;
   1495                        bdbAttributes.bdbCommissioningMode |= BDB_COMMISSIONING_MODE_PARENT_LOST;
   1496                        
   1497                        //Update ZDApp state
   1498                        ZDApp_ChangeState( DEV_NWK_ORPHAN );
   1499                      }
   1500                    }
   1501          #endif
   1502                    bdbAttributes.bdbCommissioningStatus = BDB_COMMISSIONING_NO_NETWORK;
   \                     ??bdb_reportCommissioningState_28:
   \   000325   90....       MOV       DPTR,#bdbAttributes + 10
   \   000328   7402         MOV       A,#0x2
   \   00032A   F0           MOVX      @DPTR,A
   1503                  }
   1504                  bdbAttributes.bdbCommissioningMode &= ~BDB_COMMISSIONING_MODE_INITIALIZATION;
   \                     ??bdb_reportCommissioningState_29:
   \   00032B   90....       MOV       DPTR,#bdbAttributes + 11
   \   00032E   E0           MOVX      A,@DPTR
   \   00032F   C2E4         CLR       0xE0 /* A   */.4
   \                     ??bdb_reportCommissioningState_18:
   \   000331   F0           MOVX      @DPTR,A
   1505          
   1506                break;
   1507          #if (ZG_BUILD_ENDDEVICE_TYPE)     
   1508                case BDB_PARENT_LOST:
   1509                  bdbCommissioningModeMsg.bdbCommissioningMode = BDB_COMMISSIONING_PARENT_LOST;
   1510                  if(ZG_DEVICE_ENDDEVICE_TYPE)
   1511                  {
   1512                    if(didSuccess)
   1513                    {
   1514                      uint32 pollrate = POLL_RATE;
   1515                      bdbCommissioningProcedureState.bdbCommissioningState = bdbCommissioningProcedureState.bdb_ParentLostSavedState;  
   1516                      bdbCommissioningProcedureState.bdb_ParentLostSavedState = 0;
   1517                      NLME_SetPollRate(pollrate);
   1518                      bdbAttributes.bdbCommissioningMode &= ~BDB_COMMISSIONING_MODE_PARENT_LOST;
   1519                      bdbAttributes.bdbCommissioningStatus = BDB_COMMISSIONING_NETWORK_RESTORED;
   1520                      //Update ZDApp state
   1521                      ZDApp_ChangeState( DEV_NWK_SEC_REJOIN_CURR_CHANNEL );
   1522                      
   1523                      bdb_NetworkRestoredResumeState();
   1524                    }
   1525                    else
   1526                    {
   1527                      bdbAttributes.bdbCommissioningMode |= BDB_COMMISSIONING_MODE_PARENT_LOST;
   1528                      bdbAttributes.bdbCommissioningStatus = BDB_COMMISSIONING_NO_NETWORK;
   1529                      
   1530                      NLME_SetPollRate(0);
   1531                      
   1532                    }
   1533                  }
   1534                break;
   1535          #endif
   1536              }
   1537          #ifdef MT_APP_CNF_FUNC
   1538              //Notify the user about the status, the main state which has failed
   1539              bdbCommissioningModeMsg.bdbCommissioningStatus = bdbAttributes.bdbCommissioningStatus;
   1540              
   1541              bdb_NotifyApp((uint8*)&bdbCommissioningModeMsg);
   1542          #else
   1543              if(pfnCommissioningStatusCB)
   \                     ??bdb_reportCommissioningState_9:
   \   000332   90....       MOV       DPTR,#pfnCommissioningStatusCB
   \   000335   12....       LCALL     ??Subroutine38_0 & 0xFFFF
   \                     ??CrossCallReturnLabel_77:
   \   000338   602F         JZ        ??bdb_reportCommissioningState_1
   1544              {
   1545                //Notify the user about the status, the main state which has failed
   1546                bdbCommissioningModeMsg.bdbCommissioningStatus = bdbAttributes.bdbCommissioningStatus;
   \   00033A   90....       MOV       DPTR,#bdbAttributes + 10
   \   00033D   E0           MOVX      A,@DPTR
   \   00033E   C0E0         PUSH      A
   \   000340   7401         MOV       A,#0x1
   \   000342   12....       LCALL     ?XSTACK_DISP0_8
   \   000345   D0E0         POP       A
   \   000347   F0           MOVX      @DPTR,A
   1547                
   1548                bdb_NotifyApp((uint8*)&bdbCommissioningModeMsg);
   \   000348                ; Setup parameters for call to function bdb_SendMsg
   \   000348   7401         MOV       A,#0x1
   \   00034A   12....       LCALL     ?XSTACK_DISP100_8
   \   00034D   88..         MOV       ?V0,R0
   \   00034F   89..         MOV       ?V1,R1
   \   000351   78..         MOV       R0,#?V0
   \   000353   12....       LCALL     ?PUSH_XSTACK_I_TWO
   \   000356   7C03         MOV       R4,#0x3
   \   000358   7B00         MOV       R3,#0x0
   \   00035A   7A0A         MOV       R2,#0xa
   \   00035C   90....       MOV       DPTR,#bdb_TaskID
   \   00035F   E0           MOVX      A,@DPTR
   \   000360   F9           MOV       R1,A
   \   000361   12....       LCALL     `??bdb_SendMsg::?relay`; Banked call to: bdb_SendMsg
   \   000364   7402         MOV       A,#0x2
   \   000366   12....       LCALL     ?DEALLOC_XSTACK8
   1549              }
   1550          #endif
   1551            }  
   1552          }
   \                     ??bdb_reportCommissioningState_1:
   \   000369   7404         MOV       A,#0x4
   \   00036B   02....       LJMP      ??Subroutine41_0 & 0xFFFF

   \                                 In  segment BANKED_CODE, align 1, keep-with-next
   \                     ?Subroutine6:
   \   000000   F0           MOVX      @DPTR,A
   \   000001                ; Setup parameters for call to function ZMacSetReq
   \   000001                ; Setup parameters for call to function ZMacSetReq
   \   000001                ; Setup parameters for call to function ZMacSetReq
   \   000001   AA..         MOV       R2,?XSP + 0
   \   000003   AB..         MOV       R3,?XSP + 1
   \   000005   7952         MOV       R1,#0x52
   \   000007   22           RET

   \                                 In  segment BANKED_CODE, align 1, keep-with-next
   \                     ?Subroutine14:
   \   000000   90....       MOV       DPTR,#bdbCommissioningProcedureState
   \   000003                REQUIRE ??Subroutine39_0
   \   000003                ; // Fall through to label ??Subroutine39_0

   \                                 In  segment BANKED_CODE, align 1, keep-with-next
   \                     ??Subroutine39_0:
   \   000000   E4           CLR       A
   \   000001                REQUIRE ??Subroutine40_0
   \   000001                ; // Fall through to label ??Subroutine40_0

   \                                 In  segment BANKED_CODE, align 1, keep-with-next
   \                     ??Subroutine40_0:
   \   000000   F0           MOVX      @DPTR,A
   \   000001                ; Setup parameters for call to function osal_start_timerEx
   \   000001                ; Setup parameters for call to function osal_start_timerEx
   \   000001                ; Setup parameters for call to function osal_start_timerEx
   \   000001                ; Setup parameters for call to function osal_start_timerEx
   \   000001                ; Setup parameters for call to function osal_start_timerEx
   \   000001                ; Setup parameters for call to function osal_start_timerEx
   \   000001   90....       MOV       DPTR,#__Constant_32
   \   000004   22           RET

   \                                 In  segment BANKED_CODE, align 1, keep-with-next
   \                     ?Subroutine18:
   \   000000   90....       MOV       DPTR,#pBDBListNwk
   \   000003                REQUIRE ??Subroutine43_0
   \   000003                ; // Fall through to label ??Subroutine43_0
   1553          
   1554          
   1555           /*********************************************************************
   1556           * @fn          bdb_nwkFormationAttempt
   1557           *
   1558           * @brief       Process a nwk formation attempt.
   1559           *
   1560           * @param       didSuccess - TRUE if the nwk formation was success, FALSE 
   1561           *                         otherwise and try secondary channel
   1562           *
   1563           * @return      none
   1564           */

   \                                 In  segment BANKED_CODE, align 1, keep-with-next
   1565          void bdb_nwkFormationAttempt(bool didSuccess)
   \                     bdb_nwkFormationAttempt:
   1566          {
   \   000000   74F7         MOV       A,#-0x9
   \   000002   12....       LCALL     ?BANKED_ENTER_XDATA
   \   000005                ; Saved register size: 9
   \   000005                ; Auto size: 0
   \   000005   E9           MOV       A,R1
   1567            if(didSuccess)
   \   000006   6004         JZ        ??bdb_nwkFormationAttempt_0
   1568            {
   1569              bdb_reportCommissioningState(BDB_COMMISSIONING_STATE_FORMATION,TRUE);
   \   000008                ; Setup parameters for call to function bdb_reportCommissioningState
   \   000008   7A01         MOV       R2,#0x1
   \   00000A   801F         SJMP      ??bdb_nwkFormationAttempt_1
   1570            }
   1571            else
   1572            {
   1573              //Can we try the secondary channel set?
   1574              if((vDoPrimaryScan) && (bdbAttributes.bdbSecondaryChannelSet))
   \                     ??bdb_nwkFormationAttempt_0:
   \   00000C   90....       MOV       DPTR,#vDoPrimaryScan
   \   00000F   E0           MOVX      A,@DPTR
   \   000010   6017         JZ        ??bdb_nwkFormationAttempt_2
   \   000012   90....       MOV       DPTR,#bdbAttributes
   \   000015   12....       LCALL     ?XLOAD_R0123
   \   000018   E8           MOV       A,R0
   \   000019   49           ORL       A,R1
   \   00001A   4A           ORL       A,R2
   \   00001B   4B           ORL       A,R3
   \   00001C   600B         JZ        ??bdb_nwkFormationAttempt_2
   1575              {
   1576                vDoPrimaryScan = FALSE;
   \   00001E   90....       MOV       DPTR,#vDoPrimaryScan
   \   000021   E4           CLR       A
   \   000022   F0           MOVX      @DPTR,A
   1577                bdb_nwkJoiningFormation(FALSE);
   \   000023                ; Setup parameters for call to function bdb_nwkJoiningFormation
   \   000023   F9           MOV       R1,A
   \   000024   12....       LCALL     `??bdb_nwkJoiningFormation::?relay`; Banked call to: bdb_nwkJoiningFormation
   \   000027   8007         SJMP      ??bdb_nwkFormationAttempt_3
   1578              }
   1579              else
   1580              {
   1581                bdb_reportCommissioningState(BDB_COMMISSIONING_STATE_FORMATION, FALSE);
   \                     ??bdb_nwkFormationAttempt_2:
   \   000029                ; Setup parameters for call to function bdb_reportCommissioningState
   \   000029   7A00         MOV       R2,#0x0
   \                     ??bdb_nwkFormationAttempt_1:
   \   00002B   7905         MOV       R1,#0x5
   \   00002D   12....       LCALL     `??bdb_reportCommissioningState::?relay`; Banked call to: bdb_reportCommissioningState
   1582              }
   1583            }
   1584          }
   \                     ??bdb_nwkFormationAttempt_3:
   \   000030                REQUIRE ?Subroutine0
   \   000030                ; // Fall through to label ?Subroutine0
   1585          
   1586          
   1587          
   1588          /*********************************************************************
   1589           * @fn          bdb_isDeviceNonFactoryNew
   1590           *
   1591           * @brief       Returns the state of bdbNodeIsOnANetwork attribute
   1592           * 
   1593           * @param       none
   1594           *
   1595           * @return      bdbNodeIsOnANetwork
   1596           */

   \                                 In  segment BANKED_CODE, align 1, keep-with-next
   1597          bool bdb_isDeviceNonFactoryNew(void)
   \                     bdb_isDeviceNonFactoryNew:
   1598          {
   \   000000   C082         PUSH      DPL
   \   000002   C083         PUSH      DPH
   \   000004                ; Saved register size: 2
   \   000004                ; Auto size: 0
   1599            return bdbAttributes.bdbNodeIsOnANetwork;
   \   000004   90....       MOV       DPTR,#bdbAttributes + 14
   \   000007   E0           MOVX      A,@DPTR
   \   000008   F9           MOV       R1,A
   \   000009   80..         SJMP      ??Subroutine32_0
   1600          }
   1601          
   1602          
   1603          /*********************************************************************
   1604           * @fn          bdb_doTrustCenterRequireKeyExchange
   1605           *
   1606           * @brief       Returns the state of bdbTrustCenterRequireKeyExchange attribute
   1607           * 
   1608           * @param       none
   1609           *
   1610           * @return      bdbTrustCenterRequireKeyExchange
   1611           */

   \                                 In  segment BANKED_CODE, align 1, keep-with-next
   1612          bool bdb_doTrustCenterRequireKeyExchange(void)
   \                     bdb_doTrustCenterRequireKeyExchange:
   1613          {
   \   000000                ; Saved register size: 0
   \   000000                ; Auto size: 0
   1614          #if (ZG_BUILD_COORDINATOR_TYPE) 
   1615            return bdbAttributes.bdbTrustCenterRequireKeyExchange;
   1616          #else
   1617            return 0;
   \   000000   7900         MOV       R1,#0x0
   \   000002   02....       LJMP      ?BRET
   1618          #endif
   1619          }
   1620          
   1621          /*********************************************************************
   1622           * @fn      bdb_rejoinNwk
   1623           *
   1624           * @brief   Attempt to rejoin/resume a nwk from nv parameters
   1625           *
   1626           * @param   none
   1627           *
   1628           * @return  ZStatus_t
   1629           */

   \                                 In  segment BANKED_CODE, align 1, keep-with-next
   1630          ZStatus_t bdb_rejoinNwk(void)
   \                     bdb_rejoinNwk:
   1631          {
   \   000000                REQUIRE ?V0
   \   000000                REQUIRE ?V1
   \   000000   74F6         MOV       A,#-0xa
   \   000002   12....       LCALL     ?BANKED_ENTER_XDATA
   \   000005                ; Saved register size: 10
   \   000005                ; Auto size: 1
   \   000005   74FF         MOV       A,#-0x1
   \   000007   12....       LCALL     ?ALLOC_XSTACK8
   1632            ZStatus_t rejoinStatus = ZSuccess;
   \   00000A   7E00         MOV       R6,#0x0
   1633            
   1634            //Update the seq number
   1635            _NIB.SequenceNum ++;
   \   00000C   90....       MOV       DPTR,#_NIB
   \   00000F   E0           MOVX      A,@DPTR
   \   000010   04           INC       A
   \   000011   F0           MOVX      @DPTR,A
   1636            
   1637            osal_nv_write(ZCD_NV_NIB,osal_offsetof( nwkIB_t, SequenceNum ), sizeof( uint8), &_NIB.SequenceNum );
   \   000012                ; Setup parameters for call to function osal_nv_write
   \   000012   75....       MOV       ?V0,#_NIB & 0xff
   \   000015   75....       MOV       ?V1,#(_NIB >> 8) & 0xff
   \   000018   78..         MOV       R0,#?V0
   \   00001A   12....       LCALL     ?PUSH_XSTACK_I_TWO
   \   00001D   75..01       MOV       ?V0,#0x1
   \   000020   8E..         MOV       ?V1,R6
   \   000022   78..         MOV       R0,#?V0
   \   000024   12....       LCALL     ?PUSH_XSTACK_I_TWO
   \   000027   7C00         MOV       R4,#0x0
   \   000029   7D00         MOV       R5,#0x0
   \   00002B   7A21         MOV       R2,#0x21
   \   00002D   7B00         MOV       R3,#0x0
   \   00002F   12....       LCALL     `??osal_nv_write::?relay`; Banked call to: osal_nv_write
   \   000032   7404         MOV       A,#0x4
   \   000034   12....       LCALL     ?DEALLOC_XSTACK8
   1638            
   1639            // Transition state machine to correct rejoin state based on nwk key
   1640            if ( ZDApp_RestoreNwkKey( FALSE )== TRUE )
   \   000037                ; Setup parameters for call to function ZDApp_RestoreNwkKey
   \   000037   7900         MOV       R1,#0x0
   \   000039   12....       LCALL     `??ZDApp_RestoreNwkKey::?relay`; Banked call to: ZDApp_RestoreNwkKey
   \   00003C   E9           MOV       A,R1
   \   00003D   6401         XRL       A,#0x1
   \   00003F   7004         JNZ       ??bdb_rejoinNwk_0
   1641            {
   1642              ZDApp_ChangeState( DEV_NWK_SEC_REJOIN_CURR_CHANNEL );
   \   000041                ; Setup parameters for call to function ZDApp_ChangeState
   \   000041   7904         MOV       R1,#0x4
   \   000043   8002         SJMP      ??bdb_rejoinNwk_1
   1643            }
   1644            else
   1645            {
   1646              ZDApp_ChangeState( DEV_NWK_TC_REJOIN_CURR_CHANNEL );
   \                     ??bdb_rejoinNwk_0:
   \   000045                ; Setup parameters for call to function ZDApp_ChangeState
   \   000045   790E         MOV       R1,#0xe
   \                     ??bdb_rejoinNwk_1:
   \   000047   12....       LCALL     `??ZDApp_ChangeState::?relay`; Banked call to: ZDApp_ChangeState
   1647            }
   1648          
   1649            // Before trying to do rejoin, check if the device has a valid short address
   1650            // If not, generate a random short address for itself
   1651            if ( _NIB.nwkDevAddress == INVALID_NODE_ADDR )
   \   00004A   90....       MOV       DPTR,#_NIB + 20
   \   00004D   E0           MOVX      A,@DPTR
   \   00004E   64FE         XRL       A,#0xfe
   \   000050   7003         JNZ       ??bdb_rejoinNwk_2
   \   000052   A3           INC       DPTR
   \   000053   E0           MOVX      A,@DPTR
   \   000054   F4           CPL       A
   \                     ??bdb_rejoinNwk_2:
   \   000055   7002         JNZ       ??bdb_rejoinNwk_3
   1652            {
   1653              rejoinStatus = ZFailure;
   \   000057   7E01         MOV       R6,#0x1
   1654            }
   1655          
   1656            // Check if the device has a valid PanID, if not, set it to the discovered Pan
   1657            if ( _NIB.nwkPanId == 0xFFFF )
   \                     ??bdb_rejoinNwk_3:
   \   000059   90....       MOV       DPTR,#_NIB + 33
   \   00005C   E0           MOVX      A,@DPTR
   \   00005D   F4           CPL       A
   \   00005E   7003         JNZ       ??bdb_rejoinNwk_4
   \   000060   A3           INC       DPTR
   \   000061   E0           MOVX      A,@DPTR
   \   000062   F4           CPL       A
   \                     ??bdb_rejoinNwk_4:
   \   000063   7004         JNZ       ??bdb_rejoinNwk_5
   1658            {
   1659              rejoinStatus = ZFailure;
   \   000065   7E01         MOV       R6,#0x1
   \   000067   8036         SJMP      ??bdb_rejoinNwk_6
   1660            }
   1661          
   1662            if(rejoinStatus == ZSuccess)
   \                     ??bdb_rejoinNwk_5:
   \   000069   EE           MOV       A,R6
   \   00006A   A2E0         MOV       C,0xE0 /* A   */.0
   \   00006C   4031         JC        ??bdb_rejoinNwk_6
   1663            {
   1664              uint8 tmp = true;
   \   00006E   85..82       MOV       DPL,?XSP + 0
   \   000071   85..83       MOV       DPH,?XSP + 1
   \   000074   7401         MOV       A,#0x1
   \   000076   12....       LCALL     ?Subroutine6 & 0xFFFF
   1665              ZMacSetReq( ZMacRxOnIdle, &tmp ); // Set receiver always on during rejoin
   \                     ??CrossCallReturnLabel_5:
   \   000079   12....       LCALL     `??ZMacSetReq::?relay`; Banked call to: ZMacSetReq
   1666                  
   1667              // Perform Secure or Unsecure Rejoin depending on available configuration
   1668              if ( ZG_SECURE_ENABLED && ( ZDApp_RestoreNwkKey( TRUE ) == TRUE ) )
   \   00007C                ; Setup parameters for call to function ZDApp_RestoreNwkKey
   \   00007C   7901         MOV       R1,#0x1
   \   00007E   12....       LCALL     `??ZDApp_RestoreNwkKey::?relay`; Banked call to: ZDApp_RestoreNwkKey
   \   000081   E9           MOV       A,R1
   \   000082   6401         XRL       A,#0x1
   \   000084   90....       MOV       DPTR,#_NIB + 22
   \   000087   700B         JNZ       ??bdb_rejoinNwk_7
   1669              {
   1670                rejoinStatus = NLME_ReJoinRequest( ZDO_UseExtendedPANID, _NIB.nwkLogicalChannel);
   \   000089                ; Setup parameters for call to function NLME_ReJoinRequest
   \   000089   E0           MOVX      A,@DPTR
   \   00008A   F9           MOV       R1,A
   \   00008B   7A..         MOV       R2,#ZDO_UseExtendedPANID & 0xff
   \   00008D   7B..         MOV       R3,#(ZDO_UseExtendedPANID >> 8) & 0xff
   \   00008F   12....       LCALL     `??NLME_ReJoinRequest::?relay`; Banked call to: NLME_ReJoinRequest
   \   000092   8009         SJMP      ??bdb_rejoinNwk_8
   1671              }
   1672              else
   1673              {
   1674                rejoinStatus = NLME_ReJoinRequestUnsecure( ZDO_UseExtendedPANID, _NIB.nwkLogicalChannel);
   \                     ??bdb_rejoinNwk_7:
   \   000094                ; Setup parameters for call to function NLME_ReJoinRequestUnsecure
   \   000094   E0           MOVX      A,@DPTR
   \   000095   F9           MOV       R1,A
   \   000096   7A..         MOV       R2,#ZDO_UseExtendedPANID & 0xff
   \   000098   7B..         MOV       R3,#(ZDO_UseExtendedPANID >> 8) & 0xff
   \   00009A   12....       LCALL     `??NLME_ReJoinRequestUnsecure::?relay`; Banked call to: NLME_ReJoinRequestUnsecure
   \                     ??bdb_rejoinNwk_8:
   \   00009D   E9           MOV       A,R1
   \   00009E   FE           MOV       R6,A
   1675              }
   1676            }
   1677            
   1678            return rejoinStatus;
   \                     ??bdb_rejoinNwk_6:
   \   00009F   EE           MOV       A,R6
   \   0000A0   F9           MOV       R1,A
   \   0000A1   02....       LJMP      ?Subroutine1 & 0xFFFF
   1679          }

   \                                 In  segment BANKED_CODE, align 1, keep-with-next
   \                     ?Subroutine1:
   \   000000   7401         MOV       A,#0x1
   \   000002                REQUIRE ??Subroutine41_0
   \   000002                ; // Fall through to label ??Subroutine41_0
   1680          
   1681          #if (ZG_BUILD_JOINING_TYPE)
   1682           /*********************************************************************
   1683           * @fn          bdb_nwkDiscoveryAttempt
   1684           *
   1685           * @brief       Process a nwk discovery attempt
   1686           *
   1687           * @param       didSuccess - TRUE we found nwk in the scanned channels, FALSE if 
   1688           *                           no suitable nwks were found, try secondary channel
   1689           *
   1690           * @return      none
   1691           */

   \                                 In  segment BANKED_CODE, align 1, keep-with-next
   1692          void bdb_nwkDiscoveryAttempt(bool didSuccess)
   \                     bdb_nwkDiscoveryAttempt:
   1693          {
   \   000000                REQUIRE ?V0
   \   000000                REQUIRE ?V1
   \   000000   74F6         MOV       A,#-0xa
   \   000002   12....       LCALL     ?BANKED_ENTER_XDATA
   \   000005                ; Saved register size: 10
   \   000005                ; Auto size: 1
   \   000005   74FF         MOV       A,#-0x1
   \   000007   12....       LCALL     ?ALLOC_XSTACK8
   \   00000A   E9           MOV       A,R1
   \   00000B   FE           MOV       R6,A
   1694            uint8 bdbJoinEvent = BDB_JOIN_EVENT_NWK_DISCOVERY;
   \   00000C   85..82       MOV       DPL,?XSP + 0
   \   00000F   85..83       MOV       DPH,?XSP + 1
   \   000012   E4           CLR       A
   \   000013   F0           MOVX      @DPTR,A
   1695            
   1696            if(didSuccess)
   \   000014   EE           MOV       A,R6
   \   000015   6022         JZ        ??bdb_nwkDiscoveryAttempt_0
   1697            {
   1698              bdb_SendMsg(bdb_TaskID, BDB_COMMISSIONING_STATE_JOINING, BDB_MSG_EVENT_SUCCESS,sizeof(bdbJoinEvent),(uint8*)&bdbJoinEvent);
   \   000017                ; Setup parameters for call to function bdb_SendMsg
   \   000017   A8..         MOV       R0,?XSP + 0
   \   000019   A9..         MOV       R1,?XSP + 1
   \   00001B   88..         MOV       ?V0,R0
   \   00001D   89..         MOV       ?V1,R1
   \   00001F   78..         MOV       R0,#?V0
   \   000021   12....       LCALL     ?PUSH_XSTACK_I_TWO
   \   000024   7C01         MOV       R4,#0x1
   \   000026   7B00         MOV       R3,#0x0
   \   000028   7A03         MOV       R2,#0x3
   \   00002A   90....       MOV       DPTR,#bdb_TaskID
   \   00002D   E0           MOVX      A,@DPTR
   \   00002E   F9           MOV       R1,A
   \   00002F   12....       LCALL     `??bdb_SendMsg::?relay`; Banked call to: bdb_SendMsg
   \   000032   7402         MOV       A,#0x2
   \   000034   12....       LCALL     ?DEALLOC_XSTACK8
   \   000037   8030         SJMP      ??bdb_nwkDiscoveryAttempt_1
   1699            }
   1700            else
   1701            {
   1702              //Can we try the secondary channel set?
   1703              if((vDoPrimaryScan) && (bdbAttributes.bdbSecondaryChannelSet))
   \                     ??bdb_nwkDiscoveryAttempt_0:
   \   000039   90....       MOV       DPTR,#vDoPrimaryScan
   \   00003C   E0           MOVX      A,@DPTR
   \   00003D   6023         JZ        ??bdb_nwkDiscoveryAttempt_2
   \   00003F   90....       MOV       DPTR,#bdbAttributes
   \   000042   12....       LCALL     ?XLOAD_R0123
   \   000045   E8           MOV       A,R0
   \   000046   49           ORL       A,R1
   \   000047   4A           ORL       A,R2
   \   000048   4B           ORL       A,R3
   \   000049   6017         JZ        ??bdb_nwkDiscoveryAttempt_2
   1704              {
   1705                vDoPrimaryScan = FALSE;
   \   00004B   90....       MOV       DPTR,#vDoPrimaryScan
   \   00004E   E4           CLR       A
   \   00004F   F0           MOVX      @DPTR,A
   1706                bdb_setChannel(bdbAttributes.bdbSecondaryChannelSet);
   \   000050                ; Setup parameters for call to function bdb_setChannel
   \   000050   90....       MOV       DPTR,#bdbAttributes
   \   000053   12....       LCALL     ?XLOAD_R2345
   \   000056   12....       LCALL     `??bdb_setChannel::?relay`; Banked call to: bdb_setChannel
   1707                
   1708                ZDApp_NetworkInit( 50 );
   \   000059                ; Setup parameters for call to function ZDApp_NetworkInit
   \   000059   7A32         MOV       R2,#0x32
   \   00005B   7B00         MOV       R3,#0x0
   \   00005D   12....       LCALL     `??ZDApp_NetworkInit::?relay`; Banked call to: ZDApp_NetworkInit
   \   000060   8007         SJMP      ??bdb_nwkDiscoveryAttempt_1
   1709              }
   1710              else
   1711              {
   1712                bdb_reportCommissioningState(BDB_COMMISSIONING_STATE_JOINING, FALSE);
   \                     ??bdb_nwkDiscoveryAttempt_2:
   \   000062                ; Setup parameters for call to function bdb_reportCommissioningState
   \   000062   7A00         MOV       R2,#0x0
   \   000064   7903         MOV       R1,#0x3
   \   000066   12....       LCALL     `??bdb_reportCommissioningState::?relay`; Banked call to: bdb_reportCommissioningState
   1713              }
   1714            }
   1715          }
   \                     ??bdb_nwkDiscoveryAttempt_1:
   \   000069   02....       LJMP      ?Subroutine1 & 0xFFFF
   1716          
   1717           /*********************************************************************
   1718           * @fn          bdb_filterNwkDisc
   1719           *
   1720           * @brief       Filter the nwks found and attempt to join the suitable nwks
   1721           *              Here the application can include nwk filters 
   1722           *
   1723           * @param       none
   1724           *
   1725           * @return      none
   1726           */

   \                                 In  segment BANKED_CODE, align 1, keep-with-next
   1727          void bdb_filterNwkDisc(void)
   \                     bdb_filterNwkDisc:
   1728          {
   \   000000                REQUIRE ?V0
   \   000000                REQUIRE ?V1
   \   000000                REQUIRE ?V2
   \   000000                REQUIRE ?V3
   \   000000   74F4         MOV       A,#-0xc
   \   000002   12....       LCALL     ?BANKED_ENTER_XDATA
   \   000005                ; Saved register size: 12
   \   000005                ; Auto size: 0
   1729            networkDesc_t* pNwkDesc;
   1730            uint8 i = 0;
   1731            uint8 ResultCount = 0;
   \   000005   75..00       MOV       ?V0,#0x0
   1732            uint8 stackProfile = 0;
   \   000008   75..00       MOV       ?V2,#0x0
   1733            uint8 stackProfilePro = 0;
   \   00000B   75..00       MOV       ?V1,#0x0
   1734            
   1735            pBDBListNwk  = nwk_getNwkDescList();
   \   00000E                ; Setup parameters for call to function nwk_getNwkDescList
   \   00000E   12....       LCALL     `??nwk_getNwkDescList::?relay`; Banked call to: nwk_getNwkDescList
   \   000011   90....       MOV       DPTR,#pBDBListNwk
   \   000014   12....       LCALL     ?Subroutine13 & 0xFFFF
   1736            nwk_desc_list_release();
   \                     ??CrossCallReturnLabel_16:
   \   000017                ; Setup parameters for call to function nwk_desc_list_release
   \   000017   12....       LCALL     `??nwk_desc_list_release::?relay`; Banked call to: nwk_desc_list_release
   1737            
   1738            pNwkDesc = pBDBListNwk;
   \   00001A   90....       MOV       DPTR,#pBDBListNwk
   \   00001D   8005         SJMP      ??CrossCallReturnLabel_45
   1739            while (pNwkDesc)
   1740            {
   1741              ResultCount++;
   \                     ??bdb_filterNwkDisc_0:
   \   00001F   05..         INC       ?V0
   1742              pNwkDesc = pNwkDesc->nextDesc;
   \   000021   12....       LCALL     ?Subroutine26 & 0xFFFF
   1743            }
   \                     ??CrossCallReturnLabel_45:
   \   000024   12....       LCALL     ?Subroutine29 & 0xFFFF
   \                     ??CrossCallReturnLabel_51:
   \   000027   EE           MOV       A,R6
   \   000028   4F           ORL       A,R7
   \   000029   70F4         JNZ       ??bdb_filterNwkDisc_0
   1744            
   1745            if(pBDBListNwk)
   \   00002B   90....       MOV       DPTR,#pBDBListNwk
   \   00002E   12....       LCALL     ??Subroutine38_0 & 0xFFFF
   \                     ??CrossCallReturnLabel_78:
   \   000031   7003         JNZ       $+5
   \   000033   02....       LJMP      ??bdb_filterNwkDisc_1 & 0xFFFF
   1746            {
   1747              if(pfnFilterNwkDesc)
   \   000036   90....       MOV       DPTR,#pfnFilterNwkDesc
   \   000039   12....       LCALL     ??Subroutine38_0 & 0xFFFF
   \                     ??CrossCallReturnLabel_79:
   \   00003C   600E         JZ        ??bdb_filterNwkDisc_2
   1748              {
   1749                pfnFilterNwkDesc(pBDBListNwk, ResultCount);
   \   00003E                ; Setup parameters for indirect call
   \   00003E   A9..         MOV       R1,?V0
   \   000040   12....       LCALL     ?Subroutine18 & 0xFFFF
   1750              }
   \                     ??CrossCallReturnLabel_101:
   \   000043   90....       MOV       DPTR,#pfnFilterNwkDesc + 1
   \   000046   12....       LCALL     ??Subroutine35_0 & 0xFFFF
   \                     ??CrossCallReturnLabel_60:
   \   000049   12....       LCALL     ?CALL_IND
   1751              
   1752              for ( stackProfile = 0; stackProfile < STACK_PROFILE_MAX; stackProfile++ )
   1753              {
   1754                pNwkDesc = pBDBListNwk;
   \                     ??bdb_filterNwkDisc_2:
   \   00004C   90....       MOV       DPTR,#pBDBListNwk
   \   00004F   12....       LCALL     ?Subroutine29 & 0xFFFF
   1755                
   1756                if(pNwkDesc)
   \                     ??CrossCallReturnLabel_52:
   \   000052   EE           MOV       A,R6
   \   000053   4F           ORL       A,R7
   \   000054   7003         JNZ       $+5
   \   000056   02....       LJMP      ??bdb_filterNwkDisc_3 & 0xFFFF
   1757                {
   1758                  for ( i = 0; i < ResultCount; i++, pNwkDesc = pNwkDesc->nextDesc )
   \   000059   75..00       MOV       ?V3,#0x0
   \   00005C   8022         SJMP      ??CrossCallReturnLabel_53
   1759                  {
   1760                    if ( nwk_ExtPANIDValid( ZDO_UseExtendedPANID ) == true )
   1761                    {
   1762                      // If the extended Pan ID is commissioned to a non zero value
   1763                      // Only join the Pan that has match EPID
   1764                      if ( osal_ExtAddrEqual( ZDO_UseExtendedPANID, pNwkDesc->extendedPANID) == false )
   1765                      {
   1766                        //Remove from the list
   1767                        bdb_nwkDescFree(pNwkDesc);
   1768                        ResultCount--;
   1769                        continue;
   1770                      }
   1771                    }
   1772                    else if ( zgConfigPANID != 0xFFFF )
   1773                    {
   1774                      // PAN Id is preconfigured. check if it matches
   1775                      if ( pNwkDesc->panId != zgConfigPANID )
   1776                      {
   1777                        //Remove from the list
   1778                        bdb_nwkDescFree(pNwkDesc);
   1779                        ResultCount--;
   1780                        continue;
   1781                      }
   1782                    }
   1783          
   1784                    if ( pNwkDesc->chosenRouter != _NIB.nwkCoordAddress || _NIB.nwkCoordAddress == INVALID_NODE_ADDR )
   1785                    {
   1786                      // check that network is allowing joining
   1787                      if ( ZSTACK_ROUTER_BUILD )
   1788                      {
   1789                        if ( stackProfilePro == FALSE )
   1790                        {
   1791                          if ( !pNwkDesc->routerCapacity )
   1792                          {
