###############################################################################
#
# IAR C/C++ Compiler V10.10.1.4655 for 8051               08/Apr/2021  22:48:43
# Copyright 2004-2017 IAR Systems AB.
# Standalone license - IAR Embedded Workbench for 8051
#
#    Core               =  plain
#    Code model         =  banked
#    Data model         =  large
#    Calling convention =  xdata reentrant
#    Constant location  =  data_rom
#    Dptr setup         =  1,16
#                          
#    Source file        =  
#        E:\ZLinker 1.0.3\Z-Stack 3.0.2\Components\hal\userspace\hal_peris.c
#    Command line       =  
#        -f C:\Users\Michael\AppData\Local\Temp\EWDCC7.tmp ("E:\ZLinker
#        1.0.3\Z-Stack 3.0.2\Components\hal\userspace\hal_peris.c" -D SECURE=1
#        -D TC_LINKKEY_JOIN -D NV_INIT -D NV_RESTORE -D xZTOOL_P1 -D xMT_TASK
#        -D xMT_APP_FUNC -D xMT_SYS_FUNC -D xMT_ZDO_FUNC -D xMT_ZDO_MGMT -D
#        xMT_APP_CNF_FUNC -D LCD_SUPPORTED=DEBUG -D MULTICAST_ENABLED=FALSE -D
#        ZCL_READ -D ZCL_DISCOVER -D ZCL_WRITE -D ZCL_BASIC -D ZCL_IDENTIFY -D
#        ZCL_ON_OFF -D ZCL_GROUPS -D ZCL_LEVEL_CTRL -D HAL_KEY=TRUE -D
#        ISR_KEYINTERRUPT -D HAL_LCD=TRUE -D HAL_ADC=TRUE -D HAL_DHT11=TRUE -D
#        ZB_CONFIG_PA_ENABLE=TRUE -D TEST_RSSI=TRUE -lC "E:\ZLinker
#        1.0.3\Z-Stack 3.0.2\Projects\CC2530\Category\Router\List" -lA
#        "E:\ZLinker 1.0.3\Z-Stack 3.0.2\Projects\CC2530\Category\Router\List"
#        --diag_suppress Pe001,Pa010 -o "E:\ZLinker 1.0.3\Z-Stack
#        3.0.2\Projects\CC2530\Category\Router\Obj" -e --debug --core=plain
#        --dptr=16,1 --data_model=large --code_model=banked
#        --calling_convention=xdata_reentrant --place_constants=data_rom
#        --nr_virtual_regs 16 -f "E:\ZLinker 1.0.3\Z-Stack
#        3.0.2\Projects\CC2530\Tools\f8wRouter.cfg" (-DCPU32MHZ
#        -DROOT=__near_func -DMAC_CFG_APP_PENDING_QUEUE=TRUE
#        -DMAC_CFG_TX_DATA_MAX=5 -DMAC_CFG_TX_MAX=8 -DMAC_CFG_RX_MAX=5
#        -DRTR_NWK) -f "E:\ZLinker 1.0.3\Z-Stack
#        3.0.2\Projects\CC2530\Tools\f8wConfig.cfg" (-DZIGBEEPRO -DSECURE=1
#        -DZG_SECURE_DYNAMIC=0 -DREFLECTOR -DDEFAULT_CHANLIST=0x00000800
#        -DZDAPP_CONFIG_PAN_ID=0xFFFF -DNWK_START_DELAY=100
#        -DEXTENDED_JOINING_RANDOM_MASK=0x007F -DBEACON_REQUEST_DELAY=100
#        -DBEACON_REQ_DELAY_MASK=0x00FF -DLINK_STATUS_JITTER_MASK=0x007F
#        -DROUTE_EXPIRY_TIME=30 -DAPSC_ACK_WAIT_DURATION_POLLED=3000
#        -DNWK_INDIRECT_MSG_TIMEOUT=7 -DMAX_RREQ_ENTRIES=8
#        -DAPSC_MAX_FRAME_RETRIES=3 -DNWK_MAX_DATA_RETRIES=2
#        -DMAX_POLL_FAILURE_RETRIES=2 -DMAX_BCAST=9 -DAPS_MAX_GROUPS=16
#        -DMAX_RTG_ENTRIES=40 -DNWK_MAX_BINDING_ENTRIES=4
#        -DMAX_BINDING_CLUSTER_IDS=4 -DDEFAULT_KEY={0} -DMAC_MAX_FRAME_SIZE=116
#        -DZDNWKMGR_MIN_TRANSMISSIONS=20 "-DCONST=const __code"
#        -DGENERIC=__generic -DRFD_RCVC_ALWAYS_ON=FALSE -DPOLL_RATE=1000
#        -DQUEUED_POLL_RATE=100 -DRESPONSE_POLL_RATE=100 -DREJOIN_POLL_RATE=440
#        -DREJOIN_BACKOFF=900000 -DREJOIN_SCAN=900000 -DENABLE_LED4_DISABLE_S1)
#        -f "E:\ZLinker 1.0.3\Z-Stack 3.0.2\Projects\CC2530\Tools\f8wZCL.cfg"
#        -I "E:\ZLinker 1.0.3\Z-Stack 3.0.2\Projects\CC2530\" -I "E:\ZLinker
#        1.0.3\Z-Stack 3.0.2\Projects\CC2530\..\..\Components\hal\include\" -I
#        "E:\ZLinker 1.0.3\Z-Stack
#        3.0.2\Projects\CC2530\..\..\Components\hal\target\CC2530EB\" -I
#        "E:\ZLinker 1.0.3\Z-Stack
#        3.0.2\Projects\CC2530\..\..\Components\hal\userspace\" -I "E:\ZLinker
#        1.0.3\Z-Stack 3.0.2\Projects\CC2530\..\..\Components\mac\include\" -I
#        "E:\ZLinker 1.0.3\Z-Stack
#        3.0.2\Projects\CC2530\..\..\Components\mac\high_level\" -I "E:\ZLinker
#        1.0.3\Z-Stack
#        3.0.2\Projects\CC2530\..\..\Components\mac\low_level\srf04\" -I
#        "E:\ZLinker 1.0.3\Z-Stack
#        3.0.2\Projects\CC2530\..\..\Components\mac\low_level\srf04\single_chip\"
#        -I "E:\ZLinker 1.0.3\Z-Stack
#        3.0.2\Projects\CC2530\..\..\Components\mt\" -I "E:\ZLinker
#        1.0.3\Z-Stack 3.0.2\Projects\CC2530\..\..\Components\osal\include\" -I
#        "E:\ZLinker 1.0.3\Z-Stack
#        3.0.2\Projects\CC2530\..\..\Components\services\saddr\" -I "E:\ZLinker
#        1.0.3\Z-Stack 3.0.2\Projects\CC2530\..\..\Components\services\sdata\"
#        -I "E:\ZLinker 1.0.3\Z-Stack
#        3.0.2\Projects\CC2530\..\..\Components\stack\af\" -I "E:\ZLinker
#        1.0.3\Z-Stack 3.0.2\Projects\CC2530\..\..\Components\stack\bdb\" -I
#        "E:\ZLinker 1.0.3\Z-Stack
#        3.0.2\Projects\CC2530\..\..\Components\stack\gp\" -I "E:\ZLinker
#        1.0.3\Z-Stack 3.0.2\Projects\CC2530\..\..\Components\stack\nwk\" -I
#        "E:\ZLinker 1.0.3\Z-Stack
#        3.0.2\Projects\CC2530\..\..\Components\stack\sapi\" -I "E:\ZLinker
#        1.0.3\Z-Stack 3.0.2\Projects\CC2530\..\..\Components\stack\sec\" -I
#        "E:\ZLinker 1.0.3\Z-Stack
#        3.0.2\Projects\CC2530\..\..\Components\stack\sys\" -I "E:\ZLinker
#        1.0.3\Z-Stack 3.0.2\Projects\CC2530\..\..\Components\stack\zcl\" -I
#        "E:\ZLinker 1.0.3\Z-Stack
#        3.0.2\Projects\CC2530\..\..\Components\stack\zdo\" -I "E:\ZLinker
#        1.0.3\Z-Stack 3.0.2\Projects\CC2530\..\..\Components\zmac\" -I
#        "E:\ZLinker 1.0.3\Z-Stack
#        3.0.2\Projects\CC2530\..\..\Components\zmac\f8w\" -I "E:\ZLinker
#        1.0.3\Z-Stack 3.0.2\Projects\CC2530\..\..\Applications\" -Ohz
#        --require_prototypes)
#    Locale             =  Chinese (Simplified)_China.936
#    List file          =  
#        E:\ZLinker 1.0.3\Z-Stack
#        3.0.2\Projects\CC2530\Category\Router\List\hal_peris.lst
#    Object file        =  
#        E:\ZLinker 1.0.3\Z-Stack
#        3.0.2\Projects\CC2530\Category\Router\Obj\hal_peris.r51
#
###############################################################################

E:\ZLinker 1.0.3\Z-Stack 3.0.2\Components\hal\userspace\hal_peris.c
      1          #include "hal_peris.h"
      2          
      3          #include "cc2530_ioctl.h"

   \                                 In  segment SFR_AN, at 0x90
   \   union <unnamed> volatile __sfr _A_P1
   \                     _A_P1:
   \   000000                DS 1

   \                                 In  segment SFR_AN, at 0xf4
   \   unsigned char volatile __sfr P1SEL
   \                     P1SEL:
   \   000000                DS 1

   \                                 In  segment SFR_AN, at 0xfe
   \   unsigned char volatile __sfr P1DIR
   \                     P1DIR:
   \   000000                DS 1
      4          
      5          #define HAL_PERIS_MOTOR_PORT    1
      6          
      7          #define HAL_PERIS_MOTOR_PIN1    1
      8          #define HAL_PERIS_MOTOR_PIN2    2
      9          #define HAL_PERIS_MOTOR_PIN3    3
     10          #define HAL_PERIS_MOTOR_PIN4    7
     11          
     12          #define HAL_PERIS_MOTOR_STOP(port, pin)     CC2530_GPIO_CLEAR(port, pin)
     13          #define HAL_PERIS_MOTOR_START(port, pin)    CC2530_GPIO_SET(port, pin)
     14          
     15          static void hal_peris_delay_ms(unsigned int n);
     16          
     17          static void hal_peris_motor_init(void);
     18          static void hal_peris_motor_run(unsigned char flag);
     19          static void hal_peris_motor_turns(unsigned char is_forward, unsigned char laps);
     20          

   \                                 In  segment BANKED_CODE, align 1, keep-with-next
     21          void hal_peris_init()
   \                     hal_peris_init:
     22          {
   \   000000                ; Saved register size: 0
   \   000000                ; Auto size: 0
     23              hal_peris_motor_init();
   \   000000   43FE02       ORL       0xfe,#0x2
   \   000003   53F4FD       ANL       0xf4,#0xfd
   \   000006   43FE04       ORL       0xfe,#0x4
   \   000009   53F4FB       ANL       0xf4,#0xfb
   \   00000C   43FE08       ORL       0xfe,#0x8
   \   00000F   53F4F7       ANL       0xf4,#0xf7
   \   000012   43FE80       ORL       0xfe,#0x80
   \   000015   53F47F       ANL       0xf4,#0x7f
   \   000018   C291         CLR       0x90.1
   \   00001A   C292         CLR       0x90.2
   \   00001C   C293         CLR       0x90.3
   \   00001E   C297         CLR       0x90.7
     24          }
   \   000020   02....       LJMP      ?BRET
   \   000023                REQUIRE P1DIR
   \   000023                REQUIRE P1SEL
   \   000023                REQUIRE _A_P1
     25          

   \                                 In  segment BANKED_CODE, align 1, keep-with-next
     26          void hal_peris_motor_forward(unsigned char laps)
   \                     hal_peris_motor_forward:
     27          {
   \   000000   74F7         MOV       A,#-0x9
   \   000002   12....       LCALL     ?BANKED_ENTER_XDATA
   \   000005                ; Saved register size: 9
   \   000005                ; Auto size: 0
   \   000005   E9           MOV       A,R1
     28              hal_peris_motor_turns(1, laps);
   \   000006                ; Setup parameters for call to function hal_peris_motor_turns
   \   000006   FA           MOV       R2,A
   \   000007   7901         MOV       R1,#0x1
   \   000009                REQUIRE ?Subroutine0
   \   000009                ; // Fall through to label ?Subroutine0
     29          }

   \                                 In  segment BANKED_CODE, align 1, keep-with-next
   \                     ?Subroutine0:
   \   000000   12....       LCALL     `??hal_peris_motor_turns::?relay`; Banked call to: hal_peris_motor_turns
   \   000003   7F01         MOV       R7,#0x1
   \   000005   02....       LJMP      ?BANKED_LEAVE_XDATA
     30          

   \                                 In  segment BANKED_CODE, align 1, keep-with-next
     31          void hal_peris_motor_reverse(unsigned char laps)
   \                     hal_peris_motor_reverse:
     32          {
   \   000000   74F7         MOV       A,#-0x9
   \   000002   12....       LCALL     ?BANKED_ENTER_XDATA
   \   000005                ; Saved register size: 9
   \   000005                ; Auto size: 0
   \   000005   E9           MOV       A,R1
     33              hal_peris_motor_turns(0, laps);
   \   000006                ; Setup parameters for call to function hal_peris_motor_turns
   \   000006   FA           MOV       R2,A
   \   000007   7900         MOV       R1,#0x0
   \   000009   80..         SJMP      ?Subroutine0
     34          }
     35          
     36          #pragma optimize=none

   \                                 In  segment BANKED_CODE, align 1, keep-with-next
     37          void hal_peris_delay_ms(unsigned int n)
   \                     hal_peris_delay_ms:
     38          {
   \   000000                ; Saved register size: 0
   \   000000                ; Auto size: 0
     39              unsigned int i, j;
     40          
     41              for(i = 0; i < n; i++) for(j = 0; j < 1070; j++);
   \   000000   7C00         MOV       R4,#0x0
   \   000002   7D00         MOV       R5,#0x0
   \                     ??hal_peris_delay_ms_0:
   \   000004   C3           CLR       C
   \   000005   EC           MOV       A,R4
   \   000006   9A           SUBB      A,R2
   \   000007   ED           MOV       A,R5
   \   000008   9B           SUBB      A,R3
   \   000009   501B         JNC       ??hal_peris_delay_ms_1
   \   00000B   7800         MOV       R0,#0x0
   \   00000D   7900         MOV       R1,#0x0
   \                     ??hal_peris_delay_ms_2:
   \   00000F   C3           CLR       C
   \   000010   E8           MOV       A,R0
   \   000011   942E         SUBB      A,#0x2e
   \   000013   E9           MOV       A,R1
   \   000014   9404         SUBB      A,#0x4
   \   000016   5007         JNC       ??hal_peris_delay_ms_3
   \   000018   08           INC       R0
   \   000019   E8           MOV       A,R0
   \   00001A   70F3         JNZ       ??hal_peris_delay_ms_2
   \   00001C   09           INC       R1
   \   00001D   80F0         SJMP      ??hal_peris_delay_ms_2
   \                     ??hal_peris_delay_ms_3:
   \   00001F   0C           INC       R4
   \   000020   EC           MOV       A,R4
   \   000021   70E1         JNZ       ??hal_peris_delay_ms_0
   \   000023   0D           INC       R5
   \   000024   80DE         SJMP      ??hal_peris_delay_ms_0
     42          }
   \                     ??hal_peris_delay_ms_1:
   \   000026   02....       LJMP      ?BRET
     43          
     44          void hal_peris_motor_init()
     45          {
     46              CC2530_IO_OUTPUT(HAL_PERIS_MOTOR_PORT, HAL_PERIS_MOTOR_PIN1);
     47              CC2530_IO_OUTPUT(HAL_PERIS_MOTOR_PORT, HAL_PERIS_MOTOR_PIN2);
     48              CC2530_IO_OUTPUT(HAL_PERIS_MOTOR_PORT, HAL_PERIS_MOTOR_PIN3);
     49              CC2530_IO_OUTPUT(HAL_PERIS_MOTOR_PORT, HAL_PERIS_MOTOR_PIN4);
     50          
     51              HAL_PERIS_MOTOR_STOP(HAL_PERIS_MOTOR_PORT, HAL_PERIS_MOTOR_PIN1);
     52              HAL_PERIS_MOTOR_STOP(HAL_PERIS_MOTOR_PORT, HAL_PERIS_MOTOR_PIN2);
     53              HAL_PERIS_MOTOR_STOP(HAL_PERIS_MOTOR_PORT, HAL_PERIS_MOTOR_PIN3);
     54              HAL_PERIS_MOTOR_STOP(HAL_PERIS_MOTOR_PORT, HAL_PERIS_MOTOR_PIN4);
     55          }
     56          

   \                                 In  segment BANKED_CODE, align 1, keep-with-next
     57          void hal_peris_motor_run(unsigned char flag)
   \                     hal_peris_motor_run:
     58          {
   \   000000                ; Saved register size: 0
   \   000000                ; Auto size: 0
     59              if (flag & 0x80) HAL_PERIS_MOTOR_START(HAL_PERIS_MOTOR_PORT, HAL_PERIS_MOTOR_PIN1);
   \   000000   E9           MOV       A,R1
   \   000001   A2E7         MOV       C,0xE0 /* A   */.7
   \   000003   5004         JNC       ??hal_peris_motor_run_0
   \   000005   D291         SETB      0x90.1
   \   000007   8002         SJMP      ??hal_peris_motor_run_1
     60              else HAL_PERIS_MOTOR_STOP(HAL_PERIS_MOTOR_PORT, HAL_PERIS_MOTOR_PIN1);
   \                     ??hal_peris_motor_run_0:
   \   000009   C291         CLR       0x90.1
     61          
     62              if (flag & 0x40) HAL_PERIS_MOTOR_START(HAL_PERIS_MOTOR_PORT, HAL_PERIS_MOTOR_PIN2);
   \                     ??hal_peris_motor_run_1:
   \   00000B   A2E6         MOV       C,0xE0 /* A   */.6
   \   00000D   5004         JNC       ??hal_peris_motor_run_2
   \   00000F   D292         SETB      0x90.2
   \   000011   8002         SJMP      ??hal_peris_motor_run_3
     63              else HAL_PERIS_MOTOR_STOP(HAL_PERIS_MOTOR_PORT, HAL_PERIS_MOTOR_PIN2);
   \                     ??hal_peris_motor_run_2:
   \   000013   C292         CLR       0x90.2
     64          
     65              if (flag & 0x20) HAL_PERIS_MOTOR_START(HAL_PERIS_MOTOR_PORT, HAL_PERIS_MOTOR_PIN3);
   \                     ??hal_peris_motor_run_3:
   \   000015   A2E5         MOV       C,0xE0 /* A   */.5
   \   000017   5004         JNC       ??hal_peris_motor_run_4
   \   000019   D293         SETB      0x90.3
   \   00001B   8002         SJMP      ??hal_peris_motor_run_5
     66              else HAL_PERIS_MOTOR_STOP(HAL_PERIS_MOTOR_PORT, HAL_PERIS_MOTOR_PIN3);
   \                     ??hal_peris_motor_run_4:
   \   00001D   C293         CLR       0x90.3
     67          
     68              if (flag & 0x10) HAL_PERIS_MOTOR_START(HAL_PERIS_MOTOR_PORT, HAL_PERIS_MOTOR_PIN4);
   \                     ??hal_peris_motor_run_5:
   \   00001F   A2E4         MOV       C,0xE0 /* A   */.4
   \   000021   5004         JNC       ??hal_peris_motor_run_6
   \   000023   D297         SETB      0x90.7
   \   000025   8002         SJMP      ??hal_peris_motor_run_7
     69              else HAL_PERIS_MOTOR_STOP(HAL_PERIS_MOTOR_PORT, HAL_PERIS_MOTOR_PIN4);
   \                     ??hal_peris_motor_run_6:
   \   000027   C297         CLR       0x90.7
     70          }
   \                     ??hal_peris_motor_run_7:
   \   000029   02....       LJMP      ?BRET
   \   00002C                REQUIRE _A_P1
     71          

   \                                 In  segment BANKED_CODE, align 1, keep-with-next
     72          void hal_peris_motor_turns(unsigned char is_forward, unsigned char laps)
   \                     hal_peris_motor_turns:
     73          {
   \   000000                REQUIRE ?V0
   \   000000                REQUIRE ?V1
   \   000000                REQUIRE ?V2
   \   000000                REQUIRE ?V3
   \   000000                REQUIRE ?V4
   \   000000                REQUIRE ?V5
   \   000000   74F2         MOV       A,#-0xe
   \   000002   12....       LCALL     ?BANKED_ENTER_XDATA
   \   000005                ; Saved register size: 14
   \   000005                ; Auto size: 8
   \   000005   74F8         MOV       A,#-0x8
   \   000007   12....       LCALL     ?ALLOC_XSTACK8
   \   00000A   89..         MOV       ?V4,R1
     74              unsigned char sequence[8] = {0x80, 0xc0, 0x40, 0x60, 0x20, 0x30, 0x10, 0x90};
   \   00000C   90....       MOV       DPTR,#`?<Constant {128, 192, 64, 96, 32, 48, 16, 144}`
   \   00000F   AC..         MOV       R4,?XSP + 0
   \   000011   AD..         MOV       R5,?XSP + 1
   \   000013   7408         MOV       A,#0x8
   \   000015   12....       LCALL     ?MOVE_LONG8_XDATA_XDATA
     75          
     76              int j;
     77              unsigned int i;
     78          
     79              unsigned int counter = (unsigned int)laps * 8 * 64;
   \   000018   EA           MOV       A,R2
   \   000019   F5..         MOV       ?V0,A
   \   00001B   75..00       MOV       ?V1,#0x0
   \   00001E   7409         MOV       A,#0x9
   \   000020   78..         MOV       R0,#?V0
   \   000022   12....       LCALL     ?S_SHL
   \   000025   85....       MOV       ?V3,?V1
     80          
     81              for (i = 0; i < counter; i++) {
   \   000028   F5..         MOV       ?V1,A
   \   00002A   801B         SJMP      ??hal_peris_motor_turns_0
     82                  if (is_forward != 0) for (j = 0; j < 8; j++) {
     83                      hal_peris_motor_run(sequence[i]);
     84                      hal_peris_delay_ms(10);
     85                  }
     86                  else for (j = 7; j >= 0; j--) {
     87                      hal_peris_motor_run(sequence[i]);
   \                     ??hal_peris_motor_turns_1:
   \   00002C                ; Setup parameters for call to function hal_peris_motor_run
   \   00002C   EE           MOV       A,R6
   \   00002D   F9           MOV       R1,A
   \   00002E   12....       LCALL     `??hal_peris_motor_run::?relay`; Banked call to: hal_peris_motor_run
     88                      hal_peris_delay_ms(10);
   \   000031                ; Setup parameters for call to function hal_peris_delay_ms
   \   000031   7A0A         MOV       R2,#0xa
   \   000033   7B00         MOV       R3,#0x0
   \   000035   12....       LCALL     `??hal_peris_delay_ms::?relay`; Banked call to: hal_peris_delay_ms
     89                  }
   \   000038   DFF2         DJNZ      R7,??hal_peris_motor_turns_1
     90          
     91                  hal_peris_motor_run(0);
   \                     ??hal_peris_motor_turns_2:
   \   00003A                ; Setup parameters for call to function hal_peris_motor_run
   \   00003A   7900         MOV       R1,#0x0
   \   00003C   12....       LCALL     `??hal_peris_motor_run::?relay`; Banked call to: hal_peris_motor_run
   \   00003F   05..         INC       ?V0
   \   000041   E5..         MOV       A,?V0
   \   000043   7002         JNZ       ??hal_peris_motor_turns_0
   \   000045   05..         INC       ?V1
   \                     ??hal_peris_motor_turns_0:
   \   000047   C3           CLR       C
   \   000048   E5..         MOV       A,?V1
   \   00004A   95..         SUBB      A,?V3
   \   00004C   502A         JNC       ??hal_peris_motor_turns_3
   \   00004E   85..82       MOV       DPL,?XSP + 0
   \   000051   85..83       MOV       DPH,?XSP + 1
   \   000054   E582         MOV       A,DPL
   \   000056   25..         ADD       A,?V0
   \   000058   F582         MOV       DPL,A
   \   00005A   E583         MOV       A,DPH
   \   00005C   35..         ADDC      A,?V1
   \   00005E   F583         MOV       DPH,A
   \   000060   E0           MOVX      A,@DPTR
   \   000061   FE           MOV       R6,A
   \   000062   E5..         MOV       A,?V4
   \   000064   7F08         MOV       R7,#0x8
   \   000066   60C4         JZ        ??hal_peris_motor_turns_1
   \                     ??hal_peris_motor_turns_4:
   \   000068                ; Setup parameters for call to function hal_peris_motor_run
   \   000068   EE           MOV       A,R6
   \   000069   F9           MOV       R1,A
   \   00006A   12....       LCALL     `??hal_peris_motor_run::?relay`; Banked call to: hal_peris_motor_run
   \   00006D                ; Setup parameters for call to function hal_peris_delay_ms
   \   00006D   7A0A         MOV       R2,#0xa
   \   00006F   7B00         MOV       R3,#0x0
   \   000071   12....       LCALL     `??hal_peris_delay_ms::?relay`; Banked call to: hal_peris_delay_ms
   \   000074   DFF2         DJNZ      R7,??hal_peris_motor_turns_4
   \   000076   80C2         SJMP      ??hal_peris_motor_turns_2
     92              }
     93          }
   \                     ??hal_peris_motor_turns_3:
   \   000078   7408         MOV       A,#0x8
   \   00007A   12....       LCALL     ?DEALLOC_XSTACK8
   \   00007D   7F06         MOV       R7,#0x6
   \   00007F   02....       LJMP      ?BANKED_LEAVE_XDATA

   \                                 In  segment BANK_RELAYS, align 1
   \                     `??hal_peris_init::?relay`:
   \   000000   12....       LCALL   ?BDISPATCH
   \   000003   ......       DC24    hal_peris_init

   \                                 In  segment BANK_RELAYS, align 1
   \                     `??hal_peris_motor_forward::?relay`:
   \   000000   12....       LCALL   ?BDISPATCH
   \   000003   ......       DC24    hal_peris_motor_forward

   \                                 In  segment BANK_RELAYS, align 1
   \                     `??hal_peris_motor_reverse::?relay`:
   \   000000   12....       LCALL   ?BDISPATCH
   \   000003   ......       DC24    hal_peris_motor_reverse

   \                                 In  segment BANK_RELAYS, align 1
   \                     `??hal_peris_delay_ms::?relay`:
   \   000000   12....       LCALL   ?BDISPATCH
   \   000003   ......       DC24    hal_peris_delay_ms

   \                                 In  segment BANK_RELAYS, align 1
   \                     `??hal_peris_motor_run::?relay`:
   \   000000   12....       LCALL   ?BDISPATCH
   \   000003   ......       DC24    hal_peris_motor_run

   \                                 In  segment BANK_RELAYS, align 1
   \                     `??hal_peris_motor_turns::?relay`:
   \   000000   12....       LCALL   ?BDISPATCH
   \   000003   ......       DC24    hal_peris_motor_turns

   \                                 In  segment XDATA_ROM_C, align 1
   \                     `?<Constant {128, 192, 64, 96, 32, 48, 16, 144}`:
   \   000000   80           DB 128
   \   000001   C0           DB 192
   \   000002   40           DB 64
   \   000003   60           DB 96
   \   000004   20           DB 32
   \   000005   30           DB 48
   \   000006   10           DB 16
   \   000007   90           DB 144

   Maximum stack usage in bytes:

   XSTACK Function
   ------ --------
     22   hal_peris_delay_ms
      0   hal_peris_init
      9   hal_peris_motor_forward
        9   -> hal_peris_motor_turns
      9   hal_peris_motor_reverse
        9   -> hal_peris_motor_turns
     22   hal_peris_motor_run
     31   hal_peris_motor_turns
       22   -> hal_peris_delay_ms
       22   -> hal_peris_motor_run


   Segment part sizes:

   Bytes  Function/Label
   -----  --------------
       8  ?<Constant {128, 192, 64, 96, 32, 48, 16, 144}
       8  ?Subroutine0
       1  P1DIR
       1  P1SEL
       1  _A_P1
      41  hal_peris_delay_ms
       6  hal_peris_delay_ms::?relay
      35  hal_peris_init
       6  hal_peris_init::?relay
       9  hal_peris_motor_forward
       6  hal_peris_motor_forward::?relay
      11  hal_peris_motor_reverse
       6  hal_peris_motor_reverse::?relay
      44  hal_peris_motor_run
       6  hal_peris_motor_run::?relay
     130  hal_peris_motor_turns
       6  hal_peris_motor_turns::?relay

 
 278 bytes in segment BANKED_CODE
  36 bytes in segment BANK_RELAYS
   3 bytes in segment SFR_AN
   8 bytes in segment XDATA_ROM_C
 
  36 bytes of CODE     memory
   8 bytes of CONST    memory
   0 bytes of DATA     memory (+ 3 bytes shared)
 278 bytes of HUGECODE memory

Errors: none
Warnings: none
