###############################################################################
#
# IAR C/C++ Compiler V10.10.1.4655 for 8051               08/Apr/2021  22:48:49
# Copyright 2004-2017 IAR Systems AB.
# Standalone license - IAR Embedded Workbench for 8051
#
#    Core               =  plain
#    Code model         =  banked
#    Data model         =  large
#    Calling convention =  xdata reentrant
#    Constant location  =  data_rom
#    Dptr setup         =  1,16
#                          
#    Source file        =  
#        E:\ZLinker 1.0.3\Z-Stack 3.0.2\Components\mt\MT_APP_CONFIG.c
#    Command line       =  
#        -f C:\Users\Michael\AppData\Local\Temp\EWF51B.tmp ("E:\ZLinker
#        1.0.3\Z-Stack 3.0.2\Components\mt\MT_APP_CONFIG.c" -D SECURE=1 -D
#        TC_LINKKEY_JOIN -D NV_INIT -D NV_RESTORE -D xZTOOL_P1 -D xMT_TASK -D
#        xMT_APP_FUNC -D xMT_SYS_FUNC -D xMT_ZDO_FUNC -D xMT_ZDO_MGMT -D
#        xMT_APP_CNF_FUNC -D LCD_SUPPORTED=DEBUG -D MULTICAST_ENABLED=FALSE -D
#        ZCL_READ -D ZCL_DISCOVER -D ZCL_WRITE -D ZCL_BASIC -D ZCL_IDENTIFY -D
#        ZCL_ON_OFF -D ZCL_GROUPS -D ZCL_LEVEL_CTRL -D HAL_KEY=TRUE -D
#        ISR_KEYINTERRUPT -D HAL_LCD=TRUE -D HAL_ADC=TRUE -D HAL_DHT11=TRUE -D
#        ZB_CONFIG_PA_ENABLE=TRUE -D TEST_RSSI=TRUE -lC "E:\ZLinker
#        1.0.3\Z-Stack 3.0.2\Projects\CC2530\Category\Router\List" -lA
#        "E:\ZLinker 1.0.3\Z-Stack 3.0.2\Projects\CC2530\Category\Router\List"
#        --diag_suppress Pe001,Pa010 -o "E:\ZLinker 1.0.3\Z-Stack
#        3.0.2\Projects\CC2530\Category\Router\Obj" -e --debug --core=plain
#        --dptr=16,1 --data_model=large --code_model=banked
#        --calling_convention=xdata_reentrant --place_constants=data_rom
#        --nr_virtual_regs 16 -f "E:\ZLinker 1.0.3\Z-Stack
#        3.0.2\Projects\CC2530\Tools\f8wRouter.cfg" (-DCPU32MHZ
#        -DROOT=__near_func -DMAC_CFG_APP_PENDING_QUEUE=TRUE
#        -DMAC_CFG_TX_DATA_MAX=5 -DMAC_CFG_TX_MAX=8 -DMAC_CFG_RX_MAX=5
#        -DRTR_NWK) -f "E:\ZLinker 1.0.3\Z-Stack
#        3.0.2\Projects\CC2530\Tools\f8wConfig.cfg" (-DZIGBEEPRO -DSECURE=1
#        -DZG_SECURE_DYNAMIC=0 -DREFLECTOR -DDEFAULT_CHANLIST=0x00000800
#        -DZDAPP_CONFIG_PAN_ID=0xFFFF -DNWK_START_DELAY=100
#        -DEXTENDED_JOINING_RANDOM_MASK=0x007F -DBEACON_REQUEST_DELAY=100
#        -DBEACON_REQ_DELAY_MASK=0x00FF -DLINK_STATUS_JITTER_MASK=0x007F
#        -DROUTE_EXPIRY_TIME=30 -DAPSC_ACK_WAIT_DURATION_POLLED=3000
#        -DNWK_INDIRECT_MSG_TIMEOUT=7 -DMAX_RREQ_ENTRIES=8
#        -DAPSC_MAX_FRAME_RETRIES=3 -DNWK_MAX_DATA_RETRIES=2
#        -DMAX_POLL_FAILURE_RETRIES=2 -DMAX_BCAST=9 -DAPS_MAX_GROUPS=16
#        -DMAX_RTG_ENTRIES=40 -DNWK_MAX_BINDING_ENTRIES=4
#        -DMAX_BINDING_CLUSTER_IDS=4 -DDEFAULT_KEY={0} -DMAC_MAX_FRAME_SIZE=116
#        -DZDNWKMGR_MIN_TRANSMISSIONS=20 "-DCONST=const __code"
#        -DGENERIC=__generic -DRFD_RCVC_ALWAYS_ON=FALSE -DPOLL_RATE=1000
#        -DQUEUED_POLL_RATE=100 -DRESPONSE_POLL_RATE=100 -DREJOIN_POLL_RATE=440
#        -DREJOIN_BACKOFF=900000 -DREJOIN_SCAN=900000 -DENABLE_LED4_DISABLE_S1)
#        -f "E:\ZLinker 1.0.3\Z-Stack 3.0.2\Projects\CC2530\Tools\f8wZCL.cfg"
#        -I "E:\ZLinker 1.0.3\Z-Stack 3.0.2\Projects\CC2530\" -I "E:\ZLinker
#        1.0.3\Z-Stack 3.0.2\Projects\CC2530\..\..\Components\hal\include\" -I
#        "E:\ZLinker 1.0.3\Z-Stack
#        3.0.2\Projects\CC2530\..\..\Components\hal\target\CC2530EB\" -I
#        "E:\ZLinker 1.0.3\Z-Stack
#        3.0.2\Projects\CC2530\..\..\Components\hal\userspace\" -I "E:\ZLinker
#        1.0.3\Z-Stack 3.0.2\Projects\CC2530\..\..\Components\mac\include\" -I
#        "E:\ZLinker 1.0.3\Z-Stack
#        3.0.2\Projects\CC2530\..\..\Components\mac\high_level\" -I "E:\ZLinker
#        1.0.3\Z-Stack
#        3.0.2\Projects\CC2530\..\..\Components\mac\low_level\srf04\" -I
#        "E:\ZLinker 1.0.3\Z-Stack
#        3.0.2\Projects\CC2530\..\..\Components\mac\low_level\srf04\single_chip\"
#        -I "E:\ZLinker 1.0.3\Z-Stack
#        3.0.2\Projects\CC2530\..\..\Components\mt\" -I "E:\ZLinker
#        1.0.3\Z-Stack 3.0.2\Projects\CC2530\..\..\Components\osal\include\" -I
#        "E:\ZLinker 1.0.3\Z-Stack
#        3.0.2\Projects\CC2530\..\..\Components\services\saddr\" -I "E:\ZLinker
#        1.0.3\Z-Stack 3.0.2\Projects\CC2530\..\..\Components\services\sdata\"
#        -I "E:\ZLinker 1.0.3\Z-Stack
#        3.0.2\Projects\CC2530\..\..\Components\stack\af\" -I "E:\ZLinker
#        1.0.3\Z-Stack 3.0.2\Projects\CC2530\..\..\Components\stack\bdb\" -I
#        "E:\ZLinker 1.0.3\Z-Stack
#        3.0.2\Projects\CC2530\..\..\Components\stack\gp\" -I "E:\ZLinker
#        1.0.3\Z-Stack 3.0.2\Projects\CC2530\..\..\Components\stack\nwk\" -I
#        "E:\ZLinker 1.0.3\Z-Stack
#        3.0.2\Projects\CC2530\..\..\Components\stack\sapi\" -I "E:\ZLinker
#        1.0.3\Z-Stack 3.0.2\Projects\CC2530\..\..\Components\stack\sec\" -I
#        "E:\ZLinker 1.0.3\Z-Stack
#        3.0.2\Projects\CC2530\..\..\Components\stack\sys\" -I "E:\ZLinker
#        1.0.3\Z-Stack 3.0.2\Projects\CC2530\..\..\Components\stack\zcl\" -I
#        "E:\ZLinker 1.0.3\Z-Stack
#        3.0.2\Projects\CC2530\..\..\Components\stack\zdo\" -I "E:\ZLinker
#        1.0.3\Z-Stack 3.0.2\Projects\CC2530\..\..\Components\zmac\" -I
#        "E:\ZLinker 1.0.3\Z-Stack
#        3.0.2\Projects\CC2530\..\..\Components\zmac\f8w\" -I "E:\ZLinker
#        1.0.3\Z-Stack 3.0.2\Projects\CC2530\..\..\Applications\" -Ohz
#        --require_prototypes)
#    Locale             =  Chinese (Simplified)_China.936
#    List file          =  
#        E:\ZLinker 1.0.3\Z-Stack
#        3.0.2\Projects\CC2530\Category\Router\List\MT_APP_CONFIG.lst
#    Object file        =  
#        E:\ZLinker 1.0.3\Z-Stack
#        3.0.2\Projects\CC2530\Category\Router\Obj\MT_APP_CONFIG.r51
#
###############################################################################

E:\ZLinker 1.0.3\Z-Stack 3.0.2\Components\mt\MT_APP_CONFIG.c
      1          /***************************************************************************************************
      2            Filename:       MT_APP_CONFIG.c
      3            Revised:        $Date: 2016-03-31 01:06:52 -0700 (Thu, 31 Marc 2016) $
      4            Revision:       $Revision:  $
      5          
      6            Description:    MonitorTest functions for application configuration.
      7          
      8            Copyright 2007-2013 Texas Instruments Incorporated. All rights reserved.
      9          
     10            IMPORTANT: Your use of this Software is limited to those specific rights
     11            granted under the terms of a software license agreement between the user
     12            who downloaded the software, his/her employer (which must be your employer)
     13            and Texas Instruments Incorporated (the "License"). You may not use this
     14            Software unless you agree to abide by the terms of the License. The License
     15            limits your use, and you acknowledge, that the Software may not be modified,
     16            copied or distributed unless embedded on a Texas Instruments microcontroller
     17            or used solely and exclusively in conjunction with a Texas Instruments radio
     18            frequency transceiver, which is integrated into your product. Other than for
     19            the foregoing purpose, you may not use, reproduce, copy, prepare derivative
     20            works of, modify, distribute, perform, display or sell this Software and/or
     21            its documentation for any purpose.
     22          
     23            YOU FURTHER ACKNOWLEDGE AND AGREE THAT THE SOFTWARE AND DOCUMENTATION ARE
     24            PROVIDED ?AS IS? WITHOUT WARRANTY OF ANY KIND, EITHER EXPRESS OR IMPLIED,
     25            INCLUDING WITHOUT LIMITATION, ANY WARRANTY OF MERCHANTABILITY, TITLE,
     26            NON-INFRINGEMENT AND FITNESS FOR A PARTICULAR PURPOSE. IN NO EVENT SHALL
     27            TEXAS INSTRUMENTS OR ITS LICENSORS BE LIABLE OR OBLIGATED UNDER CONTRACT,
     28            NEGLIGENCE, STRICT LIABILITY, CONTRIBUTION, BREACH OF WARRANTY, OR OTHER
     29            LEGAL EQUITABLE THEORY ANY DIRECT OR INDIRECT DAMAGES OR EXPENSES
     30            INCLUDING BUT NOT LIMITED TO ANY INCIDENTAL, SPECIAL, INDIRECT, PUNITIVE
     31            OR CONSEQUENTIAL DAMAGES, LOST PROFITS OR LOST DATA, COST OF PROCUREMENT
     32            OF SUBSTITUTE GOODS, TECHNOLOGY, SERVICES, OR ANY CLAIMS BY THIRD PARTIES
     33            (INCLUDING BUT NOT LIMITED TO ANY DEFENSE THEREOF), OR OTHER SIMILAR COSTS.
     34          
     35            Should you have any questions regarding your right to use this Software,
     36            contact Texas Instruments Incorporated at www.TI.com.
     37          
     38           ***************************************************************************************************/
     39          
     40          /***************************************************************************************************
     41           * INCLUDES
     42           ***************************************************************************************************/
     43           
     44           
     45          #include "ZComDef.h"
     46          #include "MT.h"
     47          #include "MT_APP_CONFIG.h"
     48          #include "MT_UART.h"
     49          
     50          #include "bdb.h"
     51          #include "bdb_interface.h"
     52          #include "ZDApp.h"
     53           
     54          /***************************************************************************************************
     55          * LOCAL FUNCTIONs
     56          ***************************************************************************************************/
     57             
     58          #if defined (MT_APP_CNF_FUNC)
     59          
     60          static void MT_AppCnfSetNwkFrameCounter(uint8 *pBuf);   
     61          static void MT_AppCnfSetDefaultRemoteEndDeviceTimeout(uint8 *pBuf);
     62          static void MT_AppCnfSetEndDeviceTimeout(uint8 *pBuf);
     63          #if (ZG_BUILD_COORDINATOR_TYPE)
     64          static void MT_AppCnfSetAllowRejoinTCPolicy(uint8 *pBuf);
     65          #endif
     66          
     67          static void MT_AppCnfBDBSetChannel(uint8* pBuf);
     68          static void MT_AppCnfBDBStartCommissioning(uint8* pBuf);
     69          #if (ZG_BUILD_COORDINATOR_TYPE)
     70              static void MT_AppCnfBDBSetTCRequireKeyExchange(uint8 *pBuf);
     71              static void MT_AppCnfBDBAddInstallCode(uint8 *pBuf);
     72              static void MT_AppCnfBDBSetJoinUsesInstallCodeKey(uint8 *pBuf);
     73          #endif
     74          #if (ZG_BUILD_JOINING_TYPE)
     75              static void MT_AppCnfBDBSetActiveCentralizedKey(uint8* pBuf);
     76          #endif
     77          
     78          #if (ZG_BUILD_ENDDEVICE_TYPE)    
     79              static void MT_AppCnfBDBZedAttemptRecoverNwk(uint8* pBuf);
     80          #endif
     81                
     82          #endif
     83          
     84          
     85          /***************************************************************************************************
     86          * External variables
     87          ***************************************************************************************************/
     88          extern uint32 nwkFrameCounter;
     89          extern uint16 nwkFrameCounterChanges;
     90          
     91          
     92          #if defined (MT_APP_CNF_FUNC)
     93          uint8 MT_AppCnfCommandProcessing(uint8 *pBuf)
     94          {
     95            uint8 status = MT_RPC_SUCCESS;
     96          
     97            switch (pBuf[MT_RPC_POS_CMD1])
     98            {
     99              case MT_APP_CNF_SET_NWK_FRAME_COUNTER:
    100                MT_AppCnfSetNwkFrameCounter(pBuf);
    101              break;
    102              case MT_APP_CNF_SET_DEFAULT_REMOTE_ENDDEVICE_TIMEOUT:
    103                MT_AppCnfSetDefaultRemoteEndDeviceTimeout(pBuf);
    104              break;
    105              case MT_APP_CNF_SET_ENDDEVICETIMEOUT:
    106                MT_AppCnfSetEndDeviceTimeout(pBuf);
    107              break;
    108          #if (ZG_BUILD_COORDINATOR_TYPE)
    109              case MT_APP_CNF_SET_ALLOWREJOIN_TC_POLICY:
    110                MT_AppCnfSetAllowRejoinTCPolicy(pBuf);
    111              break;
    112          #endif
    113              
    114          
    115              case MT_APP_CNF_BDB_START_COMMISSIONING:
    116                MT_AppCnfBDBStartCommissioning(pBuf);
    117              break;
    118              case MT_APP_CNF_BDB_SET_CHANNEL:
    119                MT_AppCnfBDBSetChannel(pBuf);
    120              break;
    121          
    122          #if (ZG_BUILD_COORDINATOR_TYPE)
    123                case MT_APP_CNF_BDB_ADD_INSTALLCODE:
    124                  MT_AppCnfBDBAddInstallCode(pBuf);
    125                break;
    126                case MT_APP_CNF_BDB_SET_TC_REQUIRE_KEY_EXCHANGE:
    127                  MT_AppCnfBDBSetTCRequireKeyExchange(pBuf);
    128                break;
    129                case MT_APP_CNF_BDB_SET_JOINUSESINSTALLCODEKEY:
    130                  MT_AppCnfBDBSetJoinUsesInstallCodeKey(pBuf);
    131                break;
    132          #endif
    133          #if (ZG_BUILD_JOINING_TYPE)
    134                case MT_APP_CNF_BDB_SET_ACTIVE_DEFAULT_CENTRALIZED_KEY:
    135                  MT_AppCnfBDBSetActiveCentralizedKey(pBuf);
    136                break;
    137          #endif
    138                
    139          #if (ZG_BUILD_ENDDEVICE_TYPE)        
    140                case MT_APP_CNF_BDB_ZED_ATTEMPT_RECOVER_NWK:
    141                  MT_AppCnfBDBZedAttemptRecoverNwk(pBuf);
    142                break;
    143          #endif
    144          
    145            }
    146            return status;
    147          }
    148          
    149          
    150          /***************************************************************************************************
    151          * @fn      MT_AppCnfCommissioningNotification
    152          *
    153          * @brief   Notify the host processor about an event in BDB
    154          *
    155          * @param   bdbCommissioningModeMsg - Commissioning notification message
    156          *
    157          * @return  void
    158          ***************************************************************************************************/
    159          void MT_AppCnfCommissioningNotification(bdbCommissioningModeMsg_t* bdbCommissioningModeMsg)
    160          {
    161            uint8 retArray[3];
    162            
    163            retArray[0] = bdbCommissioningModeMsg->bdbCommissioningStatus;
    164            retArray[1] = bdbCommissioningModeMsg->bdbCommissioningMode;
    165            retArray[2] = bdbCommissioningModeMsg->bdbRemainingCommissioningModes;
    166          
    167            MT_BuildAndSendZToolResponse(((uint8)MT_RPC_CMD_AREQ | (uint8)MT_RPC_SYS_APP_CNF), MT_APP_CNF_BDB_COMMISSIONING_NOTIFICATION, sizeof(bdbCommissioningModeMsg_t), retArray);
    168          }
    169          
    170          
    171          /***************************************************************************************************
    172          * @fn      MT_AppCnfBDBStartCommissioning
    173          *
    174          * @brief   Start the commissioning process setting the commissioning mode given.
    175          *
    176          * @param   pBuf - pointer to received buffer
    177          *
    178          * @return  void
    179          ***************************************************************************************************/
    180          static void MT_AppCnfBDBStartCommissioning(uint8* pBuf)
    181          {
    182            uint8 retValue = ZSuccess;
    183            uint8 cmdId;
    184            
    185            /* parse header */
    186            cmdId = pBuf[MT_RPC_POS_CMD1];
    187            pBuf += MT_RPC_FRAME_HDR_SZ;
    188            
    189            bdb_StartCommissioning(*pBuf);
    190            
    191            /* Build and send back the response */
    192            MT_BuildAndSendZToolResponse(((uint8)MT_RPC_CMD_SRSP | (uint8)MT_RPC_SYS_APP_CNF), cmdId, 1, &retValue);
    193          }
    194          
    195          
    196          /***************************************************************************************************
    197          * @fn      MT_AppCnfBDBSetChannel
    198          *
    199          * @brief   Set the primary or seconday channel for discovery or formation procedure
    200          *
    201          * @param   pBuf - pointer to received buffer
    202          *
    203          * @return  void
    204          ***************************************************************************************************/
    205          static void MT_AppCnfBDBSetChannel(uint8* pBuf)
    206          {
    207            uint8 retValue = ZSuccess;
    208            uint8 cmdId;
    209            uint8 isPrimary;
    210            uint32 Channel;
    211            
    212            /* parse header */
    213            cmdId = pBuf[MT_RPC_POS_CMD1];
    214            pBuf += MT_RPC_FRAME_HDR_SZ;
    215            
    216            isPrimary = *pBuf;
    217            pBuf++;
    218            
    219            Channel = osal_build_uint32(pBuf, sizeof(uint32));
    220              
    221            bdb_setChannelAttribute(isPrimary,Channel);
    222            
    223            /* Build and send back the response */
    224            MT_BuildAndSendZToolResponse(((uint8)MT_RPC_CMD_SRSP | (uint8)MT_RPC_SYS_APP_CNF), cmdId, 1, &retValue);
    225          }
    226          
    227          
    228          
    229          #if (ZG_BUILD_COORDINATOR_TYPE)
    230          /*********************************************************************
    231           * @fn          MT_AppCnfBDBSetTCRequireKeyExchange
    232           *
    233           * @brief       Configure bdbTrustCenterRequireKeyExchange attribute.
    234           *
    235           * @param       Set attribute to FALSE if *pBuf == 0, FALSE otherwise
    236           *
    237           * @return      none
    238           */
    239          static void MT_AppCnfBDBSetTCRequireKeyExchange(uint8 *pBuf)
    240          {
    241            uint8 retValue = ZSuccess;
    242            uint8 cmdId;
    243            
    244            /* parse header */
    245            cmdId = pBuf[MT_RPC_POS_CMD1];
    246            pBuf += MT_RPC_FRAME_HDR_SZ;
    247            
    248            if(*pBuf)
    249            {
    250              bdb_setTCRequireKeyExchange(TRUE);
    251            }
    252            else
    253            {
    254              bdb_setTCRequireKeyExchange(FALSE);
    255            }
    256            /* Build and send back the response */
    257            MT_BuildAndSendZToolResponse(((uint8)MT_RPC_CMD_SRSP | (uint8)MT_RPC_SYS_APP_CNF), cmdId, 1, &retValue);
    258          }
    259          
    260           /*********************************************************************
    261           * @fn          MT_AppCnfBDBSetJoinUsesInstallCodeKey
    262           *
    263           * @brief       Configure bdbJoinUsesInstallCodeKey attribute.
    264           *
    265           * @param       Set attribute to FALSE if *pBuf == 0, FALSE otherwise
    266           *
    267           * @return      none
    268           */
    269          static void MT_AppCnfBDBSetJoinUsesInstallCodeKey(uint8 *pBuf)
    270          {
    271            uint8 retValue = ZSuccess;
    272            uint8 cmdId;
    273            
    274            /* parse header */
    275            cmdId = pBuf[MT_RPC_POS_CMD1];
    276            pBuf += MT_RPC_FRAME_HDR_SZ;
    277            
    278            if(*pBuf)
    279            {
    280              bdb_setJoinUsesInstallCodeKey(TRUE);
    281            }
    282            else
    283            {
    284              bdb_setJoinUsesInstallCodeKey(FALSE);
    285            }
    286            /* Build and send back the response */
    287            MT_BuildAndSendZToolResponse(((uint8)MT_RPC_CMD_SRSP | (uint8)MT_RPC_SYS_APP_CNF), cmdId, 1, &retValue);
    288          }
    289          
    290           /*********************************************************************
    291           * @fn          MT_AppCnfBDBAddInstallCode
    292           *
    293           * @brief       Add a preconfigured key used as IC derived key to TC device
    294           *              see formats allowed in BDB_INSTALL_CODE_USE.
    295           *
    296           * @param       pBuf - pointer to received buffer
    297           *
    298           * @return      none
    299           */
    300          static void MT_AppCnfBDBAddInstallCode(uint8* pBuf)
    301          {
    302            uint8 retValue = ZSuccess;
    303            uint8 cmdId;
    304            uint8 *pExtAddr;
    305            uint8 installCodeFormat;
    306            
    307            /* parse header */
    308            cmdId = pBuf[MT_RPC_POS_CMD1];
    309            pBuf += MT_RPC_FRAME_HDR_SZ;
    310            
    311            installCodeFormat = *pBuf;
    312            
    313            pBuf++;
    314            
    315            /* Extended Addr */
    316            pExtAddr = pBuf;
    317            pBuf += Z_EXTADDR_LEN;  //Point to the IC data
    318             
    319            switch(installCodeFormat)
    320            {
    321              case BDB_INSTALL_CODE_USE_IC_CRC:
    322                retValue = bdb_addInstallCode(pBuf,pExtAddr);
    323              break;
    324              case BDB_INSTALL_CODE_USE_KEY:
    325                retValue = APSME_AddTCLinkKey(pBuf,pExtAddr);
    326              break;
    327            }
    328            
    329            /* Build and send back the response */
    330            MT_BuildAndSendZToolResponse(((uint8)MT_RPC_CMD_SRSP | (uint8)MT_RPC_SYS_APP_CNF), cmdId, 1, &retValue);
    331          }
    332          #endif
    333          #if (ZG_BUILD_JOINING_TYPE)
    334          
    335           /*********************************************************************
    336           * @fn      MT_AppCnfBDBSetActiveCentralizedKey
    337           *
    338           * @brief   Set the active centralized key to be used.
    339           *
    340           * @param   pBuf - pointer to received buffer
    341           *
    342           * @return  void
    343           */
    344          static void MT_AppCnfBDBSetActiveCentralizedKey(uint8* pBuf)
    345          {
    346            uint8 retValue;
    347            uint8 cmdId;
    348            uint8 keyMode;
    349            
    350            /* parse header */
    351            cmdId = pBuf[MT_RPC_POS_CMD1];
    352            pBuf += MT_RPC_FRAME_HDR_SZ;
    353            
    354            //get the key mode
    355            keyMode = *pBuf;
    356            
    357            //point to the key input
    358            pBuf++;
    359          
    360            retValue = bdb_setActiveCentralizedLinkKey(keyMode,pBuf);
    361          
    362            /* Build and send back the response */
    363            MT_BuildAndSendZToolResponse(((uint8)MT_RPC_CMD_SRSP | (uint8)MT_RPC_SYS_APP_CNF), cmdId, 1, &retValue);
    364          }
    365          
    366          #endif //#if(ZG_BUILD_JOINING_TYPE)
    367          
    368          #if (ZG_BUILD_ENDDEVICE_TYPE) 
    369           /*********************************************************************
    370           * @fn      MT_AppCnfBDBZedAttemptRecoverNwk
    371           *
    372           * @brief   Instruct the ZED to try to rejoin its previews network
    373           *
    374           * @param   pBuf - pointer to received buffer
    375           *
    376           * @return  void
    377           */
    378          static void MT_AppCnfBDBZedAttemptRecoverNwk(uint8* pBuf)
    379          {
    380            uint8 retValue;
    381            uint8 cmdId;
    382            
    383            /* parse header */
    384            cmdId = pBuf[MT_RPC_POS_CMD1];
    385            pBuf += MT_RPC_FRAME_HDR_SZ;
    386            
    387            retValue = bdb_ZedAttemptRecoverNwk();
    388          
    389            /* Build and send back the response */
    390            MT_BuildAndSendZToolResponse(((uint8)MT_RPC_CMD_SRSP | (uint8)MT_RPC_SYS_APP_CNF), cmdId, 1, &retValue);
    391          }
    392          #endif
    393          
    394          
    395          
    396          
    397          #if (ZG_BUILD_COORDINATOR_TYPE)
    398          /***************************************************************************************************
    399          * @fn      MT_AppCnfSetAllowRejoinTCPolicy
    400          *
    401          * @brief   Set the AllowRejoin TC policy
    402          *
    403          * @param   pBuf - pointer to received buffer
    404          *
    405          * @return  void
    406          ***************************************************************************************************/
    407          static void MT_AppCnfSetAllowRejoinTCPolicy(uint8 *pBuf)
    408          {
    409            uint8 retValue = ZSuccess;
    410            uint8 cmdId;
    411          
    412            /* parse header */
    413            cmdId = pBuf[MT_RPC_POS_CMD1];
    414            pBuf += MT_RPC_FRAME_HDR_SZ;
    415           
    416            if(*pBuf)
    417            {
    418              zgAllowRejoins = TRUE;
    419            }
    420            else
    421            {
    422              zgAllowRejoins = FALSE;
    423            }
    424          
    425            /* Build and send back the response */
    426            MT_BuildAndSendZToolResponse(((uint8)MT_RPC_CMD_SRSP | (uint8)MT_RPC_SYS_APP_CNF), cmdId, 1, &retValue);
    427          }
    428          #endif
    429          
    430          /***************************************************************************************************
    431           * @fn      MT_AppCnfSetEndDeviceTimeout
    432           *
    433           * @brief   Set End Device Timeout
    434           *
    435           * @param   pBuf - pointer to received buffer
    436           *
    437           * @return  void
    438           ***************************************************************************************************/
    439          static void MT_AppCnfSetEndDeviceTimeout(uint8 *pBuf)
    440          {
    441            uint8 retValue = ZSuccess;
    442            uint8 cmdId;
    443            
    444            /* parse header */
    445            cmdId = pBuf[MT_RPC_POS_CMD1];
    446            pBuf += MT_RPC_FRAME_HDR_SZ;
    447          
    448            if(*pBuf > 14)
    449            {
    450              retValue = ZInvalidParameter;
    451            }
    452            else
    453            {
    454              /* Populate info */
    455              zgEndDeviceTimeoutValue = *pBuf;
    456              osal_nv_write( ZCD_NV_END_DEV_TIMEOUT_VALUE, 0, sizeof(zgEndDeviceTimeoutValue), &zgEndDeviceTimeoutValue);
    457            }
    458            /* Build and send back the response */
    459            MT_BuildAndSendZToolResponse(((uint8)MT_RPC_CMD_SRSP | (uint8)MT_RPC_SYS_APP_CNF), cmdId, 1, &retValue);
    460          }
    461            
    462          /***************************************************************************************************
    463           * @fn      MT_AppCnfSetDefaultRemoteEndDeviceTimeout
    464           *
    465           * @brief   Set Remote End Device Timeout
    466           *
    467           * @param   pBuf - pointer to received buffer
    468           *
    469           * @return  void
    470           ***************************************************************************************************/
    471          static void MT_AppCnfSetDefaultRemoteEndDeviceTimeout(uint8 *pBuf)
    472          {
    473            uint8 retValue = ZSuccess;
    474            uint8 cmdId;
    475            uint8  tempTimeoutIndex;
    476          
    477            /* parse header */
    478            cmdId = pBuf[MT_RPC_POS_CMD1];
    479            pBuf += MT_RPC_FRAME_HDR_SZ;
    480           
    481            /* Populate info */
    482            tempTimeoutIndex = *pBuf++;
    483            
    484            if(tempTimeoutIndex > 14)
    485            {
    486              retValue = ZInvalidParameter;
    487            }
    488            else
    489            {
    490              /* Populate info */
    491              zgNwkEndDeviceTimeoutDefault = tempTimeoutIndex;
    492              osal_nv_write( ZCD_NV_NWK_ENDDEV_TIMEOUT_DEF, 0, sizeof(zgNwkEndDeviceTimeoutDefault), &zgNwkEndDeviceTimeoutDefault );
    493            }
    494          
    495            /* Build and send back the response */
    496            MT_BuildAndSendZToolResponse(((uint8)MT_RPC_CMD_SRSP | (uint8)MT_RPC_SYS_APP_CNF), cmdId, 1, &retValue);
    497          }
    498          
    499           /***************************************************************************************************
    500           * @fn      MT_AppCnfSetNwkFrameCounter
    501           *
    502           * @brief   Set the nwk frame counter to the specified value for the current network.
    503           *          THIS IS ONLY A DEBUG INTERFACE AND SHOULD NOT BE USE IN REAL APPLICATIONS
    504           *
    505           * @param   pBuf - nwk frame counter
    506           *
    507           * @return  void
    508           ***************************************************************************************************/
    509           static void MT_AppCnfSetNwkFrameCounter(uint8* pBuf)
    510          {
    511            uint8 retValue = ZSuccess;
    512            uint8 cmdId;
    513          
    514            /* parse header */
    515            cmdId = pBuf[MT_RPC_POS_CMD1];
    516            pBuf += MT_RPC_FRAME_HDR_SZ;
    517          
    518            nwkFrameCounter = osal_build_uint32(pBuf, sizeof(uint32));
    519            nwkFrameCounterChanges = 0;
    520            
    521            //Save the NwkFrameCounter
    522            ZDApp_SaveNwkKey();
    523          
    524            /* Build and send back the response */
    525            MT_BuildAndSendZToolResponse(((uint8)MT_RPC_CMD_SRSP | (uint8)MT_RPC_SYS_APP_CNF), cmdId, 1, &retValue);
    526          }
    527          
    528          #endif
    529          


 

 


Errors: none
Warnings: none
