###############################################################################
#
# IAR C/C++ Compiler V10.10.1.4655 for 8051               08/Apr/2021  22:48:51
# Copyright 2004-2017 IAR Systems AB.
# Standalone license - IAR Embedded Workbench for 8051
#
#    Core               =  plain
#    Code model         =  banked
#    Data model         =  large
#    Calling convention =  xdata reentrant
#    Constant location  =  data_rom
#    Dptr setup         =  1,16
#                          
#    Source file        =  
#        E:\ZLinker 1.0.3\Z-Stack 3.0.2\Components\mt\MT_TASK.c
#    Command line       =  
#        -f C:\Users\Michael\AppData\Local\Temp\EWFD5F.tmp ("E:\ZLinker
#        1.0.3\Z-Stack 3.0.2\Components\mt\MT_TASK.c" -D SECURE=1 -D
#        TC_LINKKEY_JOIN -D NV_INIT -D NV_RESTORE -D xZTOOL_P1 -D xMT_TASK -D
#        xMT_APP_FUNC -D xMT_SYS_FUNC -D xMT_ZDO_FUNC -D xMT_ZDO_MGMT -D
#        xMT_APP_CNF_FUNC -D LCD_SUPPORTED=DEBUG -D MULTICAST_ENABLED=FALSE -D
#        ZCL_READ -D ZCL_DISCOVER -D ZCL_WRITE -D ZCL_BASIC -D ZCL_IDENTIFY -D
#        ZCL_ON_OFF -D ZCL_GROUPS -D ZCL_LEVEL_CTRL -D HAL_KEY=TRUE -D
#        ISR_KEYINTERRUPT -D HAL_LCD=TRUE -D HAL_ADC=TRUE -D HAL_DHT11=TRUE -D
#        ZB_CONFIG_PA_ENABLE=TRUE -D TEST_RSSI=TRUE -lC "E:\ZLinker
#        1.0.3\Z-Stack 3.0.2\Projects\CC2530\Category\Router\List" -lA
#        "E:\ZLinker 1.0.3\Z-Stack 3.0.2\Projects\CC2530\Category\Router\List"
#        --diag_suppress Pe001,Pa010 -o "E:\ZLinker 1.0.3\Z-Stack
#        3.0.2\Projects\CC2530\Category\Router\Obj" -e --debug --core=plain
#        --dptr=16,1 --data_model=large --code_model=banked
#        --calling_convention=xdata_reentrant --place_constants=data_rom
#        --nr_virtual_regs 16 -f "E:\ZLinker 1.0.3\Z-Stack
#        3.0.2\Projects\CC2530\Tools\f8wRouter.cfg" (-DCPU32MHZ
#        -DROOT=__near_func -DMAC_CFG_APP_PENDING_QUEUE=TRUE
#        -DMAC_CFG_TX_DATA_MAX=5 -DMAC_CFG_TX_MAX=8 -DMAC_CFG_RX_MAX=5
#        -DRTR_NWK) -f "E:\ZLinker 1.0.3\Z-Stack
#        3.0.2\Projects\CC2530\Tools\f8wConfig.cfg" (-DZIGBEEPRO -DSECURE=1
#        -DZG_SECURE_DYNAMIC=0 -DREFLECTOR -DDEFAULT_CHANLIST=0x00000800
#        -DZDAPP_CONFIG_PAN_ID=0xFFFF -DNWK_START_DELAY=100
#        -DEXTENDED_JOINING_RANDOM_MASK=0x007F -DBEACON_REQUEST_DELAY=100
#        -DBEACON_REQ_DELAY_MASK=0x00FF -DLINK_STATUS_JITTER_MASK=0x007F
#        -DROUTE_EXPIRY_TIME=30 -DAPSC_ACK_WAIT_DURATION_POLLED=3000
#        -DNWK_INDIRECT_MSG_TIMEOUT=7 -DMAX_RREQ_ENTRIES=8
#        -DAPSC_MAX_FRAME_RETRIES=3 -DNWK_MAX_DATA_RETRIES=2
#        -DMAX_POLL_FAILURE_RETRIES=2 -DMAX_BCAST=9 -DAPS_MAX_GROUPS=16
#        -DMAX_RTG_ENTRIES=40 -DNWK_MAX_BINDING_ENTRIES=4
#        -DMAX_BINDING_CLUSTER_IDS=4 -DDEFAULT_KEY={0} -DMAC_MAX_FRAME_SIZE=116
#        -DZDNWKMGR_MIN_TRANSMISSIONS=20 "-DCONST=const __code"
#        -DGENERIC=__generic -DRFD_RCVC_ALWAYS_ON=FALSE -DPOLL_RATE=1000
#        -DQUEUED_POLL_RATE=100 -DRESPONSE_POLL_RATE=100 -DREJOIN_POLL_RATE=440
#        -DREJOIN_BACKOFF=900000 -DREJOIN_SCAN=900000 -DENABLE_LED4_DISABLE_S1)
#        -f "E:\ZLinker 1.0.3\Z-Stack 3.0.2\Projects\CC2530\Tools\f8wZCL.cfg"
#        -I "E:\ZLinker 1.0.3\Z-Stack 3.0.2\Projects\CC2530\" -I "E:\ZLinker
#        1.0.3\Z-Stack 3.0.2\Projects\CC2530\..\..\Components\hal\include\" -I
#        "E:\ZLinker 1.0.3\Z-Stack
#        3.0.2\Projects\CC2530\..\..\Components\hal\target\CC2530EB\" -I
#        "E:\ZLinker 1.0.3\Z-Stack
#        3.0.2\Projects\CC2530\..\..\Components\hal\userspace\" -I "E:\ZLinker
#        1.0.3\Z-Stack 3.0.2\Projects\CC2530\..\..\Components\mac\include\" -I
#        "E:\ZLinker 1.0.3\Z-Stack
#        3.0.2\Projects\CC2530\..\..\Components\mac\high_level\" -I "E:\ZLinker
#        1.0.3\Z-Stack
#        3.0.2\Projects\CC2530\..\..\Components\mac\low_level\srf04\" -I
#        "E:\ZLinker 1.0.3\Z-Stack
#        3.0.2\Projects\CC2530\..\..\Components\mac\low_level\srf04\single_chip\"
#        -I "E:\ZLinker 1.0.3\Z-Stack
#        3.0.2\Projects\CC2530\..\..\Components\mt\" -I "E:\ZLinker
#        1.0.3\Z-Stack 3.0.2\Projects\CC2530\..\..\Components\osal\include\" -I
#        "E:\ZLinker 1.0.3\Z-Stack
#        3.0.2\Projects\CC2530\..\..\Components\services\saddr\" -I "E:\ZLinker
#        1.0.3\Z-Stack 3.0.2\Projects\CC2530\..\..\Components\services\sdata\"
#        -I "E:\ZLinker 1.0.3\Z-Stack
#        3.0.2\Projects\CC2530\..\..\Components\stack\af\" -I "E:\ZLinker
#        1.0.3\Z-Stack 3.0.2\Projects\CC2530\..\..\Components\stack\bdb\" -I
#        "E:\ZLinker 1.0.3\Z-Stack
#        3.0.2\Projects\CC2530\..\..\Components\stack\gp\" -I "E:\ZLinker
#        1.0.3\Z-Stack 3.0.2\Projects\CC2530\..\..\Components\stack\nwk\" -I
#        "E:\ZLinker 1.0.3\Z-Stack
#        3.0.2\Projects\CC2530\..\..\Components\stack\sapi\" -I "E:\ZLinker
#        1.0.3\Z-Stack 3.0.2\Projects\CC2530\..\..\Components\stack\sec\" -I
#        "E:\ZLinker 1.0.3\Z-Stack
#        3.0.2\Projects\CC2530\..\..\Components\stack\sys\" -I "E:\ZLinker
#        1.0.3\Z-Stack 3.0.2\Projects\CC2530\..\..\Components\stack\zcl\" -I
#        "E:\ZLinker 1.0.3\Z-Stack
#        3.0.2\Projects\CC2530\..\..\Components\stack\zdo\" -I "E:\ZLinker
#        1.0.3\Z-Stack 3.0.2\Projects\CC2530\..\..\Components\zmac\" -I
#        "E:\ZLinker 1.0.3\Z-Stack
#        3.0.2\Projects\CC2530\..\..\Components\zmac\f8w\" -I "E:\ZLinker
#        1.0.3\Z-Stack 3.0.2\Projects\CC2530\..\..\Applications\" -Ohz
#        --require_prototypes)
#    Locale             =  Chinese (Simplified)_China.936
#    List file          =  
#        E:\ZLinker 1.0.3\Z-Stack
#        3.0.2\Projects\CC2530\Category\Router\List\MT_TASK.lst
#    Object file        =  
#        E:\ZLinker 1.0.3\Z-Stack
#        3.0.2\Projects\CC2530\Category\Router\Obj\MT_TASK.r51
#
###############################################################################

E:\ZLinker 1.0.3\Z-Stack 3.0.2\Components\mt\MT_TASK.c
      1          /***************************************************************************************************
      2            Filename:       MT_TASK.c
      3            Revised:        $Date: 2015-01-30 11:15:01 -0800 (Fri, 30 Jan 2015) $
      4            Revision:       $Revision: 42161 $
      5          
      6            Description:    MonitorTest Task handling routines
      7          
      8            Copyright 2007-2013 Texas Instruments Incorporated. All rights reserved.
      9          
     10            IMPORTANT: Your use of this Software is limited to those specific rights
     11            granted under the terms of a software license agreement between the user
     12            who downloaded the software, his/her employer (which must be your employer)
     13            and Texas Instruments Incorporated (the "License").  You may not use this
     14            Software unless you agree to abide by the terms of the License. The License
     15            limits your use, and you acknowledge, that the Software may not be modified,
     16            copied or distributed unless embedded on a Texas Instruments microcontroller
     17            or used solely and exclusively in conjunction with a Texas Instruments radio
     18            frequency transceiver, which is integrated into your product.  Other than for
     19            the foregoing purpose, you may not use, reproduce, copy, prepare derivative
     20            works of, modify, distribute, perform, display or sell this Software and/or
     21            its documentation for any purpose.
     22          
     23            YOU FURTHER ACKNOWLEDGE AND AGREE THAT THE SOFTWARE AND DOCUMENTATION ARE
     24            PROVIDED "AS IS" WITHOUT WARRANTY OF ANY KIND, EITHER EXPRESS OR IMPLIED,
     25            INCLUDING WITHOUT LIMITATION, ANY WARRANTY OF MERCHANTABILITY, TITLE,
     26            NON-INFRINGEMENT AND FITNESS FOR A PARTICULAR PURPOSE. IN NO EVENT SHALL
     27            TEXAS INSTRUMENTS OR ITS LICENSORS BE LIABLE OR OBLIGATED UNDER CONTRACT,
     28            NEGLIGENCE, STRICT LIABILITY, CONTRIBUTION, BREACH OF WARRANTY, OR OTHER
     29            LEGAL EQUITABLE THEORY ANY DIRECT OR INDIRECT DAMAGES OR EXPENSES
     30            INCLUDING BUT NOT LIMITED TO ANY INCIDENTAL, SPECIAL, INDIRECT, PUNITIVE
     31            OR CONSEQUENTIAL DAMAGES, LOST PROFITS OR LOST DATA, COST OF PROCUREMENT
     32            OF SUBSTITUTE GOODS, TECHNOLOGY, SERVICES, OR ANY CLAIMS BY THIRD PARTIES
     33            (INCLUDING BUT NOT LIMITED TO ANY DEFENSE THEREOF), OR OTHER SIMILAR COSTS.
     34          
     35            Should you have any questions regarding your right to use this Software,
     36            contact Texas Instruments Incorporated at www.TI.com.
     37          
     38           ***************************************************************************************************/
     39          
     40          /***************************************************************************************************
     41           * INCLUDES
     42           ***************************************************************************************************/
     43          #include "ZComDef.h"
     44          #include "MT_TASK.h"
     45          #include "MT.h"
     46          #include "MT_DEBUG.h"
     47          #include "MT_UART.h"
     48          #include "MT_UTIL.h"
     49          #include "MT_SYS.h"
     50          
     51          #if !defined( NONWK )
     52          #include "MT_ZDO.h"
     53          #include "MT_AF.h"
     54          #endif  /* NONWK */
     55          
     56          #include "hal_uart.h"
     57          #include "OSAL_Memory.h"
     58          
     59          /***************************************************************************************************
     60           * LOCAL FUNCTIONS
     61           ***************************************************************************************************/
     62          
     63          static void MT_ProcessIncomingCommand( mtOSALSerialData_t *msg );
     64          #ifdef MT_SRNG
     65          void MT_ProcessSrngEvent(void); 
     66          #endif
     67          
     68          #if defined(NPI)
     69          extern uint8_t npiframe_calcMTFCS(uint8_t *msg_ptr, uint8_t len);
     70          #endif
     71          
     72          /***************************************************************************************************
     73           * GLOBALS
     74           ***************************************************************************************************/
     75          

   \                                 In  segment XDATA_Z, align 1, keep-with-next
     76          uint8 MT_TaskID;
   \                     MT_TaskID:
   \   000000                DS 1
   \   000001                REQUIRE __INIT_XDATA_Z
     77          
     78          /***************************************************************************************************
     79           * @fn      MT_TaskInit
     80           *
     81           * @brief  MonitorTest Task Initialization.  This function is put into the
     82           *         task table.
     83           *
     84           * @param   task_id - task ID of the MT Task
     85           *
     86           * @return  void
     87           ***************************************************************************************************/

   \                                 In  segment BANKED_CODE, align 1, keep-with-next
     88          void MT_TaskInit(uint8 task_id)
   \                     MT_TaskInit:
     89          {
   \   000000   74F7         MOV       A,#-0x9
   \   000002   12....       LCALL     ?BANKED_ENTER_XDATA
   \   000005                ; Saved register size: 9
   \   000005                ; Auto size: 0
   \   000005   E9           MOV       A,R1
   \   000006   FE           MOV       R6,A
     90            MT_TaskID = task_id;
   \   000007   90....       MOV       DPTR,#MT_TaskID
   \   00000A   F0           MOVX      @DPTR,A
     91          
     92            /* Initialize the Serial port */
     93          #if !defined(NPI)
     94            MT_UartInit();
   \   00000B                ; Setup parameters for call to function MT_UartInit
   \   00000B   12....       LCALL     `??MT_UartInit::?relay`; Banked call to: MT_UartInit
     95          
     96            /* Register taskID - Do this after UartInit() because it will reset the taskID */
     97            MT_UartRegisterTaskID(task_id);
   \   00000E                ; Setup parameters for call to function MT_UartRegisterTaskID
   \   00000E   EE           MOV       A,R6
   \   00000F   F9           MOV       R1,A
   \   000010   12....       LCALL     `??MT_UartRegisterTaskID::?relay`; Banked call to: MT_UartRegisterTaskID
     98          #endif /* NPI */
     99            osal_set_event(task_id, MT_SECONDARY_INIT_EVENT);
   \   000013                ; Setup parameters for call to function osal_set_event
   \   000013   7A10         MOV       R2,#0x10
   \   000015   7B00         MOV       R3,#0x0
   \   000017   EE           MOV       A,R6
   \   000018   F9           MOV       R1,A
   \   000019   12....       LCALL     `??osal_set_event::?relay`; Banked call to: osal_set_event
    100          }
   \   00001C   7F01         MOV       R7,#0x1
   \   00001E   02....       LJMP      ?BANKED_LEAVE_XDATA
    101          
    102          /**************************************************************************************************
    103           * @fn      MT_ProcessEvent
    104           *
    105           * @brief   MonitorTest Task Event Processor.  This task is put into the task table.
    106           *
    107           * @param   task_id - task ID of the MT Task
    108           * @param   events - event(s) for the MT Task
    109           *
    110           * @return  Bit mask of the unprocessed MT Task events.
    111           **************************************************************************************************/

   \                                 In  segment BANKED_CODE, align 1, keep-with-next
    112          UINT16 MT_ProcessEvent(uint8 task_id, uint16 events)
   \                     MT_ProcessEvent:
    113          {
   \   000000                REQUIRE ?V0
   \   000000                REQUIRE ?V1
   \   000000                REQUIRE ?V2
   \   000000                REQUIRE ?V3
   \   000000                REQUIRE ?V4
   \   000000                REQUIRE ?V5
   \   000000   74F2         MOV       A,#-0xe
   \   000002   12....       LCALL     ?BANKED_ENTER_XDATA
   \   000005                ; Saved register size: 14
   \   000005                ; Auto size: 0
   \   000005   8A..         MOV       ?V2,R2
   \   000007   8B..         MOV       ?V3,R3
    114            /* Could be multiple events, so switch won't work */
    115            if ( events & SYS_EVENT_MSG )
   \   000009   EB           MOV       A,R3
   \   00000A   5480         ANL       A,#0x80
   \   00000C   7003         JNZ       $+5
   \   00000E   02....       LJMP      ??MT_ProcessEvent_0 & 0xFFFF
    116            {
    117              uint8 *msg_ptr = osal_msg_receive(task_id);
   \   000011                ; Setup parameters for call to function osal_msg_receive
   \   000011   12....       LCALL     `??osal_msg_receive::?relay`; Banked call to: osal_msg_receive
   \   000014   8A..         MOV       ?V0,R2
   \   000016   8B..         MOV       ?V1,R3
   \   000018   AE..         MOV       R6,?V0
   \   00001A   AF..         MOV       R7,?V1
    118          
    119              if (msg_ptr != NULL)
   \   00001C   EE           MOV       A,R6
   \   00001D   4F           ORL       A,R7
   \   00001E   7003         JNZ       $+5
   \   000020   02....       LJMP      ??MT_ProcessEvent_1 & 0xFFFF
    120              {
    121                MT_ProcessIncomingCommand((mtOSALSerialData_t *)msg_ptr);
   \   000023   8E82         MOV       DPL,R6
   \   000025   8F83         MOV       DPH,R7
   \   000027   A3           INC       DPTR
   \   000028   A3           INC       DPTR
   \   000029   E0           MOVX      A,@DPTR
   \   00002A   F5..         MOV       ?V0,A
   \   00002C   A3           INC       DPTR
   \   00002D   E0           MOVX      A,@DPTR
   \   00002E   F5..         MOV       ?V1,A
   \   000030   8E82         MOV       DPL,R6
   \   000032   8F83         MOV       DPH,R7
   \   000034   E0           MOVX      A,@DPTR
   \   000035   14           DEC       A
   \   000036   606C         JZ        ??MT_ProcessEvent_2
   \   000038   14           DEC       A
   \   000039   6064         JZ        ??MT_ProcessEvent_3
   \   00003B   24FE         ADD       A,#-0x2
   \   00003D   6023         JZ        ??MT_ProcessEvent_4
   \   00003F   24FE         ADD       A,#-0x2
   \   000041   601A         JZ        ??MT_ProcessEvent_5
   \   000043   24E2         ADD       A,#-0x1e
   \   000045   7064         JNZ       ??MT_ProcessEvent_6
   \   000047                ; Setup parameters for call to function MTProcessAppRspMsg
   \   000047   85..82       MOV       DPL,?V0
   \   00004A   85..83       MOV       DPH,?V1
   \   00004D   A3           INC       DPTR
   \   00004E   A3           INC       DPTR
   \   00004F   A3           INC       DPTR
   \   000050   E0           MOVX      A,@DPTR
   \   000051   2405         ADD       A,#0x5
   \   000053   F9           MOV       R1,A
   \   000054   AA..         MOV       R2,?V0
   \   000056   AB..         MOV       R3,?V1
   \   000058   12....       LCALL     `??MTProcessAppRspMsg::?relay`; Banked call to: MTProcessAppRspMsg
   \   00005B   804E         SJMP      ??MT_ProcessEvent_6
   \                     ??MT_ProcessEvent_5:
   \   00005D                ; Setup parameters for call to function MT_ProcessDebugStr
   \   00005D   12....       LCALL     `??MT_ProcessDebugStr::?relay`; Banked call to: MT_ProcessDebugStr
   \   000060   8049         SJMP      ??MT_ProcessEvent_6
   \                     ??MT_ProcessEvent_4:
   \   000062   85..82       MOV       DPL,?V0
   \   000065   85..83       MOV       DPH,?V1
   \   000068   A3           INC       DPTR
   \   000069   A3           INC       DPTR
   \   00006A   A3           INC       DPTR
   \   00006B   E0           MOVX      A,@DPTR
   \   00006C   2405         ADD       A,#0x5
   \   00006E   F5..         MOV       ?V5,A
   \   000070                ; Setup parameters for call to function MT_UartCalcFCS
   \   000070   74FE         MOV       A,#-0x2
   \   000072   25..         ADD       A,?V5
   \   000074   F9           MOV       R1,A
   \   000075   85..82       MOV       DPL,?V0
   \   000078   85..83       MOV       DPH,?V1
   \   00007B   A3           INC       DPTR
   \   00007C   AA82         MOV       R2,DPL
   \   00007E   AB83         MOV       R3,DPH
   \   000080   12....       LCALL     `??MT_UartCalcFCS::?relay`; Banked call to: MT_UartCalcFCS
   \   000083   E9           MOV       A,R1
   \   000084   C0E0         PUSH      A
   \   000086   A8..         MOV       R0,?V5
   \   000088   E5..         MOV       A,?V0
   \   00008A   28           ADD       A,R0
   \   00008B   F8           MOV       R0,A
   \   00008C   E4           CLR       A
   \   00008D   35..         ADDC      A,?V1
   \   00008F   F9           MOV       R1,A
   \   000090   E8           MOV       A,R0
   \   000091   24FF         ADD       A,#-0x1
   \   000093   F582         MOV       DPL,A
   \   000095   E9           MOV       A,R1
   \   000096   34FF         ADDC      A,#-0x1
   \   000098   F583         MOV       DPH,A
   \   00009A   D0E0         POP       A
   \   00009C   F0           MOVX      @DPTR,A
   \   00009D   800C         SJMP      ??MT_ProcessEvent_6
   \                     ??MT_ProcessEvent_3:
   \   00009F                ; Setup parameters for call to function MT_ProcessDebugMsg
   \   00009F   12....       LCALL     `??MT_ProcessDebugMsg::?relay`; Banked call to: MT_ProcessDebugMsg
   \   0000A2   8007         SJMP      ??MT_ProcessEvent_6
   \                     ??MT_ProcessEvent_2:
   \   0000A4                ; Setup parameters for call to function MT_ProcessIncoming
   \   0000A4   AA..         MOV       R2,?V0
   \   0000A6   AB..         MOV       R3,?V1
   \   0000A8   12....       LCALL     `??MT_ProcessIncoming::?relay`; Banked call to: MT_ProcessIncoming
    122                osal_msg_deallocate(msg_ptr);
   \                     ??MT_ProcessEvent_6:
   \   0000AB                ; Setup parameters for call to function osal_msg_deallocate
   \   0000AB   EE           MOV       A,R6
   \   0000AC   FA           MOV       R2,A
   \   0000AD   EF           MOV       A,R7
   \   0000AE   FB           MOV       R3,A
   \   0000AF   12....       LCALL     `??osal_msg_deallocate::?relay`; Banked call to: osal_msg_deallocate
    123              }
    124          
    125              /* Return unproccessed events */
    126              return (events ^ SYS_EVENT_MSG);
   \                     ??MT_ProcessEvent_1:
   \   0000B2   AA..         MOV       R2,?V2
   \   0000B4   E5..         MOV       A,?V3
   \   0000B6   6480         XRL       A,#0x80
   \   0000B8   FB           MOV       R3,A
   \   0000B9   802E         SJMP      ??MT_ProcessEvent_7
    127            }
    128          
    129            if ( events & MT_SECONDARY_INIT_EVENT )
   \                     ??MT_ProcessEvent_0:
   \   0000BB   EA           MOV       A,R2
   \   0000BC   5410         ANL       A,#0x10
   \   0000BE   6009         JZ        ??MT_ProcessEvent_8
    130            {
    131              MT_Init(task_id);
   \   0000C0                ; Setup parameters for call to function MT_Init
   \   0000C0   12....       LCALL     `??MT_Init::?relay`; Banked call to: MT_Init
    132              /* Return unproccessed events */
    133              return (events ^ MT_SECONDARY_INIT_EVENT);
   \   0000C3   E5..         MOV       A,?V2
   \   0000C5   6410         XRL       A,#0x10
   \   0000C7   8017         SJMP      ??MT_ProcessEvent_9
    134            }
    135          
    136            if ( events & MT_ZTOOL_SERIAL_RCV_BUFFER_FULL )
   \                     ??MT_ProcessEvent_8:
   \   0000C9   EA           MOV       A,R2
   \   0000CA   5402         ANL       A,#0x2
   \   0000CC   6006         JZ        ??MT_ProcessEvent_10
    137            {
    138              /* Return unproccessed events */
    139              return (events ^ MT_ZTOOL_SERIAL_RCV_BUFFER_FULL);
   \   0000CE   EA           MOV       A,R2
   \   0000CF   6402         XRL       A,#0x2
   \   0000D1   FA           MOV       R2,A
   \   0000D2   8015         SJMP      ??MT_ProcessEvent_7
    140            }
    141          
    142          #if !defined( NONWK )
    143            if ( events & MT_AF_EXEC_EVT )
   \                     ??MT_ProcessEvent_10:
   \   0000D4   EA           MOV       A,R2
   \   0000D5   5408         ANL       A,#0x8
   \   0000D7   600C         JZ        ??MT_ProcessEvent_11
    144            {
    145              MT_AfExec();
   \   0000D9                ; Setup parameters for call to function MT_AfExec
   \   0000D9   12....       LCALL     `??MT_AfExec::?relay`; Banked call to: MT_AfExec
    146              return (events ^ MT_AF_EXEC_EVT);
   \   0000DC   E5..         MOV       A,?V2
   \   0000DE   6408         XRL       A,#0x8
   \                     ??MT_ProcessEvent_9:
   \   0000E0   FA           MOV       R2,A
   \   0000E1   AB..         MOV       R3,?V3
   \   0000E3   8004         SJMP      ??MT_ProcessEvent_7
    147            }
    148          #endif  /* NONWK */
    149          
    150            /* Handle MT_SYS_OSAL_START_TIMER callbacks */
    151          #if defined MT_SYS_FUNC
    152            if ( events & (MT_SYS_OSAL_EVENT_MASK))
    153            {
    154              if (events & MT_SYS_OSAL_EVENT_0)
    155              {
    156                MT_SysOsalTimerExpired(0x00);
    157                events ^= MT_SYS_OSAL_EVENT_0;
    158              }
    159          
    160              if (events & MT_SYS_OSAL_EVENT_1)
    161              {
    162                MT_SysOsalTimerExpired(0x01);
    163                events ^= MT_SYS_OSAL_EVENT_1;
    164              }
    165          
    166              if (events & MT_SYS_OSAL_EVENT_2)
    167              {
    168                MT_SysOsalTimerExpired(0x02);
    169                events ^= MT_SYS_OSAL_EVENT_2;
    170              }
    171          
    172              if (events & MT_SYS_OSAL_EVENT_3)
    173              {
    174                MT_SysOsalTimerExpired(0x03);
    175                events ^= MT_SYS_OSAL_EVENT_3;
    176              }
    177          
    178              return events;
    179            }
    180          #endif
    181          
    182          #ifdef MT_SRNG
    183            if(events & MT_SRNG_EVENT)
    184            {
    185              MT_ProcessSrngEvent(); 
    186              return (events ^ MT_SRNG_EVENT);
    187            }
    188          #endif  
    189          
    190            /* Discard or make more handlers */
    191            return 0;
   \                     ??MT_ProcessEvent_11:
   \   0000E5   7A00         MOV       R2,#0x0
   \   0000E7   7B00         MOV       R3,#0x0
   \                     ??MT_ProcessEvent_7:
   \   0000E9   7F06         MOV       R7,#0x6
   \   0000EB   02....       LJMP      ?BANKED_LEAVE_XDATA
    192          
    193          } /* MT_ProcessEvent() */

   \                                 In  segment BANK_RELAYS, align 1
   \                     `??MT_TaskInit::?relay`:
   \   000000   12....       LCALL   ?BDISPATCH
   \   000003   ......       DC24    MT_TaskInit

   \                                 In  segment BANK_RELAYS, align 1
   \                     `??MT_ProcessEvent::?relay`:
   \   000000   12....       LCALL   ?BDISPATCH
   \   000003   ......       DC24    MT_ProcessEvent
    194          
    195          #ifdef MT_SRNG
    196          /***************************************************************************************************
    197           * @fn      MT_ProcessSrngEvent
    198           *
    199           * @brief
    200           *
    201           *   Process SRNG Event Messages.
    202           *
    203           * @param   None
    204           *
    205           * @return  None
    206           ***************************************************************************************************/
    207          void MT_ProcessSrngEvent(void)
    208          {
    209            uint8 * msg;
    210            osal_event_hdr_t * msg_ptr;
    211            
    212            msg_ptr = (osal_event_hdr_t *)osal_msg_allocate( MT_RPC_FRAME_HDR_SZ + 4 + sizeof(osal_event_hdr_t) );
    213            msg = msg_ptr + sizeof(osal_event_hdr_t) + 4;
    214            
    215            if ( msg_ptr )
    216            {
    217              msg_ptr->event = CMD_SERIAL_MSG;
    218              msg_ptr->status = 4;
    219              if(msg)
    220              {
    221                msg[MT_RPC_POS_LEN] = 4 + MT_RPC_FRAME_HDR_SZ;
    222                msg[MT_RPC_POS_CMD0] = MT_RPC_SYS_UTIL;
    223                msg[MT_RPC_POS_CMD1] = MT_UTIL_SRNG_GENERATE;
    224              } 
    225              osal_memcpy(msg_ptr + sizeof(osal_event_hdr_t), &msg, 4); 
    226            }
    227            osal_msg_send( MT_TaskID, (uint8 *)msg_ptr );
    228          }
    229          #endif
    230          
    231          /***************************************************************************************************
    232           * @fn      MT_ProcessIncomingCommand
    233           *
    234           * @brief
    235           *
    236           *   Process Event Messages.
    237           *
    238           * @param   *msg - pointer to event message
    239           *
    240           * @return
    241           ***************************************************************************************************/
    242          static void MT_ProcessIncomingCommand( mtOSALSerialData_t *msg )
    243          {
    244            uint8 len, *msg_ptr = msg->msg;
    245          
    246            /* Use the first byte of the message as the command ID */
    247            switch ( msg->hdr.event )
    248            {
    249              case CMD_SERIAL_MSG:
    250                MT_ProcessIncoming(msg_ptr);
    251                break;
    252          
    253              case CMD_DEBUG_MSG:
    254                MT_ProcessDebugMsg( (mtDebugMsg_t *)msg );
    255                break;
    256          
    257              case CB_FUNC:
    258                /*
    259                  Build SPI message here instead of redundantly calling MT_BuildSPIMsg
    260                  because we have copied data already in the allocated message
    261                */
    262          
    263                /* msg_ptr is the beginning of the intended SPI message */
    264                len = SPI_0DATA_MSG_LEN + msg_ptr[DATALEN_FIELD];
    265          
    266                /*
    267                  FCS goes to the last byte in the message and is calculated over all
    268                  the bytes except FCS and SOP
    269                */
    270          #if !defined(NPI)
    271                msg_ptr[len-1] = MT_UartCalcFCS(msg_ptr + 1, (uint8)(len-2));
    272          #else
    273                msg_ptr[len-1] = npiframe_calcMTFCS(msg_ptr + 1, (uint8)(len-2));
    274          #endif
    275          
    276          #ifdef MT_UART_DEFAULT_PORT
    277                HalUARTWrite ( MT_UART_DEFAULT_PORT, msg_ptr, len );
    278          #endif
    279                break;
    280          
    281              case CMD_DEBUG_STR:
    282                MT_ProcessDebugStr( (mtDebugStr_t *)msg );
    283                break;
    284          
    285          #if !defined ( NONWK )
    286              case MT_SYS_APP_RSP_MSG:
    287                len = SPI_0DATA_MSG_LEN + msg_ptr[DATALEN_FIELD];
    288                MTProcessAppRspMsg( msg_ptr, len );
    289                break;
    290          #endif  // NONWK
    291          
    292          #if defined (MT_UTIL_FUNC)
    293          #if defined ZCL_KEY_ESTABLISH
    294              case ZCL_KEY_ESTABLISH_IND:
    295                MT_UtilKeyEstablishInd((zclKE_StatusInd_t *)msg);
    296                break;
    297          #endif
    298          #endif
    299          #ifdef MT_ZDO_CB_FUNC
    300              case ZDO_STATE_CHANGE:
    301                MT_ZdoStateChangeCB((osal_event_hdr_t *)msg);
    302                break;
    303          #endif
    304          
    305              default:
    306                break;
    307            }
    308          }
    309          
    310          #ifdef MT_TASK
    311          /***************************************************************************************************
    312           * @fn      MT_TransportAlloc
    313           *
    314           * @brief   Allocate memory for transport msg
    315           *
    316           * @param   uint8 cmd0 - The first byte of the MT command id containing the command type and subsystem.
    317           *          uint8 len - length
    318           *
    319           * @return  pointer the allocated memory or NULL if fail to allocate the memory
    320           ***************************************************************************************************/
    321          uint8 *MT_TransportAlloc(uint8 cmd0, uint8 len)
    322          {
    323            uint8 *p;
    324          
    325            (void)cmd0;  // Intentionally unreferenced parameter
    326          
    327            /* Allocate a buffer of data length + SOP+CMD+FCS (5 bytes) */
    328            p = osal_msg_allocate(len + SPI_0DATA_MSG_LEN);
    329          
    330            if (p)
    331            {
    332              p++; /* Save space for SOP_VALUE, msg structure */
    333              return p;
    334            }
    335            else
    336            {
    337              return NULL;
    338            }
    339          }
    340          
    341          /***************************************************************************************************
    342           * @fn      MT_TransportSend
    343           *
    344           * @brief   Fill in SOP and FCS then send out the msg
    345           *
    346           * @param   uint8 *pBuf - pointer to the message that contains CMD, length, data and FCS
    347           *
    348           * @return  None
    349           ***************************************************************************************************/
    350          void MT_TransportSend(uint8 *pBuf)
    351          {
    352            uint8 *msgPtr;
    353            uint8 dataLen = pBuf[0]; /* Data length is on byte #1 from the pointer */
    354          
    355            /* Move back to the SOP */
    356            msgPtr = pBuf-1;
    357          
    358            /* Insert SOP */
    359            msgPtr[0] = MT_UART_SOF;
    360          
    361            /* Insert FCS */
    362            msgPtr[SPI_0DATA_MSG_LEN - 1 + dataLen] = MT_UartCalcFCS (pBuf, (3 + dataLen));
    363          
    364            /* Send to UART */
    365          #ifdef MT_UART_DEFAULT_PORT
    366            HalUARTWrite(MT_UART_DEFAULT_PORT, msgPtr, dataLen + SPI_0DATA_MSG_LEN);
    367          #endif
    368          
    369            /* Deallocate */
    370            osal_msg_deallocate(msgPtr);
    371          }
    372          #endif /* MT_TASK */
    373          /***************************************************************************************************
    374           ***************************************************************************************************/

   Maximum stack usage in bytes:

   ISTACK XSTACK Function
   ------ ------ --------
      1     14   MT_ProcessEvent
        0     14   -> MTProcessAppRspMsg
        0     14   -> MT_AfExec
        0     14   -> MT_Init
        0     14   -> MT_ProcessDebugMsg
        0     14   -> MT_ProcessDebugStr
        0     14   -> MT_ProcessIncoming
        0     14   -> MT_UartCalcFCS
        0     14   -> osal_msg_deallocate
        0     14   -> osal_msg_receive
      0      9   MT_TaskInit
        0      9   -> MT_UartInit
        0      9   -> MT_UartRegisterTaskID
        0      9   -> osal_set_event


   Segment part sizes:

   Bytes  Function/Label
   -----  --------------
     238  MT_ProcessEvent
       6  MT_ProcessEvent::?relay
       1  MT_TaskID
      33  MT_TaskInit
       6  MT_TaskInit::?relay

 
 271 bytes in segment BANKED_CODE
  12 bytes in segment BANK_RELAYS
   1 byte  in segment XDATA_Z
 
  12 bytes of CODE     memory
 271 bytes of HUGECODE memory
   1 byte  of XDATA    memory

Errors: none
Warnings: none
