###############################################################################
#
# IAR C/C++ Compiler V10.10.1.4655 for 8051               08/Apr/2021  22:49:00
# Copyright 2004-2017 IAR Systems AB.
# Standalone license - IAR Embedded Workbench for 8051
#
#    Core               =  plain
#    Code model         =  banked
#    Data model         =  large
#    Calling convention =  xdata reentrant
#    Constant location  =  data_rom
#    Dptr setup         =  1,16
#                          
#    Source file        =  
#        E:\ZLinker 1.0.3\Z-Stack 3.0.2\Components\stack\zcl\zcl.c
#    Command line       =  
#        -f C:\Users\Michael\AppData\Local\Temp\EW1293.tmp ("E:\ZLinker
#        1.0.3\Z-Stack 3.0.2\Components\stack\zcl\zcl.c" -D SECURE=1 -D
#        TC_LINKKEY_JOIN -D NV_INIT -D NV_RESTORE -D xZTOOL_P1 -D xMT_TASK -D
#        xMT_APP_FUNC -D xMT_SYS_FUNC -D xMT_ZDO_FUNC -D xMT_ZDO_MGMT -D
#        xMT_APP_CNF_FUNC -D LCD_SUPPORTED=DEBUG -D MULTICAST_ENABLED=FALSE -D
#        ZCL_READ -D ZCL_DISCOVER -D ZCL_WRITE -D ZCL_BASIC -D ZCL_IDENTIFY -D
#        ZCL_ON_OFF -D ZCL_GROUPS -D ZCL_LEVEL_CTRL -D HAL_KEY=TRUE -D
#        ISR_KEYINTERRUPT -D HAL_LCD=TRUE -D HAL_ADC=TRUE -D HAL_DHT11=TRUE -D
#        ZB_CONFIG_PA_ENABLE=TRUE -D TEST_RSSI=TRUE -lC "E:\ZLinker
#        1.0.3\Z-Stack 3.0.2\Projects\CC2530\Category\Router\List" -lA
#        "E:\ZLinker 1.0.3\Z-Stack 3.0.2\Projects\CC2530\Category\Router\List"
#        --diag_suppress Pe001,Pa010 -o "E:\ZLinker 1.0.3\Z-Stack
#        3.0.2\Projects\CC2530\Category\Router\Obj" -e --debug --core=plain
#        --dptr=16,1 --data_model=large --code_model=banked
#        --calling_convention=xdata_reentrant --place_constants=data_rom
#        --nr_virtual_regs 16 -f "E:\ZLinker 1.0.3\Z-Stack
#        3.0.2\Projects\CC2530\Tools\f8wRouter.cfg" (-DCPU32MHZ
#        -DROOT=__near_func -DMAC_CFG_APP_PENDING_QUEUE=TRUE
#        -DMAC_CFG_TX_DATA_MAX=5 -DMAC_CFG_TX_MAX=8 -DMAC_CFG_RX_MAX=5
#        -DRTR_NWK) -f "E:\ZLinker 1.0.3\Z-Stack
#        3.0.2\Projects\CC2530\Tools\f8wConfig.cfg" (-DZIGBEEPRO -DSECURE=1
#        -DZG_SECURE_DYNAMIC=0 -DREFLECTOR -DDEFAULT_CHANLIST=0x00000800
#        -DZDAPP_CONFIG_PAN_ID=0xFFFF -DNWK_START_DELAY=100
#        -DEXTENDED_JOINING_RANDOM_MASK=0x007F -DBEACON_REQUEST_DELAY=100
#        -DBEACON_REQ_DELAY_MASK=0x00FF -DLINK_STATUS_JITTER_MASK=0x007F
#        -DROUTE_EXPIRY_TIME=30 -DAPSC_ACK_WAIT_DURATION_POLLED=3000
#        -DNWK_INDIRECT_MSG_TIMEOUT=7 -DMAX_RREQ_ENTRIES=8
#        -DAPSC_MAX_FRAME_RETRIES=3 -DNWK_MAX_DATA_RETRIES=2
#        -DMAX_POLL_FAILURE_RETRIES=2 -DMAX_BCAST=9 -DAPS_MAX_GROUPS=16
#        -DMAX_RTG_ENTRIES=40 -DNWK_MAX_BINDING_ENTRIES=4
#        -DMAX_BINDING_CLUSTER_IDS=4 -DDEFAULT_KEY={0} -DMAC_MAX_FRAME_SIZE=116
#        -DZDNWKMGR_MIN_TRANSMISSIONS=20 "-DCONST=const __code"
#        -DGENERIC=__generic -DRFD_RCVC_ALWAYS_ON=FALSE -DPOLL_RATE=1000
#        -DQUEUED_POLL_RATE=100 -DRESPONSE_POLL_RATE=100 -DREJOIN_POLL_RATE=440
#        -DREJOIN_BACKOFF=900000 -DREJOIN_SCAN=900000 -DENABLE_LED4_DISABLE_S1)
#        -f "E:\ZLinker 1.0.3\Z-Stack 3.0.2\Projects\CC2530\Tools\f8wZCL.cfg"
#        -I "E:\ZLinker 1.0.3\Z-Stack 3.0.2\Projects\CC2530\" -I "E:\ZLinker
#        1.0.3\Z-Stack 3.0.2\Projects\CC2530\..\..\Components\hal\include\" -I
#        "E:\ZLinker 1.0.3\Z-Stack
#        3.0.2\Projects\CC2530\..\..\Components\hal\target\CC2530EB\" -I
#        "E:\ZLinker 1.0.3\Z-Stack
#        3.0.2\Projects\CC2530\..\..\Components\hal\userspace\" -I "E:\ZLinker
#        1.0.3\Z-Stack 3.0.2\Projects\CC2530\..\..\Components\mac\include\" -I
#        "E:\ZLinker 1.0.3\Z-Stack
#        3.0.2\Projects\CC2530\..\..\Components\mac\high_level\" -I "E:\ZLinker
#        1.0.3\Z-Stack
#        3.0.2\Projects\CC2530\..\..\Components\mac\low_level\srf04\" -I
#        "E:\ZLinker 1.0.3\Z-Stack
#        3.0.2\Projects\CC2530\..\..\Components\mac\low_level\srf04\single_chip\"
#        -I "E:\ZLinker 1.0.3\Z-Stack
#        3.0.2\Projects\CC2530\..\..\Components\mt\" -I "E:\ZLinker
#        1.0.3\Z-Stack 3.0.2\Projects\CC2530\..\..\Components\osal\include\" -I
#        "E:\ZLinker 1.0.3\Z-Stack
#        3.0.2\Projects\CC2530\..\..\Components\services\saddr\" -I "E:\ZLinker
#        1.0.3\Z-Stack 3.0.2\Projects\CC2530\..\..\Components\services\sdata\"
#        -I "E:\ZLinker 1.0.3\Z-Stack
#        3.0.2\Projects\CC2530\..\..\Components\stack\af\" -I "E:\ZLinker
#        1.0.3\Z-Stack 3.0.2\Projects\CC2530\..\..\Components\stack\bdb\" -I
#        "E:\ZLinker 1.0.3\Z-Stack
#        3.0.2\Projects\CC2530\..\..\Components\stack\gp\" -I "E:\ZLinker
#        1.0.3\Z-Stack 3.0.2\Projects\CC2530\..\..\Components\stack\nwk\" -I
#        "E:\ZLinker 1.0.3\Z-Stack
#        3.0.2\Projects\CC2530\..\..\Components\stack\sapi\" -I "E:\ZLinker
#        1.0.3\Z-Stack 3.0.2\Projects\CC2530\..\..\Components\stack\sec\" -I
#        "E:\ZLinker 1.0.3\Z-Stack
#        3.0.2\Projects\CC2530\..\..\Components\stack\sys\" -I "E:\ZLinker
#        1.0.3\Z-Stack 3.0.2\Projects\CC2530\..\..\Components\stack\zcl\" -I
#        "E:\ZLinker 1.0.3\Z-Stack
#        3.0.2\Projects\CC2530\..\..\Components\stack\zdo\" -I "E:\ZLinker
#        1.0.3\Z-Stack 3.0.2\Projects\CC2530\..\..\Components\zmac\" -I
#        "E:\ZLinker 1.0.3\Z-Stack
#        3.0.2\Projects\CC2530\..\..\Components\zmac\f8w\" -I "E:\ZLinker
#        1.0.3\Z-Stack 3.0.2\Projects\CC2530\..\..\Applications\" -Ohz
#        --require_prototypes)
#    Locale             =  Chinese (Simplified)_China.936
#    List file          =  
#        E:\ZLinker 1.0.3\Z-Stack
#        3.0.2\Projects\CC2530\Category\Router\List\zcl.lst
#    Object file        =  
#        E:\ZLinker 1.0.3\Z-Stack
#        3.0.2\Projects\CC2530\Category\Router\Obj\zcl.r51
#
###############################################################################

E:\ZLinker 1.0.3\Z-Stack 3.0.2\Components\stack\zcl\zcl.c
      1          /**************************************************************************************************
      2            Filename:       zcl.c
      3            Revised:        $Date: 2015-09-09 11:51:49 -0700 (Wed, 09 Sep 2015) $
      4            Revision:       $Revision: 44489 $
      5          
      6            Description:    This file contains the Zigbee Cluster Library Foundation functions.
      7          
      8          
      9            Copyright 2006-2015 Texas Instruments Incorporated. All rights reserved.
     10          
     11            IMPORTANT: Your use of this Software is limited to those specific rights
     12            granted under the terms of a software license agreement between the user
     13            who downloaded the software, his/her employer (which must be your employer)
     14            and Texas Instruments Incorporated (the "License").  You may not use this
     15            Software unless you agree to abide by the terms of the License. The License
     16            limits your use, and you acknowledge, that the Software may not be modified,
     17            copied or distributed unless embedded on a Texas Instruments microcontroller
     18            or used solely and exclusively in conjunction with a Texas Instruments radio
     19            frequency transceiver, which is integrated into your product.  Other than for
     20            the foregoing purpose, you may not use, reproduce, copy, prepare derivative
     21            works of, modify, distribute, perform, display or sell this Software and/or
     22            its documentation for any purpose.
     23          
     24            YOU FURTHER ACKNOWLEDGE AND AGREE THAT THE SOFTWARE AND DOCUMENTATION ARE
     25            PROVIDED "AS IS" WITHOUT WARRANTY OF ANY KIND, EITHER EXPRESS OR IMPLIED,
     26            INCLUDING WITHOUT LIMITATION, ANY WARRANTY OF MERCHANTABILITY, TITLE,
     27            NON-INFRINGEMENT AND FITNESS FOR A PARTICULAR PURPOSE. IN NO EVENT SHALL
     28            TEXAS INSTRUMENTS OR ITS LICENSORS BE LIABLE OR OBLIGATED UNDER CONTRACT,
     29            NEGLIGENCE, STRICT LIABILITY, CONTRIBUTION, BREACH OF WARRANTY, OR OTHER
     30            LEGAL EQUITABLE THEORY ANY DIRECT OR INDIRECT DAMAGES OR EXPENSES
     31            INCLUDING BUT NOT LIMITED TO ANY INCIDENTAL, SPECIAL, INDIRECT, PUNITIVE
     32            OR CONSEQUENTIAL DAMAGES, LOST PROFITS OR LOST DATA, COST OF PROCUREMENT
     33            OF SUBSTITUTE GOODS, TECHNOLOGY, SERVICES, OR ANY CLAIMS BY THIRD PARTIES
     34            (INCLUDING BUT NOT LIMITED TO ANY DEFENSE THEREOF), OR OTHER SIMILAR COSTS.
     35          
     36            Should you have any questions regarding your right to use this Software,
     37            contact Texas Instruments Incorporated at www.TI.com.
     38          **************************************************************************************************/
     39          
     40          /*********************************************************************
     41           * INCLUDES
     42           */
     43          #include "ZComDef.h"
     44          #include "AF.h"
     45          #include "APS.h"
     46          #include "zcl.h"
     47          #include "zcl_general.h"
     48          
     49          #if defined ( INTER_PAN )
     50            #include "stub_aps.h"
     51          #endif
     52             
     53          #ifdef BDB_REPORTING
     54            #include "bdb_Reporting.h"
     55          #endif
     56          #include "bdb_interface.h"
     57          
     58          #include "zcl_green_power.h"
     59          
     60             
     61          /*********************************************************************
     62           * MACROS
     63           */
     64          /*** Frame Control ***/
     65          #define zcl_FCType( a )               ( (a) & ZCL_FRAME_CONTROL_TYPE )
     66          #define zcl_FCManuSpecific( a )       ( (a) & ZCL_FRAME_CONTROL_MANU_SPECIFIC )
     67          #define zcl_FCDirection( a )          ( (a) & ZCL_FRAME_CONTROL_DIRECTION )
     68          #define zcl_FCDisableDefaultRsp( a )  ( (a) & ZCL_FRAME_CONTROL_DISABLE_DEFAULT_RSP )
     69          
     70          /*** Attribute Access Control ***/
     71          #define zcl_AccessCtrlRead( a )       ( (a) & ACCESS_CONTROL_READ )
     72          #define zcl_AccessCtrlWrite( a )      ( (a) & ACCESS_CONTROL_WRITE )
     73          #define zcl_AccessCtrlCmd( a )        ( (a) & ACCESS_CONTROL_CMD )
     74          #define zcl_AccessCtrlAuthRead( a )   ( (a) & ACCESS_CONTROL_AUTH_READ )
     75          #define zcl_AccessCtrlAuthWrite( a )  ( (a) & ACCESS_CONTROL_AUTH_WRITE )
     76          #define zcl_AccessClient( a )         ( (a) & ACCESS_CLIENT )
     77          
     78          #define zclParseCmd( a, b )           zclCmdTable[(a)].pfnParseInProfile( (b) )
     79          #define zclProcessCmd( a, b )         zclCmdTable[(a)].pfnProcessInProfile( (b) )
     80          
     81          #define zcl_DefaultRspCmd( zclHdr )   ( zcl_ProfileCmd( (zclHdr).fc.type )     && \
     82                                                  (zclHdr).fc.manuSpecific == 0          && \
     83                                                  (zclHdr).commandID == ZCL_CMD_DEFAULT_RSP )
     84          
     85          // Commands that have corresponding responses (ZCL_CMD_WRITE_NO_RSP, does not have response, but must not send default response)
     86          #define CMD_HAS_RSP( cmd )            ( (cmd) == ZCL_CMD_READ                   || \
     87                                                  (cmd) == ZCL_CMD_WRITE                  || \
     88                                                  (cmd) == ZCL_CMD_WRITE_UNDIVIDED        || \
     89                                                  (cmd) == ZCL_CMD_WRITE_NO_RSP           || \
     90                                                  (cmd) == ZCL_CMD_CONFIG_REPORT          || \
     91                                                  (cmd) == ZCL_CMD_READ_REPORT_CFG        || \
     92                                                  (cmd) == ZCL_CMD_DISCOVER_ATTRS         || \
     93                                                  (cmd) == ZCL_CMD_DISCOVER_CMDS_RECEIVED || \
     94                                                  (cmd) == ZCL_CMD_DISCOVER_CMDS_GEN      || \
     95                                                  (cmd) == ZCL_CMD_DISCOVER_ATTRS_EXT     || \
     96                                                  (cmd) == ZCL_CMD_DEFAULT_RSP ) // exception
     97          #define  ZCL_VALID_MIN_HEADER_LEN  3
     98          
     99          /*********************************************************************
    100           * CONSTANTS
    101           */
    102          
    103          /*********************************************************************
    104           * TYPEDEFS
    105           */
    106          typedef struct zclLibPlugin
    107          {
    108            struct zclLibPlugin *next;
    109            uint16              startClusterID;    // starting cluster ID
    110            uint16              endClusterID;      // ending cluster ID
    111            zclInHdlr_t         pfnIncomingHdlr;    // function to handle incoming message
    112          } zclLibPlugin_t;
    113          
    114          // Command record list
    115          typedef struct zclCmdRecsList
    116          {
    117            struct zclCmdRecsList *pNext;
    118            uint8                 endpoint;
    119            uint8                 numCommands;
    120            CONST zclCommandRec_t *pCmdRecs;
    121          } zclCmdRecsList_t;
    122          
    123          
    124          // Cluster option list item
    125          typedef struct zclClusterOptionList
    126          {
    127            struct zclClusterOptionList *next;
    128            uint8                       endpoint;   // Used to link it into the endpoint descriptor
    129            uint8                       numOptions; // Number of the following records
    130            zclOptionRec_t              *options;   // option records
    131          } zclClusterOptionList;
    132          
    133          typedef void *(*zclParseInProfileCmd_t)( zclParseCmd_t *pCmd );
    134          typedef uint8 (*zclProcessInProfileCmd_t)( zclIncoming_t *pInMsg );
    135          
    136          typedef struct
    137          {
    138            zclParseInProfileCmd_t   pfnParseInProfile;
    139            zclProcessInProfileCmd_t pfnProcessInProfile;
    140          } zclCmdItems_t;
    141          
    142          
    143          // List record for external handler for unhandled ZCL Foundation commands/rsps
    144          typedef struct zclExternalFoundationHandlerList
    145          {
    146              struct zclExternalFoundationHandlerList *next;
    147              uint8 zcl_ExternalTaskID;
    148              uint8 zcl_ExternalEndPoint;
    149          } zclExternalFoundationHandlerList;
    150          
    151          
    152          /*********************************************************************
    153           * GLOBAL VARIABLES
    154           */
    155          
    156          #if !defined ( ZCL_STANDALONE )

   \                                 In  segment XDATA_Z, align 1, keep-with-next
    157            uint8 zcl_TaskID;
   \                     zcl_TaskID:
   \   000000                DS 1
   \   000001                REQUIRE __INIT_XDATA_Z
    158          #endif
    159          
    160          // The Application should register its attribute data validation function

   \                                 In  segment XDATA_Z, align 1, keep-with-next
    161          zclValidateAttrData_t zcl_ValidateAttrDataCB = (zclValidateAttrData_t)NULL;
   \                     zcl_ValidateAttrDataCB:
   \   000000                DS 2
   \   000002                REQUIRE __INIT_XDATA_Z
    162          
    163          // ZCL Sequence number
    164          //uint8 zcl_SeqNum = 0x00;  //Not longer used, refer to bdb_getZCLFrameCounter() in bdb_interface.h

   \                                 In  segment XDATA_Z, align 1, keep-with-next
    165          uint8 zcl_InSeqNum = 0x00;
   \                     zcl_InSeqNum:
   \   000000                DS 1
   \   000001                REQUIRE __INIT_XDATA_Z
    166          

   \                                 In  segment XDATA_I, align 1, keep-with-next
    167          uint8 zcl_radius = AF_DEFAULT_RADIUS;
   \                     zcl_radius:
   \   000000                DS 1
   \   000001                REQUIRE `?<Initializer for zcl_radius>`
   \   000001                REQUIRE __INIT_XDATA_I
    168          

   \                                 In  segment XDATA_Z, align 1, keep-with-next
    169          static uint8 savedZCLTransSeqNum = 0;
   \                     savedZCLTransSeqNum:
   \   000000                DS 1
   \   000001                REQUIRE __INIT_XDATA_Z
    170          
    171          /*********************************************************************
    172           * EXTERNAL VARIABLES
    173           */
    174          
    175          /*********************************************************************
    176           * EXTERNAL FUNCTIONS
    177           */
    178          
    179          /*********************************************************************
    180           * LOCAL VARIABLES
    181           */

   \                                 In  segment XDATA_Z, align 1, keep-with-next
    182          static zclLibPlugin_t *plugins = (zclLibPlugin_t *)NULL;
   \                     plugins:
   \   000000                DS 2
   \   000002                REQUIRE __INIT_XDATA_Z
    183          
    184          #if defined ( ZCL_DISCOVER )

   \                                 In  segment XDATA_Z, align 1, keep-with-next
    185            static zclCmdRecsList_t *gpCmdList = (zclCmdRecsList_t *)NULL;
   \                     gpCmdList:
   \   000000                DS 2
   \   000002                REQUIRE __INIT_XDATA_Z
    186          #endif
    187          

   \                                 In  segment XDATA_Z, align 1, keep-with-next
    188          static zclAttrRecsList *attrList = (zclAttrRecsList *)NULL;
   \                     attrList:
   \   000000                DS 2
   \   000002                REQUIRE __INIT_XDATA_Z

   \                                 In  segment XDATA_Z, align 1, keep-with-next
    189          static zclClusterOptionList *clusterOptionList = (zclClusterOptionList *)NULL;
   \                     clusterOptionList:
   \   000000                DS 2
   \   000002                REQUIRE __INIT_XDATA_Z
    190          

   \                                 In  segment XDATA_Z, align 1, keep-with-next
    191          static afIncomingMSGPacket_t *rawAFMsg = (afIncomingMSGPacket_t *)NULL;
   \                     rawAFMsg:
   \   000000                DS 2
   \   000002                REQUIRE __INIT_XDATA_Z
    192          
    193          #if !defined ( ZCL_STANDALONE )

   \                                 In  segment XDATA_Z, align 1, keep-with-next
    194          static zclExternalFoundationHandlerList *externalEndPointHandlerList = (zclExternalFoundationHandlerList *)NULL;
   \                     externalEndPointHandlerList:
   \   000000                DS 2
   \   000002                REQUIRE __INIT_XDATA_Z
    195          #endif
    196          
    197          /*********************************************************************
    198           * LOCAL FUNCTIONS
    199           */
    200          static uint8 *zclBuildHdr( zclFrameHdr_t *hdr, uint8 *pData );
    201          static uint8 zclCalcHdrSize( zclFrameHdr_t *hdr );
    202          static zclLibPlugin_t *zclFindPlugin( uint16 clusterID, uint16 profileID );
    203          
    204          #if !defined ( ZCL_STANDALONE )
    205          static uint8 zcl_addExternalFoundationHandler( uint8 taskId, uint8 endPointId );
    206          static uint8 zcl_getExternalFoundationHandler( afIncomingMSGPacket_t *pInMsg );
    207          #endif // !defined ( ZCL_STANDALONE )
    208          
    209          #if defined ( ZCL_DISCOVER )
    210            static zclCmdRecsList_t *zclFindCmdRecsList( uint8 endpoint );
    211          #endif
    212          
    213          zclAttrRecsList *zclFindAttrRecsList( uint8 endpoint );
    214          static zclOptionRec_t *zclFindClusterOption( uint8 endpoint, uint16 clusterID );
    215          static uint8 zclGetClusterOption( uint8 endpoint, uint16 clusterID );
    216          static void zclSetSecurityOption( uint8 endpoint, uint16 clusterID, uint8 enable );
    217          
    218          static uint8 zcl_DeviceOperational( uint8 srcEP, uint16 clusterID, uint8 frameType, uint8 cmd, uint16 profileID );
    219          
    220          #if defined ( ZCL_READ ) || defined ( ZCL_WRITE )
    221          static zclReadWriteCB_t zclGetReadWriteCB( uint8 endpoint );
    222          static zclAuthorizeCB_t zclGetAuthorizeCB( uint8 endpoint );
    223          #endif // ZCL_READ || ZCL_WRITE
    224          
    225          #ifdef ZCL_READ
    226          ZStatus_t zclReadAttrData( uint8 *pAttrData, zclAttrRec_t *pAttr, uint16 *pDataLen );
    227          static uint16 zclGetAttrDataLengthUsingCB( uint8 endpoint, uint16 clusterID, uint16 attrId );
    228          static ZStatus_t zclReadAttrDataUsingCB( uint8 endpoint, uint16 clusterId, uint16 attrId,
    229                                                   uint8 *pAttrData, uint16 *pDataLen );
    230          static ZStatus_t zclAuthorizeRead( uint8 endpoint, afAddrType_t *srcAddr, zclAttrRec_t *pAttr );
    231          static void *zclParseInReadRspCmd( zclParseCmd_t *pCmd );
    232          static uint8 zclProcessInReadCmd( zclIncoming_t *pInMsg );
    233          #endif // ZCL_READ
    234          
    235          #ifdef ZCL_WRITE
    236          static ZStatus_t zclWriteAttrData( uint8 endpoint, afAddrType_t *srcAddr,
    237                                             zclAttrRec_t *pAttr, zclWriteRec_t *pWriteRec );
    238          static ZStatus_t zclWriteAttrDataUsingCB( uint8 endpoint, afAddrType_t *srcAddr,
    239                                                    zclAttrRec_t *pAttr, uint8 *pAttrData );
    240          static ZStatus_t zclAuthorizeWrite( uint8 endpoint, afAddrType_t *srcAddr, zclAttrRec_t *pAttr );
    241          static void *zclParseInWriteRspCmd( zclParseCmd_t *pCmd );
    242          static uint8 zclProcessInWriteCmd( zclIncoming_t *pInMsg );
    243          static uint8 zclProcessInWriteUndividedCmd( zclIncoming_t *pInMsg );
    244          #endif // ZCL_WRITE
    245          
    246          #ifdef ZCL_REPORT_CONFIGURING_DEVICE
    247          static void *zclParseInConfigReportRspCmd( zclParseCmd_t *pCmd );
    248          static void *zclParseInReadReportCfgRspCmd( zclParseCmd_t *pCmd );
    249          #endif
    250          
    251          static void *zclParseInDefaultRspCmd( zclParseCmd_t *pCmd );
    252          
    253          #ifdef ZCL_DISCOVER
    254          static uint8 zclFindNextCmdRec( uint8 endpoint, uint16 clusterID, uint8 commandID, uint8 direction, uint8 *pCmdID, zclCommandRec_t *pCmd );
    255          static uint8 zclFindNextAttrRec( uint8 endpoint, uint16 clusterID, uint8 direction, uint16 *attrId, zclAttrRec_t *pAttr );
    256          static void *zclParseInDiscCmdsRspCmd( zclParseCmd_t *pCmd );
    257          static void *zclParseInDiscAttrsRspCmd( zclParseCmd_t *pCmd );
    258          static void *zclParseInDiscAttrsExtRspCmd( zclParseCmd_t *pCmd );
    259          static uint8 zclProcessInDiscCmd( zclIncoming_t *pInMsg );
    260          static uint8 zclProcessInDiscAttrs( zclIncoming_t *pInMsg );
    261          static void zclProcessInDiscAttrsCmd( zclIncoming_t *pInMsg, zclDiscoverAttrsCmd_t *pDiscoverCmd, uint8 attrLenBuf );
    262          static void zclProcessInDiscAttrsExtCmd( zclIncoming_t *pInMsg, zclDiscoverAttrsCmd_t *pDiscoverCmd, uint8 attrLenBuf );
    263          #endif // ZCL_DISCOVER
    264          
    265          /*********************************************************************
    266           * Parse Profile Command Function Table
    267           */
    268          

   \                                 In  segment CODE_C, align 1
    269          static CONST zclCmdItems_t zclCmdTable[] =
   \                     zclCmdTable:
   \   000000   ....         DW `??zclParseInReadCmd::?relay`
   \   000002   ....         DW `??zclProcessInReadCmd::?relay`
   \   000004   ....         DW `??zclParseInReadRspCmd::?relay`
   \   000006   ....         DW `??zcl_HandleExternal::?relay`
   \   000008   ....         DW `??zclParseInWriteCmd::?relay`
   \   00000A   ....         DW `??zclProcessInWriteCmd::?relay`
   \   00000C   ....         DW `??zclParseInWriteCmd::?relay`
   \   00000E   ....         DW `??zclProcessInWriteUndividedCmd::?relay`
   \   000010   ....         DW `??zclParseInWriteRspCmd::?relay`
   \   000012   ....         DW `??zcl_HandleExternal::?relay`
   \   000014   ....         DW `??zclParseInWriteCmd::?relay`
   \   000016   ....         DW `??zclProcessInWriteCmd::?relay`
   \   000018   0000         DW 0H
   \   00001A   0000         DW 0H
   \   00001C   0000         DW 0H
   \   00001E   0000         DW 0H
   \   000020   0000         DW 0H
   \   000022   0000         DW 0H
   \   000024   0000         DW 0H
   \   000026   0000         DW 0H
   \   000028   0000         DW 0H
   \   00002A   0000         DW 0H
   \   00002C   ....         DW `??zclParseInDefaultRspCmd::?relay`
   \   00002E   ....         DW `??zcl_HandleExternal::?relay`
   \   000030   ....         DW `??zclParseInDiscAttrsCmd::?relay`
   \   000032   ....         DW `??zclProcessInDiscAttrs::?relay`
   \   000034   ....         DW `??zclParseInDiscAttrsRspCmd::?relay`
   \   000036   ....         DW `??zcl_HandleExternal::?relay`
   \   000038   0000         DW 0H
   \   00003A   0000         DW 0H
   \   00003C   0000         DW 0H
   \   00003E   0000         DW 0H
   \   000040   0000         DW 0H
   \   000042   0000         DW 0H
   \   000044   ....         DW `??zclParseInDiscCmdsCmd::?relay`
   \   000046   ....         DW `??zclProcessInDiscCmd::?relay`
   \   000048   ....         DW `??zclParseInDiscCmdsRspCmd::?relay`
   \   00004A   ....         DW `??zcl_HandleExternal::?relay`
   \   00004C   ....         DW `??zclParseInDiscCmdsCmd::?relay`
   \   00004E   ....         DW `??zclProcessInDiscCmd::?relay`
   \   000050   ....         DW `??zclParseInDiscCmdsRspCmd::?relay`
   \   000052   ....         DW `??zcl_HandleExternal::?relay`
   \   000054   ....         DW `??zclParseInDiscAttrsCmd::?relay`
   \   000056   ....         DW `??zclProcessInDiscAttrs::?relay`
   \   000058   ....         DW `??zclParseInDiscAttrsExtRspCmd::?relay`
   \   00005A   ....         DW `??zcl_HandleExternal::?relay`
    270          {
    271          #ifdef ZCL_READ
    272            /* ZCL_CMD_READ */                { zclParseInReadCmd,             zclProcessInReadCmd             },
    273            /* ZCL_CMD_READ_RSP */            { zclParseInReadRspCmd,          zcl_HandleExternal              },
    274          #else
    275            /* ZCL_CMD_READ */                { (zclParseInProfileCmd_t)NULL,  (zclProcessInProfileCmd_t)NULL  },
    276            /* ZCL_CMD_READ_RSP */            { (zclParseInProfileCmd_t)NULL,  (zclProcessInProfileCmd_t)NULL  },
    277          #endif // ZCL_READ
    278          
    279          #ifdef ZCL_WRITE
    280            /* ZCL_CMD_WRITE */               { zclParseInWriteCmd,            zclProcessInWriteCmd            },
    281            /* ZCL_CMD_WRITE_UNDIVIDED */     { zclParseInWriteCmd,            zclProcessInWriteUndividedCmd   },
    282            /* ZCL_CMD_WRITE_RSP */           { zclParseInWriteRspCmd,         zcl_HandleExternal              },
    283            /* ZCL_CMD_WRITE_NO_RSP */        { zclParseInWriteCmd,            zclProcessInWriteCmd            },
    284          #else
    285            /* ZCL_CMD_WRITE */               { (zclParseInProfileCmd_t)NULL,  (zclProcessInProfileCmd_t)NULL  },
    286            /* ZCL_CMD_WRITE_UNDIVIDED */     { (zclParseInProfileCmd_t)NULL,  (zclProcessInProfileCmd_t)NULL  },
    287            /* ZCL_CMD_WRITE_RSP */           { (zclParseInProfileCmd_t)NULL,  (zclProcessInProfileCmd_t)NULL  },
    288            /* ZCL_CMD_WRITE_NO_RSP */        { (zclParseInProfileCmd_t)NULL,  (zclProcessInProfileCmd_t)NULL  },
    289          #endif // ZCL_WRITE
    290          
    291          #ifdef ZCL_REPORTING_DEVICE
    292              /* ZCL_CMD_CONFIG_REPORT */       { zclParseInConfigReportCmd,     zcl_HandleExternal              },
    293          #else
    294              /* ZCL_CMD_CONFIG_REPORT */       { (zclParseInProfileCmd_t)NULL,  (zclProcessInProfileCmd_t)NULL  },
    295          #endif
    296          
    297          #ifdef ZCL_REPORT_CONFIGURING_DEVICE
    298              /* ZCL_CMD_CONFIG_REPORT_RSP */   { zclParseInConfigReportRspCmd,  zcl_HandleExternal              },
    299          #else
    300              /* ZCL_CMD_CONFIG_REPORT_RSP */   { (zclParseInProfileCmd_t)NULL,  (zclProcessInProfileCmd_t)NULL  },
    301          #endif
    302          
    303          #ifdef ZCL_REPORTING_DEVICE
    304              /* ZCL_CMD_READ_REPORT_CFG */     { zclParseInReadReportCfgCmd,    zcl_HandleExternal              },
    305          #else
    306              /* ZCL_CMD_READ_REPORT_CFG */     { (zclParseInProfileCmd_t)NULL,  (zclProcessInProfileCmd_t)NULL  },
    307          #endif
    308          
    309          #ifdef ZCL_REPORT_CONFIGURING_DEVICE
    310              /* ZCL_CMD_READ_REPORT_CFG_RSP */ { zclParseInReadReportCfgRspCmd, zcl_HandleExternal              },
    311          #else
    312              /* ZCL_CMD_READ_REPORT_CFG_RSP */ { (zclParseInProfileCmd_t)NULL,  (zclProcessInProfileCmd_t)NULL  },
    313          #endif
    314          
    315          #ifdef ZCL_REPORT_DESTINATION_DEVICE
    316              /* ZCL_CMD_REPORT */              { zclParseInReportCmd,           zcl_HandleExternal              },
    317          #else
    318              /* ZCL_CMD_REPORT */              { (zclParseInProfileCmd_t)NULL,  (zclProcessInProfileCmd_t)NULL  },
    319          #endif
    320          
    321            /* ZCL_CMD_DEFAULT_RSP */         { zclParseInDefaultRspCmd,       zcl_HandleExternal              },
    322          
    323          #ifdef ZCL_DISCOVER
    324            /* ZCL_CMD_DISCOVER_ATTRS */                { zclParseInDiscAttrsCmd,         zclProcessInDiscAttrs           },
    325            /* ZCL_CMD_DISCOVER_ATTRS_RSP */            { zclParseInDiscAttrsRspCmd,      zcl_HandleExternal              },
    326            /* *not supported* READ_ATTRS_STRCT */      { NULL,                           (zclProcessInProfileCmd_t)NULL  },
    327            /* *not supported* WRITE_ATTRS_STRCT */     { NULL,                           (zclProcessInProfileCmd_t)NULL  },
    328            /* *not supported* WRITE_ATTRS_STRCT_RSP */ { NULL,                           (zclProcessInProfileCmd_t)NULL  },
    329            /* ZCL_CMD_DISCOVER_CMDS_RECEIVED */        { zclParseInDiscCmdsCmd,          zclProcessInDiscCmd             },
    330            /* ZCL_CMD_DISCOVER_CMDS_RECEIVED_RSP */    { zclParseInDiscCmdsRspCmd,       zcl_HandleExternal              },
    331            /* ZCL_CMD_DISCOVER_CMDS_GEN */             { zclParseInDiscCmdsCmd,          zclProcessInDiscCmd             },
    332            /* ZCL_CMD_DISCOVER_CMDS_GEN_RSP */         { zclParseInDiscCmdsRspCmd,       zcl_HandleExternal              },
    333            /* ZCL_CMD_DISCOVER_ATTRS_EXT */            { zclParseInDiscAttrsCmd,         zclProcessInDiscAttrs           },
    334            /* ZCL_CMD_DISCOVER_ATTRS_EXT_RSP */        { zclParseInDiscAttrsExtRspCmd,   zcl_HandleExternal              },
    335          #else
    336            /* ZCL_CMD_DISCOVER_ATTRS */                { (zclParseInProfileCmd_t)NULL,    (zclProcessInProfileCmd_t)NULL  },
    337            /* ZCL_CMD_DISCOVER_ATTRS_RSP */            { (zclParseInProfileCmd_t)NULL,   (zclProcessInProfileCmd_t)NULL  },
    338            /* *not supported* READ_ATTRS_STRCT */      { (zclParseInProfileCmd_t)NULL,   (zclProcessInProfileCmd_t)NULL  },
    339            /* *not supported* WRITE_ATTRS_STRCT */     { (zclParseInProfileCmd_t)NULL,   (zclProcessInProfileCmd_t)NULL  },
    340            /* *not supported* WRITE_ATTRS_STRCT_RSP */ { (zclParseInProfileCmd_t)NULL,   (zclProcessInProfileCmd_t)NULL  },
    341            /* ZCL_CMD_DISCOVER_CMDS_RECEIVED */        { (zclParseInProfileCmd_t)NULL,   (zclProcessInProfileCmd_t)NULL  },
    342            /* ZCL_CMD_DISCOVER_CMDS_RECEIVED_RSP */    { (zclParseInProfileCmd_t)NULL,   (zclProcessInProfileCmd_t)NULL  },
    343            /* ZCL_CMD_DISCOVER_CMDS_GEN */             { (zclParseInProfileCmd_t)NULL,   (zclProcessInProfileCmd_t)NULL  },
    344            /* ZCL_CMD_DISCOVER_CMDS_GEN_RSP */         { (zclParseInProfileCmd_t)NULL,   (zclProcessInProfileCmd_t)NULL  },
    345            /* ZCL_CMD_DISCOVER_ATTRS_EXT */            { (zclParseInProfileCmd_t)NULL,   (zclProcessInProfileCmd_t)NULL  },
    346            /* ZCL_CMD_DISCOVER_ATTRS_EXT_RSP */        { (zclParseInProfileCmd_t)NULL,   (zclProcessInProfileCmd_t)NULL  },
    347          #endif // ZCL_DISCOVER
    348          };
    349          
    350          /*********************************************************************
    351           * PUBLIC FUNCTIONS
    352           *********************************************************************/
    353          
    354          #if !defined ( ZCL_STANDALONE )
    355          /*********************************************************************
    356           * @fn          zcl_Init
    357           *
    358           * @brief       Initialization function for the zcl layer.
    359           *
    360           * @param       task_id - ZCL task id
    361           *
    362           * @return      none
    363           */

   \                                 In  segment BANKED_CODE, align 1, keep-with-next
    364          void zcl_Init( uint8 task_id )
   \                     zcl_Init:
    365          {
   \   000000   C082         PUSH      DPL
   \   000002   C083         PUSH      DPH
   \   000004                ; Saved register size: 2
   \   000004                ; Auto size: 0
    366            zcl_TaskID = task_id;
   \   000004   E9           MOV       A,R1
   \   000005   90....       MOV       DPTR,#zcl_TaskID
   \   000008   F0           MOVX      @DPTR,A
    367          }
   \   000009   02....       LJMP      ?Subroutine0 & 0xFFFF

   \                                 In  segment BANKED_CODE, align 1, keep-with-next
   \                     ?Subroutine0:
   \   000000   D083         POP       DPH
   \   000002   D082         POP       DPL
   \   000004   02....       LJMP      ?BRET
    368          #endif
    369          
    370          #if !defined ( ZCL_STANDALONE )
    371          /*********************************************************************
    372           * @fn          zcl_event_loop
    373           *
    374           * @brief       Event Loop Processor for zcl.
    375           *
    376           * @param       task_id - task id
    377           * @param       events - event bitmap
    378           *
    379           * @return      unprocessed events
    380           */

   \                                 In  segment BANKED_CODE, align 1, keep-with-next
    381          uint16 zcl_event_loop( uint8 task_id, uint16 events )
   \                     zcl_event_loop:
    382          {
   \   000000                REQUIRE ?V0
   \   000000                REQUIRE ?V1
   \   000000                REQUIRE ?V2
   \   000000                REQUIRE ?V3
   \   000000                REQUIRE ?V4
   \   000000                REQUIRE ?V5
   \   000000                REQUIRE ?V6
   \   000000                REQUIRE ?V7
   \   000000                REQUIRE ?V8
   \   000000                REQUIRE ?V9
   \   000000   74EE         MOV       A,#-0x12
   \   000002   12....       LCALL     ?BANKED_ENTER_XDATA
   \   000005                ; Saved register size: 18
   \   000005                ; Auto size: 74
   \   000005   74B6         MOV       A,#-0x4a
   \   000007   12....       LCALL     ?ALLOC_XSTACK8
   \   00000A   8A..         MOV       ?V0,R2
   \   00000C   8B..         MOV       ?V1,R3
    383            uint8 *msgPtr;
    384          
    385            (void)task_id;  // Intentionally unreferenced parameter
    386          
    387            if ( events & SYS_EVENT_MSG )
   \   00000E   EB           MOV       A,R3
   \   00000F   5480         ANL       A,#0x80
   \   000011   604E         JZ        ??zcl_event_loop_0
    388            {
    389              msgPtr = osal_msg_receive( zcl_TaskID );
   \   000013                ; Setup parameters for call to function osal_msg_receive
   \   000013   800E         SJMP      ??zcl_event_loop_1
    390              while ( msgPtr != NULL )
    391              {
    392                uint8 dealloc = TRUE;
    393          
    394                if ( *msgPtr == AF_INCOMING_MSG_CMD )
    395                {
    396                  zcl_ProcessMessageMSG( (afIncomingMSGPacket_t *)msgPtr );
   \                     ??zcl_event_loop_2:
   \   000015                ; Setup parameters for call to function zcl_ProcessMessageMSG
   \   000015   EE           MOV       A,R6
   \   000016   FA           MOV       R2,A
   \   000017   EF           MOV       A,R7
   \   000018   FB           MOV       R3,A
   \   000019   12....       LCALL     `??zcl_ProcessMessageMSG::?relay`; Banked call to: zcl_ProcessMessageMSG
    397                }
    398                else
    399                {
    400                  uint8 taskID;
    401                  taskID = zcl_getExternalFoundationHandler( (afIncomingMSGPacket_t *)msgPtr );
    402          
    403                  if ( taskID != TASK_NO_TASK )
    404                  {
    405                    // send it to another task to process.
    406                    osal_msg_send( taskID, msgPtr );
    407                    dealloc = FALSE;
    408                  }
    409                }
    410          
    411                // Release the memory
    412                if ( dealloc )
    413                {
    414                  osal_msg_deallocate( msgPtr );
   \                     ??zcl_event_loop_3:
   \   00001C                ; Setup parameters for call to function osal_msg_deallocate
   \   00001C   EE           MOV       A,R6
   \   00001D   FA           MOV       R2,A
   \   00001E   EF           MOV       A,R7
   \   00001F   FB           MOV       R3,A
   \   000020   12....       LCALL     `??osal_msg_deallocate::?relay`; Banked call to: osal_msg_deallocate
    415                }
    416          
    417                // Next
    418                msgPtr = osal_msg_receive( zcl_TaskID );
   \                     ??zcl_event_loop_1:
   \   000023                ; Setup parameters for call to function osal_msg_receive
   \   000023   90....       MOV       DPTR,#zcl_TaskID
   \   000026   E0           MOVX      A,@DPTR
   \   000027   F9           MOV       R1,A
   \   000028   12....       LCALL     `??osal_msg_receive::?relay`; Banked call to: osal_msg_receive
   \   00002B   8A..         MOV       ?V2,R2
   \   00002D   8B..         MOV       ?V3,R3
   \   00002F   AE..         MOV       R6,?V2
   \   000031   AF..         MOV       R7,?V3
   \   000033   EE           MOV       A,R6
   \   000034   4F           ORL       A,R7
   \   000035   6020         JZ        ??zcl_event_loop_4
   \   000037   8E82         MOV       DPL,R6
   \   000039   8F83         MOV       DPH,R7
   \   00003B   E0           MOVX      A,@DPTR
   \   00003C   641A         XRL       A,#0x1a
   \   00003E   60D5         JZ        ??zcl_event_loop_2
   \   000040                ; Setup parameters for call to function zcl_getExternalFoundationHandler
   \   000040   EE           MOV       A,R6
   \   000041   FA           MOV       R2,A
   \   000042   EF           MOV       A,R7
   \   000043   FB           MOV       R3,A
   \   000044   12....       LCALL     `??zcl_getExternalFoundationHandler::?relay`; Banked call to: zcl_getExternalFoundationHandler
   \   000047   E9           MOV       A,R1
   \   000048   F9           MOV       R1,A
   \   000049   74FF         MOV       A,#-0x1
   \   00004B   69           XRL       A,R1
   \   00004C   60CE         JZ        ??zcl_event_loop_3
   \   00004E                ; Setup parameters for call to function osal_msg_send
   \   00004E   EE           MOV       A,R6
   \   00004F   FA           MOV       R2,A
   \   000050   EF           MOV       A,R7
   \   000051   FB           MOV       R3,A
   \   000052   12....       LCALL     `??osal_msg_send::?relay`; Banked call to: osal_msg_send
   \   000055   80CC         SJMP      ??zcl_event_loop_1
    419              }
    420          
    421              // return unprocessed events
    422              return (events ^ SYS_EVENT_MSG);
   \                     ??zcl_event_loop_4:
   \   000057   AA..         MOV       R2,?V0
   \   000059   E5..         MOV       A,?V1
   \   00005B   6480         XRL       A,#0x80
   \   00005D   FB           MOV       R3,A
   \   00005E   02....       LJMP      ??zcl_event_loop_5 & 0xFFFF
    423            }
    424          
    425          #if !defined (DISABLE_GREENPOWER_BASIC_PROXY) && (ZG_BUILD_RTR_TYPE)
    426            if ( events & ZCL_DATABUF_SEND )
   \                     ??zcl_event_loop_0:
   \   000061   EA           MOV       A,R2
   \   000062   5420         ANL       A,#0x20
   \   000064   7003         JNZ       $+5
   \   000066   02....       LJMP      ??zcl_event_loop_6 & 0xFFFF
    427            {
    428              gpNotificationMsg_t *gpNotification = NULL;
    429              gpCmdPayloadMsg_t *pCmdPayloadMsgCurr = NULL;
    430              gpd_ID_t gpd_ID;
    431              uint8 *pgpdid;
    432              uint8 entry[PROXY_TBL_ENTRY_LEN];
    433              uint8 appId;
    434              uint8 nwkSeqNum;
    435              uint8 apsSecNum;
    436              uint16 nwkAddr;
    437              
    438              gpNotification = gp_GetHeadNotificationMsg( );
   \   000069                ; Setup parameters for call to function gp_GetHeadNotificationMsg
   \   000069   12....       LCALL     `??gp_GetHeadNotificationMsg::?relay`; Banked call to: gp_GetHeadNotificationMsg
   \   00006C   8A..         MOV       ?V2,R2
   \   00006E   8B..         MOV       ?V3,R3
    439              
    440              if ( gpNotification == NULL )
   \   000070   EA           MOV       A,R2
   \   000071   45..         ORL       A,?V3
   \   000073   7003         JNZ       $+5
   \   000075   02....       LJMP      ??zcl_event_loop_6 & 0xFFFF
    441              {
    442                return 0;
    443              }
    444              
    445              pCmdPayloadMsgCurr = ( gpCmdPayloadMsg_t* ) gpNotification->pMsg ;
   \   000078   EA           MOV       A,R2
   \   000079   240D         ADD       A,#0xd
   \   00007B   F582         MOV       DPL,A
   \   00007D   E4           CLR       A
   \   00007E   35..         ADDC      A,?V3
   \   000080   F583         MOV       DPH,A
   \   000082   12....       LCALL     ??Subroutine188_0 & 0xFFFF
    446              appId = PROXY_TBL_GET_APPLICTION_ID((uint16)*pCmdPayloadMsgCurr->pMsg);
   \                     ??CrossCallReturnLabel_398:
   \   000085   EE           MOV       A,R6
   \   000086   2402         ADD       A,#0x2
   \   000088   12....       LCALL     ?Subroutine115 & 0xFFFF
   \                     ??CrossCallReturnLabel_198:
   \   00008B   12....       LCALL     ?Subroutine103 & 0xFFFF
   \                     ??CrossCallReturnLabel_177:
   \   00008E   E0           MOVX      A,@DPTR
   \   00008F   5407         ANL       A,#0x7
   \   000091   F8           MOV       R0,A
    447              
    448              // To save the NIB nwk sequense number and use the GP alias nwk sequence number
    449              // for the GP notification
    450              nwkSeqNum = _NIB.SequenceNum;
   \   000092   90....       MOV       DPTR,#_NIB
   \   000095   E0           MOVX      A,@DPTR
   \   000096   F5..         MOV       ?V7,A
    451              _NIB.SequenceNum = pCmdPayloadMsgCurr->secNum;
   \   000098   8E82         MOV       DPL,R6
   \   00009A   8F83         MOV       DPH,R7
   \   00009C   E0           MOVX      A,@DPTR
   \   00009D   90....       MOV       DPTR,#_NIB
   \   0000A0   F0           MOVX      @DPTR,A
    452              
    453              // To save the NIB nwk address and use the GP alias nwk address for the GP notification
    454              nwkAddr = _NIB.nwkDevAddress;
   \   0000A1   90....       MOV       DPTR,#_NIB + 20
   \   0000A4   12....       LCALL     ?Subroutine104 & 0xFFFF
    455              
    456              if( appId == GP_OPT_APP_ID_GPD )
   \                     ??CrossCallReturnLabel_179:
   \   0000A7   702F         JNZ       ??zcl_event_loop_7
    457              {
    458                pgpdid = pCmdPayloadMsgCurr->pMsg + sizeof( uint16 );
   \   0000A9   12....       LCALL     ?Subroutine75 & 0xFFFF
    459                
    460                osal_memcpy( &_NIB.nwkDevAddress, pgpdid, sizeof(uint16) );
   \                     ??CrossCallReturnLabel_122:
   \   0000AC   75..00       MOV       ?V6,#0x0
   \   0000AF                ; Setup parameters for call to function osal_memcpy
   \   0000AF   78..         MOV       R0,#?V4
   \   0000B1   12....       LCALL     ?PUSH_XSTACK_I_THREE
   \   0000B4   7C02         MOV       R4,#0x2
   \   0000B6   7D00         MOV       R5,#0x0
   \   0000B8   7A..         MOV       R2,#(_NIB + 20) & 0xff
   \   0000BA   7B..         MOV       R3,#((_NIB + 20) >> 8) & 0xff
   \   0000BC   12....       LCALL     `??osal_memcpy::?relay`; Banked call to: osal_memcpy
   \   0000BF   7403         MOV       A,#0x3
   \   0000C1   12....       LCALL     ?DEALLOC_XSTACK8
    461                gpd_ID.AppID = GP_OPT_APP_ID_GPD;
   \   0000C4   85..82       MOV       DPL,?XSP + 0
   \   0000C7   85..83       MOV       DPH,?XSP + 1
   \   0000CA   E4           CLR       A
   \   0000CB   F0           MOVX      @DPTR,A
    462                osal_memcpy( &gpd_ID.GPDId.SrcID, pgpdid, sizeof( uint32 ) );
   \   0000CC                ; Setup parameters for call to function osal_memcpy
   \   0000CC   78..         MOV       R0,#?V4
   \   0000CE   12....       LCALL     ?PUSH_XSTACK_I_THREE
   \   0000D1   7C04         MOV       R4,#0x4
   \   0000D3   7D00         MOV       R5,#0x0
   \   0000D5   EC           MOV       A,R4
   \   0000D6   8045         SJMP      ??zcl_event_loop_8
    463              }
    464              else if( appId == GP_OPT_APP_ID_IEEE )
   \                     ??zcl_event_loop_7:
   \   0000D8   7402         MOV       A,#0x2
   \   0000DA   68           XRL       A,R0
   \   0000DB   704F         JNZ       ??zcl_event_loop_9
    465              {
    466                pgpdid = pCmdPayloadMsgCurr->pMsg + Z_EXTADDR_LEN;
    467                
    468                osal_revmemcpy( &_NIB.nwkDevAddress,(pCmdPayloadMsgCurr->pMsg + Z_EXTADDR_LEN), sizeof(uint16) );
   \   0000DD                ; Setup parameters for call to function osal_revmemcpy
   \   0000DD   85..82       MOV       DPL,?V0
   \   0000E0   85..83       MOV       DPH,?V1
   \   0000E3   E0           MOVX      A,@DPTR
   \   0000E4   2408         ADD       A,#0x8
   \   0000E6   F5..         MOV       ?V4,A
   \   0000E8   A3           INC       DPTR
   \   0000E9   E0           MOVX      A,@DPTR
   \   0000EA   3400         ADDC      A,#0x0
   \   0000EC   F5..         MOV       ?V5,A
   \   0000EE   75..00       MOV       ?V6,#0x0
   \   0000F1   78..         MOV       R0,#?V4
   \   0000F3   12....       LCALL     ?PUSH_XSTACK_I_THREE
   \   0000F6   7C02         MOV       R4,#0x2
   \   0000F8   7D00         MOV       R5,#0x0
   \   0000FA   7A..         MOV       R2,#(_NIB + 20) & 0xff
   \   0000FC   7B..         MOV       R3,#((_NIB + 20) >> 8) & 0xff
   \   0000FE   12....       LCALL     `??osal_revmemcpy::?relay`; Banked call to: osal_revmemcpy
   \   000101   7403         MOV       A,#0x3
   \   000103   12....       LCALL     ?DEALLOC_XSTACK8
    469                
    470                gpd_ID.AppID = GP_OPT_APP_ID_IEEE;
   \   000106   85..82       MOV       DPL,?XSP + 0
   \   000109   85..83       MOV       DPH,?XSP + 1
   \   00010C   7402         MOV       A,#0x2
   \   00010E   F0           MOVX      @DPTR,A
    471          
    472                pgpdid = pCmdPayloadMsgCurr->pMsg + sizeof( uint16 );
    473                osal_memcpy( gpd_ID.GPDId.GPDExtAddr, pgpdid, Z_EXTADDR_LEN );
   \   00010F                ; Setup parameters for call to function osal_memcpy
   \   00010F   12....       LCALL     ?Subroutine75 & 0xFFFF
    474              }
   \                     ??CrossCallReturnLabel_123:
   \   000112   78..         MOV       R0,#?V4
   \   000114   12....       LCALL     ?PUSH_XSTACK_I_THREE
   \   000117   7C08         MOV       R4,#0x8
   \   000119   7D00         MOV       R5,#0x0
   \   00011B   7404         MOV       A,#0x4
   \                     ??zcl_event_loop_8:
   \   00011D   12....       LCALL     ?XSTACK_DISP0_8
   \   000120   AA82         MOV       R2,DPL
   \   000122   AB83         MOV       R3,DPH
   \   000124   12....       LCALL     `??osal_memcpy::?relay`; Banked call to: osal_memcpy
   \   000127   7403         MOV       A,#0x3
   \   000129   12....       LCALL     ?DEALLOC_XSTACK8
    475              
    476              gp_getProxyTableByGpId(&gpd_ID, entry, NULL);
   \                     ??zcl_event_loop_9:
   \   00012C                ; Setup parameters for call to function gp_getProxyTableByGpId
   \   00012C   E4           CLR       A
   \   00012D   F5..         MOV       ?V4,A
   \   00012F   F5..         MOV       ?V5,A
   \   000131   78..         MOV       R0,#?V4
   \   000133   12....       LCALL     ?PUSH_XSTACK_I_TWO
   \   000136   740B         MOV       A,#0xb
   \   000138   12....       LCALL     ?XSTACK_DISP102_8
   \   00013B   7402         MOV       A,#0x2
   \   00013D   12....       LCALL     ?XSTACK_DISP101_8
   \   000140   12....       LCALL     `??gp_getProxyTableByGpId::?relay`; Banked call to: gp_getProxyTableByGpId
   \   000143   7402         MOV       A,#0x2
   \   000145   12....       LCALL     ?DEALLOC_XSTACK8
    477          
    478              if ( PROXY_TBL_GET_ASSIGNED_ALIAS( entry[PROXY_TBL_ENTRY_OPT + 1] ) )
   \   000148   740A         MOV       A,#0xa
   \   00014A   12....       LCALL     ?XSTACK_DISP0_8
   \   00014D   E0           MOVX      A,@DPTR
   \   00014E   A2E5         MOV       C,0xE0 /* A   */.5
   \   000150   502C         JNC       ??zcl_event_loop_10
    479              {
    480                _NIB.nwkDevAddress = 0;
   \   000152   90....       MOV       DPTR,#_NIB + 20
   \   000155   E4           CLR       A
   \   000156   F0           MOVX      @DPTR,A
   \   000157   A3           INC       DPTR
   \   000158   F0           MOVX      @DPTR,A
    481                osal_memcpy( (uint8*)&_NIB.nwkDevAddress, &entry[PROXY_TBL_ENTRY_ALIAS], sizeof(uint16));
   \   000159                ; Setup parameters for call to function osal_memcpy
   \   000159   7414         MOV       A,#0x14
   \   00015B   12....       LCALL     ?XSTACK_DISP0_8
   \   00015E   A982         MOV       R1,DPL
   \   000160   AA83         MOV       R2,DPH
   \   000162   89..         MOV       ?V4,R1
   \   000164   8A..         MOV       ?V5,R2
   \   000166   75..00       MOV       ?V6,#0x0
   \   000169   78..         MOV       R0,#?V4
   \   00016B   12....       LCALL     ?PUSH_XSTACK_I_THREE
   \   00016E   7C02         MOV       R4,#0x2
   \   000170   7D00         MOV       R5,#0x0
   \   000172   7A..         MOV       R2,#(_NIB + 20) & 0xff
   \   000174   7B..         MOV       R3,#((_NIB + 20) >> 8) & 0xff
   \   000176   12....       LCALL     `??osal_memcpy::?relay`; Banked call to: osal_memcpy
   \   000179   7403         MOV       A,#0x3
   \   00017B   12....       LCALL     ?DEALLOC_XSTACK8
    482              }
    483              
    484              // save aps sequence number
    485              apsSecNum = APS_Counter;
   \                     ??zcl_event_loop_10:
   \   00017E   90....       MOV       DPTR,#APS_Counter
   \   000181   E0           MOVX      A,@DPTR
   \   000182   F5..         MOV       ?V4,A
    486              APS_Counter = pCmdPayloadMsgCurr->secNum;
   \   000184   8E82         MOV       DPL,R6
   \   000186   8F83         MOV       DPH,R7
   \   000188   E0           MOVX      A,@DPTR
   \   000189   90....       MOV       DPTR,#APS_Counter
   \   00018C   F0           MOVX      @DPTR,A
    487              
    488              // Set nwk radius for zcl frame
    489              if ( entry[PROXY_TBL_ENTRY_GRP_RAD] != 0xFF)
   \   00018D   7448         MOV       A,#0x48
   \   00018F   12....       LCALL     ?XSTACK_DISP0_8
   \   000192   E0           MOVX      A,@DPTR
   \   000193   F8           MOV       R0,A
   \   000194   74FF         MOV       A,#-0x1
   \   000196   68           XRL       A,R0
   \   000197   6005         JZ        ??zcl_event_loop_11
    490              {
    491                zcl_radius =  entry[PROXY_TBL_ENTRY_GRP_RAD];
   \   000199   E8           MOV       A,R0
   \   00019A   90....       MOV       DPTR,#zcl_radius
   \   00019D   F0           MOVX      @DPTR,A
    492              }
    493              
    494              zcl_SendCommand( GREEN_POWER_INTERNAL_ENDPOINT, &gpNotification->addr, ZCL_CLUSTER_ID_GREEN_POWER,
    495                                    COMMAND_GP_NOTIFICATION, TRUE, ZCL_FRAME_CLIENT_SERVER_DIR,
    496                                    TRUE, 0,  bdb_getZCLFrameCounter(), pCmdPayloadMsgCurr->lenght, pCmdPayloadMsgCurr->pMsg );
   \                     ??zcl_event_loop_11:
   \   00019E                ; Setup parameters for call to function bdb_getZCLFrameCounter
   \   00019E   12....       LCALL     `??bdb_getZCLFrameCounter::?relay`; Banked call to: bdb_getZCLFrameCounter
   \   0001A1   E9           MOV       A,R1
   \   0001A2   F9           MOV       R1,A
   \   0001A3                ; Setup parameters for call to function zcl_SendCommand
   \   0001A3   85..82       MOV       DPL,?V0
   \   0001A6   85..83       MOV       DPH,?V1
   \   0001A9   12....       LCALL     ?PUSH_XSTACK8_X_TWO
   \   0001AC   8E82         MOV       DPL,R6
   \   0001AE   8F83         MOV       DPH,R7
   \   0001B0   A3           INC       DPTR
   \   0001B1   E0           MOVX      A,@DPTR
   \   0001B2   F5..         MOV       ?V0,A
   \   0001B4   75..00       MOV       ?V1,#0x0
   \   0001B7   78..         MOV       R0,#?V0
   \   0001B9   12....       LCALL     ?PUSH_XSTACK_I_TWO
   \   0001BC   E9           MOV       A,R1
   \   0001BD   F5..         MOV       ?V0,A
   \   0001BF   78..         MOV       R0,#?V0
   \   0001C1   12....       LCALL     ?PUSH_XSTACK_I_ONE
   \   0001C4   E4           CLR       A
   \   0001C5   F5..         MOV       ?V0,A
   \   0001C7   78..         MOV       R0,#?V0
   \   0001C9   12....       LCALL     ?PUSH_XSTACK_I_TWO
   \   0001CC   75..01       MOV       ?V0,#0x1
   \   0001CF   78..         MOV       R0,#?V0
   \   0001D1   12....       LCALL     ?PUSH_XSTACK_I_ONE
   \   0001D4   75..00       MOV       ?V0,#0x0
   \   0001D7   78..         MOV       R0,#?V0
   \   0001D9   12....       LCALL     ?PUSH_XSTACK_I_ONE
   \   0001DC   75..01       MOV       ?V0,#0x1
   \   0001DF   78..         MOV       R0,#?V0
   \   0001E1   12....       LCALL     ?PUSH_XSTACK_I_ONE
   \   0001E4   75..00       MOV       ?V0,#0x0
   \   0001E7   78..         MOV       R0,#?V0
   \   0001E9   12....       LCALL     ?PUSH_XSTACK_I_ONE
   \   0001EC   7C21         MOV       R4,#0x21
   \   0001EE   7D00         MOV       R5,#0x0
   \   0001F0   AA..         MOV       R2,?V2
   \   0001F2   AB..         MOV       R3,?V3
   \   0001F4   79F2         MOV       R1,#-0xe
   \   0001F6   12....       LCALL     `??zcl_SendCommand::?relay`; Banked call to: zcl_SendCommand
   \   0001F9   740B         MOV       A,#0xb
   \   0001FB   12....       LCALL     ?DEALLOC_XSTACK8
    497              
    498              // restore nwk radius
    499              zcl_radius = AF_DEFAULT_RADIUS;
   \   0001FE   90....       MOV       DPTR,#zcl_radius
   \   000201   741E         MOV       A,#0x1e
   \   000203   F0           MOVX      @DPTR,A
    500              
    501              // restore aps sequence number
    502              APS_Counter = apsSecNum;
   \   000204   E5..         MOV       A,?V4
   \   000206   90....       MOV       DPTR,#APS_Counter
   \   000209   F0           MOVX      @DPTR,A
    503               
    504              // Restore the NIB nwk sequence number
    505              _NIB.SequenceNum = nwkSeqNum;
   \   00020A   E5..         MOV       A,?V7
   \   00020C   90....       MOV       DPTR,#_NIB
   \   00020F   F0           MOVX      @DPTR,A
    506              
    507              // Restore the NIB nwk address
    508              _NIB.nwkDevAddress = nwkAddr;
   \   000210   90....       MOV       DPTR,#_NIB + 20
   \   000213   E5..         MOV       A,?V8
   \   000215   F0           MOVX      @DPTR,A
   \   000216   A3           INC       DPTR
   \   000217   E5..         MOV       A,?V9
   \   000219   F0           MOVX      @DPTR,A
    509              
    510              gp_NotificationMsgClean( gp_GetPHeadNotification ( ) );
   \   00021A                ; Setup parameters for call to function gp_GetPHeadNotification
   \   00021A   12....       LCALL     `??gp_GetPHeadNotification::?relay`; Banked call to: gp_GetPHeadNotification
   \   00021D                ; Setup parameters for call to function gp_NotificationMsgClean
   \   00021D   12....       LCALL     `??gp_NotificationMsgClean::?relay`; Banked call to: gp_NotificationMsgClean
    511              
    512              if ( gp_GetHeadNotificationMsg ( ) != NULL )
   \   000220                ; Setup parameters for call to function gp_GetHeadNotificationMsg
   \   000220   12....       LCALL     `??gp_GetHeadNotificationMsg::?relay`; Banked call to: gp_GetHeadNotificationMsg
   \   000223   8B..         MOV       ?V1,R3
   \   000225   EA           MOV       A,R2
   \   000226   45..         ORL       A,?V1
   \   000228   6017         JZ        ??zcl_event_loop_6
    513              {
    514                osal_start_timerEx( zcl_TaskID, ZCL_DATABUF_SEND, 50 );
   \   00022A                ; Setup parameters for call to function osal_start_timerEx
   \   00022A   90....       MOV       DPTR,#__Constant_32
   \   00022D   12....       LCALL     ?PUSH_XSTACK8_X_FOUR
   \   000230   7A20         MOV       R2,#0x20
   \   000232   7B00         MOV       R3,#0x0
   \   000234   90....       MOV       DPTR,#zcl_TaskID
   \   000237   E0           MOVX      A,@DPTR
   \   000238   F9           MOV       R1,A
   \   000239   12....       LCALL     `??osal_start_timerEx::?relay`; Banked call to: osal_start_timerEx
   \   00023C   7404         MOV       A,#0x4
   \   00023E   12....       LCALL     ?DEALLOC_XSTACK8
    515              }
    516            }
    517          #endif
    518          
    519            // Discard unknown events
    520            return 0;
   \                     ??zcl_event_loop_6:
   \   000241   7A00         MOV       R2,#0x0
   \   000243   7B00         MOV       R3,#0x0
   \                     ??zcl_event_loop_5:
   \   000245   744A         MOV       A,#0x4a
   \   000247   12....       LCALL     ?DEALLOC_XSTACK8
   \   00024A   7F0A         MOV       R7,#0xa
   \   00024C   02....       LJMP      ?BANKED_LEAVE_XDATA
    521          }

   \                                 In  segment BANKED_CODE, align 1, keep-with-next
   \                     ?Subroutine75:
   \   000000   85..82       MOV       DPL,?V0
   \   000003   85..83       MOV       DPH,?V1
   \   000006   E0           MOVX      A,@DPTR
   \   000007   2402         ADD       A,#0x2
   \   000009   F5..         MOV       ?V4,A
   \   00000B   A3           INC       DPTR
   \   00000C   E0           MOVX      A,@DPTR
   \   00000D   3400         ADDC      A,#0x0
   \   00000F   F5..         MOV       ?V5,A
   \   000011   22           RET

   \                                 In  segment BANKED_CODE, align 1, keep-with-next
   \                     ?Subroutine104:
   \   000000   E0           MOVX      A,@DPTR
   \   000001   F5..         MOV       ?V8,A
   \   000003   A3           INC       DPTR
   \   000004   E0           MOVX      A,@DPTR
   \   000005   F5..         MOV       ?V9,A
   \   000007   E8           MOV       A,R0
   \   000008   22           RET

   \                                 In  segment BANKED_CODE, align 1, keep-with-next
   \                     ?Subroutine115:
   \   000000   F5..         MOV       ?V0,A
   \   000002   E4           CLR       A
   \   000003   3F           ADDC      A,R7
   \   000004   F5..         MOV       ?V1,A
   \   000006                ; Setup parameters for call to function afFindEndPointDesc
   \   000006   85..82       MOV       DPL,?V0
   \   000009   F583         MOV       DPH,A
   \   00000B   22           RET

   \                                 In  segment BANKED_CODE, align 1, keep-with-next
   \                     ?Subroutine167:
   \   000000   E0           MOVX      A,@DPTR
   \   000001   F8           MOV       R0,A
   \   000002   A3           INC       DPTR
   \   000003   E0           MOVX      A,@DPTR
   \   000004   22           RET

   \                                 In  segment BANKED_CODE, align 1, keep-with-next
   \                     ??Subroutine188_0:
   \   000000   E0           MOVX      A,@DPTR
   \   000001   FE           MOV       R6,A
   \   000002   A3           INC       DPTR
   \   000003   E0           MOVX      A,@DPTR
   \   000004   FF           MOV       R7,A
   \   000005   22           RET

   \                                 In  segment BANKED_CODE, align 1, keep-with-next
   \                     ?Subroutine103:
   \   000000   12....       LCALL     ?Subroutine139 & 0xFFFF
   \                     ??CrossCallReturnLabel_254:
   \   000003   22           RET

   \                                 In  segment BANKED_CODE, align 1, keep-with-next
   \                     ?Subroutine139:
   \   000000   12....       LCALL     ?Subroutine167 & 0xFFFF
   \                     ??CrossCallReturnLabel_374:
   \   000003   F583         MOV       DPH,A
   \   000005   8882         MOV       DPL,R0
   \   000007   22           RET
    522          #endif
    523          
    524          #if !defined ( ZCL_STANDALONE )
    525          /*********************************************************************
    526           * @fn      zcl_registerForMsg
    527           *
    528           * @brief   The ZCL is setup to send all incoming Foundation Command/Response
    529           *          messages that aren't processed to one task (if a task is
    530           *          registered).
    531           *
    532           * @param   taskId - task Id of the Application where commands will be sent to
    533           *
    534           * @return  TRUE if task registeration successful, FALSE otherwise
    535           *********************************************************************/

   \                                 In  segment BANKED_CODE, align 1, keep-with-next
    536          uint8 zcl_registerForMsg( uint8 taskId )
   \                     zcl_registerForMsg:
    537          {
   \   000000   74F7         MOV       A,#-0x9
   \   000002   12....       LCALL     ?BANKED_ENTER_XDATA
   \   000005                ; Saved register size: 9
   \   000005                ; Auto size: 0
    538            return zcl_addExternalFoundationHandler( taskId, AF_BROADCAST_ENDPOINT );
   \   000005                ; Setup parameters for call to function zcl_addExternalFoundationHandler
   \   000005   7AFF         MOV       R2,#-0x1
   \   000007   02....       LJMP      ?Subroutine1 & 0xFFFF
    539          }

   \                                 In  segment BANKED_CODE, align 1, keep-with-next
   \                     ?Subroutine1:
   \   000000   12....       LCALL     `??zcl_addExternalFoundationHandler::?relay`; Banked call to: zcl_addExternalFoundationHandler
   \   000003                REQUIRE ??Subroutine179_0
   \   000003                ; // Fall through to label ??Subroutine179_0

   \                                 In  segment BANKED_CODE, align 1, keep-with-next
   \                     ??Subroutine179_0:
   \   000000   7F01         MOV       R7,#0x1
   \   000002   02....       LJMP      ?BANKED_LEAVE_XDATA
    540          
    541          /*********************************************************************
    542           * @fn      zcl_registerForMsgExt
    543           *
    544           * @brief   This function enables a Task to register to recieve all
    545           *          incoming Foundation Command/Response messages, for a particular
    546           *          End Point, that aren't processed by ZCL.
    547           *
    548           *          NOTE: Any Task registered for a unique end point will take
    549           *          priority over any Task registered with the AF_BROADCAST_ENDPOINT
    550           *          value.  ie. If task A registers for End Point 1, task B registers
    551           *          for AF_BROADCAST_ENDPOINT,  commands addressed to End Point 1 will be
    552           *          sent to Task A and NOT Task B.
    553           *
    554           * @param   taskId - task Id of the Application where commands will be sent to
    555           * @param   endPointId - end point Id of interest
    556           *
    557           * @return  TRUE if task registeration successful, FALSE otherwise
    558           *********************************************************************/

   \                                 In  segment BANKED_CODE, align 1, keep-with-next
    559          uint8 zcl_registerForMsgExt( uint8 taskId, uint8 endPointId  )
   \                     zcl_registerForMsgExt:
    560          {
   \   000000   74F7         MOV       A,#-0x9
   \   000002   12....       LCALL     ?BANKED_ENTER_XDATA
   \   000005                ; Saved register size: 9
   \   000005                ; Auto size: 0
    561            return ( zcl_addExternalFoundationHandler( taskId, endPointId  ) );
   \   000005                ; Setup parameters for call to function zcl_addExternalFoundationHandler
   \   000005   02....       LJMP      ?Subroutine1 & 0xFFFF
    562          }
    563          
    564          /*********************************************************************
    565           * @fn      zcl_addExternalFoundationHandler
    566           *
    567           * @brief   This function adds a record to the internal list of external
    568           *          handlers of unhandled incoming Foundation Command/Response messages.
    569           *
    570           * @param   taskId - task Id of the Application where commands will be sent to
    571           * @param   endPointId - end point Id of interest
    572           *
    573           * @return  TRUE if task registeration successful, FALSE otherwise
    574           *********************************************************************/

   \                                 In  segment BANKED_CODE, align 1, keep-with-next
    575          uint8 zcl_addExternalFoundationHandler( uint8 taskId, uint8 endPointId  )
   \                     zcl_addExternalFoundationHandler:
    576          {
   \   000000                REQUIRE ?V0
   \   000000                REQUIRE ?V1
   \   000000   74F6         MOV       A,#-0xa
   \   000002   12....       LCALL     ?BANKED_ENTER_XDATA
   \   000005                ; Saved register size: 10
   \   000005                ; Auto size: 0
   \   000005   E9           MOV       A,R1
   \   000006   FE           MOV       R6,A
   \   000007   EA           MOV       A,R2
   \   000008   FF           MOV       R7,A
    577            zclExternalFoundationHandlerList *pNewItem;
    578            zclExternalFoundationHandlerList *pLoop;
    579            zclExternalFoundationHandlerList *pLoopPrev;
    580          
    581            // Fill in the new endpoint registrant list
    582            pNewItem = zcl_mem_alloc( sizeof( zclExternalFoundationHandlerList ) );
   \   000009                ; Setup parameters for call to function osal_mem_alloc
   \   000009   7A04         MOV       R2,#0x4
   \   00000B   7B00         MOV       R3,#0x0
   \   00000D   12....       LCALL     `??osal_mem_alloc::?relay`; Banked call to: osal_mem_alloc
    583            if ( pNewItem == NULL )
   \   000010   EA           MOV       A,R2
   \   000011   4B           ORL       A,R3
   \   000012   6038         JZ        ??zcl_addExternalFoundationHandler_0
    584            {
    585              return ( false );
    586            }
    587          
    588            pNewItem->zcl_ExternalEndPoint = endPointId;
   \   000014   EF           MOV       A,R7
   \   000015   8A82         MOV       DPL,R2
   \   000017   8B83         MOV       DPH,R3
   \   000019   A3           INC       DPTR
   \   00001A   A3           INC       DPTR
   \   00001B   A3           INC       DPTR
   \   00001C   F0           MOVX      @DPTR,A
    589            pNewItem->zcl_ExternalTaskID = taskId;
   \   00001D   EE           MOV       A,R6
   \   00001E   8A82         MOV       DPL,R2
   \   000020   8B83         MOV       DPH,R3
   \   000022   A3           INC       DPTR
   \   000023   A3           INC       DPTR
   \   000024   12....       LCALL     ?Subroutine132 & 0xFFFF
    590            pNewItem->next = NULL;
   \                     ??CrossCallReturnLabel_332:
   \   000027   E4           CLR       A
   \   000028   F0           MOVX      @DPTR,A
   \   000029   A3           INC       DPTR
   \   00002A   F0           MOVX      @DPTR,A
    591          
    592            // Add to the list
    593            if ( externalEndPointHandlerList == NULL )
   \   00002B   90....       MOV       DPTR,#externalEndPointHandlerList
   \   00002E   12....       LCALL     ??Subroutine182_0 & 0xFFFF
   \                     ??CrossCallReturnLabel_342:
   \   000031   7009         JNZ       ??zcl_addExternalFoundationHandler_1
    594            {
    595              externalEndPointHandlerList = pNewItem;
   \   000033   90....       MOV       DPTR,#externalEndPointHandlerList
   \   000036   EA           MOV       A,R2
   \   000037   F0           MOVX      @DPTR,A
   \   000038   A3           INC       DPTR
   \   000039   EB           MOV       A,R3
   \   00003A   8042         SJMP      ??zcl_addExternalFoundationHandler_2
    596            }
    597            else
    598            {
    599              // make sure no one else tried to register for this endpoint
    600              pLoop = externalEndPointHandlerList;
   \                     ??zcl_addExternalFoundationHandler_1:
   \   00003C   E0           MOVX      A,@DPTR
   \   00003D   F9           MOV       R1,A
    601              pLoopPrev = externalEndPointHandlerList;
    602          
    603              while ( pLoop != NULL )
    604              {
    605                if ( ( pLoop->zcl_ExternalEndPoint ) == endPointId )
   \                     ??zcl_addExternalFoundationHandler_3:
   \   00003E   8882         MOV       DPL,R0
   \   000040   8983         MOV       DPH,R1
   \   000042   A3           INC       DPTR
   \   000043   A3           INC       DPTR
   \   000044   A3           INC       DPTR
   \   000045   E0           MOVX      A,@DPTR
   \   000046   6F           XRL       A,R7
   \   000047   7007         JNZ       ??zcl_addExternalFoundationHandler_4
    606                {
    607                  zcl_mem_free(pNewItem);
   \   000049                ; Setup parameters for call to function osal_mem_free
   \   000049   12....       LCALL     `??osal_mem_free::?relay`; Banked call to: osal_mem_free
    608                  return ( false );
   \                     ??zcl_addExternalFoundationHandler_0:
   \   00004C   7900         MOV       R1,#0x0
   \   00004E   8031         SJMP      ??zcl_addExternalFoundationHandler_5
    609                }
    610                pLoopPrev = pLoop;
   \                     ??zcl_addExternalFoundationHandler_4:
   \   000050   E8           MOV       A,R0
   \   000051   FC           MOV       R4,A
   \   000052   E9           MOV       A,R1
   \   000053   FD           MOV       R5,A
    611                pLoop = pLoop->next;
   \   000054   8882         MOV       DPL,R0
   \   000056   8983         MOV       DPH,R1
   \   000058   12....       LCALL     ??Subroutine182_0 & 0xFFFF
    612              }
   \                     ??CrossCallReturnLabel_337:
   \   00005B   70E1         JNZ       ??zcl_addExternalFoundationHandler_3
    613          
    614              if ( endPointId == AF_BROADCAST_ENDPOINT )
   \   00005D   74FF         MOV       A,#-0x1
   \   00005F   6F           XRL       A,R7
   \   000060   700C         JNZ       ??zcl_addExternalFoundationHandler_6
    615              {
    616                // put new registration at the end of the list
    617                pLoopPrev->next = pNewItem;
   \   000062   8C82         MOV       DPL,R4
   \   000064   8D83         MOV       DPH,R5
   \   000066   12....       LCALL     ?Subroutine34 & 0xFFFF
    618                pNewItem->next = NULL;
    619              }
   \                     ??CrossCallReturnLabel_42:
   \   000069   E4           CLR       A
   \   00006A   F0           MOVX      @DPTR,A
   \   00006B   A3           INC       DPTR
   \   00006C   8010         SJMP      ??zcl_addExternalFoundationHandler_2
    620              else
    621              {
    622                // put new registration at the front of the list
    623                zclExternalFoundationHandlerList *temp = externalEndPointHandlerList;
   \                     ??zcl_addExternalFoundationHandler_6:
   \   00006E   90....       MOV       DPTR,#externalEndPointHandlerList
   \   000071   12....       LCALL     ??Subroutine183_0 & 0xFFFF
    624                externalEndPointHandlerList = pNewItem;
   \                     ??CrossCallReturnLabel_353:
   \   000074   90....       MOV       DPTR,#externalEndPointHandlerList
   \   000077   12....       LCALL     ?Subroutine34 & 0xFFFF
    625                pNewItem->next = temp;
    626              }
    627            }
   \                     ??CrossCallReturnLabel_43:
   \   00007A   E8           MOV       A,R0
   \   00007B   F0           MOVX      @DPTR,A
   \   00007C   A3           INC       DPTR
   \   00007D   E9           MOV       A,R1
   \                     ??zcl_addExternalFoundationHandler_2:
   \   00007E   F0           MOVX      @DPTR,A
    628          
    629            return ( true );
   \   00007F   7901         MOV       R1,#0x1
   \                     ??zcl_addExternalFoundationHandler_5:
   \   000081   02....       LJMP      ?Subroutine2 & 0xFFFF
    630          
    631          }

   \                                 In  segment BANKED_CODE, align 1, keep-with-next
   \                     ?Subroutine34:
   \   000000   EA           MOV       A,R2
   \   000001   F0           MOVX      @DPTR,A
   \   000002   A3           INC       DPTR
   \   000003   EB           MOV       A,R3
   \   000004   12....       LCALL     ?Subroutine132 & 0xFFFF
   \                     ??CrossCallReturnLabel_333:
   \   000007   22           RET

   \                                 In  segment BANKED_CODE, align 1, keep-with-next
   \                     ?Subroutine132:
   \   000000   F0           MOVX      @DPTR,A
   \   000001   8A82         MOV       DPL,R2
   \   000003   8B83         MOV       DPH,R3
   \   000005   22           RET

   \                                 In  segment BANKED_CODE, align 1, keep-with-next
   \                     ??Subroutine182_0:
   \   000000   12....       LCALL     ?Subroutine152 & 0xFFFF
   \                     ??CrossCallReturnLabel_369:
   \   000003   E8           MOV       A,R0
   \   000004   49           ORL       A,R1
   \   000005   22           RET

   \                                 In  segment BANKED_CODE, align 1, keep-with-next
   \                     ?Subroutine2:
   \   000000   7F02         MOV       R7,#0x2
   \   000002   02....       LJMP      ?BANKED_LEAVE_XDATA

   \                                 In  segment BANKED_CODE, align 1, keep-with-next
   \                     ??Subroutine183_0:
   \   000000   12....       LCALL     ?Subroutine152 & 0xFFFF
   \                     ??CrossCallReturnLabel_370:
   \   000003   22           RET

   \                                 In  segment BANKED_CODE, align 1, keep-with-next
   \                     ?Subroutine152:
   \   000000   12....       LCALL     ?Subroutine167 & 0xFFFF
   \                     ??CrossCallReturnLabel_377:
   \   000003   F9           MOV       R1,A
   \   000004   22           RET
    632          
    633          /*********************************************************************
    634           * @fn      zcl_getExternalFoundationHandler
    635           *
    636           * @brief   This function retrieves the Task ID of the task registered
    637           *          to received unhandled incoming Foundation Command/Response messages
    638           *          for a particular End Point ID.
    639           *
    640           * @param   pInMsg - recevied ZCL command
    641           *
    642           * @return  TASK ID of registered task.  If no task is reigistered, it returns
    643           *          TASK_NO_TASK.
    644           *********************************************************************/

   \                                 In  segment BANKED_CODE, align 1, keep-with-next
    645          static uint8 zcl_getExternalFoundationHandler( afIncomingMSGPacket_t *pInMsg )
   \                     zcl_getExternalFoundationHandler:
    646          {
   \   000000   C082         PUSH      DPL
   \   000002   C083         PUSH      DPH
   \   000004                ; Saved register size: 2
   \   000004                ; Auto size: 0
    647            zclExternalFoundationHandlerList *pLoop;
    648            uint8 addressedEndPointId = pInMsg->endPoint;
   \   000004   EA           MOV       A,R2
   \   000005   12....       LCALL     ?Subroutine119 & 0xFFFF
   \                     ??CrossCallReturnLabel_208:
   \   000008   3B           ADDC      A,R3
   \   000009   F583         MOV       DPH,A
   \   00000B   E0           MOVX      A,@DPTR
   \   00000C   FA           MOV       R2,A
    649          
    650            // make sure no one else tried to register for this endpoint
    651            pLoop = externalEndPointHandlerList;
   \   00000D   90....       MOV       DPTR,#externalEndPointHandlerList
   \   000010   8004         SJMP      ??zcl_getExternalFoundationHandler_0
    652          
    653            while ( pLoop != NULL )
    654            {
    655              if ( ( ( pLoop->zcl_ExternalEndPoint ) == addressedEndPointId ) ||
    656                   ( ( pLoop->zcl_ExternalEndPoint ) == AF_BROADCAST_ENDPOINT ) )
    657              {
    658                return ( pLoop->zcl_ExternalTaskID );
    659              }
    660              pLoop = pLoop->next;
   \                     ??zcl_getExternalFoundationHandler_1:
   \   000012   8882         MOV       DPL,R0
   \   000014   8983         MOV       DPH,R1
   \                     ??zcl_getExternalFoundationHandler_0:
   \   000016   12....       LCALL     ??Subroutine182_0 & 0xFFFF
   \                     ??CrossCallReturnLabel_338:
   \   000019   601C         JZ        ??zcl_getExternalFoundationHandler_2
   \   00001B   8882         MOV       DPL,R0
   \   00001D   8983         MOV       DPH,R1
   \   00001F   A3           INC       DPTR
   \   000020   A3           INC       DPTR
   \   000021   A3           INC       DPTR
   \   000022   E0           MOVX      A,@DPTR
   \   000023   FB           MOV       R3,A
   \   000024   EA           MOV       A,R2
   \   000025   6B           XRL       A,R3
   \   000026   6005         JZ        ??zcl_getExternalFoundationHandler_3
   \   000028   74FF         MOV       A,#-0x1
   \   00002A   6B           XRL       A,R3
   \   00002B   70E5         JNZ       ??zcl_getExternalFoundationHandler_1
   \                     ??zcl_getExternalFoundationHandler_3:
   \   00002D   8882         MOV       DPL,R0
   \   00002F   8983         MOV       DPH,R1
   \   000031   A3           INC       DPTR
   \   000032   A3           INC       DPTR
   \   000033   E0           MOVX      A,@DPTR
   \   000034   F9           MOV       R1,A
   \   000035   8002         SJMP      ??zcl_getExternalFoundationHandler_4
    661            }
    662          
    663            return ( TASK_NO_TASK );
   \                     ??zcl_getExternalFoundationHandler_2:
   \   000037   79FF         MOV       R1,#-0x1
   \                     ??zcl_getExternalFoundationHandler_4:
   \   000039   02....       LJMP      ?Subroutine0 & 0xFFFF
    664          }

   \                                 In  segment BANKED_CODE, align 1, keep-with-next
   \                     ?Subroutine119:
   \   000000   12....       LCALL     ?Subroutine161 & 0xFFFF
   \                     ??CrossCallReturnLabel_525:
   \   000003   22           RET

   \                                 In  segment BANKED_CODE, align 1, keep-with-next
   \                     ?Subroutine161:
   \   000000   2414         ADD       A,#0x14
   \   000002   F582         MOV       DPL,A
   \   000004   E4           CLR       A
   \   000005   22           RET
    665          #endif
    666          
    667          #if !defined ( ZCL_STANDALONE )
    668          /*********************************************************************
    669           * @fn      zcl_HandleExternal
    670           *
    671           * @brief
    672           *
    673           * @param   pInMsg - incoming message to process
    674           *
    675           * @return  TRUE
    676           */

   \                                 In  segment BANKED_CODE, align 1, keep-with-next
    677          uint8 zcl_HandleExternal( zclIncoming_t *pInMsg )
   \                     zcl_HandleExternal:
    678          {
   \   000000                REQUIRE ?V0
   \   000000                REQUIRE ?V1
   \   000000                REQUIRE ?V2
   \   000000                REQUIRE ?V3
   \   000000   74F4         MOV       A,#-0xc
   \   000002   12....       LCALL     ?BANKED_ENTER_XDATA
   \   000005                ; Saved register size: 12
   \   000005                ; Auto size: 0
   \   000005   EA           MOV       A,R2
   \   000006   FE           MOV       R6,A
   \   000007   EB           MOV       A,R3
   \   000008   FF           MOV       R7,A
    679            zclIncomingMsg_t *pCmd;
    680            uint8 taskID;
    681          
    682            taskID = zcl_getExternalFoundationHandler( pInMsg->msg );
   \   000009                ; Setup parameters for call to function zcl_getExternalFoundationHandler
   \   000009   8E82         MOV       DPL,R6
   \   00000B   8F83         MOV       DPH,R7
   \   00000D   12....       LCALL     ??Subroutine196_0 & 0xFFFF
   \                     ??CrossCallReturnLabel_437:
   \   000010   12....       LCALL     `??zcl_getExternalFoundationHandler::?relay`; Banked call to: zcl_getExternalFoundationHandler
   \   000013   E9           MOV       A,R1
   \   000014   F5..         MOV       ?V0,A
    683          
    684            if ( taskID == TASK_NO_TASK )
   \   000016   74FF         MOV       A,#-0x1
   \   000018   65..         XRL       A,?V0
   \   00001A   7003         JNZ       $+5
   \   00001C   02....       LJMP      ??zcl_HandleExternal_0 & 0xFFFF
    685            {
    686              return ( TRUE );
    687            }
    688          
    689            pCmd = (zclIncomingMsg_t *)osal_msg_allocate( sizeof ( zclIncomingMsg_t ) );
   \   00001F                ; Setup parameters for call to function osal_msg_allocate
   \   00001F   7A19         MOV       R2,#0x19
   \   000021   7B00         MOV       R3,#0x0
   \   000023   12....       LCALL     `??osal_msg_allocate::?relay`; Banked call to: osal_msg_allocate
    690            if ( pCmd != NULL )
   \   000026   EA           MOV       A,R2
   \   000027   4B           ORL       A,R3
   \   000028   7003         JNZ       $+5
   \   00002A   02....       LJMP      ??zcl_HandleExternal_0 & 0xFFFF
    691            {
    692              // fill in the message
    693              pCmd->hdr.event = ZCL_INCOMING_MSG;
   \   00002D   8A82         MOV       DPL,R2
   \   00002F   8B83         MOV       DPH,R3
   \   000031   7434         MOV       A,#0x34
   \   000033   12....       LCALL     ?Subroutine32 & 0xFFFF
    694              pCmd->zclHdr    = pInMsg->hdr;
   \                     ??CrossCallReturnLabel_37:
   \   000036   A3           INC       DPTR
   \   000037   EA           MOV       A,R2
   \   000038   2402         ADD       A,#0x2
   \   00003A   FC           MOV       R4,A
   \   00003B   E4           CLR       A
   \   00003C   3B           ADDC      A,R3
   \   00003D   FD           MOV       R5,A
   \   00003E   7406         MOV       A,#0x6
   \   000040   12....       LCALL     ?MOVE_LONG8_XDATA_XDATA
    695              pCmd->clusterId = pInMsg->msg->clusterId;
   \   000043   8E82         MOV       DPL,R6
   \   000045   8F83         MOV       DPH,R7
   \   000047   12....       LCALL     ?Subroutine84 & 0xFFFF
   \                     ??CrossCallReturnLabel_139:
   \   00004A   12....       LCALL     ?Subroutine91 & 0xFFFF
   \                     ??CrossCallReturnLabel_469:
   \   00004D   8A82         MOV       DPL,R2
   \   00004F   8B83         MOV       DPH,R3
   \   000051   A3           INC       DPTR
   \   000052   A3           INC       DPTR
   \   000053   A3           INC       DPTR
   \   000054   A3           INC       DPTR
   \   000055   A3           INC       DPTR
   \   000056   A3           INC       DPTR
   \   000057   A3           INC       DPTR
   \   000058   A3           INC       DPTR
   \   000059   EC           MOV       A,R4
   \   00005A   F0           MOVX      @DPTR,A
   \   00005B   A3           INC       DPTR
   \   00005C   ED           MOV       A,R5
   \   00005D   12....       LCALL     ?Subroutine30 & 0xFFFF
    696              pCmd->srcAddr   = pInMsg->msg->srcAddr;
   \                     ??CrossCallReturnLabel_35:
   \   000060   A3           INC       DPTR
   \   000061   EA           MOV       A,R2
   \   000062   240A         ADD       A,#0xa
   \   000064   FC           MOV       R4,A
   \   000065   E4           CLR       A
   \   000066   3B           ADDC      A,R3
   \   000067   FD           MOV       R5,A
   \   000068   740C         MOV       A,#0xc
   \   00006A   12....       LCALL     ?MOVE_LONG8_XDATA_XDATA
    697              pCmd->endPoint  = pInMsg->msg->endPoint;
   \   00006D   8E82         MOV       DPL,R6
   \   00006F   8F83         MOV       DPH,R7
   \   000071   12....       LCALL     ?Subroutine167 & 0xFFFF
   \                     ??CrossCallReturnLabel_371:
   \   000074   C8           XCH       A,R0
   \   000075   12....       LCALL     ?Subroutine119 & 0xFFFF
   \                     ??CrossCallReturnLabel_209:
   \   000078   38           ADDC      A,R0
   \   000079   F583         MOV       DPH,A
   \   00007B   E0           MOVX      A,@DPTR
   \   00007C   C0E0         PUSH      A
   \   00007E   EA           MOV       A,R2
   \   00007F   2416         ADD       A,#0x16
   \   000081   F582         MOV       DPL,A
   \   000083   E4           CLR       A
   \   000084   3B           ADDC      A,R3
   \   000085   F583         MOV       DPH,A
   \   000087   D0E0         POP       A
   \   000089   F0           MOVX      @DPTR,A
    698              pCmd->attrCmd   = pInMsg->attrCmd;
   \   00008A   EE           MOV       A,R6
   \   00008B   240C         ADD       A,#0xc
   \   00008D   F8           MOV       R0,A
   \   00008E   E4           CLR       A
   \   00008F   3F           ADDC      A,R7
   \   000090   F9           MOV       R1,A
   \   000091   8882         MOV       DPL,R0
   \   000093   8983         MOV       DPH,R1
   \   000095   12....       LCALL     ??Subroutine203_0 & 0xFFFF
   \                     ??CrossCallReturnLabel_463:
   \   000098   EA           MOV       A,R2
   \   000099   2417         ADD       A,#0x17
   \   00009B   F582         MOV       DPL,A
   \   00009D   E4           CLR       A
   \   00009E   3B           ADDC      A,R3
   \   00009F   F583         MOV       DPH,A
   \   0000A1   EC           MOV       A,R4
   \   0000A2   F0           MOVX      @DPTR,A
   \   0000A3   A3           INC       DPTR
   \   0000A4   ED           MOV       A,R5
   \   0000A5   F0           MOVX      @DPTR,A
    699              
    700          #ifdef BDB_REPORTING
    701              if(pCmd->zclHdr.commandID == ZCL_CMD_CONFIG_REPORT)
    702              {
    703                bdb_ProcessInConfigReportCmd(pCmd);
    704                osal_msg_deallocate((uint8*)pCmd);
    705                return TRUE;          
    706              }
    707              if(pCmd->zclHdr.commandID == ZCL_CMD_READ_REPORT_CFG)
    708              {
    709                bdb_ProcessInReadReportCfgCmd(pCmd);
    710                osal_msg_deallocate((uint8*)pCmd);
    711                return TRUE;
    712              }
    713          #endif
    714              // Application will free the attrCmd buffer
    715              pInMsg->attrCmd = NULL;
   \   0000A6   8882         MOV       DPL,R0
   \   0000A8   8983         MOV       DPH,R1
   \   0000AA   E4           CLR       A
   \   0000AB   F0           MOVX      @DPTR,A
   \   0000AC   A3           INC       DPTR
   \   0000AD   F0           MOVX      @DPTR,A
    716          
    717              /* send message through task message */
    718              osal_msg_send( taskID, (uint8 *)pCmd );
   \   0000AE                ; Setup parameters for call to function osal_msg_send
   \   0000AE   A9..         MOV       R1,?V0
   \   0000B0   12....       LCALL     `??osal_msg_send::?relay`; Banked call to: osal_msg_send
    719            }
    720          
    721            return ( TRUE );
   \                     ??zcl_HandleExternal_0:
   \   0000B3   7901         MOV       R1,#0x1
   \   0000B5   02....       LJMP      ??Subroutine172_0 & 0xFFFF
    722          }

   \                                 In  segment BANKED_CODE, align 1, keep-with-next
   \                     ??Subroutine172_0:
   \   000000   7F04         MOV       R7,#0x4
   \   000002   02....       LJMP      ?BANKED_LEAVE_XDATA

   \                                 In  segment BANKED_CODE, align 1, keep-with-next
   \                     ?Subroutine30:
   \   000000   12....       LCALL     ?Subroutine134 & 0xFFFF
   \                     ??CrossCallReturnLabel_241:
   \   000003   22           RET

   \                                 In  segment BANKED_CODE, align 1, keep-with-next
   \                     ?Subroutine134:
   \   000000   12....       LCALL     ?Subroutine164 & 0xFFFF
   \                     ??CrossCallReturnLabel_283:
   \   000003   A3           INC       DPTR
   \   000004   22           RET

   \                                 In  segment BANKED_CODE, align 1, keep-with-next
   \                     ?Subroutine164:
   \   000000   F0           MOVX      @DPTR,A
   \   000001   8882         MOV       DPL,R0
   \   000003   8983         MOV       DPH,R1
   \   000005   A3           INC       DPTR
   \   000006   A3           INC       DPTR
   \   000007   A3           INC       DPTR
   \   000008   A3           INC       DPTR
   \   000009   22           RET

   \                                 In  segment BANKED_CODE, align 1, keep-with-next
   \                     ?Subroutine84:
   \   000000   12....       LCALL     ?Subroutine141 & 0xFFFF
   \                     ??CrossCallReturnLabel_327:
   \   000003   22           RET

   \                                 In  segment BANKED_CODE, align 1, keep-with-next
   \                     ?Subroutine141:
   \   000000   12....       LCALL     ?Subroutine167 & 0xFFFF
   \                     ??CrossCallReturnLabel_376:
   \   000003   F9           MOV       R1,A
   \   000004   8882         MOV       DPL,R0
   \   000006   8983         MOV       DPH,R1
   \   000008   22           RET

   \                                 In  segment BANKED_CODE, align 1, keep-with-next
   \                     ?Subroutine32:
   \   000000   12....       LCALL     ?Subroutine138 & 0xFFFF
   \                     ??CrossCallReturnLabel_246:
   \   000003   A3           INC       DPTR
   \   000004   22           RET

   \                                 In  segment BANKED_CODE, align 1, keep-with-next
   \                     ?Subroutine138:
   \   000000   F0           MOVX      @DPTR,A
   \   000001   8E82         MOV       DPL,R6
   \   000003   8F83         MOV       DPH,R7
   \   000005   22           RET

   \                                 In  segment BANKED_CODE, align 1, keep-with-next
   \                     ??Subroutine196_0:
   \   000000   12....       LCALL     ??Subroutine197_0 & 0xFFFF
   \                     ??CrossCallReturnLabel_532:
   \   000003   22           RET

   \                                 In  segment BANKED_CODE, align 1, keep-with-next
   \                     ??Subroutine197_0:
   \   000000   E0           MOVX      A,@DPTR
   \   000001   FA           MOV       R2,A
   \   000002   A3           INC       DPTR
   \   000003   E0           MOVX      A,@DPTR
   \   000004   FB           MOV       R3,A
   \   000005   22           RET

   \                                 In  segment BANKED_CODE, align 1, keep-with-next
   \                     ?Subroutine91:
   \   000000   A3           INC       DPTR
   \   000001   A3           INC       DPTR
   \   000002                REQUIRE ??Subroutine202_0
   \   000002                ; // Fall through to label ??Subroutine202_0

   \                                 In  segment BANKED_CODE, align 1, keep-with-next
   \                     ??Subroutine202_0:
   \   000000   A3           INC       DPTR
   \   000001   A3           INC       DPTR
   \   000002                REQUIRE ??Subroutine203_0
   \   000002                ; // Fall through to label ??Subroutine203_0

   \                                 In  segment BANKED_CODE, align 1, keep-with-next
   \                     ??Subroutine203_0:
   \   000000   12....       LCALL     ??Subroutine209_0 & 0xFFFF
   \                     ??CrossCallReturnLabel_503:
   \   000003   22           RET

   \                                 In  segment BANKED_CODE, align 1, keep-with-next
   \                     ??Subroutine209_0:
   \   000000   E0           MOVX      A,@DPTR
   \   000001   FC           MOV       R4,A
   \   000002   A3           INC       DPTR
   \   000003   E0           MOVX      A,@DPTR
   \   000004   FD           MOV       R5,A
   \   000005   22           RET
    723          #endif
    724          
    725          
    726          /*********************************************************************
    727           * @fn          zcl_getRawAFMsg
    728           *
    729           * @brief       Call to get original unprocessed AF message
    730           *              (not parsed by ZCL).
    731           *
    732           *   NOTE:  This function can only be called during a ZCL callback function
    733           *          and the calling function must NOT change any data in the message.
    734           *
    735           * @param       none
    736           *
    737           * @return      pointer to original AF message, NULL if not processing
    738           *              AF message.
    739           */

   \                                 In  segment BANKED_CODE, align 1, keep-with-next
    740          afIncomingMSGPacket_t *zcl_getRawAFMsg( void )
   \                     zcl_getRawAFMsg:
    741          {
   \   000000   C082         PUSH      DPL
   \   000002   C083         PUSH      DPH
   \   000004                ; Saved register size: 2
   \   000004                ; Auto size: 0
    742            return ( rawAFMsg );
   \   000004   90....       MOV       DPTR,#rawAFMsg
   \   000007   12....       LCALL     ??Subroutine196_0 & 0xFFFF
   \                     ??CrossCallReturnLabel_438:
   \   00000A   80..         SJMP      ?Subroutine0
    743          }
    744          
    745          /*********************************************************************
    746           * @fn          zcl_getParsedTransSeqNum
    747           *
    748           * @brief       Call to the get the transaction sequence number from
    749           *              the incoming message.
    750           *
    751           *   NOTE:  This function can only be called during a ZCL callback function
    752           *          and the calling function must NOT change any data in the message.
    753           *
    754           * @param       none
    755           *
    756           * @return      transaction sequence number.
    757           */

   \                                 In  segment BANKED_CODE, align 1, keep-with-next
    758          uint8 zcl_getParsedTransSeqNum( void )
   \                     zcl_getParsedTransSeqNum:
    759          {
   \   000000   C082         PUSH      DPL
   \   000002   C083         PUSH      DPH
   \   000004                ; Saved register size: 2
   \   000004                ; Auto size: 0
    760            return ( savedZCLTransSeqNum );
   \   000004   90....       MOV       DPTR,#savedZCLTransSeqNum
   \   000007   E0           MOVX      A,@DPTR
   \   000008   F9           MOV       R1,A
   \   000009                REQUIRE ?Subroutine0
   \   000009                ; // Fall through to label ?Subroutine0
    761          }
    762          
    763          /*********************************************************************
    764           * @fn          zcl_registerPlugin
    765           *
    766           * @brief       Add a Cluster Library handler
    767           *
    768           * @param       startClusterID - starting cluster ID
    769           * @param       endClusterID - ending cluster ID
    770           * @param       pfnHdlr - function pointer to incoming message handler
    771           *
    772           * @return      ZSuccess if OK
    773           */

   \                                 In  segment BANKED_CODE, align 1, keep-with-next
    774          ZStatus_t zcl_registerPlugin( uint16 startClusterID,
   \                     zcl_registerPlugin:
    775                    uint16 endClusterID, zclInHdlr_t pfnIncomingHdlr )
    776          {
   \   000000                REQUIRE ?V0
   \   000000                REQUIRE ?V1
   \   000000                REQUIRE ?V2
   \   000000                REQUIRE ?V3
   \   000000   74F4         MOV       A,#-0xc
   \   000002   12....       LCALL     ?BANKED_ENTER_XDATA
   \   000005                ; Saved register size: 12
   \   000005                ; Auto size: 0
   \   000005   8A..         MOV       ?V0,R2
   \   000007   8B..         MOV       ?V1,R3
   \   000009   EC           MOV       A,R4
   \   00000A   FE           MOV       R6,A
   \   00000B   ED           MOV       A,R5
   \   00000C   FF           MOV       R7,A
    777            zclLibPlugin_t *pNewItem;
    778            zclLibPlugin_t *pLoop;
    779          
    780            // Fill in the new profile list
    781            pNewItem = zcl_mem_alloc( sizeof( zclLibPlugin_t ) );
   \   00000D                ; Setup parameters for call to function osal_mem_alloc
   \   00000D   7A08         MOV       R2,#0x8
   \   00000F   7B00         MOV       R3,#0x0
   \   000011   12....       LCALL     `??osal_mem_alloc::?relay`; Banked call to: osal_mem_alloc
   \   000014   8A..         MOV       ?V2,R2
   \   000016   8B..         MOV       ?V3,R3
   \   000018   A8..         MOV       R0,?V2
   \   00001A   A9..         MOV       R1,?V3
    782            if ( pNewItem == NULL )
   \   00001C   E8           MOV       A,R0
   \   00001D   49           ORL       A,R1
   \   00001E   7004         JNZ       ??zcl_registerPlugin_0
    783            {
    784              return (ZMemError);
   \   000020   7910         MOV       R1,#0x10
   \   000022   8032         SJMP      ??CrossCallReturnLabel_19
    785            }
    786          
    787            // Fill in the plugin record.
    788            pNewItem->next = (zclLibPlugin_t *)NULL;
   \                     ??zcl_registerPlugin_0:
   \   000024   12....       LCALL     ?Subroutine22 & 0xFFFF
    789            pNewItem->startClusterID = startClusterID;
   \                     ??CrossCallReturnLabel_17:
   \   000027   12....       LCALL     ?Subroutine130 & 0xFFFF
    790            pNewItem->endClusterID = endClusterID;
    791            pNewItem->pfnIncomingHdlr = pfnIncomingHdlr;
   \                     ??CrossCallReturnLabel_233:
   \   00002A   740C         MOV       A,#0xc
   \   00002C   12....       LCALL     ?XSTACK_DISP0_8
   \   00002F   12....       LCALL     ?Subroutine76 & 0xFFFF
   \                     ??CrossCallReturnLabel_124:
   \   000032   A3           INC       DPTR
   \   000033   A3           INC       DPTR
   \   000034   12....       LCALL     ??Subroutine170_0 & 0xFFFF
    792          
    793            // Find spot in list
    794            if (  plugins == NULL )
   \                     ??CrossCallReturnLabel_295:
   \   000037   90....       MOV       DPTR,#plugins
   \   00003A   12....       LCALL     ??Subroutine173_0 & 0xFFFF
   \                     ??CrossCallReturnLabel_305:
   \   00003D   90....       MOV       DPTR,#plugins
   \   000040   6011         JZ        ??zcl_registerPlugin_1
    795            {
    796              plugins = pNewItem;
    797            }
    798            else
    799            {
    800              // Look for end of list
    801              pLoop = plugins;
   \   000042   12....       LCALL     ?Subroutine155 & 0xFFFF
   \                     ??CrossCallReturnLabel_270:
   \   000045   8003         SJMP      ??zcl_registerPlugin_2
    802              while ( pLoop->next != NULL )
    803              {
    804                pLoop = pLoop->next;
   \                     ??zcl_registerPlugin_3:
   \   000047   EA           MOV       A,R2
   \   000048   FC           MOV       R4,A
   \   000049   EB           MOV       A,R3
    805              }
   \                     ??zcl_registerPlugin_2:
   \   00004A   12....       LCALL     ?Subroutine43 & 0xFFFF
   \                     ??CrossCallReturnLabel_299:
   \   00004D   70F8         JNZ       ??zcl_registerPlugin_3
    806          
    807              // Put new item at end of list
    808              pLoop->next = pNewItem;
   \   00004F   8C82         MOV       DPL,R4
   \   000051   8D83         MOV       DPH,R5
    809            }
   \                     ??zcl_registerPlugin_1:
   \   000053   12....       LCALL     ?Subroutine23 & 0xFFFF
    810          
    811            return ( ZSuccess );
   \                     ??CrossCallReturnLabel_19:
   \   000056   02....       LJMP      ??Subroutine172_0 & 0xFFFF
    812          }

   \                                 In  segment BANKED_CODE, align 1, keep-with-next
   \                     ??Subroutine170_0:
   \   000000   A3           INC       DPTR
   \   000001   A3           INC       DPTR
   \   000002                REQUIRE ??Subroutine171_0
   \   000002                ; // Fall through to label ??Subroutine171_0

   \                                 In  segment BANKED_CODE, align 1, keep-with-next
   \                     ??Subroutine171_0:
   \   000000   EA           MOV       A,R2
   \   000001   F0           MOVX      @DPTR,A
   \   000002   A3           INC       DPTR
   \   000003   EB           MOV       A,R3
   \   000004   F0           MOVX      @DPTR,A
   \   000005   22           RET

   \                                 In  segment BANKED_CODE, align 1, keep-with-next
   \                     ?Subroutine23:
   \   000000   E8           MOV       A,R0
   \   000001   F0           MOVX      @DPTR,A
   \   000002   A3           INC       DPTR
   \   000003   E9           MOV       A,R1
   \   000004   F0           MOVX      @DPTR,A
   \   000005   7900         MOV       R1,#0x0
   \   000007   22           RET

   \                                 In  segment BANKED_CODE, align 1, keep-with-next
   \                     ?Subroutine22:
   \   000000   12....       LCALL     ?Subroutine131 & 0xFFFF
   \                     ??CrossCallReturnLabel_235:
   \   000003   22           RET

   \                                 In  segment BANKED_CODE, align 1, keep-with-next
   \                     ?Subroutine131:
   \   000000   8882         MOV       DPL,R0
   \   000002   8983         MOV       DPH,R1
   \   000004   E4           CLR       A
   \   000005   F0           MOVX      @DPTR,A
   \   000006   A3           INC       DPTR
   \   000007   12....       LCALL     ?Subroutine165 & 0xFFFF
   \                     ??CrossCallReturnLabel_317:
   \   00000A   A3           INC       DPTR
   \   00000B   E5..         MOV       A,?V0
   \   00000D   F0           MOVX      @DPTR,A
   \   00000E   22           RET

   \                                 In  segment BANKED_CODE, align 1, keep-with-next
   \                     ?Subroutine155:
   \   000000   E0           MOVX      A,@DPTR
   \   000001   FC           MOV       R4,A
   \   000002   A3           INC       DPTR
   \   000003   E0           MOVX      A,@DPTR
   \   000004   22           RET

   \                                 In  segment BANKED_CODE, align 1, keep-with-next
   \                     ?Subroutine130:
   \   000000   A3           INC       DPTR
   \   000001   E5..         MOV       A,?V1
   \   000003   12....       LCALL     ?Subroutine164 & 0xFFFF
   \                     ??CrossCallReturnLabel_282:
   \   000006   EE           MOV       A,R6
   \   000007   F0           MOVX      @DPTR,A
   \   000008   A3           INC       DPTR
   \   000009   EF           MOV       A,R7
   \   00000A   F0           MOVX      @DPTR,A
   \   00000B   22           RET

   \                                 In  segment BANKED_CODE, align 1, keep-with-next
   \                     ?Subroutine43:
   \   000000   FD           MOV       R5,A
   \   000001   8C82         MOV       DPL,R4
   \   000003   8D83         MOV       DPH,R5
   \   000005                REQUIRE ??Subroutine173_0
   \   000005                ; // Fall through to label ??Subroutine173_0

   \                                 In  segment BANKED_CODE, align 1, keep-with-next
   \                     ??Subroutine173_0:
   \   000000   12....       LCALL     ??Subroutine197_0 & 0xFFFF
   \                     ??CrossCallReturnLabel_531:
   \   000003   EA           MOV       A,R2
   \   000004   4B           ORL       A,R3
   \   000005   22           RET

   \                                 In  segment BANKED_CODE, align 1, keep-with-next
   \                     ?Subroutine76:
   \   000000   12....       LCALL     ?Subroutine153 & 0xFFFF
   \                     ??CrossCallReturnLabel_269:
   \   000003   A3           INC       DPTR
   \   000004   A3           INC       DPTR
   \   000005   22           RET

   \                                 In  segment BANKED_CODE, align 1, keep-with-next
   \                     ?Subroutine153:
   \   000000   E0           MOVX      A,@DPTR
   \   000001   FA           MOV       R2,A
   \   000002   A3           INC       DPTR
   \   000003   E0           MOVX      A,@DPTR
   \   000004   FB           MOV       R3,A
   \   000005   8882         MOV       DPL,R0
   \   000007   8983         MOV       DPH,R1
   \   000009   22           RET

   \                                 In  segment BANKED_CODE, align 1, keep-with-next
   \                     ?Subroutine165:
   \   000000   F0           MOVX      @DPTR,A
   \   000001   8882         MOV       DPL,R0
   \   000003   8983         MOV       DPH,R1
   \   000005   A3           INC       DPTR
   \   000006   22           RET
    813          
    814          #ifdef ZCL_DISCOVER
    815          /*********************************************************************
    816           * @fn          zcl_registerCmdList
    817           *
    818           * @brief       Register a Command List with ZCL Foundation
    819           *
    820           * @param       endpoint - endpoint the attribute list belongs to
    821           * @param       newCmdList - array of command records
    822           *
    823           * @return      ZSuccess if OK
    824           */

   \                                 In  segment BANKED_CODE, align 1, keep-with-next
    825          ZStatus_t zcl_registerCmdList( uint8 endpoint, CONST uint8 cmdListSize, CONST zclCommandRec_t newCmdList[] )
   \                     zcl_registerCmdList:
    826          {
   \   000000                REQUIRE ?V0
   \   000000                REQUIRE ?V1
   \   000000                REQUIRE ?V2
   \   000000                REQUIRE ?V3
   \   000000   74F4         MOV       A,#-0xc
   \   000002   12....       LCALL     ?BANKED_ENTER_XDATA
   \   000005                ; Saved register size: 12
   \   000005                ; Auto size: 0
   \   000005   89..         MOV       ?V0,R1
   \   000007   8A..         MOV       ?V1,R2
   \   000009   EC           MOV       A,R4
   \   00000A   FE           MOV       R6,A
   \   00000B   ED           MOV       A,R5
   \   00000C   FF           MOV       R7,A
    827            zclCmdRecsList_t *pNewItem;
    828            zclCmdRecsList_t *pLoop;
    829          
    830            // Fill in the new profile list
    831            pNewItem = zcl_mem_alloc( sizeof( zclCmdRecsList_t ) );
   \   00000D                ; Setup parameters for call to function osal_mem_alloc
   \   00000D   7A06         MOV       R2,#0x6
   \   00000F   7B00         MOV       R3,#0x0
   \   000011   12....       LCALL     `??osal_mem_alloc::?relay`; Banked call to: osal_mem_alloc
   \   000014   8A..         MOV       ?V2,R2
   \   000016   8B..         MOV       ?V3,R3
   \   000018   A8..         MOV       R0,?V2
   \   00001A   A9..         MOV       R1,?V3
    832            if ( pNewItem == NULL )
   \   00001C   E8           MOV       A,R0
   \   00001D   49           ORL       A,R1
   \   00001E   7004         JNZ       ??zcl_registerCmdList_0
    833            {
    834              return (ZMemError);
   \   000020   7910         MOV       R1,#0x10
   \   000022   8022         SJMP      ??CrossCallReturnLabel_20
    835            }
    836          
    837            pNewItem->pNext = (zclCmdRecsList_t *)NULL;
   \                     ??zcl_registerCmdList_0:
   \   000024   12....       LCALL     ?Subroutine12 & 0xFFFF
    838            pNewItem->endpoint = endpoint;
    839            pNewItem->numCommands = cmdListSize;
    840            pNewItem->pCmdRecs = newCmdList;
    841          
    842            // Find spot in list
    843            if ( gpCmdList == NULL )
   \                     ??CrossCallReturnLabel_0:
   \   000027   90....       MOV       DPTR,#gpCmdList
   \   00002A   12....       LCALL     ??Subroutine173_0 & 0xFFFF
   \                     ??CrossCallReturnLabel_306:
   \   00002D   90....       MOV       DPTR,#gpCmdList
   \   000030   6011         JZ        ??zcl_registerCmdList_1
    844            {
    845              gpCmdList = pNewItem;
    846            }
    847            else
    848            {
    849              // Look for end of list
    850              pLoop = gpCmdList;
   \   000032   12....       LCALL     ?Subroutine155 & 0xFFFF
   \                     ??CrossCallReturnLabel_271:
   \   000035   8003         SJMP      ??zcl_registerCmdList_2
    851              while ( pLoop->pNext != NULL )
    852              {
    853                pLoop = pLoop->pNext;
   \                     ??zcl_registerCmdList_3:
   \   000037   EA           MOV       A,R2
   \   000038   FC           MOV       R4,A
   \   000039   EB           MOV       A,R3
    854              }
   \                     ??zcl_registerCmdList_2:
   \   00003A   12....       LCALL     ?Subroutine43 & 0xFFFF
   \                     ??CrossCallReturnLabel_300:
   \   00003D   70F8         JNZ       ??zcl_registerCmdList_3
    855          
    856              // Put new item at end of list
    857              pLoop->pNext = pNewItem;
   \   00003F   8C82         MOV       DPL,R4
   \   000041   8D83         MOV       DPH,R5
    858            }
   \                     ??zcl_registerCmdList_1:
   \   000043   12....       LCALL     ?Subroutine23 & 0xFFFF
    859          
    860            return ( ZSuccess );
   \                     ??CrossCallReturnLabel_20:
   \   000046   02....       LJMP      ??Subroutine172_0 & 0xFFFF
    861          }

   \                                 In  segment BANKED_CODE, align 1, keep-with-next
   \                     ?Subroutine12:
   \   000000   12....       LCALL     ?Subroutine131 & 0xFFFF
   \                     ??CrossCallReturnLabel_236:
   \   000003   8882         MOV       DPL,R0
   \   000005   8983         MOV       DPH,R1
   \   000007   A3           INC       DPTR
   \   000008   A3           INC       DPTR
   \   000009   12....       LCALL     ?Subroutine130 & 0xFFFF
   \                     ??CrossCallReturnLabel_234:
   \   00000C   22           RET
    862          #endif  // ZCL_DISCOVER
    863          
    864          /*********************************************************************
    865           * @fn          zcl_registerAttrList
    866           *
    867           * @brief       Register an Attribute List with ZCL Foundation
    868           *
    869           * @param       endpoint - endpoint the attribute list belongs to
    870           * @param       numAttr - number of attributes in list
    871           * @param       newAttrList - array of Attribute records.
    872           *                            NOTE: THE ATTRIBUTE IDs (FOR A CLUSTER) MUST BE IN
    873           *                            ASCENDING ORDER. OTHERWISE, THE DISCOVERY RESPONSE
    874           *                            COMMAND WILL NOT HAVE THE RIGHT ATTRIBUTE INFO
    875           *
    876           * @return      ZSuccess if OK
    877           */

   \                                 In  segment BANKED_CODE, align 1, keep-with-next
    878          ZStatus_t zcl_registerAttrList( uint8 endpoint, uint8 numAttr, CONST zclAttrRec_t newAttrList[] )
   \                     zcl_registerAttrList:
    879          {
   \   000000                REQUIRE ?V0
   \   000000                REQUIRE ?V1
   \   000000                REQUIRE ?V2
   \   000000                REQUIRE ?V3
   \   000000   74F4         MOV       A,#-0xc
   \   000002   12....       LCALL     ?BANKED_ENTER_XDATA
   \   000005                ; Saved register size: 12
   \   000005                ; Auto size: 0
   \   000005   89..         MOV       ?V0,R1
   \   000007   8A..         MOV       ?V1,R2
   \   000009   EC           MOV       A,R4
   \   00000A   FE           MOV       R6,A
   \   00000B   ED           MOV       A,R5
   \   00000C   FF           MOV       R7,A
    880            zclAttrRecsList *pNewItem;
    881            zclAttrRecsList *pLoop;
    882          
    883            // Fill in the new profile list
    884            pNewItem = zcl_mem_alloc( sizeof( zclAttrRecsList ) );
   \   00000D                ; Setup parameters for call to function osal_mem_alloc
   \   00000D   7A0A         MOV       R2,#0xa
   \   00000F   7B00         MOV       R3,#0x0
   \   000011   12....       LCALL     `??osal_mem_alloc::?relay`; Banked call to: osal_mem_alloc
   \   000014   8A..         MOV       ?V2,R2
   \   000016   8B..         MOV       ?V3,R3
   \   000018   A8..         MOV       R0,?V2
   \   00001A   A9..         MOV       R1,?V3
    885            if ( pNewItem == NULL )
   \   00001C   E8           MOV       A,R0
   \   00001D   49           ORL       A,R1
   \   00001E   7004         JNZ       ??zcl_registerAttrList_0
    886            {
    887              return (ZMemError);
   \   000020   7910         MOV       R1,#0x10
   \   000022   803A         SJMP      ??CrossCallReturnLabel_21
    888            }
    889          
    890            pNewItem->next = (zclAttrRecsList *)NULL;
   \                     ??zcl_registerAttrList_0:
   \   000024   12....       LCALL     ?Subroutine22 & 0xFFFF
    891            pNewItem->endpoint = endpoint;
    892            pNewItem->pfnReadWriteCB = NULL;
   \                     ??CrossCallReturnLabel_18:
   \   000027   8882         MOV       DPL,R0
   \   000029   8983         MOV       DPH,R1
   \   00002B   A3           INC       DPTR
   \   00002C   A3           INC       DPTR
   \   00002D   A3           INC       DPTR
   \   00002E   E4           CLR       A
   \   00002F   F0           MOVX      @DPTR,A
   \   000030   A3           INC       DPTR
   \   000031   12....       LCALL     ?Subroutine26 & 0xFFFF
    893            pNewItem->numAttributes = numAttr;
   \                     ??CrossCallReturnLabel_29:
   \   000034   E5..         MOV       A,?V1
   \   000036   12....       LCALL     ?Subroutine26 & 0xFFFF
    894            pNewItem->attrs = newAttrList;
   \                     ??CrossCallReturnLabel_30:
   \   000039   A3           INC       DPTR
   \   00003A   EE           MOV       A,R6
   \   00003B   F0           MOVX      @DPTR,A
   \   00003C   A3           INC       DPTR
   \   00003D   EF           MOV       A,R7
   \   00003E   F0           MOVX      @DPTR,A
    895          
    896            // Find spot in list
    897            if ( attrList == NULL )
   \   00003F   90....       MOV       DPTR,#attrList
   \   000042   12....       LCALL     ??Subroutine173_0 & 0xFFFF
   \                     ??CrossCallReturnLabel_307:
   \   000045   90....       MOV       DPTR,#attrList
   \   000048   6011         JZ        ??zcl_registerAttrList_1
    898            {
    899              attrList = pNewItem;
    900            }
    901            else
    902            {
    903              // Look for end of list
    904              pLoop = attrList;
   \   00004A   12....       LCALL     ?Subroutine155 & 0xFFFF
   \                     ??CrossCallReturnLabel_272:
   \   00004D   8003         SJMP      ??zcl_registerAttrList_2
    905              while ( pLoop->next != NULL )
    906              {
    907                pLoop = pLoop->next;
   \                     ??zcl_registerAttrList_3:
   \   00004F   EA           MOV       A,R2
   \   000050   FC           MOV       R4,A
   \   000051   EB           MOV       A,R3
    908              }
   \                     ??zcl_registerAttrList_2:
   \   000052   12....       LCALL     ?Subroutine43 & 0xFFFF
   \                     ??CrossCallReturnLabel_301:
   \   000055   70F8         JNZ       ??zcl_registerAttrList_3
    909          
    910              // Put new item at end of list
    911              pLoop->next = pNewItem;
   \   000057   8C82         MOV       DPL,R4
   \   000059   8D83         MOV       DPH,R5
    912            }
   \                     ??zcl_registerAttrList_1:
   \   00005B   12....       LCALL     ?Subroutine23 & 0xFFFF
    913          
    914            return ( ZSuccess );
   \                     ??CrossCallReturnLabel_21:
   \   00005E   80..         SJMP      ??Subroutine172_0
    915          }

   \                                 In  segment BANKED_CODE, align 1, keep-with-next
   \                     ?Subroutine26:
   \   000000   12....       LCALL     ?Subroutine134 & 0xFFFF
   \                     ??CrossCallReturnLabel_240:
   \   000003   A3           INC       DPTR
   \   000004   A3           INC       DPTR
   \   000005   22           RET
    916          
    917          /*********************************************************************
    918           * @fn          zcl_registerClusterOptionList
    919           *
    920           * @brief       Register a Cluster Option List with ZCL Foundation
    921           *
    922           * @param       endpoint - endpoint the option list belongs to
    923           * @param       numOption - number of options in list
    924           * @param       optionList - array of cluster option records.
    925           *
    926           *              NOTE: This API should be called to enable 'Application
    927           *                    Link Key' security and/or 'APS ACK' for a specific
    928           *                    Cluster. The 'Application Link Key' is discarded
    929           *                    if security isn't enabled on the device.
    930           *                    The default behavior is 'Network Key' when security
    931           *                    is enabled and no 'APS ACK' for the ZCL messages.
    932           *
    933           * @return      ZSuccess if OK
    934           */

   \                                 In  segment BANKED_CODE, align 1, keep-with-next
    935          ZStatus_t zcl_registerClusterOptionList( uint8 endpoint, uint8 numOption, zclOptionRec_t optionList[] )
   \                     zcl_registerClusterOptionList:
    936          {
   \   000000                REQUIRE ?V0
   \   000000                REQUIRE ?V1
   \   000000                REQUIRE ?V2
   \   000000                REQUIRE ?V3
   \   000000   74F4         MOV       A,#-0xc
   \   000002   12....       LCALL     ?BANKED_ENTER_XDATA
   \   000005                ; Saved register size: 12
   \   000005                ; Auto size: 0
   \   000005   89..         MOV       ?V0,R1
   \   000007   8A..         MOV       ?V1,R2
   \   000009   EC           MOV       A,R4
   \   00000A   FE           MOV       R6,A
   \   00000B   ED           MOV       A,R5
   \   00000C   FF           MOV       R7,A
    937            zclClusterOptionList *pNewItem;
    938            zclClusterOptionList *pLoop;
    939          
    940            // Fill in the new profile list
    941            pNewItem = zcl_mem_alloc( sizeof( zclClusterOptionList ) );
   \   00000D                ; Setup parameters for call to function osal_mem_alloc
   \   00000D   7A06         MOV       R2,#0x6
   \   00000F   7B00         MOV       R3,#0x0
   \   000011   12....       LCALL     `??osal_mem_alloc::?relay`; Banked call to: osal_mem_alloc
   \   000014   8A..         MOV       ?V2,R2
   \   000016   8B..         MOV       ?V3,R3
   \   000018   A8..         MOV       R0,?V2
   \   00001A   A9..         MOV       R1,?V3
    942            if ( pNewItem == NULL )
   \   00001C   E8           MOV       A,R0
   \   00001D   49           ORL       A,R1
   \   00001E   7004         JNZ       ??zcl_registerClusterOptionList_0
    943            {
    944              return (ZMemError);
   \   000020   7910         MOV       R1,#0x10
   \   000022   8022         SJMP      ??CrossCallReturnLabel_22
    945            }
    946          
    947            pNewItem->next = (zclClusterOptionList *)NULL;
   \                     ??zcl_registerClusterOptionList_0:
   \   000024   12....       LCALL     ?Subroutine12 & 0xFFFF
    948            pNewItem->endpoint = endpoint;
    949            pNewItem->numOptions = numOption;
    950            pNewItem->options = optionList;
    951          
    952            // Find spot in list
    953            if ( clusterOptionList == NULL )
   \                     ??CrossCallReturnLabel_1:
   \   000027   90....       MOV       DPTR,#clusterOptionList
   \   00002A   12....       LCALL     ??Subroutine173_0 & 0xFFFF
   \                     ??CrossCallReturnLabel_308:
   \   00002D   90....       MOV       DPTR,#clusterOptionList
   \   000030   6011         JZ        ??zcl_registerClusterOptionList_1
    954            {
    955              clusterOptionList = pNewItem;
    956            }
    957            else
    958            {
    959              // Look for end of list
    960              pLoop = clusterOptionList;
   \   000032   12....       LCALL     ?Subroutine155 & 0xFFFF
   \                     ??CrossCallReturnLabel_273:
   \   000035   8003         SJMP      ??zcl_registerClusterOptionList_2
    961              while ( pLoop->next != NULL )
    962              {
    963                pLoop = pLoop->next;
   \                     ??zcl_registerClusterOptionList_3:
   \   000037   EA           MOV       A,R2
   \   000038   FC           MOV       R4,A
   \   000039   EB           MOV       A,R3
    964              }
   \                     ??zcl_registerClusterOptionList_2:
   \   00003A   12....       LCALL     ?Subroutine43 & 0xFFFF
   \                     ??CrossCallReturnLabel_302:
   \   00003D   70F8         JNZ       ??zcl_registerClusterOptionList_3
    965          
    966              // Put new item at end of list
    967              pLoop->next = pNewItem;
   \   00003F   8C82         MOV       DPL,R4
   \   000041   8D83         MOV       DPH,R5
    968            }
   \                     ??zcl_registerClusterOptionList_1:
   \   000043   12....       LCALL     ?Subroutine23 & 0xFFFF
    969          
    970            return ( ZSuccess );
   \                     ??CrossCallReturnLabel_22:
   \   000046   80..         SJMP      ??Subroutine172_0
    971          }
    972          
    973          /*********************************************************************
    974           * @fn          zcl_registerValidateAttrData
    975           *
    976           * @brief       Add a validation function for attribute data
    977           *
    978           * @param       pfnValidateAttrData - function pointer to validate routine
    979           *
    980           * @return      ZSuccess if OK
    981           */

   \                                 In  segment BANKED_CODE, align 1, keep-with-next
    982          ZStatus_t zcl_registerValidateAttrData( zclValidateAttrData_t pfnValidateAttrData )
   \                     zcl_registerValidateAttrData:
    983          {
   \   000000   C082         PUSH      DPL
   \   000002   C083         PUSH      DPH
   \   000004                ; Saved register size: 2
   \   000004                ; Auto size: 0
    984            zcl_ValidateAttrDataCB = pfnValidateAttrData;
   \   000004   90....       MOV       DPTR,#zcl_ValidateAttrDataCB
   \   000007   12....       LCALL     ??Subroutine171_0 & 0xFFFF
    985          
    986            return ( ZSuccess );
   \                     ??CrossCallReturnLabel_291:
   \   00000A   7900         MOV       R1,#0x0
   \   00000C   02....       LJMP      ?Subroutine0 & 0xFFFF
    987          }
    988          
    989          /*********************************************************************
    990           * @fn          zcl_registerReadWriteCB
    991           *
    992           * @brief       Register the application's callback function to read/write
    993           *              attribute data, and authorize read/write operation.
    994           *
    995           *              Note: The pfnReadWriteCB callback function is only required
    996           *                    when the attribute data format is unknown to ZCL. The
    997           *                    callback function gets called when the pointer 'dataPtr'
    998           *                    to the attribute value is NULL in the attribute database
    999           *                    registered with the ZCL.
   1000           *
   1001           *              Note: The pfnAuthorizeCB callback function is only required
   1002           *                    when the Read/Write operation on an attribute requires
   1003           *                    authorization (i.e., attributes with ACCESS_CONTROL_AUTH_READ
   1004           *                    or ACCESS_CONTROL_AUTH_WRITE access permissions).
   1005           *
   1006           * @param       endpoint - application's endpoint
   1007           * @param       pfnReadWriteCB - function pointer to read/write routine
   1008           * @param       pfnAuthorizeCB - function pointer to authorize read/write operation
   1009           *
   1010           * @return      ZSuccess if successful. ZFailure, otherwise.
   1011           */

   \                                 In  segment BANKED_CODE, align 1, keep-with-next
   1012          ZStatus_t zcl_registerReadWriteCB( uint8 endpoint, zclReadWriteCB_t pfnReadWriteCB,
   \                     zcl_registerReadWriteCB:
   1013                                             zclAuthorizeCB_t pfnAuthorizeCB )
   1014          {
   \   000000                REQUIRE ?V0
   \   000000                REQUIRE ?V1
   \   000000                REQUIRE ?V2
   \   000000                REQUIRE ?V4
   \   000000                REQUIRE ?V5
   \   000000   74F2         MOV       A,#-0xe
   \   000002   12....       LCALL     ?BANKED_ENTER_XDATA
   \   000005                ; Saved register size: 14
   \   000005                ; Auto size: 0
   \   000005   EA           MOV       A,R2
   \   000006   FE           MOV       R6,A
   \   000007   EB           MOV       A,R3
   \   000008   FF           MOV       R7,A
   \   000009   8C..         MOV       ?V0,R4
   \   00000B   8D..         MOV       ?V1,R5
   1015            zclAttrRecsList *pRec = zclFindAttrRecsList( endpoint );
   \   00000D                ; Setup parameters for call to function zclFindAttrRecsList
   \   00000D   12....       LCALL     `??zclFindAttrRecsList::?relay`; Banked call to: zclFindAttrRecsList
   \   000010   8A..         MOV       ?V4,R2
   \   000012   8B..         MOV       ?V5,R3
   \   000014   A8..         MOV       R0,?V4
   \   000016   A9..         MOV       R1,?V5
   1016          
   1017            if ( pRec != NULL )
   \   000018   E8           MOV       A,R0
   \   000019   49           ORL       A,R1
   \   00001A   6019         JZ        ??zcl_registerReadWriteCB_0
   1018            {
   1019              pRec->pfnReadWriteCB = pfnReadWriteCB;
   \   00001C   8882         MOV       DPL,R0
   \   00001E   8983         MOV       DPH,R1
   \   000020   A3           INC       DPTR
   \   000021   A3           INC       DPTR
   \   000022   A3           INC       DPTR
   \   000023   EE           MOV       A,R6
   \   000024   F0           MOVX      @DPTR,A
   \   000025   A3           INC       DPTR
   \   000026   EF           MOV       A,R7
   \   000027   12....       LCALL     ?Subroutine30 & 0xFFFF
   1020              pRec->pfnAuthorizeCB = pfnAuthorizeCB;
   \                     ??CrossCallReturnLabel_36:
   \   00002A   E5..         MOV       A,?V0
   \   00002C   F0           MOVX      @DPTR,A
   \   00002D   A3           INC       DPTR
   \   00002E   E5..         MOV       A,?V1
   \   000030   F0           MOVX      @DPTR,A
   1021          
   1022              return ( ZSuccess );
   \   000031   7900         MOV       R1,#0x0
   \   000033   8002         SJMP      ??zcl_registerReadWriteCB_1
   1023            }
   1024          
   1025            return ( ZFailure );
   \                     ??zcl_registerReadWriteCB_0:
   \   000035   7901         MOV       R1,#0x1
   \                     ??zcl_registerReadWriteCB_1:
   \   000037   02....       LJMP      ?Subroutine4 & 0xFFFF
   1026          }

   \                                 In  segment BANKED_CODE, align 1, keep-with-next
   \                     ?Subroutine4:
   \   000000   7F06         MOV       R7,#0x6
   \   000002   02....       LJMP      ?BANKED_LEAVE_XDATA
   1027          
   1028          /*********************************************************************
   1029           * @fn      zcl_DeviceOperational
   1030           *
   1031           * @brief   Used to see whether or not the device can send or respond
   1032           *          to application level commands.
   1033           *
   1034           * @param   srcEP - source endpoint
   1035           * @param   clusterID - cluster ID
   1036           * @param   frameType - command type
   1037           * @param   cmd - command ID
   1038           *
   1039           * @return  TRUE if device is operational, FALSE otherwise
   1040           */

   \                                 In  segment BANKED_CODE, align 1, keep-with-next
   \                     ?Subroutine3:
   \   000000   12....       LCALL     ?DEALLOC_XSTACK8
   \   000003                REQUIRE ??Subroutine172_0
   \   000003                ; // Fall through to label ??Subroutine172_0

   \                                 In  segment BANKED_CODE, align 1, keep-with-next
   1041          static uint8 zcl_DeviceOperational( uint8 srcEP, uint16 clusterID,
   \                     zcl_DeviceOperational:
   1042                                              uint8 frameType, uint8 cmd, uint16 profileID )
   1043          {
   \   000000                REQUIRE ?V0
   \   000000                REQUIRE ?V2
   \   000000                REQUIRE ?V3
   \   000000   74F4         MOV       A,#-0xc
   \   000002   12....       LCALL     ?BANKED_ENTER_XDATA
   \   000005                ; Saved register size: 12
   \   000005                ; Auto size: 9
   \   000005   74F7         MOV       A,#-0x9
   \   000007   12....       LCALL     ?ALLOC_XSTACK8
   \   00000A   E9           MOV       A,R1
   \   00000B   FE           MOV       R6,A
   \   00000C   EC           MOV       A,R4
   \   00000D   FF           MOV       R7,A
   1044            zclAttrRec_t attrRec;
   1045            uint8 deviceEnabled = DEVICE_ENABLED; // default value
   \   00000E   85..82       MOV       DPL,?XSP + 0
   \   000011   85..83       MOV       DPH,?XSP + 1
   \   000014   7401         MOV       A,#0x1
   \   000016   F0           MOVX      @DPTR,A
   1046          
   1047            (void)profileID;  // Intentionally unreferenced parameter
   1048          
   1049            // If the device is Disabled (DeviceEnabled attribute is set to Disabled), it
   1050            // cannot send or respond to application level commands, other than commands
   1051            // to read or write attributes. Note that the Identify cluster cannot be
   1052            // disabled, and remains functional regardless of this setting.
   1053            if ( zcl_ProfileCmd( frameType ) && cmd <= ZCL_CMD_WRITE_NO_RSP )
   \   000017   EF           MOV       A,R7
   \   000018   7006         JNZ       ??zcl_DeviceOperational_0
   \   00001A   ED           MOV       A,R5
   \   00001B   C3           CLR       C
   \   00001C   9406         SUBB      A,#0x6
   \   00001E   4050         JC        ??zcl_DeviceOperational_1
   1054            {
   1055              return ( TRUE );
   1056            }
   1057          
   1058            if ( clusterID == ZCL_CLUSTER_ID_GEN_IDENTIFY )
   \                     ??zcl_DeviceOperational_0:
   \   000020   7403         MOV       A,#0x3
   \   000022   6A           XRL       A,R2
   \   000023   4B           ORL       A,R3
   \   000024   604A         JZ        ??zcl_DeviceOperational_1
   1059            {
   1060              return ( TRUE );
   1061            }
   1062          
   1063            // Is device enabled?
   1064            if ( zclFindAttrRec( srcEP, ZCL_CLUSTER_ID_GEN_BASIC,
   1065                                 ATTRID_BASIC_DEVICE_ENABLED, &attrRec ) )
   \   000026                ; Setup parameters for call to function zclFindAttrRec
   \   000026   7401         MOV       A,#0x1
   \   000028   12....       LCALL     ?XSTACK_DISP100_8
   \   00002B   88..         MOV       ?V2,R0
   \   00002D   89..         MOV       ?V3,R1
   \   00002F   78..         MOV       R0,#?V2
   \   000031   12....       LCALL     ?PUSH_XSTACK_I_TWO
   \   000034   7C12         MOV       R4,#0x12
   \   000036   7D00         MOV       R5,#0x0
   \   000038   7A00         MOV       R2,#0x0
   \   00003A   7B00         MOV       R3,#0x0
   \   00003C   EE           MOV       A,R6
   \   00003D   F9           MOV       R1,A
   \   00003E   12....       LCALL     `??zclFindAttrRec::?relay`; Banked call to: zclFindAttrRec
   \   000041   7402         MOV       A,#0x2
   \   000043   12....       LCALL     ?DEALLOC_XSTACK8
   \   000046   E9           MOV       A,R1
   \   000047   601C         JZ        ??zcl_DeviceOperational_2
   1066            {
   1067          #ifdef ZCL_READ
   1068              zclReadAttrData( &deviceEnabled, &attrRec, NULL );
   \   000049                ; Setup parameters for call to function zclReadAttrData
   \   000049   E4           CLR       A
   \   00004A   F5..         MOV       ?V2,A
   \   00004C   F5..         MOV       ?V3,A
   \   00004E   78..         MOV       R0,#?V2
   \   000050   12....       LCALL     ?PUSH_XSTACK_I_TWO
   \   000053   7403         MOV       A,#0x3
   \   000055   12....       LCALL     ?XSTACK_DISP102_8
   \   000058   7402         MOV       A,#0x2
   \   00005A   12....       LCALL     ?XSTACK_DISP101_8
   \   00005D   12....       LCALL     `??zclReadAttrData::?relay`; Banked call to: zclReadAttrData
   \   000060   7402         MOV       A,#0x2
   \   000062   12....       LCALL     ?DEALLOC_XSTACK8
   1069          #endif
   1070            }
   1071          
   1072            return ( deviceEnabled == DEVICE_ENABLED ? TRUE : FALSE );
   \                     ??zcl_DeviceOperational_2:
   \   000065   85..82       MOV       DPL,?XSP + 0
   \   000068   85..83       MOV       DPH,?XSP + 1
   \   00006B   E0           MOVX      A,@DPTR
   \   00006C   6401         XRL       A,#0x1
   \   00006E   7004         JNZ       ??zcl_DeviceOperational_3
   \                     ??zcl_DeviceOperational_1:
   \   000070   7901         MOV       R1,#0x1
   \   000072   8002         SJMP      ??zcl_DeviceOperational_4
   \                     ??zcl_DeviceOperational_3:
   \   000074   7900         MOV       R1,#0x0
   \                     ??zcl_DeviceOperational_4:
   \   000076   7409         MOV       A,#0x9
   \   000078   02....       LJMP      ?Subroutine3 & 0xFFFF
   1073          }
   1074          
   1075          /*********************************************************************
   1076           * @fn      zcl_SendCommand
   1077           *
   1078           * @brief   Used to send Profile and Cluster Specific Command messages.
   1079           *
   1080           *          NOTE: The calling application is responsible for incrementing
   1081           *                the Sequence Number.
   1082           *
   1083           * @param   srcEp - source endpoint
   1084           * @param   destAddr - destination address
   1085           * @param   clusterID - cluster ID
   1086           * @param   cmd - command ID
   1087           * @param   specific - whether the command is Cluster Specific
   1088           * @param   direction - client/server direction of the command
   1089           * @param   disableDefaultRsp - disable Default Response command
   1090           * @param   manuCode - manufacturer code for proprietary extensions to a profile
   1091           * @param   seqNumber - identification number for the transaction
   1092           * @param   cmdFormatLen - length of the command to be sent
   1093           * @param   cmdFormat - command to be sent
   1094           *
   1095           * @return  ZSuccess if OK
   1096           */

   \                                 In  segment BANKED_CODE, align 1, keep-with-next
   1097          ZStatus_t zcl_SendCommand( uint8 srcEP, afAddrType_t *destAddr,
   \                     zcl_SendCommand:
   1098                                     uint16 clusterID, uint8 cmd, uint8 specific, uint8 direction,
   1099                                     uint8 disableDefaultRsp, uint16 manuCode, uint8 seqNum,
   1100                                     uint16 cmdFormatLen, uint8 *cmdFormat )
   1101          {
   \   000000                REQUIRE ?V0
   \   000000                REQUIRE ?V1
   \   000000                REQUIRE ?V2
   \   000000                REQUIRE ?V3
   \   000000                REQUIRE ?V4
   \   000000                REQUIRE ?V5
   \   000000                REQUIRE ?V6
   \   000000                REQUIRE ?V7
   \   000000                REQUIRE ?V8
   \   000000                REQUIRE ?V9
   \   000000                REQUIRE ?V10
   \   000000                REQUIRE ?V12
   \   000000                REQUIRE ?V13
   \   000000                REQUIRE ?V14
   \   000000                REQUIRE ?V15
   \   000000   74E8         MOV       A,#-0x18
   \   000002   12....       LCALL     ?BANKED_ENTER_XDATA
   \   000005                ; Saved register size: 24
   \   000005                ; Auto size: 6
   \   000005   74FA         MOV       A,#-0x6
   \   000007   12....       LCALL     ?ALLOC_XSTACK8
   \   00000A   89..         MOV       ?V10,R1
   \   00000C   8A..         MOV       ?V14,R2
   \   00000E   8B..         MOV       ?V15,R3
   \   000010   8C..         MOV       ?V0,R4
   \   000012   8D..         MOV       ?V1,R5
   1102            endPointDesc_t *epDesc;
   1103            zclFrameHdr_t hdr;
   1104            uint8 *msgBuf;
   1105            uint16 msgLen;
   1106            uint8 *pBuf;
   1107            uint8 options;
   1108            ZStatus_t status;
   1109          
   1110            epDesc = afFindEndPointDesc( srcEP );
   \   000014                ; Setup parameters for call to function afFindEndPointDesc
   \   000014   12....       LCALL     `??afFindEndPointDesc::?relay`; Banked call to: afFindEndPointDesc
   \   000017   8A..         MOV       ?V12,R2
   \   000019   8B..         MOV       ?V13,R3
   1111            if ( epDesc == NULL )
   \   00001B   EA           MOV       A,R2
   \   00001C   45..         ORL       A,?V13
   \   00001E   7005         JNZ       ??zcl_SendCommand_0
   1112            {
   1113              return ( ZInvalidParameter ); // EMBEDDED RETURN
   \   000020   7902         MOV       R1,#0x2
   \   000022   02....       LJMP      ??zcl_SendCommand_1 & 0xFFFF
   1114            }
   1115          
   1116          #if defined ( INTER_PAN )
   1117            if ( StubAPS_InterPan( destAddr->panId, destAddr->endPoint ) )
   1118            {
   1119              options = AF_TX_OPTIONS_NONE;
   1120            }
   1121            else
   1122          #endif
   1123            {
   1124              options = zclGetClusterOption( srcEP, clusterID );
   \                     ??zcl_SendCommand_0:
   \   000025                ; Setup parameters for call to function zclGetClusterOption
   \   000025   AA..         MOV       R2,?V0
   \   000027   AB..         MOV       R3,?V1
   \   000029   A9..         MOV       R1,?V10
   \   00002B   12....       LCALL     `??zclGetClusterOption::?relay`; Banked call to: zclGetClusterOption
   \   00002E   E9           MOV       A,R1
   \   00002F   F5..         MOV       ?V7,A
   1125          
   1126              // The cluster might not have been defined to use security but if this message
   1127              // is in response to another message that was using APS security this message
   1128              // will be sent with APS security
   1129              if ( !( options & AF_EN_SECURITY ) )
   \   000031   A2E6         MOV       C,0xE0 /* A   */.6
   \   000033   401C         JC        ??zcl_SendCommand_2
   1130              {
   1131                afIncomingMSGPacket_t *origPkt = zcl_getRawAFMsg();
   \   000035   90....       MOV       DPTR,#rawAFMsg
   \   000038   12....       LCALL     ??Subroutine182_0 & 0xFFFF
   1132          
   1133                if ( ( origPkt != NULL ) && ( origPkt->SecurityUse == TRUE ) )
   \                     ??CrossCallReturnLabel_339:
   \   00003B   6014         JZ        ??zcl_SendCommand_2
   \   00003D   E8           MOV       A,R0
   \   00003E   2419         ADD       A,#0x19
   \   000040   F582         MOV       DPL,A
   \   000042   E4           CLR       A
   \   000043   39           ADDC      A,R1
   \   000044   F583         MOV       DPH,A
   \   000046   E0           MOVX      A,@DPTR
   \   000047   6401         XRL       A,#0x1
   \   000049   7006         JNZ       ??zcl_SendCommand_2
   1134                {
   1135                  options |= AF_EN_SECURITY;
   \   00004B   E5..         MOV       A,?V7
   \   00004D   D2E6         SETB      0xE0 /* A   */.6
   \   00004F   F5..         MOV       ?V7,A
   1136                }
   1137              }
   1138            }
   1139          
   1140            zcl_memset( &hdr, 0, sizeof( zclFrameHdr_t ) );
   \                     ??zcl_SendCommand_2:
   \   000051                ; Setup parameters for call to function osal_memset
   \   000051   7C06         MOV       R4,#0x6
   \   000053   7D00         MOV       R5,#0x0
   \   000055   7900         MOV       R1,#0x0
   \   000057   AA..         MOV       R2,?XSP + 0
   \   000059   AB..         MOV       R3,?XSP + 1
   \   00005B   12....       LCALL     `??osal_memset::?relay`; Banked call to: osal_memset
   1141          
   1142            // Not Profile wide command (like READ, WRITE)
   1143            if ( specific )
   \   00005E   741F         MOV       A,#0x1f
   \   000060   12....       LCALL     ?XSTACK_DISP0_8
   \   000063   12....       LCALL     ?Subroutine108 & 0xFFFF
   \                     ??CrossCallReturnLabel_185:
   \   000066   6009         JZ        ??zcl_SendCommand_3
   1144            {
   1145              hdr.fc.type = ZCL_FRAME_TYPE_SPECIFIC_CMD;
   \   000068   E0           MOVX      A,@DPTR
   \   000069   54FC         ANL       A,#0xfc
   \   00006B   F0           MOVX      @DPTR,A
   \   00006C   E0           MOVX      A,@DPTR
   \   00006D   4401         ORL       A,#0x1
   \   00006F   8003         SJMP      ??zcl_SendCommand_4
   1146            }
   1147            else
   1148            {
   1149              hdr.fc.type = ZCL_FRAME_TYPE_PROFILE_CMD;
   \                     ??zcl_SendCommand_3:
   \   000071   E0           MOVX      A,@DPTR
   \   000072   54FC         ANL       A,#0xfc
   1150            }
   \                     ??zcl_SendCommand_4:
   \   000074   12....       LCALL     ?Subroutine38 & 0xFFFF
   1151          
   1152            if ( ( epDesc->simpleDesc == NULL ) ||
   1153                 ( zcl_DeviceOperational( srcEP, clusterID, hdr.fc.type,
   1154                                          cmd, epDesc->simpleDesc->AppProfId ) == FALSE ) )
   \                     ??CrossCallReturnLabel_48:
   \   000077   A3           INC       DPTR
   \   000078   12....       LCALL     ??Subroutine181_0 & 0xFFFF
   \                     ??CrossCallReturnLabel_350:
   \   00007B   602B         JZ        ??zcl_SendCommand_5
   \   00007D   741E         MOV       A,#0x1e
   \   00007F   12....       LCALL     ?XSTACK_DISP0_8
   \   000082   E0           MOVX      A,@DPTR
   \   000083   FE           MOV       R6,A
   \   000084                ; Setup parameters for call to function zcl_DeviceOperational
   \   000084   8882         MOV       DPL,R0
   \   000086   8983         MOV       DPH,R1
   \   000088   A3           INC       DPTR
   \   000089   12....       LCALL     ?PUSH_XSTACK8_X_TWO
   \   00008C   EE           MOV       A,R6
   \   00008D   FD           MOV       R5,A
   \   00008E   7402         MOV       A,#0x2
   \   000090   12....       LCALL     ?XSTACK_DISP0_8
   \   000093   E0           MOVX      A,@DPTR
   \   000094   5403         ANL       A,#0x3
   \   000096   FC           MOV       R4,A
   \   000097   AA..         MOV       R2,?V0
   \   000099   AB..         MOV       R3,?V1
   \   00009B   A9..         MOV       R1,?V10
   \   00009D   12....       LCALL     `??zcl_DeviceOperational::?relay`; Banked call to: zcl_DeviceOperational
   \   0000A0   7402         MOV       A,#0x2
   \   0000A2   12....       LCALL     ?DEALLOC_XSTACK8
   \   0000A5   E9           MOV       A,R1
   \   0000A6   7005         JNZ       ??zcl_SendCommand_6
   1155            {
   1156              return ( ZFailure ); // EMBEDDED RETURN
   \                     ??zcl_SendCommand_5:
   \   0000A8   7901         MOV       R1,#0x1
   \   0000AA   02....       LJMP      ??zcl_SendCommand_1 & 0xFFFF
   1157            }
   \                     ??zcl_SendCommand_6:
   \   0000AD   7422         MOV       A,#0x22
   \   0000AF   12....       LCALL     ?XSTACK_DISP0_8
   \   0000B2   12....       LCALL     ??Subroutine182_0 & 0xFFFF
   1158          
   1159            // Fill in the Maufacturer Code
   1160            if ( manuCode != 0 )
   \                     ??CrossCallReturnLabel_340:
   \   0000B5   6012         JZ        ??CrossCallReturnLabel_419
   1161            {
   1162              hdr.fc.manuSpecific = 1;
   \   0000B7   85..82       MOV       DPL,?XSP + 0
   \   0000BA   85..83       MOV       DPH,?XSP + 1
   \   0000BD   E0           MOVX      A,@DPTR
   \   0000BE   4404         ORL       A,#0x4
   \   0000C0   F0           MOVX      @DPTR,A
   1163              hdr.manuCode = manuCode;
   \   0000C1   7402         MOV       A,#0x2
   \   0000C3   12....       LCALL     ?XSTACK_DISP0_8
   \   0000C6   12....       LCALL     ??Subroutine191_0 & 0xFFFF
   1164            }
   1165          
   1166            // Set the Command Direction
   1167            if ( direction )
   \                     ??CrossCallReturnLabel_419:
   \   0000C9   7420         MOV       A,#0x20
   \   0000CB   12....       LCALL     ?XSTACK_DISP0_8
   \   0000CE   12....       LCALL     ?Subroutine108 & 0xFFFF
   \                     ??CrossCallReturnLabel_186:
   \   0000D1   6005         JZ        ??zcl_SendCommand_7
   1168            {
   1169              hdr.fc.direction = ZCL_FRAME_SERVER_CLIENT_DIR;
   \   0000D3   E0           MOVX      A,@DPTR
   \   0000D4   4408         ORL       A,#0x8
   \   0000D6   8003         SJMP      ??zcl_SendCommand_8
   1170            }
   1171            else
   1172            {
   1173              hdr.fc.direction = ZCL_FRAME_CLIENT_SERVER_DIR;
   \                     ??zcl_SendCommand_7:
   \   0000D8   E0           MOVX      A,@DPTR
   \   0000D9   54F7         ANL       A,#0xf7
   \                     ??zcl_SendCommand_8:
   \   0000DB   F0           MOVX      @DPTR,A
   1174            }
   1175          
   1176            // Set the Disable Default Response field
   1177            if ( disableDefaultRsp )
   \   0000DC   7421         MOV       A,#0x21
   \   0000DE   12....       LCALL     ?XSTACK_DISP0_8
   \   0000E1   12....       LCALL     ?Subroutine108 & 0xFFFF
   \                     ??CrossCallReturnLabel_187:
   \   0000E4   6005         JZ        ??zcl_SendCommand_9
   1178            {
   1179              hdr.fc.disableDefaultRsp = 1;
   \   0000E6   E0           MOVX      A,@DPTR
   \   0000E7   4410         ORL       A,#0x10
   \   0000E9   8003         SJMP      ??zcl_SendCommand_10
   1180            }
   1181            else
   1182            {
   1183              hdr.fc.disableDefaultRsp = 0;
   \                     ??zcl_SendCommand_9:
   \   0000EB   E0           MOVX      A,@DPTR
   \   0000EC   54EF         ANL       A,#0xef
   \                     ??zcl_SendCommand_10:
   \   0000EE   F0           MOVX      @DPTR,A
   1184            }
   1185          
   1186            // Fill in the Transaction Sequence Number
   1187            hdr.transSeqNum = seqNum;
   \   0000EF   7424         MOV       A,#0x24
   \   0000F1   12....       LCALL     ?XSTACK_DISP0_8
   \   0000F4   E0           MOVX      A,@DPTR
   \   0000F5   C0E0         PUSH      A
   \   0000F7   7404         MOV       A,#0x4
   \   0000F9   12....       LCALL     ?XSTACK_DISP0_8
   \   0000FC   D0E0         POP       A
   \   0000FE   F0           MOVX      @DPTR,A
   1188          
   1189            // Fill in the command
   1190            hdr.commandID = cmd;
   \   0000FF   7405         MOV       A,#0x5
   \   000101   12....       LCALL     ?XSTACK_DISP0_8
   \   000104   EE           MOV       A,R6
   \   000105   F0           MOVX      @DPTR,A
   1191          
   1192            // calculate the needed buffer size
   1193            msgLen = zclCalcHdrSize( &hdr );
   \   000106   7803         MOV       R0,#0x3
   \   000108   85..82       MOV       DPL,?XSP + 0
   \   00010B   85..83       MOV       DPH,?XSP + 1
   \   00010E   E0           MOVX      A,@DPTR
   \   00010F   5404         ANL       A,#0x4
   \   000111   6002         JZ        ??zcl_SendCommand_11
   \   000113   7805         MOV       R0,#0x5
   \                     ??zcl_SendCommand_11:
   \   000115   7425         MOV       A,#0x25
   \   000117   12....       LCALL     ?XSTACK_DISP0_8
   \   00011A   12....       LCALL     ?Subroutine104 & 0xFFFF
   1194            msgLen += cmdFormatLen;
   \                     ??CrossCallReturnLabel_180:
   \   00011D   25..         ADD       A,?V8
   \   00011F   FE           MOV       R6,A
   \   000120   E4           CLR       A
   \   000121   35..         ADDC      A,?V9
   \   000123   FF           MOV       R7,A
   1195          
   1196            // Allocate the buffer needed
   1197            msgBuf = zcl_mem_alloc( msgLen );
   \   000124                ; Setup parameters for call to function osal_mem_alloc
   \   000124   EE           MOV       A,R6
   \   000125   FA           MOV       R2,A
   \   000126   EF           MOV       A,R7
   \   000127   FB           MOV       R3,A
   \   000128   12....       LCALL     `??osal_mem_alloc::?relay`; Banked call to: osal_mem_alloc
   \   00012B   8A..         MOV       ?V2,R2
   \   00012D   8B..         MOV       ?V3,R3
   1198            if ( msgBuf != NULL )
   \   00012F   EA           MOV       A,R2
   \   000130   45..         ORL       A,?V3
   \   000132   6068         JZ        ??zcl_SendCommand_12
   1199            {
   1200              // Fill in the ZCL Header
   1201              pBuf = zclBuildHdr( &hdr, msgBuf );
   \   000134                ; Setup parameters for call to function zclBuildHdr
   \   000134   AC..         MOV       R4,?V2
   \   000136   AD..         MOV       R5,?V3
   \   000138   AA..         MOV       R2,?XSP + 0
   \   00013A   AB..         MOV       R3,?XSP + 1
   \   00013C   12....       LCALL     `??zclBuildHdr::?relay`; Banked call to: zclBuildHdr
   1202          
   1203              // Fill in the command frame
   1204              zcl_memcpy( pBuf, cmdFormat, cmdFormatLen );
   \   00013F                ; Setup parameters for call to function osal_memcpy
   \   00013F   7427         MOV       A,#0x27
   \   000141   12....       LCALL     ?XSTACK_DISP0_8
   \   000144   12....       LCALL     ?Subroutine52 & 0xFFFF
   \                     ??CrossCallReturnLabel_65:
   \   000147   12....       LCALL     ?PUSH_XSTACK_I_THREE
   \   00014A   AC..         MOV       R4,?V8
   \   00014C   AD..         MOV       R5,?V9
   \   00014E   12....       LCALL     `??osal_memcpy::?relay`; Banked call to: osal_memcpy
   \   000151   7403         MOV       A,#0x3
   \   000153   12....       LCALL     ?DEALLOC_XSTACK8
   1205          
   1206              status = AF_DataRequest( destAddr, epDesc, clusterID, msgLen, msgBuf,
   1207                                       &APS_Counter, options, zcl_radius );
   \   000156                ; Setup parameters for call to function AF_DataRequest
   \   000156   90....       MOV       DPTR,#zcl_radius
   \   000159   E0           MOVX      A,@DPTR
   \   00015A   F5..         MOV       ?V4,A
   \   00015C   78..         MOV       R0,#?V4
   \   00015E   12....       LCALL     ?PUSH_XSTACK_I_ONE
   \   000161   75....       MOV       ?V4,#APS_Counter & 0xff
   \   000164   75....       MOV       ?V5,#(APS_Counter >> 8) & 0xff
   \   000167   78..         MOV       R0,#?V4
   \   000169   12....       LCALL     ?PUSH_XSTACK_I_TWO
   \   00016C   78..         MOV       R0,#?V2
   \   00016E   12....       LCALL     ?PUSH_XSTACK_I_TWO
   \   000171   8E..         MOV       ?V4,R6
   \   000173   8F..         MOV       ?V5,R7
   \   000175   78..         MOV       R0,#?V4
   \   000177   12....       LCALL     ?PUSH_XSTACK_I_TWO
   \   00017A   78..         MOV       R0,#?V0
   \   00017C   12....       LCALL     ?PUSH_XSTACK_I_TWO
   \   00017F   A9..         MOV       R1,?V7
   \   000181   AC..         MOV       R4,?V12
   \   000183   AD..         MOV       R5,?V13
   \   000185   AA..         MOV       R2,?V14
   \   000187   AB..         MOV       R3,?V15
   \   000189   12....       LCALL     `??AF_DataRequest::?relay`; Banked call to: AF_DataRequest
   \   00018C   7409         MOV       A,#0x9
   \   00018E   12....       LCALL     ?DEALLOC_XSTACK8
   \   000191   E9           MOV       A,R1
   \   000192   FE           MOV       R6,A
   1208              zcl_mem_free ( msgBuf );
   \   000193                ; Setup parameters for call to function osal_mem_free
   \   000193   AA..         MOV       R2,?V2
   \   000195   AB..         MOV       R3,?V3
   \   000197   12....       LCALL     `??osal_mem_free::?relay`; Banked call to: osal_mem_free
   \   00019A   8002         SJMP      ??zcl_SendCommand_13
   1209            }
   1210            else
   1211            {
   1212              status = ZMemError;
   \                     ??zcl_SendCommand_12:
   \   00019C   7E10         MOV       R6,#0x10
   1213            }
   1214          
   1215            return ( status );
   \                     ??zcl_SendCommand_13:
   \   00019E   EE           MOV       A,R6
   \   00019F   F9           MOV       R1,A
   \                     ??zcl_SendCommand_1:
   \   0001A0   7406         MOV       A,#0x6
   \   0001A2   02....       LJMP      ?Subroutine5 & 0xFFFF
   1216          }

   \                                 In  segment BANKED_CODE, align 1, keep-with-next
   \                     ?Subroutine108:
   \   000000   12....       LCALL     ?Subroutine166 & 0xFFFF
   \                     ??CrossCallReturnLabel_285:
   \   000003   22           RET

   \                                 In  segment BANKED_CODE, align 1, keep-with-next
   \                     ?Subroutine166:
   \   000000   E0           MOVX      A,@DPTR
   \   000001   85..82       MOV       DPL,?XSP + 0
   \   000004   85..83       MOV       DPH,?XSP + 1
   \   000007   22           RET

   \                                 In  segment BANKED_CODE, align 1, keep-with-next
   \                     ?Subroutine38:
   \   000000   12....       LCALL     ?Subroutine136 & 0xFFFF
   \                     ??CrossCallReturnLabel_243:
   \   000003   22           RET

   \                                 In  segment BANKED_CODE, align 1, keep-with-next
   \                     ?Subroutine136:
   \   000000   F0           MOVX      @DPTR,A
   \   000001   85..82       MOV       DPL,?V12
   \   000004   85..83       MOV       DPH,?V13
   \   000007   A3           INC       DPTR
   \   000008   22           RET

   \                                 In  segment BANKED_CODE, align 1, keep-with-next
   \                     ??Subroutine181_0:
   \   000000   A3           INC       DPTR
   \   000001   A3           INC       DPTR
   \   000002                REQUIRE ??Subroutine182_0
   \   000002                ; // Fall through to label ??Subroutine182_0

   \                                 In  segment BANKED_CODE, align 1, keep-with-next
   \                     ?Subroutine149:
   \   000000   E0           MOVX      A,@DPTR
   \   000001   F5..         MOV       ?V4,A
   \   000003   A3           INC       DPTR
   \   000004   E0           MOVX      A,@DPTR
   \   000005   F5..         MOV       ?V5,A
   \   000007   22           RET

   \                                 In  segment BANKED_CODE, align 1, keep-with-next
   \                     ?Subroutine52:
   \   000000   12....       LCALL     ?Subroutine149 & 0xFFFF
   \                     ??CrossCallReturnLabel_263:
   \   000003   75..00       MOV       ?V6,#0x0
   \   000006   78..         MOV       R0,#?V4
   \   000008   22           RET

   \                                 In  segment BANKED_CODE, align 1, keep-with-next
   \                     ??Subroutine191_0:
   \   000000   E8           MOV       A,R0
   \   000001                REQUIRE ??Subroutine192_0
   \   000001                ; // Fall through to label ??Subroutine192_0

   \                                 In  segment BANKED_CODE, align 1, keep-with-next
   \                     ??Subroutine192_0:
   \   000000   F0           MOVX      @DPTR,A
   \   000001   A3           INC       DPTR
   \   000002   E9           MOV       A,R1
   \   000003   F0           MOVX      @DPTR,A
   \   000004   22           RET

   \                                 In  segment BANKED_CODE, align 1, keep-with-next
   \                     ?Subroutine5:
   \   000000   12....       LCALL     ?DEALLOC_XSTACK8
   \   000003                REQUIRE ??Subroutine200_0
   \   000003                ; // Fall through to label ??Subroutine200_0

   \                                 In  segment BANKED_CODE, align 1, keep-with-next
   \                     ??Subroutine200_0:
   \   000000   7F10         MOV       R7,#0x10
   \   000002   02....       LJMP      ?BANKED_LEAVE_XDATA
   1217          
   1218          #ifdef ZCL_READ
   1219          /*********************************************************************
   1220           * @fn      zcl_SendRead
   1221           *
   1222           * @brief   Send a Read command
   1223           *
   1224           * @param   srcEP - Application's endpoint
   1225           * @param   dstAddr - destination address
   1226           * @param   clusterID - cluster ID
   1227           * @param   readCmd - read command to be sent
   1228           * @param   direction - direction of the command
   1229           * @param   seqNum - transaction sequence number
   1230           *
   1231           * @return  ZSuccess if OK
   1232           */

   \                                 In  segment BANKED_CODE, align 1, keep-with-next
   1233          ZStatus_t zcl_SendRead( uint8 srcEP, afAddrType_t *dstAddr,
   \                     zcl_SendRead:
   1234                                  uint16 clusterID, zclReadCmd_t *readCmd,
   1235                                  uint8 direction, uint8 disableDefaultRsp, uint8 seqNum)
   1236          {
   \   000000                REQUIRE ?V0
   \   000000                REQUIRE ?V1
   \   000000                REQUIRE ?V2
   \   000000                REQUIRE ?V3
   \   000000                REQUIRE ?V4
   \   000000                REQUIRE ?V5
   \   000000                REQUIRE ?V6
   \   000000                REQUIRE ?V7
   \   000000                REQUIRE ?V8
   \   000000                REQUIRE ?V9
   \   000000                REQUIRE ?V10
   \   000000                REQUIRE ?V11
   \   000000   74EC         MOV       A,#-0x14
   \   000002   12....       LCALL     ?BANKED_ENTER_XDATA
   \   000005                ; Saved register size: 20
   \   000005                ; Auto size: 0
   \   000005   89..         MOV       ?V2,R1
   \   000007   8A..         MOV       ?V8,R2
   \   000009   8B..         MOV       ?V9,R3
   \   00000B   EC           MOV       A,R4
   \   00000C   FE           MOV       R6,A
   \   00000D   ED           MOV       A,R5
   \   00000E   FF           MOV       R7,A
   \   00000F   7414         MOV       A,#0x14
   \   000011   12....       LCALL     ?XSTACK_DISP0_8
   \   000014   12....       LCALL     ?Subroutine70 & 0xFFFF
   1237            uint16 dataLen;
   1238            uint8 *buf;
   1239            uint8 *pBuf;
   1240            ZStatus_t status;
   1241          
   1242            dataLen = readCmd->numAttr * 2; // Attribute ID
   \                     ??CrossCallReturnLabel_112:
   \   000017   25E0         ADD       A,0xE0 /* A   */
   \   000019   F5..         MOV       ?V6,A
   \   00001B   E4           CLR       A
   \   00001C   33           RLC       A
   \   00001D   F5..         MOV       ?V7,A
   1243          
   1244            buf = zcl_mem_alloc( dataLen );
   \   00001F                ; Setup parameters for call to function osal_mem_alloc
   \   00001F   AA..         MOV       R2,?V6
   \   000021   FB           MOV       R3,A
   \   000022   12....       LCALL     `??osal_mem_alloc::?relay`; Banked call to: osal_mem_alloc
   \   000025   8A..         MOV       ?V0,R2
   \   000027   8B..         MOV       ?V1,R3
   1245            if ( buf != NULL )
   \   000029   EA           MOV       A,R2
   \   00002A   45..         ORL       A,?V1
   \   00002C   7003         JNZ       $+5
   \   00002E   02....       LJMP      ??zcl_SendRead_0 & 0xFFFF
   1246            {
   1247              uint8 i;
   1248          
   1249              // Load the buffer - serially
   1250              pBuf = buf;
   \   000031   A8..         MOV       R0,?V0
   \   000033   A9..         MOV       R1,?V1
   1251              for (i = 0; i < readCmd->numAttr; i++)
   \   000035   7C00         MOV       R4,#0x0
   \   000037   801D         SJMP      ??zcl_SendRead_1
   1252              {
   1253                *pBuf++ = LO_UINT16( readCmd->attrID[i] );
   \                     ??zcl_SendRead_2:
   \   000039   EC           MOV       A,R4
   \   00003A   25E0         ADD       A,0xE0 /* A   */
   \   00003C   FA           MOV       R2,A
   \   00003D   E4           CLR       A
   \   00003E   33           RLC       A
   \   00003F   FB           MOV       R3,A
   \   000040   12....       LCALL     ?Subroutine123 & 0xFFFF
   1254                *pBuf++ = HI_UINT16( readCmd->attrID[i] );
   1255              }
   \                     ??CrossCallReturnLabel_219:
   \   000043   AA82         MOV       R2,DPL
   \   000045   AB83         MOV       R3,DPH
   \   000047   12....       LCALL     ?Subroutine93 & 0xFFFF
   \                     ??CrossCallReturnLabel_154:
   \   00004A   12....       LCALL     ?Subroutine24 & 0xFFFF
   \                     ??CrossCallReturnLabel_23:
   \   00004D   F0           MOVX      @DPTR,A
   \   00004E   E8           MOV       A,R0
   \   00004F   2402         ADD       A,#0x2
   \   000051   F8           MOV       R0,A
   \   000052   5001         JNC       ??zcl_SendRead_3
   \   000054   09           INC       R1
   \                     ??zcl_SendRead_3:
   \   000055   0C           INC       R4
   \                     ??zcl_SendRead_1:
   \   000056   85..82       MOV       DPL,?V4
   \   000059   85..83       MOV       DPH,?V5
   \   00005C   E0           MOVX      A,@DPTR
   \   00005D   FA           MOV       R2,A
   \   00005E   EC           MOV       A,R4
   \   00005F   C3           CLR       C
   \   000060   9A           SUBB      A,R2
   \   000061   40D6         JC        ??zcl_SendRead_2
   1256          
   1257              status = zcl_SendCommand( srcEP, dstAddr, clusterID, ZCL_CMD_READ, FALSE,
   1258                                        direction, disableDefaultRsp, 0, seqNum, dataLen, buf );
   \   000063                ; Setup parameters for call to function zcl_SendCommand
   \   000063   78..         MOV       R0,#?V0
   \   000065   12....       LCALL     ?PUSH_XSTACK_I_TWO
   \   000068   78..         MOV       R0,#?V6
   \   00006A   12....       LCALL     ?PUSH_XSTACK_I_TWO
   \   00006D   741C         MOV       A,#0x1c
   \   00006F   12....       LCALL     ?XSTACK_DISP0_8
   \   000072   12....       LCALL     ?Subroutine59 & 0xFFFF
   \                     ??CrossCallReturnLabel_80:
   \   000075   12....       LCALL     ?PUSH_XSTACK_I_ONE
   \   000078   E4           CLR       A
   \   000079   F5..         MOV       ?V4,A
   \   00007B   F5..         MOV       ?V5,A
   \   00007D   78..         MOV       R0,#?V4
   \   00007F   12....       LCALL     ?PUSH_XSTACK_I_TWO
   \   000082   741E         MOV       A,#0x1e
   \   000084   12....       LCALL     ?XSTACK_DISP0_8
   \   000087   12....       LCALL     ?Subroutine59 & 0xFFFF
   \                     ??CrossCallReturnLabel_81:
   \   00008A   12....       LCALL     ?PUSH_XSTACK_I_ONE
   \   00008D   741E         MOV       A,#0x1e
   \   00008F   12....       LCALL     ?XSTACK_DISP0_8
   \   000092   12....       LCALL     ?Subroutine59 & 0xFFFF
   \                     ??CrossCallReturnLabel_82:
   \   000095   12....       LCALL     ?PUSH_XSTACK_I_ONE
   \   000098   75..00       MOV       ?V3,#0x0
   \   00009B   78..         MOV       R0,#?V3
   \   00009D   12....       LCALL     ?PUSH_XSTACK_I_ONE
   \   0000A0   78..         MOV       R0,#?V3
   \   0000A2   12....       LCALL     ?PUSH_XSTACK_I_ONE
   \   0000A5   EE           MOV       A,R6
   \   0000A6   FC           MOV       R4,A
   \   0000A7   EF           MOV       A,R7
   \   0000A8   FD           MOV       R5,A
   \   0000A9   AA..         MOV       R2,?V8
   \   0000AB   AB..         MOV       R3,?V9
   \   0000AD   A9..         MOV       R1,?V2
   \   0000AF   12....       LCALL     `??zcl_SendCommand::?relay`; Banked call to: zcl_SendCommand
   \   0000B2   740B         MOV       A,#0xb
   \   0000B4   12....       LCALL     ?DEALLOC_XSTACK8
   \   0000B7   E9           MOV       A,R1
   \   0000B8   FE           MOV       R6,A
   1259              zcl_mem_free( buf );
   \   0000B9                ; Setup parameters for call to function osal_mem_free
   \   0000B9   AA..         MOV       R2,?V0
   \   0000BB   AB..         MOV       R3,?V1
   \   0000BD   12....       LCALL     `??osal_mem_free::?relay`; Banked call to: osal_mem_free
   \   0000C0   8002         SJMP      ??zcl_SendRead_4
   1260            }
   1261            else
   1262            {
   1263              status = ZMemError;
   \                     ??zcl_SendRead_0:
   \   0000C2   7E10         MOV       R6,#0x10
   1264            }
   1265          
   1266            return ( status );
   \                     ??zcl_SendRead_4:
   \   0000C4                REQUIRE ?Subroutine10
   \   0000C4                ; // Fall through to label ?Subroutine10
   1267          }

   \                                 In  segment BANKED_CODE, align 1, keep-with-next
   \                     ?Subroutine10:
   \   000000   EE           MOV       A,R6
   \   000001   F9           MOV       R1,A
   \   000002   02....       LJMP      ??Subroutine199_0 & 0xFFFF

   \                                 In  segment BANKED_CODE, align 1, keep-with-next
   \                     ?Subroutine123:
   \   000000   E5..         MOV       A,?V4
   \   000002   2A           ADD       A,R2
   \   000003   F582         MOV       DPL,A
   \   000005   E5..         MOV       A,?V5
   \   000007   3B           ADDC      A,R3
   \   000008   F583         MOV       DPH,A
   \   00000A   A3           INC       DPTR
   \   00000B   22           RET

   \                                 In  segment BANKED_CODE, align 1, keep-with-next
   \                     ?Subroutine70:
   \   000000   12....       LCALL     ?Subroutine147 & 0xFFFF
   \                     ??CrossCallReturnLabel_257:
   \   000003   E0           MOVX      A,@DPTR
   \   000004   22           RET

   \                                 In  segment BANKED_CODE, align 1, keep-with-next
   \                     ?Subroutine59:
   \   000000   E0           MOVX      A,@DPTR
   \   000001   F5..         MOV       ?V3,A
   \   000003   78..         MOV       R0,#?V3
   \   000005   22           RET

   \                                 In  segment BANKED_CODE, align 1, keep-with-next
   \                     ?Subroutine24:
   \   000000   12....       LCALL     ?Subroutine132 & 0xFFFF
   \                     ??CrossCallReturnLabel_334:
   \   000003   A3           INC       DPTR
   \   000004   12....       LCALL     ?Subroutine148 & 0xFFFF
   \                     ??CrossCallReturnLabel_260:
   \   000007   22           RET

   \                                 In  segment BANKED_CODE, align 1, keep-with-next
   \                     ?Subroutine148:
   \   000000   12....       LCALL     ?Subroutine168 & 0xFFFF
   \                     ??CrossCallReturnLabel_290:
   \   000003   A3           INC       DPTR
   \   000004   22           RET

   \                                 In  segment BANKED_CODE, align 1, keep-with-next
   \                     ?Subroutine93:
   \   000000   12....       LCALL     ?Subroutine168 & 0xFFFF
   \                     ??CrossCallReturnLabel_289:
   \   000003   22           RET

   \                                 In  segment BANKED_CODE, align 1, keep-with-next
   \                     ?Subroutine168:
   \   000000   E0           MOVX      A,@DPTR
   \   000001   8882         MOV       DPL,R0
   \   000003   8983         MOV       DPH,R1
   \   000005   22           RET

   \                                 In  segment BANKED_CODE, align 1, keep-with-next
   \                     ?Subroutine147:
   \   000000   E0           MOVX      A,@DPTR
   \   000001   F5..         MOV       ?V4,A
   \   000003   A3           INC       DPTR
   \   000004   E0           MOVX      A,@DPTR
   \   000005   F5..         MOV       ?V5,A
   \   000007   85..82       MOV       DPL,?V4
   \   00000A   F583         MOV       DPH,A
   \   00000C   22           RET

   \                                 In  segment BANKED_CODE, align 1, keep-with-next
   \                     ??Subroutine199_0:
   \   000000   7F0C         MOV       R7,#0xc
   \   000002   02....       LJMP      ?BANKED_LEAVE_XDATA
   1268          
   1269          /*********************************************************************
   1270           * @fn      zcl_SendReadRsp
   1271           *
   1272           * @brief   Send a Read Response command.
   1273           *
   1274           * @param   srcEP - Application's endpoint
   1275           * @param   dstAddr - destination address
   1276           * @param   clusterID - cluster ID
   1277           * @param   readRspCmd - read response command to be sent
   1278           * @param   direction - direction of the command
   1279           * @param   seqNum - transaction sequence number
   1280           *
   1281           * @return  ZSuccess if OK
   1282           */

   \                                 In  segment BANKED_CODE, align 1, keep-with-next
   1283          ZStatus_t zcl_SendReadRsp( uint8 srcEP, afAddrType_t *dstAddr,
   \                     zcl_SendReadRsp:
   1284                                     uint16 clusterID, zclReadRspCmd_t *readRspCmd,
   1285                                     uint8 direction, uint8 disableDefaultRsp, uint8 seqNum )
   1286          {
   \   000000                REQUIRE ?V0
   \   000000                REQUIRE ?V1
   \   000000                REQUIRE ?V2
   \   000000                REQUIRE ?V3
   \   000000                REQUIRE ?V4
   \   000000                REQUIRE ?V5
   \   000000                REQUIRE ?V6
   \   000000                REQUIRE ?V7
   \   000000                REQUIRE ?V8
   \   000000                REQUIRE ?V9
   \   000000                REQUIRE ?V10
   \   000000                REQUIRE ?V11
   \   000000                REQUIRE ?V12
   \   000000                REQUIRE ?V13
   \   000000   74EA         MOV       A,#-0x16
   \   000002   12....       LCALL     ?BANKED_ENTER_XDATA
   \   000005                ; Saved register size: 22
   \   000005                ; Auto size: 2
   \   000005   74FE         MOV       A,#-0x2
   \   000007   12....       LCALL     ?ALLOC_XSTACK8
   \   00000A   89..         MOV       ?V3,R1
   \   00000C   8A..         MOV       ?V12,R2
   \   00000E   8B..         MOV       ?V13,R3
   \   000010   8C..         MOV       ?V6,R4
   \   000012   8D..         MOV       ?V7,R5
   1287            uint8 *buf;
   1288            uint16 len = 0;
   \   000014   7E00         MOV       R6,#0x0
   \   000016   7F00         MOV       R7,#0x0
   1289            ZStatus_t status;
   1290            uint8 i;
   1291          
   1292            // calculate the size of the command
   1293            for ( i = 0; i < readRspCmd->numAttr; i++ )
   \   000018   75..00       MOV       ?V2,#0x0
   \   00001B   7418         MOV       A,#0x18
   \   00001D   12....       LCALL     ?XSTACK_DISP0_8
   \   000020   12....       LCALL     ??Subroutine193_0 & 0xFFFF
   \                     ??CrossCallReturnLabel_432:
   \   000023   8011         SJMP      ??zcl_SendReadRsp_0
   1294            {
   1295              zclReadRspStatus_t *statusRec = &(readRspCmd->attrList[i]);
   1296          
   1297              len += 2 + 1; // Attribute ID + Status
   1298          
   1299              if ( statusRec->status == ZCL_STATUS_SUCCESS )
   1300              {
   1301                len++; // Attribute Data Type length
   1302          
   1303                // Attribute Data length
   1304                if ( statusRec->data != NULL )
   1305                {
   1306                  len += zclGetAttrDataLength( statusRec->dataType, statusRec->data );
   1307                }
   1308                else
   1309                {
   1310                  len += zclGetAttrDataLengthUsingCB( srcEP, clusterID, statusRec->attrID );
   \                     ??zcl_SendReadRsp_1:
   \   000025                ; Setup parameters for call to function zclGetAttrDataLengthUsingCB
   \   000025   12....       LCALL     ?Subroutine78 & 0xFFFF
   1311                }
   \                     ??CrossCallReturnLabel_126:
   \   000028   12....       LCALL     `??zclGetAttrDataLengthUsingCB::?relay`; Banked call to: zclGetAttrDataLengthUsingCB
   \                     ??zcl_SendReadRsp_2:
   \   00002B   8B..         MOV       ?V1,R3
   \   00002D   EE           MOV       A,R6
   \   00002E   2A           ADD       A,R2
   \   00002F   FE           MOV       R6,A
   \   000030   EF           MOV       A,R7
   \   000031   35..         ADDC      A,?V1
   \   000033   FF           MOV       R7,A
   \                     ??zcl_SendReadRsp_3:
   \   000034   05..         INC       ?V2
   \                     ??zcl_SendReadRsp_0:
   \   000036   12....       LCALL     ?Subroutine72 & 0xFFFF
   \                     ??CrossCallReturnLabel_416:
   \   000039   503F         JNC       ??zcl_SendReadRsp_4
   \   00003B   E5..         MOV       A,?V2
   \   00003D   75F006       MOV       B,#0x6
   \   000040   A4           MUL       AB
   \   000041   F8           MOV       R0,A
   \   000042   A9F0         MOV       R1,B
   \   000044   E5..         MOV       A,?V8
   \   000046   28           ADD       A,R0
   \   000047   F582         MOV       DPL,A
   \   000049   E5..         MOV       A,?V9
   \   00004B   12....       LCALL     ?Subroutine124 & 0xFFFF
   \                     ??CrossCallReturnLabel_221:
   \   00004E   EE           MOV       A,R6
   \   00004F   2403         ADD       A,#0x3
   \   000051   FE           MOV       R6,A
   \   000052   E4           CLR       A
   \   000053   3F           ADDC      A,R7
   \   000054   FF           MOV       R7,A
   \   000055   A3           INC       DPTR
   \   000056   A3           INC       DPTR
   \   000057   E0           MOVX      A,@DPTR
   \   000058   70DA         JNZ       ??zcl_SendReadRsp_3
   \   00005A   0E           INC       R6
   \   00005B   EE           MOV       A,R6
   \   00005C   7001         JNZ       ??zcl_SendReadRsp_5
   \   00005E   0F           INC       R7
   \                     ??zcl_SendReadRsp_5:
   \   00005F   8882         MOV       DPL,R0
   \   000061   8983         MOV       DPH,R1
   \   000063   A3           INC       DPTR
   \   000064   A3           INC       DPTR
   \   000065   A3           INC       DPTR
   \   000066   A3           INC       DPTR
   \   000067   12....       LCALL     ??Subroutine173_0 & 0xFFFF
   \                     ??CrossCallReturnLabel_309:
   \   00006A   8882         MOV       DPL,R0
   \   00006C   8983         MOV       DPH,R1
   \   00006E   60B5         JZ        ??zcl_SendReadRsp_1
   \   000070                ; Setup parameters for call to function zclGetAttrDataLength
   \   000070   A3           INC       DPTR
   \   000071   A3           INC       DPTR
   \   000072   A3           INC       DPTR
   \   000073   E0           MOVX      A,@DPTR
   \   000074   F9           MOV       R1,A
   \   000075   12....       LCALL     `??zclGetAttrDataLength::?relay`; Banked call to: zclGetAttrDataLength
   \   000078   80B1         SJMP      ??zcl_SendReadRsp_2
   1312              }
   1313            }
   1314          
   1315            buf = zcl_mem_alloc( len );
   \                     ??zcl_SendReadRsp_4:
   \   00007A                ; Setup parameters for call to function osal_mem_alloc
   \   00007A   EE           MOV       A,R6
   \   00007B   FA           MOV       R2,A
   \   00007C   EF           MOV       A,R7
   \   00007D   FB           MOV       R3,A
   \   00007E   12....       LCALL     `??osal_mem_alloc::?relay`; Banked call to: osal_mem_alloc
   \   000081   8A..         MOV       ?V0,R2
   \   000083   8B..         MOV       ?V1,R3
   \   000085   8A..         MOV       ?V4,R2
   \   000087   8B..         MOV       ?V5,R3
   1316            if ( buf != NULL )
   \   000089   EA           MOV       A,R2
   \   00008A   45..         ORL       A,?V5
   \   00008C   7003         JNZ       $+5
   \   00008E   02....       LJMP      ??zcl_SendReadRsp_6 & 0xFFFF
   1317            {
   1318              // Load the buffer - serially
   1319              uint8 *pBuf = buf;
   1320          
   1321              for ( i = 0; i < readRspCmd->numAttr; i++ )
   \   000091   75..00       MOV       ?V2,#0x0
   \   000094   8036         SJMP      ??zcl_SendReadRsp_7
   1322              {
   1323                zclReadRspStatus_t *statusRec = &(readRspCmd->attrList[i]);
   1324          
   1325                *pBuf++ = LO_UINT16( statusRec->attrID );
   1326                *pBuf++ = HI_UINT16( statusRec->attrID );
   1327                *pBuf++ = statusRec->status;
   1328          
   1329                if ( statusRec->status == ZCL_STATUS_SUCCESS )
   1330                {
   1331                  *pBuf++ = statusRec->dataType;
   1332          
   1333                  if ( statusRec->data != NULL )
   1334                  {
   1335                    // Copy attribute data to the buffer to be sent out
   1336                    pBuf = zclSerializeData( statusRec->dataType, statusRec->data, pBuf );
   1337                  }
   1338                  else
   1339                  {
   1340                    uint16 dataLen;
   1341          
   1342                    // Read attribute data directly into the buffer to be sent out
   1343                    zclReadAttrDataUsingCB( srcEP, clusterID, statusRec->attrID, pBuf, &dataLen );
   \                     ??zcl_SendReadRsp_8:
   \   000096                ; Setup parameters for call to function zclReadAttrDataUsingCB
   \   000096   A8..         MOV       R0,?XSP + 0
   \   000098   A9..         MOV       R1,?XSP + 1
   \   00009A   88..         MOV       ?V10,R0
   \   00009C   89..         MOV       ?V11,R1
   \   00009E   78..         MOV       R0,#?V10
   \   0000A0   12....       LCALL     ?PUSH_XSTACK_I_TWO
   \   0000A3   78..         MOV       R0,#?V0
   \   0000A5   12....       LCALL     ?PUSH_XSTACK_I_TWO
   \   0000A8   8A82         MOV       DPL,R2
   \   0000AA   8B83         MOV       DPH,R3
   \   0000AC   12....       LCALL     ?Subroutine78 & 0xFFFF
   \                     ??CrossCallReturnLabel_127:
   \   0000AF   12....       LCALL     `??zclReadAttrDataUsingCB::?relay`; Banked call to: zclReadAttrDataUsingCB
   \   0000B2   7404         MOV       A,#0x4
   \   0000B4   12....       LCALL     ?DEALLOC_XSTACK8
   1344                    pBuf += dataLen;
   \   0000B7   85..82       MOV       DPL,?XSP + 0
   \   0000BA   85..83       MOV       DPH,?XSP + 1
   \   0000BD   12....       LCALL     ??Subroutine183_0 & 0xFFFF
   1345                  }
   \                     ??CrossCallReturnLabel_354:
   \   0000C0   E5..         MOV       A,?V0
   \   0000C2   28           ADD       A,R0
   \   0000C3   F5..         MOV       ?V0,A
   \   0000C5   E5..         MOV       A,?V1
   \   0000C7   39           ADDC      A,R1
   \   0000C8   F5..         MOV       ?V1,A
   \                     ??zcl_SendReadRsp_9:
   \   0000CA   05..         INC       ?V2
   \                     ??zcl_SendReadRsp_7:
   \   0000CC   12....       LCALL     ?Subroutine72 & 0xFFFF
   \                     ??CrossCallReturnLabel_417:
   \   0000CF   5078         JNC       ??zcl_SendReadRsp_10
   \   0000D1   E5..         MOV       A,?V2
   \   0000D3   75F006       MOV       B,#0x6
   \   0000D6   A4           MUL       AB
   \   0000D7   F8           MOV       R0,A
   \   0000D8   A9F0         MOV       R1,B
   \   0000DA   E5..         MOV       A,?V8
   \   0000DC   28           ADD       A,R0
   \   0000DD   F582         MOV       DPL,A
   \   0000DF   E5..         MOV       A,?V9
   \   0000E1   12....       LCALL     ?Subroutine125 & 0xFFFF
   \                     ??CrossCallReturnLabel_223:
   \   0000E4   12....       LCALL     ?Subroutine109 & 0xFFFF
   \                     ??CrossCallReturnLabel_188:
   \   0000E7   8A82         MOV       DPL,R2
   \   0000E9   8B83         MOV       DPH,R3
   \   0000EB   A3           INC       DPTR
   \   0000EC   12....       LCALL     ?Subroutine110 & 0xFFFF
   \                     ??CrossCallReturnLabel_190:
   \   0000EF   F0           MOVX      @DPTR,A
   \   0000F0   12....       LCALL     ?Subroutine112 & 0xFFFF
   \                     ??CrossCallReturnLabel_194:
   \   0000F3   12....       LCALL     ?Subroutine110 & 0xFFFF
   \                     ??CrossCallReturnLabel_191:
   \   0000F6   A3           INC       DPTR
   \   0000F7   F0           MOVX      @DPTR,A
   \   0000F8   E5..         MOV       A,?V0
   \   0000FA   2403         ADD       A,#0x3
   \   0000FC   F5..         MOV       ?V0,A
   \   0000FE   5002         JNC       ??zcl_SendReadRsp_11
   \   000100   05..         INC       ?V1
   \                     ??zcl_SendReadRsp_11:
   \   000102   8882         MOV       DPL,R0
   \   000104   8983         MOV       DPH,R1
   \   000106   E0           MOVX      A,@DPTR
   \   000107   70C1         JNZ       ??zcl_SendReadRsp_9
   \   000109   EA           MOV       A,R2
   \   00010A   2403         ADD       A,#0x3
   \   00010C   08           INC       R0
   \   00010D   E4           CLR       A
   \   00010E   3B           ADDC      A,R3
   \   00010F   F9           MOV       R1,A
   \   000110   8882         MOV       DPL,R0
   \   000112   8983         MOV       DPH,R1
   \   000114   12....       LCALL     ?Subroutine109 & 0xFFFF
   \                     ??CrossCallReturnLabel_189:
   \   000117   A3           INC       DPTR
   \   000118   8582..       MOV       ?V0,DPL
   \   00011B   8583..       MOV       ?V1,DPH
   \   00011E   8A82         MOV       DPL,R2
   \   000120   8B83         MOV       DPH,R3
   \   000122   12....       LCALL     ?Subroutine91 & 0xFFFF
   \                     ??CrossCallReturnLabel_470:
   \   000125   8C82         MOV       DPL,R4
   \   000127   8D83         MOV       DPH,R5
   \   000129   E582         MOV       A,DPL
   \   00012B   4583         ORL       A,DPH
   \   00012D   7003         JNZ       $+5
   \   00012F   02....       LJMP      ??zcl_SendReadRsp_8 & 0xFFFF
   \   000132                ; Setup parameters for call to function zclSerializeData
   \   000132   AC..         MOV       R4,?V0
   \   000134   AD..         MOV       R5,?V1
   \   000136   AA82         MOV       R2,DPL
   \   000138   AB83         MOV       R3,DPH
   \   00013A   8882         MOV       DPL,R0
   \   00013C   8983         MOV       DPH,R1
   \   00013E   E0           MOVX      A,@DPTR
   \   00013F   F9           MOV       R1,A
   \   000140   12....       LCALL     `??zclSerializeData::?relay`; Banked call to: zclSerializeData
   \   000143   8A..         MOV       ?V0,R2
   \   000145   8B..         MOV       ?V1,R3
   \   000147   8081         SJMP      ??zcl_SendReadRsp_9
   1346                }
   1347              } // for loop
   1348          
   1349              status = zcl_SendCommand( srcEP, dstAddr, clusterID, ZCL_CMD_READ_RSP, FALSE,
   1350                                        direction, disableDefaultRsp, 0, seqNum, len, buf );
   \                     ??zcl_SendReadRsp_10:
   \   000149                ; Setup parameters for call to function zcl_SendCommand
   \   000149   78..         MOV       R0,#?V4
   \   00014B   12....       LCALL     ?PUSH_XSTACK_I_TWO
   \   00014E   8E..         MOV       ?V0,R6
   \   000150   8F..         MOV       ?V1,R7
   \   000152   78..         MOV       R0,#?V0
   \   000154   12....       LCALL     ?PUSH_XSTACK_I_TWO
   \   000157   7420         MOV       A,#0x20
   \   000159   12....       LCALL     ?XSTACK_DISP0_8
   \   00015C   12....       LCALL     ?Subroutine60 & 0xFFFF
   \                     ??CrossCallReturnLabel_89:
   \   00015F   12....       LCALL     ?PUSH_XSTACK_I_ONE
   \   000162   E4           CLR       A
   \   000163   F5..         MOV       ?V0,A
   \   000165   F5..         MOV       ?V1,A
   \   000167   78..         MOV       R0,#?V0
   \   000169   12....       LCALL     ?PUSH_XSTACK_I_TWO
   \   00016C   7422         MOV       A,#0x22
   \   00016E   12....       LCALL     ?XSTACK_DISP0_8
   \   000171   12....       LCALL     ?Subroutine60 & 0xFFFF
   \                     ??CrossCallReturnLabel_90:
   \   000174   12....       LCALL     ?PUSH_XSTACK_I_ONE
   \   000177   7422         MOV       A,#0x22
   \   000179   12....       LCALL     ?XSTACK_DISP0_8
   \   00017C   12....       LCALL     ?Subroutine60 & 0xFFFF
   \                     ??CrossCallReturnLabel_91:
   \   00017F   12....       LCALL     ?PUSH_XSTACK_I_ONE
   \   000182   75..00       MOV       ?V0,#0x0
   \   000185   78..         MOV       R0,#?V0
   \   000187   12....       LCALL     ?PUSH_XSTACK_I_ONE
   \   00018A   75..01       MOV       ?V0,#0x1
   \   00018D   78..         MOV       R0,#?V0
   \   00018F   12....       LCALL     ?PUSH_XSTACK_I_ONE
   \   000192   AC..         MOV       R4,?V6
   \   000194   AD..         MOV       R5,?V7
   \   000196   AA..         MOV       R2,?V12
   \   000198   AB..         MOV       R3,?V13
   \   00019A   A9..         MOV       R1,?V3
   \   00019C   12....       LCALL     `??zcl_SendCommand::?relay`; Banked call to: zcl_SendCommand
   \   00019F   740B         MOV       A,#0xb
   \   0001A1   12....       LCALL     ?DEALLOC_XSTACK8
   \   0001A4   E9           MOV       A,R1
   \   0001A5   FE           MOV       R6,A
   1351              zcl_mem_free( buf );
   \   0001A6                ; Setup parameters for call to function osal_mem_free
   \   0001A6   AA..         MOV       R2,?V4
   \   0001A8   AB..         MOV       R3,?V5
   \   0001AA   12....       LCALL     `??osal_mem_free::?relay`; Banked call to: osal_mem_free
   \   0001AD   8002         SJMP      ??zcl_SendReadRsp_12
   1352            }
   1353            else
   1354            {
   1355              status = ZMemError;
   \                     ??zcl_SendReadRsp_6:
   \   0001AF   7E10         MOV       R6,#0x10
   1356            }
   1357          
   1358            return ( status );
   \                     ??zcl_SendReadRsp_12:
   \   0001B1   EE           MOV       A,R6
   \   0001B2   F9           MOV       R1,A
   \   0001B3   7402         MOV       A,#0x2
   \   0001B5   12....       LCALL     ?DEALLOC_XSTACK8
   \   0001B8   80..         SJMP      ??Subroutine174_0
   1359          }

   \                                 In  segment BANKED_CODE, align 1, keep-with-next
   \                     ?Subroutine110:
   \   000000   12....       LCALL     ?Subroutine157 & 0xFFFF
   \                     ??CrossCallReturnLabel_279:
   \   000003   22           RET

   \                                 In  segment BANKED_CODE, align 1, keep-with-next
   \                     ?Subroutine157:
   \   000000   E0           MOVX      A,@DPTR
   \   000001   85..82       MOV       DPL,?V0
   \   000004   85..83       MOV       DPH,?V1
   \   000007   A3           INC       DPTR
   \   000008   22           RET

   \                                 In  segment BANKED_CODE, align 1, keep-with-next
   \                     ?Subroutine109:
   \   000000   E0           MOVX      A,@DPTR
   \   000001   85..82       MOV       DPL,?V0
   \   000004   85..83       MOV       DPH,?V1
   \   000007   F0           MOVX      @DPTR,A
   \   000008   22           RET

   \                                 In  segment BANKED_CODE, align 1, keep-with-next
   \                     ?Subroutine78:
   \   000000   12....       LCALL     ??Subroutine209_0 & 0xFFFF
   \                     ??CrossCallReturnLabel_498:
   \   000003   AA..         MOV       R2,?V6
   \   000005   AB..         MOV       R3,?V7
   \   000007   A9..         MOV       R1,?V3
   \   000009   22           RET

   \                                 In  segment BANKED_CODE, align 1, keep-with-next
   \                     ??Subroutine174_0:
   \   000000   7F0E         MOV       R7,#0xe
   \   000002   02....       LJMP      ?BANKED_LEAVE_XDATA

   \                                 In  segment BANKED_CODE, align 1, keep-with-next
   \                     ?Subroutine124:
   \   000000   39           ADDC      A,R1
   \   000001   F583         MOV       DPH,A
   \   000003   A3           INC       DPTR
