###############################################################################
#
# IAR C/C++ Compiler V10.10.1.4655 for 8051               08/Apr/2021  22:44:43
# Copyright 2004-2017 IAR Systems AB.
# Standalone license - IAR Embedded Workbench for 8051
#
#    Core               =  plain
#    Code model         =  banked
#    Data model         =  large
#    Calling convention =  xdata reentrant
#    Constant location  =  data_rom
#    Dptr setup         =  1,16
#                          
#    Source file        =  
#        E:\ZLinker 1.0.3\Z-Stack 3.0.2\Components\hal\userspace\hal_tft.c
#    Command line       =  
#        -f C:\Users\Michael\AppData\Local\Temp\EW32B3.tmp ("E:\ZLinker
#        1.0.3\Z-Stack 3.0.2\Components\hal\userspace\hal_tft.c" -D SECURE=1 -D
#        TC_LINKKEY_JOIN -D NV_INIT -D NV_RESTORE -D xZTOOL_P1 -D xMT_TASK -D
#        xMT_APP_FUNC -D xMT_SYS_FUNC -D xMT_ZDO_FUNC -D xMT_ZDO_MGMT -D
#        xMT_APP_CNF_FUNC -D LCD_SUPPORTED=DEBUG -D MULTICAST_ENABLED=FALSE -D
#        ZCL_READ -D ZCL_DISCOVER -D ZCL_WRITE -D ZCL_BASIC -D ZCL_IDENTIFY -D
#        ZCL_ON_OFF -D ZCL_GROUPS -D ZCL_LEVEL_CTRL -D HAL_KEY=TRUE -D
#        ISR_KEYINTERRUPT -D HAL_LCD=TRUE -D ZB_CONFIG_PA_ENABLE=TRUE -D
#        TEST_RSSI=TRUE -lC "E:\ZLinker 1.0.3\Z-Stack
#        3.0.2\Projects\CC2530\Category\Coordinator\List" -lA "E:\ZLinker
#        1.0.3\Z-Stack 3.0.2\Projects\CC2530\Category\Coordinator\List"
#        --diag_suppress Pe001,Pa010 -o "E:\ZLinker 1.0.3\Z-Stack
#        3.0.2\Projects\CC2530\Category\Coordinator\Obj" -e --debug
#        --core=plain --dptr=16,1 --data_model=large --code_model=banked
#        --calling_convention=xdata_reentrant --place_constants=data_rom
#        --nr_virtual_regs 16 -f "E:\ZLinker 1.0.3\Z-Stack
#        3.0.2\Projects\CC2530\Tools\f8wCoord.cfg" (-DCPU32MHZ
#        -DROOT=__near_func -DMAC_CFG_APP_PENDING_QUEUE=TRUE
#        -DMAC_CFG_TX_DATA_MAX=5 -DMAC_CFG_TX_MAX=8 -DMAC_CFG_RX_MAX=5
#        -DZDO_COORDINATOR -DRTR_NWK) -f "E:\ZLinker 1.0.3\Z-Stack
#        3.0.2\Projects\CC2530\Tools\f8wConfig.cfg" (-DZIGBEEPRO -DSECURE=1
#        -DZG_SECURE_DYNAMIC=0 -DREFLECTOR -DDEFAULT_CHANLIST=0x00000800
#        -DZDAPP_CONFIG_PAN_ID=0xFFFF -DNWK_START_DELAY=100
#        -DEXTENDED_JOINING_RANDOM_MASK=0x007F -DBEACON_REQUEST_DELAY=100
#        -DBEACON_REQ_DELAY_MASK=0x00FF -DLINK_STATUS_JITTER_MASK=0x007F
#        -DROUTE_EXPIRY_TIME=30 -DAPSC_ACK_WAIT_DURATION_POLLED=3000
#        -DNWK_INDIRECT_MSG_TIMEOUT=7 -DMAX_RREQ_ENTRIES=8
#        -DAPSC_MAX_FRAME_RETRIES=3 -DNWK_MAX_DATA_RETRIES=2
#        -DMAX_POLL_FAILURE_RETRIES=2 -DMAX_BCAST=9 -DAPS_MAX_GROUPS=16
#        -DMAX_RTG_ENTRIES=40 -DNWK_MAX_BINDING_ENTRIES=4
#        -DMAX_BINDING_CLUSTER_IDS=4 -DDEFAULT_KEY={0} -DMAC_MAX_FRAME_SIZE=116
#        -DZDNWKMGR_MIN_TRANSMISSIONS=20 "-DCONST=const __code"
#        -DGENERIC=__generic -DRFD_RCVC_ALWAYS_ON=FALSE -DPOLL_RATE=1000
#        -DQUEUED_POLL_RATE=100 -DRESPONSE_POLL_RATE=100 -DREJOIN_POLL_RATE=440
#        -DREJOIN_BACKOFF=900000 -DREJOIN_SCAN=900000 -DENABLE_LED4_DISABLE_S1)
#        -f "E:\ZLinker 1.0.3\Z-Stack 3.0.2\Projects\CC2530\Tools\f8wZCL.cfg"
#        -I "E:\ZLinker 1.0.3\Z-Stack 3.0.2\Projects\CC2530\" -I "E:\ZLinker
#        1.0.3\Z-Stack 3.0.2\Projects\CC2530\..\..\Components\hal\include\" -I
#        "E:\ZLinker 1.0.3\Z-Stack
#        3.0.2\Projects\CC2530\..\..\Components\hal\target\CC2530EB\" -I
#        "E:\ZLinker 1.0.3\Z-Stack
#        3.0.2\Projects\CC2530\..\..\Components\hal\userspace\" -I "E:\ZLinker
#        1.0.3\Z-Stack 3.0.2\Projects\CC2530\..\..\Components\mac\include\" -I
#        "E:\ZLinker 1.0.3\Z-Stack
#        3.0.2\Projects\CC2530\..\..\Components\mac\high_level\" -I "E:\ZLinker
#        1.0.3\Z-Stack
#        3.0.2\Projects\CC2530\..\..\Components\mac\low_level\srf04\" -I
#        "E:\ZLinker 1.0.3\Z-Stack
#        3.0.2\Projects\CC2530\..\..\Components\mac\low_level\srf04\single_chip\"
#        -I "E:\ZLinker 1.0.3\Z-Stack
#        3.0.2\Projects\CC2530\..\..\Components\mt\" -I "E:\ZLinker
#        1.0.3\Z-Stack 3.0.2\Projects\CC2530\..\..\Components\osal\include\" -I
#        "E:\ZLinker 1.0.3\Z-Stack
#        3.0.2\Projects\CC2530\..\..\Components\services\saddr\" -I "E:\ZLinker
#        1.0.3\Z-Stack 3.0.2\Projects\CC2530\..\..\Components\services\sdata\"
#        -I "E:\ZLinker 1.0.3\Z-Stack
#        3.0.2\Projects\CC2530\..\..\Components\stack\af\" -I "E:\ZLinker
#        1.0.3\Z-Stack 3.0.2\Projects\CC2530\..\..\Components\stack\bdb\" -I
#        "E:\ZLinker 1.0.3\Z-Stack
#        3.0.2\Projects\CC2530\..\..\Components\stack\gp\" -I "E:\ZLinker
#        1.0.3\Z-Stack 3.0.2\Projects\CC2530\..\..\Components\stack\nwk\" -I
#        "E:\ZLinker 1.0.3\Z-Stack
#        3.0.2\Projects\CC2530\..\..\Components\stack\sapi\" -I "E:\ZLinker
#        1.0.3\Z-Stack 3.0.2\Projects\CC2530\..\..\Components\stack\sec\" -I
#        "E:\ZLinker 1.0.3\Z-Stack
#        3.0.2\Projects\CC2530\..\..\Components\stack\sys\" -I "E:\ZLinker
#        1.0.3\Z-Stack 3.0.2\Projects\CC2530\..\..\Components\stack\zcl\" -I
#        "E:\ZLinker 1.0.3\Z-Stack
#        3.0.2\Projects\CC2530\..\..\Components\stack\zdo\" -I "E:\ZLinker
#        1.0.3\Z-Stack 3.0.2\Projects\CC2530\..\..\Components\zmac\" -I
#        "E:\ZLinker 1.0.3\Z-Stack
#        3.0.2\Projects\CC2530\..\..\Components\zmac\f8w\" -I "E:\ZLinker
#        1.0.3\Z-Stack 3.0.2\Projects\CC2530\..\..\Applications\" -Ohz
#        --require_prototypes)
#    Locale             =  Chinese (Simplified)_China.936
#    List file          =  
#        E:\ZLinker 1.0.3\Z-Stack
#        3.0.2\Projects\CC2530\Category\Coordinator\List\hal_tft.lst
#    Object file        =  
#        E:\ZLinker 1.0.3\Z-Stack
#        3.0.2\Projects\CC2530\Category\Coordinator\Obj\hal_tft.r51
#
###############################################################################

E:\ZLinker 1.0.3\Z-Stack 3.0.2\Components\hal\userspace\hal_tft.c
      1          #include "hal_tft.h"

   \                                 In  segment SFR_AN, at 0x90
   \   union <unnamed> volatile __sfr _A_P1
   \                     _A_P1:
   \   000000                DS 1
      2          #include "font_h_8x16.h"

   \                                 In  segment XDATA_ROM_C, align 1
   \   static unsigned char const __xdata_rom FontTable_H_8X16[1520]
   \                     FontTable_H_8X16:
   \   000000   00           DB 0
   \   000001   00           DB 0
   \   000002   00           DB 0
   \   000003   00           DB 0
   \   000004   00           DB 0
   \   000005   00           DB 0
   \   000006   00           DB 0
   \   000007   00           DB 0
   \   000008   00           DB 0
   \   000009   00           DB 0
   \   00000A   00           DB 0
   \   00000B   00           DB 0
   \   00000C   00           DB 0
   \   00000D   00           DB 0
   \   00000E   00           DB 0
   \   00000F   00           DB 0
   \   000010   00           DB 0
   \   000011   10           DB 16
   \   000012   10           DB 16
   \   000013   10           DB 16
   \   000014   10           DB 16
   \   000015   10           DB 16
   \   000016   10           DB 16
   \   000017   10           DB 16
   \   000018   10           DB 16
   \   000019   10           DB 16
   \   00001A   00           DB 0
   \   00001B   00           DB 0
   \   00001C   10           DB 16
   \   00001D   10           DB 16
   \   00001E   00           DB 0
   \   00001F   00           DB 0
   \   000020   00           DB 0
   \   000021   00           DB 0
   \   000022   6C           DB 108
   \   000023   6C           DB 108
   \   000024   24           DB 36
   \   000025   24           DB 36
   \   000026   00           DB 0
   \   000027   00           DB 0
   \   000028   00           DB 0
   \   000029   00           DB 0
   \   00002A   01           DB 1
   \   00002B   00           DB 0
   \   00002C   00           DB 0
   \   00002D   00           DB 0
   \   00002E   00           DB 0
   \   00002F   00           DB 0
   \   000030   00           DB 0
   \   000031   24           DB 36
   \   000032   24           DB 36
   \   000033   24           DB 36
   \   000034   24           DB 36
   \   000035   FE           DB 254
   \   000036   48           DB 72
   \   000037   48           DB 72
   \   000038   48           DB 72
   \   000039   48           DB 72
   \   00003A   FC           DB 252
   \   00003B   90           DB 144
   \   00003C   90           DB 144
   \   00003D   90           DB 144
   \   00003E   90           DB 144
   \   00003F   00           DB 0
   \   000040   00           DB 0
   \   000041   10           DB 16
   \   000042   3C           DB 60
   \   000043   54           DB 84
   \   000044   92           DB 146
   \   000045   90           DB 144
   \   000046   50           DB 80
   \   000047   38           DB 56
   \   000048   14           DB 20
   \   000049   12           DB 18
   \   00004A   12           DB 18
   \   00004B   92           DB 146
   \   00004C   54           DB 84
   \   00004D   78           DB 120
   \   00004E   10           DB 16
   \   00004F   00           DB 0
   \   000050   00           DB 0
   \   000051   00           DB 0
   \   000052   22           DB 34
   \   000053   5C           DB 92
   \   000054   94           DB 148
   \   000055   A8           DB 168
   \   000056   48           DB 72
   \   000057   10           DB 16
   \   000058   10           DB 16
   \   000059   24           DB 36
   \   00005A   2A           DB 42
   \   00005B   52           DB 82
   \   00005C   54           DB 84
   \   00005D   88           DB 136
   \   00005E   00           DB 0
   \   00005F   00           DB 0
   \   000060   00           DB 0
   \   000061   00           DB 0
   \   000062   30           DB 48
   \   000063   48           DB 72
   \   000064   48           DB 72
   \   000065   50           DB 80
   \   000066   20           DB 32
   \   000067   6E           DB 110
   \   000068   54           DB 84
   \   000069   94           DB 148
   \   00006A   8C           DB 140
   \   00006B   88           DB 136
   \   00006C   8A           DB 138
   \   00006D   74           DB 116
   \   00006E   00           DB 0
   \   00006F   00           DB 0
   \   000070   00           DB 0
   \   000071   00           DB 0
   \   000072   30           DB 48
   \   000073   30           DB 48
   \   000074   10           DB 16
   \   000075   10           DB 16
   \   000076   00           DB 0
   \   000077   00           DB 0
   \   000078   00           DB 0
   \   000079   00           DB 0
   \   00007A   00           DB 0
   \   00007B   00           DB 0
   \   00007C   00           DB 0
   \   00007D   00           DB 0
   \   00007E   00           DB 0
   \   00007F   00           DB 0
   \   000080   00           DB 0
   \   000081   04           DB 4
   \   000082   08           DB 8
   \   000083   10           DB 16
   \   000084   10           DB 16
   \   000085   20           DB 32
   \   000086   20           DB 32
   \   000087   20           DB 32
   \   000088   20           DB 32
   \   000089   20           DB 32
   \   00008A   20           DB 32
   \   00008B   10           DB 16
   \   00008C   10           DB 16
   \   00008D   08           DB 8
   \   00008E   04           DB 4
   \   00008F   00           DB 0
   \   000090   00           DB 0
   \   000091   80           DB 128
   \   000092   40           DB 64
   \   000093   20           DB 32
   \   000094   20           DB 32
   \   000095   10           DB 16
   \   000096   10           DB 16
   \   000097   10           DB 16
   \   000098   10           DB 16
   \   000099   10           DB 16
   \   00009A   10           DB 16
   \   00009B   20           DB 32
   \   00009C   20           DB 32
   \   00009D   40           DB 64
   \   00009E   80           DB 128
   \   00009F   00           DB 0
   \   0000A0   00           DB 0
   \   0000A1   00           DB 0
   \   0000A2   00           DB 0
   \   0000A3   00           DB 0
   \   0000A4   10           DB 16
   \   0000A5   54           DB 84
   \   0000A6   38           DB 56
   \   0000A7   10           DB 16
   \   0000A8   38           DB 56
   \   0000A9   54           DB 84
   \   0000AA   10           DB 16
   \   0000AB   00           DB 0
   \   0000AC   00           DB 0
   \   0000AD   00           DB 0
   \   0000AE   00           DB 0
   \   0000AF   00           DB 0
   \   0000B0   00           DB 0
   \   0000B1   00           DB 0
   \   0000B2   00           DB 0
   \   0000B3   10           DB 16
   \   0000B4   10           DB 16
   \   0000B5   10           DB 16
   \   0000B6   10           DB 16
   \   0000B7   FE           DB 254
   \   0000B8   10           DB 16
   \   0000B9   10           DB 16
   \   0000BA   10           DB 16
   \   0000BB   10           DB 16
   \   0000BC   00           DB 0
   \   0000BD   00           DB 0
   \   0000BE   00           DB 0
   \   0000BF   00           DB 0
   \   0000C0   00           DB 0
   \   0000C1   00           DB 0
   \   0000C2   00           DB 0
   \   0000C3   00           DB 0
   \   0000C4   00           DB 0
   \   0000C5   00           DB 0
   \   0000C6   00           DB 0
   \   0000C7   00           DB 0
   \   0000C8   00           DB 0
   \   0000C9   00           DB 0
   \   0000CA   00           DB 0
   \   0000CB   00           DB 0
   \   0000CC   10           DB 16
   \   0000CD   10           DB 16
   \   0000CE   20           DB 32
   \   0000CF   00           DB 0
   \   0000D0   00           DB 0
   \   0000D1   00           DB 0
   \   0000D2   00           DB 0
   \   0000D3   00           DB 0
   \   0000D4   00           DB 0
   \   0000D5   00           DB 0
   \   0000D6   00           DB 0
   \   0000D7   FE           DB 254
   \   0000D8   00           DB 0
   \   0000D9   00           DB 0
   \   0000DA   00           DB 0
   \   0000DB   00           DB 0
   \   0000DC   00           DB 0
   \   0000DD   00           DB 0
   \   0000DE   00           DB 0
   \   0000DF   00           DB 0
   \   0000E0   00           DB 0
   \   0000E1   00           DB 0
   \   0000E2   00           DB 0
   \   0000E3   00           DB 0
   \   0000E4   00           DB 0
   \   0000E5   00           DB 0
   \   0000E6   00           DB 0
   \   0000E7   00           DB 0
   \   0000E8   00           DB 0
   \   0000E9   00           DB 0
   \   0000EA   00           DB 0
   \   0000EB   00           DB 0
   \   0000EC   10           DB 16
   \   0000ED   10           DB 16
   \   0000EE   00           DB 0
   \   0000EF   00           DB 0
   \   0000F0   00           DB 0
   \   0000F1   00           DB 0
   \   0000F2   04           DB 4
   \   0000F3   04           DB 4
   \   0000F4   08           DB 8
   \   0000F5   08           DB 8
   \   0000F6   10           DB 16
   \   0000F7   10           DB 16
   \   0000F8   20           DB 32
   \   0000F9   20           DB 32
   \   0000FA   40           DB 64
   \   0000FB   40           DB 64
   \   0000FC   80           DB 128
   \   0000FD   80           DB 128
   \   0000FE   00           DB 0
   \   0000FF   00           DB 0
   \   000100   00           DB 0
   \   000101   00           DB 0
   \   000102   38           DB 56
   \   000103   44           DB 68
   \   000104   82           DB 130
   \   000105   82           DB 130
   \   000106   82           DB 130
   \   000107   82           DB 130
   \   000108   82           DB 130
   \   000109   82           DB 130
   \   00010A   82           DB 130
   \   00010B   82           DB 130
   \   00010C   44           DB 68
   \   00010D   38           DB 56
   \   00010E   00           DB 0
   \   00010F   00           DB 0
   \   000110   00           DB 0
   \   000111   00           DB 0
   \   000112   10           DB 16
   \   000113   70           DB 112
   \   000114   10           DB 16
   \   000115   10           DB 16
   \   000116   10           DB 16
   \   000117   10           DB 16
   \   000118   10           DB 16
   \   000119   10           DB 16
   \   00011A   10           DB 16
   \   00011B   10           DB 16
   \   00011C   10           DB 16
   \   00011D   7C           DB 124
   \   00011E   00           DB 0
   \   00011F   00           DB 0
   \   000120   00           DB 0
   \   000121   00           DB 0
   \   000122   38           DB 56
   \   000123   44           DB 68
   \   000124   82           DB 130
   \   000125   82           DB 130
   \   000126   04           DB 4
   \   000127   08           DB 8
   \   000128   10           DB 16
   \   000129   20           DB 32
   \   00012A   40           DB 64
   \   00012B   82           DB 130
   \   00012C   84           DB 132
   \   00012D   FC           DB 252
   \   00012E   00           DB 0
   \   00012F   00           DB 0
   \   000130   00           DB 0
   \   000131   00           DB 0
   \   000132   38           DB 56
   \   000133   44           DB 68
   \   000134   82           DB 130
   \   000135   02           DB 2
   \   000136   04           DB 4
   \   000137   38           DB 56
   \   000138   04           DB 4
   \   000139   02           DB 2
   \   00013A   02           DB 2
   \   00013B   82           DB 130
   \   00013C   44           DB 68
   \   00013D   38           DB 56
   \   00013E   00           DB 0
   \   00013F   00           DB 0
   \   000140   00           DB 0
   \   000141   00           DB 0
   \   000142   04           DB 4
   \   000143   0C           DB 12
   \   000144   14           DB 20
   \   000145   14           DB 20
   \   000146   24           DB 36
   \   000147   24           DB 36
   \   000148   44           DB 68
   \   000149   44           DB 68
   \   00014A   FE           DB 254
   \   00014B   04           DB 4
   \   00014C   04           DB 4
   \   00014D   0E           DB 14
   \   00014E   00           DB 0
   \   00014F   00           DB 0
   \   000150   00           DB 0
   \   000151   00           DB 0
   \   000152   FC           DB 252
   \   000153   80           DB 128
   \   000154   80           DB 128
   \   000155   80           DB 128
   \   000156   B8           DB 184
   \   000157   C4           DB 196
   \   000158   82           DB 130
   \   000159   02           DB 2
   \   00015A   02           DB 2
   \   00015B   82           DB 130
   \   00015C   84           DB 132
   \   00015D   78           DB 120
   \   00015E   00           DB 0
   \   00015F   00           DB 0
   \   000160   00           DB 0
   \   000161   00           DB 0
   \   000162   3C           DB 60
   \   000163   42           DB 66
   \   000164   82           DB 130
   \   000165   80           DB 128
   \   000166   B8           DB 184
   \   000167   C4           DB 196
   \   000168   82           DB 130
   \   000169   82           DB 130
   \   00016A   82           DB 130
   \   00016B   82           DB 130
   \   00016C   44           DB 68
   \   00016D   38           DB 56
   \   00016E   00           DB 0
   \   00016F   00           DB 0
   \   000170   00           DB 0
   \   000171   00           DB 0
   \   000172   7E           DB 126
   \   000173   42           DB 66
   \   000174   82           DB 130
   \   000175   04           DB 4
   \   000176   04           DB 4
   \   000177   08           DB 8
   \   000178   08           DB 8
   \   000179   08           DB 8
   \   00017A   10           DB 16
   \   00017B   10           DB 16
   \   00017C   10           DB 16
   \   00017D   10           DB 16
   \   00017E   00           DB 0
   \   00017F   00           DB 0
   \   000180   00           DB 0
   \   000181   00           DB 0
   \   000182   38           DB 56
   \   000183   44           DB 68
   \   000184   82           DB 130
   \   000185   82           DB 130
   \   000186   44           DB 68
   \   000187   38           DB 56
   \   000188   44           DB 68
   \   000189   82           DB 130
   \   00018A   82           DB 130
   \   00018B   82           DB 130
   \   00018C   44           DB 68
   \   00018D   38           DB 56
   \   00018E   00           DB 0
   \   00018F   00           DB 0
   \   000190   00           DB 0
   \   000191   00           DB 0
   \   000192   38           DB 56
   \   000193   44           DB 68
   \   000194   82           DB 130
   \   000195   82           DB 130
   \   000196   82           DB 130
   \   000197   82           DB 130
   \   000198   46           DB 70
   \   000199   3A           DB 58
   \   00019A   02           DB 2
   \   00019B   82           DB 130
   \   00019C   44           DB 68
   \   00019D   38           DB 56
   \   00019E   00           DB 0
   \   00019F   00           DB 0
   \   0001A0   00           DB 0
   \   0001A1   00           DB 0
   \   0001A2   00           DB 0
   \   0001A3   00           DB 0
   \   0001A4   10           DB 16
   \   0001A5   10           DB 16
   \   0001A6   00           DB 0
   \   0001A7   00           DB 0
   \   0001A8   00           DB 0
   \   0001A9   00           DB 0
   \   0001AA   10           DB 16
   \   0001AB   10           DB 16
   \   0001AC   00           DB 0
   \   0001AD   00           DB 0
   \   0001AE   00           DB 0
   \   0001AF   00           DB 0
   \   0001B0   00           DB 0
   \   0001B1   00           DB 0
   \   0001B2   00           DB 0
   \   0001B3   00           DB 0
   \   0001B4   10           DB 16
   \   0001B5   10           DB 16
   \   0001B6   00           DB 0
   \   0001B7   00           DB 0
   \   0001B8   00           DB 0
   \   0001B9   00           DB 0
   \   0001BA   00           DB 0
   \   0001BB   10           DB 16
   \   0001BC   10           DB 16
   \   0001BD   20           DB 32
   \   0001BE   00           DB 0
   \   0001BF   00           DB 0
   \   0001C0   00           DB 0
   \   0001C1   00           DB 0
   \   0001C2   00           DB 0
   \   0001C3   00           DB 0
   \   0001C4   06           DB 6
   \   0001C5   18           DB 24
   \   0001C6   60           DB 96
   \   0001C7   80           DB 128
   \   0001C8   60           DB 96
   \   0001C9   18           DB 24
   \   0001CA   06           DB 6
   \   0001CB   00           DB 0
   \   0001CC   00           DB 0
   \   0001CD   00           DB 0
   \   0001CE   00           DB 0
   \   0001CF   00           DB 0
   \   0001D0   00           DB 0
   \   0001D1   00           DB 0
   \   0001D2   00           DB 0
   \   0001D3   00           DB 0
   \   0001D4   00           DB 0
   \   0001D5   00           DB 0
   \   0001D6   FE           DB 254
   \   0001D7   00           DB 0
   \   0001D8   00           DB 0
   \   0001D9   FE           DB 254
   \   0001DA   00           DB 0
   \   0001DB   00           DB 0
   \   0001DC   00           DB 0
   \   0001DD   00           DB 0
   \   0001DE   00           DB 0
   \   0001DF   00           DB 0
   \   0001E0   00           DB 0
   \   0001E1   00           DB 0
   \   0001E2   00           DB 0
   \   0001E3   00           DB 0
   \   0001E4   C0           DB 192
   \   0001E5   30           DB 48
   \   0001E6   0C           DB 12
   \   0001E7   02           DB 2
   \   0001E8   0C           DB 12
   \   0001E9   30           DB 48
   \   0001EA   C0           DB 192
   \   0001EB   00           DB 0
   \   0001EC   00           DB 0
   \   0001ED   00           DB 0
   \   0001EE   00           DB 0
   \   0001EF   00           DB 0
   \   0001F0   00           DB 0
   \   0001F1   38           DB 56
   \   0001F2   44           DB 68
   \   0001F3   82           DB 130
   \   0001F4   82           DB 130
   \   0001F5   02           DB 2
   \   0001F6   04           DB 4
   \   0001F7   08           DB 8
   \   0001F8   10           DB 16
   \   0001F9   10           DB 16
   \   0001FA   10           DB 16
   \   0001FB   00           DB 0
   \   0001FC   10           DB 16
   \   0001FD   10           DB 16
   \   0001FE   00           DB 0
   \   0001FF   00           DB 0
   \   000200   00           DB 0
   \   000201   00           DB 0
   \   000202   38           DB 56
   \   000203   44           DB 68
   \   000204   82           DB 130
   \   000205   9A           DB 154
   \   000206   AA           DB 170
   \   000207   AA           DB 170
   \   000208   AA           DB 170
   \   000209   AA           DB 170
   \   00020A   AA           DB 170
   \   00020B   96           DB 150
   \   00020C   80           DB 128
   \   00020D   42           DB 66
   \   00020E   3C           DB 60
   \   00020F   00           DB 0
   \   000210   00           DB 0
   \   000211   00           DB 0
   \   000212   10           DB 16
   \   000213   10           DB 16
   \   000214   10           DB 16
   \   000215   28           DB 40
   \   000216   28           DB 40
   \   000217   28           DB 40
   \   000218   44           DB 68
   \   000219   44           DB 68
   \   00021A   7C           DB 124
   \   00021B   44           DB 68
   \   00021C   44           DB 68
   \   00021D   EE           DB 238
   \   00021E   00           DB 0
   \   00021F   00           DB 0
   \   000220   00           DB 0
   \   000221   00           DB 0
   \   000222   FC           DB 252
   \   000223   42           DB 66
   \   000224   42           DB 66
   \   000225   42           DB 66
   \   000226   42           DB 66
   \   000227   7C           DB 124
   \   000228   42           DB 66
   \   000229   42           DB 66
   \   00022A   42           DB 66
   \   00022B   42           DB 66
   \   00022C   42           DB 66
   \   00022D   FC           DB 252
   \   00022E   00           DB 0
   \   00022F   00           DB 0
   \   000230   00           DB 0
   \   000231   00           DB 0
   \   000232   3C           DB 60
   \   000233   44           DB 68
   \   000234   82           DB 130
   \   000235   80           DB 128
   \   000236   80           DB 128
   \   000237   80           DB 128
   \   000238   80           DB 128
   \   000239   80           DB 128
   \   00023A   82           DB 130
   \   00023B   82           DB 130
   \   00023C   44           DB 68
   \   00023D   38           DB 56
   \   00023E   00           DB 0
   \   00023F   00           DB 0
   \   000240   00           DB 0
   \   000241   00           DB 0
   \   000242   F8           DB 248
   \   000243   44           DB 68
   \   000244   42           DB 66
   \   000245   42           DB 66
   \   000246   42           DB 66
   \   000247   42           DB 66
   \   000248   42           DB 66
   \   000249   42           DB 66
   \   00024A   42           DB 66
   \   00024B   42           DB 66
   \   00024C   44           DB 68
   \   00024D   F8           DB 248
   \   00024E   00           DB 0
   \   00024F   00           DB 0
   \   000250   00           DB 0
   \   000251   00           DB 0
   \   000252   FC           DB 252
   \   000253   44           DB 68
   \   000254   42           DB 66
   \   000255   40           DB 64
   \   000256   44           DB 68
   \   000257   7C           DB 124
   \   000258   44           DB 68
   \   000259   40           DB 64
   \   00025A   40           DB 64
   \   00025B   42           DB 66
   \   00025C   44           DB 68
   \   00025D   FC           DB 252
   \   00025E   00           DB 0
   \   00025F   00           DB 0
   \   000260   00           DB 0
   \   000261   00           DB 0
   \   000262   FC           DB 252
   \   000263   44           DB 68
   \   000264   42           DB 66
   \   000265   40           DB 64
   \   000266   44           DB 68
   \   000267   7C           DB 124
   \   000268   44           DB 68
   \   000269   40           DB 64
   \   00026A   40           DB 64
   \   00026B   40           DB 64
   \   00026C   40           DB 64
   \   00026D   F0           DB 240
   \   00026E   00           DB 0
   \   00026F   00           DB 0
   \   000270   00           DB 0
   \   000271   00           DB 0
   \   000272   34           DB 52
   \   000273   4C           DB 76
   \   000274   82           DB 130
   \   000275   80           DB 128
   \   000276   80           DB 128
   \   000277   80           DB 128
   \   000278   8E           DB 142
   \   000279   84           DB 132
   \   00027A   84           DB 132
   \   00027B   84           DB 132
   \   00027C   4C           DB 76
   \   00027D   34           DB 52
   \   00027E   00           DB 0
   \   00027F   00           DB 0
   \   000280   00           DB 0
   \   000281   00           DB 0
   \   000282   EE           DB 238
   \   000283   44           DB 68
   \   000284   44           DB 68
   \   000285   44           DB 68
   \   000286   44           DB 68
   \   000287   7C           DB 124
   \   000288   44           DB 68
   \   000289   44           DB 68
   \   00028A   44           DB 68
   \   00028B   44           DB 68
   \   00028C   44           DB 68
   \   00028D   EE           DB 238
   \   00028E   00           DB 0
   \   00028F   00           DB 0
   \   000290   00           DB 0
   \   000291   00           DB 0
   \   000292   7C           DB 124
   \   000293   10           DB 16
   \   000294   10           DB 16
   \   000295   10           DB 16
   \   000296   10           DB 16
   \   000297   10           DB 16
   \   000298   10           DB 16
   \   000299   10           DB 16
   \   00029A   10           DB 16
   \   00029B   10           DB 16
   \   00029C   10           DB 16
   \   00029D   7C           DB 124
   \   00029E   00           DB 0
   \   00029F   00           DB 0
   \   0002A0   00           DB 0
   \   0002A1   00           DB 0
   \   0002A2   3E           DB 62
   \   0002A3   08           DB 8
   \   0002A4   08           DB 8
   \   0002A5   08           DB 8
   \   0002A6   08           DB 8
   \   0002A7   08           DB 8
   \   0002A8   08           DB 8
   \   0002A9   08           DB 8
   \   0002AA   08           DB 8
   \   0002AB   88           DB 136
   \   0002AC   88           DB 136
   \   0002AD   70           DB 112
   \   0002AE   00           DB 0
   \   0002AF   00           DB 0
   \   0002B0   00           DB 0
   \   0002B1   00           DB 0
   \   0002B2   EE           DB 238
   \   0002B3   44           DB 68
   \   0002B4   48           DB 72
   \   0002B5   48           DB 72
   \   0002B6   50           DB 80
   \   0002B7   60           DB 96
   \   0002B8   50           DB 80
   \   0002B9   48           DB 72
   \   0002BA   48           DB 72
   \   0002BB   44           DB 68
   \   0002BC   44           DB 68
   \   0002BD   EE           DB 238
   \   0002BE   00           DB 0
   \   0002BF   00           DB 0
   \   0002C0   00           DB 0
   \   0002C1   00           DB 0
   \   0002C2   E0           DB 224
   \   0002C3   40           DB 64
   \   0002C4   40           DB 64
   \   0002C5   40           DB 64
   \   0002C6   40           DB 64
   \   0002C7   40           DB 64
   \   0002C8   40           DB 64
   \   0002C9   40           DB 64
   \   0002CA   40           DB 64
   \   0002CB   42           DB 66
   \   0002CC   44           DB 68
   \   0002CD   FC           DB 252
   \   0002CE   00           DB 0
   \   0002CF   00           DB 0
   \   0002D0   00           DB 0
   \   0002D1   00           DB 0
   \   0002D2   C6           DB 198
   \   0002D3   44           DB 68
   \   0002D4   6C           DB 108
   \   0002D5   6C           DB 108
   \   0002D6   6C           DB 108
   \   0002D7   54           DB 84
   \   0002D8   54           DB 84
   \   0002D9   54           DB 84
   \   0002DA   44           DB 68
   \   0002DB   44           DB 68
   \   0002DC   44           DB 68
   \   0002DD   EE           DB 238
   \   0002DE   00           DB 0
   \   0002DF   00           DB 0
   \   0002E0   00           DB 0
   \   0002E1   00           DB 0
   \   0002E2   CE           DB 206
   \   0002E3   44           DB 68
   \   0002E4   64           DB 100
   \   0002E5   64           DB 100
   \   0002E6   64           DB 100
   \   0002E7   54           DB 84
   \   0002E8   54           DB 84
   \   0002E9   4C           DB 76
   \   0002EA   4C           DB 76
   \   0002EB   4C           DB 76
   \   0002EC   44           DB 68
   \   0002ED   E4           DB 228
   \   0002EE   00           DB 0
   \   0002EF   00           DB 0
   \   0002F0   00           DB 0
   \   0002F1   00           DB 0
   \   0002F2   38           DB 56
   \   0002F3   44           DB 68
   \   0002F4   82           DB 130
   \   0002F5   82           DB 130
   \   0002F6   82           DB 130
   \   0002F7   82           DB 130
   \   0002F8   82           DB 130
   \   0002F9   82           DB 130
   \   0002FA   82           DB 130
   \   0002FB   82           DB 130
   \   0002FC   44           DB 68
   \   0002FD   38           DB 56
   \   0002FE   00           DB 0
   \   0002FF   00           DB 0
   \   000300   00           DB 0
   \   000301   00           DB 0
   \   000302   F8           DB 248
   \   000303   44           DB 68
   \   000304   42           DB 66
   \   000305   42           DB 66
   \   000306   42           DB 66
   \   000307   44           DB 68
   \   000308   78           DB 120
   \   000309   40           DB 64
   \   00030A   40           DB 64
   \   00030B   40           DB 64
   \   00030C   40           DB 64
   \   00030D   E0           DB 224
   \   00030E   00           DB 0
   \   00030F   00           DB 0
   \   000310   00           DB 0
   \   000311   00           DB 0
   \   000312   38           DB 56
   \   000313   44           DB 68
   \   000314   82           DB 130
   \   000315   82           DB 130
   \   000316   82           DB 130
   \   000317   82           DB 130
   \   000318   82           DB 130
   \   000319   82           DB 130
   \   00031A   82           DB 130
   \   00031B   BA           DB 186
   \   00031C   44           DB 68
   \   00031D   3C           DB 60
   \   00031E   02           DB 2
   \   00031F   00           DB 0
   \   000320   00           DB 0
   \   000321   00           DB 0
   \   000322   F0           DB 240
   \   000323   48           DB 72
   \   000324   44           DB 68
   \   000325   44           DB 68
   \   000326   44           DB 68
   \   000327   48           DB 72
   \   000328   70           DB 112
   \   000329   48           DB 72
   \   00032A   44           DB 68
   \   00032B   44           DB 68
   \   00032C   44           DB 68
   \   00032D   E6           DB 230
   \   00032E   00           DB 0
   \   00032F   00           DB 0
   \   000330   00           DB 0
   \   000331   00           DB 0
   \   000332   3C           DB 60
   \   000333   44           DB 68
   \   000334   82           DB 130
   \   000335   80           DB 128
   \   000336   40           DB 64
   \   000337   30           DB 48
   \   000338   0C           DB 12
   \   000339   02           DB 2
   \   00033A   02           DB 2
   \   00033B   82           DB 130
   \   00033C   44           DB 68
   \   00033D   78           DB 120
   \   00033E   00           DB 0
   \   00033F   00           DB 0
   \   000340   00           DB 0
   \   000341   00           DB 0
   \   000342   7C           DB 124
   \   000343   54           DB 84
   \   000344   92           DB 146
   \   000345   10           DB 16
   \   000346   10           DB 16
   \   000347   10           DB 16
   \   000348   10           DB 16
   \   000349   10           DB 16
   \   00034A   10           DB 16
   \   00034B   10           DB 16
   \   00034C   10           DB 16
   \   00034D   38           DB 56
   \   00034E   00           DB 0
   \   00034F   00           DB 0
   \   000350   00           DB 0
   \   000351   00           DB 0
   \   000352   EE           DB 238
   \   000353   44           DB 68
   \   000354   44           DB 68
   \   000355   44           DB 68
   \   000356   44           DB 68
   \   000357   44           DB 68
   \   000358   44           DB 68
   \   000359   44           DB 68
   \   00035A   44           DB 68
   \   00035B   44           DB 68
   \   00035C   44           DB 68
   \   00035D   38           DB 56
   \   00035E   00           DB 0
   \   00035F   00           DB 0
   \   000360   00           DB 0
   \   000361   00           DB 0
   \   000362   EE           DB 238
   \   000363   44           DB 68
   \   000364   44           DB 68
   \   000365   44           DB 68
   \   000366   44           DB 68
   \   000367   28           DB 40
   \   000368   28           DB 40
   \   000369   28           DB 40
   \   00036A   28           DB 40
   \   00036B   10           DB 16
   \   00036C   10           DB 16
   \   00036D   10           DB 16
   \   00036E   00           DB 0
   \   00036F   00           DB 0
   \   000370   00           DB 0
   \   000371   00           DB 0
   \   000372   EE           DB 238
   \   000373   44           DB 68
   \   000374   54           DB 84
   \   000375   54           DB 84
   \   000376   54           DB 84
   \   000377   54           DB 84
   \   000378   54           DB 84
   \   000379   54           DB 84
   \   00037A   28           DB 40
   \   00037B   28           DB 40
   \   00037C   28           DB 40
   \   00037D   28           DB 40
   \   00037E   00           DB 0
   \   00037F   00           DB 0
   \   000380   00           DB 0
   \   000381   00           DB 0
   \   000382   EE           DB 238
   \   000383   44           DB 68
   \   000384   44           DB 68
   \   000385   28           DB 40
   \   000386   28           DB 40
   \   000387   10           DB 16
   \   000388   10           DB 16
   \   000389   28           DB 40
   \   00038A   28           DB 40
   \   00038B   44           DB 68
   \   00038C   44           DB 68
   \   00038D   EE           DB 238
   \   00038E   00           DB 0
   \   00038F   00           DB 0
   \   000390   00           DB 0
   \   000391   00           DB 0
   \   000392   EE           DB 238
   \   000393   44           DB 68
   \   000394   44           DB 68
   \   000395   28           DB 40
   \   000396   28           DB 40
   \   000397   28           DB 40
   \   000398   10           DB 16
   \   000399   10           DB 16
   \   00039A   10           DB 16
   \   00039B   10           DB 16
   \   00039C   10           DB 16
   \   00039D   38           DB 56
   \   00039E   00           DB 0
   \   00039F   00           DB 0
   \   0003A0   00           DB 0
   \   0003A1   00           DB 0
   \   0003A2   7E           DB 126
   \   0003A3   44           DB 68
   \   0003A4   84           DB 132
   \   0003A5   08           DB 8
   \   0003A6   08           DB 8
   \   0003A7   10           DB 16
   \   0003A8   20           DB 32
   \   0003A9   20           DB 32
   \   0003AA   40           DB 64
   \   0003AB   82           DB 130
   \   0003AC   84           DB 132
   \   0003AD   FC           DB 252
   \   0003AE   00           DB 0
   \   0003AF   00           DB 0
   \   0003B0   00           DB 0
   \   0003B1   1C           DB 28
   \   0003B2   10           DB 16
   \   0003B3   10           DB 16
   \   0003B4   10           DB 16
   \   0003B5   10           DB 16
   \   0003B6   10           DB 16
   \   0003B7   10           DB 16
   \   0003B8   10           DB 16
   \   0003B9   10           DB 16
   \   0003BA   10           DB 16
   \   0003BB   10           DB 16
   \   0003BC   10           DB 16
   \   0003BD   10           DB 16
   \   0003BE   1C           DB 28
   \   0003BF   00           DB 0
   \   0003C0   00           DB 0
   \   0003C1   00           DB 0
   \   0003C2   EE           DB 238
   \   0003C3   44           DB 68
   \   0003C4   54           DB 84
   \   0003C5   54           DB 84
   \   0003C6   FE           DB 254
   \   0003C7   54           DB 84
   \   0003C8   54           DB 84
   \   0003C9   54           DB 84
   \   0003CA   28           DB 40
   \   0003CB   28           DB 40
   \   0003CC   28           DB 40
   \   0003CD   28           DB 40
   \   0003CE   00           DB 0
   \   0003CF   00           DB 0
   \   0003D0   00           DB 0
   \   0003D1   70           DB 112
   \   0003D2   10           DB 16
   \   0003D3   10           DB 16
   \   0003D4   10           DB 16
   \   0003D5   10           DB 16
   \   0003D6   10           DB 16
   \   0003D7   10           DB 16
   \   0003D8   10           DB 16
   \   0003D9   10           DB 16
   \   0003DA   10           DB 16
   \   0003DB   10           DB 16
   \   0003DC   10           DB 16
   \   0003DD   10           DB 16
   \   0003DE   70           DB 112
   \   0003DF   00           DB 0
   \   0003E0   00           DB 0
   \   0003E1   30           DB 48
   \   0003E2   48           DB 72
   \   0003E3   84           DB 132
   \   0003E4   00           DB 0
   \   0003E5   00           DB 0
   \   0003E6   00           DB 0
   \   0003E7   00           DB 0
   \   0003E8   00           DB 0
   \   0003E9   00           DB 0
   \   0003EA   00           DB 0
   \   0003EB   00           DB 0
   \   0003EC   00           DB 0
   \   0003ED   00           DB 0
   \   0003EE   00           DB 0
   \   0003EF   00           DB 0
   \   0003F0   00           DB 0
   \   0003F1   00           DB 0
   \   0003F2   00           DB 0
   \   0003F3   00           DB 0
   \   0003F4   00           DB 0
   \   0003F5   00           DB 0
   \   0003F6   00           DB 0
   \   0003F7   00           DB 0
   \   0003F8   00           DB 0
   \   0003F9   00           DB 0
   \   0003FA   00           DB 0
   \   0003FB   00           DB 0
   \   0003FC   00           DB 0
   \   0003FD   00           DB 0
   \   0003FE   FE           DB 254
   \   0003FF   00           DB 0
   \   000400   00           DB 0
   \   000401   40           DB 64
   \   000402   20           DB 32
   \   000403   00           DB 0
   \   000404   00           DB 0
   \   000405   00           DB 0
   \   000406   00           DB 0
   \   000407   00           DB 0
   \   000408   00           DB 0
   \   000409   00           DB 0
   \   00040A   00           DB 0
   \   00040B   00           DB 0
   \   00040C   00           DB 0
   \   00040D   00           DB 0
   \   00040E   00           DB 0
   \   00040F   00           DB 0
   \   000410   00           DB 0
   \   000411   00           DB 0
   \   000412   00           DB 0
   \   000413   00           DB 0
   \   000414   00           DB 0
   \   000415   00           DB 0
   \   000416   78           DB 120
   \   000417   84           DB 132
   \   000418   04           DB 4
   \   000419   7C           DB 124
   \   00041A   84           DB 132
   \   00041B   84           DB 132
   \   00041C   8C           DB 140
   \   00041D   76           DB 118
   \   00041E   00           DB 0
   \   00041F   00           DB 0
   \   000420   00           DB 0
   \   000421   00           DB 0
   \   000422   C0           DB 192
   \   000423   40           DB 64
   \   000424   40           DB 64
   \   000425   40           DB 64
   \   000426   58           DB 88
   \   000427   64           DB 100
   \   000428   42           DB 66
   \   000429   42           DB 66
   \   00042A   42           DB 66
   \   00042B   42           DB 66
   \   00042C   64           DB 100
   \   00042D   58           DB 88
   \   00042E   00           DB 0
   \   00042F   00           DB 0
   \   000430   00           DB 0
   \   000431   00           DB 0
   \   000432   00           DB 0
   \   000433   00           DB 0
   \   000434   00           DB 0
   \   000435   00           DB 0
   \   000436   38           DB 56
   \   000437   44           DB 68
   \   000438   80           DB 128
   \   000439   80           DB 128
   \   00043A   80           DB 128
   \   00043B   80           DB 128
   \   00043C   44           DB 68
   \   00043D   38           DB 56
   \   00043E   00           DB 0
   \   00043F   00           DB 0
   \   000440   00           DB 0
   \   000441   00           DB 0
   \   000442   0C           DB 12
   \   000443   04           DB 4
   \   000444   04           DB 4
   \   000445   04           DB 4
   \   000446   34           DB 52
   \   000447   4C           DB 76
   \   000448   84           DB 132
   \   000449   84           DB 132
   \   00044A   84           DB 132
   \   00044B   84           DB 132
   \   00044C   4C           DB 76
   \   00044D   36           DB 54
   \   00044E   00           DB 0
   \   00044F   00           DB 0
   \   000450   00           DB 0
   \   000451   00           DB 0
   \   000452   00           DB 0
   \   000453   00           DB 0
   \   000454   00           DB 0
   \   000455   00           DB 0
   \   000456   78           DB 120
   \   000457   84           DB 132
   \   000458   84           DB 132
   \   000459   FC           DB 252
   \   00045A   80           DB 128
   \   00045B   80           DB 128
   \   00045C   84           DB 132
   \   00045D   78           DB 120
   \   00045E   00           DB 0
   \   00045F   00           DB 0
   \   000460   00           DB 0
   \   000461   00           DB 0
   \   000462   18           DB 24
   \   000463   24           DB 36
   \   000464   20           DB 32
   \   000465   20           DB 32
   \   000466   F8           DB 248
   \   000467   20           DB 32
   \   000468   20           DB 32
   \   000469   20           DB 32
   \   00046A   20           DB 32
   \   00046B   20           DB 32
   \   00046C   20           DB 32
   \   00046D   70           DB 112
   \   00046E   00           DB 0
   \   00046F   00           DB 0
   \   000470   00           DB 0
   \   000471   00           DB 0
   \   000472   00           DB 0
   \   000473   00           DB 0
   \   000474   00           DB 0
   \   000475   00           DB 0
   \   000476   3A           DB 58
   \   000477   44           DB 68
   \   000478   44           DB 68
   \   000479   78           DB 120
   \   00047A   80           DB 128
   \   00047B   7C           DB 124
   \   00047C   82           DB 130
   \   00047D   82           DB 130
   \   00047E   7C           DB 124
   \   00047F   00           DB 0
   \   000480   00           DB 0
   \   000481   00           DB 0
   \   000482   C0           DB 192
   \   000483   40           DB 64
   \   000484   40           DB 64
   \   000485   40           DB 64
   \   000486   58           DB 88
   \   000487   64           DB 100
   \   000488   44           DB 68
   \   000489   44           DB 68
   \   00048A   44           DB 68
   \   00048B   44           DB 68
   \   00048C   44           DB 68
   \   00048D   EE           DB 238
   \   00048E   00           DB 0
   \   00048F   00           DB 0
   \   000490   00           DB 0
   \   000491   00           DB 0
   \   000492   10           DB 16
   \   000493   10           DB 16
   \   000494   00           DB 0
   \   000495   00           DB 0
   \   000496   30           DB 48
   \   000497   10           DB 16
   \   000498   10           DB 16
   \   000499   10           DB 16
   \   00049A   10           DB 16
   \   00049B   10           DB 16
   \   00049C   10           DB 16
   \   00049D   38           DB 56
   \   00049E   00           DB 0
   \   00049F   00           DB 0
   \   0004A0   00           DB 0
   \   0004A1   00           DB 0
   \   0004A2   10           DB 16
   \   0004A3   10           DB 16
   \   0004A4   00           DB 0
   \   0004A5   00           DB 0
   \   0004A6   30           DB 48
   \   0004A7   10           DB 16
   \   0004A8   10           DB 16
   \   0004A9   10           DB 16
   \   0004AA   10           DB 16
   \   0004AB   10           DB 16
   \   0004AC   10           DB 16
   \   0004AD   90           DB 144
   \   0004AE   60           DB 96
   \   0004AF   00           DB 0
   \   0004B0   00           DB 0
   \   0004B1   00           DB 0
   \   0004B2   C0           DB 192
   \   0004B3   40           DB 64
   \   0004B4   40           DB 64
   \   0004B5   40           DB 64
   \   0004B6   5C           DB 92
   \   0004B7   48           DB 72
   \   0004B8   50           DB 80
   \   0004B9   60           DB 96
   \   0004BA   50           DB 80
   \   0004BB   48           DB 72
   \   0004BC   44           DB 68
   \   0004BD   EE           DB 238
   \   0004BE   00           DB 0
   \   0004BF   00           DB 0
   \   0004C0   00           DB 0
   \   0004C1   00           DB 0
   \   0004C2   30           DB 48
   \   0004C3   10           DB 16
   \   0004C4   10           DB 16
   \   0004C5   10           DB 16
   \   0004C6   10           DB 16
   \   0004C7   11           DB 17
   \   0004C8   10           DB 16
   \   0004C9   10           DB 16
   \   0004CA   10           DB 16
   \   0004CB   10           DB 16
   \   0004CC   10           DB 16
   \   0004CD   39           DB 57
   \   0004CE   00           DB 0
   \   0004CF   00           DB 0
   \   0004D0   00           DB 0
   \   0004D1   00           DB 0
   \   0004D2   00           DB 0
   \   0004D3   00           DB 0
   \   0004D4   00           DB 0
   \   0004D5   00           DB 0
   \   0004D6   AC           DB 172
   \   0004D7   D2           DB 210
   \   0004D8   92           DB 146
   \   0004D9   92           DB 146
   \   0004DA   92           DB 146
   \   0004DB   92           DB 146
   \   0004DC   92           DB 146
   \   0004DD   D6           DB 214
   \   0004DE   00           DB 0
   \   0004DF   00           DB 0
   \   0004E0   00           DB 0
   \   0004E1   00           DB 0
   \   0004E2   00           DB 0
   \   0004E3   00           DB 0
   \   0004E4   00           DB 0
   \   0004E5   00           DB 0
   \   0004E6   58           DB 88
   \   0004E7   E4           DB 228
   \   0004E8   44           DB 68
   \   0004E9   44           DB 68
   \   0004EA   44           DB 68
   \   0004EB   44           DB 68
   \   0004EC   44           DB 68
   \   0004ED   EE           DB 238
   \   0004EE   00           DB 0
   \   0004EF   00           DB 0
   \   0004F0   00           DB 0
   \   0004F1   00           DB 0
   \   0004F2   00           DB 0
   \   0004F3   00           DB 0
   \   0004F4   00           DB 0
   \   0004F5   00           DB 0
   \   0004F6   38           DB 56
   \   0004F7   44           DB 68
   \   0004F8   82           DB 130
   \   0004F9   82           DB 130
   \   0004FA   82           DB 130
   \   0004FB   82           DB 130
   \   0004FC   44           DB 68
   \   0004FD   38           DB 56
   \   0004FE   00           DB 0
   \   0004FF   00           DB 0
   \   000500   00           DB 0
   \   000501   00           DB 0
   \   000502   00           DB 0
   \   000503   00           DB 0
   \   000504   00           DB 0
   \   000505   00           DB 0
   \   000506   D8           DB 216
   \   000507   64           DB 100
   \   000508   42           DB 66
   \   000509   42           DB 66
   \   00050A   42           DB 66
   \   00050B   64           DB 100
   \   00050C   58           DB 88
   \   00050D   40           DB 64
   \   00050E   E0           DB 224
   \   00050F   00           DB 0
   \   000510   00           DB 0
   \   000511   00           DB 0
   \   000512   00           DB 0
   \   000513   00           DB 0
   \   000514   00           DB 0
   \   000515   00           DB 0
   \   000516   36           DB 54
   \   000517   4C           DB 76
   \   000518   84           DB 132
   \   000519   84           DB 132
   \   00051A   84           DB 132
   \   00051B   4C           DB 76
   \   00051C   34           DB 52
   \   00051D   04           DB 4
   \   00051E   0E           DB 14
   \   00051F   00           DB 0
   \   000520   00           DB 0
   \   000521   00           DB 0
   \   000522   00           DB 0
   \   000523   00           DB 0
   \   000524   00           DB 0
   \   000525   00           DB 0
   \   000526   6C           DB 108
   \   000527   30           DB 48
   \   000528   20           DB 32
   \   000529   20           DB 32
   \   00052A   20           DB 32
   \   00052B   20           DB 32
   \   00052C   20           DB 32
   \   00052D   70           DB 112
   \   00052E   00           DB 0
   \   00052F   00           DB 0
   \   000530   00           DB 0
   \   000531   00           DB 0
   \   000532   00           DB 0
   \   000533   00           DB 0
   \   000534   00           DB 0
   \   000535   00           DB 0
   \   000536   78           DB 120
   \   000537   88           DB 136
   \   000538   84           DB 132
   \   000539   60           DB 96
   \   00053A   18           DB 24
   \   00053B   84           DB 132
   \   00053C   44           DB 68
   \   00053D   78           DB 120
   \   00053E   00           DB 0
   \   00053F   00           DB 0
   \   000540   00           DB 0
   \   000541   00           DB 0
   \   000542   00           DB 0
   \   000543   20           DB 32
   \   000544   20           DB 32
   \   000545   20           DB 32
   \   000546   F8           DB 248
   \   000547   20           DB 32
   \   000548   20           DB 32
   \   000549   20           DB 32
   \   00054A   20           DB 32
   \   00054B   20           DB 32
   \   00054C   24           DB 36
   \   00054D   18           DB 24
   \   00054E   00           DB 0
   \   00054F   00           DB 0
   \   000550   00           DB 0
   \   000551   00           DB 0
   \   000552   00           DB 0
   \   000553   00           DB 0
   \   000554   00           DB 0
   \   000555   00           DB 0
   \   000556   C6           DB 198
   \   000557   42           DB 66
   \   000558   42           DB 66
   \   000559   42           DB 66
   \   00055A   42           DB 66
   \   00055B   42           DB 66
   \   00055C   46           DB 70
   \   00055D   3A           DB 58
   \   00055E   00           DB 0
   \   00055F   00           DB 0
   \   000560   00           DB 0
   \   000561   00           DB 0
   \   000562   00           DB 0
   \   000563   00           DB 0
   \   000564   00           DB 0
   \   000565   00           DB 0
   \   000566   EE           DB 238
   \   000567   44           DB 68
   \   000568   44           DB 68
   \   000569   28           DB 40
   \   00056A   28           DB 40
   \   00056B   28           DB 40
   \   00056C   10           DB 16
   \   00056D   10           DB 16
   \   00056E   00           DB 0
   \   00056F   00           DB 0
   \   000570   00           DB 0
   \   000571   00           DB 0
   \   000572   00           DB 0
   \   000573   00           DB 0
   \   000574   00           DB 0
   \   000575   00           DB 0
   \   000576   EE           DB 238
   \   000577   44           DB 68
   \   000578   44           DB 68
   \   000579   54           DB 84
   \   00057A   54           DB 84
   \   00057B   28           DB 40
   \   00057C   28           DB 40
   \   00057D   28           DB 40
   \   00057E   00           DB 0
   \   00057F   00           DB 0
   \   000580   00           DB 0
   \   000581   00           DB 0
   \   000582   00           DB 0
   \   000583   00           DB 0
   \   000584   00           DB 0
   \   000585   00           DB 0
   \   000586   EE           DB 238
   \   000587   44           DB 68
   \   000588   28           DB 40
   \   000589   10           DB 16
   \   00058A   10           DB 16
   \   00058B   28           DB 40
   \   00058C   44           DB 68
   \   00058D   EE           DB 238
   \   00058E   00           DB 0
   \   00058F   00           DB 0
   \   000590   00           DB 0
   \   000591   00           DB 0
   \   000592   00           DB 0
   \   000593   00           DB 0
   \   000594   00           DB 0
   \   000595   00           DB 0
   \   000596   EE           DB 238
   \   000597   44           DB 68
   \   000598   44           DB 68
   \   000599   28           DB 40
   \   00059A   28           DB 40
   \   00059B   10           DB 16
   \   00059C   10           DB 16
   \   00059D   A0           DB 160
   \   00059E   C0           DB 192
   \   00059F   00           DB 0
   \   0005A0   00           DB 0
   \   0005A1   00           DB 0
   \   0005A2   00           DB 0
   \   0005A3   00           DB 0
   \   0005A4   00           DB 0
   \   0005A5   00           DB 0
   \   0005A6   7E           DB 126
   \   0005A7   44           DB 68
   \   0005A8   88           DB 136
   \   0005A9   10           DB 16
   \   0005AA   20           DB 32
   \   0005AB   42           DB 66
   \   0005AC   84           DB 132
   \   0005AD   FC           DB 252
   \   0005AE   00           DB 0
   \   0005AF   00           DB 0
   \   0005B0   00           DB 0
   \   0005B1   0C           DB 12
   \   0005B2   10           DB 16
   \   0005B3   10           DB 16
   \   0005B4   10           DB 16
   \   0005B5   10           DB 16
   \   0005B6   10           DB 16
   \   0005B7   60           DB 96
   \   0005B8   10           DB 16
   \   0005B9   10           DB 16
   \   0005BA   10           DB 16
   \   0005BB   10           DB 16
   \   0005BC   10           DB 16
   \   0005BD   10           DB 16
   \   0005BE   0C           DB 12
   \   0005BF   00           DB 0
   \   0005C0   00           DB 0
   \   0005C1   10           DB 16
   \   0005C2   10           DB 16
   \   0005C3   10           DB 16
   \   0005C4   10           DB 16
   \   0005C5   10           DB 16
   \   0005C6   10           DB 16
   \   0005C7   10           DB 16
   \   0005C8   10           DB 16
   \   0005C9   10           DB 16
   \   0005CA   10           DB 16
   \   0005CB   10           DB 16
   \   0005CC   10           DB 16
   \   0005CD   10           DB 16
   \   0005CE   10           DB 16
   \   0005CF   00           DB 0
   \   0005D0   00           DB 0
   \   0005D1   C0           DB 192
   \   0005D2   20           DB 32
   \   0005D3   20           DB 32
   \   0005D4   20           DB 32
   \   0005D5   20           DB 32
   \   0005D6   20           DB 32
   \   0005D7   18           DB 24
   \   0005D8   20           DB 32
   \   0005D9   20           DB 32
   \   0005DA   20           DB 32
   \   0005DB   20           DB 32
   \   0005DC   20           DB 32
   \   0005DD   20           DB 32
   \   0005DE   C0           DB 192
   \   0005DF   00           DB 0
   \   0005E0   00           DB 0
   \   0005E1   00           DB 0
   \   0005E2   00           DB 0
   \   0005E3   00           DB 0
   \   0005E4   00           DB 0
   \   0005E5   00           DB 0
   \   0005E6   00           DB 0
   \   0005E7   72           DB 114
   \   0005E8   8C           DB 140
   \   0005E9   00           DB 0
   \   0005EA   00           DB 0
   \   0005EB   00           DB 0
   \   0005EC   00           DB 0
   \   0005ED   00           DB 0
   \   0005EE   00           DB 0
   \   0005EF   00           DB 0
      3          #include "font_chinese_h_16x16.h"

   \                                 In  segment XDATA_ROM_C, align 1
   \   static struct <unnamed> const __xdata_rom FontTable_Chinese_H_16X16[4]
   \                     FontTable_Chinese_H_16X16:
   \   000000   BDF1         DB 0BDH, 0F1H
   \   000002   01           DB 1
   \   000003   00           DB 0
   \   000004   01           DB 1
   \   000005   00           DB 0
   \   000006   02           DB 2
   \   000007   80           DB 128
   \   000008   04           DB 4
   \   000009   40           DB 64
   \   00000A   08           DB 8
   \   00000B   20           DB 32
   \   00000C   12           DB 18
   \   00000D   10           DB 16
   \   00000E   21           DB 33
   \   00000F   08           DB 8
   \   000010   C1           DB 193
   \   000011   06           DB 6
   \   000012   00           DB 0
   \   000013   00           DB 0
   \   000014   1F           DB 31
   \   000015   F0           DB 240
   \   000016   00           DB 0
   \   000017   10           DB 16
   \   000018   00           DB 0
   \   000019   20           DB 32
   \   00001A   00           DB 0
   \   00001B   20           DB 32
   \   00001C   00           DB 0
   \   00001D   40           DB 64
   \   00001E   00           DB 0
   \   00001F   80           DB 128
   \   000020   01           DB 1
   \   000021   00           DB 0
   \   000022   CCEC         DB 0CCH, 0ECH
   \   000024   00           DB 0
   \   000025   00           DB 0
   \   000026   3F           DB 63
   \   000027   F8           DB 248
   \   000028   01           DB 1
   \   000029   00           DB 0
   \   00002A   01           DB 1
   \   00002B   00           DB 0
   \   00002C   01           DB 1
   \   00002D   00           DB 0
   \   00002E   01           DB 1
   \   00002F   00           DB 0
   \   000030   FF           DB 255
   \   000031   FE           DB 254
   \   000032   01           DB 1
   \   000033   00           DB 0
   \   000034   02           DB 2
   \   000035   80           DB 128
   \   000036   02           DB 2
   \   000037   80           DB 128
   \   000038   04           DB 4
   \   000039   40           DB 64
   \   00003A   04           DB 4
   \   00003B   40           DB 64
   \   00003C   08           DB 8
   \   00003D   20           DB 32
   \   00003E   10           DB 16
   \   00003F   10           DB 16
   \   000040   20           DB 32
   \   000041   08           DB 8
   \   000042   C0           DB 192
   \   000043   06           DB 6
   \   000044   C6F8         DB 0C6H, 0F8H
   \   000046   10           DB 16
   \   000047   00           DB 0
   \   000048   10           DB 16
   \   000049   00           DB 0
   \   00004A   3F           DB 63
   \   00004B   FC           DB 252
   \   00004C   20           DB 32
   \   00004D   00           DB 0
   \   00004E   4F           DB 79
   \   00004F   F0           DB 240
   \   000050   80           DB 128
   \   000051   00           DB 0
   \   000052   3F           DB 63
   \   000053   F0           DB 240
   \   000054   00           DB 0
   \   000055   10           DB 16
   \   000056   00           DB 0
   \   000057   10           DB 16
   \   000058   00           DB 0
   \   000059   10           DB 16
   \   00005A   00           DB 0
   \   00005B   10           DB 16
   \   00005C   00           DB 0
   \   00005D   10           DB 16
   \   00005E   00           DB 0
   \   00005F   0A           DB 10
   \   000060   00           DB 0
   \   000061   0A           DB 10
   \   000062   00           DB 0
   \   000063   06           DB 6
   \   000064   00           DB 0
   \   000065   02           DB 2
   \   000066   CEC2         DB 0CEH, 0C2H
   \   000068   00           DB 0
   \   000069   00           DB 0
   \   00006A   23           DB 35
   \   00006B   F8           DB 248
   \   00006C   12           DB 18
   \   00006D   08           DB 8
   \   00006E   12           DB 18
   \   00006F   08           DB 8
   \   000070   83           DB 131
   \   000071   F8           DB 248
   \   000072   42           DB 66
   \   000073   08           DB 8
   \   000074   42           DB 66
   \   000075   08           DB 8
   \   000076   13           DB 19
   \   000077   F8           DB 248
   \   000078   10           DB 16
   \   000079   00           DB 0
   \   00007A   27           DB 39
   \   00007B   FC           DB 252
   \   00007C   E4           DB 228
   \   00007D   A4           DB 164
   \   00007E   24           DB 36
   \   00007F   A4           DB 164
   \   000080   24           DB 36
   \   000081   A4           DB 164
   \   000082   24           DB 36
   \   000083   A4           DB 164
   \   000084   2F           DB 47
   \   000085   FE           DB 254
   \   000086   00           DB 0
   \   000087   00           DB 0
      4          #include "hal_delay.h"
      5          
      6          /* Write a uint16 data to TFT. */
      7          #define HAL_TFT_WRITE_UINT16(val) do {    \
      8              halLcdSpiTxData((uint8)((val) >> 8)); \
      9              halLcdSpiTxData((uint8)(val));        \
     10          } while(0)
     11                            
     12          static void halTFTReset(void);   
     13          
     14          #if (defined LCD_TYPE) && (LCD_TYPE == LCD_TFT096)
     15          static void ST7735RInit(void);
     16          
     17          static void halTFTSetRegion(uint16 xs, uint16 ys, uint16 xe, uint16 ye);
     18          #define HAL_TFT_SET_REGION(xs, ys, xe, ye)  halTFTSetRegion(xs, ys, xe, ye)
     19          #endif
     20          
     21          #if (defined LCD_TYPE) && (LCD_TYPE == LCD_IPS096_T1)
     22          #define ST7735S_FLAG_MY     (1 << 7)
     23          #define ST7735S_FLAG_MX     (1 << 6)
     24          #define ST7735S_FLAG_MV     (1 << 5)
     25          #define ST7735S_FLAG_ML     (1 << 4)
     26          #define ST7735S_FLAG_RGB    (1 << 3)
     27          #define ST7735S_FLAG_MH     (1 << 2)
     28          
     29          #define ST7735S_MADCTL_RGB           (ST7735S_FLAG_RGB)
     30          #define ST7735S_MADCTL_MY_MV_RGB     (ST7735S_FLAG_MY | ST7735S_FLAG_MV | ST7735S_FLAG_RGB)
     31          #define ST7735S_MADCTL_MY_MX_RGB     (ST7735S_FLAG_MY | ST7735S_FLAG_MX | ST7735S_FLAG_RGB)
     32          #define ST7735S_MADCTL_MX_MV_ML_RGB  (ST7735S_FLAG_MX | ST7735S_FLAG_MV | ST7735S_FLAG_ML | ST7735S_FLAG_RGB)
     33          
     34          #define ST7735S_MADCTL  ST7735S_MADCTL_MX_MV_ML_RGB
     35          
     36          static void ST7735SInit(uint8 madctl);
     37          
     38          static void halTFTSetRegion(uint8 madctl, uint16 xs, uint16 ys, uint16 xe, uint16 ye);
     39          #define HAL_TFT_SET_REGION(xs, ys, xe, ye)  halTFTSetRegion(ST7735S_MADCTL, xs, ys, xe, ye)
     40          #endif
     41          
     42          
     43          static void halTFTSetPosition(uint16 x, uint16 y);
     44          static void halTFTDrawPixel(uint16 xs, uint16 ys, uint16 color);
     45          static void halTFTShowChar8x16(uint16 x, uint16 y, uint16 fontColor, uint16 backgroundColor, uint8 ch);
     46          static void halTFTShowChineseChar16x16(uint16 x, uint16 y, uint16 fontColor, uint16 backgroundColor, uint8 chL, uint8 chR);
     47          

   \                                 In  segment BANKED_CODE, align 1, keep-with-next
     48          void halTFTInit(uint16 screenColor)
   \                     halTFTInit:
     49          {    
   \   000000                REQUIRE ?V0
   \   000000                REQUIRE ?V1
   \   000000   74F6         MOV       A,#-0xa
   \   000002   12....       LCALL     ?BANKED_ENTER_XDATA
   \   000005                ; Saved register size: 10
   \   000005                ; Auto size: 0
   \   000005   EA           MOV       A,R2
   \   000006   FE           MOV       R6,A
   \   000007   EB           MOV       A,R3
   \   000008   FF           MOV       R7,A
     50              /* Init SPI-GPIO */
     51              halLcdSpiInit();
   \   000009                ; Setup parameters for call to function halLcdSpiInit
   \   000009   12....       LCALL     `??halLcdSpiInit::?relay`; Banked call to: halLcdSpiInit
     52              
     53          #if (defined LCD_TYPE) && (LCD_TYPE == LCD_TFT096)
     54              ST7735RInit();
   \   00000C                ; Setup parameters for call to function ST7735RInit
   \   00000C   12....       LCALL     `??ST7735RInit::?relay`; Banked call to: ST7735RInit
     55          #elif (defined LCD_TYPE) && (LCD_TYPE == LCD_IPS096_T1)
     56              ST7735SInit(ST7735S_MADCTL);
     57          #else
     58              #error "Unknow LCD_TYPE."
     59          #endif
     60              
     61              /* Setting */
     62              halTFTSetPosition(0, 0);
   \   00000F                ; Setup parameters for call to function halTFTSetRegion
   \   00000F   E4           CLR       A
   \   000010   F5..         MOV       ?V0,A
   \   000012   F5..         MOV       ?V1,A
   \   000014   78..         MOV       R0,#?V0
   \   000016   12....       LCALL     ?PUSH_XSTACK_I_TWO
   \   000019   78..         MOV       R0,#?V0
   \   00001B   12....       LCALL     ?PUSH_XSTACK_I_TWO
   \   00001E   7C00         MOV       R4,#0x0
   \   000020   7D00         MOV       R5,#0x0
   \   000022   7A00         MOV       R2,#0x0
   \   000024   7B00         MOV       R3,#0x0
   \   000026   12....       LCALL     `??halTFTSetRegion::?relay`; Banked call to: halTFTSetRegion
   \   000029   7404         MOV       A,#0x4
   \   00002B   12....       LCALL     ?DEALLOC_XSTACK8
     63              halTFTSetScreen(screenColor);
   \   00002E                ; Setup parameters for call to function halTFTSetScreen
   \   00002E   EE           MOV       A,R6
   \   00002F   FA           MOV       R2,A
   \   000030   EF           MOV       A,R7
   \   000031   FB           MOV       R3,A
   \   000032   12....       LCALL     `??halTFTSetScreen::?relay`; Banked call to: halTFTSetScreen
     64          }
   \   000035   02....       LJMP      ?Subroutine0 & 0xFFFF

   \                                 In  segment BANKED_CODE, align 1, keep-with-next
   \                     ?Subroutine0:
   \   000000   7F02         MOV       R7,#0x2
   \   000002   02....       LJMP      ?BANKED_LEAVE_XDATA
     65          

   \                                 In  segment BANKED_CODE, align 1, keep-with-next
     66          void halTFTSetScreen(uint16 pixelVal)
   \                     halTFTSetScreen:
     67          {
   \   000000                REQUIRE ?V0
   \   000000                REQUIRE ?V1
   \   000000   74F6         MOV       A,#-0xa
   \   000002   12....       LCALL     ?BANKED_ENTER_XDATA
   \   000005                ; Saved register size: 10
   \   000005                ; Auto size: 0
   \   000005   EA           MOV       A,R2
   \   000006   FE           MOV       R6,A
   \   000007   EB           MOV       A,R3
   \   000008   FF           MOV       R7,A
     68              uint16 x, y;
     69              
     70              HAL_TFT_SET_REGION(0, HAL_TFT_Y_OFFSET, HAL_TFT_X-1, HAL_TFT_Y-1);
   \   000009                ; Setup parameters for call to function halTFTSetRegion
   \   000009   75..7F       MOV       ?V0,#0x7f
   \   00000C   75..00       MOV       ?V1,#0x0
   \   00000F   78..         MOV       R0,#?V0
   \   000011   12....       LCALL     ?PUSH_XSTACK_I_TWO
   \   000014   78..         MOV       R0,#?V0
   \   000016   12....       LCALL     ?PUSH_XSTACK_I_TWO
   \   000019   7C40         MOV       R4,#0x40
   \   00001B   7D00         MOV       R5,#0x0
   \   00001D   7A00         MOV       R2,#0x0
   \   00001F   7B00         MOV       R3,#0x0
   \   000021   12....       LCALL     `??halTFTSetRegion::?relay`; Banked call to: halTFTSetRegion
   \   000024   7404         MOV       A,#0x4
   \   000026   12....       LCALL     ?DEALLOC_XSTACK8
     71              
     72              for (x = 0; x < HAL_TFT_X; x++)
   \   000029   75..80       MOV       ?V1,#-0x80
     73                  for (y = HAL_TFT_Y_OFFSET; y < HAL_TFT_Y; y++) HAL_TFT_WRITE_UINT16(pixelVal);
   \                     ??halTFTSetScreen_0:
   \   00002C   75..40       MOV       ?V0,#0x40
   \                     ??halTFTSetScreen_1:
   \   00002F                ; Setup parameters for call to function halLcdSpiTxData
   \   00002F   EF           MOV       A,R7
   \   000030   F9           MOV       R1,A
   \   000031   12....       LCALL     `??halLcdSpiTxData::?relay`; Banked call to: halLcdSpiTxData
   \   000034                ; Setup parameters for call to function halLcdSpiTxData
   \   000034   EE           MOV       A,R6
   \   000035   F9           MOV       R1,A
   \   000036   12....       LCALL     `??halLcdSpiTxData::?relay`; Banked call to: halLcdSpiTxData
   \   000039   15..         DEC       ?V0
   \   00003B   E5..         MOV       A,?V0
   \   00003D   70F0         JNZ       ??halTFTSetScreen_1
   \   00003F   15..         DEC       ?V1
   \   000041   E5..         MOV       A,?V1
   \   000043   70E7         JNZ       ??halTFTSetScreen_0
     74          }
   \   000045   02....       LJMP      ?Subroutine0 & 0xFFFF
     75          

   \                                 In  segment BANKED_CODE, align 1, keep-with-next
     76          void halTFTShowX16(uint16 x, uint16 y, uint16 fontColor, uint16 backgroundColor, const uint8 *str)
   \                     halTFTShowX16:
     77          {
   \   000000                REQUIRE ?V0
   \   000000                REQUIRE ?V1
   \   000000                REQUIRE ?V2
   \   000000                REQUIRE ?V3
   \   000000                REQUIRE ?V4
   \   000000                REQUIRE ?V5
   \   000000                REQUIRE ?V6
   \   000000                REQUIRE ?V7
   \   000000                REQUIRE ?V8
   \   000000                REQUIRE ?V9
   \   000000   74EE         MOV       A,#-0x12
   \   000002   12....       LCALL     ?BANKED_ENTER_XDATA
   \   000005                ; Saved register size: 18
   \   000005                ; Auto size: 0
   \   000005   8A..         MOV       ?V0,R2
   \   000007   8B..         MOV       ?V1,R3
   \   000009   7416         MOV       A,#0x16
   \   00000B   12....       LCALL     ?XSTACK_DISP0_8
   \   00000E   E0           MOVX      A,@DPTR
   \   00000F   FE           MOV       R6,A
   \   000010   A3           INC       DPTR
   \   000011   E0           MOVX      A,@DPTR
   \   000012   FF           MOV       R7,A
     78              if (!str) return;
   \   000013   EE           MOV       A,R6
   \   000014   4F           ORL       A,R7
   \   000015   7003         JNZ       $+5
   \   000017   02....       LJMP      ??halTFTShowX16_0 & 0xFFFF
     79              
     80              y += HAL_TFT_Y_OFFSET;
   \   00001A   EC           MOV       A,R4
   \   00001B   2440         ADD       A,#0x40
   \   00001D   F5..         MOV       ?V2,A
   \   00001F   E4           CLR       A
   \   000020   3D           ADDC      A,R5
   \   000021   F5..         MOV       ?V3,A
     81              const uint8 *ptext = str; // text
   \   000023   7412         MOV       A,#0x12
   \   000025   12....       LCALL     ?XSTACK_DISP0_8
   \   000028   E0           MOVX      A,@DPTR
   \   000029   F5..         MOV       ?V8,A
   \   00002B   A3           INC       DPTR
   \   00002C   E0           MOVX      A,@DPTR
   \   00002D   F5..         MOV       ?V9,A
   \   00002F   7414         MOV       A,#0x14
   \   000031   12....       LCALL     ?XSTACK_DISP0_8
   \   000034   E0           MOVX      A,@DPTR
   \   000035   F5..         MOV       ?V6,A
   \   000037   A3           INC       DPTR
   \   000038   E0           MOVX      A,@DPTR
   \   000039   F5..         MOV       ?V7,A
   \   00003B   8029         SJMP      ??halTFTShowX16_1
     82          
     83              /* Show text */
     84              while(*ptext != 0) {
     85                  /* ASCII Code: 0~127 */
     86                  if ((*ptext) < 128) {
     87                      /* End of line */
     88                      if((x + 8) > HAL_TFT_X) return;
     89                    
     90                      /* Show 8x16 ASCII Char. */
     91                      halTFTShowChar8x16(x, y, fontColor, backgroundColor, *ptext);
   \                     ??halTFTShowX16_2:
   \   00003D                ; Setup parameters for call to function halTFTShowChar8x16
   \   00003D   78..         MOV       R0,#?V6
   \   00003F   12....       LCALL     ?PUSH_XSTACK_I_TWO
   \   000042   78..         MOV       R0,#?V8
   \   000044   12....       LCALL     ?PUSH_XSTACK_I_TWO
   \   000047   AC..         MOV       R4,?V2
   \   000049   AD..         MOV       R5,?V3
   \   00004B   AA..         MOV       R2,?V0
   \   00004D   AB..         MOV       R3,?V1
   \   00004F   12....       LCALL     `??halTFTShowChar8x16::?relay`; Banked call to: halTFTShowChar8x16
   \   000052   7404         MOV       A,#0x4
   \   000054   12....       LCALL     ?DEALLOC_XSTACK8
     92                      x += 8;
   \   000057   E5..         MOV       A,?V0
   \   000059   2408         ADD       A,#0x8
   \   00005B   F5..         MOV       ?V0,A
   \   00005D   E4           CLR       A
   \   00005E   35..         ADDC      A,?V1
   \   000060   F5..         MOV       ?V1,A
     93                      
     94                      ptext++;
   \   000062   AE..         MOV       R6,?V4
   \   000064   AF..         MOV       R7,?V5
   \                     ??halTFTShowX16_1:
   \   000066   8E82         MOV       DPL,R6
   \   000068   8F83         MOV       DPH,R7
   \   00006A   E0           MOVX      A,@DPTR
   \   00006B   F9           MOV       R1,A
   \   00006C   6054         JZ        ??halTFTShowX16_0
   \   00006E   A3           INC       DPTR
   \   00006F   8582..       MOV       ?V4,DPL
   \   000072   8583..       MOV       ?V5,DPH
   \   000075   C3           CLR       C
   \   000076   9480         SUBB      A,#-0x80
   \   000078   E5..         MOV       A,?V0
   \   00007A   5009         JNC       ??halTFTShowX16_3
   \   00007C   2408         ADD       A,#0x8
   \   00007E   12....       LCALL     ?Subroutine3 & 0xFFFF
   \                     ??CrossCallReturnLabel_0:
   \   000081   40BA         JC        ??halTFTShowX16_2
   \   000083   803D         SJMP      ??halTFTShowX16_0
     95                  }
     96                  /* Chinese 16x16 characters */
     97                  else {
     98                      /* End of line */
     99                      if((x + 16) > HAL_TFT_X) return;
   \                     ??halTFTShowX16_3:
   \   000085   2410         ADD       A,#0x10
   \   000087   12....       LCALL     ?Subroutine3 & 0xFFFF
   \                     ??CrossCallReturnLabel_1:
   \   00008A   5036         JNC       ??halTFTShowX16_0
    100                      
    101                      halTFTShowChineseChar16x16(x, y, fontColor, backgroundColor, *ptext, *(ptext + 1));
   \   00008C                ; Setup parameters for call to function halTFTShowChineseChar16x16
   \   00008C   E0           MOVX      A,@DPTR
   \   00008D   F5..         MOV       ?V4,A
   \   00008F   78..         MOV       R0,#?V4
   \   000091   12....       LCALL     ?PUSH_XSTACK_I_ONE
   \   000094   78..         MOV       R0,#?V6
   \   000096   12....       LCALL     ?PUSH_XSTACK_I_TWO
   \   000099   78..         MOV       R0,#?V8
   \   00009B   12....       LCALL     ?PUSH_XSTACK_I_TWO
   \   00009E   AC..         MOV       R4,?V2
   \   0000A0   AD..         MOV       R5,?V3
   \   0000A2   AA..         MOV       R2,?V0
   \   0000A4   AB..         MOV       R3,?V1
   \   0000A6   12....       LCALL     `??halTFTShowChineseChar16x16::?relay`; Banked call to: halTFTShowChineseChar16x16
   \   0000A9   7405         MOV       A,#0x5
   \   0000AB   12....       LCALL     ?DEALLOC_XSTACK8
    102                      
    103                      x += 16;
   \   0000AE   E5..         MOV       A,?V0
   \   0000B0   2410         ADD       A,#0x10
   \   0000B2   F5..         MOV       ?V0,A
   \   0000B4   E4           CLR       A
   \   0000B5   35..         ADDC      A,?V1
   \   0000B7   F5..         MOV       ?V1,A
    104                      
    105                      ptext += 2;
   \   0000B9   EE           MOV       A,R6
   \   0000BA   2402         ADD       A,#0x2
   \   0000BC   FE           MOV       R6,A
   \   0000BD   50A7         JNC       ??halTFTShowX16_1
   \   0000BF   0F           INC       R7
   \   0000C0   80A4         SJMP      ??halTFTShowX16_1
    106                  }
    107              } /* while(*ptext != 0) */
    108          }
   \                     ??halTFTShowX16_0:
   \   0000C2                REQUIRE ?Subroutine1
   \   0000C2                ; // Fall through to label ?Subroutine1

   \                                 In  segment BANKED_CODE, align 1, keep-with-next
   \                     ?Subroutine1:
   \   000000   7F0A         MOV       R7,#0xa
   \   000002   02....       LJMP      ?BANKED_LEAVE_XDATA

   \                                 In  segment BANKED_CODE, align 1, keep-with-next
   \                     ?Subroutine3:
   \   000000   FA           MOV       R2,A
   \   000001   E4           CLR       A
   \   000002   35..         ADDC      A,?V1
   \   000004   FB           MOV       R3,A
   \   000005   C3           CLR       C
   \   000006   EA           MOV       A,R2
   \   000007   9481         SUBB      A,#-0x7f
   \   000009   EB           MOV       A,R3
   \   00000A   9400         SUBB      A,#0x0
   \   00000C   22           RET
    109          

   \                                 In  segment BANKED_CODE, align 1, keep-with-next
    110          void halTFTShowPicture(uint8 x, uint8 y, uint8 picWidth, uint8 picHeight, const uint8 *pic)
   \                     halTFTShowPicture:
    111          {
   \   000000                REQUIRE ?V0
   \   000000                REQUIRE ?V1
   \   000000                REQUIRE ?V2
   \   000000                REQUIRE ?V3
   \   000000                REQUIRE ?V4
   \   000000                REQUIRE ?V5
   \   000000                REQUIRE ?V6
   \   000000                REQUIRE ?V7
   \   000000                REQUIRE ?V8
   \   000000                REQUIRE ?V9
   \   000000   74EE         MOV       A,#-0x12
   \   000002   12....       LCALL     ?BANKED_ENTER_XDATA
   \   000005                ; Saved register size: 18
   \   000005                ; Auto size: 0
   \   000005   89..         MOV       ?V5,R1
    112              uint8 picL, picH;
    113              const uint8 *pPic = pic;
    114              uint16 picSize = (uint16)picWidth * picHeight;
   \   000007   EB           MOV       A,R3
   \   000008   8CF0         MOV       B,R4
   \   00000A   A4           MUL       AB
   \   00000B   F5..         MOV       ?V2,A
   \   00000D   E5F0         MOV       A,B
   \   00000F   F5..         MOV       ?V3,A
    115          
    116              y += HAL_TFT_Y_OFFSET;
   \   000011   7440         MOV       A,#0x40
   \   000013   2A           ADD       A,R2
   \   000014   F5..         MOV       ?V4,A
   \   000016   7412         MOV       A,#0x12
   \   000018   12....       LCALL     ?XSTACK_DISP0_8
   \   00001B   E0           MOVX      A,@DPTR
   \   00001C   F5..         MOV       ?V0,A
   \   00001E   A3           INC       DPTR
   \   00001F   E0           MOVX      A,@DPTR
   \   000020   F5..         MOV       ?V1,A
    117              
    118              if (!pPic || (x + picWidth)  > HAL_TFT_X ||  (y + picHeight) > HAL_TFT_Y) return;
   \   000022   E5..         MOV       A,?V0
   \   000024   45..         ORL       A,?V1
   \   000026   6027         JZ        ??halTFTShowPicture_0
   \   000028   E9           MOV       A,R1
   \   000029   2B           ADD       A,R3
   \   00002A   FA           MOV       R2,A
   \   00002B   E4           CLR       A
   \   00002C   3400         ADDC      A,#0x0
   \   00002E   FB           MOV       R3,A
   \   00002F   EA           MOV       A,R2
   \   000030   9481         SUBB      A,#-0x7f
   \   000032   EB           MOV       A,R3
   \   000033   9400         SUBB      A,#0x0
   \   000035   C3           CLR       C
   \   000036   65D0         XRL       A,PSW
   \   000038   33           RLC       A
   \   000039   507A         JNC       ??halTFTShowPicture_1
   \   00003B   E5..         MOV       A,?V4
   \   00003D   2C           ADD       A,R4
   \   00003E   F8           MOV       R0,A
   \   00003F   E4           CLR       A
   \   000040   3400         ADDC      A,#0x0
   \   000042   F9           MOV       R1,A
   \   000043   E8           MOV       A,R0
   \   000044   9481         SUBB      A,#-0x7f
   \   000046   E9           MOV       A,R1
   \   000047   9400         SUBB      A,#0x0
   \   000049   C3           CLR       C
   \   00004A   65D0         XRL       A,PSW
   \   00004C   33           RLC       A
   \   00004D   4002         JC        ??halTFTShowPicture_2
   \                     ??halTFTShowPicture_0:
   \   00004F   8064         SJMP      ??halTFTShowPicture_1
    119          
    120              /* Set region */
    121              HAL_TFT_SET_REGION(x, y, x + picWidth - 1, y + picHeight - 1);
   \                     ??halTFTShowPicture_2:
   \   000051                ; Setup parameters for call to function halTFTSetRegion
   \   000051   E8           MOV       A,R0
   \   000052   24FF         ADD       A,#-0x1
   \   000054   F5..         MOV       ?V8,A
   \   000056   E9           MOV       A,R1
   \   000057   34FF         ADDC      A,#-0x1
   \   000059   F5..         MOV       ?V9,A
   \   00005B   78..         MOV       R0,#?V8
   \   00005D   12....       LCALL     ?PUSH_XSTACK_I_TWO
   \   000060   EA           MOV       A,R2
   \   000061   24FF         ADD       A,#-0x1
   \   000063   F5..         MOV       ?V8,A
   \   000065   EB           MOV       A,R3
   \   000066   34FF         ADDC      A,#-0x1
   \   000068   F5..         MOV       ?V9,A
   \   00006A   78..         MOV       R0,#?V8
   \   00006C   12....       LCALL     ?PUSH_XSTACK_I_TWO
   \   00006F   AC..         MOV       R4,?V4
   \   000071   7D00         MOV       R5,#0x0
   \   000073   AA..         MOV       R2,?V5
   \   000075   7B00         MOV       R3,#0x0
   \   000077   12....       LCALL     `??halTFTSetRegion::?relay`; Banked call to: halTFTSetRegion
   \   00007A   7404         MOV       A,#0x4
   \   00007C   12....       LCALL     ?DEALLOC_XSTACK8
    122          
    123              /* Show Picture */
    124              for (uint16 i = 0; i < picSize; i++) {	
   \   00007F   7E00         MOV       R6,#0x0
   \   000081   7F00         MOV       R7,#0x0
   \   000083   8027         SJMP      ??halTFTShowPicture_3
    125              #ifdef HAL_TFT_PIC_MSB
    126                  picH = *(pPic + i*2);     // High 8Bit
    127                  picL = *(pPic + i*2 + 1); // Low 8Bit
    128              #else
    129                  picL = *(pPic + i*2);     // Low 8Bit
   \                     ??halTFTShowPicture_4:
   \   000085   EE           MOV       A,R6
   \   000086   F8           MOV       R0,A
   \   000087   EF           MOV       A,R7
   \   000088   F9           MOV       R1,A
   \   000089   E8           MOV       A,R0
   \   00008A   28           ADD       A,R0
   \   00008B   F8           MOV       R0,A
   \   00008C   E9           MOV       A,R1
   \   00008D   33           RLC       A
   \   00008E   F9           MOV       R1,A
   \   00008F   E5..         MOV       A,?V0
   \   000091   28           ADD       A,R0
   \   000092   F582         MOV       DPL,A
   \   000094   E5..         MOV       A,?V1
   \   000096   39           ADDC      A,R1
   \   000097   F583         MOV       DPH,A
   \   000099   E0           MOVX      A,@DPTR
   \   00009A   F5..         MOV       ?V8,A
    130                  picH = *(pPic + i*2 + 1); // High 8Bit
    131              #endif
    132                    
    133                  HAL_TFT_WRITE_UINT16((uint16)picH<<8 | picL);  						
   \   00009C                ; Setup parameters for call to function halLcdSpiTxData
   \   00009C   A3           INC       DPTR
   \   00009D   E0           MOVX      A,@DPTR
   \   00009E   F9           MOV       R1,A
   \   00009F   12....       LCALL     `??halLcdSpiTxData::?relay`; Banked call to: halLcdSpiTxData
   \   0000A2                ; Setup parameters for call to function halLcdSpiTxData
   \   0000A2   A9..         MOV       R1,?V8
   \   0000A4   12....       LCALL     `??halLcdSpiTxData::?relay`; Banked call to: halLcdSpiTxData
    134              }
   \   0000A7   0E           INC       R6
   \   0000A8   EE           MOV       A,R6
   \   0000A9   7001         JNZ       ??halTFTShowPicture_3
   \   0000AB   0F           INC       R7
   \                     ??halTFTShowPicture_3:
   \   0000AC   C3           CLR       C
   \   0000AD   EE           MOV       A,R6
   \   0000AE   95..         SUBB      A,?V2
   \   0000B0   EF           MOV       A,R7
   \   0000B1   95..         SUBB      A,?V3
   \   0000B3   40D0         JC        ??halTFTShowPicture_4
    135          }
   \                     ??halTFTShowPicture_1:
   \   0000B5   02....       LJMP      ?Subroutine1 & 0xFFFF
    136          
    137          static void halTFTReset(void)
    138          {
    139              SPI_GPIO_SET(HAL_LCD_SPI_RST_PORT, HAL_LCD_SPI_RST_PIN);
    140              delayMs(SYSCLK_32MHZ, 100);
    141              
    142              SPI_GPIO_CLEAR(HAL_LCD_SPI_RST_PORT, HAL_LCD_SPI_RST_PIN);
    143              delayMs(SYSCLK_32MHZ, 100);
    144              
    145              SPI_GPIO_SET(HAL_LCD_SPI_RST_PORT, HAL_LCD_SPI_RST_PIN);
    146              delayMs(SYSCLK_32MHZ, 100);
    147          }
    148          
    149          #if (defined LCD_TYPE) && (LCD_TYPE == LCD_TFT096)

   \                                 In  segment BANKED_CODE, align 1, keep-with-next
    150          static void ST7735RInit(void)
   \                     ST7735RInit:
    151          {
   \   000000   C082         PUSH      DPL
   \   000002   C083         PUSH      DPH
   \   000004                ; Saved register size: 2
   \   000004                ; Auto size: 0
    152              /* Reset TFT */
    153              halTFTReset();
   \   000004   D290         SETB      0x90.0
   \   000006                ; Setup parameters for call to function delayMs
   \   000006   7A64         MOV       R2,#0x64
   \   000008   7B00         MOV       R3,#0x0
   \   00000A   7901         MOV       R1,#0x1
   \   00000C   12....       LCALL     `??delayMs::?relay`; Banked call to: delayMs
   \   00000F   C290         CLR       0x90.0
   \   000011                ; Setup parameters for call to function delayMs
   \   000011   7A64         MOV       R2,#0x64
   \   000013   7B00         MOV       R3,#0x0
   \   000015   7901         MOV       R1,#0x1
   \   000017   12....       LCALL     `??delayMs::?relay`; Banked call to: delayMs
   \   00001A   D290         SETB      0x90.0
   \   00001C                ; Setup parameters for call to function delayMs
   \   00001C   7A64         MOV       R2,#0x64
   \   00001E   7B00         MOV       R3,#0x0
   \   000020   7901         MOV       R1,#0x1
   \   000022   12....       LCALL     `??delayMs::?relay`; Banked call to: delayMs
    154              
    155              /* Sleep Exit */
    156              halLcdSpiTxCmd(0x11);
   \   000025                ; Setup parameters for call to function halLcdSpiTxCmd
   \   000025   7911         MOV       R1,#0x11
   \   000027   12....       LCALL     `??halLcdSpiTxCmd::?relay`; Banked call to: halLcdSpiTxCmd
    157              delayMs(SYSCLK_32MHZ, 120);
   \   00002A                ; Setup parameters for call to function delayMs
   \   00002A   7A78         MOV       R2,#0x78
   \   00002C   7B00         MOV       R3,#0x0
   \   00002E   7901         MOV       R1,#0x1
   \   000030   12....       LCALL     `??delayMs::?relay`; Banked call to: delayMs
    158              
    159              /* Frame Rate */
    160              halLcdSpiTxCmd(0xB1); 
   \   000033                ; Setup parameters for call to function halLcdSpiTxCmd
   \   000033   79B1         MOV       R1,#-0x4f
   \   000035   12....       LCALL     `??halLcdSpiTxCmd::?relay`; Banked call to: halLcdSpiTxCmd
    161              halLcdSpiTxData(0x01); 
   \   000038                ; Setup parameters for call to function halLcdSpiTxData
   \   000038   7901         MOV       R1,#0x1
   \   00003A   12....       LCALL     `??halLcdSpiTxData::?relay`; Banked call to: halLcdSpiTxData
    162              halLcdSpiTxData(0x2C); 
   \   00003D                ; Setup parameters for call to function halLcdSpiTxData
   \   00003D   792C         MOV       R1,#0x2c
   \   00003F   12....       LCALL     `??halLcdSpiTxData::?relay`; Banked call to: halLcdSpiTxData
    163              halLcdSpiTxData(0x2D); 
   \   000042                ; Setup parameters for call to function halLcdSpiTxData
   \   000042   792D         MOV       R1,#0x2d
   \   000044   12....       LCALL     `??halLcdSpiTxData::?relay`; Banked call to: halLcdSpiTxData
    164          
    165              halLcdSpiTxCmd(0xB2); 
   \   000047                ; Setup parameters for call to function halLcdSpiTxCmd
   \   000047   79B2         MOV       R1,#-0x4e
   \   000049   12....       LCALL     `??halLcdSpiTxCmd::?relay`; Banked call to: halLcdSpiTxCmd
    166              halLcdSpiTxData(0x01);
   \   00004C                ; Setup parameters for call to function halLcdSpiTxData
   \   00004C   7901         MOV       R1,#0x1
   \   00004E   12....       LCALL     `??halLcdSpiTxData::?relay`; Banked call to: halLcdSpiTxData
    167              halLcdSpiTxData(0x2C);
   \   000051                ; Setup parameters for call to function halLcdSpiTxData
   \   000051   792C         MOV       R1,#0x2c
   \   000053   12....       LCALL     `??halLcdSpiTxData::?relay`; Banked call to: halLcdSpiTxData
    168              halLcdSpiTxData(0x2D);
   \   000056                ; Setup parameters for call to function halLcdSpiTxData
   \   000056   792D         MOV       R1,#0x2d
   \   000058   12....       LCALL     `??halLcdSpiTxData::?relay`; Banked call to: halLcdSpiTxData
    169          
    170              halLcdSpiTxCmd(0xB3);
   \   00005B                ; Setup parameters for call to function halLcdSpiTxCmd
   \   00005B   79B3         MOV       R1,#-0x4d
   \   00005D   12....       LCALL     `??halLcdSpiTxCmd::?relay`; Banked call to: halLcdSpiTxCmd
    171              halLcdSpiTxData(0x01);
   \   000060                ; Setup parameters for call to function halLcdSpiTxData
   \   000060   7901         MOV       R1,#0x1
   \   000062   12....       LCALL     `??halLcdSpiTxData::?relay`; Banked call to: halLcdSpiTxData
    172              halLcdSpiTxData(0x2C);
   \   000065                ; Setup parameters for call to function halLcdSpiTxData
   \   000065   792C         MOV       R1,#0x2c
   \   000067   12....       LCALL     `??halLcdSpiTxData::?relay`; Banked call to: halLcdSpiTxData
    173              halLcdSpiTxData(0x2D);
   \   00006A                ; Setup parameters for call to function halLcdSpiTxData
   \   00006A   792D         MOV       R1,#0x2d
   \   00006C   12....       LCALL     `??halLcdSpiTxData::?relay`; Banked call to: halLcdSpiTxData
    174              halLcdSpiTxData(0x01);
   \   00006F                ; Setup parameters for call to function halLcdSpiTxData
   \   00006F   7901         MOV       R1,#0x1
   \   000071   12....       LCALL     `??halLcdSpiTxData::?relay`; Banked call to: halLcdSpiTxData
    175              halLcdSpiTxData(0x2C);
   \   000074                ; Setup parameters for call to function halLcdSpiTxData
   \   000074   792C         MOV       R1,#0x2c
   \   000076   12....       LCALL     `??halLcdSpiTxData::?relay`; Banked call to: halLcdSpiTxData
    176              halLcdSpiTxData(0x2D);
   \   000079                ; Setup parameters for call to function halLcdSpiTxData
   \   000079   792D         MOV       R1,#0x2d
   \   00007B   12....       LCALL     `??halLcdSpiTxData::?relay`; Banked call to: halLcdSpiTxData
    177              
    178              halLcdSpiTxCmd(0xB4);
   \   00007E                ; Setup parameters for call to function halLcdSpiTxCmd
   \   00007E   79B4         MOV       R1,#-0x4c
   \   000080   12....       LCALL     `??halLcdSpiTxCmd::?relay`; Banked call to: halLcdSpiTxCmd
    179              halLcdSpiTxData(0x07); 
   \   000083                ; Setup parameters for call to function halLcdSpiTxData
   \   000083   7907         MOV       R1,#0x7
   \   000085   12....       LCALL     `??halLcdSpiTxData::?relay`; Banked call to: halLcdSpiTxData
    180              
    181              /* Power Sequence */
    182              halLcdSpiTxCmd(0xC0); 
   \   000088                ; Setup parameters for call to function halLcdSpiTxCmd
   \   000088   79C0         MOV       R1,#-0x40
   \   00008A   12....       LCALL     `??halLcdSpiTxCmd::?relay`; Banked call to: halLcdSpiTxCmd
    183              halLcdSpiTxData(0xA2);
   \   00008D                ; Setup parameters for call to function halLcdSpiTxData
   \   00008D   79A2         MOV       R1,#-0x5e
   \   00008F   12....       LCALL     `??halLcdSpiTxData::?relay`; Banked call to: halLcdSpiTxData
    184              halLcdSpiTxData(0x02);
   \   000092                ; Setup parameters for call to function halLcdSpiTxData
   \   000092   7902         MOV       R1,#0x2
   \   000094   12....       LCALL     `??halLcdSpiTxData::?relay`; Banked call to: halLcdSpiTxData
    185              halLcdSpiTxData(0x84);
   \   000097                ; Setup parameters for call to function halLcdSpiTxData
   \   000097   7984         MOV       R1,#-0x7c
   \   000099   12....       LCALL     `??halLcdSpiTxData::?relay`; Banked call to: halLcdSpiTxData
    186              halLcdSpiTxData(0xC1);
   \   00009C                ; Setup parameters for call to function halLcdSpiTxData
   \   00009C   79C1         MOV       R1,#-0x3f
   \   00009E   12....       LCALL     `??halLcdSpiTxData::?relay`; Banked call to: halLcdSpiTxData
    187              halLcdSpiTxData(0xC5);
   \   0000A1                ; Setup parameters for call to function halLcdSpiTxData
   \   0000A1   79C5         MOV       R1,#-0x3b
   \   0000A3   12....       LCALL     `??halLcdSpiTxData::?relay`; Banked call to: halLcdSpiTxData
    188          
    189              halLcdSpiTxCmd(0xC2); 
   \   0000A6                ; Setup parameters for call to function halLcdSpiTxCmd
   \   0000A6   79C2         MOV       R1,#-0x3e
   \   0000A8   12....       LCALL     `??halLcdSpiTxCmd::?relay`; Banked call to: halLcdSpiTxCmd
    190              halLcdSpiTxData(0x0A); 
   \   0000AB                ; Setup parameters for call to function halLcdSpiTxData
   \   0000AB   790A         MOV       R1,#0xa
   \   0000AD   12....       LCALL     `??halLcdSpiTxData::?relay`; Banked call to: halLcdSpiTxData
    191              halLcdSpiTxData(0x00); 
   \   0000B0                ; Setup parameters for call to function halLcdSpiTxData
   \   0000B0   7900         MOV       R1,#0x0
   \   0000B2   12....       LCALL     `??halLcdSpiTxData::?relay`; Banked call to: halLcdSpiTxData
    192          
    193              halLcdSpiTxCmd(0xC3); 
   \   0000B5                ; Setup parameters for call to function halLcdSpiTxCmd
   \   0000B5   79C3         MOV       R1,#-0x3d
   \   0000B7   12....       LCALL     `??halLcdSpiTxCmd::?relay`; Banked call to: halLcdSpiTxCmd
    194              halLcdSpiTxData(0x8A);
   \   0000BA                ; Setup parameters for call to function halLcdSpiTxData
   \   0000BA   798A         MOV       R1,#-0x76
   \   0000BC   12....       LCALL     `??halLcdSpiTxData::?relay`; Banked call to: halLcdSpiTxData
    195              halLcdSpiTxData(0x2A);
   \   0000BF                ; Setup parameters for call to function halLcdSpiTxData
   \   0000BF   792A         MOV       R1,#0x2a
   \   0000C1   12....       LCALL     `??halLcdSpiTxData::?relay`; Banked call to: halLcdSpiTxData
    196              halLcdSpiTxData(0xC4);
   \   0000C4                ; Setup parameters for call to function halLcdSpiTxData
   \   0000C4   79C4         MOV       R1,#-0x3c
   \   0000C6   12....       LCALL     `??halLcdSpiTxData::?relay`; Banked call to: halLcdSpiTxData
    197              halLcdSpiTxData(0x8A);
   \   0000C9                ; Setup parameters for call to function halLcdSpiTxData
   \   0000C9   798A         MOV       R1,#-0x76
   \   0000CB   12....       LCALL     `??halLcdSpiTxData::?relay`; Banked call to: halLcdSpiTxData
    198              halLcdSpiTxData(0xEE);
   \   0000CE                ; Setup parameters for call to function halLcdSpiTxData
   \   0000CE   79EE         MOV       R1,#-0x12
   \   0000D0   12....       LCALL     `??halLcdSpiTxData::?relay`; Banked call to: halLcdSpiTxData
    199              
    200              halLcdSpiTxCmd(0xC5);
   \   0000D3                ; Setup parameters for call to function halLcdSpiTxCmd
   \   0000D3   79C5         MOV       R1,#-0x3b
   \   0000D5   12....       LCALL     `??halLcdSpiTxCmd::?relay`; Banked call to: halLcdSpiTxCmd
    201              halLcdSpiTxData(0x0E); 
   \   0000D8                ; Setup parameters for call to function halLcdSpiTxData
   \   0000D8   790E         MOV       R1,#0xe
   \   0000DA   12....       LCALL     `??halLcdSpiTxData::?relay`; Banked call to: halLcdSpiTxData
    202              
    203              /* MX, MY, RGB mode */
    204              halLcdSpiTxCmd(0x36);
   \   0000DD                ; Setup parameters for call to function halLcdSpiTxCmd
   \   0000DD   7936         MOV       R1,#0x36
   \   0000DF   12....       LCALL     `??halLcdSpiTxCmd::?relay`; Banked call to: halLcdSpiTxCmd
    205              halLcdSpiTxData(0xC8); 
   \   0000E2                ; Setup parameters for call to function halLcdSpiTxData
   \   0000E2   79C8         MOV       R1,#-0x38
   \   0000E4   12....       LCALL     `??halLcdSpiTxData::?relay`; Banked call to: halLcdSpiTxData
    206              
    207              /* Gamma Sequence */
    208              halLcdSpiTxCmd(0xe0); 
   \   0000E7                ; Setup parameters for call to function halLcdSpiTxCmd
   \   0000E7   79E0         MOV       R1,#-0x20
   \   0000E9   12....       LCALL     `??halLcdSpiTxCmd::?relay`; Banked call to: halLcdSpiTxCmd
    209              halLcdSpiTxData(0x0f); 
   \   0000EC                ; Setup parameters for call to function halLcdSpiTxData
   \   0000EC   790F         MOV       R1,#0xf
   \   0000EE   12....       LCALL     `??halLcdSpiTxData::?relay`; Banked call to: halLcdSpiTxData
    210              halLcdSpiTxData(0x1a); 
   \   0000F1                ; Setup parameters for call to function halLcdSpiTxData
   \   0000F1   791A         MOV       R1,#0x1a
   \   0000F3   12....       LCALL     `??halLcdSpiTxData::?relay`; Banked call to: halLcdSpiTxData
    211              halLcdSpiTxData(0x0f); 
   \   0000F6                ; Setup parameters for call to function halLcdSpiTxData
   \   0000F6   790F         MOV       R1,#0xf
   \   0000F8   12....       LCALL     `??halLcdSpiTxData::?relay`; Banked call to: halLcdSpiTxData
    212              halLcdSpiTxData(0x18); 
   \   0000FB                ; Setup parameters for call to function halLcdSpiTxData
   \   0000FB   7918         MOV       R1,#0x18
   \   0000FD   12....       LCALL     `??halLcdSpiTxData::?relay`; Banked call to: halLcdSpiTxData
    213              halLcdSpiTxData(0x2f); 
   \   000100                ; Setup parameters for call to function halLcdSpiTxData
   \   000100   792F         MOV       R1,#0x2f
   \   000102   12....       LCALL     `??halLcdSpiTxData::?relay`; Banked call to: halLcdSpiTxData
    214              halLcdSpiTxData(0x28); 
   \   000105                ; Setup parameters for call to function halLcdSpiTxData
   \   000105   7928         MOV       R1,#0x28
   \   000107   12....       LCALL     `??halLcdSpiTxData::?relay`; Banked call to: halLcdSpiTxData
    215              halLcdSpiTxData(0x20); 
   \   00010A                ; Setup parameters for call to function halLcdSpiTxData
   \   00010A   7920         MOV       R1,#0x20
   \   00010C   12....       LCALL     `??halLcdSpiTxData::?relay`; Banked call to: halLcdSpiTxData
    216              halLcdSpiTxData(0x22); 
   \   00010F                ; Setup parameters for call to function halLcdSpiTxData
   \   00010F   7922         MOV       R1,#0x22
   \   000111   12....       LCALL     `??halLcdSpiTxData::?relay`; Banked call to: halLcdSpiTxData
    217              halLcdSpiTxData(0x1f); 
   \   000114                ; Setup parameters for call to function halLcdSpiTxData
   \   000114   791F         MOV       R1,#0x1f
   \   000116   12....       LCALL     `??halLcdSpiTxData::?relay`; Banked call to: halLcdSpiTxData
    218              halLcdSpiTxData(0x1b); 
   \   000119                ; Setup parameters for call to function halLcdSpiTxData
   \   000119   791B         MOV       R1,#0x1b
   \   00011B   12....       LCALL     `??halLcdSpiTxData::?relay`; Banked call to: halLcdSpiTxData
    219              halLcdSpiTxData(0x23);
   \   00011E                ; Setup parameters for call to function halLcdSpiTxData
   \   00011E   7923         MOV       R1,#0x23
   \   000120   12....       LCALL     `??halLcdSpiTxData::?relay`; Banked call to: halLcdSpiTxData
    220              halLcdSpiTxData(0x37); 
   \   000123                ; Setup parameters for call to function halLcdSpiTxData
   \   000123   7937         MOV       R1,#0x37
   \   000125   12....       LCALL     `??halLcdSpiTxData::?relay`; Banked call to: halLcdSpiTxData
    221              halLcdSpiTxData(0x00); 
   \   000128                ; Setup parameters for call to function halLcdSpiTxData
   \   000128   7900         MOV       R1,#0x0
   \   00012A   12....       LCALL     `??halLcdSpiTxData::?relay`; Banked call to: halLcdSpiTxData
    222              halLcdSpiTxData(0x07); 
   \   00012D                ; Setup parameters for call to function halLcdSpiTxData
   \   00012D   7907         MOV       R1,#0x7
   \   00012F   12....       LCALL     `??halLcdSpiTxData::?relay`; Banked call to: halLcdSpiTxData
    223              halLcdSpiTxData(0x02); 
   \   000132                ; Setup parameters for call to function halLcdSpiTxData
   \   000132   7902         MOV       R1,#0x2
   \   000134   12....       LCALL     `??halLcdSpiTxData::?relay`; Banked call to: halLcdSpiTxData
    224              halLcdSpiTxData(0x10);
   \   000137                ; Setup parameters for call to function halLcdSpiTxData
   \   000137   7910         MOV       R1,#0x10
   \   000139   12....       LCALL     `??halLcdSpiTxData::?relay`; Banked call to: halLcdSpiTxData
    225          
    226              halLcdSpiTxCmd(0xe1); 
   \   00013C                ; Setup parameters for call to function halLcdSpiTxCmd
   \   00013C   79E1         MOV       R1,#-0x1f
   \   00013E   12....       LCALL     `??halLcdSpiTxCmd::?relay`; Banked call to: halLcdSpiTxCmd
    227              halLcdSpiTxData(0x0f); 
   \   000141                ; Setup parameters for call to function halLcdSpiTxData
   \   000141   790F         MOV       R1,#0xf
   \   000143   12....       LCALL     `??halLcdSpiTxData::?relay`; Banked call to: halLcdSpiTxData
    228              halLcdSpiTxData(0x1b);
   \   000146                ; Setup parameters for call to function halLcdSpiTxData
   \   000146   791B         MOV       R1,#0x1b
   \   000148   12....       LCALL     `??halLcdSpiTxData::?relay`; Banked call to: halLcdSpiTxData
    229              halLcdSpiTxData(0x0f);
   \   00014B                ; Setup parameters for call to function halLcdSpiTxData
   \   00014B   790F         MOV       R1,#0xf
   \   00014D   12....       LCALL     `??halLcdSpiTxData::?relay`; Banked call to: halLcdSpiTxData
    230              halLcdSpiTxData(0x17);
   \   000150                ; Setup parameters for call to function halLcdSpiTxData
   \   000150   7917         MOV       R1,#0x17
   \   000152   12....       LCALL     `??halLcdSpiTxData::?relay`; Banked call to: halLcdSpiTxData
    231              halLcdSpiTxData(0x33);
   \   000155                ; Setup parameters for call to function halLcdSpiTxData
   \   000155   7933         MOV       R1,#0x33
   \   000157   12....       LCALL     `??halLcdSpiTxData::?relay`; Banked call to: halLcdSpiTxData
    232              halLcdSpiTxData(0x2c);
   \   00015A                ; Setup parameters for call to function halLcdSpiTxData
   \   00015A   792C         MOV       R1,#0x2c
   \   00015C   12....       LCALL     `??halLcdSpiTxData::?relay`; Banked call to: halLcdSpiTxData
    233              halLcdSpiTxData(0x29);
   \   00015F                ; Setup parameters for call to function halLcdSpiTxData
   \   00015F   7929         MOV       R1,#0x29
   \   000161   12....       LCALL     `??halLcdSpiTxData::?relay`; Banked call to: halLcdSpiTxData
    234              halLcdSpiTxData(0x2e);
   \   000164                ; Setup parameters for call to function halLcdSpiTxData
   \   000164   792E         MOV       R1,#0x2e
   \   000166   12....       LCALL     `??halLcdSpiTxData::?relay`; Banked call to: halLcdSpiTxData
    235              halLcdSpiTxData(0x30);
   \   000169                ; Setup parameters for call to function halLcdSpiTxData
   \   000169   7930         MOV       R1,#0x30
   \   00016B   12....       LCALL     `??halLcdSpiTxData::?relay`; Banked call to: halLcdSpiTxData
    236              halLcdSpiTxData(0x30);
   \   00016E                ; Setup parameters for call to function halLcdSpiTxData
   \   00016E   7930         MOV       R1,#0x30
   \   000170   12....       LCALL     `??halLcdSpiTxData::?relay`; Banked call to: halLcdSpiTxData
    237              halLcdSpiTxData(0x39);
   \   000173                ; Setup parameters for call to function halLcdSpiTxData
   \   000173   7939         MOV       R1,#0x39
   \   000175   12....       LCALL     `??halLcdSpiTxData::?relay`; Banked call to: halLcdSpiTxData
    238              halLcdSpiTxData(0x3f);
   \   000178                ; Setup parameters for call to function halLcdSpiTxData
   \   000178   793F         MOV       R1,#0x3f
   \   00017A   12....       LCALL     `??halLcdSpiTxData::?relay`; Banked call to: halLcdSpiTxData
    239              halLcdSpiTxData(0x00);
   \   00017D                ; Setup parameters for call to function halLcdSpiTxData
   \   00017D   7900         MOV       R1,#0x0
   \   00017F   12....       LCALL     `??halLcdSpiTxData::?relay`; Banked call to: halLcdSpiTxData
    240              halLcdSpiTxData(0x07);
   \   000182                ; Setup parameters for call to function halLcdSpiTxData
   \   000182   7907         MOV       R1,#0x7
   \   000184   12....       LCALL     `??halLcdSpiTxData::?relay`; Banked call to: halLcdSpiTxData
    241              halLcdSpiTxData(0x03);
   \   000187                ; Setup parameters for call to function halLcdSpiTxData
   \   000187   7903         MOV       R1,#0x3
   \   000189   12....       LCALL     `??halLcdSpiTxData::?relay`; Banked call to: halLcdSpiTxData
    242              halLcdSpiTxData(0x10);
   \   00018C                ; Setup parameters for call to function halLcdSpiTxData
   \   00018C   7910         MOV       R1,#0x10
   \   00018E   12....       LCALL     `??halLcdSpiTxData::?relay`; Banked call to: halLcdSpiTxData
    243              
    244              halLcdSpiTxCmd(0x2a);
   \   000191                ; Setup parameters for call to function halLcdSpiTxCmd
   \   000191   792A         MOV       R1,#0x2a
   \   000193   12....       LCALL     `??halLcdSpiTxCmd::?relay`; Banked call to: halLcdSpiTxCmd
    245              halLcdSpiTxData(0x00);
   \   000196                ; Setup parameters for call to function halLcdSpiTxData
   \   000196   7900         MOV       R1,#0x0
   \   000198   12....       LCALL     `??halLcdSpiTxData::?relay`; Banked call to: halLcdSpiTxData
    246              halLcdSpiTxData(0x00);
   \   00019B                ; Setup parameters for call to function halLcdSpiTxData
   \   00019B   7900         MOV       R1,#0x0
   \   00019D   12....       LCALL     `??halLcdSpiTxData::?relay`; Banked call to: halLcdSpiTxData
    247              halLcdSpiTxData(0x00);
   \   0001A0                ; Setup parameters for call to function halLcdSpiTxData
   \   0001A0   7900         MOV       R1,#0x0
   \   0001A2   12....       LCALL     `??halLcdSpiTxData::?relay`; Banked call to: halLcdSpiTxData
    248              halLcdSpiTxData(0x7f);
   \   0001A5                ; Setup parameters for call to function halLcdSpiTxData
   \   0001A5   797F         MOV       R1,#0x7f
   \   0001A7   12....       LCALL     `??halLcdSpiTxData::?relay`; Banked call to: halLcdSpiTxData
    249          
    250              halLcdSpiTxCmd(0x2b);
   \   0001AA                ; Setup parameters for call to function halLcdSpiTxCmd
   \   0001AA   792B         MOV       R1,#0x2b
   \   0001AC   12....       LCALL     `??halLcdSpiTxCmd::?relay`; Banked call to: halLcdSpiTxCmd
    251              halLcdSpiTxData(0x00);
   \   0001AF                ; Setup parameters for call to function halLcdSpiTxData
   \   0001AF   7900         MOV       R1,#0x0
   \   0001B1   12....       LCALL     `??halLcdSpiTxData::?relay`; Banked call to: halLcdSpiTxData
    252              halLcdSpiTxData(0x00);
   \   0001B4                ; Setup parameters for call to function halLcdSpiTxData
   \   0001B4   7900         MOV       R1,#0x0
   \   0001B6   12....       LCALL     `??halLcdSpiTxData::?relay`; Banked call to: halLcdSpiTxData
    253              halLcdSpiTxData(0x00);
   \   0001B9                ; Setup parameters for call to function halLcdSpiTxData
   \   0001B9   7900         MOV       R1,#0x0
   \   0001BB   12....       LCALL     `??halLcdSpiTxData::?relay`; Banked call to: halLcdSpiTxData
    254              halLcdSpiTxData(0x9f);
   \   0001BE                ; Setup parameters for call to function halLcdSpiTxData
   \   0001BE   799F         MOV       R1,#-0x61
   \   0001C0   12....       LCALL     `??halLcdSpiTxData::?relay`; Banked call to: halLcdSpiTxData
    255              
    256              /* Enable test command */
    257              halLcdSpiTxCmd(0xF0);  
   \   0001C3                ; Setup parameters for call to function halLcdSpiTxCmd
   \   0001C3   79F0         MOV       R1,#-0x10
   \   0001C5   12....       LCALL     `??halLcdSpiTxCmd::?relay`; Banked call to: halLcdSpiTxCmd
    258              halLcdSpiTxData(0x01); 
   \   0001C8                ; Setup parameters for call to function halLcdSpiTxData
   \   0001C8   7901         MOV       R1,#0x1
   \   0001CA   12....       LCALL     `??halLcdSpiTxData::?relay`; Banked call to: halLcdSpiTxData
    259              
    260              /* Disable ram power save mode */
    261              halLcdSpiTxCmd(0xF6);  
   \   0001CD                ; Setup parameters for call to function halLcdSpiTxCmd
   \   0001CD   79F6         MOV       R1,#-0xa
   \   0001CF   12....       LCALL     `??halLcdSpiTxCmd::?relay`; Banked call to: halLcdSpiTxCmd
    262              halLcdSpiTxData(0x00); 
   \   0001D2                ; Setup parameters for call to function halLcdSpiTxData
   \   0001D2   7900         MOV       R1,#0x0
   \   0001D4   12....       LCALL     `??halLcdSpiTxData::?relay`; Banked call to: halLcdSpiTxData
    263              
    264              /* 65k mode */
    265              halLcdSpiTxCmd(0x3A);
   \   0001D7                ; Setup parameters for call to function halLcdSpiTxCmd
   \   0001D7   793A         MOV       R1,#0x3a
   \   0001D9   12....       LCALL     `??halLcdSpiTxCmd::?relay`; Banked call to: halLcdSpiTxCmd
    266              halLcdSpiTxData(0x05); 
   \   0001DC                ; Setup parameters for call to function halLcdSpiTxData
   \   0001DC   7905         MOV       R1,#0x5
   \   0001DE   12....       LCALL     `??halLcdSpiTxData::?relay`; Banked call to: halLcdSpiTxData
    267              
    268              /* Display on */
    269              halLcdSpiTxCmd(0x29);
   \   0001E1                ; Setup parameters for call to function halLcdSpiTxCmd
   \   0001E1   7929         MOV       R1,#0x29
   \   0001E3   12....       LCALL     `??halLcdSpiTxCmd::?relay`; Banked call to: halLcdSpiTxCmd
    270          }
   \   0001E6   D083         POP       DPH
   \   0001E8   D082         POP       DPL
   \   0001EA   02....       LJMP      ?BRET
   \   0001ED                REQUIRE _A_P1
    271          #endif
    272          
    273          #if (defined LCD_TYPE) && (LCD_TYPE == LCD_IPS096_T1)
    274          static void ST7735SInit(uint8 madctl)
    275          {
    276              /* Reset TFT */
    277              halTFTReset();
    278          
    279              halLcdSpiTxCmd(0x11);
    280          	delayMs(SYSCLK_32MHZ, 120);
    281          	
    282              halLcdSpiTxCmd(0xB1);
    283          	halLcdSpiTxData(0x05);
    284          	halLcdSpiTxData(0x3C);
    285          	halLcdSpiTxData(0x3C);
    286          
    287          	halLcdSpiTxCmd(0xB2);
    288          	halLcdSpiTxData(0x05);
    289          	halLcdSpiTxData(0x3C);
    290          	halLcdSpiTxData(0x3C);
    291          
    292          	halLcdSpiTxCmd(0xB3);
    293          	halLcdSpiTxData(0x05);
    294          	halLcdSpiTxData(0x3C);
    295          	halLcdSpiTxData(0x3C);
    296          	halLcdSpiTxData(0x05);
    297          	halLcdSpiTxData(0x3C);
    298          	halLcdSpiTxData(0x3C);
    299          
    300          	halLcdSpiTxCmd(0xB4);
    301          	halLcdSpiTxData(0x03);
    302          
    303          	halLcdSpiTxCmd(0xC0);
    304          	halLcdSpiTxData(0x0E);
    305          	halLcdSpiTxData(0x0E);
    306          	halLcdSpiTxData(0x04);
    307          
    308          	halLcdSpiTxCmd(0xC1);
    309          	halLcdSpiTxData(0xC5);
    310          
    311          	halLcdSpiTxCmd(0xC2);
    312          	halLcdSpiTxData(0x0D);
    313          	halLcdSpiTxData(0x00);
    314          
    315          	halLcdSpiTxCmd(0xC3);
    316          	halLcdSpiTxData(0x8D);
    317          	halLcdSpiTxData(0x2A);
    318          
    319          	halLcdSpiTxCmd(0xC4);
    320          	halLcdSpiTxData(0x8D);
    321          	halLcdSpiTxData(0xEE);
    322          
    323          	halLcdSpiTxCmd(0xC5);
    324          	halLcdSpiTxData(0x06);
    325          
    326          	halLcdSpiTxCmd(0x36);
    327          	halLcdSpiTxData(madctl);
    328          
    329          	halLcdSpiTxCmd(0x3A);
    330          	halLcdSpiTxData(0x55);
    331          		
    332          	halLcdSpiTxCmd(0xE0);
    333          	halLcdSpiTxData(0x0B);
    334          	halLcdSpiTxData(0x17);
    335          	halLcdSpiTxData(0x0A);
    336          	halLcdSpiTxData(0x0D);
    337          	halLcdSpiTxData(0x1A);
    338          	halLcdSpiTxData(0x19);
    339          	halLcdSpiTxData(0x16);
    340          	halLcdSpiTxData(0x1D);
    341          	halLcdSpiTxData(0x21);
    342          	halLcdSpiTxData(0x26);
    343          	halLcdSpiTxData(0x37);
    344          	halLcdSpiTxData(0x3C);
    345          	halLcdSpiTxData(0x00);
    346          	halLcdSpiTxData(0x09);
    347          	halLcdSpiTxData(0x05);
    348          	halLcdSpiTxData(0x10);
    349          
    350          	halLcdSpiTxCmd(0xE1);
    351          	halLcdSpiTxData(0x0C);
    352          	halLcdSpiTxData(0x19);
    353          	halLcdSpiTxData(0x09);
    354          	halLcdSpiTxData(0x0D);
    355          	halLcdSpiTxData(0x1B);
    356          	halLcdSpiTxData(0x19);
    357          	halLcdSpiTxData(0x15);
    358          	halLcdSpiTxData(0x1D);
    359          	halLcdSpiTxData(0x21);
    360          	halLcdSpiTxData(0x26);
    361          	halLcdSpiTxData(0x39);
    362          	halLcdSpiTxData(0x3E);
    363          	halLcdSpiTxData(0x00);
    364          	halLcdSpiTxData(0x09);
    365          	halLcdSpiTxData(0x05);
    366          	halLcdSpiTxData(0x10);
    367          	halLcdSpiTxCmd(0x29);
    368          }
    369          #endif
    370          
    371          #if (defined LCD_TYPE) && (LCD_TYPE == LCD_TFT096)

   \                                 In  segment BANKED_CODE, align 1, keep-with-next
    372          static void halTFTSetRegion(uint16 xs, uint16 ys, uint16 xe, uint16 ye)
   \                     halTFTSetRegion:
    373          {
   \   000000                REQUIRE ?V0
   \   000000                REQUIRE ?V1
   \   000000   74F6         MOV       A,#-0xa
   \   000002   12....       LCALL     ?BANKED_ENTER_XDATA
   \   000005                ; Saved register size: 10
   \   000005                ; Auto size: 0
   \   000005   8A..         MOV       ?V0,R2
   \   000007   EC           MOV       A,R4
   \   000008   FE           MOV       R6,A
    374              halLcdSpiTxCmd(0x2a);
   \   000009                ; Setup parameters for call to function halLcdSpiTxCmd
   \   000009   792A         MOV       R1,#0x2a
   \   00000B   12....       LCALL     `??halLcdSpiTxCmd::?relay`; Banked call to: halLcdSpiTxCmd
    375              halLcdSpiTxData(0x00); 
   \   00000E                ; Setup parameters for call to function halLcdSpiTxData
   \   00000E   7900         MOV       R1,#0x0
   \   000010   12....       LCALL     `??halLcdSpiTxData::?relay`; Banked call to: halLcdSpiTxData
    376              halLcdSpiTxData(xs + 2); 
   \   000013                ; Setup parameters for call to function halLcdSpiTxData
   \   000013   E5..         MOV       A,?V0
   \   000015   2402         ADD       A,#0x2
   \   000017   F9           MOV       R1,A
   \   000018   12....       LCALL     `??halLcdSpiTxData::?relay`; Banked call to: halLcdSpiTxData
    377              halLcdSpiTxData(0x00); 
   \   00001B                ; Setup parameters for call to function halLcdSpiTxData
   \   00001B   7900         MOV       R1,#0x0
   \   00001D   12....       LCALL     `??halLcdSpiTxData::?relay`; Banked call to: halLcdSpiTxData
    378              halLcdSpiTxData(xe + 2);
   \   000020                ; Setup parameters for call to function halLcdSpiTxData
   \   000020   740A         MOV       A,#0xa
   \   000022   12....       LCALL     ?XSTACK_DISP0_8
   \   000025   E0           MOVX      A,@DPTR
   \   000026   2402         ADD       A,#0x2
   \   000028   F9           MOV       R1,A
   \   000029   12....       LCALL     `??halLcdSpiTxData::?relay`; Banked call to: halLcdSpiTxData
    379          
    380              halLcdSpiTxCmd(0x2b);
   \   00002C                ; Setup parameters for call to function halLcdSpiTxCmd
   \   00002C   792B         MOV       R1,#0x2b
   \   00002E   12....       LCALL     `??halLcdSpiTxCmd::?relay`; Banked call to: halLcdSpiTxCmd
    381              halLcdSpiTxData(0x00); 
   \   000031                ; Setup parameters for call to function halLcdSpiTxData
   \   000031   7900         MOV       R1,#0x0
   \   000033   12....       LCALL     `??halLcdSpiTxData::?relay`; Banked call to: halLcdSpiTxData
    382              halLcdSpiTxData(ys + 3); 
   \   000036                ; Setup parameters for call to function halLcdSpiTxData
   \   000036   EE           MOV       A,R6
   \   000037   2403         ADD       A,#0x3
   \   000039   F9           MOV       R1,A
   \   00003A   12....       LCALL     `??halLcdSpiTxData::?relay`; Banked call to: halLcdSpiTxData
    383              halLcdSpiTxData(0x00); 
   \   00003D                ; Setup parameters for call to function halLcdSpiTxData
   \   00003D   7900         MOV       R1,#0x0
   \   00003F   12....       LCALL     `??halLcdSpiTxData::?relay`; Banked call to: halLcdSpiTxData
    384              halLcdSpiTxData(ye + 3);
   \   000042                ; Setup parameters for call to function halLcdSpiTxData
   \   000042   740C         MOV       A,#0xc
   \   000044   12....       LCALL     ?XSTACK_DISP0_8
   \   000047   E0           MOVX      A,@DPTR
   \   000048   2403         ADD       A,#0x3
   \   00004A   F9           MOV       R1,A
   \   00004B   12....       LCALL     `??halLcdSpiTxData::?relay`; Banked call to: halLcdSpiTxData
    385              
    386              halLcdSpiTxCmd(0x2c);
   \   00004E                ; Setup parameters for call to function halLcdSpiTxCmd
   \   00004E   792C         MOV       R1,#0x2c
   \   000050   12....       LCALL     `??halLcdSpiTxCmd::?relay`; Banked call to: halLcdSpiTxCmd
    387          }
   \   000053                REQUIRE ?Subroutine0
   \   000053                ; // Fall through to label ?Subroutine0
    388          #endif
    389          
    390          #if (defined LCD_TYPE) && (LCD_TYPE == LCD_IPS096_T1)
    391          static void halTFTSetRegion(uint8 madctl, uint16 xs, uint16 ys, uint16 xe, uint16 ye)
    392          {
    393              if (madctl == ST7735S_MADCTL_RGB) {
    394          		halLcdSpiTxCmd(0x2a);
    395          		HAL_TFT_WRITE_UINT16(xs+24);
    396          		HAL_TFT_WRITE_UINT16(xe+24);
    397          		halLcdSpiTxCmd(0x2b);
    398          		HAL_TFT_WRITE_UINT16(ys);
    399          		HAL_TFT_WRITE_UINT16(ye);
    400          		halLcdSpiTxCmd(0x2c);
    401          	}
    402          	else if (madctl == ST7735S_MADCTL_MY_MX_RGB) {
    403          		halLcdSpiTxCmd(0x2a);
    404          		HAL_TFT_WRITE_UINT16(xs+24);
    405          		HAL_TFT_WRITE_UINT16(xe+24);
    406          		halLcdSpiTxCmd(0x2b);
    407          		HAL_TFT_WRITE_UINT16(ys);
    408          		HAL_TFT_WRITE_UINT16(ye);
    409          		halLcdSpiTxCmd(0x2c);
    410          	}
    411          	else if(madctl == ST7735S_MADCTL_MX_MV_ML_RGB) {
    412          		halLcdSpiTxCmd(0x2a);
    413          		HAL_TFT_WRITE_UINT16(xs);
    414          		HAL_TFT_WRITE_UINT16(xe);
    415          		halLcdSpiTxCmd(0x2b);
    416          		HAL_TFT_WRITE_UINT16(ys+24);
    417          		HAL_TFT_WRITE_UINT16(ye+24);
    418          		halLcdSpiTxCmd(0x2c);
    419          	}
    420              else {
    421          		halLcdSpiTxCmd(0x2a);
    422          		HAL_TFT_WRITE_UINT16(xs);
    423          		HAL_TFT_WRITE_UINT16(xe);
    424          		halLcdSpiTxCmd(0x2b);
    425          		HAL_TFT_WRITE_UINT16(ys+24);
    426          		HAL_TFT_WRITE_UINT16(ye+24);
    427          		halLcdSpiTxCmd(0x2c);
    428          	}
    429          }
    430          #endif
    431          
    432          static void halTFTSetPosition(uint16 x, uint16 y)
    433          {
    434              HAL_TFT_SET_REGION(x, y, x, y);
    435          }
    436          

   \                                 In  segment BANKED_CODE, align 1, keep-with-next
    437          static void halTFTDrawPixel(uint16 xs, uint16 ys, uint16 color)
   \                     halTFTDrawPixel:
    438          {
   \   000000                REQUIRE ?V0
   \   000000                REQUIRE ?V1
   \   000000   74F6         MOV       A,#-0xa
   \   000002   12....       LCALL     ?BANKED_ENTER_XDATA
   \   000005                ; Saved register size: 10
   \   000005                ; Auto size: 0
    439              HAL_TFT_SET_REGION(xs, ys, xs+1, ys+1);
   \   000005                ; Setup parameters for call to function halTFTSetRegion
   \   000005   EC           MOV       A,R4
   \   000006   2401         ADD       A,#0x1
   \   000008   F5..         MOV       ?V0,A
   \   00000A   E4           CLR       A
   \   00000B   3D           ADDC      A,R5
   \   00000C   F5..         MOV       ?V1,A
   \   00000E   78..         MOV       R0,#?V0
   \   000010   12....       LCALL     ?PUSH_XSTACK_I_TWO
   \   000013   EA           MOV       A,R2
   \   000014   2401         ADD       A,#0x1
   \   000016   F5..         MOV       ?V0,A
   \   000018   E4           CLR       A
   \   000019   3B           ADDC      A,R3
   \   00001A   F5..         MOV       ?V1,A
   \   00001C   78..         MOV       R0,#?V0
   \   00001E   12....       LCALL     ?PUSH_XSTACK_I_TWO
   \   000021   12....       LCALL     `??halTFTSetRegion::?relay`; Banked call to: halTFTSetRegion
   \   000024   7404         MOV       A,#0x4
   \   000026   12....       LCALL     ?DEALLOC_XSTACK8
   \   000029   740A         MOV       A,#0xa
   \   00002B   12....       LCALL     ?XSTACK_DISP0_8
   \   00002E   E0           MOVX      A,@DPTR
   \   00002F   FE           MOV       R6,A
   \   000030   A3           INC       DPTR
   \   000031   E0           MOVX      A,@DPTR
    440              HAL_TFT_WRITE_UINT16(color);
   \   000032                ; Setup parameters for call to function halLcdSpiTxData
   \   000032   F9           MOV       R1,A
   \   000033   12....       LCALL     `??halLcdSpiTxData::?relay`; Banked call to: halLcdSpiTxData
   \   000036                ; Setup parameters for call to function halLcdSpiTxData
   \   000036   EE           MOV       A,R6
   \   000037   F9           MOV       R1,A
   \   000038   12....       LCALL     `??halLcdSpiTxData::?relay`; Banked call to: halLcdSpiTxData
    441          }
   \   00003B   80..         SJMP      ?Subroutine0
    442          

   \                                 In  segment BANKED_CODE, align 1, keep-with-next
    443          static void halTFTShowChar8x16(uint16 x, uint16 y, uint16 fontColor, uint16 backgroundColor, uint8 ch)
   \                     halTFTShowChar8x16:
    444          {
   \   000000                REQUIRE ?V0
   \   000000                REQUIRE ?V1
   \   000000                REQUIRE ?V2
   \   000000                REQUIRE ?V3
   \   000000                REQUIRE ?V4
   \   000000                REQUIRE ?V5
   \   000000                REQUIRE ?V6
   \   000000                REQUIRE ?V7
   \   000000                REQUIRE ?V8
   \   000000                REQUIRE ?V10
   \   000000                REQUIRE ?V11
   \   000000                REQUIRE ?V12
   \   000000                REQUIRE ?V13
   \   000000                REQUIRE ?V14
   \   000000                REQUIRE ?V15
   \   000000   74E8         MOV       A,#-0x18
   \   000002   12....       LCALL     ?BANKED_ENTER_XDATA
   \   000005                ; Saved register size: 24
   \   000005                ; Auto size: 2
   \   000005   74FE         MOV       A,#-0x2
   \   000007   12....       LCALL     ?ALLOC_XSTACK8
   \   00000A   85..82       MOV       DPL,?XSP + 0
   \   00000D   85..83       MOV       DPH,?XSP + 1
   \   000010   EA           MOV       A,R2
   \   000011   F0           MOVX      @DPTR,A
   \   000012   A3           INC       DPTR
   \   000013   EB           MOV       A,R3
   \   000014   F0           MOVX      @DPTR,A
   \   000015   8C..         MOV       ?V14,R4
   \   000017   8D..         MOV       ?V15,R5
    445              uint16 charIndex;
    446              
    447              /* index of font table, height: 16 */
    448              if(ch > 32) charIndex = (ch - 32) * 16;
   \   000019   E9           MOV       A,R1
   \   00001A   C3           CLR       C
   \   00001B   9421         SUBB      A,#0x21
   \   00001D   4019         JC        ??halTFTShowChar8x16_0
   \   00001F   E9           MOV       A,R1
   \   000020   24E0         ADD       A,#-0x20
   \   000022   F5..         MOV       ?V0,A
   \   000024   E4           CLR       A
   \   000025   34FF         ADDC      A,#-0x1
   \   000027   F5..         MOV       ?V1,A
   \   000029   7404         MOV       A,#0x4
   \   00002B   78..         MOV       R0,#?V0
   \   00002D   12....       LCALL     ?S_SHL
   \   000030   85....       MOV       ?V12,?V0
   \   000033   85....       MOV       ?V13,?V1
   \   000036   8006         SJMP      ??halTFTShowChar8x16_1
    449              else charIndex = 0;
   \                     ??halTFTShowChar8x16_0:
   \   000038   75..00       MOV       ?V12,#0x0
   \   00003B   75..00       MOV       ?V13,#0x0
    450              
    451              /* Show Line */
    452              for (uint8 l = 0; l < 16; l++)
   \                     ??halTFTShowChar8x16_1:
   \   00003E   75..00       MOV       ?V6,#0x0
   \   000041   741A         MOV       A,#0x1a
   \   000043   12....       LCALL     ?XSTACK_DISP0_8
   \   000046   E0           MOVX      A,@DPTR
   \   000047   F5..         MOV       ?V4,A
   \   000049   A3           INC       DPTR
   \   00004A   E0           MOVX      A,@DPTR
   \   00004B   F5..         MOV       ?V5,A
   \   00004D   741C         MOV       A,#0x1c
   \   00004F   12....       LCALL     ?XSTACK_DISP0_8
   \   000052   E0           MOVX      A,@DPTR
   \   000053   FE           MOV       R6,A
   \   000054   A3           INC       DPTR
   \   000055   E0           MOVX      A,@DPTR
   \   000056   FF           MOV       R7,A
    453                  /* Show Column: 8column per line */
    454                for(uint8 c = 0; c < 8; c++) {
   \                     ??halTFTShowChar8x16_2:
   \   000057   75..00       MOV       ?V7,#0x0
   \   00005A   E5..         MOV       A,?V6
   \   00005C   F5..         MOV       ?V0,A
   \   00005E   E5..         MOV       A,?V14
   \   000060   25..         ADD       A,?V0
   \   000062   F5..         MOV       ?V2,A
   \   000064   E4           CLR       A
   \   000065   35..         ADDC      A,?V15
   \   000067   F5..         MOV       ?V3,A
    455                      if(HAL_TFT_FONT_TBL_8x16[charIndex + l] & (0x80 >> c)) halTFTDrawPixel(x + c, y + l, fontColor);
   \                     ??halTFTShowChar8x16_3:
   \   000069   85..82       MOV       DPL,?XSP + 0
   \   00006C   85..83       MOV       DPH,?XSP + 1
   \   00006F   A8..         MOV       R0,?V7
   \   000071   E0           MOVX      A,@DPTR
   \   000072   28           ADD       A,R0
   \   000073   FA           MOV       R2,A
   \   000074   A3           INC       DPTR
   \   000075   E0           MOVX      A,@DPTR
   \   000076   3400         ADDC      A,#0x0
   \   000078   FB           MOV       R3,A
   \   000079   75..80       MOV       ?V10,#-0x80
   \   00007C   75..00       MOV       ?V11,#0x0
   \   00007F   E8           MOV       A,R0
   \   000080   78..         MOV       R0,#?V10
   \   000082   12....       LCALL     ?SS_SHR
   \   000085   E5..         MOV       A,?V12
   \   000087   25..         ADD       A,?V0
   \   000089   F8           MOV       R0,A
   \   00008A   E4           CLR       A
   \   00008B   35..         ADDC      A,?V13
   \   00008D   F9           MOV       R1,A
   \   00008E   74..         MOV       A,#FontTable_H_8X16 & 0xff
   \   000090   28           ADD       A,R0
   \   000091   F582         MOV       DPL,A
   \   000093   74..         MOV       A,#(FontTable_H_8X16 >> 8) & 0xff
   \   000095   39           ADDC      A,R1
   \   000096   F583         MOV       DPH,A
   \   000098   E0           MOVX      A,@DPTR
   \   000099   55..         ANL       A,?V10
   \   00009B   6007         JZ        ??halTFTShowChar8x16_4
   \   00009D                ; Setup parameters for call to function halTFTDrawPixel
   \   00009D   78..         MOV       R0,#?V4
   \   00009F   12....       LCALL     ?PUSH_XSTACK_I_TWO
   \   0000A2   8009         SJMP      ??halTFTShowChar8x16_5
    456                      else halTFTDrawPixel(x + c, y + l, backgroundColor);
   \                     ??halTFTShowChar8x16_4:
   \   0000A4                ; Setup parameters for call to function halTFTDrawPixel
   \   0000A4   8E..         MOV       ?V10,R6
   \   0000A6   8F..         MOV       ?V11,R7
   \   0000A8   78..         MOV       R0,#?V10
   \   0000AA   12....       LCALL     ?PUSH_XSTACK_I_TWO
   \                     ??halTFTShowChar8x16_5:
   \   0000AD   AC..         MOV       R4,?V2
   \   0000AF   AD..         MOV       R5,?V3
   \   0000B1   12....       LCALL     `??halTFTDrawPixel::?relay`; Banked call to: halTFTDrawPixel
   \   0000B4   7402         MOV       A,#0x2
   \   0000B6   12....       LCALL     ?DEALLOC_XSTACK8
    457                }
   \   0000B9   05..         INC       ?V7
   \   0000BB   E5..         MOV       A,?V7
   \   0000BD   C3           CLR       C
   \   0000BE   9408         SUBB      A,#0x8
   \   0000C0   40A7         JC        ??halTFTShowChar8x16_3
   \   0000C2   05..         INC       ?V6
   \   0000C4   E5..         MOV       A,?V6
   \   0000C6   C3           CLR       C
   \   0000C7   9410         SUBB      A,#0x10
   \   0000C9   408C         JC        ??halTFTShowChar8x16_2
    458          }
   \   0000CB                REQUIRE ?Subroutine2
   \   0000CB                ; // Fall through to label ?Subroutine2

   \                                 In  segment BANKED_CODE, align 1, keep-with-next
   \                     ?Subroutine2:
   \   000000   7402         MOV       A,#0x2
   \   000002   12....       LCALL     ?DEALLOC_XSTACK8
   \   000005   7F10         MOV       R7,#0x10
   \   000007   02....       LJMP      ?BANKED_LEAVE_XDATA
    459          

   \                                 In  segment BANKED_CODE, align 1, keep-with-next
    460          static void halTFTShowChineseChar16x16(uint16 x, uint16 y, uint16 fontColor, uint16 backgroundColor, uint8 chL, uint8 chR)
   \                     halTFTShowChineseChar16x16:
    461          {
   \   000000                REQUIRE ?V0
   \   000000                REQUIRE ?V1
   \   000000                REQUIRE ?V2
   \   000000                REQUIRE ?V3
   \   000000                REQUIRE ?V4
   \   000000                REQUIRE ?V5
   \   000000                REQUIRE ?V6
   \   000000                REQUIRE ?V7
   \   000000                REQUIRE ?V8
   \   000000                REQUIRE ?V10
   \   000000                REQUIRE ?V11
   \   000000                REQUIRE ?V12
   \   000000                REQUIRE ?V13
   \   000000                REQUIRE ?V14
   \   000000                REQUIRE ?V15
   \   000000   74E8         MOV       A,#-0x18
   \   000002   12....       LCALL     ?BANKED_ENTER_XDATA
   \   000005                ; Saved register size: 24
   \   000005                ; Auto size: 2
   \   000005   74FE         MOV       A,#-0x2
   \   000007   12....       LCALL     ?ALLOC_XSTACK8
   \   00000A   85..82       MOV       DPL,?XSP + 0
   \   00000D   85..83       MOV       DPH,?XSP + 1
   \   000010   EC           MOV       A,R4
   \   000011   F0           MOVX      @DPTR,A
   \   000012   A3           INC       DPTR
   \   000013   ED           MOV       A,R5
   \   000014   F0           MOVX      @DPTR,A
   \   000015   8A..         MOV       ?V12,R2
   \   000017   8B..         MOV       ?V13,R3
   \   000019   89..         MOV       ?V8,R1
    462              for (uint16 i = 0; i < HAL_TFT_FONT_TBL_CHINESE_SIZE; i++) {
   \   00001B   7800         MOV       R0,#0x0
   \   00001D   7900         MOV       R1,#0x0
   \   00001F   741E         MOV       A,#0x1e
   \   000021   12....       LCALL     ?XSTACK_DISP0_8
   \   000024   E0           MOVX      A,@DPTR
   \   000025   FC           MOV       R4,A
    463                  if (HAL_TFT_FONT_TBL_CHINESE_16x16[i].Char16x16[0] != chL || HAL_TFT_FONT_TBL_CHINESE_16x16[i].Char16x16[1] != chR) continue;
   \                     ??halTFTShowChineseChar16x16_0:
   \   000026   E8           MOV       A,R0
   \   000027   FA           MOV       R2,A
   \   000028   E9           MOV       A,R1
   \   000029   FB           MOV       R3,A
   \   00002A   EA           MOV       A,R2
   \   00002B   75F022       MOV       B,#0x22
   \   00002E   A4           MUL       AB
   \   00002F   FA           MOV       R2,A
   \   000030   ADF0         MOV       R5,B
   \   000032   75F022       MOV       B,#0x22
   \   000035   EB           MOV       A,R3
   \   000036   A4           MUL       AB
   \   000037   2D           ADD       A,R5
   \   000038   FB           MOV       R3,A
   \   000039   74..         MOV       A,#FontTable_Chinese_H_16X16 & 0xff
   \   00003B   2A           ADD       A,R2
   \   00003C   F5..         MOV       ?V6,A
   \   00003E   74..         MOV       A,#(FontTable_Chinese_H_16X16 >> 8) & 0xff
   \   000040   3B           ADDC      A,R3
   \   000041   F5..         MOV       ?V7,A
   \   000043   85..82       MOV       DPL,?V6
   \   000046   F583         MOV       DPH,A
   \   000048   E0           MOVX      A,@DPTR
   \   000049   65..         XRL       A,?V8
   \   00004B   7005         JNZ       ??halTFTShowChineseChar16x16_1
   \   00004D   A3           INC       DPTR
   \   00004E   E0           MOVX      A,@DPTR
   \   00004F   6C           XRL       A,R4
   \   000050   6012         JZ        ??halTFTShowChineseChar16x16_2
   \                     ??halTFTShowChineseChar16x16_1:
   \   000052   08           INC       R0
   \   000053   E8           MOV       A,R0
   \   000054   7001         JNZ       ??halTFTShowChineseChar16x16_3
   \   000056   09           INC       R1
   \                     ??halTFTShowChineseChar16x16_3:
   \   000057   C3           CLR       C
   \   000058   9404         SUBB      A,#0x4
   \   00005A   E9           MOV       A,R1
   \   00005B   9400         SUBB      A,#0x0
   \   00005D   4003         JC        $+5
   \   00005F   02....       LJMP      ??halTFTShowChineseChar16x16_4 & 0xFFFF
   \   000062   80C2         SJMP      ??halTFTShowChineseChar16x16_0
    464                  
    465                  /* Show Line */
    466                  for (uint8 l = 0; l < 16; l++) {
   \                     ??halTFTShowChineseChar16x16_2:
   \   000064   75..00       MOV       ?V4,#0x0
   \   000067   741A         MOV       A,#0x1a
   \   000069   12....       LCALL     ?XSTACK_DISP0_8
   \   00006C   E0           MOVX      A,@DPTR
   \   00006D   F5..         MOV       ?V2,A
   \   00006F   A3           INC       DPTR
   \   000070   E0           MOVX      A,@DPTR
   \   000071   F5..         MOV       ?V3,A
   \   000073   741C         MOV       A,#0x1c
   \   000075   12....       LCALL     ?XSTACK_DISP0_8
   \   000078   E0           MOVX      A,@DPTR
   \   000079   F5..         MOV       ?V0,A
   \   00007B   A3           INC       DPTR
   \   00007C   E0           MOVX      A,@DPTR
   \   00007D   F5..         MOV       ?V1,A
    467                      /* Show Column: 16column per line */
    468                      // First 8column
    469                      for (uint8 c1 = 0; c1 < 8; c1++) {
   \                     ??halTFTShowChineseChar16x16_5:
   \   00007F   75..00       MOV       ?V5,#0x0
   \   000082   A8..         MOV       R0,?V4
   \   000084   E8           MOV       A,R0
   \   000085   28           ADD       A,R0
   \   000086   F8           MOV       R0,A
   \   000087   E4           CLR       A
   \   000088   33           RLC       A
   \   000089   F9           MOV       R1,A
   \   00008A   E5..         MOV       A,?V6
   \   00008C   28           ADD       A,R0
   \   00008D   F5..         MOV       ?V14,A
   \   00008F   E5..         MOV       A,?V7
   \   000091   39           ADDC      A,R1
   \   000092   F5..         MOV       ?V15,A
   \   000094   85..82       MOV       DPL,?XSP + 0
   \   000097   85..83       MOV       DPH,?XSP + 1
   \   00009A   A8..         MOV       R0,?V4
   \   00009C   E0           MOVX      A,@DPTR
   \   00009D   28           ADD       A,R0
   \   00009E   FE           MOV       R6,A
   \   00009F   A3           INC       DPTR
   \   0000A0   E0           MOVX      A,@DPTR
   \   0000A1   3400         ADDC      A,#0x0
   \   0000A3   FF           MOV       R7,A
    470                          if(HAL_TFT_FONT_TBL_CHINESE_16x16[i].code[l*2] & (0x80>>c1))
   \                     ??halTFTShowChineseChar16x16_6:
   \   0000A4   A8..         MOV       R0,?V5
   \   0000A6   E5..         MOV       A,?V12
   \   0000A8   28           ADD       A,R0
   \   0000A9   FA           MOV       R2,A
   \   0000AA   E4           CLR       A
   \   0000AB   35..         ADDC      A,?V13
   \   0000AD   FB           MOV       R3,A
   \   0000AE   75..80       MOV       ?V10,#-0x80
   \   0000B1   75..00       MOV       ?V11,#0x0
   \   0000B4   E8           MOV       A,R0
   \   0000B5   78..         MOV       R0,#?V10
   \   0000B7   12....       LCALL     ?SS_SHR
   \   0000BA   85..82       MOV       DPL,?V14
   \   0000BD   85..83       MOV       DPH,?V15
   \   0000C0   A3           INC       DPTR
   \   0000C1   A3           INC       DPTR
   \   0000C2   E0           MOVX      A,@DPTR
   \   0000C3   55..         ANL       A,?V10
   \   0000C5   6007         JZ        ??halTFTShowChineseChar16x16_7
    471                              halTFTDrawPixel(x + c1, y + l, fontColor);
   \   0000C7                ; Setup parameters for call to function halTFTDrawPixel
   \   0000C7   78..         MOV       R0,#?V2
   \   0000C9   12....       LCALL     ?PUSH_XSTACK_I_TWO
   \   0000CC   8005         SJMP      ??halTFTShowChineseChar16x16_8
    472                          else
    473                              halTFTDrawPixel(x + c1, y + l, backgroundColor);
   \                     ??halTFTShowChineseChar16x16_7:
   \   0000CE                ; Setup parameters for call to function halTFTDrawPixel
   \   0000CE   78..         MOV       R0,#?V0
   \   0000D0   12....       LCALL     ?PUSH_XSTACK_I_TWO
   \                     ??halTFTShowChineseChar16x16_8:
   \   0000D3   EE           MOV       A,R6
   \   0000D4   FC           MOV       R4,A
   \   0000D5   EF           MOV       A,R7
   \   0000D6   FD           MOV       R5,A
   \   0000D7   12....       LCALL     `??halTFTDrawPixel::?relay`; Banked call to: halTFTDrawPixel
   \   0000DA   7402         MOV       A,#0x2
   \   0000DC   12....       LCALL     ?DEALLOC_XSTACK8
    474                      }
   \   0000DF   05..         INC       ?V5
   \   0000E1   E5..         MOV       A,?V5
   \   0000E3   C3           CLR       C
   \   0000E4   9408         SUBB      A,#0x8
   \   0000E6   40BC         JC        ??halTFTShowChineseChar16x16_6
    475                      // Last 8column
    476                      for (uint8 c2 = 0; c2 < 8; c2++) {
   \   0000E8   75..00       MOV       ?V5,#0x0
    477                          if(HAL_TFT_FONT_TBL_CHINESE_16x16[i].code[l*2+1] & (0x80>>c2))
   \                     ??halTFTShowChineseChar16x16_9:
   \   0000EB   A8..         MOV       R0,?V5
   \   0000ED   E5..         MOV       A,?V12
   \   0000EF   28           ADD       A,R0
   \   0000F0   F8           MOV       R0,A
   \   0000F1   E4           CLR       A
   \   0000F2   35..         ADDC      A,?V13
   \   0000F4   F9           MOV       R1,A
   \   0000F5   E8           MOV       A,R0
   \   0000F6   2408         ADD       A,#0x8
   \   0000F8   FA           MOV       R2,A
   \   0000F9   E4           CLR       A
   \   0000FA   39           ADDC      A,R1
   \   0000FB   FB           MOV       R3,A
   \   0000FC   75..80       MOV       ?V10,#-0x80
   \   0000FF   75..00       MOV       ?V11,#0x0
   \   000102   E5..         MOV       A,?V5
   \   000104   78..         MOV       R0,#?V10
   \   000106   12....       LCALL     ?SS_SHR
   \   000109   85..82       MOV       DPL,?V14
   \   00010C   85..83       MOV       DPH,?V15
   \   00010F   A3           INC       DPTR
   \   000110   A3           INC       DPTR
   \   000111   A3           INC       DPTR
   \   000112   E0           MOVX      A,@DPTR
   \   000113   55..         ANL       A,?V10
   \   000115   6007         JZ        ??halTFTShowChineseChar16x16_10
    478                              halTFTDrawPixel(x + c2 + 8, y + l, fontColor);
   \   000117                ; Setup parameters for call to function halTFTDrawPixel
   \   000117   78..         MOV       R0,#?V2
   \   000119   12....       LCALL     ?PUSH_XSTACK_I_TWO
   \   00011C   8005         SJMP      ??halTFTShowChineseChar16x16_11
    479                          else
    480                              halTFTDrawPixel(x + c2 + 8, y + l, backgroundColor);
   \                     ??halTFTShowChineseChar16x16_10:
   \   00011E                ; Setup parameters for call to function halTFTDrawPixel
   \   00011E   78..         MOV       R0,#?V0
   \   000120   12....       LCALL     ?PUSH_XSTACK_I_TWO
   \                     ??halTFTShowChineseChar16x16_11:
   \   000123   EE           MOV       A,R6
   \   000124   FC           MOV       R4,A
   \   000125   EF           MOV       A,R7
   \   000126   FD           MOV       R5,A
   \   000127   12....       LCALL     `??halTFTDrawPixel::?relay`; Banked call to: halTFTDrawPixel
   \   00012A   7402         MOV       A,#0x2
   \   00012C   12....       LCALL     ?DEALLOC_XSTACK8
    481                      }
   \   00012F   05..         INC       ?V5
   \   000131   E5..         MOV       A,?V5
   \   000133   C3           CLR       C
   \   000134   9408         SUBB      A,#0x8
   \   000136   40B3         JC        ??halTFTShowChineseChar16x16_9
    482                  }
   \   000138   05..         INC       ?V4
   \   00013A   E5..         MOV       A,?V4
   \   00013C   C3           CLR       C
   \   00013D   9410         SUBB      A,#0x10
   \   00013F   5003         JNC       $+5
   \   000141   02....       LJMP      ??halTFTShowChineseChar16x16_5 & 0xFFFF
    483          
    484                  break;
    485              }
    486          }
   \                     ??halTFTShowChineseChar16x16_4:
   \   000144   02....       LJMP      ?Subroutine2 & 0xFFFF

   \                                 In  segment BANK_RELAYS, align 1
   \                     `??halTFTInit::?relay`:
   \   000000   12....       LCALL   ?BDISPATCH
   \   000003   ......       DC24    halTFTInit

   \                                 In  segment BANK_RELAYS, align 1
   \                     `??halTFTSetScreen::?relay`:
   \   000000   12....       LCALL   ?BDISPATCH
   \   000003   ......       DC24    halTFTSetScreen

   \                                 In  segment BANK_RELAYS, align 1
   \                     `??halTFTShowX16::?relay`:
   \   000000   12....       LCALL   ?BDISPATCH
   \   000003   ......       DC24    halTFTShowX16

   \                                 In  segment BANK_RELAYS, align 1
   \                     `??halTFTShowPicture::?relay`:
   \   000000   12....       LCALL   ?BDISPATCH
   \   000003   ......       DC24    halTFTShowPicture

   \                                 In  segment BANK_RELAYS, align 1
   \                     `??ST7735RInit::?relay`:
   \   000000   12....       LCALL   ?BDISPATCH
   \   000003   ......       DC24    ST7735RInit

   \                                 In  segment BANK_RELAYS, align 1
   \                     `??halTFTSetRegion::?relay`:
   \   000000   12....       LCALL   ?BDISPATCH
   \   000003   ......       DC24    halTFTSetRegion

   \                                 In  segment BANK_RELAYS, align 1
   \                     `??halTFTDrawPixel::?relay`:
   \   000000   12....       LCALL   ?BDISPATCH
   \   000003   ......       DC24    halTFTDrawPixel

   \                                 In  segment BANK_RELAYS, align 1
   \                     `??halTFTShowChar8x16::?relay`:
   \   000000   12....       LCALL   ?BDISPATCH
   \   000003   ......       DC24    halTFTShowChar8x16

   \                                 In  segment BANK_RELAYS, align 1
   \                     `??halTFTShowChineseChar16x16::?relay`:
   \   000000   12....       LCALL   ?BDISPATCH
   \   000003   ......       DC24    halTFTShowChineseChar16x16

   Maximum stack usage in bytes:

   ISTACK XSTACK Function
   ------ ------ --------
      2     10   ST7735RInit
        2      0   -> delayMs
        2      0   -> halLcdSpiTxCmd
        2      0   -> halLcdSpiTxData
      0     42   halTFTDrawPixel
        0     10   -> halLcdSpiTxData
        0     14   -> halTFTSetRegion
      0     14   halTFTInit
        0     10   -> ST7735RInit
        0     10   -> halLcdSpiInit
        0     14   -> halTFTSetRegion
        0     10   -> halTFTSetScreen
      0     32   halTFTSetRegion
        0     10   -> halLcdSpiTxCmd
        0     10   -> halLcdSpiTxData
      0     24   halTFTSetScreen
        0     10   -> halLcdSpiTxData
        0     14   -> halTFTSetRegion
      0     50   halTFTShowChar8x16
        0     28   -> halTFTDrawPixel
      0     51   halTFTShowChineseChar16x16
        0     28   -> halTFTDrawPixel
      0     24   halTFTShowPicture
        0     18   -> halLcdSpiTxData
        0     22   -> halTFTSetRegion
      0     29   halTFTShowX16
        0     22   -> halTFTShowChar8x16
        0     23   -> halTFTShowChineseChar16x16


   Segment part sizes:

   Bytes  Function/Label
   -----  --------------
       5  ?Subroutine0
       5  ?Subroutine1
      10  ?Subroutine2
      13  ?Subroutine3
     136  FontTable_Chinese_H_16X16
    1520  FontTable_H_8X16
     493  ST7735RInit
       6  ST7735RInit::?relay
       1  _A_P1
      61  halTFTDrawPixel
       6  halTFTDrawPixel::?relay
      56  halTFTInit
       6  halTFTInit::?relay
      83  halTFTSetRegion
       6  halTFTSetRegion::?relay
      72  halTFTSetScreen
       6  halTFTSetScreen::?relay
     203  halTFTShowChar8x16
       6  halTFTShowChar8x16::?relay
     327  halTFTShowChineseChar16x16
       6  halTFTShowChineseChar16x16::?relay
     184  halTFTShowPicture
       6  halTFTShowPicture::?relay
     194  halTFTShowX16
       6  halTFTShowX16::?relay

 
 1 706 bytes in segment BANKED_CODE
    54 bytes in segment BANK_RELAYS
     1 byte  in segment SFR_AN
 1 656 bytes in segment XDATA_ROM_C
 
    54 bytes of CODE     memory
 1 656 bytes of CONST    memory
     0 bytes of DATA     memory (+ 1 byte shared)
 1 706 bytes of HUGECODE memory

Errors: none
Warnings: none
