###############################################################################
#
# IAR C/C++ Compiler V10.10.1.4655 for 8051               08/Apr/2021  22:44:57
# Copyright 2004-2017 IAR Systems AB.
# Standalone license - IAR Embedded Workbench for 8051
#
#    Core               =  plain
#    Code model         =  banked
#    Data model         =  large
#    Calling convention =  xdata reentrant
#    Constant location  =  data_rom
#    Dptr setup         =  1,16
#                          
#    Source file        =  
#        E:\ZLinker 1.0.3\Z-Stack 3.0.2\Applications\zb_common.c
#    Command line       =  
#        -f C:\Users\Michael\AppData\Local\Temp\EW6819.tmp ("E:\ZLinker
#        1.0.3\Z-Stack 3.0.2\Applications\zb_common.c" -D SECURE=1 -D
#        TC_LINKKEY_JOIN -D NV_INIT -D NV_RESTORE -D xZTOOL_P1 -D xMT_TASK -D
#        xMT_APP_FUNC -D xMT_SYS_FUNC -D xMT_ZDO_FUNC -D xMT_ZDO_MGMT -D
#        xMT_APP_CNF_FUNC -D LCD_SUPPORTED=DEBUG -D MULTICAST_ENABLED=FALSE -D
#        ZCL_READ -D ZCL_DISCOVER -D ZCL_WRITE -D ZCL_BASIC -D ZCL_IDENTIFY -D
#        ZCL_ON_OFF -D ZCL_GROUPS -D ZCL_LEVEL_CTRL -D HAL_KEY=TRUE -D
#        ISR_KEYINTERRUPT -D HAL_LCD=TRUE -D ZB_CONFIG_PA_ENABLE=TRUE -D
#        TEST_RSSI=TRUE -lC "E:\ZLinker 1.0.3\Z-Stack
#        3.0.2\Projects\CC2530\Category\Coordinator\List" -lA "E:\ZLinker
#        1.0.3\Z-Stack 3.0.2\Projects\CC2530\Category\Coordinator\List"
#        --diag_suppress Pe001,Pa010 -o "E:\ZLinker 1.0.3\Z-Stack
#        3.0.2\Projects\CC2530\Category\Coordinator\Obj" -e --debug
#        --core=plain --dptr=16,1 --data_model=large --code_model=banked
#        --calling_convention=xdata_reentrant --place_constants=data_rom
#        --nr_virtual_regs 16 -f "E:\ZLinker 1.0.3\Z-Stack
#        3.0.2\Projects\CC2530\Tools\f8wCoord.cfg" (-DCPU32MHZ
#        -DROOT=__near_func -DMAC_CFG_APP_PENDING_QUEUE=TRUE
#        -DMAC_CFG_TX_DATA_MAX=5 -DMAC_CFG_TX_MAX=8 -DMAC_CFG_RX_MAX=5
#        -DZDO_COORDINATOR -DRTR_NWK) -f "E:\ZLinker 1.0.3\Z-Stack
#        3.0.2\Projects\CC2530\Tools\f8wConfig.cfg" (-DZIGBEEPRO -DSECURE=1
#        -DZG_SECURE_DYNAMIC=0 -DREFLECTOR -DDEFAULT_CHANLIST=0x00000800
#        -DZDAPP_CONFIG_PAN_ID=0xFFFF -DNWK_START_DELAY=100
#        -DEXTENDED_JOINING_RANDOM_MASK=0x007F -DBEACON_REQUEST_DELAY=100
#        -DBEACON_REQ_DELAY_MASK=0x00FF -DLINK_STATUS_JITTER_MASK=0x007F
#        -DROUTE_EXPIRY_TIME=30 -DAPSC_ACK_WAIT_DURATION_POLLED=3000
#        -DNWK_INDIRECT_MSG_TIMEOUT=7 -DMAX_RREQ_ENTRIES=8
#        -DAPSC_MAX_FRAME_RETRIES=3 -DNWK_MAX_DATA_RETRIES=2
#        -DMAX_POLL_FAILURE_RETRIES=2 -DMAX_BCAST=9 -DAPS_MAX_GROUPS=16
#        -DMAX_RTG_ENTRIES=40 -DNWK_MAX_BINDING_ENTRIES=4
#        -DMAX_BINDING_CLUSTER_IDS=4 -DDEFAULT_KEY={0} -DMAC_MAX_FRAME_SIZE=116
#        -DZDNWKMGR_MIN_TRANSMISSIONS=20 "-DCONST=const __code"
#        -DGENERIC=__generic -DRFD_RCVC_ALWAYS_ON=FALSE -DPOLL_RATE=1000
#        -DQUEUED_POLL_RATE=100 -DRESPONSE_POLL_RATE=100 -DREJOIN_POLL_RATE=440
#        -DREJOIN_BACKOFF=900000 -DREJOIN_SCAN=900000 -DENABLE_LED4_DISABLE_S1)
#        -f "E:\ZLinker 1.0.3\Z-Stack 3.0.2\Projects\CC2530\Tools\f8wZCL.cfg"
#        -I "E:\ZLinker 1.0.3\Z-Stack 3.0.2\Projects\CC2530\" -I "E:\ZLinker
#        1.0.3\Z-Stack 3.0.2\Projects\CC2530\..\..\Components\hal\include\" -I
#        "E:\ZLinker 1.0.3\Z-Stack
#        3.0.2\Projects\CC2530\..\..\Components\hal\target\CC2530EB\" -I
#        "E:\ZLinker 1.0.3\Z-Stack
#        3.0.2\Projects\CC2530\..\..\Components\hal\userspace\" -I "E:\ZLinker
#        1.0.3\Z-Stack 3.0.2\Projects\CC2530\..\..\Components\mac\include\" -I
#        "E:\ZLinker 1.0.3\Z-Stack
#        3.0.2\Projects\CC2530\..\..\Components\mac\high_level\" -I "E:\ZLinker
#        1.0.3\Z-Stack
#        3.0.2\Projects\CC2530\..\..\Components\mac\low_level\srf04\" -I
#        "E:\ZLinker 1.0.3\Z-Stack
#        3.0.2\Projects\CC2530\..\..\Components\mac\low_level\srf04\single_chip\"
#        -I "E:\ZLinker 1.0.3\Z-Stack
#        3.0.2\Projects\CC2530\..\..\Components\mt\" -I "E:\ZLinker
#        1.0.3\Z-Stack 3.0.2\Projects\CC2530\..\..\Components\osal\include\" -I
#        "E:\ZLinker 1.0.3\Z-Stack
#        3.0.2\Projects\CC2530\..\..\Components\services\saddr\" -I "E:\ZLinker
#        1.0.3\Z-Stack 3.0.2\Projects\CC2530\..\..\Components\services\sdata\"
#        -I "E:\ZLinker 1.0.3\Z-Stack
#        3.0.2\Projects\CC2530\..\..\Components\stack\af\" -I "E:\ZLinker
#        1.0.3\Z-Stack 3.0.2\Projects\CC2530\..\..\Components\stack\bdb\" -I
#        "E:\ZLinker 1.0.3\Z-Stack
#        3.0.2\Projects\CC2530\..\..\Components\stack\gp\" -I "E:\ZLinker
#        1.0.3\Z-Stack 3.0.2\Projects\CC2530\..\..\Components\stack\nwk\" -I
#        "E:\ZLinker 1.0.3\Z-Stack
#        3.0.2\Projects\CC2530\..\..\Components\stack\sapi\" -I "E:\ZLinker
#        1.0.3\Z-Stack 3.0.2\Projects\CC2530\..\..\Components\stack\sec\" -I
#        "E:\ZLinker 1.0.3\Z-Stack
#        3.0.2\Projects\CC2530\..\..\Components\stack\sys\" -I "E:\ZLinker
#        1.0.3\Z-Stack 3.0.2\Projects\CC2530\..\..\Components\stack\zcl\" -I
#        "E:\ZLinker 1.0.3\Z-Stack
#        3.0.2\Projects\CC2530\..\..\Components\stack\zdo\" -I "E:\ZLinker
#        1.0.3\Z-Stack 3.0.2\Projects\CC2530\..\..\Components\zmac\" -I
#        "E:\ZLinker 1.0.3\Z-Stack
#        3.0.2\Projects\CC2530\..\..\Components\zmac\f8w\" -I "E:\ZLinker
#        1.0.3\Z-Stack 3.0.2\Projects\CC2530\..\..\Applications\" -Ohz
#        --require_prototypes)
#    Locale             =  Chinese (Simplified)_China.936
#    List file          =  
#        E:\ZLinker 1.0.3\Z-Stack
#        3.0.2\Projects\CC2530\Category\Coordinator\List\zb_common.lst
#    Object file        =  
#        E:\ZLinker 1.0.3\Z-Stack
#        3.0.2\Projects\CC2530\Category\Coordinator\Obj\zb_common.r51
#
###############################################################################

E:\ZLinker 1.0.3\Z-Stack 3.0.2\Applications\zb_common.c
      1          #include "zb_common.h"
      2          
      3          #include <string.h>
      4          
      5          #define MAX3(a,b,c) (((a) > (b)) ? ( ((a) > (c)) ? (a) : (c) ) : ( ((b) > (c)) ? (b) : (c) ))
      6          #define MIN3(a,b,c) (((a) > (b)) ? ( ((b) > (c)) ? (c) : (b) ) : ( ((a) > (c)) ? (c) : (a) ))
      7          
      8          static void invert_to_uint8(uint8_t src_char, uint8_t *dest_char)
      9          { 
     10              uint8_t tmp = 0;
     11          
     12              uint8_t i;
     13              for (i = 0; i < 8; i++) if (src_char & (1 << i)) tmp |= 1 << (7-i);
     14          
     15              *dest_char = tmp;
     16          }  
     17          
     18          static void invert_to_uint16(uint16_t src_dat, uint16_t *dest_dat)
     19          {  
     20              uint16_t tmp = 0;
     21          
     22              uint8_t i;
     23              for (i = 0; i < 16; i++) if (src_dat & (1 << i)) tmp |= 1 << (15 - i);
     24          
     25              *dest_dat = tmp;
     26          }  
     27          

   \                                 In  segment BANKED_CODE, align 1, keep-with-next
     28          uint16_t crc16_x25(const uint8_t *buf, uint16_t buf_len)
   \                     crc16_x25:
     29          {
   \   000000                REQUIRE ?V0
   \   000000                REQUIRE ?V1
   \   000000   74F6         MOV       A,#-0xa
   \   000002   12....       LCALL     ?BANKED_ENTER_XDATA
   \   000005                ; Saved register size: 10
   \   000005                ; Auto size: 0
   \   000005   8A82         MOV       DPL,R2
   \   000007   8B83         MOV       DPH,R3
     30              uint16_t result = 0xFFFF;
   \   000009   7AFF         MOV       R2,#-0x1
   \   00000B   7BFF         MOV       R3,#-0x1
     31              uint16_t poly   = 0x1021;
     32              uint8_t  wchar  = 0;  
     33          
     34              while (buf_len--) {
   \                     ??crc16_x25_0:
   \   00000D   EC           MOV       A,R4
   \   00000E   F8           MOV       R0,A
   \   00000F   ED           MOV       A,R5
   \   000010   F9           MOV       R1,A
   \   000011   E8           MOV       A,R0
   \   000012   24FF         ADD       A,#-0x1
   \   000014   1C           DEC       R4
   \   000015   E9           MOV       A,R1
   \   000016   34FF         ADDC      A,#-0x1
   \   000018   FD           MOV       R5,A
   \   000019   E8           MOV       A,R0
   \   00001A   49           ORL       A,R1
   \   00001B   605A         JZ        ??crc16_x25_1
     35                  wchar = *(buf++);
   \   00001D   E0           MOVX      A,@DPTR
   \   00001E   FF           MOV       R7,A
   \   00001F   A3           INC       DPTR
     36                  invert_to_uint8(wchar, &wchar);
   \   000020   7900         MOV       R1,#0x0
   \   000022   7E00         MOV       R6,#0x0
   \                     ??crc16_x25_2:
   \   000024   75..01       MOV       ?V0,#0x1
   \   000027   75..00       MOV       ?V1,#0x0
   \   00002A   EE           MOV       A,R6
   \   00002B   78..         MOV       R0,#?V0
   \   00002D   12....       LCALL     ?S_SHL
   \   000030   E5..         MOV       A,?V0
   \   000032   5F           ANL       A,R7
   \   000033   6014         JZ        ??crc16_x25_3
   \   000035   75..01       MOV       ?V0,#0x1
   \   000038   75..00       MOV       ?V1,#0x0
   \   00003B   7407         MOV       A,#0x7
   \   00003D   C3           CLR       C
   \   00003E   9E           SUBB      A,R6
   \   00003F   78..         MOV       R0,#?V0
   \   000041   12....       LCALL     ?S_SHL
   \   000044   E5..         MOV       A,?V0
   \   000046   C9           XCH       A,R1
   \   000047   49           ORL       A,R1
   \   000048   F9           MOV       R1,A
   \                     ??crc16_x25_3:
   \   000049   0E           INC       R6
   \   00004A   EE           MOV       A,R6
   \   00004B   C3           CLR       C
   \   00004C   9408         SUBB      A,#0x8
   \   00004E   40D4         JC        ??crc16_x25_2
     37          
     38                  result ^= (wchar << 8);
   \   000050   E9           MOV       A,R1
   \   000051   6B           XRL       A,R3
   \   000052   FB           MOV       R3,A
     39          
     40                  uint8_t i;
     41                  for (i = 0; i < 8; i++)
   \   000053   7E08         MOV       R6,#0x8
     42                      if(result & 0x8000) result = (result << 1) ^ poly;
   \                     ??crc16_x25_4:
   \   000055   EA           MOV       A,R2
   \   000056   F8           MOV       R0,A
   \   000057   EB           MOV       A,R3
   \   000058   F9           MOV       R1,A
   \   000059   E8           MOV       A,R0
   \   00005A   28           ADD       A,R0
   \   00005B   F8           MOV       R0,A
   \   00005C   E9           MOV       A,R1
   \   00005D   33           RLC       A
   \   00005E   F9           MOV       R1,A
   \   00005F   EB           MOV       A,R3
   \   000060   5480         ANL       A,#0x80
   \   000062   6009         JZ        ??crc16_x25_5
   \   000064   E8           MOV       A,R0
   \   000065   6421         XRL       A,#0x21
   \   000067   FA           MOV       R2,A
   \   000068   E9           MOV       A,R1
   \   000069   6410         XRL       A,#0x10
   \   00006B   8003         SJMP      ??crc16_x25_6
     43                      else result = result << 1;
   \                     ??crc16_x25_5:
   \   00006D   E8           MOV       A,R0
   \   00006E   FA           MOV       R2,A
   \   00006F   E9           MOV       A,R1
   \                     ??crc16_x25_6:
   \   000070   FB           MOV       R3,A
   \   000071   1E           DEC       R6
   \   000072   EE           MOV       A,R6
   \   000073   6098         JZ        ??crc16_x25_0
   \   000075   80DE         SJMP      ??crc16_x25_4
     44              }
     45          
     46              invert_to_uint16(result, &result);
   \                     ??crc16_x25_1:
   \   000077   7C00         MOV       R4,#0x0
   \   000079   7D00         MOV       R5,#0x0
   \   00007B   7900         MOV       R1,#0x0
   \                     ??crc16_x25_7:
   \   00007D   8A..         MOV       ?V0,R2
   \   00007F   8B..         MOV       ?V1,R3
   \   000081   E9           MOV       A,R1
   \   000082   78..         MOV       R0,#?V0
   \   000084   12....       LCALL     ?US_SHR
   \   000087   E5..         MOV       A,?V0
   \   000089   A2E0         MOV       C,0xE0 /* A   */.0
   \   00008B   5017         JNC       ??crc16_x25_8
   \   00008D   75..01       MOV       ?V0,#0x1
   \   000090   75..00       MOV       ?V1,#0x0
   \   000093   740F         MOV       A,#0xf
   \   000095   C3           CLR       C
   \   000096   99           SUBB      A,R1
   \   000097   78..         MOV       R0,#?V0
   \   000099   12....       LCALL     ?S_SHL
   \   00009C   E5..         MOV       A,?V0
   \   00009E   4C           ORL       A,R4
   \   00009F   FC           MOV       R4,A
   \   0000A0   E5..         MOV       A,?V1
   \   0000A2   4D           ORL       A,R5
   \   0000A3   FD           MOV       R5,A
   \                     ??crc16_x25_8:
   \   0000A4   09           INC       R1
   \   0000A5   E9           MOV       A,R1
   \   0000A6   C3           CLR       C
   \   0000A7   9410         SUBB      A,#0x10
   \   0000A9   40D2         JC        ??crc16_x25_7
     47              return (result ^ 0xFFFF);
   \   0000AB   EC           MOV       A,R4
   \   0000AC   F4           CPL       A
   \   0000AD   FA           MOV       R2,A
   \   0000AE   ED           MOV       A,R5
   \   0000AF   F4           CPL       A
   \   0000B0   FB           MOV       R3,A
   \   0000B1                REQUIRE ?Subroutine0
   \   0000B1                ; // Fall through to label ?Subroutine0
     48          }

   \                                 In  segment BANKED_CODE, align 1, keep-with-next
   \                     ?Subroutine0:
   \   000000   7F02         MOV       R7,#0x2
   \   000002   02....       LJMP      ?BANKED_LEAVE_XDATA
     49          

   \                                 In  segment BANKED_CODE, align 1, keep-with-next
     50          uint8_t zb_generate_seqnum()
   \                     zb_generate_seqnum:
     51          {
   \   000000   C082         PUSH      DPL
   \   000002   C083         PUSH      DPH
   \   000004                ; Saved register size: 2
   \   000004                ; Auto size: 0
     52              static uint8_t seqnum_ = 0;
     53          
     54              return ++seqnum_;
   \   000004   90....       MOV       DPTR,#??seqnum_
   \   000007   E0           MOVX      A,@DPTR
   \   000008   04           INC       A
   \   000009   F0           MOVX      @DPTR,A
   \   00000A   F9           MOV       R1,A
   \   00000B   D083         POP       DPH
   \   00000D   D082         POP       DPL
   \   00000F   02....       LJMP      ?BRET
     55          }

   \                                 In  segment XDATA_Z, align 1, keep-with-next
   \                     ??seqnum_:
   \   000000                DS 1
   \   000001                REQUIRE __INIT_XDATA_Z
     56          

   \                                 In  segment BANKED_CODE, align 1, keep-with-next
     57          const char *itoa(int num)
   \                     itoa:
     58          {
   \   000000                REQUIRE ?V0
   \   000000                REQUIRE ?V1
   \   000000   74F6         MOV       A,#-0xa
   \   000002   12....       LCALL     ?BANKED_ENTER_XDATA
   \   000005                ; Saved register size: 10
   \   000005                ; Auto size: 12
   \   000005   74F4         MOV       A,#-0xc
   \   000007   12....       LCALL     ?ALLOC_XSTACK8
   \   00000A   EA           MOV       A,R2
   \   00000B   FC           MOV       R4,A
   \   00000C   EB           MOV       A,R3
   \   00000D   FD           MOV       R5,A
     59              char tmp[12];
     60              static char value[12];
     61          
     62              for (uint8_t i = 0; i < sizeof(value); i++) tmp[i] = value[i] = 0;
   \   00000E   7A00         MOV       R2,#0x0
   \                     ??itoa_0:
   \   000010   EA           MOV       A,R2
   \   000011   F8           MOV       R0,A
   \   000012   74..         MOV       A,#??value & 0xff
   \   000014   28           ADD       A,R0
   \   000015   F582         MOV       DPL,A
   \   000017   E4           CLR       A
   \   000018   34..         ADDC      A,#(??value >> 8) & 0xff
   \   00001A   F583         MOV       DPH,A
   \   00001C   E4           CLR       A
   \   00001D   F0           MOVX      @DPTR,A
   \   00001E   12....       LCALL     ?Subroutine2 & 0xFFFF
   \                     ??CrossCallReturnLabel_0:
   \   000021   E4           CLR       A
   \   000022   F0           MOVX      @DPTR,A
   \   000023   0A           INC       R2
   \   000024   EA           MOV       A,R2
   \   000025   C3           CLR       C
   \   000026   940C         SUBB      A,#0xc
   \   000028   40E6         JC        ??itoa_0
     63          
     64              uint8_t n = 0;
   \   00002A   7E00         MOV       R6,#0x0
     65          
     66              /* num == 0 */
     67              if (num == 0) { value[0] = '0'; return value; }
   \   00002C   EC           MOV       A,R4
   \   00002D   4D           ORL       A,R5
   \   00002E   7009         JNZ       ??itoa_1
   \   000030   90....       MOV       DPTR,#??value
   \   000033   7430         MOV       A,#0x30
   \   000035   F0           MOVX      @DPTR,A
   \   000036   02....       LJMP      ??itoa_2 & 0xFFFF
     68          
     69              /* num < 0 */
     70              if (num < 0) { value[n++] = '-'; num = ~num + 1; }
   \                     ??itoa_1:
   \   000039   C3           CLR       C
   \   00003A   12....       LCALL     ?Subroutine1 & 0xFFFF
   \                     ??CrossCallReturnLabel_3:
   \   00003D   5014         JNC       ??itoa_3
   \   00003F   90....       MOV       DPTR,#??value
   \   000042   742D         MOV       A,#0x2d
   \   000044   F0           MOVX      @DPTR,A
   \   000045   7E01         MOV       R6,#0x1
   \   000047   EC           MOV       A,R4
   \   000048   F4           CPL       A
   \   000049   F8           MOV       R0,A
   \   00004A   ED           MOV       A,R5
   \   00004B   F4           CPL       A
   \   00004C   F9           MOV       R1,A
   \   00004D   E8           MOV       A,R0
   \   00004E   2E           ADD       A,R6
   \   00004F   FC           MOV       R4,A
   \   000050   E4           CLR       A
   \   000051   39           ADDC      A,R1
   \   000052   FD           MOV       R5,A
     71          
     72              /* num > 0 */
     73              for (uint8_t i = 0; num > 0; i++, num /= 10) tmp[i] = num % 10 + '0';
   \                     ??itoa_3:
   \   000053   7F00         MOV       R7,#0x0
   \   000055   802C         SJMP      ??itoa_4
   \                     ??itoa_5:
   \   000057   EC           MOV       A,R4
   \   000058   F8           MOV       R0,A
   \   000059   ED           MOV       A,R5
   \   00005A   F9           MOV       R1,A
   \   00005B   7A0A         MOV       R2,#0xa
   \   00005D   7B00         MOV       R3,#0x0
   \   00005F   12....       LCALL     ?S_DIV_MOD
   \   000062   EA           MOV       A,R2
   \   000063   2430         ADD       A,#0x30
   \   000065   C0E0         PUSH      A
   \   000067   EF           MOV       A,R7
   \   000068   F8           MOV       R0,A
   \   000069   12....       LCALL     ?Subroutine2 & 0xFFFF
   \                     ??CrossCallReturnLabel_1:
   \   00006C   D0E0         POP       A
   \   00006E   F0           MOVX      @DPTR,A
   \   00006F   0F           INC       R7
   \   000070   EC           MOV       A,R4
   \   000071   F8           MOV       R0,A
   \   000072   ED           MOV       A,R5
   \   000073   F9           MOV       R1,A
   \   000074   7A0A         MOV       R2,#0xa
   \   000076   7B00         MOV       R3,#0x0
   \   000078   12....       LCALL     ?S_DIV_MOD
   \   00007B   88..         MOV       ?V0,R0
   \   00007D   89..         MOV       ?V1,R1
   \   00007F   AC..         MOV       R4,?V0
   \   000081   AD..         MOV       R5,?V1
   \                     ??itoa_4:
   \   000083   C3           CLR       C
   \   000084   EC           MOV       A,R4
   \   000085   9401         SUBB      A,#0x1
   \   000087   12....       LCALL     ?Subroutine1 & 0xFFFF
   \                     ??CrossCallReturnLabel_4:
   \   00008A   50CB         JNC       ??itoa_5
     74          
     75              for (int8_t k = strlen(tmp) - 1; k >= 0; k--) value[n++] = tmp[k];
   \   00008C                ; Setup parameters for call to function strlen
   \   00008C   AA..         MOV       R2,?XSP + 0
   \   00008E   AB..         MOV       R3,?XSP + 1
   \   000090   12....       LCALL     `??strlen::?relay`; Banked call to: strlen
   \   000093   EA           MOV       A,R2
   \   000094   14           DEC       A
   \   000095   F8           MOV       R0,A
   \   000096   802A         SJMP      ??itoa_6
   \                     ??itoa_7:
   \   000098   E8           MOV       A,R0
   \   000099   FA           MOV       R2,A
   \   00009A   33           RLC       A
   \   00009B   95E0         SUBB      A,0xE0 /* A   */
   \   00009D   FB           MOV       R3,A
   \   00009E   85..82       MOV       DPL,?XSP + 0
   \   0000A1   85..83       MOV       DPH,?XSP + 1
   \   0000A4   E582         MOV       A,DPL
   \   0000A6   2A           ADD       A,R2
   \   0000A7   F582         MOV       DPL,A
   \   0000A9   E583         MOV       A,DPH
   \   0000AB   3B           ADDC      A,R3
   \   0000AC   F583         MOV       DPH,A
   \   0000AE   E0           MOVX      A,@DPTR
   \   0000AF   C0E0         PUSH      A
   \   0000B1   EE           MOV       A,R6
   \   0000B2   FA           MOV       R2,A
   \   0000B3   74..         MOV       A,#??value & 0xff
   \   0000B5   2A           ADD       A,R2
   \   0000B6   F582         MOV       DPL,A
   \   0000B8   E4           CLR       A
   \   0000B9   34..         ADDC      A,#(??value >> 8) & 0xff
   \   0000BB   F583         MOV       DPH,A
   \   0000BD   D0E0         POP       A
   \   0000BF   F0           MOVX      @DPTR,A
   \   0000C0   0E           INC       R6
   \   0000C1   18           DEC       R0
   \                     ??itoa_6:
   \   0000C2   E8           MOV       A,R0
   \   0000C3   C3           CLR       C
   \   0000C4   12....       LCALL     ??Subroutine3_0 & 0xFFFF
   \                     ??CrossCallReturnLabel_2:
   \   0000C7   50CF         JNC       ??itoa_7
     76          
     77              return value;
   \                     ??itoa_2:
   \   0000C9   7A..         MOV       R2,#??value & 0xff
   \   0000CB   7B..         MOV       R3,#(??value >> 8) & 0xff
   \   0000CD   740C         MOV       A,#0xc
   \   0000CF   12....       LCALL     ?DEALLOC_XSTACK8
   \   0000D2   02....       LJMP      ?Subroutine0 & 0xFFFF
     78          }

   \                                 In  segment BANKED_CODE, align 1, keep-with-next
   \                     ?Subroutine2:
   \   000000   85..82       MOV       DPL,?XSP + 0
   \   000003   85..83       MOV       DPH,?XSP + 1
   \   000006   E582         MOV       A,DPL
   \   000008   28           ADD       A,R0
   \   000009   F582         MOV       DPL,A
   \   00000B   E4           CLR       A
   \   00000C   3583         ADDC      A,DPH
   \   00000E   F583         MOV       DPH,A
   \   000010   22           RET

   \                                 In  segment BANKED_CODE, align 1, keep-with-next
   \                     ?Subroutine1:
   \   000000   ED           MOV       A,R5
   \   000001                REQUIRE ??Subroutine3_0
   \   000001                ; // Fall through to label ??Subroutine3_0

   \                                 In  segment BANKED_CODE, align 1, keep-with-next
   \                     ??Subroutine3_0:
   \   000000   9400         SUBB      A,#0x0
   \   000002   A2D2         MOV       C,0xD0 /* PSW */.2
   \   000004   65D0         XRL       A,PSW
   \   000006   33           RLC       A
   \   000007   22           RET

   \                                 In  segment XDATA_Z, align 1, keep-with-next
   \                     ??value:
   \   000000                DS 12
   \   00000C                REQUIRE __INIT_XDATA_Z
     79          

   \                                 In  segment BANKED_CODE, align 1, keep-with-next
     80          const char *ftoa(double num, uint8_t decimal)
   \                     ftoa:
     81          {
   \   000000                REQUIRE ?V0
   \   000000                REQUIRE ?V1
   \   000000                REQUIRE ?V2
   \   000000                REQUIRE ?V3
   \   000000                REQUIRE ?V4
   \   000000                REQUIRE ?V5
   \   000000                REQUIRE ?V6
   \   000000                REQUIRE ?V7
   \   000000                REQUIRE ?V8
   \   000000                REQUIRE ?V9
   \   000000                REQUIRE ?V10
   \   000000                REQUIRE ?V11
   \   000000                REQUIRE ?V12
   \   000000                REQUIRE ?V13
   \   000000                REQUIRE ?V14
   \   000000                REQUIRE ?V15
   \   000000   74E8         MOV       A,#-0x18
   \   000002   12....       LCALL     ?BANKED_ENTER_XDATA
   \   000005                ; Saved register size: 24
   \   000005                ; Auto size: 0
   \   000005   8A..         MOV       ?V4,R2
   \   000007   8B..         MOV       ?V5,R3
   \   000009   8C..         MOV       ?V6,R4
   \   00000B   8D..         MOV       ?V7,R5
   \   00000D   E9           MOV       A,R1
   \   00000E   FF           MOV       R7,A
     82              static char value[16];
     83          
     84              if (decimal == 0) return itoa((int)num);
   \   00000F   8A..         MOV       ?V0,R2
   \   000011   8B..         MOV       ?V1,R3
   \   000013   8C..         MOV       ?V2,R4
   \   000015   8D..         MOV       ?V3,R5
   \   000017   78..         MOV       R0,#?V0
   \   000019   12....       LCALL     ?FLT_TO_L
   \   00001C   AA..         MOV       R2,?V0
   \   00001E   AB..         MOV       R3,?V1
   \   000020   EF           MOV       A,R7
   \   000021   7006         JNZ       ??ftoa_0
   \   000023                ; Setup parameters for call to function itoa
   \   000023   12....       LCALL     `??itoa::?relay` ; Banked call to: itoa
   \   000026   02....       LJMP      ??ftoa_1 & 0xFFFF
     85          
     86              for (uint8_t i = 0; i < sizeof(value); i++) value[i] = 0;
   \                     ??ftoa_0:
   \   000029   E4           CLR       A
   \   00002A   90....       MOV       DPTR,#??value_1
   \   00002D   7810         MOV       R0,#0x10
   \                     ??ftoa_2:
   \   00002F   F0           MOVX      @DPTR,A
   \   000030   A3           INC       DPTR
   \   000031   D8FC         DJNZ      R0,??ftoa_2
     87          
     88              uint32_t factor = 10;
   \   000033   75..0A       MOV       ?V0,#0xa
   \   000036   F5..         MOV       ?V1,A
   \   000038   F5..         MOV       ?V2,A
   \   00003A   F5..         MOV       ?V3,A
     89              for (uint8_t i = 1; i < decimal; i++) factor *= 10;
   \   00003C   7C01         MOV       R4,#0x1
   \   00003E   8010         SJMP      ??ftoa_3
   \                     ??ftoa_4:
   \   000040   90....       MOV       DPTR,#__Constant_a
   \   000043   78..         MOV       R0,#?V8
   \   000045   12....       LCALL     ?L_MOV_X
   \   000048   78..         MOV       R0,#?V0
   \   00004A   79..         MOV       R1,#?V8
   \   00004C   12....       LCALL     ?L_MUL
   \   00004F   0C           INC       R4
   \                     ??ftoa_3:
   \   000050   EC           MOV       A,R4
   \   000051   C3           CLR       C
   \   000052   9F           SUBB      A,R7
   \   000053   40EB         JC        ??ftoa_4
     90          
     91              int intval = (int)num;
   \   000055   EA           MOV       A,R2
   \   000056   FC           MOV       R4,A
   \   000057   EB           MOV       A,R3
     92              int32_t decval = (int32_t)((num - intval) * factor);
   \   000058   8C..         MOV       ?V8,R4
   \   00005A   F5..         MOV       ?V9,A
   \   00005C   33           RLC       A
   \   00005D   95E0         SUBB      A,0xE0 /* A   */
   \   00005F   F5..         MOV       ?V10,A
   \   000061   F5..         MOV       ?V11,A
   \   000063   78..         MOV       R0,#?V8
   \   000065   12....       LCALL     ?L_TO_FLT
   \   000068   78..         MOV       R0,#?V4
   \   00006A   79..         MOV       R1,#?V8
   \   00006C   12....       LCALL     ?FLT_SUB
   \   00006F   85....       MOV       ?V8,?V0
   \   000072   85....       MOV       ?V9,?V1
   \   000075   85....       MOV       ?V10,?V2
   \   000078   85....       MOV       ?V11,?V3
   \   00007B   78..         MOV       R0,#?V8
   \   00007D   12....       LCALL     ?UL_TO_FLT
   \   000080   78..         MOV       R0,#?V4
   \   000082   79..         MOV       R1,#?V8
   \   000084   12....       LCALL     ?FLT_MUL
   \   000087   78..         MOV       R0,#?V4
   \   000089   12....       LCALL     ?FLT_TO_L
   \   00008C   85....       MOV       ?V8,?V4
   \   00008F   85....       MOV       ?V9,?V5
   \   000092   85....       MOV       ?V10,?V6
   \   000095   85....       MOV       ?V11,?V7
     93          
     94              if (decval < 0) decval = ~decval + 1;
   \   000098   90....       MOV       DPTR,#__Constant_0
   \   00009B   78..         MOV       R0,#?V8
   \   00009D   12....       LCALL     ?SL_GE_X
   \   0000A0   400D         JC        ??ftoa_5
   \   0000A2   78..         MOV       R0,#?V8
   \   0000A4   12....       LCALL     ?L_NOT
   \   0000A7   90....       MOV       DPTR,#__Constant_1
   \   0000AA   78..         MOV       R0,#?V8
   \   0000AC   12....       LCALL     ?L_ADD_X
     95          
     96              decval %= factor;
   \                     ??ftoa_5:
   \   0000AF   85....       MOV       ?V4,?V8
   \   0000B2   85....       MOV       ?V5,?V9
   \   0000B5   85....       MOV       ?V6,?V10
   \   0000B8   85....       MOV       ?V7,?V11
   \   0000BB   85....       MOV       ?V8,?V0
   \   0000BE   85....       MOV       ?V9,?V1
   \   0000C1   85....       MOV       ?V10,?V2
   \   0000C4   85....       MOV       ?V11,?V3
   \   0000C7   78..         MOV       R0,#?V4
   \   0000C9   79..         MOV       R1,#?V8
   \   0000CB   12....       LCALL     ?UL_DIV_MOD
     97          
     98              strcpy(value, itoa(intval));
   \   0000CE                ; Setup parameters for call to function itoa
   \   0000CE   12....       LCALL     `??itoa::?relay` ; Banked call to: itoa
   \   0000D1   8A..         MOV       ?V4,R2
   \   0000D3   8B..         MOV       ?V5,R3
   \   0000D5   AC..         MOV       R4,?V4
   \   0000D7   AD..         MOV       R5,?V5
   \   0000D9                ; Setup parameters for call to function strcpy
   \   0000D9   7A..         MOV       R2,#??value_1 & 0xff
   \   0000DB   7B..         MOV       R3,#(??value_1 >> 8) & 0xff
   \   0000DD   12....       LCALL     `??strcpy::?relay`; Banked call to: strcpy
     99              value[strlen(value)] = '.';
   \   0000E0                ; Setup parameters for call to function strlen
   \   0000E0   12....       LCALL     `??strlen::?relay`; Banked call to: strlen
   \   0000E3   8B..         MOV       ?V5,R3
   \   0000E5   74..         MOV       A,#??value_1 & 0xff
   \   0000E7   2A           ADD       A,R2
   \   0000E8   F582         MOV       DPL,A
   \   0000EA   74..         MOV       A,#(??value_1 >> 8) & 0xff
   \   0000EC   35..         ADDC      A,?V5
   \   0000EE   F583         MOV       DPH,A
   \   0000F0   742E         MOV       A,#0x2e
   \   0000F2   F0           MOVX      @DPTR,A
    100          
    101              for (uint8_t i = 1, n = strlen(value); i < decimal; i++) {
   \   0000F3   7E01         MOV       R6,#0x1
   \   0000F5                ; Setup parameters for call to function strlen
   \   0000F5   7A..         MOV       R2,#??value_1 & 0xff
   \   0000F7   7B..         MOV       R3,#(??value_1 >> 8) & 0xff
   \   0000F9   12....       LCALL     `??strlen::?relay`; Banked call to: strlen
   \   0000FC   EA           MOV       A,R2
   \   0000FD   FA           MOV       R2,A
   \   0000FE   8011         SJMP      ??ftoa_6
    102                  factor /= 10;
    103          
    104                  if (decval / factor != 0) break;
    105          
    106                  value[n++] = '0';
   \                     ??ftoa_7:
   \   000100   EA           MOV       A,R2
   \   000101   F8           MOV       R0,A
   \   000102   74..         MOV       A,#??value_1 & 0xff
   \   000104   28           ADD       A,R0
   \   000105   F582         MOV       DPL,A
   \   000107   E4           CLR       A
   \   000108   34..         ADDC      A,#(??value_1 >> 8) & 0xff
   \   00010A   F583         MOV       DPH,A
   \   00010C   7430         MOV       A,#0x30
   \   00010E   F0           MOVX      @DPTR,A
   \   00010F   0A           INC       R2
   \   000110   0E           INC       R6
   \                     ??ftoa_6:
   \   000111   EE           MOV       A,R6
   \   000112   C3           CLR       C
   \   000113   9F           SUBB      A,R7
   \   000114   5038         JNC       ??ftoa_8
   \   000116   90....       MOV       DPTR,#__Constant_a
   \   000119   78..         MOV       R0,#?V4
   \   00011B   12....       LCALL     ?L_MOV_X
   \   00011E   78..         MOV       R0,#?V0
   \   000120   79..         MOV       R1,#?V4
   \   000122   12....       LCALL     ?UL_DIV_MOD
   \   000125   85....       MOV       ?V12,?V0
   \   000128   85....       MOV       ?V13,?V1
   \   00012B   85....       MOV       ?V14,?V2
   \   00012E   85....       MOV       ?V15,?V3
   \   000131   85....       MOV       ?V4,?V8
   \   000134   85....       MOV       ?V5,?V9
   \   000137   85....       MOV       ?V6,?V10
   \   00013A   85....       MOV       ?V7,?V11
   \   00013D   78..         MOV       R0,#?V4
   \   00013F   79..         MOV       R1,#?V12
   \   000141   12....       LCALL     ?UL_DIV_MOD
   \   000144   E5..         MOV       A,?V4
   \   000146   45..         ORL       A,?V5
   \   000148   45..         ORL       A,?V6
   \   00014A   45..         ORL       A,?V7
   \   00014C   60B2         JZ        ??ftoa_7
    107              }
    108          
    109              strcpy(&value[strlen(value)], itoa(decval));
   \                     ??ftoa_8:
   \   00014E                ; Setup parameters for call to function itoa
   \   00014E   AA..         MOV       R2,?V8
   \   000150   AB..         MOV       R3,?V9
   \   000152   12....       LCALL     `??itoa::?relay` ; Banked call to: itoa
   \   000155   8A..         MOV       ?V0,R2
   \   000157   8B..         MOV       ?V1,R3
   \   000159                ; Setup parameters for call to function strlen
   \   000159   7A..         MOV       R2,#??value_1 & 0xff
   \   00015B   7B..         MOV       R3,#(??value_1 >> 8) & 0xff
   \   00015D   12....       LCALL     `??strlen::?relay`; Banked call to: strlen
   \   000160   8B..         MOV       ?V3,R3
   \   000162   A9..         MOV       R1,?V3
   \   000164                ; Setup parameters for call to function strcpy
   \   000164   AC..         MOV       R4,?V0
   \   000166   AD..         MOV       R5,?V1
   \   000168   74..         MOV       A,#??value_1 & 0xff
   \   00016A   2A           ADD       A,R2
   \   00016B   FA           MOV       R2,A
   \   00016C   74..         MOV       A,#(??value_1 >> 8) & 0xff
   \   00016E   39           ADDC      A,R1
   \   00016F   FB           MOV       R3,A
   \   000170   12....       LCALL     `??strcpy::?relay`; Banked call to: strcpy
    110          
    111              return value;
   \   000173   7A..         MOV       R2,#??value_1 & 0xff
   \   000175   7B..         MOV       R3,#(??value_1 >> 8) & 0xff
   \                     ??ftoa_1:
   \   000177   7F10         MOV       R7,#0x10
   \   000179   02....       LJMP      ?BANKED_LEAVE_XDATA
    112          }

   \                                 In  segment XDATA_Z, align 1, keep-with-next
   \                     ??value_1:
   \   000000                DS 16
   \   000010                REQUIRE __INIT_XDATA_Z

   \                                 In  segment XDATA_ROM_C, align 1
   \                     __Constant_a:
   \   000000   0A000000     DD 10

   \                                 In  segment XDATA_ROM_C, align 1
   \                     __Constant_0:
   \   000000   00000000     DD 0

   \                                 In  segment XDATA_ROM_C, align 1
   \                     __Constant_1:
   \   000000   01000000     DD 1

   \                                 In  segment BANK_RELAYS, align 1
   \                     `??crc16_x25::?relay`:
   \   000000   12....       LCALL   ?BDISPATCH
   \   000003   ......       DC24    crc16_x25

   \                                 In  segment BANK_RELAYS, align 1
   \                     `??zb_generate_seqnum::?relay`:
   \   000000   12....       LCALL   ?BDISPATCH
   \   000003   ......       DC24    zb_generate_seqnum

   \                                 In  segment BANK_RELAYS, align 1
   \                     `??itoa::?relay`:
   \   000000   12....       LCALL   ?BDISPATCH
   \   000003   ......       DC24    itoa

   \                                 In  segment BANK_RELAYS, align 1
   \                     `??ftoa::?relay`:
   \   000000   12....       LCALL   ?BDISPATCH
   \   000003   ......       DC24    ftoa

   Maximum stack usage in bytes:

   ISTACK XSTACK Function
   ------ ------ --------
      0     10   crc16_x25
      0     24   ftoa
        0     24   -> itoa
        0     24   -> strcpy
        0     24   -> strlen
      1     46   itoa
        0     22   -> strlen
      2      0   zb_generate_seqnum


   Segment part sizes:

   Bytes  Function/Label
   -----  --------------
       8  ??Subroutine3_0
       5  ?Subroutine0
       1  ?Subroutine1
      17  ?Subroutine2
       4  __Constant_0
       4  __Constant_1
       4  __Constant_a
     177  crc16_x25
       6  crc16_x25::?relay
     380  ftoa
       6  ftoa::?relay
     213  itoa
       6  itoa::?relay
       1  seqnum_
      12  value
      16  value
      18  zb_generate_seqnum
       6  zb_generate_seqnum::?relay

 
 819 bytes in segment BANKED_CODE
  24 bytes in segment BANK_RELAYS
  12 bytes in segment XDATA_ROM_C
  29 bytes in segment XDATA_Z
 
  24 bytes of CODE     memory
   0 bytes of CONST    memory (+ 12 bytes shared)
 819 bytes of HUGECODE memory
  29 bytes of XDATA    memory

Errors: none
Warnings: none
