###############################################################################
#
# IAR C/C++ Compiler V10.10.1.4655 for 8051               08/Apr/2021  23:34:35
# Copyright 2004-2017 IAR Systems AB.
# Standalone license - IAR Embedded Workbench for 8051
#
#    Core               =  plain
#    Code model         =  banked
#    Data model         =  large
#    Calling convention =  xdata reentrant
#    Constant location  =  data_rom
#    Dptr setup         =  1,16
#                          
#    Source file        =  
#        E:\ZLinker 1.0.3\Z-Stack 3.0.2\Applications\zb_port.c
#    Command line       =  
#        -f C:\Users\Michael\AppData\Local\Temp\EWDB3A.tmp ("E:\ZLinker
#        1.0.3\Z-Stack 3.0.2\Applications\zb_port.c" -D SECURE=1 -D
#        TC_LINKKEY_JOIN -D NV_INIT -D NV_RESTORE -D xZTOOL_P1 -D xMT_TASK -D
#        xMT_APP_FUNC -D xMT_SYS_FUNC -D xMT_ZDO_FUNC -D xMT_ZDO_MGMT -D
#        xMT_APP_CNF_FUNC -D LCD_SUPPORTED=DEBUG -D MULTICAST_ENABLED=FALSE -D
#        ZCL_READ -D ZCL_DISCOVER -D ZCL_WRITE -D ZCL_BASIC -D ZCL_IDENTIFY -D
#        ZCL_ON_OFF -D ZCL_GROUPS -D ZCL_LEVEL_CTRL -D HAL_KEY=TRUE -D
#        ISR_KEYINTERRUPT -D HAL_LCD=TRUE -D ZB_CONFIG_PA_ENABLE=TRUE -D
#        TEST_RSSI=TRUE -lC "E:\ZLinker 1.0.3\Z-Stack
#        3.0.2\Projects\CC2530\Category\Coordinator\List" -lA "E:\ZLinker
#        1.0.3\Z-Stack 3.0.2\Projects\CC2530\Category\Coordinator\List"
#        --diag_suppress Pe001,Pa010 -o "E:\ZLinker 1.0.3\Z-Stack
#        3.0.2\Projects\CC2530\Category\Coordinator\Obj" -e --debug
#        --core=plain --dptr=16,1 --data_model=large --code_model=banked
#        --calling_convention=xdata_reentrant --place_constants=data_rom
#        --nr_virtual_regs 16 -f "E:\ZLinker 1.0.3\Z-Stack
#        3.0.2\Projects\CC2530\Tools\f8wCoord.cfg" (-DCPU32MHZ
#        -DROOT=__near_func -DMAC_CFG_APP_PENDING_QUEUE=TRUE
#        -DMAC_CFG_TX_DATA_MAX=5 -DMAC_CFG_TX_MAX=8 -DMAC_CFG_RX_MAX=5
#        -DZDO_COORDINATOR -DRTR_NWK) -f "E:\ZLinker 1.0.3\Z-Stack
#        3.0.2\Projects\CC2530\Tools\f8wConfig.cfg" (-DZIGBEEPRO -DSECURE=1
#        -DZG_SECURE_DYNAMIC=0 -DREFLECTOR -DDEFAULT_CHANLIST=0x00000800
#        -DZDAPP_CONFIG_PAN_ID=0xFFFF -DNWK_START_DELAY=100
#        -DEXTENDED_JOINING_RANDOM_MASK=0x007F -DBEACON_REQUEST_DELAY=100
#        -DBEACON_REQ_DELAY_MASK=0x00FF -DLINK_STATUS_JITTER_MASK=0x007F
#        -DROUTE_EXPIRY_TIME=30 -DAPSC_ACK_WAIT_DURATION_POLLED=3000
#        -DNWK_INDIRECT_MSG_TIMEOUT=7 -DMAX_RREQ_ENTRIES=8
#        -DAPSC_MAX_FRAME_RETRIES=3 -DNWK_MAX_DATA_RETRIES=2
#        -DMAX_POLL_FAILURE_RETRIES=2 -DMAX_BCAST=9 -DAPS_MAX_GROUPS=16
#        -DMAX_RTG_ENTRIES=40 -DNWK_MAX_BINDING_ENTRIES=4
#        -DMAX_BINDING_CLUSTER_IDS=4 -DDEFAULT_KEY={0} -DMAC_MAX_FRAME_SIZE=116
#        -DZDNWKMGR_MIN_TRANSMISSIONS=20 "-DCONST=const __code"
#        -DGENERIC=__generic -DRFD_RCVC_ALWAYS_ON=FALSE -DPOLL_RATE=1000
#        -DQUEUED_POLL_RATE=100 -DRESPONSE_POLL_RATE=100 -DREJOIN_POLL_RATE=440
#        -DREJOIN_BACKOFF=900000 -DREJOIN_SCAN=900000 -DENABLE_LED4_DISABLE_S1)
#        -f "E:\ZLinker 1.0.3\Z-Stack 3.0.2\Projects\CC2530\Tools\f8wZCL.cfg"
#        -I "E:\ZLinker 1.0.3\Z-Stack 3.0.2\Projects\CC2530\" -I "E:\ZLinker
#        1.0.3\Z-Stack 3.0.2\Projects\CC2530\..\..\Components\hal\include\" -I
#        "E:\ZLinker 1.0.3\Z-Stack
#        3.0.2\Projects\CC2530\..\..\Components\hal\target\CC2530EB\" -I
#        "E:\ZLinker 1.0.3\Z-Stack
#        3.0.2\Projects\CC2530\..\..\Components\hal\userspace\" -I "E:\ZLinker
#        1.0.3\Z-Stack 3.0.2\Projects\CC2530\..\..\Components\mac\include\" -I
#        "E:\ZLinker 1.0.3\Z-Stack
#        3.0.2\Projects\CC2530\..\..\Components\mac\high_level\" -I "E:\ZLinker
#        1.0.3\Z-Stack
#        3.0.2\Projects\CC2530\..\..\Components\mac\low_level\srf04\" -I
#        "E:\ZLinker 1.0.3\Z-Stack
#        3.0.2\Projects\CC2530\..\..\Components\mac\low_level\srf04\single_chip\"
#        -I "E:\ZLinker 1.0.3\Z-Stack
#        3.0.2\Projects\CC2530\..\..\Components\mt\" -I "E:\ZLinker
#        1.0.3\Z-Stack 3.0.2\Projects\CC2530\..\..\Components\osal\include\" -I
#        "E:\ZLinker 1.0.3\Z-Stack
#        3.0.2\Projects\CC2530\..\..\Components\services\saddr\" -I "E:\ZLinker
#        1.0.3\Z-Stack 3.0.2\Projects\CC2530\..\..\Components\services\sdata\"
#        -I "E:\ZLinker 1.0.3\Z-Stack
#        3.0.2\Projects\CC2530\..\..\Components\stack\af\" -I "E:\ZLinker
#        1.0.3\Z-Stack 3.0.2\Projects\CC2530\..\..\Components\stack\bdb\" -I
#        "E:\ZLinker 1.0.3\Z-Stack
#        3.0.2\Projects\CC2530\..\..\Components\stack\gp\" -I "E:\ZLinker
#        1.0.3\Z-Stack 3.0.2\Projects\CC2530\..\..\Components\stack\nwk\" -I
#        "E:\ZLinker 1.0.3\Z-Stack
#        3.0.2\Projects\CC2530\..\..\Components\stack\sapi\" -I "E:\ZLinker
#        1.0.3\Z-Stack 3.0.2\Projects\CC2530\..\..\Components\stack\sec\" -I
#        "E:\ZLinker 1.0.3\Z-Stack
#        3.0.2\Projects\CC2530\..\..\Components\stack\sys\" -I "E:\ZLinker
#        1.0.3\Z-Stack 3.0.2\Projects\CC2530\..\..\Components\stack\zcl\" -I
#        "E:\ZLinker 1.0.3\Z-Stack
#        3.0.2\Projects\CC2530\..\..\Components\stack\zdo\" -I "E:\ZLinker
#        1.0.3\Z-Stack 3.0.2\Projects\CC2530\..\..\Components\zmac\" -I
#        "E:\ZLinker 1.0.3\Z-Stack
#        3.0.2\Projects\CC2530\..\..\Components\zmac\f8w\" -I "E:\ZLinker
#        1.0.3\Z-Stack 3.0.2\Projects\CC2530\..\..\Applications\" -Ohz
#        --require_prototypes)
#    Locale             =  Chinese (Simplified)_China.936
#    List file          =  
#        E:\ZLinker 1.0.3\Z-Stack
#        3.0.2\Projects\CC2530\Category\Coordinator\List\zb_port.lst
#    Object file        =  
#        E:\ZLinker 1.0.3\Z-Stack
#        3.0.2\Projects\CC2530\Category\Coordinator\Obj\zb_port.r51
#
###############################################################################

E:\ZLinker 1.0.3\Z-Stack 3.0.2\Applications\zb_port.c
      1          #include "zb_port.h"
      2          
      3          #include "zb_network.h"
      4          
      5          #include "zb_msg.h"
      6          
      7          #include "AF.h"
      8          
      9          #include "cc2530_ioctl.h"
     10          
     11          #include "hal_peris.h"
     12          
     13          #include "hal_key.h"
     14          
     15          #include "hal_lcd.h"
     16          
     17          #include <string.h>
     18          
     19          static void zb_port_init(void);
     20          static void zb_port_on_click(uint8_t value);
     21          static void zb_port_on_priv_msg(uint16_t nwkaddr, uint16_t cluster, const uint8_t *data, uint16_t len, int8_t rssi);
     22          static void zb_port_on_timer(uint16_t ms);
     23          
     24          #if ZG_BUILD_COORDINATOR_TYPE
     25          static void zb_port_coord_on_priv_msg(uint16_t nwkaddr, uint16_t cluster, const uint8_t *data, uint16_t len, int8_t rssi);
     26          #endif
     27          

   \                                 In  segment XDATA_I, align 1, keep-with-next
     28          const zb_port_t *zbport_ = &(const zb_port_t){
   \                     zbport_:
   \   000000                DS 2
   \   000002                REQUIRE `?<Initializer for zbport_>`
   \   000002                REQUIRE __INIT_XDATA_I
     29              .init = zb_port_init,
     30              .on_click = zb_port_on_click,
     31              .on_priv_msg = zb_port_on_priv_msg,
     32              .on_timer = zb_port_on_timer,
     33          };
     34          

   \                                 In  segment BANKED_CODE, align 1, keep-with-next
     35          void zb_port_init()
   \                     zb_port_init:
     36          {
   \   000000   C082         PUSH      DPL
   \   000002   C083         PUSH      DPH
   \   000004                ; Saved register size: 2
   \   000004                ; Auto size: 0
     37          #if ZG_BUILD_COORDINATOR_TYPE
     38              zbnwk_->permit(60, 1);
   \   000004                ; Setup parameters for indirect call
   \   000004   7A01         MOV       R2,#0x1
   \   000006   793C         MOV       R1,#0x3c
   \   000008   90....       MOV       DPTR,#zbnwk_
   \   00000B   12....       LCALL     ?Subroutine1 & 0xFFFF
   \                     ??CrossCallReturnLabel_3:
   \   00000E   A3           INC       DPTR
   \   00000F   A3           INC       DPTR
   \   000010   12....       LCALL     ?Subroutine1 & 0xFFFF
   \                     ??CrossCallReturnLabel_4:
   \   000013   12....       LCALL     ?CALL_IND
     39          #elif ZG_BUILD_RTRONLY_TYPE
     40          #else
     41          #endif
     42          }
   \   000016   D083         POP       DPH
   \   000018   D082         POP       DPL
   \   00001A   02....       LJMP      ?BRET

   \                                 In  segment BANKED_CODE, align 1, keep-with-next
   \                     ?Subroutine1:
   \   000000   E0           MOVX      A,@DPTR
   \   000001   F8           MOV       R0,A
   \   000002   A3           INC       DPTR
   \   000003   E0           MOVX      A,@DPTR
   \   000004   F583         MOV       DPH,A
   \   000006   8882         MOV       DPL,R0
   \   000008   22           RET
     43          

   \                                 In  segment BANKED_CODE, align 1, keep-with-next
     44          void zb_port_on_click(uint8_t value)
   \                     zb_port_on_click:
     45          {
   \   000000                ; Saved register size: 0
   \   000000                ; Auto size: 0
     46          #if ZG_BUILD_COORDINATOR_TYPE
     47          #elif ZG_BUILD_RTRONLY_TYPE
     48          #else
     49          #endif
     50          }
   \   000000   02....       LJMP      ?BRET
     51          

   \                                 In  segment BANKED_CODE, align 1, keep-with-next
     52          void zb_port_on_priv_msg(uint16_t nwkaddr, uint16_t cluster, const uint8_t *data, uint16_t len, int8_t rssi)
   \                     zb_port_on_priv_msg:
     53          {
   \   000000                REQUIRE ?V0
   \   000000                REQUIRE ?V1
   \   000000                REQUIRE ?V2
   \   000000                REQUIRE ?V4
   \   000000                REQUIRE ?V5
   \   000000   74F2         MOV       A,#-0xe
   \   000002   12....       LCALL     ?BANKED_ENTER_XDATA
   \   000005                ; Saved register size: 14
   \   000005                ; Auto size: 32
   \   000005   74E0         MOV       A,#-0x20
   \   000007   12....       LCALL     ?ALLOC_XSTACK8
   \   00000A   8A..         MOV       ?V0,R2
   \   00000C   8B..         MOV       ?V1,R3
   \   00000E   89..         MOV       ?V2,R1
     54          /* Coordinator */
     55          #if ZG_BUILD_COORDINATOR_TYPE
     56              zb_port_coord_on_priv_msg(nwkaddr, cluster, data, len, rssi);
   \   000010   EC           MOV       A,R4
   \   000011   7003         JNZ       ??zb_port_on_priv_msg_0
   \   000013   74F0         MOV       A,#-0x10
   \   000015   6D           XRL       A,R5
   \                     ??zb_port_on_priv_msg_0:
   \   000016   6003         JZ        $+5
   \   000018   02....       LJMP      ??zb_port_on_priv_msg_1 & 0xFFFF
   \   00001B                ; Setup parameters for call to function strcpy
   \   00001B   742E         MOV       A,#0x2e
   \   00001D   12....       LCALL     ?XSTACK_DISP0_8
   \   000020   E0           MOVX      A,@DPTR
   \   000021   FC           MOV       R4,A
   \   000022   A3           INC       DPTR
   \   000023   E0           MOVX      A,@DPTR
   \   000024   FD           MOV       R5,A
   \   000025   AA..         MOV       R2,?XSP + 0
   \   000027   AB..         MOV       R3,?XSP + 1
   \   000029   12....       LCALL     `??strcpy::?relay`; Banked call to: strcpy
   \   00002C                ; Setup parameters for call to function strlen
   \   00002C   AA..         MOV       R2,?XSP + 0
   \   00002E   AB..         MOV       R3,?XSP + 1
   \   000030   12....       LCALL     `??strlen::?relay`; Banked call to: strlen
   \   000033   8B..         MOV       ?V5,R3
   \   000035   A9..         MOV       R1,?V5
   \   000037                ; Setup parameters for call to function strcpy
   \   000037   7C..         MOV       R4,#`?<Constant " ">` & 0xff
   \   000039   7D..         MOV       R5,#(`?<Constant " ">` >> 8) & 0xff
   \   00003B   12....       LCALL     ?Subroutine0 & 0xFFFF
   \                     ??CrossCallReturnLabel_0:
   \   00003E   12....       LCALL     `??strcpy::?relay`; Banked call to: strcpy
   \   000041                ; Setup parameters for call to function itoa
   \   000041   E5..         MOV       A,?V2
   \   000043   F8           MOV       R0,A
   \   000044   33           RLC       A
   \   000045   95E0         SUBB      A,0xE0 /* A   */
   \   000047   F9           MOV       R1,A
   \   000048   E8           MOV       A,R0
   \   000049   241B         ADD       A,#0x1b
   \   00004B   FA           MOV       R2,A
   \   00004C   E4           CLR       A
   \   00004D   39           ADDC      A,R1
   \   00004E   FB           MOV       R3,A
   \   00004F   12....       LCALL     `??itoa::?relay` ; Banked call to: itoa
   \   000052   8A..         MOV       ?V4,R2
   \   000054   8B..         MOV       ?V5,R3
   \   000056   AF..         MOV       R7,?V5
   \   000058                ; Setup parameters for call to function strlen
   \   000058   AA..         MOV       R2,?XSP + 0
   \   00005A   AB..         MOV       R3,?XSP + 1
   \   00005C   12....       LCALL     `??strlen::?relay`; Banked call to: strlen
   \   00005F   8B..         MOV       ?V5,R3
   \   000061   A9..         MOV       R1,?V5
   \   000063                ; Setup parameters for call to function strcpy
   \   000063   AC..         MOV       R4,?V4
   \   000065   EF           MOV       A,R7
   \   000066   FD           MOV       R5,A
   \   000067   12....       LCALL     ?Subroutine0 & 0xFFFF
   \                     ??CrossCallReturnLabel_1:
   \   00006A   12....       LCALL     `??strcpy::?relay`; Banked call to: strcpy
   \   00006D                ; Setup parameters for call to function strlen
   \   00006D   AA..         MOV       R2,?XSP + 0
   \   00006F   AB..         MOV       R3,?XSP + 1
   \   000071   12....       LCALL     `??strlen::?relay`; Banked call to: strlen
   \   000074   8B..         MOV       ?V5,R3
   \   000076   A9..         MOV       R1,?V5
   \   000078                ; Setup parameters for call to function strcpy
   \   000078   7C..         MOV       R4,#`?<Constant "dBm">` & 0xff
   \   00007A   7D..         MOV       R5,#(`?<Constant "dBm">` >> 8) & 0xff
   \   00007C   12....       LCALL     ?Subroutine0 & 0xFFFF
   \                     ??CrossCallReturnLabel_2:
   \   00007F   12....       LCALL     `??strcpy::?relay`; Banked call to: strcpy
   \   000082   90....       MOV       DPTR,#??line3Addr
   \   000085   E0           MOVX      A,@DPTR
   \   000086   F8           MOV       R0,A
   \   000087   A3           INC       DPTR
   \   000088   E0           MOVX      A,@DPTR
   \   000089   F9           MOV       R1,A
   \   00008A   E8           MOV       A,R0
   \   00008B   49           ORL       A,R1
   \   00008C   700A         JNZ       ??zb_port_on_priv_msg_2
   \   00008E   90....       MOV       DPTR,#??line3Addr
   \   000091   E5..         MOV       A,?V0
   \   000093   F0           MOVX      @DPTR,A
   \   000094   A3           INC       DPTR
   \   000095   E5..         MOV       A,?V1
   \   000097   F0           MOVX      @DPTR,A
   \                     ??zb_port_on_priv_msg_2:
   \   000098   90....       MOV       DPTR,#??line3Addr
   \   00009B   E0           MOVX      A,@DPTR
   \   00009C   65..         XRL       A,?V0
   \   00009E   7004         JNZ       ??zb_port_on_priv_msg_3
   \   0000A0   A3           INC       DPTR
   \   0000A1   E0           MOVX      A,@DPTR
   \   0000A2   65..         XRL       A,?V1
   \                     ??zb_port_on_priv_msg_3:
   \   0000A4   7004         JNZ       ??zb_port_on_priv_msg_4
   \   0000A6                ; Setup parameters for call to function HalLcdWriteString
   \   0000A6   7903         MOV       R1,#0x3
   \   0000A8   8002         SJMP      ??zb_port_on_priv_msg_5
   \                     ??zb_port_on_priv_msg_4:
   \   0000AA                ; Setup parameters for call to function HalLcdWriteString
   \   0000AA   7904         MOV       R1,#0x4
   \                     ??zb_port_on_priv_msg_5:
   \   0000AC   AA..         MOV       R2,?XSP + 0
   \   0000AE   AB..         MOV       R3,?XSP + 1
   \   0000B0   12....       LCALL     `??HalLcdWriteString::?relay`; Banked call to: HalLcdWriteString
     57          #elif ZG_BUILD_RTRONLY_TYPE
     58          #else
     59          #endif
     60          }
   \                     ??zb_port_on_priv_msg_1:
   \   0000B3   7420         MOV       A,#0x20
   \   0000B5   12....       LCALL     ?DEALLOC_XSTACK8
   \   0000B8   7F06         MOV       R7,#0x6
   \   0000BA   02....       LJMP      ?BANKED_LEAVE_XDATA
     61          

   \                                 In  segment BANKED_CODE, align 1, keep-with-next
     62          void zb_port_on_timer(uint16_t ms)
   \                     zb_port_on_timer:
     63          {
   \   000000                ; Saved register size: 0
   \   000000                ; Auto size: 0
     64          #if ZG_BUILD_COORDINATOR_TYPE
     65          
     66          #elif ZG_BUILD_RTRONLY_TYPE
     67          
     68          #else
     69          #endif
     70          }
   \   000000   02....       LJMP      ?BRET
     71          
     72          #if ZG_BUILD_COORDINATOR_TYPE
     73          void zb_port_coord_on_priv_msg(uint16_t nwkaddr, uint16_t cluster, const uint8_t *data, uint16_t len, int8_t rssi)
     74          {
     75          #if defined(TEST_RSSI) && (TEST_RSSI == TRUE)

   \                                 In  segment XDATA_Z, align 1, keep-with-next
     76              static uint16_t line3Addr = 0;
   \                     ??line3Addr:
   \   000000                DS 2
   \   000002                REQUIRE __INIT_XDATA_Z

   \                                 In  segment BANKED_CODE, align 1, keep-with-next
   \                     ?Subroutine0:
   \   000000   85..82       MOV       DPL,?XSP + 0
   \   000003   85..83       MOV       DPH,?XSP + 1
   \   000006   E582         MOV       A,DPL
   \   000008   2A           ADD       A,R2
   \   000009   FA           MOV       R2,A
   \   00000A   E583         MOV       A,DPH
   \   00000C   39           ADDC      A,R1
   \   00000D   FB           MOV       R3,A
   \   00000E   22           RET

   \                                 In  segment XDATA_ID, align 1, keep-with-next
   \                     `?<Initializer for zbport_>`:
   \   000000   ....         DW ?_0

   \                                 In  segment BANK_RELAYS, align 1
   \                     `??zb_port_init::?relay`:
   \   000000   12....       LCALL   ?BDISPATCH
   \   000003   ......       DC24    zb_port_init

   \                                 In  segment BANK_RELAYS, align 1
   \                     `??zb_port_on_click::?relay`:
   \   000000   12....       LCALL   ?BDISPATCH
   \   000003   ......       DC24    zb_port_on_click

   \                                 In  segment BANK_RELAYS, align 1
   \                     `??zb_port_on_priv_msg::?relay`:
   \   000000   12....       LCALL   ?BDISPATCH
   \   000003   ......       DC24    zb_port_on_priv_msg

   \                                 In  segment BANK_RELAYS, align 1
   \                     `??zb_port_on_timer::?relay`:
   \   000000   12....       LCALL   ?BDISPATCH
   \   000003   ......       DC24    zb_port_on_timer

   \                                 In  segment XDATA_ROM_C, align 1
   \                     `?<Constant " ">`:
   \   000000   2000         DB " "

   \                                 In  segment XDATA_ROM_C, align 1
   \                     `?<Constant "dBm">`:
   \   000000   64426D00     DB "dBm"
     77          
     78              if (cluster == PRIV_CID_TEST_RSSI) {
     79                  char payload[32];
     80                  strcpy(payload, (char *)data);
     81                  strcpy(&payload[strlen(payload)], " ");
     82                  strcpy(&payload[strlen(payload)], itoa(rssi + 27));
     83                  strcpy(&payload[strlen(payload)], "dBm");
     84          
     85                  if (line3Addr == 0) line3Addr = nwkaddr;
     86          
     87                  if (line3Addr == nwkaddr) HalLcdWriteString(payload, 3);
     88                  else HalLcdWriteString(payload, 4);
     89          
     90                  return;
     91              }
     92          #endif
     93          }
     94          #endif

   Maximum stack usage in bytes:

   ISTACK XSTACK Function
   ------ ------ --------
      2      0   zb_port_init
      0      0   zb_port_on_click
      0     50   zb_port_on_priv_msg
        0     46   -> HalLcdWriteString
        0     46   -> itoa
        0     46   -> strcpy
        0     46   -> strlen
      0      0   zb_port_on_timer


   Segment part sizes:

   Bytes  Function/Label
   -----  --------------
       2  ?<Constant " ">
       4  ?<Constant "dBm">
       2  ?<Initializer for zbport_>
      15  ?Subroutine0
       9  ?Subroutine1
       2  line3Addr
      29  zb_port_init
       6  zb_port_init::?relay
       3  zb_port_on_click
       6  zb_port_on_click::?relay
     189  zb_port_on_priv_msg
       6  zb_port_on_priv_msg::?relay
       3  zb_port_on_timer
       6  zb_port_on_timer::?relay
       2  zbport_
       8  -- Other

 
 248 bytes in segment BANKED_CODE
  24 bytes in segment BANK_RELAYS
   2 bytes in segment XDATA_I
   2 bytes in segment XDATA_ID
  14 bytes in segment XDATA_ROM_C
   2 bytes in segment XDATA_Z
 
  26 bytes of CODE     memory
  14 bytes of CONST    memory
 248 bytes of HUGECODE memory
   4 bytes of XDATA    memory

Errors: none
Warnings: none
