###############################################################################
#
# IAR C/C++ Compiler V10.10.1.4655 for 8051               08/Apr/2021  22:45:06
# Copyright 2004-2017 IAR Systems AB.
# Standalone license - IAR Embedded Workbench for 8051
#
#    Core               =  plain
#    Code model         =  banked
#    Data model         =  large
#    Calling convention =  xdata reentrant
#    Constant location  =  data_rom
#    Dptr setup         =  1,16
#                          
#    Source file        =  
#        E:\ZLinker 1.0.3\Z-Stack 3.0.2\Components\stack\zdo\ZDProfile.c
#    Command line       =  
#        -f C:\Users\Michael\AppData\Local\Temp\EW85F3.tmp ("E:\ZLinker
#        1.0.3\Z-Stack 3.0.2\Components\stack\zdo\ZDProfile.c" -D SECURE=1 -D
#        TC_LINKKEY_JOIN -D NV_INIT -D NV_RESTORE -D xZTOOL_P1 -D xMT_TASK -D
#        xMT_APP_FUNC -D xMT_SYS_FUNC -D xMT_ZDO_FUNC -D xMT_ZDO_MGMT -D
#        xMT_APP_CNF_FUNC -D LCD_SUPPORTED=DEBUG -D MULTICAST_ENABLED=FALSE -D
#        ZCL_READ -D ZCL_DISCOVER -D ZCL_WRITE -D ZCL_BASIC -D ZCL_IDENTIFY -D
#        ZCL_ON_OFF -D ZCL_GROUPS -D ZCL_LEVEL_CTRL -D HAL_KEY=TRUE -D
#        ISR_KEYINTERRUPT -D HAL_LCD=TRUE -D ZB_CONFIG_PA_ENABLE=TRUE -D
#        TEST_RSSI=TRUE -lC "E:\ZLinker 1.0.3\Z-Stack
#        3.0.2\Projects\CC2530\Category\Coordinator\List" -lA "E:\ZLinker
#        1.0.3\Z-Stack 3.0.2\Projects\CC2530\Category\Coordinator\List"
#        --diag_suppress Pe001,Pa010 -o "E:\ZLinker 1.0.3\Z-Stack
#        3.0.2\Projects\CC2530\Category\Coordinator\Obj" -e --debug
#        --core=plain --dptr=16,1 --data_model=large --code_model=banked
#        --calling_convention=xdata_reentrant --place_constants=data_rom
#        --nr_virtual_regs 16 -f "E:\ZLinker 1.0.3\Z-Stack
#        3.0.2\Projects\CC2530\Tools\f8wCoord.cfg" (-DCPU32MHZ
#        -DROOT=__near_func -DMAC_CFG_APP_PENDING_QUEUE=TRUE
#        -DMAC_CFG_TX_DATA_MAX=5 -DMAC_CFG_TX_MAX=8 -DMAC_CFG_RX_MAX=5
#        -DZDO_COORDINATOR -DRTR_NWK) -f "E:\ZLinker 1.0.3\Z-Stack
#        3.0.2\Projects\CC2530\Tools\f8wConfig.cfg" (-DZIGBEEPRO -DSECURE=1
#        -DZG_SECURE_DYNAMIC=0 -DREFLECTOR -DDEFAULT_CHANLIST=0x00000800
#        -DZDAPP_CONFIG_PAN_ID=0xFFFF -DNWK_START_DELAY=100
#        -DEXTENDED_JOINING_RANDOM_MASK=0x007F -DBEACON_REQUEST_DELAY=100
#        -DBEACON_REQ_DELAY_MASK=0x00FF -DLINK_STATUS_JITTER_MASK=0x007F
#        -DROUTE_EXPIRY_TIME=30 -DAPSC_ACK_WAIT_DURATION_POLLED=3000
#        -DNWK_INDIRECT_MSG_TIMEOUT=7 -DMAX_RREQ_ENTRIES=8
#        -DAPSC_MAX_FRAME_RETRIES=3 -DNWK_MAX_DATA_RETRIES=2
#        -DMAX_POLL_FAILURE_RETRIES=2 -DMAX_BCAST=9 -DAPS_MAX_GROUPS=16
#        -DMAX_RTG_ENTRIES=40 -DNWK_MAX_BINDING_ENTRIES=4
#        -DMAX_BINDING_CLUSTER_IDS=4 -DDEFAULT_KEY={0} -DMAC_MAX_FRAME_SIZE=116
#        -DZDNWKMGR_MIN_TRANSMISSIONS=20 "-DCONST=const __code"
#        -DGENERIC=__generic -DRFD_RCVC_ALWAYS_ON=FALSE -DPOLL_RATE=1000
#        -DQUEUED_POLL_RATE=100 -DRESPONSE_POLL_RATE=100 -DREJOIN_POLL_RATE=440
#        -DREJOIN_BACKOFF=900000 -DREJOIN_SCAN=900000 -DENABLE_LED4_DISABLE_S1)
#        -f "E:\ZLinker 1.0.3\Z-Stack 3.0.2\Projects\CC2530\Tools\f8wZCL.cfg"
#        -I "E:\ZLinker 1.0.3\Z-Stack 3.0.2\Projects\CC2530\" -I "E:\ZLinker
#        1.0.3\Z-Stack 3.0.2\Projects\CC2530\..\..\Components\hal\include\" -I
#        "E:\ZLinker 1.0.3\Z-Stack
#        3.0.2\Projects\CC2530\..\..\Components\hal\target\CC2530EB\" -I
#        "E:\ZLinker 1.0.3\Z-Stack
#        3.0.2\Projects\CC2530\..\..\Components\hal\userspace\" -I "E:\ZLinker
#        1.0.3\Z-Stack 3.0.2\Projects\CC2530\..\..\Components\mac\include\" -I
#        "E:\ZLinker 1.0.3\Z-Stack
#        3.0.2\Projects\CC2530\..\..\Components\mac\high_level\" -I "E:\ZLinker
#        1.0.3\Z-Stack
#        3.0.2\Projects\CC2530\..\..\Components\mac\low_level\srf04\" -I
#        "E:\ZLinker 1.0.3\Z-Stack
#        3.0.2\Projects\CC2530\..\..\Components\mac\low_level\srf04\single_chip\"
#        -I "E:\ZLinker 1.0.3\Z-Stack
#        3.0.2\Projects\CC2530\..\..\Components\mt\" -I "E:\ZLinker
#        1.0.3\Z-Stack 3.0.2\Projects\CC2530\..\..\Components\osal\include\" -I
#        "E:\ZLinker 1.0.3\Z-Stack
#        3.0.2\Projects\CC2530\..\..\Components\services\saddr\" -I "E:\ZLinker
#        1.0.3\Z-Stack 3.0.2\Projects\CC2530\..\..\Components\services\sdata\"
#        -I "E:\ZLinker 1.0.3\Z-Stack
#        3.0.2\Projects\CC2530\..\..\Components\stack\af\" -I "E:\ZLinker
#        1.0.3\Z-Stack 3.0.2\Projects\CC2530\..\..\Components\stack\bdb\" -I
#        "E:\ZLinker 1.0.3\Z-Stack
#        3.0.2\Projects\CC2530\..\..\Components\stack\gp\" -I "E:\ZLinker
#        1.0.3\Z-Stack 3.0.2\Projects\CC2530\..\..\Components\stack\nwk\" -I
#        "E:\ZLinker 1.0.3\Z-Stack
#        3.0.2\Projects\CC2530\..\..\Components\stack\sapi\" -I "E:\ZLinker
#        1.0.3\Z-Stack 3.0.2\Projects\CC2530\..\..\Components\stack\sec\" -I
#        "E:\ZLinker 1.0.3\Z-Stack
#        3.0.2\Projects\CC2530\..\..\Components\stack\sys\" -I "E:\ZLinker
#        1.0.3\Z-Stack 3.0.2\Projects\CC2530\..\..\Components\stack\zcl\" -I
#        "E:\ZLinker 1.0.3\Z-Stack
#        3.0.2\Projects\CC2530\..\..\Components\stack\zdo\" -I "E:\ZLinker
#        1.0.3\Z-Stack 3.0.2\Projects\CC2530\..\..\Components\zmac\" -I
#        "E:\ZLinker 1.0.3\Z-Stack
#        3.0.2\Projects\CC2530\..\..\Components\zmac\f8w\" -I "E:\ZLinker
#        1.0.3\Z-Stack 3.0.2\Projects\CC2530\..\..\Applications\" -Ohz
#        --require_prototypes)
#    Locale             =  Chinese (Simplified)_China.936
#    List file          =  
#        E:\ZLinker 1.0.3\Z-Stack
#        3.0.2\Projects\CC2530\Category\Coordinator\List\ZDProfile.lst
#    Object file        =  
#        E:\ZLinker 1.0.3\Z-Stack
#        3.0.2\Projects\CC2530\Category\Coordinator\Obj\ZDProfile.r51
#
###############################################################################

E:\ZLinker 1.0.3\Z-Stack 3.0.2\Components\stack\zdo\ZDProfile.c
      1          /**************************************************************************************************
      2            Filename:       ZDProfile.c
      3            Revised:        $Date: 2015-10-14 11:48:06 -0700 (Wed, 14 Oct 2015) $
      4            Revision:       $Revision: 44530 $
      5          
      6            Description:    This is the Zigbee Device Profile.
      7          
      8          
      9            Copyright 2004-2015 Texas Instruments Incorporated. All rights reserved.
     10          
     11            IMPORTANT: Your use of this Software is limited to those specific rights
     12            granted under the terms of a software license agreement between the user
     13            who downloaded the software, his/her employer (which must be your employer)
     14            and Texas Instruments Incorporated (the "License").  You may not use this
     15            Software unless you agree to abide by the terms of the License. The License
     16            limits your use, and you acknowledge, that the Software may not be modified,
     17            copied or distributed unless embedded on a Texas Instruments microcontroller
     18            or used solely and exclusively in conjunction with a Texas Instruments radio
     19            frequency transceiver, which is integrated into your product.  Other than for
     20            the foregoing purpose, you may not use, reproduce, copy, prepare derivative
     21            works of, modify, distribute, perform, display or sell this Software and/or
     22            its documentation for any purpose.
     23          
     24            YOU FURTHER ACKNOWLEDGE AND AGREE THAT THE SOFTWARE AND DOCUMENTATION ARE
     25            PROVIDED "AS IS" WITHOUT WARRANTY OF ANY KIND, EITHER EXPRESS OR IMPLIED,
     26            INCLUDING WITHOUT LIMITATION, ANY WARRANTY OF MERCHANTABILITY, TITLE,
     27            NON-INFRINGEMENT AND FITNESS FOR A PARTICULAR PURPOSE. IN NO EVENT SHALL
     28            TEXAS INSTRUMENTS OR ITS LICENSORS BE LIABLE OR OBLIGATED UNDER CONTRACT,
     29            NEGLIGENCE, STRICT LIABILITY, CONTRIBUTION, BREACH OF WARRANTY, OR OTHER
     30            LEGAL EQUITABLE THEORY ANY DIRECT OR INDIRECT DAMAGES OR EXPENSES
     31            INCLUDING BUT NOT LIMITED TO ANY INCIDENTAL, SPECIAL, INDIRECT, PUNITIVE
     32            OR CONSEQUENTIAL DAMAGES, LOST PROFITS OR LOST DATA, COST OF PROCUREMENT
     33            OF SUBSTITUTE GOODS, TECHNOLOGY, SERVICES, OR ANY CLAIMS BY THIRD PARTIES
     34            (INCLUDING BUT NOT LIMITED TO ANY DEFENSE THEREOF), OR OTHER SIMILAR COSTS.
     35          
     36            Should you have any questions regarding your right to use this Software,
     37            contact Texas Instruments Incorporated at www.TI.com.
     38          **************************************************************************************************/
     39          
     40          /*********************************************************************
     41           * INCLUDES
     42           */
     43          #include "ZComDef.h"
     44          #include "OSAL.h"
     45          #include "AF.h"
     46          #include "NLMEDE.h"
     47          #include "nwk_util.h"
     48          #include "APS.h"
     49          
     50          #include "AddrMgr.h"
     51          #include "ZDConfig.h"
     52          #include "ZDProfile.h"
     53          #include "ZDObject.h"
     54          #include "ZDNwkMgr.h"
     55          
     56          #if defined( LCD_SUPPORTED )
     57            #include "OnBoard.h"
     58          #endif
     59          
     60          #include "nwk_util.h"
     61          
     62          #if defined( MT_ZDO_FUNC )
     63            #include "MT_ZDO.h"
     64          #endif
     65          
     66          /*********************************************************************
     67           * MACROS
     68           */
     69          
     70          #define ZADDR_TO_AFADDR( pZADDR, AFADDR ) {                            \
     71            (AFADDR).endPoint = ZDP_AF_ENDPOINT;                                 \
     72            (AFADDR).addrMode = (afAddrMode_t)(pZADDR)->addrMode;                \
     73            (AFADDR).addr.shortAddr = (pZADDR)->addr.shortAddr;                  \
     74          }
     75          
     76          #define FillAndSendBuffer( TRANSSEQ, ADDR, ID, LEN, BUF ) {     \
     77            afStatus_t stat;                                    \
     78            ZDP_TmpBuf = (BUF)+1;                               \
     79            stat = fillAndSend( (TRANSSEQ), (ADDR), (ID), (LEN) );          \
     80            osal_mem_free( (BUF) );                             \
     81            ZDP_TmpBuf = ZDP_Buf+1;                             \
     82            return stat;                                        \
     83          }
     84          
     85          #define FillAndSendTxOptions( TRANSSEQ, ADDR, ID, LEN, TxO ) {  \
     86            afStatus_t stat;                                    \
     87            ZDP_TxOptions = (TxO);                              \
     88            stat = fillAndSend( (TRANSSEQ), (ADDR), (ID), (LEN) );          \
     89            ZDP_TxOptions = AF_TX_OPTIONS_NONE;                 \
     90            return stat;                                        \
     91          }
     92          
     93          #define FillAndSendBufferTxOptions( TRANSSEQ, ADDR, ID, LEN, BUF, TxO ) { \
     94            afStatus_t stat;                                    \
     95            ZDP_TmpBuf = (BUF)+1;                               \
     96            ZDP_TxOptions = (TxO);                              \
     97            stat = fillAndSend( (TRANSSEQ), (ADDR), (ID), (LEN) );          \
     98            osal_mem_free( (BUF) );                             \
     99            ZDP_TmpBuf = ZDP_Buf+1;                             \
    100            ZDP_TxOptions = AF_TX_OPTIONS_NONE;                 \
    101            return stat;                                        \
    102          }
    103          
    104          /*********************************************************************
    105           * CONSTANTS
    106           */
    107          
    108          #define ZDP_BUF_SZ          80
    109          

   \                                 In  segment CODE_C, align 1
    110          CONST byte ZDP_AF_ENDPOINT = 0;
   \                     ZDP_AF_ENDPOINT:
   \   000000   00           DB 0
    111          
    112          // Routing table options
    113          #define ZP_RTG_RECORD       0x04       // Routing table indication that a route record is needed
    114          #define ZP_MTO_ROUTE_RC     0x08       // Concentrator with routing cache
    115          #define ZP_MTO_ROUTE_NRC    0x10       // Concentrator with limited cache
    116          
    117          
    118          /*********************************************************************
    119           * TYPEDEFS
    120           */
    121          typedef struct
    122          {
    123            void *next;
    124            uint8 taskID;
    125            uint16 clusterID;
    126          } ZDO_MsgCB_t;
    127          
    128          
    129          /*********************************************************************
    130           * GLOBAL VARIABLES
    131           */
    132          

   \                                 In  segment XDATA_Z, align 1, keep-with-next
    133          byte ZDP_TransID = 0;
   \                     ZDP_TransID:
   \   000000                DS 1
   \   000001                REQUIRE __INIT_XDATA_Z

   \                                 In  segment XDATA_Z, align 1, keep-with-next
    134          uint8 childIndex = 0;
   \                     childIndex:
   \   000000                DS 1
   \   000001                REQUIRE __INIT_XDATA_Z
    135          
    136          /*********************************************************************
    137           * EXTERNAL VARIABLES
    138           */
    139          
    140          extern endPointDesc_t ZDApp_epDesc;
    141          
    142          /*********************************************************************
    143           * EXTERNAL FUNCTIONS
    144           */
    145          extern void ZDApp_SetParentAnnceTimer( void );
    146          
    147          /*********************************************************************
    148           * LOCAL FUNCTIONS
    149           */
    150          
    151          static afStatus_t fillAndSend( uint8 *transSeq, zAddrType_t *addr, cId_t clusterID, byte len );
    152          uint8 ZDO_SendMsgCBs( zdoIncomingMsg_t *inMsg );
    153          void zdpProcessAddrReq( zdoIncomingMsg_t *inMsg );
    154          
    155          /*********************************************************************
    156           * LOCAL VARIABLES
    157           */
    158          

   \                                 In  segment XDATA_Z, align 1, keep-with-next
    159          static uint8  ZDP_Buf[ ZDP_BUF_SZ ];
   \                     ZDP_Buf:
   \   000000                DS 80
   \   000050                REQUIRE __INIT_XDATA_Z

   \                                 In  segment XDATA_I, align 1, keep-with-next
    160          static uint8 *ZDP_TmpBuf = ZDP_Buf+1;
   \                     ZDP_TmpBuf:
   \   000000                DS 2
   \   000002                REQUIRE `?<Initializer for ZDP_TmpBuf>`
   \   000002                REQUIRE __INIT_XDATA_I
    161          

   \                                 In  segment XDATA_Z, align 1, keep-with-next
    162          byte ZDP_TxOptions = AF_TX_OPTIONS_NONE;
   \                     ZDP_TxOptions:
   \   000000                DS 1
   \   000001                REQUIRE __INIT_XDATA_Z

   \                                 In  segment XDATA_Z, align 1, keep-with-next
    163          ZDO_MsgCB_t *zdoMsgCBs = (ZDO_MsgCB_t *)NULL;
   \                     zdoMsgCBs:
   \   000000                DS 2
   \   000002                REQUIRE __INIT_XDATA_Z
    164          
    165          /*********************************************************************
    166           * ZDO Message Processing table
    167           */
    168          
    169          typedef void (*pfnZDPMsgProcessor)( zdoIncomingMsg_t *inMsg );
    170          
    171          typedef struct
    172          {
    173            uint16                clusterID;
    174            pfnZDPMsgProcessor    pFn;
    175          } zdpMsgProcItem_t;
    176          

   \                                 In  segment CODE_C, align 1
    177          CONST zdpMsgProcItem_t zdpMsgProcs[] =
   \                     zdpMsgProcs:
   \   000000   1300         DW 19
   \   000002   ....         DW `??ZDO_ProcessDeviceAnnce::?relay`
   \   000004   1F00         DW 31
   \   000006   ....         DW `??ZDO_ProcessParentAnnce::?relay`
   \   000008   1F80         DW 32799
   \   00000A   ....         DW `??ZDO_ProcessParentAnnceRsp::?relay`
   \   00000C   0000         DW 0
   \   00000E   ....         DW `??zdpProcessAddrReq::?relay`
   \   000010   0100         DW 1
   \   000012   ....         DW `??zdpProcessAddrReq::?relay`
   \   000014   0200         DW 2
   \   000016   ....         DW `??ZDO_ProcessNodeDescReq::?relay`
   \   000018   0280         DW 32770
   \   00001A   ....         DW `??ZDO_ProcessNodeDescRsp::?relay`
   \   00001C   0300         DW 3
   \   00001E   ....         DW `??ZDO_ProcessPowerDescReq::?relay`
   \   000020   0400         DW 4
   \   000022   ....         DW `??ZDO_ProcessSimpleDescReq::?relay`
   \   000024   0480         DW 32772
   \   000026   ....         DW `??ZDO_ProcessSimpleDescRsp::?relay`
   \   000028   0500         DW 5
   \   00002A   ....         DW `??ZDO_ProcessActiveEPReq::?relay`
   \   00002C   0600         DW 6
   \   00002E   ....         DW `??ZDO_ProcessMatchDescReq::?relay`
   \   000030   3100         DW 49
   \   000032   ....         DW `??ZDO_ProcessMgmtLqiReq::?relay`
   \   000034   3300         DW 51
   \   000036   ....         DW `??ZDO_ProcessMgmtBindReq::?relay`
   \   000038   3400         DW 52
   \   00003A   ....         DW `??ZDO_ProcessMgmtLeaveReq::?relay`
   \   00003C   3600         DW 54
   \   00003E   ....         DW `??ZDO_ProcessMgmtPermitJoinReq::?relay`
   \   000040   FFFF         DW 65535
   \   000042   0000         DW 0H
    178          {
    179          #if ( RFD_RCVC_ALWAYS_ON==TRUE ) || ( ZG_BUILD_RTR_TYPE )
    180            // These aren't processed by sleeping end devices.
    181            { Device_annce,           ZDO_ProcessDeviceAnnce },
    182          #endif
    183          #if ( ZG_BUILD_RTR_TYPE )
    184            // These aren't processed by end devices.
    185            { Parent_annce,           ZDO_ProcessParentAnnce },
    186            { Parent_annce_rsp,       ZDO_ProcessParentAnnceRsp },
    187          #endif
    188            { NWK_addr_req,           zdpProcessAddrReq },
    189            { IEEE_addr_req,          zdpProcessAddrReq },
    190            { Node_Desc_req,          ZDO_ProcessNodeDescReq },
    191            { Node_Desc_rsp,          ZDO_ProcessNodeDescRsp },
    192            { Power_Desc_req,         ZDO_ProcessPowerDescReq },
    193            { Simple_Desc_req,        ZDO_ProcessSimpleDescReq },
    194            { Simple_Desc_rsp,        ZDO_ProcessSimpleDescRsp },
    195            { Active_EP_req,          ZDO_ProcessActiveEPReq },
    196            { Match_Desc_req,         ZDO_ProcessMatchDescReq },
    197          #if defined ( ZDO_MGMT_NWKDISC_RESPONSE )
    198            { Mgmt_NWK_Disc_req,      ZDO_ProcessMgmtNwkDiscReq },
    199          #endif
    200          #if defined ( ZDO_MGMT_LQI_RESPONSE ) && ( ZG_BUILD_RTR_TYPE || ZG_BUILD_ENDDEVICE_TYPE )
    201            { Mgmt_Lqi_req,           ZDO_ProcessMgmtLqiReq },
    202          #endif
    203          #if defined ( ZDO_MGMT_RTG_RESPONSE ) && ( ZG_BUILD_RTR_TYPE )
    204            { Mgmt_Rtg_req,           ZDO_ProcessMgmtRtgReq },
    205          #endif
    206          #if defined ( ZDO_MGMT_BIND_RESPONSE ) && defined ( REFLECTOR )
    207            { Mgmt_Bind_req,          ZDO_ProcessMgmtBindReq },
    208          #endif
    209          #if defined ( ZDO_MGMT_JOINDIRECT_RESPONSE ) && ( ZG_BUILD_RTR_TYPE )
    210            { Mgmt_Direct_Join_req,   ZDO_ProcessMgmtDirectJoinReq },
    211          #endif
    212          #if defined ( ZDO_MGMT_LEAVE_RESPONSE )
    213            { Mgmt_Leave_req,         ZDO_ProcessMgmtLeaveReq },
    214          #endif
    215          #if defined ( ZDO_MGMT_PERMIT_JOIN_RESPONSE )  && ( ZG_BUILD_RTR_TYPE )
    216            { Mgmt_Permit_Join_req,   ZDO_ProcessMgmtPermitJoinReq },
    217          #endif
    218          #if defined ( ZDO_USERDESC_RESPONSE )
    219            { User_Desc_req,          ZDO_ProcessUserDescReq },
    220          #endif
    221          #if defined ( ZDO_USERDESCSET_RESPONSE )
    222            { User_Desc_set,          ZDO_ProcessUserDescSet },
    223          #endif
    224          #if defined ( ZDO_SERVERDISC_RESPONSE )
    225            { Server_Discovery_req,   ZDO_ProcessServerDiscReq },
    226          #endif
    227            {0xFFFF, NULL} // Last
    228          };
    229          
    230          /*********************************************************************
    231           * @fn          fillAndSend
    232           *
    233           * @brief       Combined to reduce space
    234           *
    235           * @param
    236           * @param
    237           *
    238           * @return      afStatus_t
    239           */

   \                                 In  segment BANKED_CODE, align 1, keep-with-next
    240          static afStatus_t fillAndSend( uint8 *transSeq, zAddrType_t *addr, cId_t clusterID, byte len )
   \                     fillAndSend:
    241          {
   \   000000                REQUIRE ?V0
   \   000000                REQUIRE ?V1
   \   000000                REQUIRE ?V2
   \   000000                REQUIRE ?V3
   \   000000                REQUIRE ?V4
   \   000000                REQUIRE ?V5
   \   000000   74F2         MOV       A,#-0xe
   \   000002   12....       LCALL     ?BANKED_ENTER_XDATA
   \   000005                ; Saved register size: 14
   \   000005                ; Auto size: 12
   \   000005   74F4         MOV       A,#-0xc
   \   000007   12....       LCALL     ?ALLOC_XSTACK8
   \   00000A   8A..         MOV       ?V0,R2
   \   00000C   8B..         MOV       ?V1,R3
   \   00000E   EC           MOV       A,R4
   \   00000F   FE           MOV       R6,A
   \   000010   ED           MOV       A,R5
   \   000011   FF           MOV       R7,A
   \   000012   89..         MOV       ?V4,R1
    242            afAddrType_t afAddr;
    243          
    244            osal_memset( &afAddr, 0, sizeof(afAddrType_t) );
   \   000014                ; Setup parameters for call to function osal_memset
   \   000014   7C0C         MOV       R4,#0xc
   \   000016   7D00         MOV       R5,#0x0
   \   000018   7900         MOV       R1,#0x0
   \   00001A   AA..         MOV       R2,?XSP + 0
   \   00001C   AB..         MOV       R3,?XSP + 1
   \   00001E   12....       LCALL     `??osal_memset::?relay`; Banked call to: osal_memset
    245            ZADDR_TO_AFADDR( addr, afAddr );
   \   000021   7409         MOV       A,#0x9
   \   000023   12....       LCALL     ?XSTACK_DISP0_8
   \   000026   E4           CLR       A
   \   000027   12....       LCALL     ?Subroutine20 & 0xFFFF
   \                     ??CrossCallReturnLabel_22:
   \   00002A   E0           MOVX      A,@DPTR
   \   00002B   C0E0         PUSH      A
   \   00002D   7408         MOV       A,#0x8
   \   00002F   12....       LCALL     ?XSTACK_DISP0_8
   \   000032   D0E0         POP       A
   \   000034   F0           MOVX      @DPTR,A
   \   000035   8E82         MOV       DPL,R6
   \   000037   8F83         MOV       DPH,R7
   \   000039   12....       LCALL     ?Subroutine51 & 0xFFFF
   \                     ??CrossCallReturnLabel_82:
   \   00003C   12....       LCALL     ?Subroutine27 & 0xFFFF
    246          
    247            *(ZDP_TmpBuf-1) = *transSeq;
   \                     ??CrossCallReturnLabel_35:
   \   00003F   90....       MOV       DPTR,#ZDP_TmpBuf
   \   000042   E0           MOVX      A,@DPTR
   \   000043   24FF         ADD       A,#-0x1
   \   000045   F5..         MOV       ?V2,A
   \   000047   A3           INC       DPTR
   \   000048   E0           MOVX      A,@DPTR
   \   000049   34FF         ADDC      A,#-0x1
   \   00004B   F5..         MOV       ?V3,A
   \   00004D   85..82       MOV       DPL,?V0
   \   000050   85..83       MOV       DPH,?V1
   \   000053   12....       LCALL     ?Subroutine64 & 0xFFFF
    248          
    249            return AF_DataRequest( &afAddr, &ZDApp_epDesc, clusterID,
    250                                     (uint16)(len+1), (uint8*)(ZDP_TmpBuf-1),
    251                                     transSeq, ZDP_TxOptions,  AF_DEFAULT_RADIUS );
   \                     ??CrossCallReturnLabel_109:
   \   000056                ; Setup parameters for call to function AF_DataRequest
   \   000056   75..1E       MOV       ?V5,#0x1e
   \   000059   78..         MOV       R0,#?V5
   \   00005B   12....       LCALL     ?PUSH_XSTACK_I_ONE
   \   00005E   78..         MOV       R0,#?V0
   \   000060   12....       LCALL     ?PUSH_XSTACK_I_TWO
   \   000063   78..         MOV       R0,#?V2
   \   000065   12....       LCALL     ?PUSH_XSTACK_I_TWO
   \   000068   E5..         MOV       A,?V4
   \   00006A   2401         ADD       A,#0x1
   \   00006C   F5..         MOV       ?V0,A
   \   00006E   E4           CLR       A
   \   00006F   3400         ADDC      A,#0x0
   \   000071   F5..         MOV       ?V1,A
   \   000073   78..         MOV       R0,#?V0
   \   000075   12....       LCALL     ?PUSH_XSTACK_I_TWO
   \   000078   7421         MOV       A,#0x21
   \   00007A   12....       LCALL     ?XSTACK_DISP0_8
   \   00007D   12....       LCALL     ?PUSH_XSTACK8_X_TWO
   \   000080   90....       MOV       DPTR,#ZDP_TxOptions
   \   000083   E0           MOVX      A,@DPTR
   \   000084   F9           MOV       R1,A
   \   000085   7C..         MOV       R4,#ZDApp_epDesc & 0xff
   \   000087   7D..         MOV       R5,#(ZDApp_epDesc >> 8) & 0xff
   \   000089   7409         MOV       A,#0x9
   \   00008B   12....       LCALL     ?XSTACK_DISP101_8
   \   00008E   12....       LCALL     `??AF_DataRequest::?relay`; Banked call to: AF_DataRequest
   \   000091   7409         MOV       A,#0x9
   \   000093   12....       LCALL     ?DEALLOC_XSTACK8
   \   000096   740C         MOV       A,#0xc
   \   000098   02....       LJMP      ?Subroutine0 & 0xFFFF
    252          
    253          }

   \                                 In  segment BANKED_CODE, align 1, keep-with-next
   \                     ?Subroutine64:
   \   000000   E0           MOVX      A,@DPTR
   \   000001   85..82       MOV       DPL,?V2
   \   000004   85..83       MOV       DPH,?V3
   \   000007   F0           MOVX      @DPTR,A
   \   000008   22           RET

   \                                 In  segment BANKED_CODE, align 1, keep-with-next
   \                     ?Subroutine51:
   \   000000   12....       LCALL     ??Subroutine122_0 & 0xFFFF
   \                     ??CrossCallReturnLabel_258:
   \   000003   F9           MOV       R1,A
   \   000004   85..82       MOV       DPL,?XSP + 0
   \   000007   85..83       MOV       DPH,?XSP + 1
   \   00000A   22           RET

   \                                 In  segment BANKED_CODE, align 1, keep-with-next
   \                     ?Subroutine0:
   \   000000   12....       LCALL     ?DEALLOC_XSTACK8
   \   000003                REQUIRE ??Subroutine98_0
   \   000003                ; // Fall through to label ??Subroutine98_0

   \                                 In  segment BANKED_CODE, align 1, keep-with-next
   \                     ??Subroutine98_0:
   \   000000   7F06         MOV       R7,#0x6
   \   000002   02....       LJMP      ?BANKED_LEAVE_XDATA

   \                                 In  segment BANKED_CODE, align 1, keep-with-next
   \                     ?Subroutine88:
   \   000000   F0           MOVX      @DPTR,A
   \   000001   8E82         MOV       DPL,R6
   \   000003   8F83         MOV       DPH,R7
   \   000005   A3           INC       DPTR
   \   000006   A3           INC       DPTR
   \   000007   A3           INC       DPTR
   \   000008   22           RET

   \                                 In  segment BANKED_CODE, align 1, keep-with-next
   \                     ?Subroutine20:
   \   000000   12....       LCALL     ?Subroutine88 & 0xFFFF
   \                     ??CrossCallReturnLabel_150:
   \   000003   A3           INC       DPTR
   \   000004   A3           INC       DPTR
   \   000005   A3           INC       DPTR
   \   000006   A3           INC       DPTR
   \   000007   A3           INC       DPTR
   \   000008   22           RET

   \                                 In  segment BANKED_CODE, align 1, keep-with-next
   \                     ?Subroutine27:
   \   000000   E8           MOV       A,R0
   \   000001   F0           MOVX      @DPTR,A
   \   000002   A3           INC       DPTR
   \   000003   E9           MOV       A,R1
   \   000004   F0           MOVX      @DPTR,A
   \   000005   22           RET

   \                                 In  segment BANKED_CODE, align 1, keep-with-next
   \                     ??Subroutine122_0:
   \   000000   E0           MOVX      A,@DPTR
   \   000001   F8           MOV       R0,A
   \   000002   A3           INC       DPTR
   \   000003   E0           MOVX      A,@DPTR
   \   000004   22           RET
    254          
    255          /*********************************************************************
    256           * @fn          ZDP_SendData
    257           *
    258           * @brief       This builds and send a request message that has
    259           *              NWKAddrOfInterest as its only parameter.
    260           *
    261           * @param       dstAddr - destination address
    262           * @param       cmd - clusterID
    263           * @param       dataLen - number of bytes of data
    264           * @param       data - pointer to the data
    265           * @param       SecurityEnable - Security Options
    266           *
    267           * @return      afStatus_t
    268           */

   \                                 In  segment BANKED_CODE, align 1, keep-with-next
    269          afStatus_t ZDP_SendData( uint8 *TransSeq, zAddrType_t *dstAddr, uint16 cmd,
   \                     ZDP_SendData:
    270                                  byte len, uint8 *buf, byte SecurityEnable )
    271          {
   \   000000                REQUIRE ?V0
   \   000000                REQUIRE ?V2
   \   000000                REQUIRE ?V3
   \   000000   74F4         MOV       A,#-0xc
   \   000002   12....       LCALL     ?BANKED_ENTER_XDATA
   \   000005                ; Saved register size: 12
   \   000005                ; Auto size: 0
   \   000005   E9           MOV       A,R1
   \   000006   FF           MOV       R7,A
    272            uint8 *pBuf = ZDP_TmpBuf;
   \   000007   90....       MOV       DPTR,#ZDP_TmpBuf
   \   00000A   12....       LCALL     ?Subroutine42 & 0xFFFF
    273            byte cnt = len;
   \                     ??CrossCallReturnLabel_63:
   \   00000D   EF           MOV       A,R7
   \   00000E   FE           MOV       R6,A
   \   00000F   740E         MOV       A,#0xe
   \   000011   12....       LCALL     ?XSTACK_DISP0_8
   \   000014   12....       LCALL     ??Subroutine121_0 & 0xFFFF
   \                     ??CrossCallReturnLabel_243:
   \   000017   801D         SJMP      ??ZDP_SendData_0
    274          
    275            while ( cnt-- )
    276            {
    277              *pBuf++ = *buf++;
   \                     ??ZDP_SendData_1:
   \   000019   8882         MOV       DPL,R0
   \   00001B   8983         MOV       DPH,R1
   \   00001D   12....       LCALL     ?Subroutine64 & 0xFFFF
    278            }
   \                     ??CrossCallReturnLabel_110:
   \   000020   8882         MOV       DPL,R0
   \   000022   8983         MOV       DPH,R1
   \   000024   A3           INC       DPTR
   \   000025   A882         MOV       R0,DPL
   \   000027   A983         MOV       R1,DPH
   \   000029   85..82       MOV       DPL,?V2
   \   00002C   85..83       MOV       DPH,?V3
   \   00002F   A3           INC       DPTR
   \   000030   8582..       MOV       ?V2,DPL
   \   000033   8583..       MOV       ?V3,DPH
   \                     ??ZDP_SendData_0:
   \   000036   74FF         MOV       A,#-0x1
   \   000038   2E           ADD       A,R6
   \   000039   FE           MOV       R6,A
   \   00003A   04           INC       A
   \   00003B   70DC         JNZ       ??ZDP_SendData_1
    279          
    280            FillAndSendTxOptions( TransSeq, dstAddr, cmd, len, ((SecurityEnable) ? AF_EN_SECURITY : 0) );
   \   00003D   7410         MOV       A,#0x10
   \   00003F   12....       LCALL     ?XSTACK_DISP0_8
   \   000042   E0           MOVX      A,@DPTR
   \   000043   90....       MOV       DPTR,#ZDP_TxOptions
   \   000046   6004         JZ        ??ZDP_SendData_2
   \   000048   7440         MOV       A,#0x40
   \   00004A   8001         SJMP      ??ZDP_SendData_3
   \                     ??ZDP_SendData_2:
   \   00004C   E4           CLR       A
   \                     ??ZDP_SendData_3:
   \   00004D   F0           MOVX      @DPTR,A
   \   00004E                ; Setup parameters for call to function fillAndSend
   \   00004E   740C         MOV       A,#0xc
   \   000050   12....       LCALL     ?XSTACK_DISP0_8
   \   000053   12....       LCALL     ?PUSH_XSTACK8_X_TWO
   \   000056   EF           MOV       A,R7
   \   000057   F9           MOV       R1,A
   \   000058   12....       LCALL     `??fillAndSend::?relay`; Banked call to: fillAndSend
   \   00005B   7402         MOV       A,#0x2
   \   00005D   12....       LCALL     ?DEALLOC_XSTACK8
   \   000060   E9           MOV       A,R1
   \   000061   F9           MOV       R1,A
   \   000062   90....       MOV       DPTR,#ZDP_TxOptions
   \   000065   E4           CLR       A
   \   000066   F0           MOVX      @DPTR,A
   \   000067   02....       LJMP      ??Subroutine97_0 & 0xFFFF
    281          }

   \                                 In  segment BANKED_CODE, align 1, keep-with-next
   \                     ??Subroutine97_0:
   \   000000   7F04         MOV       R7,#0x4
   \   000002   02....       LJMP      ?BANKED_LEAVE_XDATA

   \                                 In  segment BANKED_CODE, align 1, keep-with-next
   \                     ?Subroutine42:
   \   000000   E0           MOVX      A,@DPTR
   \   000001   F5..         MOV       ?V2,A
   \   000003   A3           INC       DPTR
   \   000004   E0           MOVX      A,@DPTR
   \   000005   F5..         MOV       ?V3,A
   \   000007   22           RET

   \                                 In  segment BANKED_CODE, align 1, keep-with-next
   \                     ??Subroutine121_0:
   \   000000   12....       LCALL     ??Subroutine122_0 & 0xFFFF
   \                     ??CrossCallReturnLabel_262:
   \   000003   F9           MOV       R1,A
   \   000004   22           RET
    282          
    283          /*********************************************************************
    284           * @fn          ZDP_NWKAddrOfInterestReq
    285           *
    286           * @brief       This builds and send a request message that has
    287           *              NWKAddrOfInterest as its only parameter.
    288           *
    289           * @param       dstAddr - destination address
    290           * @param       nwkAddr - 16 bit address
    291           * @param       SecurityEnable - Security Options
    292           *
    293           * @return      afStatus_t
    294           */

   \                                 In  segment BANKED_CODE, align 1, keep-with-next
    295          afStatus_t ZDP_NWKAddrOfInterestReq( zAddrType_t *dstAddr, uint16 nwkAddr,
   \                     ZDP_NWKAddrOfInterestReq:
    296                                               byte cmd, byte SecurityEnable )
    297          {
   \   000000                REQUIRE ?V0
   \   000000                REQUIRE ?V1
   \   000000   74F6         MOV       A,#-0xa
   \   000002   12....       LCALL     ?BANKED_ENTER_XDATA
   \   000005                ; Saved register size: 10
   \   000005                ; Auto size: 0
   \   000005   E9           MOV       A,R1
   \   000006   FE           MOV       R6,A
    298            (void)SecurityEnable;  // Intentionally unreferenced parameter
    299          
    300            ZDP_TmpBuf[0] = LO_UINT16( nwkAddr );
   \   000007   12....       LCALL     ?Subroutine17 & 0xFFFF
    301            ZDP_TmpBuf[1] = HI_UINT16( nwkAddr );
   \                     ??CrossCallReturnLabel_16:
   \   00000A   F0           MOVX      @DPTR,A
    302          
    303            return fillAndSend( &ZDP_TransID, dstAddr, cmd, 2 );
   \   00000B                ; Setup parameters for call to function fillAndSend
   \   00000B   EE           MOV       A,R6
   \   00000C   F5..         MOV       ?V0,A
   \   00000E   75..00       MOV       ?V1,#0x0
   \   000011   78..         MOV       R0,#?V0
   \   000013   12....       LCALL     ?PUSH_XSTACK_I_TWO
   \   000016   7902         MOV       R1,#0x2
   \   000018   02....       LJMP      ?Subroutine8 & 0xFFFF
    304          }

   \                                 In  segment BANKED_CODE, align 1, keep-with-next
   \                     ?Subroutine17:
   \   000000   12....       LCALL     ?Subroutine82 & 0xFFFF
   \                     ??CrossCallReturnLabel_261:
   \   000003   F583         MOV       DPH,A
   \   000005   8882         MOV       DPL,R0
   \   000007   EC           MOV       A,R4
   \   000008   12....       LCALL     ?Subroutine75 & 0xFFFF
   \                     ??CrossCallReturnLabel_131:
   \   00000B   ED           MOV       A,R5
   \   00000C   22           RET

   \                                 In  segment BANKED_CODE, align 1, keep-with-next
   \                     ??Subroutine100_0:
   \   000000   12....       LCALL     ?DEALLOC_XSTACK8
   \   000003   7F02         MOV       R7,#0x2
   \   000005   02....       LJMP      ?BANKED_LEAVE_XDATA

   \                                 In  segment BANKED_CODE, align 1, keep-with-next
   \                     ?Subroutine8:
   \   000000   EA           MOV       A,R2
   \   000001   FC           MOV       R4,A
   \   000002   EB           MOV       A,R3
   \   000003   FD           MOV       R5,A
   \   000004   7A..         MOV       R2,#ZDP_TransID & 0xff
   \   000006   7B..         MOV       R3,#(ZDP_TransID >> 8) & 0xff
   \   000008                REQUIRE ??Subroutine106_0
   \   000008                ; // Fall through to label ??Subroutine106_0

   \                                 In  segment BANKED_CODE, align 1, keep-with-next
   \                     ??Subroutine106_0:
   \   000000   12....       LCALL     `??fillAndSend::?relay`; Banked call to: fillAndSend
   \   000003   7402         MOV       A,#0x2
   \   000005   02....       LJMP      ??Subroutine100_0 & 0xFFFF

   \                                 In  segment BANKED_CODE, align 1, keep-with-next
   \                     ?Subroutine75:
   \   000000   F0           MOVX      @DPTR,A
   \   000001   90....       MOV       DPTR,#ZDP_TmpBuf
   \   000004   E0           MOVX      A,@DPTR
   \   000005   F8           MOV       R0,A
   \   000006   A3           INC       DPTR
   \   000007   E0           MOVX      A,@DPTR
   \   000008   F583         MOV       DPH,A
   \   00000A   8882         MOV       DPL,R0
   \   00000C   A3           INC       DPTR
   \   00000D   22           RET

   \                                 In  segment BANKED_CODE, align 1, keep-with-next
   \                     ?Subroutine82:
   \   000000   90....       MOV       DPTR,#ZDP_TmpBuf
   \   000003                REQUIRE ??Subroutine122_0
   \   000003                ; // Fall through to label ??Subroutine122_0
    305          
    306          /*********************************************************************
    307           * Address Requests
    308           */
    309          
    310          /*********************************************************************
    311           * @fn          ZDP_NwkAddrReq
    312           *
    313           * @brief       This builds and send a NWK_addr_req message.  This
    314           *              function sends a broadcast message looking for a 16
    315           *              bit address with a 64 bit address as bait.
    316           *
    317           * @param       IEEEAddress - looking for this device
    318           * @param       SecurityEnable - Security Options
    319           *
    320           * @return      afStatus_t
    321           */

   \                                 In  segment BANKED_CODE, align 1, keep-with-next
    322          afStatus_t ZDP_NwkAddrReq( uint8 *IEEEAddress, byte ReqType,
   \                     ZDP_NwkAddrReq:
    323                                     byte StartIndex, byte SecurityEnable )
    324          {
   \   000000                REQUIRE ?V0
   \   000000                REQUIRE ?V1
   \   000000                REQUIRE ?V2
   \   000000                REQUIRE ?V3
   \   000000   74F4         MOV       A,#-0xc
   \   000002   12....       LCALL     ?BANKED_ENTER_XDATA
   \   000005                ; Saved register size: 12
   \   000005                ; Auto size: 9
   \   000005   74F7         MOV       A,#-0x9
   \   000007   12....       LCALL     ?ALLOC_XSTACK8
   \   00000A   EA           MOV       A,R2
   \   00000B   FE           MOV       R6,A
   \   00000C   EB           MOV       A,R3
   \   00000D   FF           MOV       R7,A
   \   00000E   89..         MOV       ?V2,R1
   \   000010   8C..         MOV       ?V3,R4
    325            uint8 *pBuf = ZDP_TmpBuf;
   \   000012   12....       LCALL     ?Subroutine44 & 0xFFFF
    326            byte len = Z_EXTADDR_LEN + 1 + 1;  // IEEEAddress + ReqType + StartIndex.
    327            zAddrType_t dstAddr;
    328          
    329            (void)SecurityEnable;  // Intentionally unreferenced parameter
    330          
    331            if ( osal_ExtAddrEqual( saveExtAddr, IEEEAddress ) == FALSE )
   \                     ??CrossCallReturnLabel_167:
   \   000015                ; Setup parameters for call to function sAddrExtCmp
   \   000015   EE           MOV       A,R6
   \   000016   FC           MOV       R4,A
   \   000017   EF           MOV       A,R7
   \   000018   FD           MOV       R5,A
   \   000019   7A..         MOV       R2,#saveExtAddr & 0xff
   \   00001B   7B..         MOV       R3,#(saveExtAddr >> 8) & 0xff
   \   00001D   12....       LCALL     `??sAddrExtCmp::?relay`; Banked call to: sAddrExtCmp
   \   000020   E9           MOV       A,R1
   \   000021   700A         JNZ       ??ZDP_NwkAddrReq_0
    332            {
    333              dstAddr.addrMode = AddrBroadcast;
   \   000023   7408         MOV       A,#0x8
   \   000025   12....       LCALL     ?XSTACK_DISP0_8
   \   000028   12....       LCALL     ?Subroutine85 & 0xFFFF
    334              dstAddr.addr.shortAddr = NWK_BROADCAST_SHORTADDR_DEVRXON;
    335            }
   \                     ??CrossCallReturnLabel_145:
   \   00002B   8012         SJMP      ??ZDP_NwkAddrReq_1
    336            else
    337            {
    338              dstAddr.addrMode = Addr16Bit;
   \                     ??ZDP_NwkAddrReq_0:
   \   00002D   7408         MOV       A,#0x8
   \   00002F   12....       LCALL     ?XSTACK_DISP0_8
   \   000032   7402         MOV       A,#0x2
   \   000034   F0           MOVX      @DPTR,A
    339              dstAddr.addr.shortAddr = ZDAppNwkAddr.addr.shortAddr;
   \   000035   90....       MOV       DPTR,#ZDAppNwkAddr
   \   000038   12....       LCALL     ?Subroutine51 & 0xFFFF
    340            }
   \                     ??CrossCallReturnLabel_83:
   \   00003B   E8           MOV       A,R0
   \   00003C   F0           MOVX      @DPTR,A
   \   00003D   A3           INC       DPTR
   \   00003E   E9           MOV       A,R1
   \                     ??ZDP_NwkAddrReq_1:
   \   00003F   F0           MOVX      @DPTR,A
    341          
    342            pBuf = osal_cpyExtAddr( pBuf, IEEEAddress );
   \   000040                ; Setup parameters for call to function sAddrExtCpy
   \   000040   EE           MOV       A,R6
   \   000041   FC           MOV       R4,A
   \   000042   EF           MOV       A,R7
   \   000043   FD           MOV       R5,A
   \   000044   AA..         MOV       R2,?V0
   \   000046   AB..         MOV       R3,?V1
   \   000048   12....       LCALL     `??sAddrExtCpy::?relay`; Banked call to: sAddrExtCpy
   \   00004B   8A82         MOV       DPL,R2
   \   00004D   8B83         MOV       DPH,R3
    343          
    344            *pBuf++ = ReqType;
   \   00004F   E5..         MOV       A,?V2
   \   000051   F0           MOVX      @DPTR,A
    345            *pBuf++ = StartIndex;
   \   000052   A3           INC       DPTR
   \   000053   E5..         MOV       A,?V3
   \   000055   F0           MOVX      @DPTR,A
    346          
    347            return fillAndSend( &ZDP_TransID, &dstAddr, NWK_addr_req, len );
   \   000056                ; Setup parameters for call to function fillAndSend
   \   000056   E4           CLR       A
   \   000057   F5..         MOV       ?V0,A
   \   000059   F5..         MOV       ?V1,A
   \   00005B   78..         MOV       R0,#?V0
   \   00005D   12....       LCALL     ?PUSH_XSTACK_I_TWO
   \   000060   790A         MOV       R1,#0xa
   \   000062   7402         MOV       A,#0x2
   \   000064   12....       LCALL     ?XSTACK_DISP102_8
   \   000067                REQUIRE ?Subroutine9
   \   000067                ; // Fall through to label ?Subroutine9
    348          }

   \                                 In  segment BANKED_CODE, align 1, keep-with-next
   \                     ?Subroutine9:
   \   000000   7A..         MOV       R2,#ZDP_TransID & 0xff
   \   000002   7B..         MOV       R3,#(ZDP_TransID >> 8) & 0xff
   \   000004   12....       LCALL     `??fillAndSend::?relay`; Banked call to: fillAndSend
   \   000007   7402         MOV       A,#0x2
   \   000009   12....       LCALL     ?DEALLOC_XSTACK8
   \   00000C   7409         MOV       A,#0x9
   \   00000E   80..         SJMP      ??Subroutine96_0

   \                                 In  segment BANKED_CODE, align 1, keep-with-next
   \                     ??Subroutine96_0:
   \   000000   12....       LCALL     ?DEALLOC_XSTACK8
   \   000003                REQUIRE ??Subroutine97_0
   \   000003                ; // Fall through to label ??Subroutine97_0

   \                                 In  segment BANKED_CODE, align 1, keep-with-next
   \                     ?Subroutine85:
   \   000000   740F         MOV       A,#0xf
   \   000002   F0           MOVX      @DPTR,A
   \   000003   85..82       MOV       DPL,?XSP + 0
   \   000006   85..83       MOV       DPH,?XSP + 1
   \   000009   74FD         MOV       A,#-0x3
   \   00000B   F0           MOVX      @DPTR,A
   \   00000C   A3           INC       DPTR
   \   00000D   74FF         MOV       A,#-0x1
   \   00000F   22           RET

   \                                 In  segment BANKED_CODE, align 1, keep-with-next
   \                     ?Subroutine44:
   \   000000   90....       MOV       DPTR,#ZDP_TmpBuf
   \   000003                REQUIRE ??Subroutine102_0
   \   000003                ; // Fall through to label ??Subroutine102_0

   \                                 In  segment BANKED_CODE, align 1, keep-with-next
   \                     ??Subroutine102_0:
   \   000000   E0           MOVX      A,@DPTR
   \   000001   F5..         MOV       ?V0,A
   \   000003   A3           INC       DPTR
   \   000004   E0           MOVX      A,@DPTR
   \   000005   F5..         MOV       ?V1,A
   \   000007   22           RET
    349          
    350          /*********************************************************************
    351           * @fn          ZDP_IEEEAddrReq
    352           *
    353           * @brief       This builds and send a IEEE_addr_req message.  This
    354           *              function sends a unicast message looking for a 64
    355           *              bit IEEE address with a 16 bit address as bait.
    356           *
    357           * @param       ReqType - ZDP_IEEEADDR_REQTYPE_SINGLE or
    358           *                        ZDP_IEEEADDR_REQTYPE_EXTENDED
    359           * @param       SecurityEnable - Security Options
    360           *
    361           * @return      afStatus_t
    362           */

   \                                 In  segment BANKED_CODE, align 1, keep-with-next
    363          afStatus_t ZDP_IEEEAddrReq( uint16 shortAddr, byte ReqType,
   \                     ZDP_IEEEAddrReq:
    364                                      byte StartIndex, byte SecurityEnable )
    365          {
   \   000000                REQUIRE ?V0
   \   000000                REQUIRE ?V1
   \   000000   74F6         MOV       A,#-0xa
   \   000002   12....       LCALL     ?BANKED_ENTER_XDATA
   \   000005                ; Saved register size: 10
   \   000005                ; Auto size: 9
   \   000005   74F7         MOV       A,#-0x9
   \   000007   12....       LCALL     ?ALLOC_XSTACK8
   \   00000A   E9           MOV       A,R1
   \   00000B   FE           MOV       R6,A
   \   00000C   EC           MOV       A,R4
   \   00000D   12....       LCALL     ??Subroutine119_0 & 0xFFFF
    366            uint8 *pBuf = ZDP_TmpBuf;
    367            byte len = 2 + 1 + 1;  // shortAddr + ReqType + StartIndex.
    368            zAddrType_t dstAddr;
    369          
    370            (void)SecurityEnable;  // Intentionally unreferenced parameter
    371          
    372            dstAddr.addrMode = (afAddrMode_t)Addr16Bit;
   \                     ??CrossCallReturnLabel_242:
   \   000010   7408         MOV       A,#0x8
   \   000012   12....       LCALL     ?XSTACK_DISP0_8
   \   000015   7402         MOV       A,#0x2
   \   000017   F0           MOVX      @DPTR,A
    373            dstAddr.addr.shortAddr = shortAddr;
   \   000018   85..82       MOV       DPL,?XSP + 0
   \   00001B   85..83       MOV       DPH,?XSP + 1
   \   00001E   EA           MOV       A,R2
   \   00001F   F0           MOVX      @DPTR,A
   \   000020   A3           INC       DPTR
   \   000021   EB           MOV       A,R3
   \   000022   F0           MOVX      @DPTR,A
    374          
    375            *pBuf++ = LO_UINT16( shortAddr );
   \   000023   EA           MOV       A,R2
   \   000024   8882         MOV       DPL,R0
   \   000026   8983         MOV       DPH,R1
   \   000028   F0           MOVX      @DPTR,A
    376            *pBuf++ = HI_UINT16( shortAddr );
   \   000029   EB           MOV       A,R3
   \   00002A   12....       LCALL     ?Subroutine38 & 0xFFFF
    377          
    378            *pBuf++ = ReqType;
   \                     ??CrossCallReturnLabel_55:
   \   00002D   F0           MOVX      @DPTR,A
    379            *pBuf++ = StartIndex;
   \   00002E   EF           MOV       A,R7
   \   00002F   8882         MOV       DPL,R0
   \   000031   8983         MOV       DPH,R1
   \   000033   A3           INC       DPTR
   \   000034   A3           INC       DPTR
   \   000035   A3           INC       DPTR
   \   000036   F0           MOVX      @DPTR,A
    380          
    381            return fillAndSend( &ZDP_TransID, &dstAddr, IEEE_addr_req, len );
   \   000037                ; Setup parameters for call to function fillAndSend
   \   000037   75..01       MOV       ?V0,#0x1
   \   00003A   75..00       MOV       ?V1,#0x0
   \   00003D   78..         MOV       R0,#?V0
   \   00003F   12....       LCALL     ?PUSH_XSTACK_I_TWO
   \   000042   7904         MOV       R1,#0x4
   \   000044   02....       LJMP      ?Subroutine2 & 0xFFFF
    382          }

   \                                 In  segment BANKED_CODE, align 1, keep-with-next
   \                     ?Subroutine38:
   \   000000   A3           INC       DPTR
   \   000001   F0           MOVX      @DPTR,A
   \   000002   EE           MOV       A,R6
   \   000003   8882         MOV       DPL,R0
   \   000005   8983         MOV       DPH,R1
   \   000007   A3           INC       DPTR
   \   000008   A3           INC       DPTR
   \   000009   22           RET

   \                                 In  segment BANKED_CODE, align 1, keep-with-next
   \                     ?Subroutine2:
   \   000000   7402         MOV       A,#0x2
   \   000002   12....       LCALL     ?XSTACK_DISP102_8
   \   000005   7A..         MOV       R2,#ZDP_TransID & 0xff
   \   000007   7B..         MOV       R3,#(ZDP_TransID >> 8) & 0xff
   \   000009   12....       LCALL     `??fillAndSend::?relay`; Banked call to: fillAndSend
   \   00000C   7402         MOV       A,#0x2
   \   00000E   12....       LCALL     ?DEALLOC_XSTACK8
   \   000011                REQUIRE ??Subroutine99_0
   \   000011                ; // Fall through to label ??Subroutine99_0

   \                                 In  segment BANKED_CODE, align 1, keep-with-next
   \                     ??Subroutine99_0:
   \   000000   7409         MOV       A,#0x9
   \   000002                REQUIRE ??Subroutine100_0
   \   000002                ; // Fall through to label ??Subroutine100_0

   \                                 In  segment BANKED_CODE, align 1, keep-with-next
   \                     ??Subroutine119_0:
   \   000000   FF           MOV       R7,A
   \   000001                REQUIRE ??Subroutine120_0
   \   000001                ; // Fall through to label ??Subroutine120_0

   \                                 In  segment BANKED_CODE, align 1, keep-with-next
   \                     ??Subroutine120_0:
   \   000000   90....       MOV       DPTR,#ZDP_TmpBuf
   \   000003                REQUIRE ??Subroutine121_0
   \   000003                ; // Fall through to label ??Subroutine121_0
    383          
    384          /*********************************************************************
    385           * @fn          ZDP_MatchDescReq
    386           *
    387           * @brief       This builds and send a Match_Desc_req message.  This
    388           *              function sends a broadcast or unicast message
    389           *              requesting the list of endpoint/interfaces that
    390           *              match profile ID and cluster IDs.
    391           *
    392           * @param       dstAddr - destination address
    393           * @param       nwkAddr - network address of interest
    394           * @param       ProfileID - Profile ID
    395           * @param       NumInClusters - number of input clusters
    396           * @param       InClusterList - input cluster ID list
    397           * @param       NumOutClusters - number of output clusters
    398           * @param       OutClusterList - output cluster ID list
    399           * @param       SecurityEnable - Security Options
    400           *
    401           * @return      afStatus_t
    402           */

   \                                 In  segment BANKED_CODE, align 1, keep-with-next
    403          afStatus_t ZDP_MatchDescReq( zAddrType_t *dstAddr, uint16 nwkAddr,
   \                     ZDP_MatchDescReq:
    404                                          uint16 ProfileID,
    405                                          byte NumInClusters, cId_t *InClusterList,
    406                                          byte NumOutClusters, cId_t *OutClusterList,
    407                                          byte SecurityEnable )
    408          {
   \   000000                REQUIRE ?V0
   \   000000                REQUIRE ?V1
   \   000000                REQUIRE ?V2
   \   000000                REQUIRE ?V3
   \   000000                REQUIRE ?V4
   \   000000                REQUIRE ?V5
   \   000000   74F2         MOV       A,#-0xe
   \   000002   12....       LCALL     ?BANKED_ENTER_XDATA
   \   000005                ; Saved register size: 14
   \   000005                ; Auto size: 0
   \   000005   E9           MOV       A,R1
   \   000006   FE           MOV       R6,A
    409            uint8 *pBuf = ZDP_TmpBuf;
   \   000007   12....       LCALL     ??Subroutine120_0 & 0xFFFF
   \                     ??CrossCallReturnLabel_253:
   \   00000A   7412         MOV       A,#0x12
   \   00000C   12....       LCALL     ?XSTACK_DISP0_8
   \   00000F   E0           MOVX      A,@DPTR
   \   000010   F5..         MOV       ?V0,A
    410            // nwkAddr+ProfileID+NumInClusters+NumOutClusters.
    411            byte i, len = 2 + 2 + 1 + 1;  // nwkAddr+ProfileID+NumInClusters+NumOutClusters.
    412          
    413            (void)SecurityEnable;  // Intentionally unreferenced parameter
    414          
    415            len += (NumInClusters + NumOutClusters) * sizeof(uint16);
   \   000012   EE           MOV       A,R6
   \   000013   25..         ADD       A,?V0
   \   000015   C3           CLR       C
   \   000016   33           RLC       A
   \   000017   2406         ADD       A,#0x6
   \   000019   FF           MOV       R7,A
    416          
    417            if ( len >= ZDP_BUF_SZ-1 )
   \   00001A   C3           CLR       C
   \   00001B   944F         SUBB      A,#0x4f
   \   00001D   4005         JC        ??ZDP_MatchDescReq_0
    418            {
    419              return afStatus_MEM_FAIL;
   \   00001F   7910         MOV       R1,#0x10
   \   000021   02....       LJMP      ??ZDP_MatchDescReq_1 & 0xFFFF
    420            }
    421          
    422            // The spec changed in Zigbee 2007 (2.4.3.1.7.1) to not allow sending
    423            // this command to 0xFFFF.  So, here we will filter this and replace
    424            // with 0xFFFD to only send to devices with RX ON.  This includes the
    425            // network address of interest.
    426            if ( ((dstAddr->addrMode == AddrBroadcast) || (dstAddr->addrMode == Addr16Bit))
    427                && (dstAddr->addr.shortAddr == NWK_BROADCAST_SHORTADDR_DEVALL) )
   \                     ??ZDP_MatchDescReq_0:
   \   000024   8A82         MOV       DPL,R2
   \   000026   8B83         MOV       DPH,R3
   \   000028   A3           INC       DPTR
   \   000029   A3           INC       DPTR
   \   00002A   A3           INC       DPTR
   \   00002B   A3           INC       DPTR
   \   00002C   A3           INC       DPTR
   \   00002D   A3           INC       DPTR
   \   00002E   A3           INC       DPTR
   \   00002F   A3           INC       DPTR
   \   000030   E0           MOVX      A,@DPTR
   \   000031   F5..         MOV       ?V1,A
   \   000033   740F         MOV       A,#0xf
   \   000035   65..         XRL       A,?V1
   \   000037   6006         JZ        ??ZDP_MatchDescReq_2
   \   000039   7402         MOV       A,#0x2
   \   00003B   65..         XRL       A,?V1
   \   00003D   7018         JNZ       ??ZDP_MatchDescReq_3
   \                     ??ZDP_MatchDescReq_2:
   \   00003F   8A82         MOV       DPL,R2
   \   000041   8B83         MOV       DPH,R3
   \   000043   E0           MOVX      A,@DPTR
   \   000044   F4           CPL       A
   \   000045   7003         JNZ       ??ZDP_MatchDescReq_4
   \   000047   A3           INC       DPTR
   \   000048   E0           MOVX      A,@DPTR
   \   000049   F4           CPL       A
   \                     ??ZDP_MatchDescReq_4:
   \   00004A   700B         JNZ       ??ZDP_MatchDescReq_3
    428            {
    429              dstAddr->addr.shortAddr = NWK_BROADCAST_SHORTADDR_DEVRXON;
   \   00004C   8A82         MOV       DPL,R2
   \   00004E   8B83         MOV       DPH,R3
   \   000050   74FD         MOV       A,#-0x3
   \   000052   F0           MOVX      @DPTR,A
   \   000053   A3           INC       DPTR
   \   000054   74FF         MOV       A,#-0x1
   \   000056   F0           MOVX      @DPTR,A
    430            }
    431            if ( nwkAddr == NWK_BROADCAST_SHORTADDR_DEVALL )
   \                     ??ZDP_MatchDescReq_3:
   \   000057   74FF         MOV       A,#-0x1
   \   000059   6C           XRL       A,R4
   \   00005A   7003         JNZ       ??ZDP_MatchDescReq_5
   \   00005C   74FF         MOV       A,#-0x1
   \   00005E   6D           XRL       A,R5
   \                     ??ZDP_MatchDescReq_5:
   \   00005F   7004         JNZ       ??ZDP_MatchDescReq_6
    432            {
    433              nwkAddr = NWK_BROADCAST_SHORTADDR_DEVRXON;
   \   000061   7CFD         MOV       R4,#-0x3
   \   000063   7DFF         MOV       R5,#-0x1
    434            }
    435          
    436            *pBuf++ = LO_UINT16( nwkAddr );   // NWKAddrOfInterest
   \                     ??ZDP_MatchDescReq_6:
   \   000065   EC           MOV       A,R4
   \   000066   8882         MOV       DPL,R0
   \   000068   8983         MOV       DPH,R1
   \   00006A   F0           MOVX      @DPTR,A
    437            *pBuf++ = HI_UINT16( nwkAddr );
   \   00006B   ED           MOV       A,R5
   \   00006C   A3           INC       DPTR
   \   00006D   F0           MOVX      @DPTR,A
   \   00006E   740E         MOV       A,#0xe
   \   000070   12....       LCALL     ?XSTACK_DISP0_8
   \   000073   12....       LCALL     ?Subroutine53 & 0xFFFF
    438          
    439            *pBuf++ = LO_UINT16( ProfileID );   // Profile ID
   \                     ??CrossCallReturnLabel_84:
   \   000076   EC           MOV       A,R4
   \   000077   8882         MOV       DPL,R0
   \   000079   8983         MOV       DPH,R1
   \   00007B   A3           INC       DPTR
   \   00007C   A3           INC       DPTR
   \   00007D   F0           MOVX      @DPTR,A
    440            *pBuf++ = HI_UINT16( ProfileID );
   \   00007E   ED           MOV       A,R5
   \   00007F   8882         MOV       DPL,R0
   \   000081   8983         MOV       DPH,R1
   \   000083   A3           INC       DPTR
   \   000084   A3           INC       DPTR
   \   000085   12....       LCALL     ?Subroutine38 & 0xFFFF
    441          
    442            *pBuf++ = NumInClusters; // Input cluster list
   \                     ??CrossCallReturnLabel_56:
   \   000088   A3           INC       DPTR
   \   000089   A3           INC       DPTR
   \   00008A   F0           MOVX      @DPTR,A
   \   00008B   E8           MOV       A,R0
   \   00008C   2405         ADD       A,#0x5
   \   00008E   F8           MOV       R0,A
   \   00008F   5001         JNC       ??ZDP_MatchDescReq_7
   \   000091   09           INC       R1
    443            if ( NumInClusters )
   \                     ??ZDP_MatchDescReq_7:
   \   000092   EE           MOV       A,R6
   \   000093   6019         JZ        ??ZDP_MatchDescReq_8
    444            {
    445              for (i=0; i<NumInClusters; ++i)  {
   \   000095   75..00       MOV       ?V1,#0x0
   \   000098   7410         MOV       A,#0x10
   \   00009A   12....       LCALL     ?XSTACK_DISP0_8
   \   00009D   12....       LCALL     ?Subroutine53 & 0xFFFF
    446                *pBuf++ = LO_UINT16( InClusterList[i] );
   \                     ??CrossCallReturnLabel_85:
   \   0000A0   12....       LCALL     ?Subroutine11 & 0xFFFF
    447                *pBuf++ = HI_UINT16( InClusterList[i] );
    448              }
   \                     ??CrossCallReturnLabel_2:
   \   0000A3   5001         JNC       ??ZDP_MatchDescReq_9
   \   0000A5   09           INC       R1
   \                     ??ZDP_MatchDescReq_9:
   \   0000A6   05..         INC       ?V1
   \   0000A8   E5..         MOV       A,?V1
   \   0000AA   C3           CLR       C
   \   0000AB   9E           SUBB      A,R6
   \   0000AC   40F2         JC        ??CrossCallReturnLabel_85
    449            }
    450          
    451            *pBuf++ = NumOutClusters; // Output cluster list
   \                     ??ZDP_MatchDescReq_8:
   \   0000AE   8882         MOV       DPL,R0
   \   0000B0   8983         MOV       DPH,R1
   \   0000B2   E5..         MOV       A,?V0
   \   0000B4   F0           MOVX      @DPTR,A
   \   0000B5   A3           INC       DPTR
   \   0000B6   A882         MOV       R0,DPL
   \   0000B8   A983         MOV       R1,DPH
    452            if ( NumOutClusters )
   \   0000BA   601A         JZ        ??ZDP_MatchDescReq_10
    453            {
    454              for (i=0; i<NumOutClusters; ++i)  {
   \   0000BC   75..00       MOV       ?V1,#0x0
   \   0000BF   7413         MOV       A,#0x13
   \   0000C1   12....       LCALL     ?XSTACK_DISP0_8
   \   0000C4   12....       LCALL     ?Subroutine53 & 0xFFFF
    455                *pBuf++ = LO_UINT16( OutClusterList[i] );
   \                     ??CrossCallReturnLabel_86:
   \   0000C7   12....       LCALL     ?Subroutine11 & 0xFFFF
    456                *pBuf++ = HI_UINT16( OutClusterList[i] );
    457              }
   \                     ??CrossCallReturnLabel_3:
   \   0000CA   5001         JNC       ??ZDP_MatchDescReq_11
   \   0000CC   09           INC       R1
   \                     ??ZDP_MatchDescReq_11:
   \   0000CD   05..         INC       ?V1
   \   0000CF   E5..         MOV       A,?V1
   \   0000D1   C3           CLR       C
   \   0000D2   95..         SUBB      A,?V0
   \   0000D4   40F1         JC        ??CrossCallReturnLabel_86
    458            }
    459          
    460            return fillAndSend( &ZDP_TransID, dstAddr, Match_Desc_req, len );
   \                     ??ZDP_MatchDescReq_10:
   \   0000D6                ; Setup parameters for call to function fillAndSend
   \   0000D6   75..06       MOV       ?V0,#0x6
   \   0000D9   75..00       MOV       ?V1,#0x0
   \   0000DC   78..         MOV       R0,#?V0
   \   0000DE   12....       LCALL     ?PUSH_XSTACK_I_TWO
   \   0000E1   EF           MOV       A,R7
   \   0000E2   F9           MOV       R1,A
   \   0000E3   EA           MOV       A,R2
   \   0000E4   FC           MOV       R4,A
   \   0000E5   EB           MOV       A,R3
   \   0000E6   FD           MOV       R5,A
   \   0000E7   7A..         MOV       R2,#ZDP_TransID & 0xff
   \   0000E9   7B..         MOV       R3,#(ZDP_TransID >> 8) & 0xff
   \   0000EB   12....       LCALL     `??fillAndSend::?relay`; Banked call to: fillAndSend
   \   0000EE   7402         MOV       A,#0x2
   \   0000F0   12....       LCALL     ?DEALLOC_XSTACK8
   \                     ??ZDP_MatchDescReq_1:
   \   0000F3   80..         SJMP      ??Subroutine98_0
    461          }

   \                                 In  segment BANKED_CODE, align 1, keep-with-next
   \                     ?Subroutine11:
   \   000000   E5..         MOV       A,?V1
   \   000002   12....       LCALL     ?Subroutine92 & 0xFFFF
   \                     ??CrossCallReturnLabel_158:
   \   000005   EC           MOV       A,R4
   \   000006   25..         ADD       A,?V2
   \   000008   F5..         MOV       ?V2,A
   \   00000A   ED           MOV       A,R5
   \   00000B   35..         ADDC      A,?V3
   \   00000D   F5..         MOV       ?V3,A
   \   00000F   85..82       MOV       DPL,?V2
   \   000012   12....       LCALL     ?Subroutine81 & 0xFFFF
   \                     ??CrossCallReturnLabel_233:
   \   000015   12....       LCALL     ?Subroutine93 & 0xFFFF
   \                     ??CrossCallReturnLabel_159:
   \   000018   12....       LCALL     ?Subroutine76 & 0xFFFF
   \                     ??CrossCallReturnLabel_134:
   \   00001B   22           RET

   \                                 In  segment BANKED_CODE, align 1, keep-with-next
   \                     ?Subroutine92:
   \   000000   25E0         ADD       A,0xE0 /* A   */
   \   000002   F5..         MOV       ?V2,A
   \   000004   E4           CLR       A
   \   000005   33           RLC       A
   \   000006   F5..         MOV       ?V3,A
   \   000008   22           RET

   \                                 In  segment BANKED_CODE, align 1, keep-with-next
   \                     ?Subroutine76:
   \   000000   A3           INC       DPTR
   \   000001   E0           MOVX      A,@DPTR
   \   000002   8882         MOV       DPL,R0
   \   000004   8983         MOV       DPH,R1
   \   000006   A3           INC       DPTR
   \   000007   F0           MOVX      @DPTR,A
   \   000008   E8           MOV       A,R0
   \   000009   2402         ADD       A,#0x2
   \   00000B   F8           MOV       R0,A
   \   00000C   22           RET

   \                                 In  segment BANKED_CODE, align 1, keep-with-next
   \                     ?Subroutine93:
   \   000000   F0           MOVX      @DPTR,A
   \   000001   85..82       MOV       DPL,?V2
   \   000004   85..83       MOV       DPH,?V3
   \   000007   22           RET

   \                                 In  segment BANKED_CODE, align 1, keep-with-next
   \                     ?Subroutine53:
   \   000000   E0           MOVX      A,@DPTR
   \   000001   FC           MOV       R4,A
   \   000002   A3           INC       DPTR
   \   000003   E0           MOVX      A,@DPTR
   \   000004   FD           MOV       R5,A
   \   000005   22           RET

   \                                 In  segment BANKED_CODE, align 1, keep-with-next
   \                     ?Subroutine81:
   \   000000   F583         MOV       DPH,A
   \   000002                REQUIRE ??Subroutine117_0
   \   000002                ; // Fall through to label ??Subroutine117_0

   \                                 In  segment BANKED_CODE, align 1, keep-with-next
   \                     ??Subroutine117_0:
   \   000000   E0           MOVX      A,@DPTR
   \   000001   8882         MOV       DPL,R0
   \   000003   8983         MOV       DPH,R1
   \   000005   22           RET
    462          
    463          /*********************************************************************
    464           * @fn          ZDP_SimpleDescReq
    465           *
    466           * @brief       This builds and send a NWK_Simple_Desc_req
    467           *              message.  This function sends unicast message to the
    468           *              destination device.
    469           *
    470           * @param       dstAddr - destination address
    471           * @param       nwkAddr - 16 bit address
    472           * @param       epIntf - endpoint/interface
    473           * @param       SecurityEnable - Security Options
    474           *
    475           * @return      afStatus_t
    476           */

   \                                 In  segment BANKED_CODE, align 1, keep-with-next
    477          afStatus_t ZDP_SimpleDescReq( zAddrType_t *dstAddr, uint16 nwkAddr,
   \                     ZDP_SimpleDescReq:
    478                                              byte endPoint, byte SecurityEnable )
    479          
    480          {
   \   000000                REQUIRE ?V0
   \   000000                REQUIRE ?V1
   \   000000   74F6         MOV       A,#-0xa
   \   000002   12....       LCALL     ?BANKED_ENTER_XDATA
   \   000005                ; Saved register size: 10
   \   000005                ; Auto size: 0
    481            (void)SecurityEnable;  // Intentionally unreferenced parameter
    482          
    483            ZDP_TmpBuf[0] = LO_UINT16( nwkAddr );
   \   000005   12....       LCALL     ?Subroutine17 & 0xFFFF
    484            ZDP_TmpBuf[1] = HI_UINT16( nwkAddr );
   \                     ??CrossCallReturnLabel_17:
   \   000008   12....       LCALL     ?Subroutine13 & 0xFFFF
    485            ZDP_TmpBuf[2] = endPoint;
    486          
    487            return fillAndSend( &ZDP_TransID, dstAddr, Simple_Desc_req, 3 );
   \                     ??CrossCallReturnLabel_6:
   \   00000B                ; Setup parameters for call to function fillAndSend
   \   00000B   75..04       MOV       ?V0,#0x4
   \   00000E   75..00       MOV       ?V1,#0x0
   \   000011   78..         MOV       R0,#?V0
   \   000013   12....       LCALL     ?PUSH_XSTACK_I_TWO
   \   000016   7903         MOV       R1,#0x3
   \   000018   02....       LJMP      ?Subroutine8 & 0xFFFF
    488          }

   \                                 In  segment BANKED_CODE, align 1, keep-with-next
   \                     ?Subroutine13:
   \   000000   12....       LCALL     ?Subroutine75 & 0xFFFF
   \                     ??CrossCallReturnLabel_132:
   \   000003   A3           INC       DPTR
   \   000004   E9           MOV       A,R1
   \   000005   F0           MOVX      @DPTR,A
   \   000006   22           RET
    489          
    490          /*********************************************************************
    491           * @fn          ZDP_UserDescSet
    492           *
    493           * @brief       This builds and send a User_Desc_set message to set
    494           *              the user descriptor.  This function sends unicast
    495           *              message to the destination device.
    496           *
    497           * @param       dstAddr - destination address
    498           * @param       nwkAddr - 16 bit address
    499           * @param       UserDescriptor - user descriptor
    500           * @param       SecurityEnable - Security Options
    501           *
    502           * @return      afStatus_t
    503           */

   \                                 In  segment BANKED_CODE, align 1, keep-with-next
    504          afStatus_t ZDP_UserDescSet( zAddrType_t *dstAddr, uint16 nwkAddr,
   \                     ZDP_UserDescSet:
    505                                    UserDescriptorFormat_t *UserDescriptor,
    506                                    byte SecurityEnable )
    507          {
   \   000000                REQUIRE ?V0
   \   000000                REQUIRE ?V2
   \   000000                REQUIRE ?V3
   \   000000                REQUIRE ?V4
   \   000000                REQUIRE ?V5
   \   000000                REQUIRE ?V6
   \   000000   74F1         MOV       A,#-0xf
   \   000002   12....       LCALL     ?BANKED_ENTER_XDATA
   \   000005                ; Saved register size: 15
   \   000005                ; Auto size: 0
   \   000005   12....       LCALL     ?Subroutine60 & 0xFFFF
    508            uint8 *pBuf = ZDP_TmpBuf;
   \                     ??CrossCallReturnLabel_240:
   \   000008   88..         MOV       ?V2,R0
   \   00000A   89..         MOV       ?V3,R1
   \   00000C   740F         MOV       A,#0xf
   \   00000E   12....       LCALL     ?XSTACK_DISP0_8
   \   000011   12....       LCALL     ?Subroutine45 & 0xFFFF
    509            byte len = (UserDescriptor->len < AF_MAX_USER_DESCRIPTOR_LEN) ?
    510                        UserDescriptor->len : AF_MAX_USER_DESCRIPTOR_LEN;
   \                     ??CrossCallReturnLabel_69:
   \   000014   FA           MOV       R2,A
   \   000015   C3           CLR       C
   \   000016   9410         SUBB      A,#0x10
   \   000018   5004         JNC       ??ZDP_UserDescSet_0
   \   00001A   8A..         MOV       ?V0,R2
   \   00001C   8003         SJMP      ??ZDP_UserDescSet_1
   \                     ??ZDP_UserDescSet_0:
   \   00001E   75..10       MOV       ?V0,#0x10
    511            byte addrLen = 2;
    512          
    513            (void)SecurityEnable;  // Intentionally unreferenced parameter
    514          
    515            *pBuf++ = LO_UINT16( nwkAddr );
   \                     ??ZDP_UserDescSet_1:
   \   000021   EC           MOV       A,R4
   \   000022   85..82       MOV       DPL,?V2
   \   000025   85..83       MOV       DPH,?V3
   \   000028   F0           MOVX      @DPTR,A
    516            *pBuf++ = HI_UINT16( nwkAddr );
   \   000029   ED           MOV       A,R5
   \   00002A   A3           INC       DPTR
   \   00002B   12....       LCALL     ?Subroutine32 & 0xFFFF
    517          
    518            *pBuf++ = len;
   \                     ??CrossCallReturnLabel_45:
   \   00002E   E5..         MOV       A,?V0
   \   000030   12....       LCALL     ?Subroutine10 & 0xFFFF
    519            addrLen = 3;
    520          
    521            pBuf = osal_memcpy( pBuf, UserDescriptor->desc, len );
   \                     ??CrossCallReturnLabel_0:
   \   000033   12....       LCALL     ?PUSH_XSTACK_I_THREE
   \   000036   AC..         MOV       R4,?V0
   \   000038   7D00         MOV       R5,#0x0
   \   00003A   E5..         MOV       A,?V2
   \   00003C   2403         ADD       A,#0x3
   \   00003E   FA           MOV       R2,A
   \   00003F   E4           CLR       A
   \   000040   35..         ADDC      A,?V3
   \   000042   FB           MOV       R3,A
   \   000043   12....       LCALL     `??osal_memcpy::?relay`; Banked call to: osal_memcpy
   \   000046   7403         MOV       A,#0x3
   \   000048   12....       LCALL     ?DEALLOC_XSTACK8
    522            osal_memset( pBuf, AF_USER_DESCRIPTOR_FILL, AF_MAX_USER_DESCRIPTOR_LEN-len );
   \   00004B                ; Setup parameters for call to function osal_memset
   \   00004B   A8..         MOV       R0,?V0
   \   00004D   7410         MOV       A,#0x10
   \   00004F   C3           CLR       C
   \   000050   98           SUBB      A,R0
   \   000051   FC           MOV       R4,A
   \   000052   95E0         SUBB      A,0xE0 /* A   */
   \   000054   FD           MOV       R5,A
   \   000055   7920         MOV       R1,#0x20
   \   000057   12....       LCALL     `??osal_memset::?relay`; Banked call to: osal_memset
    523          
    524            return fillAndSend( &ZDP_TransID, dstAddr, User_Desc_set, (AF_MAX_USER_DESCRIPTOR_LEN + addrLen) );
   \   00005A                ; Setup parameters for call to function fillAndSend
   \   00005A   75..14       MOV       ?V2,#0x14
   \   00005D   75..00       MOV       ?V3,#0x0
   \   000060   78..         MOV       R0,#?V2
   \   000062   12....       LCALL     ?PUSH_XSTACK_I_TWO
   \   000065   7913         MOV       R1,#0x13
   \   000067   EE           MOV       A,R6
   \   000068   FC           MOV       R4,A
   \   000069   EF           MOV       A,R7
   \   00006A   FD           MOV       R5,A
   \   00006B   7A..         MOV       R2,#ZDP_TransID & 0xff
   \   00006D   7B..         MOV       R3,#(ZDP_TransID >> 8) & 0xff
   \   00006F   12....       LCALL     `??fillAndSend::?relay`; Banked call to: fillAndSend
   \   000072   7402         MOV       A,#0x2
   \   000074                REQUIRE ?Subroutine3
   \   000074                ; // Fall through to label ?Subroutine3
    525          }

   \                                 In  segment BANKED_CODE, align 1, keep-with-next
   \                     ?Subroutine3:
   \   000000   12....       LCALL     ?DEALLOC_XSTACK8
   \   000003   7F07         MOV       R7,#0x7
   \   000005   02....       LJMP      ?BANKED_LEAVE_XDATA

   \                                 In  segment BANKED_CODE, align 1, keep-with-next
   \                     ?Subroutine45:
   \   000000   12....       LCALL     ??Subroutine122_0 & 0xFFFF
   \                     ??CrossCallReturnLabel_257:
   \   000003   F9           MOV       R1,A
   \   000004   8882         MOV       DPL,R0
   \   000006   8983         MOV       DPH,R1
   \   000008   E0           MOVX      A,@DPTR
   \   000009   22           RET

   \                                 In  segment BANKED_CODE, align 1, keep-with-next
   \                     ?Subroutine87:
   \   000000   12....       LCALL     ?Subroutine94 & 0xFFFF
   \                     ??CrossCallReturnLabel_194:
   \   000003   A3           INC       DPTR
   \   000004   22           RET

   \                                 In  segment BANKED_CODE, align 1, keep-with-next
   \                     ?Subroutine94:
   \   000000   F0           MOVX      @DPTR,A
   \   000001                ; Setup parameters for call to function osal_memcpy
   \   000001                ; Setup parameters for call to function osal_memcpy
   \   000001   8882         MOV       DPL,R0
   \   000003   8983         MOV       DPH,R1
   \   000005   22           RET

   \                                 In  segment BANKED_CODE, align 1, keep-with-next
   \                     ?Subroutine10:
   \   000000   12....       LCALL     ?Subroutine87 & 0xFFFF
   \                     ??CrossCallReturnLabel_182:
   \   000003   A982         MOV       R1,DPL
   \   000005   AA83         MOV       R2,DPH
   \   000007   89..         MOV       ?V4,R1
   \   000009   8A..         MOV       ?V5,R2
   \   00000B   75..00       MOV       ?V6,#0x0
   \   00000E   78..         MOV       R0,#?V4
   \   000010   22           RET

   \                                 In  segment BANKED_CODE, align 1, keep-with-next
   \                     ?Subroutine32:
   \   000000   12....       LCALL     ?Subroutine89 & 0xFFFF
   \                     ??CrossCallReturnLabel_152:
   \   000003   A3           INC       DPTR
   \   000004   22           RET

   \                                 In  segment BANKED_CODE, align 1, keep-with-next
   \                     ?Subroutine89:
   \   000000   12....       LCALL     ?Subroutine93 & 0xFFFF
   \                     ??CrossCallReturnLabel_161:
   \   000003   A3           INC       DPTR
   \   000004   22           RET

   \                                 In  segment BANKED_CODE, align 1, keep-with-next
   \                     ?Subroutine60:
   \   000000   EA           MOV       A,R2
   \   000001   FE           MOV       R6,A
   \   000002   EB           MOV       A,R3
   \   000003                REQUIRE ??Subroutine119_0
   \   000003                ; // Fall through to label ??Subroutine119_0
    526          
    527          /*********************************************************************
    528           * @fn          ZDP_ServerDiscReq
    529           *
    530           * @brief       Build and send a Server_Discovery_req request message.
    531           *
    532           * @param       serverMask - 16-bit bit-mask of server services being sought.
    533           * @param       SecurityEnable - Security Options
    534           *
    535           * @return      afStatus_t
    536           */

   \                                 In  segment BANKED_CODE, align 1, keep-with-next
    537          afStatus_t ZDP_ServerDiscReq( uint16 serverMask, byte SecurityEnable )
   \                     ZDP_ServerDiscReq:
    538          {
   \   000000                REQUIRE ?V0
   \   000000                REQUIRE ?V1
   \   000000   74F6         MOV       A,#-0xa
   \   000002   12....       LCALL     ?BANKED_ENTER_XDATA
   \   000005                ; Saved register size: 10
   \   000005                ; Auto size: 9
   \   000005   74F7         MOV       A,#-0x9
   \   000007   12....       LCALL     ?ALLOC_XSTACK8
   \   00000A   E9           MOV       A,R1
   \   00000B   FE           MOV       R6,A
    539            uint8 *pBuf = ZDP_TmpBuf;
   \   00000C   12....       LCALL     ??Subroutine120_0 & 0xFFFF
    540            zAddrType_t dstAddr;
    541          
    542            dstAddr.addrMode = AddrBroadcast;
   \                     ??CrossCallReturnLabel_254:
   \   00000F   7408         MOV       A,#0x8
   \   000011   12....       LCALL     ?XSTACK_DISP0_8
   \   000014   12....       LCALL     ?Subroutine18 & 0xFFFF
    543            dstAddr.addr.shortAddr = NWK_BROADCAST_SHORTADDR_DEVRXON;
    544          
    545            *pBuf++ = LO_UINT16( serverMask );
   \                     ??CrossCallReturnLabel_18:
   \   000017   EA           MOV       A,R2
   \   000018   8882         MOV       DPL,R0
   \   00001A   8983         MOV       DPH,R1
   \   00001C   F0           MOVX      @DPTR,A
    546            *pBuf = HI_UINT16( serverMask );
   \   00001D   EB           MOV       A,R3
   \   00001E   A3           INC       DPTR
   \   00001F   F0           MOVX      @DPTR,A
    547          
    548            FillAndSendTxOptions( &ZDP_TransID, &dstAddr, Server_Discovery_req, 2,
    549                       ((SecurityEnable) ? AF_EN_SECURITY : AF_TX_OPTIONS_NONE) );
   \   000020   EE           MOV       A,R6
   \   000021   90....       MOV       DPTR,#ZDP_TxOptions
   \   000024   6004         JZ        ??ZDP_ServerDiscReq_0
   \   000026   7440         MOV       A,#0x40
   \   000028   8001         SJMP      ??ZDP_ServerDiscReq_1
   \                     ??ZDP_ServerDiscReq_0:
   \   00002A   E4           CLR       A
   \                     ??ZDP_ServerDiscReq_1:
   \   00002B   F0           MOVX      @DPTR,A
   \   00002C                ; Setup parameters for call to function fillAndSend
   \   00002C   75..15       MOV       ?V0,#0x15
   \   00002F   75..00       MOV       ?V1,#0x0
   \   000032   78..         MOV       R0,#?V0
   \   000034   12....       LCALL     ?PUSH_XSTACK_I_TWO
   \   000037   7902         MOV       R1,#0x2
   \   000039   E9           MOV       A,R1
   \   00003A   12....       LCALL     ?XSTACK_DISP102_8
   \   00003D   7A..         MOV       R2,#ZDP_TransID & 0xff
   \   00003F   7B..         MOV       R3,#(ZDP_TransID >> 8) & 0xff
   \   000041   12....       LCALL     `??fillAndSend::?relay`; Banked call to: fillAndSend
   \   000044   7402         MOV       A,#0x2
   \   000046   12....       LCALL     ?DEALLOC_XSTACK8
   \   000049   E9           MOV       A,R1
   \   00004A   F9           MOV       R1,A
   \   00004B   90....       MOV       DPTR,#ZDP_TxOptions
   \   00004E   E4           CLR       A
   \   00004F   F0           MOVX      @DPTR,A
   \   000050   02....       LJMP      ??Subroutine99_0 & 0xFFFF
    550          }

   \                                 In  segment BANKED_CODE, align 1, keep-with-next
   \                     ?Subroutine18:
   \   000000   12....       LCALL     ?Subroutine85 & 0xFFFF
   \                     ??CrossCallReturnLabel_146:
   \   000003   F0           MOVX      @DPTR,A
   \   000004   22           RET
    551          
    552          /*********************************************************************
    553           * @fn          ZDP_DeviceAnnce
    554           *
    555           * @brief       This builds and send a Device_Annce message.  This
    556           *              function sends a broadcast message.
    557           *
    558           * @param       nwkAddr - 16 bit address of the device
    559           * @param       IEEEAddr - 64 bit address of the device
    560           * @param       capabilities - device capabilities.  This field is only
    561           *                 sent for v1.1 networks.
    562           * @param       SecurityEnable - Security Options
    563           *
    564           * @return      afStatus_t
    565           */

   \                                 In  segment BANKED_CODE, align 1, keep-with-next
    566          afStatus_t ZDP_DeviceAnnce( uint16 nwkAddr, uint8 *IEEEAddr,
   \                     ZDP_DeviceAnnce:
    567                                        byte capabilities, byte SecurityEnable )
    568          {
   \   000000                REQUIRE ?V0
   \   000000                REQUIRE ?V1
   \   000000   74F6         MOV       A,#-0xa
   \   000002   12....       LCALL     ?BANKED_ENTER_XDATA
   \   000005                ; Saved register size: 10
   \   000005                ; Auto size: 9
   \   000005   74F7         MOV       A,#-0x9
   \   000007   12....       LCALL     ?ALLOC_XSTACK8
   \   00000A   E9           MOV       A,R1
   \   00000B   FE           MOV       R6,A
    569            zAddrType_t dstAddr;
    570            uint8 len;
    571          
    572            (void)SecurityEnable;  // Intentionally unreferenced parameter
    573          
    574            dstAddr.addrMode = (afAddrMode_t)AddrBroadcast;
   \   00000C   7408         MOV       A,#0x8
   \   00000E   12....       LCALL     ?XSTACK_DISP0_8
   \   000011   12....       LCALL     ?Subroutine18 & 0xFFFF
    575            dstAddr.addr.shortAddr = NWK_BROADCAST_SHORTADDR_DEVRXON;
    576          
    577            ZDP_TmpBuf[0] = LO_UINT16( nwkAddr );
   \                     ??CrossCallReturnLabel_19:
   \   000014   12....       LCALL     ?Subroutine47 & 0xFFFF
   \                     ??CrossCallReturnLabel_201:
   \   000017   EA           MOV       A,R2
   \   000018   12....       LCALL     ?Subroutine21 & 0xFFFF
    578            ZDP_TmpBuf[1] = HI_UINT16( nwkAddr );
   \                     ??CrossCallReturnLabel_24:
   \   00001B   EB           MOV       A,R3
   \   00001C   F0           MOVX      @DPTR,A
    579            osal_cpyExtAddr( &ZDP_TmpBuf[2], IEEEAddr );
   \   00001D                ; Setup parameters for call to function sAddrExtCpy
   \   00001D   90....       MOV       DPTR,#ZDP_TmpBuf
   \   000020   E0           MOVX      A,@DPTR
   \   000021   2402         ADD       A,#0x2
   \   000023   FA           MOV       R2,A
   \   000024   A3           INC       DPTR
   \   000025   E0           MOVX      A,@DPTR
   \   000026   3400         ADDC      A,#0x0
   \   000028   FB           MOV       R3,A
   \   000029   12....       LCALL     `??sAddrExtCpy::?relay`; Banked call to: sAddrExtCpy
    580            len = 2 + Z_EXTADDR_LEN;
    581          
    582            ZDP_TmpBuf[10] = capabilities;
   \   00002C   12....       LCALL     ?Subroutine82 & 0xFFFF
   \                     ??CrossCallReturnLabel_259:
   \   00002F   C8           XCH       A,R0
   \   000030   240A         ADD       A,#0xa
   \   000032   F582         MOV       DPL,A
   \   000034   E4           CLR       A
   \   000035   38           ADDC      A,R0
   \   000036   F583         MOV       DPH,A
   \   000038   EE           MOV       A,R6
   \   000039   F0           MOVX      @DPTR,A
    583            len++;
    584          
    585            return fillAndSend( &ZDP_TransID, &dstAddr, Device_annce, len );
   \   00003A                ; Setup parameters for call to function fillAndSend
   \   00003A   75..13       MOV       ?V0,#0x13
   \   00003D   75..00       MOV       ?V1,#0x0
   \   000040   78..         MOV       R0,#?V0
   \   000042   12....       LCALL     ?PUSH_XSTACK_I_TWO
   \   000045   790B         MOV       R1,#0xb
   \   000047   02....       LJMP      ?Subroutine2 & 0xFFFF
    586          }

   \                                 In  segment BANKED_CODE, align 1, keep-with-next
   \                     ?Subroutine47:
   \   000000   90....       MOV       DPTR,#ZDP_TmpBuf
   \   000003   E0           MOVX      A,@DPTR
   \   000004                REQUIRE ??Subroutine110_0
   \   000004                ; // Fall through to label ??Subroutine110_0

   \                                 In  segment BANKED_CODE, align 1, keep-with-next
   \                     ??Subroutine110_0:
   \   000000   F8           MOV       R0,A
   \   000001   A3           INC       DPTR
   \   000002   E0           MOVX      A,@DPTR
   \   000003   F583         MOV       DPH,A
   \   000005   8882         MOV       DPL,R0
   \   000007   22           RET

   \                                 In  segment BANKED_CODE, align 1, keep-with-next
   \                     ?Subroutine21:
   \   000000   12....       LCALL     ?Subroutine75 & 0xFFFF
   \                     ??CrossCallReturnLabel_133:
   \   000003   22           RET
    587          
    588          /*********************************************************************
    589           * @fn          ZDP_ParentAnnce
    590           *
    591           * @brief       This builds and send a Parent_Annce and Parent_Annce_Rsp
    592           *              messages, it will depend on the clusterID parameter.
    593           *
    594           * @param       TransSeq - ZDP Transaction Sequence Number
    595           * @param       dstAddr - destination address
    596           * @param       numberOfChildren - 8 bit number of children
    597           * @param       childInfo - list of children information (ExtAddr and Age)
    598           * @param       clusterID - Parent_annce or Parent_annce_rsp
    599           * @param       SecurityEnable - Security Options
    600           *
    601           * @return      afStatus_t
    602           */

   \                                 In  segment BANKED_CODE, align 1, keep-with-next
    603          afStatus_t ZDP_ParentAnnce( uint8 *TransSeq,
   \                     ZDP_ParentAnnce:
    604                                      zAddrType_t *dstAddr,
    605                                      uint8 numberOfChildren,
    606                                      uint8 *childInfo,
    607                                      cId_t clusterID,
    608                                      uint8 SecurityEnable )
    609          {
   \   000000                REQUIRE ?V0
   \   000000                REQUIRE ?V1
   \   000000                REQUIRE ?V2
   \   000000                REQUIRE ?V3
   \   000000                REQUIRE ?V4
   \   000000                REQUIRE ?V5
   \   000000                REQUIRE ?V6
   \   000000                REQUIRE ?V7
   \   000000                REQUIRE ?V8
   \   000000                REQUIRE ?V10
   \   000000                REQUIRE ?V11
   \   000000                REQUIRE ?V12
   \   000000                REQUIRE ?V13
   \   000000   74EA         MOV       A,#-0x16
   \   000002   12....       LCALL     ?BANKED_ENTER_XDATA
   \   000005                ; Saved register size: 22
   \   000005                ; Auto size: 0
   \   000005   8A..         MOV       ?V4,R2
   \   000007   8B..         MOV       ?V5,R3
   \   000009   EC           MOV       A,R4
   \   00000A   FE           MOV       R6,A
   \   00000B   ED           MOV       A,R5
   \   00000C   FF           MOV       R7,A
   \   00000D   89..         MOV       ?V8,R1
    610            uint8 *pBuf = ZDP_TmpBuf;
   \   00000F   12....       LCALL     ??Subroutine113_0 & 0xFFFF
    611            ZDO_ChildInfo_t *pChildInfo;
    612            uint8 i, len;
    613            uint8 *numOfChild;
    614          
    615            (void)SecurityEnable;  // Intentionally unreferenced parameter
    616          
    617            pChildInfo = (ZDO_ChildInfo_t *)childInfo;
    618          
    619            if ( dstAddr->addrMode == AddrBroadcast )
   \                     ??CrossCallReturnLabel_221:
   \   000012   8E82         MOV       DPL,R6
   \   000014   8F83         MOV       DPH,R7
   \   000016   A3           INC       DPTR
   \   000017   A3           INC       DPTR
   \   000018   A3           INC       DPTR
   \   000019   A3           INC       DPTR
   \   00001A   A3           INC       DPTR
   \   00001B   A3           INC       DPTR
   \   00001C   A3           INC       DPTR
   \   00001D   A3           INC       DPTR
   \   00001E   E0           MOVX      A,@DPTR
   \   00001F   640F         XRL       A,#0xf
   \   000021   700B         JNZ       ??ZDP_ParentAnnce_0
    620            {
    621              // Make sure is sent to 0xFFFC
    622              dstAddr->addr.shortAddr = NWK_BROADCAST_SHORTADDR_DEVZCZR;
   \   000023   8E82         MOV       DPL,R6
   \   000025   8F83         MOV       DPH,R7
   \   000027   74FC         MOV       A,#-0x4
   \   000029   F0           MOVX      @DPTR,A
   \   00002A   A3           INC       DPTR
   \   00002B   74FF         MOV       A,#-0x1
   \   00002D   F0           MOVX      @DPTR,A
    623            }
    624            len = 1;
   \                     ??ZDP_ParentAnnce_0:
   \   00002E   75..01       MOV       ?V6,#0x1
   \   000031   7418         MOV       A,#0x18
   \   000033   12....       LCALL     ?XSTACK_DISP0_8
   \   000036   12....       LCALL     ?Subroutine42 & 0xFFFF
    625            if ( clusterID == Parent_annce_rsp )
   \                     ??CrossCallReturnLabel_64:
   \   000039   741F         MOV       A,#0x1f
   \   00003B   65..         XRL       A,?V2
   \   00003D   7004         JNZ       ??ZDP_ParentAnnce_1
   \   00003F   7480         MOV       A,#-0x80
   \   000041   65..         XRL       A,?V3
   \                     ??ZDP_ParentAnnce_1:
   \   000043   700B         JNZ       ??CrossCallReturnLabel_26
    626            {
    627              // + Status Byte
    628              len += 1;
   \   000045   75..02       MOV       ?V6,#0x2
    629              // Set the status bit to success
    630              *pBuf++ = 0;
   \   000048   8A82         MOV       DPL,R2
   \   00004A   8B83         MOV       DPH,R3
   \   00004C   E4           CLR       A
   \   00004D   12....       LCALL     ?Subroutine22 & 0xFFFF
    631            }
    632            
    633            numOfChild = pBuf;
   \                     ??CrossCallReturnLabel_26:
   \   000050   8A..         MOV       ?V0,R2
   \   000052   8B..         MOV       ?V1,R3
    634            *pBuf++ = numberOfChildren;
   \   000054   8A82         MOV       DPL,R2
   \   000056   8B83         MOV       DPH,R3
   \   000058   E9           MOV       A,R1
   \   000059   12....       LCALL     ?Subroutine22 & 0xFFFF
    635          
    636            for ( i = 0; i < MAX_PARENT_ANNCE_CHILD; i++ )
   \                     ??CrossCallReturnLabel_27:
   \   00005C   75..00       MOV       ?V7,#0x0
   \   00005F   7416         MOV       A,#0x16
   \   000061   12....       LCALL     ?XSTACK_DISP0_8
   \   000064   E0           MOVX      A,@DPTR
   \   000065   F5..         MOV       ?V12,A
   \   000067   A3           INC       DPTR
   \   000068   E0           MOVX      A,@DPTR
   \   000069   F5..         MOV       ?V13,A
    637            {
    638              pBuf = osal_cpyExtAddr( pBuf, pChildInfo[childIndex].extAddr );
   \                     ??ZDP_ParentAnnce_2:
   \   00006B                ; Setup parameters for call to function sAddrExtCpy
   \   00006B   90....       MOV       DPTR,#childIndex
   \   00006E   E0           MOVX      A,@DPTR
   \   00006F   F5..         MOV       ?V10,A
   \   000071   75..00       MOV       ?V11,#0x0
   \   000074   7403         MOV       A,#0x3
   \   000076   78..         MOV       R0,#?V10
   \   000078   12....       LCALL     ?S_SHL
   \   00007B   E5..         MOV       A,?V12
   \   00007D   25..         ADD       A,?V10
   \   00007F   FC           MOV       R4,A
   \   000080   E5..         MOV       A,?V13
   \   000082   35..         ADDC      A,?V11
   \   000084   FD           MOV       R5,A
   \   000085   12....       LCALL     `??sAddrExtCpy::?relay`; Banked call to: sAddrExtCpy
    639              childIndex++;
   \   000088   90....       MOV       DPTR,#childIndex
   \   00008B   E0           MOVX      A,@DPTR
   \   00008C   04           INC       A
   \   00008D   F0           MOVX      @DPTR,A
    640              
    641              len += Z_EXTADDR_LEN;
   \   00008E   7408         MOV       A,#0x8
   \   000090   25..         ADD       A,?V6
   \   000092   F5..         MOV       ?V6,A
    642              
    643              if ( childIndex == numberOfChildren )
   \   000094   E0           MOVX      A,@DPTR
   \   000095   65..         XRL       A,?V8
   \   000097   7012         JNZ       ??ZDP_ParentAnnce_3
    644              {
    645                pBuf = numOfChild;
    646                *pBuf = i + 1;
   \   000099   7401         MOV       A,#0x1
   \   00009B   25..         ADD       A,?V7
   \   00009D   85..82       MOV       DPL,?V0
   \   0000A0   85..83       MOV       DPH,?V1
   \   0000A3   F0           MOVX      @DPTR,A
    647                // All childs are taken, restart index and go out
    648                childIndex = 0;
   \   0000A4   90....       MOV       DPTR,#childIndex
   \   0000A7   E4           CLR       A
   \   0000A8   F0           MOVX      @DPTR,A
    649                return fillAndSend( TransSeq, dstAddr, clusterID, len );
   \   0000A9                ; Setup parameters for call to function fillAndSend
   \   0000A9   804B         SJMP      ??ZDP_ParentAnnce_4
    650              }
    651            }
   \                     ??ZDP_ParentAnnce_3:
   \   0000AB   05..         INC       ?V7
   \   0000AD   E5..         MOV       A,?V7
   \   0000AF   C3           CLR       C
   \   0000B0   940A         SUBB      A,#0xa
   \   0000B2   40B7         JC        ??ZDP_ParentAnnce_2
    652            
    653            pBuf = numOfChild;
    654            *pBuf = MAX_PARENT_ANNCE_CHILD;
   \   0000B4   85..82       MOV       DPL,?V0
   \   0000B7   85..83       MOV       DPH,?V1
   \   0000BA   740A         MOV       A,#0xa
   \   0000BC   F0           MOVX      @DPTR,A
    655            if ( childIndex < numberOfChildren )
   \   0000BD   90....       MOV       DPTR,#childIndex
   \   0000C0   E0           MOVX      A,@DPTR
   \   0000C1   C3           CLR       C
   \   0000C2   95..         SUBB      A,?V8
   \   0000C4   5030         JNC       ??ZDP_ParentAnnce_4
    656            {
    657              if ( clusterID == Parent_annce )
   \   0000C6   741F         MOV       A,#0x1f
   \   0000C8   65..         XRL       A,?V2
   \   0000CA   45..         ORL       A,?V3
   \   0000CC   7005         JNZ       ??ZDP_ParentAnnce_5
    658              {
    659                ZDApp_SetParentAnnceTimer();
   \   0000CE                ; Setup parameters for call to function ZDApp_SetParentAnnceTimer
   \   0000CE   12....       LCALL     `??ZDApp_SetParentAnnceTimer::?relay`; Banked call to: ZDApp_SetParentAnnceTimer
   \   0000D1   8023         SJMP      ??ZDP_ParentAnnce_4
    660              }
    661              if ( clusterID == Parent_annce_rsp )
   \                     ??ZDP_ParentAnnce_5:
   \   0000D3   741F         MOV       A,#0x1f
   \   0000D5   65..         XRL       A,?V2
   \   0000D7   7004         JNZ       ??ZDP_ParentAnnce_6
   \   0000D9   7480         MOV       A,#-0x80
   \   0000DB   65..         XRL       A,?V3
   \                     ??ZDP_ParentAnnce_6:
   \   0000DD   7017         JNZ       ??ZDP_ParentAnnce_4
    662              {
    663                osal_start_timerEx( ZDAppTaskID, ZDO_PARENT_ANNCE_EVT, 10 );
   \   0000DF                ; Setup parameters for call to function osal_start_timerEx
   \   0000DF   90....       MOV       DPTR,#__Constant_a
   \   0000E2   12....       LCALL     ?PUSH_XSTACK8_X_FOUR
   \   0000E5   7A00         MOV       R2,#0x0
   \   0000E7   7B40         MOV       R3,#0x40
   \   0000E9   90....       MOV       DPTR,#ZDAppTaskID
   \   0000EC   E0           MOVX      A,@DPTR
   \   0000ED   F9           MOV       R1,A
   \   0000EE   12....       LCALL     `??osal_start_timerEx::?relay`; Banked call to: osal_start_timerEx
   \   0000F1   7404         MOV       A,#0x4
   \   0000F3   12....       LCALL     ?DEALLOC_XSTACK8
    664              }
    665            }
    666          
    667            return fillAndSend( TransSeq, dstAddr, clusterID, len );
   \                     ??ZDP_ParentAnnce_4:
   \   0000F6                ; Setup parameters for call to function fillAndSend
   \   0000F6   78..         MOV       R0,#?V2
   \   0000F8   12....       LCALL     ?PUSH_XSTACK_I_TWO
   \   0000FB   A9..         MOV       R1,?V6
   \   0000FD   EE           MOV       A,R6
   \   0000FE   FC           MOV       R4,A
   \   0000FF   EF           MOV       A,R7
   \   000100   FD           MOV       R5,A
   \   000101   AA..         MOV       R2,?V4
   \   000103   AB..         MOV       R3,?V5
   \   000105   12....       LCALL     `??fillAndSend::?relay`; Banked call to: fillAndSend
   \   000108   7402         MOV       A,#0x2
   \   00010A   02....       LJMP      ??Subroutine115_0 & 0xFFFF
    668          }

   \                                 In  segment BANKED_CODE, align 1, keep-with-next
   \                     ??Subroutine113_0:
   \   000000   90....       MOV       DPTR,#ZDP_TmpBuf
   \   000003                REQUIRE ??Subroutine114_0
   \   000003                ; // Fall through to label ??Subroutine114_0

   \                                 In  segment BANKED_CODE, align 1, keep-with-next
   \                     ??Subroutine114_0:
   \   000000   E0           MOVX      A,@DPTR
   \   000001   FA           MOV       R2,A
   \   000002   A3           INC       DPTR
   \   000003   E0           MOVX      A,@DPTR
   \   000004   FB           MOV       R3,A
   \   000005   22           RET

   \                                 In  segment BANKED_CODE, align 1, keep-with-next
   \                     ??Subroutine115_0:
   \   000000   12....       LCALL     ?DEALLOC_XSTACK8
   \   000003   7F0E         MOV       R7,#0xe
   \   000005   02....       LJMP      ?BANKED_LEAVE_XDATA

   \                                 In  segment BANKED_CODE, align 1, keep-with-next
   \                     ?Subroutine22:
   \   000000   F0           MOVX      @DPTR,A
   \   000001   A3           INC       DPTR
   \   000002   AA82         MOV       R2,DPL
   \   000004   AB83         MOV       R3,DPH
   \   000006   22           RET
    669          
    670          /*********************************************************************
    671           * Address Responses
    672           */
    673          
    674          /*********************************************************************
    675           * @fn      zdpProcessAddrReq
    676           *
    677           * @brief   Process an incoming NWK_addr_req or IEEE_addr_req message and then
    678           *          build and send a corresponding NWK_addr_rsp or IEEE_addr_rsp msg.
    679           *
    680           * @param   inMsg - incoming message
    681           *
    682           * @return  none
    683           */

   \                                 In  segment BANKED_CODE, align 1, keep-with-next
    684          void zdpProcessAddrReq( zdoIncomingMsg_t *inMsg )
   \                     zdpProcessAddrReq:
    685          {
   \   000000                REQUIRE ?V0
   \   000000                REQUIRE ?V1
   \   000000                REQUIRE ?V2
   \   000000                REQUIRE ?V3
   \   000000                REQUIRE ?V4
   \   000000                REQUIRE ?V5
   \   000000                REQUIRE ?V6
   \   000000                REQUIRE ?V8
   \   000000                REQUIRE ?V9
   \   000000                REQUIRE ?V10
   \   000000                REQUIRE ?V11
   \   000000                REQUIRE ?V12
   \   000000                REQUIRE ?V13
   \   000000                REQUIRE ?V14
   \   000000                REQUIRE ?V15
   \   000000   74E8         MOV       A,#-0x18
   \   000002   12....       LCALL     ?BANKED_ENTER_XDATA
   \   000005                ; Saved register size: 24
   \   000005                ; Auto size: 22
   \   000005   74EA         MOV       A,#-0x16
   \   000007   12....       LCALL     ?ALLOC_XSTACK8
   \   00000A   8A..         MOV       ?V8,R2
   \   00000C   8B..         MOV       ?V9,R3
    686            associated_devices_t *pAssoc;
    687            uint8 reqType;
    688            uint16 aoi = INVALID_NODE_ADDR;
   \   00000E   75..FE       MOV       ?V2,#-0x2
   \   000011   75..FF       MOV       ?V3,#-0x1
    689            uint8 *ieee = NULL;
   \   000014   7E00         MOV       R6,#0x0
   \   000016   7F00         MOV       R7,#0x0
    690          
    691            reqType = inMsg->asdu[(inMsg->clusterID == NWK_addr_req) ? Z_EXTADDR_LEN : sizeof( uint16 ) ];
   \   000018   EA           MOV       A,R2
   \   000019   240C         ADD       A,#0xc
   \   00001B   F5..         MOV       ?V12,A
   \   00001D   E4           CLR       A
   \   00001E   35..         ADDC      A,?V9
   \   000020   F5..         MOV       ?V13,A
   \   000022   85..82       MOV       DPL,?V12
   \   000025   F583         MOV       DPH,A
   \   000027   12....       LCALL     ??Subroutine114_0 & 0xFFFF
   \                     ??CrossCallReturnLabel_217:
   \   00002A   EA           MOV       A,R2
   \   00002B   4B           ORL       A,R3
   \   00002C   7004         JNZ       ??zdpProcessAddrReq_0
   \   00002E   7C08         MOV       R4,#0x8
   \   000030   8002         SJMP      ??zdpProcessAddrReq_1
   \                     ??zdpProcessAddrReq_0:
   \   000032   7C02         MOV       R4,#0x2
   \                     ??zdpProcessAddrReq_1:
   \   000034   E5..         MOV       A,?V8
   \   000036   2413         ADD       A,#0x13
   \   000038   F5..         MOV       ?V14,A
   \   00003A   E4           CLR       A
   \   00003B   35..         ADDC      A,?V9
   \   00003D   F5..         MOV       ?V15,A
   \   00003F   85..82       MOV       DPL,?V14
   \   000042   F583         MOV       DPH,A
   \   000044   12....       LCALL     ??Subroutine107_0 & 0xFFFF
   \                     ??CrossCallReturnLabel_183:
   \   000047   2C           ADD       A,R4
   \   000048   F582         MOV       DPL,A
   \   00004A   E4           CLR       A
   \   00004B   39           ADDC      A,R1
   \   00004C   F583         MOV       DPH,A
   \   00004E   E0           MOVX      A,@DPTR
   \   00004F   F5..         MOV       ?V5,A
    692          
    693            if ( inMsg->clusterID == NWK_addr_req )
   \   000051   E5..         MOV       A,?V8
   \   000053   240B         ADD       A,#0xb
   \   000055   F5..         MOV       ?V10,A
   \   000057   E4           CLR       A
   \   000058   35..         ADDC      A,?V9
   \   00005A   F5..         MOV       ?V11,A
   \   00005C   EA           MOV       A,R2
   \   00005D   4B           ORL       A,R3
   \   00005E   704D         JNZ       ??zdpProcessAddrReq_2
    694          
    695            {
    696              ieee = inMsg->asdu;
   \   000060   E8           MOV       A,R0
   \   000061   FE           MOV       R6,A
   \   000062   E9           MOV       A,R1
   \   000063   FF           MOV       R7,A
    697          
    698              if ( osal_ExtAddrEqual( saveExtAddr, ieee ) )
   \   000064                ; Setup parameters for call to function sAddrExtCmp
   \   000064   EE           MOV       A,R6
   \   000065   FC           MOV       R4,A
   \   000066   EF           MOV       A,R7
   \   000067   FD           MOV       R5,A
   \   000068   7A..         MOV       R2,#saveExtAddr & 0xff
   \   00006A   7B..         MOV       R3,#(saveExtAddr >> 8) & 0xff
   \   00006C   12....       LCALL     `??sAddrExtCmp::?relay`; Banked call to: sAddrExtCmp
   \   00006F   E9           MOV       A,R1
   \   000070   6009         JZ        ??zdpProcessAddrReq_3
    699              {
    700                aoi = ZDAppNwkAddr.addr.shortAddr;
   \   000072   90....       MOV       DPTR,#ZDAppNwkAddr
   \   000075   12....       LCALL     ?Subroutine42 & 0xFFFF
    701              }
   \                     ??CrossCallReturnLabel_65:
   \   000078   02....       LJMP      ??zdpProcessAddrReq_4 & 0xFFFF
    702              // Handle response for sleeping end devices
    703              else if ( (ZSTACK_ROUTER_BUILD)
    704                && (((pAssoc = AssocGetWithExt( ieee )) != NULL)
    705                       && ((pAssoc->nodeRelation == CHILD_RFD) || (pAssoc->nodeRelation == CHILD_RFD_RX_IDLE)) ) )
   \                     ??zdpProcessAddrReq_3:
   \   00007B                ; Setup parameters for call to function AssocGetWithExt
   \   00007B   EE           MOV       A,R6
   \   00007C   FA           MOV       R2,A
   \   00007D   EF           MOV       A,R7
   \   00007E   FB           MOV       R3,A
   \   00007F   12....       LCALL     `??AssocGetWithExt::?relay`; Banked call to: AssocGetWithExt
   \   000082   EA           MOV       A,R2
   \   000083   4B           ORL       A,R3
   \   000084   7003         JNZ       $+5
   \   000086   02....       LJMP      ??zdpProcessAddrReq_5 & 0xFFFF
   \   000089   8A82         MOV       DPL,R2
   \   00008B   8B83         MOV       DPH,R3
   \   00008D   A3           INC       DPTR
   \   00008E   A3           INC       DPTR
   \   00008F   A3           INC       DPTR
   \   000090   A3           INC       DPTR
   \   000091   E0           MOVX      A,@DPTR
   \   000092   F8           MOV       R0,A
   \   000093   7401         MOV       A,#0x1
   \   000095   68           XRL       A,R0
   \   000096   6008         JZ        ??zdpProcessAddrReq_6
   \   000098   7402         MOV       A,#0x2
   \   00009A   68           XRL       A,R0
   \   00009B   6003         JZ        $+5
   \   00009D   02....       LJMP      ??zdpProcessAddrReq_5 & 0xFFFF
    706              {
    707                aoi = pAssoc->shortAddr;
   \                     ??zdpProcessAddrReq_6:
   \   0000A0   8A82         MOV       DPL,R2
   \   0000A2   8B83         MOV       DPH,R3
   \   0000A4   12....       LCALL     ?Subroutine42 & 0xFFFF
    708                if ( reqType != ZDP_ADDR_REQTYPE_SINGLE )
   \                     ??CrossCallReturnLabel_66:
   \   0000A7   E5..         MOV       A,?V5
   \   0000A9   7072         JNZ       ??zdpProcessAddrReq_7
   \   0000AB   8073         SJMP      ??zdpProcessAddrReq_4
    709                  reqType = 0xFF; // Force Invalid
    710              }
    711            }
    712            else  // if ( inMsg->clusterID == IEEE_addr_req )
    713            {
    714              aoi = BUILD_UINT16( inMsg->asdu[0], inMsg->asdu[1] );
   \                     ??zdpProcessAddrReq_2:
   \   0000AD   8882         MOV       DPL,R0
   \   0000AF   8983         MOV       DPH,R1
   \   0000B1   E0           MOVX      A,@DPTR
   \   0000B2   FA           MOV       R2,A
   \   0000B3   A3           INC       DPTR
   \   0000B4   E0           MOVX      A,@DPTR
   \   0000B5   F9           MOV       R1,A
   \   0000B6   EA           MOV       A,R2
   \   0000B7   2E           ADD       A,R6
   \   0000B8   F5..         MOV       ?V2,A
   \   0000BA   E4           CLR       A
   \   0000BB   39           ADDC      A,R1
   \   0000BC   F5..         MOV       ?V3,A
    715          
    716              if ( aoi == ZDAppNwkAddr.addr.shortAddr )
   \   0000BE   90....       MOV       DPTR,#ZDAppNwkAddr
   \   0000C1   E0           MOVX      A,@DPTR
   \   0000C2   65..         XRL       A,?V2
   \   0000C4   7004         JNZ       ??zdpProcessAddrReq_8
   \   0000C6   A3           INC       DPTR
   \   0000C7   E0           MOVX      A,@DPTR
   \   0000C8   65..         XRL       A,?V3
   \                     ??zdpProcessAddrReq_8:
   \   0000CA   7006         JNZ       ??zdpProcessAddrReq_9
    717              {
    718                ieee = saveExtAddr;
   \   0000CC   7E..         MOV       R6,#saveExtAddr & 0xff
   \   0000CE   7F..         MOV       R7,#(saveExtAddr >> 8) & 0xff
   \   0000D0   804E         SJMP      ??zdpProcessAddrReq_4
    719              }
    720              else if ( (ZSTACK_ROUTER_BUILD)
    721                && (((pAssoc = AssocGetWithShort( aoi )) != NULL)
    722                       && (pAssoc->nodeRelation == CHILD_RFD)) )
   \                     ??zdpProcessAddrReq_9:
   \   0000D2                ; Setup parameters for call to function AssocGetWithShort
   \   0000D2   AB..         MOV       R3,?V3
   \   0000D4   12....       LCALL     `??AssocGetWithShort::?relay`; Banked call to: AssocGetWithShort
   \   0000D7   8A..         MOV       ?V0,R2
   \   0000D9   8B..         MOV       ?V1,R3
   \   0000DB   A8..         MOV       R0,?V0
   \   0000DD   A9..         MOV       R1,?V1
   \   0000DF   E8           MOV       A,R0
   \   0000E0   49           ORL       A,R1
   \   0000E1   604D         JZ        ??zdpProcessAddrReq_5
   \   0000E3   8882         MOV       DPL,R0
   \   0000E5   8983         MOV       DPH,R1
   \   0000E7   A3           INC       DPTR
   \   0000E8   A3           INC       DPTR
   \   0000E9   A3           INC       DPTR
   \   0000EA   A3           INC       DPTR
   \   0000EB   E0           MOVX      A,@DPTR
   \   0000EC   6401         XRL       A,#0x1
   \   0000EE   7040         JNZ       ??zdpProcessAddrReq_5
    723              {
    724                AddrMgrEntry_t addrEntry;
    725                addrEntry.user = ADDRMGR_USER_DEFAULT;
   \   0000F0   7409         MOV       A,#0x9
   \   0000F2   12....       LCALL     ?XSTACK_DISP0_8
   \   0000F5   E4           CLR       A
   \   0000F6   12....       LCALL     ?Subroutine37 & 0xFFFF
    726                addrEntry.index = pAssoc->addrIdx;
   \                     ??CrossCallReturnLabel_53:
   \   0000F9   F8           MOV       R0,A
   \   0000FA   A3           INC       DPTR
   \   0000FB   E0           MOVX      A,@DPTR
   \   0000FC   F9           MOV       R1,A
   \   0000FD   7414         MOV       A,#0x14
   \   0000FF   12....       LCALL     ?XSTACK_DISP0_8
   \   000102   12....       LCALL     ?Subroutine27 & 0xFFFF
    727                if ( AddrMgrEntryGet( &addrEntry ) )
   \                     ??CrossCallReturnLabel_36:
   \   000105                ; Setup parameters for call to function AddrMgrEntryGet
   \   000105   7409         MOV       A,#0x9
   \   000107   12....       LCALL     ?XSTACK_DISP101_8
   \   00010A   12....       LCALL     `??AddrMgrEntryGet::?relay`; Banked call to: AddrMgrEntryGet
   \   00010D   E9           MOV       A,R1
   \   00010E   6009         JZ        ??zdpProcessAddrReq_10
    728                {
    729                  ieee = addrEntry.extAddr;
   \   000110   740C         MOV       A,#0xc
   \   000112   12....       LCALL     ?XSTACK_DISP0_8
   \   000115   AE82         MOV       R6,DPL
   \   000117   AF83         MOV       R7,DPH
    730                }
    731          
    732                if ( reqType != ZDP_ADDR_REQTYPE_SINGLE )
   \                     ??zdpProcessAddrReq_10:
   \   000119   E5..         MOV       A,?V5
   \   00011B   6003         JZ        ??zdpProcessAddrReq_4
    733                  reqType = 0xFF; // Force Invalid
   \                     ??zdpProcessAddrReq_7:
   \   00011D   75..FF       MOV       ?V5,#-0x1
    734              }
    735            }
    736          
    737            if ( ((aoi != INVALID_NODE_ADDR) && (ieee != NULL)) || (inMsg->wasBroadcast == FALSE) )
   \                     ??zdpProcessAddrReq_4:
   \   000120   74FE         MOV       A,#-0x2
   \   000122   65..         XRL       A,?V2
   \   000124   7004         JNZ       ??zdpProcessAddrReq_11
   \   000126   74FF         MOV       A,#-0x1
   \   000128   65..         XRL       A,?V3
   \                     ??zdpProcessAddrReq_11:
   \   00012A   6004         JZ        ??zdpProcessAddrReq_5
   \   00012C   EE           MOV       A,R6
   \   00012D   4F           ORL       A,R7
   \   00012E   700C         JNZ       ??zdpProcessAddrReq_12
   \                     ??zdpProcessAddrReq_5:
   \   000130   85..82       MOV       DPL,?V10
   \   000133   85..83       MOV       DPH,?V11
   \   000136   E0           MOVX      A,@DPTR
   \   000137   6003         JZ        $+5
   \   000139   02....       LJMP      ??zdpProcessAddrReq_13 & 0xFFFF
    738            {
    739              uint8 stat;
    740              uint8 *pBuf = ZDP_TmpBuf;
   \                     ??zdpProcessAddrReq_12:
   \   00013C   12....       LCALL     ?Subroutine44 & 0xFFFF
    741              // Status + IEEE-Addr + Nwk-Addr.
    742              uint8 len = 1 + Z_EXTADDR_LEN + 2;
   \                     ??CrossCallReturnLabel_168:
   \   00013F   75..0B       MOV       ?V6,#0xb
    743          
    744              // If aoi and iee are both setup, we found results
    745              if ( (aoi != INVALID_NODE_ADDR) && (ieee != NULL) )
   \   000142   74FE         MOV       A,#-0x2
   \   000144   65..         XRL       A,?V2
   \   000146   7004         JNZ       ??zdpProcessAddrReq_14
   \   000148   74FF         MOV       A,#-0x1
   \   00014A   65..         XRL       A,?V3
   \                     ??zdpProcessAddrReq_14:
   \   00014C   6024         JZ        ??zdpProcessAddrReq_15
   \   00014E   EE           MOV       A,R6
   \   00014F   4F           ORL       A,R7
   \   000150   6020         JZ        ??zdpProcessAddrReq_15
    746              {
    747                stat = ((reqType == ZDP_ADDR_REQTYPE_SINGLE) || (reqType == ZDP_ADDR_REQTYPE_EXTENDED))
    748                              ? ZDP_SUCCESS : ZDP_INVALID_REQTYPE;
   \   000152   E5..         MOV       A,?V5
   \   000154   6006         JZ        ??zdpProcessAddrReq_16
   \   000156   7401         MOV       A,#0x1
   \   000158   65..         XRL       A,?V5
   \   00015A   7005         JNZ       ??zdpProcessAddrReq_17
   \                     ??zdpProcessAddrReq_16:
   \   00015C   75..00       MOV       ?V4,#0x0
   \   00015F   803C         SJMP      ??zdpProcessAddrReq_18
   \                     ??zdpProcessAddrReq_17:
   \   000161   75..80       MOV       ?V4,#-0x80
    749                        
    750                if(stat == ZDP_INVALID_REQTYPE)
    751                {
    752                  //R21 Errata update CCB 2111 
    753                  if(inMsg->wasBroadcast == TRUE)
   \   000164   85..82       MOV       DPL,?V10
   \   000167   85..83       MOV       DPH,?V11
   \   00016A   E0           MOVX      A,@DPTR
   \   00016B   6401         XRL       A,#0x1
   \   00016D   702E         JNZ       ??zdpProcessAddrReq_18
    754                  {
    755                    return;
   \   00016F   02....       LJMP      ??zdpProcessAddrReq_13 & 0xFFFF
    756                  }
    757                  
    758                  stat = ZDP_INVALID_REQTYPE;
    759                }
    760              }
    761              else
    762              {
    763                // not found and the req was unicast to this device
    764                stat = ZDP_DEVICE_NOT_FOUND;
   \                     ??zdpProcessAddrReq_15:
   \   000172   75..81       MOV       ?V4,#-0x7f
    765          
    766                // Fill in the missing field with this device's address
    767                if ( inMsg->clusterID == NWK_addr_req )
   \   000175   12....       LCALL     ?Subroutine52 & 0xFFFF
   \                     ??CrossCallReturnLabel_163:
   \   000178   7008         JNZ       ??zdpProcessAddrReq_19
    768                {
    769                  //CCB 2112 Zigbee Core spec
    770                  aoi = 0xFFFF;
   \   00017A   75..FF       MOV       ?V2,#-0x1
   \   00017D   75..FF       MOV       ?V3,#-0x1
   \   000180   801B         SJMP      ??zdpProcessAddrReq_18
    771                }
    772                else
    773                {
    774                  //CCB 2113 Zigbee Core spec
    775                  uint8 invalidIEEEAddr[Z_EXTADDR_LEN];
    776                  osal_memset(invalidIEEEAddr,0xFF,Z_EXTADDR_LEN);
   \                     ??zdpProcessAddrReq_19:
   \   000182                ; Setup parameters for call to function osal_memset
   \   000182   7C08         MOV       R4,#0x8
   \   000184   7D00         MOV       R5,#0x0
   \   000186   79FF         MOV       R1,#-0x1
   \   000188   7401         MOV       A,#0x1
   \   00018A   12....       LCALL     ?XSTACK_DISP101_8
   \   00018D   12....       LCALL     `??osal_memset::?relay`; Banked call to: osal_memset
    777                  ieee = invalidIEEEAddr;
   \   000190   7401         MOV       A,#0x1
   \   000192   12....       LCALL     ?XSTACK_DISP100_8
   \   000195   88..         MOV       ?V10,R0
   \   000197   89..         MOV       ?V11,R1
   \   000199   AE..         MOV       R6,?V10
   \   00019B   AF..         MOV       R7,?V11
    778                }
    779              }
    780          
    781              *pBuf++ = stat;
   \                     ??zdpProcessAddrReq_18:
   \   00019D   85..82       MOV       DPL,?V0
   \   0001A0   85..83       MOV       DPH,?V1
   \   0001A3   E5..         MOV       A,?V4
   \   0001A5   F0           MOVX      @DPTR,A
   \   0001A6   A3           INC       DPTR
   \   0001A7   8582..       MOV       ?V0,DPL
   \   0001AA   8583..       MOV       ?V1,DPH
    782          
    783              pBuf = osal_cpyExtAddr( pBuf, ieee );
   \   0001AD                ; Setup parameters for call to function sAddrExtCpy
   \   0001AD   EE           MOV       A,R6
   \   0001AE   FC           MOV       R4,A
   \   0001AF   EF           MOV       A,R7
   \   0001B0   FD           MOV       R5,A
   \   0001B1   AA..         MOV       R2,?V0
   \   0001B3   AB..         MOV       R3,?V1
   \   0001B5   12....       LCALL     `??sAddrExtCpy::?relay`; Banked call to: sAddrExtCpy
   \   0001B8   8A..         MOV       ?V0,R2
   \   0001BA   8B..         MOV       ?V1,R3
   \   0001BC   AE..         MOV       R6,?V0
   \   0001BE   AF..         MOV       R7,?V1
    784          
    785              *pBuf++ = LO_UINT16( aoi );
   \   0001C0   8E82         MOV       DPL,R6
   \   0001C2   8F83         MOV       DPH,R7
   \   0001C4   E5..         MOV       A,?V2
   \   0001C6   F0           MOVX      @DPTR,A
    786              *pBuf++ = HI_UINT16( aoi );
   \   0001C7   A3           INC       DPTR
   \   0001C8   E5..         MOV       A,?V3
   \   0001CA   F0           MOVX      @DPTR,A
    787          
    788              if ( ZSTACK_ROUTER_BUILD )
    789              {
    790                if ( (reqType == ZDP_ADDR_REQTYPE_EXTENDED) && (aoi == ZDAppNwkAddr.addr.shortAddr)
    791                     && (stat == ZDP_SUCCESS) )
   \   0001CB   7401         MOV       A,#0x1
   \   0001CD   65..         XRL       A,?V5
   \   0001CF   6003         JZ        $+5
   \   0001D1   02....       LJMP      ??zdpProcessAddrReq_20 & 0xFFFF
   \   0001D4   90....       MOV       DPTR,#ZDAppNwkAddr
   \   0001D7   E0           MOVX      A,@DPTR
   \   0001D8   65..         XRL       A,?V2
   \   0001DA   7004         JNZ       ??zdpProcessAddrReq_21
   \   0001DC   A3           INC       DPTR
   \   0001DD   E0           MOVX      A,@DPTR
   \   0001DE   65..         XRL       A,?V3
   \                     ??zdpProcessAddrReq_21:
   \   0001E0   6003         JZ        $+5
   \   0001E2   02....       LJMP      ??zdpProcessAddrReq_20 & 0xFFFF
   \   0001E5   E5..         MOV       A,?V4
   \   0001E7   6003         JZ        $+5
   \   0001E9   02....       LJMP      ??zdpProcessAddrReq_20 & 0xFFFF
    792                {
    793                  uint8  cnt = 0;
   \   0001EC   85..82       MOV       DPL,?XSP + 0
   \   0001EF   85..83       MOV       DPH,?XSP + 1
   \   0001F2   E4           CLR       A
   \   0001F3   F0           MOVX      @DPTR,A
    794                  
    795                  //Updated to only search for ZED devices as per R21 spec (2.4.3.1.1.2)
    796                  uint16 *list = AssocMakeList( &cnt );
   \   0001F4                ; Setup parameters for call to function AssocMakeList
   \   0001F4   AA..         MOV       R2,?XSP + 0
   \   0001F6   AB..         MOV       R3,?XSP + 1
   \   0001F8   12....       LCALL     `??AssocMakeList::?relay`; Banked call to: AssocMakeList
    797          
    798                  if ( list != NULL )
   \   0001FB   EE           MOV       A,R6
   \   0001FC   2402         ADD       A,#0x2
   \   0001FE   F8           MOV       R0,A
   \   0001FF   E4           CLR       A
   \   000200   3F           ADDC      A,R7
   \   000201   F9           MOV       R1,A
   \   000202   E8           MOV       A,R0
   \   000203   FC           MOV       R4,A
   \   000204   E9           MOV       A,R1
   \   000205   FD           MOV       R5,A
   \   000206   EA           MOV       A,R2
   \   000207   4B           ORL       A,R3
   \   000208   7003         JNZ       $+5
   \   00020A   02....       LJMP      ??zdpProcessAddrReq_22 & 0xFFFF
    799                  {
    800                    byte idx = inMsg->asdu[(((inMsg->clusterID == NWK_addr_req) ? Z_EXTADDR_LEN : sizeof( uint16 )) + 1)];
   \   00020D   12....       LCALL     ?Subroutine52 & 0xFFFF
   \                     ??CrossCallReturnLabel_164:
   \   000210   7004         JNZ       ??zdpProcessAddrReq_23
   \   000212   7809         MOV       R0,#0x9
   \   000214   8002         SJMP      ??zdpProcessAddrReq_24
   \                     ??zdpProcessAddrReq_23:
   \   000216   7803         MOV       R0,#0x3
   \                     ??zdpProcessAddrReq_24:
   \   000218   85..82       MOV       DPL,?V14
   \   00021B   85..83       MOV       DPH,?V15
   \   00021E   E0           MOVX      A,@DPTR
   \   00021F   28           ADD       A,R0
   \   000220   F5..         MOV       ?V0,A
   \   000222   A3           INC       DPTR
   \   000223   E0           MOVX      A,@DPTR
   \   000224   3400         ADDC      A,#0x0
   \   000226   85..82       MOV       DPL,?V0
   \   000229   F583         MOV       DPH,A
   \   00022B   E0           MOVX      A,@DPTR
   \   00022C   F5..         MOV       ?V0,A
    801                    uint16 *pList = list + idx;
   \   00022E   25E0         ADD       A,0xE0 /* A   */
   \   000230   F8           MOV       R0,A
   \   000231   E4           CLR       A
   \   000232   33           RLC       A
   \   000233   F9           MOV       R1,A
   \   000234   EA           MOV       A,R2
   \   000235   28           ADD       A,R0
   \   000236   F8           MOV       R0,A
   \   000237   EB           MOV       A,R3
   \   000238   39           ADDC      A,R1
   \   000239   F9           MOV       R1,A
    802          
    803                    // NumAssocDev field is only present on success.
    804                    if ( cnt > idx )
   \   00023A   85..82       MOV       DPL,?XSP + 0
   \   00023D   85..83       MOV       DPH,?XSP + 1
   \   000240   E0           MOVX      A,@DPTR
   \   000241   F5..         MOV       ?V1,A
   \   000243   E5..         MOV       A,?V0
   \   000245   C3           CLR       C
   \   000246   95..         SUBB      A,?V1
   \   000248   500D         JNC       ??zdpProcessAddrReq_25
    805                    {
    806                      cnt -= idx;
   \   00024A   E0           MOVX      A,@DPTR
   \   00024B   C3           CLR       C
   \   00024C   95..         SUBB      A,?V0
   \   00024E   F0           MOVX      @DPTR,A
    807                      len += (cnt * sizeof( uint16 ));
   \   00024F   C3           CLR       C
   \   000250   33           RLC       A
   \   000251   240B         ADD       A,#0xb
   \   000253   F5..         MOV       ?V6,A
   \   000255   8002         SJMP      ??zdpProcessAddrReq_26
    808                    }
    809                    else
    810                    {
    811                      cnt = 0;
   \                     ??zdpProcessAddrReq_25:
   \   000257   E4           CLR       A
   \   000258   F0           MOVX      @DPTR,A
    812                    }
    813                    *pBuf++ = cnt;
   \                     ??zdpProcessAddrReq_26:
   \   000259   E0           MOVX      A,@DPTR
   \   00025A   8C82         MOV       DPL,R4
   \   00025C   8D83         MOV       DPH,R5
   \   00025E   12....       LCALL     ?Subroutine36 & 0xFFFF
    814                    len++;
    815          
    816                    // StartIndex field is only present if NumAssocDev field is non-zero.
    817                    *pBuf++ = idx;
   \                     ??CrossCallReturnLabel_51:
   \   000261   E5..         MOV       A,?V0
   \   000263   F0           MOVX      @DPTR,A
   \   000264   EE           MOV       A,R6
   \   000265   2404         ADD       A,#0x4
   \   000267   F5..         MOV       ?V0,A
   \   000269   E4           CLR       A
   \   00026A   3F           ADDC      A,R7
   \   00026B   F5..         MOV       ?V1,A
    818                    len++;
   \   00026D   05..         INC       ?V6
   \   00026F   05..         INC       ?V6
   \   000271   8021         SJMP      ??zdpProcessAddrReq_27
    819          
    820                    while ( cnt != 0 )
    821                    {
    822                      *pBuf++ = LO_UINT16( *pList );
   \                     ??zdpProcessAddrReq_28:
   \   000273   8882         MOV       DPL,R0
   \   000275   8983         MOV       DPH,R1
   \   000277   12....       LCALL     ?Subroutine77 & 0xFFFF
   \                     ??CrossCallReturnLabel_136:
   \   00027A   12....       LCALL     ??Subroutine105_0 & 0xFFFF
    823                      *pBuf++ = HI_UINT16( *pList );
   \                     ??CrossCallReturnLabel_178:
   \   00027D   12....       LCALL     ?Subroutine26 & 0xFFFF
   \                     ??CrossCallReturnLabel_171:
   \   000280   5002         JNC       ??zdpProcessAddrReq_29
   \   000282   05..         INC       ?V1
    824                      pList++;
   \                     ??zdpProcessAddrReq_29:
   \   000284   E8           MOV       A,R0
   \   000285   2402         ADD       A,#0x2
   \   000287   F8           MOV       R0,A
   \   000288   5001         JNC       ??zdpProcessAddrReq_30
   \   00028A   09           INC       R1
    825                      cnt--;
   \                     ??zdpProcessAddrReq_30:
   \   00028B   85..82       MOV       DPL,?XSP + 0
   \   00028E   85..83       MOV       DPH,?XSP + 1
   \   000291   E0           MOVX      A,@DPTR
   \   000292   14           DEC       A
   \   000293   F0           MOVX      @DPTR,A
    826                    }
   \                     ??zdpProcessAddrReq_27:
   \   000294   85..82       MOV       DPL,?XSP + 0
   \   000297   85..83       MOV       DPH,?XSP + 1
   \   00029A   E0           MOVX      A,@DPTR
   \   00029B   70D6         JNZ       ??zdpProcessAddrReq_28
    827          
    828                    osal_mem_free( (uint8 *)list );
   \   00029D                ; Setup parameters for call to function osal_mem_free
   \   00029D   12....       LCALL     `??osal_mem_free::?relay`; Banked call to: osal_mem_free
   \   0002A0   8009         SJMP      ??zdpProcessAddrReq_20
    829                  }
    830                  else
    831                  {
    832                    // NumAssocDev field is only present on success.
    833                    *pBuf++ = 0;
   \                     ??zdpProcessAddrReq_22:
   \   0002A2   8C82         MOV       DPL,R4
   \   0002A4   8D83         MOV       DPH,R5
   \   0002A6   E4           CLR       A
   \   0002A7   F0           MOVX      @DPTR,A
    834                    len++;
   \   0002A8   75..0C       MOV       ?V6,#0xc
    835                  }
    836                }
    837              }
    838          
    839              ZDP_TxOptions = AF_MSG_ACK_REQUEST;
   \                     ??zdpProcessAddrReq_20:
   \   0002AB   90....       MOV       DPTR,#ZDP_TxOptions
   \   0002AE   7410         MOV       A,#0x10
   \   0002B0   F0           MOVX      @DPTR,A
    840              fillAndSend( &(inMsg->TransSeq), &(inMsg->srcAddr), (cId_t)(inMsg->clusterID | ZDO_RESPONSE_BIT), len );
   \   0002B1                ; Setup parameters for call to function fillAndSend
   \   0002B1   85..82       MOV       DPL,?V12
   \   0002B4   85..83       MOV       DPH,?V13
   \   0002B7   E0           MOVX      A,@DPTR
   \   0002B8   F5..         MOV       ?V0,A
   \   0002BA   A3           INC       DPTR
   \   0002BB   E0           MOVX      A,@DPTR
   \   0002BC   4480         ORL       A,#0x80
   \   0002BE   F5..         MOV       ?V1,A
   \   0002C0   78..         MOV       R0,#?V0
   \   0002C2   12....       LCALL     ?PUSH_XSTACK_I_TWO
   \   0002C5   A9..         MOV       R1,?V6
   \   0002C7   E5..         MOV       A,?V8
   \   0002C9   2402         ADD       A,#0x2
   \   0002CB   FC           MOV       R4,A
   \   0002CC   E4           CLR       A
   \   0002CD   35..         ADDC      A,?V9
   \   0002CF   FD           MOV       R5,A
   \   0002D0   E5..         MOV       A,?V8
   \   0002D2   240F         ADD       A,#0xf
   \   0002D4   FA           MOV       R2,A
   \   0002D5   E4           CLR       A
   \   0002D6   35..         ADDC      A,?V9
   \   0002D8   FB           MOV       R3,A
   \   0002D9   12....       LCALL     `??fillAndSend::?relay`; Banked call to: fillAndSend
   \   0002DC   7402         MOV       A,#0x2
   \   0002DE   12....       LCALL     ?DEALLOC_XSTACK8
    841              ZDP_TxOptions = AF_TX_OPTIONS_NONE;
   \   0002E1   90....       MOV       DPTR,#ZDP_TxOptions
   \   0002E4   E4           CLR       A
   \   0002E5   F0           MOVX      @DPTR,A
    842            }
    843          }
   \                     ??zdpProcessAddrReq_13:
   \   0002E6   7416         MOV       A,#0x16
   \   0002E8   12....       LCALL     ?DEALLOC_XSTACK8
   \   0002EB   7F10         MOV       R7,#0x10
   \   0002ED   02....       LJMP      ?BANKED_LEAVE_XDATA

   \                                 In  segment BANKED_CODE, align 1, keep-with-next
   \                     ?Subroutine52:
   \   000000   85..82       MOV       DPL,?V12
   \   000003   85..83       MOV       DPH,?V13
   \   000006                REQUIRE ??Subroutine101_0
   \   000006                ; // Fall through to label ??Subroutine101_0

   \                                 In  segment BANKED_CODE, align 1, keep-with-next
   \                     ??Subroutine101_0:
   \   000000   12....       LCALL     ?Subroutine79 & 0xFFFF
   \                     ??CrossCallReturnLabel_186:
   \   000003   49           ORL       A,R1
   \   000004   22           RET

   \                                 In  segment BANKED_CODE, align 1, keep-with-next
   \                     ?Subroutine26:
   \   000000   85..82       MOV       DPL,?V0
   \   000003   85..83       MOV       DPH,?V1
   \   000006   A3           INC       DPTR
   \   000007                REQUIRE ??Subroutine103_0
   \   000007                ; // Fall through to label ??Subroutine103_0

   \                                 In  segment BANKED_CODE, align 1, keep-with-next
   \                     ??Subroutine103_0:
   \   000000   F0           MOVX      @DPTR,A
   \   000001   E5..         MOV       A,?V0
   \   000003   2402         ADD       A,#0x2
   \   000005   F5..         MOV       ?V0,A
   \   000007   22           RET

   \                                 In  segment BANKED_CODE, align 1, keep-with-next
   \                     ?Subroutine37:
   \   000000   12....       LCALL     ?Subroutine87 & 0xFFFF
   \                     ??CrossCallReturnLabel_179:
   \   000003   A3           INC       DPTR
   \   000004   E0           MOVX      A,@DPTR
   \   000005   22           RET

   \                                 In  segment BANKED_CODE, align 1, keep-with-next
   \                     ??Subroutine105_0:
   \   000000   12....       LCALL     ?Subroutine87 & 0xFFFF
   \                     ??CrossCallReturnLabel_181:
   \   000003   E0           MOVX      A,@DPTR
   \   000004   22           RET

   \                                 In  segment BANKED_CODE, align 1, keep-with-next
   \                     ??Subroutine107_0:
   \   000000   12....       LCALL     ?Subroutine79 & 0xFFFF
   \                     ??CrossCallReturnLabel_189:
   \   000003   22           RET

   \                                 In  segment BANKED_CODE, align 1, keep-with-next
   \                     ?Subroutine79:
   \   000000   E0           MOVX      A,@DPTR
   \   000001   F8           MOV       R0,A
   \   000002   A3           INC       DPTR
   \   000003   E0           MOVX      A,@DPTR
   \   000004   F9           MOV       R1,A
   \   000005   E8           MOV       A,R0
   \   000006   22           RET

   \                                 In  segment BANKED_CODE, align 1, keep-with-next
   \                     ?Subroutine77:
   \   000000   E0           MOVX      A,@DPTR
   \   000001   85..82       MOV       DPL,?V0
   \   000004   85..83       MOV       DPH,?V1
   \   000007   22           RET

   \                                 In  segment BANKED_CODE, align 1, keep-with-next
   \                     ?Subroutine36:
   \   000000   12....       LCALL     ?Subroutine88 & 0xFFFF
   \                     ??CrossCallReturnLabel_149:
   \   000003   22           RET
    844          
    845          /*********************************************************************
    846           * @fn          ZDP_NodeDescMsg
    847           *
    848           * @brief       Builds and sends a Node Descriptor message, unicast to the
    849           *              specified device.
    850           *
    851           * @param       inMsg - incoming message
    852           * @param       nwkAddr - 16 bit network address for device
    853           * @param       pNodeDesc - pointer to the node descriptor
    854           *
    855           * @return      afStatus_t
    856           */

   \                                 In  segment BANKED_CODE, align 1, keep-with-next
    857          afStatus_t ZDP_NodeDescMsg( zdoIncomingMsg_t *inMsg,
   \                     ZDP_NodeDescMsg:
    858                                     uint16 nwkAddr, NodeDescriptorFormat_t *pNodeDesc )
    859          {
   \   000000                REQUIRE ?V0
   \   000000                REQUIRE ?V1
   \   000000   74F6         MOV       A,#-0xa
   \   000002   12....       LCALL     ?BANKED_ENTER_XDATA
   \   000005                ; Saved register size: 10
   \   000005                ; Auto size: 0
    860            uint8 *pBuf = ZDP_TmpBuf;
   \   000005   90....       MOV       DPTR,#ZDP_TmpBuf
   \   000008   E0           MOVX      A,@DPTR
   \   000009   FE           MOV       R6,A
   \   00000A   A3           INC       DPTR
   \   00000B   E0           MOVX      A,@DPTR
   \   00000C   12....       LCALL     ?Subroutine19 & 0xFFFF
    861            byte len;
    862          
    863            len = 1 + 2 + 13;  // Status + nwkAddr + Node descriptor
    864          
    865            *pBuf++ = ZDP_SUCCESS;
    866          
    867            *pBuf++ = LO_UINT16( nwkAddr );
    868            *pBuf++ = HI_UINT16( nwkAddr );
   \                     ??CrossCallReturnLabel_20:
   \   00000F   12....       LCALL     ?XSTACK_DISP0_8
   \   000012   12....       LCALL     ?Subroutine45 & 0xFFFF
    869          
    870            *pBuf++ = (byte)((pNodeDesc->ComplexDescAvail << 3) |
    871                               (pNodeDesc->UserDescAvail << 4) |
    872                               (pNodeDesc->LogicalType & 0x07));
   \                     ??CrossCallReturnLabel_70:
   \   000015   541F         ANL       A,#0x1f
   \   000017   8E82         MOV       DPL,R6
   \   000019   8F83         MOV       DPH,R7
   \   00001B   A3           INC       DPTR
   \   00001C   A3           INC       DPTR
   \   00001D   12....       LCALL     ?Subroutine25 & 0xFFFF
    873          
    874            *pBuf++ = (byte)((pNodeDesc->FrequencyBand << 3) | (pNodeDesc->APSFlags & 0x07));
   \                     ??CrossCallReturnLabel_176:
   \   000020   8E82         MOV       DPL,R6
   \   000022   8F83         MOV       DPH,R7
   \   000024   A3           INC       DPTR
   \   000025   A3           INC       DPTR
   \   000026   A3           INC       DPTR
   \   000027   A3           INC       DPTR
   \   000028   12....       LCALL     ?Subroutine37 & 0xFFFF
    875            *pBuf++ = pNodeDesc->CapabilityFlags;
   \                     ??CrossCallReturnLabel_54:
   \   00002B   8E82         MOV       DPL,R6
   \   00002D   8F83         MOV       DPH,R7
   \   00002F   12....       LCALL     ?Subroutine29 & 0xFFFF
    876            *pBuf++ = pNodeDesc->ManufacturerCode[0];
   \                     ??CrossCallReturnLabel_173:
   \   000032   12....       LCALL     ?Subroutine48 & 0xFFFF
   \                     ??CrossCallReturnLabel_74:
   \   000035   12....       LCALL     ?Subroutine29 & 0xFFFF
    877            *pBuf++ = pNodeDesc->ManufacturerCode[1];
   \                     ??CrossCallReturnLabel_174:
   \   000038   A3           INC       DPTR
   \   000039   E0           MOVX      A,@DPTR
   \   00003A   8E82         MOV       DPL,R6
   \   00003C   8F83         MOV       DPH,R7
   \   00003E   12....       LCALL     ?Subroutine28 & 0xFFFF
    878            *pBuf++ = pNodeDesc->MaxBufferSize;
   \                     ??CrossCallReturnLabel_43:
   \   000041   12....       LCALL     ?Subroutine48 & 0xFFFF
   \                     ??CrossCallReturnLabel_75:
   \   000044   12....       LCALL     ?Subroutine28 & 0xFFFF
    879            *pBuf++ = pNodeDesc->MaxInTransferSize[0];
   \                     ??CrossCallReturnLabel_44:
   \   000047   A3           INC       DPTR
   \   000048   12....       LCALL     ?Subroutine46 & 0xFFFF
   \                     ??CrossCallReturnLabel_72:
   \   00004B   12....       LCALL     ?Subroutine23 & 0xFFFF
    880            *pBuf++ = pNodeDesc->MaxInTransferSize[1];
   \                     ??CrossCallReturnLabel_30:
   \   00004E   12....       LCALL     ?Subroutine46 & 0xFFFF
   \                     ??CrossCallReturnLabel_73:
   \   000051   A3           INC       DPTR
   \   000052   F0           MOVX      @DPTR,A
    881          
    882            *pBuf++ = LO_UINT16( pNodeDesc->ServerMask );
   \   000053   E8           MOV       A,R0
   \   000054   2408         ADD       A,#0x8
   \   000056   FC           MOV       R4,A
   \   000057   E4           CLR       A
   \   000058   39           ADDC      A,R1
   \   000059   FD           MOV       R5,A
   \   00005A   8C82         MOV       DPL,R4
   \   00005C   8D83         MOV       DPH,R5
   \   00005E   E0           MOVX      A,@DPTR
   \   00005F   F5..         MOV       ?V0,A
   \   000061   EE           MOV       A,R6
   \   000062   240B         ADD       A,#0xb
   \   000064   F582         MOV       DPL,A
   \   000066   E4           CLR       A
   \   000067   3F           ADDC      A,R7
   \   000068   F583         MOV       DPH,A
   \   00006A   E5..         MOV       A,?V0
   \   00006C   12....       LCALL     ??Subroutine109_0 & 0xFFFF
    883            *pBuf++ = HI_UINT16( pNodeDesc->ServerMask );
   \                     ??CrossCallReturnLabel_199:
   \   00006F   E0           MOVX      A,@DPTR
   \   000070   C0E0         PUSH      A
   \   000072   EE           MOV       A,R6
   \   000073   240C         ADD       A,#0xc
   \   000075   F582         MOV       DPL,A
   \   000077   E4           CLR       A
   \   000078   3F           ADDC      A,R7
   \   000079   F583         MOV       DPH,A
   \   00007B   D0E0         POP       A
   \   00007D   12....       LCALL     ?Subroutine23 & 0xFFFF
    884            *pBuf++ = pNodeDesc->MaxOutTransferSize[0];
   \                     ??CrossCallReturnLabel_31:
   \   000080   A3           INC       DPTR
   \   000081   A3           INC       DPTR
   \   000082   A3           INC       DPTR
   \   000083   E0           MOVX      A,@DPTR
   \   000084   C0E0         PUSH      A
   \   000086   EE           MOV       A,R6
   \   000087   240D         ADD       A,#0xd
   \   000089   F582         MOV       DPL,A
   \   00008B   E4           CLR       A
   \   00008C   3F           ADDC      A,R7
   \   00008D   F583         MOV       DPH,A
   \   00008F   D0E0         POP       A
   \   000091   F0           MOVX      @DPTR,A
    885            *pBuf++ = pNodeDesc->MaxOutTransferSize[1];
   \   000092   E8           MOV       A,R0
   \   000093   240B         ADD       A,#0xb
   \   000095   F582         MOV       DPL,A
   \   000097   E4           CLR       A
   \   000098   39           ADDC      A,R1
   \   000099   F583         MOV       DPH,A
   \   00009B   E0           MOVX      A,@DPTR
   \   00009C   C0E0         PUSH      A
   \   00009E   EE           MOV       A,R6
   \   00009F   240E         ADD       A,#0xe
   \   0000A1   F582         MOV       DPL,A
   \   0000A3   E4           CLR       A
   \   0000A4   3F           ADDC      A,R7
   \   0000A5   F583         MOV       DPH,A
   \   0000A7   D0E0         POP       A
   \   0000A9   F0           MOVX      @DPTR,A
    886            *pBuf = pNodeDesc->DescriptorCapability;
   \   0000AA   E8           MOV       A,R0
   \   0000AB   240C         ADD       A,#0xc
   \   0000AD   F582         MOV       DPL,A
   \   0000AF   E4           CLR       A
   \   0000B0   39           ADDC      A,R1
   \   0000B1   F583         MOV       DPH,A
   \   0000B3   E0           MOVX      A,@DPTR
   \   0000B4   C0E0         PUSH      A
   \   0000B6   EE           MOV       A,R6
   \   0000B7   240F         ADD       A,#0xf
   \   0000B9   F582         MOV       DPL,A
   \   0000BB   E4           CLR       A
   \   0000BC   3F           ADDC      A,R7
   \   0000BD   F583         MOV       DPH,A
   \   0000BF   D0E0         POP       A
   \   0000C1   F0           MOVX      @DPTR,A
    887          
    888            return fillAndSend( &(inMsg->TransSeq), &(inMsg->srcAddr), Node_Desc_rsp, len );
   \   0000C2                ; Setup parameters for call to function fillAndSend
   \   0000C2   75..02       MOV       ?V0,#0x2
   \   0000C5   75..80       MOV       ?V1,#-0x80
   \   0000C8   78..         MOV       R0,#?V0
   \   0000CA   12....       LCALL     ?PUSH_XSTACK_I_TWO
   \   0000CD   7910         MOV       R1,#0x10
   \   0000CF   12....       LCALL     ?Subroutine72 & 0xFFFF
   \                     ??CrossCallReturnLabel_125:
   \   0000D2   5001         JNC       ??ZDP_NodeDescMsg_0
   \   0000D4   0B           INC       R3
   \                     ??ZDP_NodeDescMsg_0:
   \   0000D5   80..         SJMP      ??Subroutine106_0
    889          }

   \                                 In  segment BANKED_CODE, align 1, keep-with-next
   \                     ?Subroutine46:
   \   000000   E0           MOVX      A,@DPTR
   \   000001   8E82         MOV       DPL,R6
   \   000003   8F83         MOV       DPH,R7
   \   000005   A3           INC       DPTR
   \   000006   A3           INC       DPTR
   \   000007   A3           INC       DPTR
   \   000008   A3           INC       DPTR
   \   000009   A3           INC       DPTR
   \   00000A   A3           INC       DPTR
   \   00000B   A3           INC       DPTR
   \   00000C   A3           INC       DPTR
   \   00000D   A3           INC       DPTR
   \   00000E   22           RET

   \                                 In  segment BANKED_CODE, align 1, keep-with-next
   \                     ?Subroutine29:
   \   000000   A3           INC       DPTR
   \   000001   A3           INC       DPTR
   \   000002   A3           INC       DPTR
   \   000003   A3           INC       DPTR
   \   000004   A3           INC       DPTR
   \   000005                REQUIRE ??Subroutine104_0
   \   000005                ; // Fall through to label ??Subroutine104_0

   \                                 In  segment BANKED_CODE, align 1, keep-with-next
   \                     ??Subroutine104_0:
   \   000000   12....       LCALL     ?Subroutine87 & 0xFFFF
   \                     ??CrossCallReturnLabel_180:
   \   000003   A3           INC       DPTR
   \   000004   A3           INC       DPTR
   \   000005   22           RET

   \                                 In  segment BANKED_CODE, align 1, keep-with-next
   \                     ?Subroutine28:
   \   000000   A3           INC       DPTR
   \   000001   A3           INC       DPTR
   \   000002   A3           INC       DPTR
   \   000003   A3           INC       DPTR
   \   000004   A3           INC       DPTR
   \   000005   A3           INC       DPTR
   \   000006   A3           INC       DPTR
   \   000007   12....       LCALL     ?Subroutine86 & 0xFFFF
   \                     ??CrossCallReturnLabel_147:
   \   00000A   22           RET

   \                                 In  segment BANKED_CODE, align 1, keep-with-next
   \                     ?Subroutine86:
   \   000000   12....       LCALL     ?Subroutine94 & 0xFFFF
   \                     ??CrossCallReturnLabel_193:
   \   000003   A3           INC       DPTR
   \   000004   A3           INC       DPTR
   \   000005   A3           INC       DPTR
   \   000006   A3           INC       DPTR
   \   000007   A3           INC       DPTR
   \   000008   22           RET

   \                                 In  segment BANKED_CODE, align 1, keep-with-next
   \                     ?Subroutine25:
   \   000000   A3           INC       DPTR
   \   000001                REQUIRE ??Subroutine105_0
   \   000001                ; // Fall through to label ??Subroutine105_0

   \                                 In  segment BANKED_CODE, align 1, keep-with-next
   \                     ?Subroutine23:
   \   000000   12....       LCALL     ?Subroutine86 & 0xFFFF
   \                     ??CrossCallReturnLabel_148:
   \   000003   A3           INC       DPTR
   \   000004   A3           INC       DPTR
   \   000005   22           RET

   \                                 In  segment BANKED_CODE, align 1, keep-with-next
   \                     ?Subroutine72:
   \   000000   EA           MOV       A,R2
   \   000001   2402         ADD       A,#0x2
   \   000003   FC           MOV       R4,A
   \   000004   E4           CLR       A
   \   000005   3B           ADDC      A,R3
   \   000006   FD           MOV       R5,A
   \   000007   EA           MOV       A,R2
   \   000008   240F         ADD       A,#0xf
   \   00000A   FA           MOV       R2,A
   \   00000B   22           RET

   \                                 In  segment BANKED_CODE, align 1, keep-with-next
   \                     ?Subroutine19:
   \   000000   FF           MOV       R7,A
   \   000001   8E82         MOV       DPL,R6
   \   000003   8F83         MOV       DPH,R7
   \   000005   E4           CLR       A
   \   000006   F0           MOVX      @DPTR,A
   \   000007   EC           MOV       A,R4
   \   000008   A3           INC       DPTR
   \   000009   F0           MOVX      @DPTR,A
   \   00000A   ED           MOV       A,R5
   \   00000B   8E82         MOV       DPL,R6
   \   00000D   8F83         MOV       DPH,R7
   \   00000F   A3           INC       DPTR
   \   000010   A3           INC       DPTR
   \   000011   F0           MOVX      @DPTR,A
   \   000012   740A         MOV       A,#0xa
   \   000014   22           RET

   \                                 In  segment BANKED_CODE, align 1, keep-with-next
   \                     ??Subroutine109_0:
   \   000000   F0           MOVX      @DPTR,A
   \   000001   8C82         MOV       DPL,R4
   \   000003   8D83         MOV       DPH,R5
   \   000005   A3           INC       DPTR
   \   000006   22           RET

   \                                 In  segment BANKED_CODE, align 1, keep-with-next
   \                     ?Subroutine48:
   \   000000   E0           MOVX      A,@DPTR
   \   000001   8E82         MOV       DPL,R6
   \   000003   8F83         MOV       DPH,R7
   \   000005   A3           INC       DPTR
   \   000006   22           RET
    890          
    891          /*********************************************************************
    892           * @fn          ZDP_PowerDescMsg
    893           *
    894           * @brief       Builds and sends a Power Descriptor message, unicast to the
    895           *              specified device.
    896           *
    897           * @param       inMsg - incoming message (request)
    898           * @param       nwkAddr - 16 bit network address for device
    899           * @param       pPowerDesc - pointer to the node descriptor
    900           *
    901           * @return      afStatus_t
    902           */

   \                                 In  segment BANKED_CODE, align 1, keep-with-next
    903          afStatus_t ZDP_PowerDescMsg( zdoIncomingMsg_t *inMsg,
   \                     ZDP_PowerDescMsg:
    904                               uint16 nwkAddr, NodePowerDescriptorFormat_t *pPowerDesc )
    905          {
   \   000000                REQUIRE ?V0
   \   000000                REQUIRE ?V1
   \   000000   74F6         MOV       A,#-0xa
   \   000002   12....       LCALL     ?BANKED_ENTER_XDATA
   \   000005                ; Saved register size: 10
   \   000005                ; Auto size: 0
    906            uint8 *pBuf = ZDP_TmpBuf;
   \   000005   12....       LCALL     ?Subroutine59 & 0xFFFF
   \                     ??CrossCallReturnLabel_184:
   \   000008   FE           MOV       R6,A
   \   000009   E9           MOV       A,R1
   \   00000A   12....       LCALL     ?Subroutine19 & 0xFFFF
    907            byte len = 1 + 2 + 2;  // Status + nwkAddr + Node Power descriptor.
    908          
    909            *pBuf++ = ZDP_SUCCESS;
    910          
    911            *pBuf++ = LO_UINT16( nwkAddr );
    912            *pBuf++ = HI_UINT16( nwkAddr );
   \                     ??CrossCallReturnLabel_21:
   \   00000D   12....       LCALL     ?XSTACK_DISP0_8
   \   000010   12....       LCALL     ?Subroutine45 & 0xFFFF
    913          
    914            *pBuf++ = (byte)((pPowerDesc->AvailablePowerSources << 4)
    915                              | (pPowerDesc->PowerMode & 0x0F));
   \                     ??CrossCallReturnLabel_71:
   \   000013   8E82         MOV       DPL,R6
   \   000015   8F83         MOV       DPH,R7
   \   000017   A3           INC       DPTR
   \   000018   12....       LCALL     ?Subroutine30 & 0xFFFF
    916            *pBuf++ = (byte)((pPowerDesc->CurrentPowerSourceLevel << 4)
    917                              | (pPowerDesc->CurrentPowerSource & 0x0F));
   \                     ??CrossCallReturnLabel_190:
   \   00001B   F5..         MOV       ?V0,A
   \   00001D   A3           INC       DPTR
   \   00001E   E0           MOVX      A,@DPTR
   \   00001F   F5..         MOV       ?V1,A
   \   000021   540F         ANL       A,#0xf
   \   000023   F9           MOV       R1,A
   \   000024   740C         MOV       A,#0xc
   \   000026   78..         MOV       R0,#?V0
   \   000028   12....       LCALL     ?US_SHR
   \   00002B   E5..         MOV       A,?V0
   \   00002D   C4           SWAP      A
   \   00002E   49           ORL       A,R1
   \   00002F   8E82         MOV       DPL,R6
   \   000031   8F83         MOV       DPH,R7
   \   000033   A3           INC       DPTR
   \   000034   A3           INC       DPTR
   \   000035   A3           INC       DPTR
   \   000036   A3           INC       DPTR
   \   000037   F0           MOVX      @DPTR,A
    918          
    919            return fillAndSend( &(inMsg->TransSeq), &(inMsg->srcAddr), Power_Desc_rsp, len );
   \   000038                ; Setup parameters for call to function fillAndSend
   \   000038   75..03       MOV       ?V0,#0x3
   \   00003B   75..80       MOV       ?V1,#-0x80
   \   00003E   78..         MOV       R0,#?V0
   \   000040   12....       LCALL     ?PUSH_XSTACK_I_TWO
   \   000043   7905         MOV       R1,#0x5
   \   000045   12....       LCALL     ?Subroutine72 & 0xFFFF
   \                     ??CrossCallReturnLabel_126:
   \   000048   5001         JNC       ??ZDP_PowerDescMsg_0
   \   00004A   0B           INC       R3
   \                     ??ZDP_PowerDescMsg_0:
   \   00004B   80..         SJMP      ??Subroutine106_0
    920          }

   \                                 In  segment BANKED_CODE, align 1, keep-with-next
   \                     ?Subroutine59:
   \   000000   90....       MOV       DPTR,#ZDP_TmpBuf
   \   000003                REQUIRE ??Subroutine107_0
   \   000003                ; // Fall through to label ??Subroutine107_0

   \                                 In  segment BANKED_CODE, align 1, keep-with-next
   \                     ?Subroutine30:
   \   000000   A3           INC       DPTR
   \   000001   A3           INC       DPTR
   \   000002                REQUIRE ??Subroutine108_0
   \   000002                ; // Fall through to label ??Subroutine108_0

   \                                 In  segment BANKED_CODE, align 1, keep-with-next
   \                     ??Subroutine108_0:
   \   000000   12....       LCALL     ?Subroutine94 & 0xFFFF
   \                     ??CrossCallReturnLabel_195:
   \   000003   E0           MOVX      A,@DPTR
   \   000004   22           RET
    921          
    922          /*********************************************************************
    923           * @fn          ZDP_SimpleDescMsg
    924           *
    925           * @brief       Builds and sends a Simple Descriptor message, unicast to the
    926           *              specified device.
    927           *
    928           * @param       inMsg - incoming message (request)
    929           * @param       Status - message status (ZDP_SUCCESS or other)
    930           * @param       pSimpleDesc - pointer to the node descriptor
    931           *
    932           * @return      afStatus_t
    933           */

   \                                 In  segment BANKED_CODE, align 1, keep-with-next
    934          afStatus_t ZDP_SimpleDescMsg( zdoIncomingMsg_t *inMsg, byte Status,
   \                     ZDP_SimpleDescMsg:
    935                                        SimpleDescriptionFormat_t *pSimpleDesc )
    936          {
   \   000000                REQUIRE ?V0
   \   000000                REQUIRE ?V1
   \   000000                REQUIRE ?V2
   \   000000                REQUIRE ?V3
   \   000000                REQUIRE ?V4
   \   000000                REQUIRE ?V5
   \   000000                REQUIRE ?V6
   \   000000                REQUIRE ?V7
   \   000000                REQUIRE ?V8
   \   000000                REQUIRE ?V9
   \   000000                REQUIRE ?V10
   \   000000                REQUIRE ?V11
   \   000000   74EC         MOV       A,#-0x14
   \   000002   12....       LCALL     ?BANKED_ENTER_XDATA
   \   000005                ; Saved register size: 20
   \   000005                ; Auto size: 0
   \   000005   8A..         MOV       ?V0,R2
   \   000007   8B..         MOV       ?V1,R3
   \   000009   E9           MOV       A,R1
   \   00000A   FE           MOV       R6,A
    937            uint8 *pBuf = ZDP_TmpBuf;
   \   00000B   12....       LCALL     ??Subroutine120_0 & 0xFFFF
    938            uint8 i, len;
    939          
    940            if ( Status == ZDP_SUCCESS && pSimpleDesc )
   \                     ??CrossCallReturnLabel_255:
   \   00000E   EC           MOV       A,R4
   \   00000F   2409         ADD       A,#0x9
   \   000011   F5..         MOV       ?V4,A
   \   000013   E4           CLR       A
   \   000014   3D           ADDC      A,R5
   \   000015   F5..         MOV       ?V5,A
   \   000017   EC           MOV       A,R4
   \   000018   2406         ADD       A,#0x6
   \   00001A   F5..         MOV       ?V6,A
   \   00001C   E4           CLR       A
   \   00001D   3D           ADDC      A,R5
   \   00001E   F5..         MOV       ?V7,A
   \   000020   EE           MOV       A,R6
   \   000021   7023         JNZ       ??ZDP_SimpleDescMsg_0
   \   000023   EC           MOV       A,R4
   \   000024   4D           ORL       A,R5
   \   000025   601F         JZ        ??ZDP_SimpleDescMsg_0
    941            {
    942              // Status + NWKAddrOfInterest + desc length + empty simple descriptor.
    943              len = 1 + 2 + 1 + 8;
    944              len += (pSimpleDesc->AppNumInClusters + pSimpleDesc->AppNumOutClusters) * sizeof ( uint16 );
   \   000027   85..82       MOV       DPL,?V4
   \   00002A   85..83       MOV       DPH,?V5
   \   00002D   E0           MOVX      A,@DPTR
   \   00002E   FA           MOV       R2,A
   \   00002F   85..82       MOV       DPL,?V6
   \   000032   85..83       MOV       DPH,?V7
   \   000035   E0           MOVX      A,@DPTR
   \   000036   2A           ADD       A,R2
   \   000037   C3           CLR       C
   \   000038   33           RLC       A
   \   000039   240C         ADD       A,#0xc
   \   00003B   FA           MOV       R2,A
    945            }
    946            else
    947            {
    948              len = 1 + 2 + 1; // Status + desc length
    949            }
    950            if ( len >= ZDP_BUF_SZ-1 )
   \   00003C   C3           CLR       C
   \   00003D   944F         SUBB      A,#0x4f
   \   00003F   4007         JC        ??ZDP_SimpleDescMsg_1
    951            {
    952              return afStatus_MEM_FAIL;
   \   000041   7910         MOV       R1,#0x10
   \   000043   02....       LJMP      ??ZDP_SimpleDescMsg_2 & 0xFFFF
    953            }
   \                     ??ZDP_SimpleDescMsg_0:
   \   000046   7A04         MOV       R2,#0x4
    954          
    955            *pBuf++ = Status;
   \                     ??ZDP_SimpleDescMsg_1:
   \   000048   EE           MOV       A,R6
   \   000049   8882         MOV       DPL,R0
   \   00004B   8983         MOV       DPH,R1
   \   00004D   F0           MOVX      @DPTR,A
    956            
    957            //From spec 2.4.3.1.5 The NWKAddrOfInterest field shall match 
    958            //that specified in the original Simple_Desc_req command
    959            *pBuf++ = inMsg->asdu[0];  
   \   00004E   E5..         MOV       A,?V0
   \   000050   2413         ADD       A,#0x13
   \   000052   F5..         MOV       ?V2,A
   \   000054   E4           CLR       A
   \   000055   35..         ADDC      A,?V1
   \   000057   F5..         MOV       ?V3,A
   \   000059   85..82       MOV       DPL,?V2
   \   00005C   F583         MOV       DPH,A
   \   00005E   E0           MOVX      A,@DPTR
   \   00005F   FB           MOV       R3,A
   \   000060   A3           INC       DPTR
   \   000061   E0           MOVX      A,@DPTR
   \   000062   F583         MOV       DPH,A
   \   000064   8B82         MOV       DPL,R3
   \   000066   12....       LCALL     ??Subroutine116_0 & 0xFFFF
   \                     ??CrossCallReturnLabel_225:
   \   000069   A3           INC       DPTR
   \   00006A   12....       LCALL     ?Subroutine40 & 0xFFFF
    960            *pBuf++ = inMsg->asdu[1];
   \                     ??CrossCallReturnLabel_59:
   \   00006D   FB           MOV       R3,A
   \   00006E   A3           INC       DPTR
   \   00006F   E0           MOVX      A,@DPTR
   \   000070   F583         MOV       DPH,A
   \   000072   8B82         MOV       DPL,R3
   \   000074   A3           INC       DPTR
   \   000075   12....       LCALL     ?Subroutine67 & 0xFFFF
   \                     ??CrossCallReturnLabel_115:
   \   000078   F0           MOVX      @DPTR,A
    961          
    962            if ( len > 4 )
   \   000079   E8           MOV       A,R0
   \   00007A   2403         ADD       A,#0x3
   \   00007C   F582         MOV       DPL,A
   \   00007E   E4           CLR       A
   \   00007F   39           ADDC      A,R1
   \   000080   F583         MOV       DPH,A
   \   000082   EA           MOV       A,R2
   \   000083   C3           CLR       C
   \   000084   9405         SUBB      A,#0x5
   \   000086   5003         JNC       $+5
   \   000088   02....       LJMP      ??ZDP_SimpleDescMsg_3 & 0xFFFF
    963            {
    964              *pBuf++ = len - 4;   // Simple descriptor length
   \   00008B   74FC         MOV       A,#-0x4
   \   00008D   2A           ADD       A,R2
   \   00008E   F0           MOVX      @DPTR,A
    965          
    966              *pBuf++ = pSimpleDesc->EndPoint;
   \   00008F   8C82         MOV       DPL,R4
   \   000091   8D83         MOV       DPH,R5
   \   000093   12....       LCALL     ?Subroutine67 & 0xFFFF
   \                     ??CrossCallReturnLabel_116:
   \   000096   12....       LCALL     ?Subroutine33 & 0xFFFF
    967              *pBuf++ = LO_UINT16( pSimpleDesc->AppProfId );
   \                     ??CrossCallReturnLabel_197:
   \   000099   8582..       MOV       ?V2,DPL
   \   00009C   8583..       MOV       ?V3,DPH
   \   00009F   12....       LCALL     ??Subroutine116_0 & 0xFFFF
   \                     ??CrossCallReturnLabel_226:
   \   0000A2   12....       LCALL     ?Subroutine12 & 0xFFFF
    968              *pBuf++ = HI_UINT16( pSimpleDesc->AppProfId );
   \                     ??CrossCallReturnLabel_4:
   \   0000A5   F0           MOVX      @DPTR,A
    969              *pBuf++ = LO_UINT16( pSimpleDesc->AppDeviceId );
   \   0000A6   EC           MOV       A,R4
   \   0000A7   2403         ADD       A,#0x3
   \   0000A9   F5..         MOV       ?V2,A
   \   0000AB   E4           CLR       A
   \   0000AC   3D           ADDC      A,R5
   \   0000AD   F5..         MOV       ?V3,A
   \   0000AF   85..82       MOV       DPL,?V2
   \   0000B2   F583         MOV       DPH,A
   \   0000B4   12....       LCALL     ?Subroutine67 & 0xFFFF
   \                     ??CrossCallReturnLabel_117:
   \   0000B7   12....       LCALL     ?Subroutine12 & 0xFFFF
    970              *pBuf++ = HI_UINT16( pSimpleDesc->AppDeviceId );
   \                     ??CrossCallReturnLabel_5:
   \   0000BA   12....       LCALL     ?Subroutine33 & 0xFFFF
    971          
    972              *pBuf++ = (byte)(pSimpleDesc->AppDevVer & 0x0F);
   \                     ??CrossCallReturnLabel_198:
   \   0000BD   A3           INC       DPTR
   \   0000BE   A3           INC       DPTR
   \   0000BF   A3           INC       DPTR
   \   0000C0   A3           INC       DPTR
   \   0000C1   E0           MOVX      A,@DPTR
   \   0000C2   540F         ANL       A,#0xf
   \   0000C4   8882         MOV       DPL,R0
   \   0000C6   8983         MOV       DPH,R1
   \   0000C8   A3           INC       DPTR
   \   0000C9   A3           INC       DPTR
   \   0000CA   A3           INC       DPTR
   \   0000CB   A3           INC       DPTR
   \   0000CC   A3           INC       DPTR
   \   0000CD   A3           INC       DPTR
   \   0000CE   A3           INC       DPTR
   \   0000CF   A3           INC       DPTR
   \   0000D0   A3           INC       DPTR
   \   0000D1   F0           MOVX      @DPTR,A
    973          
    974              *pBuf++ = pSimpleDesc->AppNumInClusters;
   \   0000D2   85..82       MOV       DPL,?V6
   \   0000D5   85..83       MOV       DPH,?V7
   \   0000D8   12....       LCALL     ?Subroutine57 & 0xFFFF
   \                     ??CrossCallReturnLabel_95:
   \   0000DB   A3           INC       DPTR
   \   0000DC   A3           INC       DPTR
   \   0000DD   A3           INC       DPTR
   \   0000DE   A3           INC       DPTR
   \   0000DF   A3           INC       DPTR
   \   0000E0   F0           MOVX      @DPTR,A
   \   0000E1   E8           MOV       A,R0
   \   0000E2   240B         ADD       A,#0xb
   \   0000E4   F8           MOV       R0,A
   \   0000E5   5001         JNC       ??ZDP_SimpleDescMsg_4
   \   0000E7   09           INC       R1
    975              if ( pSimpleDesc->AppNumInClusters )
   \                     ??ZDP_SimpleDescMsg_4:
   \   0000E8   85..82       MOV       DPL,?V6
   \   0000EB   85..83       MOV       DPH,?V7
   \   0000EE   E0           MOVX      A,@DPTR
   \   0000EF   6031         JZ        ??ZDP_SimpleDescMsg_5
    976              {
    977                for (i=0; i<pSimpleDesc->AppNumInClusters; ++i)
   \   0000F1   7B00         MOV       R3,#0x0
   \   0000F3   EC           MOV       A,R4
   \   0000F4   2407         ADD       A,#0x7
   \   0000F6   F5..         MOV       ?V2,A
   \   0000F8   E4           CLR       A
   \   0000F9   3D           ADDC      A,R5
   \   0000FA   85....       MOV       ?V8,?V2
   \   0000FD   F5..         MOV       ?V9,A
   \   0000FF   8014         SJMP      ??ZDP_SimpleDescMsg_6
    978                {
    979                  *pBuf++ = LO_UINT16( pSimpleDesc->pAppInClusterList[i] );
   \                     ??ZDP_SimpleDescMsg_7:
   \   000101   EB           MOV       A,R3
   \   000102   12....       LCALL     ?Subroutine92 & 0xFFFF
   \                     ??CrossCallReturnLabel_157:
   \   000105   12....       LCALL     ?Subroutine49 & 0xFFFF
   \                     ??CrossCallReturnLabel_78:
   \   000108   12....       LCALL     ?Subroutine62 & 0xFFFF
    980                  *pBuf++ = HI_UINT16( pSimpleDesc->pAppInClusterList[i] );
   \                     ??CrossCallReturnLabel_103:
   \   00010B   12....       LCALL     ?Subroutine49 & 0xFFFF
    981                }
   \                     ??CrossCallReturnLabel_79:
   \   00010E   12....       LCALL     ?Subroutine54 & 0xFFFF
   \                     ??CrossCallReturnLabel_89:
   \   000111   5001         JNC       ??ZDP_SimpleDescMsg_8
   \   000113   09           INC       R1
   \                     ??ZDP_SimpleDescMsg_8:
   \   000114   0B           INC       R3
   \                     ??ZDP_SimpleDescMsg_6:
   \   000115   85..82       MOV       DPL,?V6
   \   000118   85..83       MOV       DPH,?V7
   \   00011B   E0           MOVX      A,@DPTR
   \   00011C   FF           MOV       R7,A
   \   00011D   EB           MOV       A,R3
   \   00011E   C3           CLR       C
   \   00011F   9F           SUBB      A,R7
   \   000120   40DF         JC        ??ZDP_SimpleDescMsg_7
    982              }
    983          
    984              *pBuf++ = pSimpleDesc->AppNumOutClusters;
   \                     ??ZDP_SimpleDescMsg_5:
   \   000122   85..82       MOV       DPL,?V4
   \   000125   85..83       MOV       DPH,?V5
   \   000128   12....       LCALL     ?Subroutine62 & 0xFFFF
   \                     ??CrossCallReturnLabel_104:
   \   00012B   A3           INC       DPTR
   \   00012C   A882         MOV       R0,DPL
   \   00012E   A983         MOV       R1,DPH
    985              if ( pSimpleDesc->AppNumOutClusters )
   \   000130   85..82       MOV       DPL,?V4
   \   000133   85..83       MOV       DPH,?V5
   \   000136   E0           MOVX      A,@DPTR
   \   000137   603F         JZ        ??ZDP_SimpleDescMsg_9
    986              {
    987                for (i=0; i<pSimpleDesc->AppNumOutClusters; ++i)
   \   000139   7B00         MOV       R3,#0x0
   \   00013B   EC           MOV       A,R4
   \   00013C   240A         ADD       A,#0xa
   \   00013E   FC           MOV       R4,A
   \   00013F   5001         JNC       ??ZDP_SimpleDescMsg_10
   \   000141   0D           INC       R5
   \                     ??ZDP_SimpleDescMsg_10:
   \   000142   8C..         MOV       ?V2,R4
   \   000144   8D..         MOV       ?V3,R5
   \                     ??ZDP_SimpleDescMsg_11:
   \   000146   85..82       MOV       DPL,?V4
   \   000149   85..83       MOV       DPH,?V5
   \   00014C   E0           MOVX      A,@DPTR
   \   00014D   FC           MOV       R4,A
   \   00014E   EB           MOV       A,R3
   \   00014F   C3           CLR       C
   \   000150   9C           SUBB      A,R4
   \   000151   5025         JNC       ??ZDP_SimpleDescMsg_9
    988                {
    989                  *pBuf++ = LO_UINT16( pSimpleDesc->pAppOutClusterList[i] );
   \   000153   EB           MOV       A,R3
   \   000154   25E0         ADD       A,0xE0 /* A   */
   \   000156   FC           MOV       R4,A
   \   000157   E4           CLR       A
   \   000158   33           RLC       A
   \   000159   FD           MOV       R5,A
   \   00015A   85..82       MOV       DPL,?V2
   \   00015D   85..83       MOV       DPH,?V3
   \   000160   E0           MOVX      A,@DPTR
   \   000161   12....       LCALL     ?Subroutine73 & 0xFFFF
    990                  *pBuf++ = HI_UINT16( pSimpleDesc->pAppOutClusterList[i] );
    991                }
   \                     ??CrossCallReturnLabel_127:
   \   000164   12....       LCALL     ??Subroutine116_0 & 0xFFFF
   \                     ??CrossCallReturnLabel_227:
   \   000167   12....       LCALL     ?Subroutine40 & 0xFFFF
   \                     ??CrossCallReturnLabel_60:
   \   00016A   12....       LCALL     ?Subroutine73 & 0xFFFF
   \                     ??CrossCallReturnLabel_128:
   \   00016D   12....       LCALL     ?Subroutine54 & 0xFFFF
   \                     ??CrossCallReturnLabel_90:
   \   000170   5001         JNC       ??ZDP_SimpleDescMsg_12
   \   000172   09           INC       R1
   \                     ??ZDP_SimpleDescMsg_12:
   \   000173   0B           INC       R3
   \   000174   80D0         SJMP      ??ZDP_SimpleDescMsg_11
    992              }
    993            }
    994          
    995            else
    996            {
    997              *pBuf = 0; // Description Length = 0;
   \                     ??ZDP_SimpleDescMsg_3:
   \   000176   E4           CLR       A
   \   000177   F0           MOVX      @DPTR,A
    998            }
    999          
   1000            return fillAndSend( &(inMsg->TransSeq), &(inMsg->srcAddr), Simple_Desc_rsp, len );
   \                     ??ZDP_SimpleDescMsg_9:
   \   000178                ; Setup parameters for call to function fillAndSend
   \   000178   75..04       MOV       ?V2,#0x4
   \   00017B   75..80       MOV       ?V3,#-0x80
   \   00017E   78..         MOV       R0,#?V2
   \   000180   12....       LCALL     ?PUSH_XSTACK_I_TWO
   \   000183   EA           MOV       A,R2
   \   000184   F9           MOV       R1,A
   \   000185   E5..         MOV       A,?V0
   \   000187   2402         ADD       A,#0x2
   \   000189   FC           MOV       R4,A
   \   00018A   E4           CLR       A
   \   00018B   35..         ADDC      A,?V1
   \   00018D   FD           MOV       R5,A
   \   00018E   E5..         MOV       A,?V0
   \   000190   240F         ADD       A,#0xf
   \   000192   FA           MOV       R2,A
   \   000193   E4           CLR       A
   \   000194   35..         ADDC      A,?V1
   \   000196   FB           MOV       R3,A
   \   000197   12....       LCALL     `??fillAndSend::?relay`; Banked call to: fillAndSend
   \   00019A   7402         MOV       A,#0x2
   \   00019C   12....       LCALL     ?DEALLOC_XSTACK8
   \                     ??ZDP_SimpleDescMsg_2:
   \   00019F                REQUIRE ?Subroutine5
   \   00019F                ; // Fall through to label ?Subroutine5
   1001          }

   \                                 In  segment BANKED_CODE, align 1, keep-with-next
   \                     ?Subroutine5:
   \   000000   7F0C         MOV       R7,#0xc
   \   000002   02....       LJMP      ?BANKED_LEAVE_XDATA

   \                                 In  segment BANKED_CODE, align 1, keep-with-next
   \                     ?Subroutine73:
   \   000000   2C           ADD       A,R4
   \   000001   FF           MOV       R7,A
   \   000002   A3           INC       DPTR
   \   000003   E0           MOVX      A,@DPTR
   \   000004   3D           ADDC      A,R5
   \   000005   8F82         MOV       DPL,R7
   \   000007   F583         MOV       DPH,A
   \   000009   22           RET

   \                                 In  segment BANKED_CODE, align 1, keep-with-next
   \                     ?Subroutine67:
   \   000000   12....       LCALL     ??Subroutine117_0 & 0xFFFF
   \                     ??CrossCallReturnLabel_232:
   \   000003   A3           INC       DPTR
   \   000004   A3           INC       DPTR
   \   000005   22           RET

   \                                 In  segment BANKED_CODE, align 1, keep-with-next
   \                     ?Subroutine54:
   \   000000   12....       LCALL     ?Subroutine76 & 0xFFFF
   \                     ??CrossCallReturnLabel_135:
   \   000003   22           RET

   \                                 In  segment BANKED_CODE, align 1, keep-with-next
   \                     ?Subroutine49:
   \   000000   85..82       MOV       DPL,?V8
   \   000003   85..83       MOV       DPH,?V9
   \   000006   E0           MOVX      A,@DPTR
   \   000007   25..         ADD       A,?V2
   \   000009   FF           MOV       R7,A
   \   00000A   A3           INC       DPTR
   \   00000B   E0           MOVX      A,@DPTR
   \   00000C   35..         ADDC      A,?V3
   \   00000E   8F82         MOV       DPL,R7
   \   000010   F583         MOV       DPH,A
   \   000012   22           RET

   \                                 In  segment BANKED_CODE, align 1, keep-with-next
   \                     ?Subroutine40:
   \   000000   12....       LCALL     ?Subroutine93 & 0xFFFF
   \                     ??CrossCallReturnLabel_160:
   \   000003   E0           MOVX      A,@DPTR
   \   000004   22           RET

   \                                 In  segment BANKED_CODE, align 1, keep-with-next
   \                     ?Subroutine33:
   \   000000   A3           INC       DPTR
   \   000001   A3           INC       DPTR
   \   000002                REQUIRE ??Subroutine109_0
   \   000002                ; // Fall through to label ??Subroutine109_0

   \                                 In  segment BANKED_CODE, align 1, keep-with-next
   \                     ?Subroutine12:
   \   000000   A3           INC       DPTR
   \   000001   A3           INC       DPTR
   \   000002   A3           INC       DPTR
   \   000003   A3           INC       DPTR
   \   000004   A3           INC       DPTR
   \   000005   12....       LCALL     ?Subroutine89 & 0xFFFF
   \                     ??CrossCallReturnLabel_151:
   \   000008   12....       LCALL     ?Subroutine80 & 0xFFFF
   \                     ??CrossCallReturnLabel_141:
   \   00000B   A3           INC       DPTR
   \   00000C   22           RET

   \                                 In  segment BANKED_CODE, align 1, keep-with-next
   \                     ??Subroutine116_0:
   \   000000   12....       LCALL     ??Subroutine117_0 & 0xFFFF
   \                     ??CrossCallReturnLabel_235:
   \   000003   22           RET

   \                                 In  segment BANKED_CODE, align 1, keep-with-next
   \                     ?Subroutine62:
   \   000000   12....       LCALL     ??Subroutine117_0 & 0xFFFF
   \                     ??CrossCallReturnLabel_231:
   \   000003   F0           MOVX      @DPTR,A
   \   000004   22           RET

   \                                 In  segment BANKED_CODE, align 1, keep-with-next
   \                     ?Subroutine57:
   \   000000   12....       LCALL     ?Subroutine80 & 0xFFFF
   \                     ??CrossCallReturnLabel_142:
   \   000003   22           RET

   \                                 In  segment BANKED_CODE, align 1, keep-with-next
   \                     ?Subroutine80:
   \   000000   E0           MOVX      A,@DPTR
   \   000001   8882         MOV       DPL,R0
   \   000003   8983         MOV       DPH,R1
   \   000005   A3           INC       DPTR
   \   000006   A3           INC       DPTR
   \   000007   A3           INC       DPTR
   \   000008   A3           INC       DPTR
   \   000009   A3           INC       DPTR
   \   00000A   22           RET
   1002          
   1003          /*********************************************************************
   1004           * @fn          ZDP_EPRsp
   1005           *
   1006           * @brief       This builds and send an endpoint list. Used in
   1007           *              Active_EP_rsp and Match_Desc_Rsp
   1008           *              message.  This function sends unicast message to the
   1009           *              requesting device.
   1010           *
   1011           * @param       MsgType - either Active_EP_rsp or Match_Desc_Rsp
   1012           * @param       dstAddr - destination address
   1013           * @param       Status - message status (ZDP_SUCCESS or other)
   1014           * @param       nwkAddr - Device's short address that this response describes
   1015           * @param       Count - number of endpoint/interfaces in list
   1016           * @param       pEPIntfList - Array of Endpoint/Interfaces
   1017           * @param       SecurityEnable - Security Options
   1018           *
   1019           * @return      afStatus_t
   1020           */

   \                                 In  segment BANKED_CODE, align 1, keep-with-next
   1021          afStatus_t ZDP_EPRsp( uint16 MsgType, byte TransSeq, zAddrType_t *dstAddr,
   \                     ZDP_EPRsp:
   1022                                  byte Status, uint16 nwkAddr, byte Count,
   1023                                  uint8 *pEPList,
   1024                                  byte SecurityEnable )
   1025          {
   \   000000                REQUIRE ?V0
   \   000000                REQUIRE ?V1
   \   000000                REQUIRE ?V2
   \   000000                REQUIRE ?V3
   \   000000                REQUIRE ?V4
   \   000000                REQUIRE ?V5
   \   000000                REQUIRE ?V6
   \   000000   74F1         MOV       A,#-0xf
   \   000002   12....       LCALL     ?BANKED_ENTER_XDATA
   \   000005                ; Saved register size: 15
   \   000005                ; Auto size: 1
   \   000005   74FF         MOV       A,#-0x1
   \   000007   12....       LCALL     ?ALLOC_XSTACK8
   \   00000A   E9           MOV       A,R1
   \   00000B   85..82       MOV       DPL,?XSP + 0
   \   00000E   85..83       MOV       DPH,?XSP + 1
   \   000011   F0           MOVX      @DPTR,A
   \   000012   8A..         MOV       ?V2,R2
   \   000014   8B..         MOV       ?V3,R3
   \   000016   EC           MOV       A,R4
   \   000017   FE           MOV       R6,A
   \   000018   ED           MOV       A,R5
   \   000019   FF           MOV       R7,A
   1026            uint8 *pBuf = ZDP_TmpBuf;
   \   00001A   90....       MOV       DPTR,#ZDP_TmpBuf
   \   00001D   12....       LCALL     ?Subroutine58 & 0xFFFF
   1027            byte len = 1 + 2 + 1;  // Status + nwkAddr + endpoint/interface count.
   \                     ??CrossCallReturnLabel_97:
   \   000020   75..04       MOV       ?V0,#0x4
   1028            byte txOptions;
   1029          
   1030            (void)SecurityEnable;  // Intentionally unreferenced parameter
   1031          
   1032            if ( MsgType == Match_Desc_rsp )
   \   000023   7406         MOV       A,#0x6
   \   000025   65..         XRL       A,?V2
   \   000027   7004         JNZ       ??ZDP_EPRsp_0
   \   000029   7480         MOV       A,#-0x80
   \   00002B   65..         XRL       A,?V3
   \                     ??ZDP_EPRsp_0:
   \   00002D   7005         JNZ       ??ZDP_EPRsp_1
   1033              txOptions = AF_MSG_ACK_REQUEST;
   \   00002F   75..10       MOV       ?V1,#0x10
   \   000032   8003         SJMP      ??ZDP_EPRsp_2
   1034            else
   1035              txOptions = 0;
   \                     ??ZDP_EPRsp_1:
   \   000034   75..00       MOV       ?V1,#0x0
   1036          
   1037              *pBuf++ = Status;
   \                     ??ZDP_EPRsp_2:
   \   000037   7410         MOV       A,#0x10
   \   000039   12....       LCALL     ?XSTACK_DISP0_8
   \   00003C   12....       LCALL     ?Subroutine63 & 0xFFFF
   \                     ??CrossCallReturnLabel_106:
   \   00003F   7411         MOV       A,#0x11
   \   000041   12....       LCALL     ?XSTACK_DISP0_8
   \   000044   12....       LCALL     ?Subroutine15 & 0xFFFF
   1038            *pBuf++ = LO_UINT16( nwkAddr );
   1039            *pBuf++ = HI_UINT16( nwkAddr );
   \                     ??CrossCallReturnLabel_10:
   \   000047   7413         MOV       A,#0x13
   \   000049   12....       LCALL     ?XSTACK_DISP0_8
   \   00004C   E0           MOVX      A,@DPTR
   \   00004D   F9           MOV       R1,A
   1040          
   1041            *pBuf++ = Count;   // Endpoint/Interface count
   \   00004E   8A82         MOV       DPL,R2
   \   000050   8B83         MOV       DPH,R3
   \   000052   A3           INC       DPTR
   \   000053   A3           INC       DPTR
   \   000054   A3           INC       DPTR
   \   000055   F0           MOVX      @DPTR,A
   1042          
   1043            if ( Count )
   \   000056   6023         JZ        ??ZDP_EPRsp_3
   1044            {
   1045              len += Count;
   \   000058   7404         MOV       A,#0x4
   \   00005A   29           ADD       A,R1
   \   00005B   F5..         MOV       ?V0,A
   1046              osal_memcpy( pBuf, pEPList, Count );
   \   00005D                ; Setup parameters for call to function osal_memcpy
   \   00005D   7414         MOV       A,#0x14
   \   00005F   12....       LCALL     ?XSTACK_DISP0_8
   \   000062   12....       LCALL     ?Subroutine50 & 0xFFFF
   1047            }
   \                     ??CrossCallReturnLabel_80:
   \   000065   12....       LCALL     ?PUSH_XSTACK_I_THREE
   \   000068   E9           MOV       A,R1
   \   000069   FC           MOV       R4,A
   \   00006A   7D00         MOV       R5,#0x0
   \   00006C   EA           MOV       A,R2
   \   00006D   2404         ADD       A,#0x4
   \   00006F   FA           MOV       R2,A
   \   000070   5001         JNC       ??ZDP_EPRsp_4
   \   000072   0B           INC       R3
   \                     ??ZDP_EPRsp_4:
   \   000073   12....       LCALL     `??osal_memcpy::?relay`; Banked call to: osal_memcpy
   \   000076   7403         MOV       A,#0x3
   \   000078   12....       LCALL     ?DEALLOC_XSTACK8
   1048          
   1049            FillAndSendTxOptions( &TransSeq, dstAddr, MsgType, len, txOptions );
   \                     ??ZDP_EPRsp_3:
   \   00007B   E5..         MOV       A,?V1
   \   00007D   90....       MOV       DPTR,#ZDP_TxOptions
   \   000080   F0           MOVX      @DPTR,A
   \   000081                ; Setup parameters for call to function fillAndSend
   \   000081   78..         MOV       R0,#?V2
   \   000083   12....       LCALL     ?PUSH_XSTACK_I_TWO
   \   000086   A9..         MOV       R1,?V0
   \   000088   EE           MOV       A,R6
   \   000089   FC           MOV       R4,A
   \   00008A   EF           MOV       A,R7
   \   00008B   FD           MOV       R5,A
   \   00008C   7402         MOV       A,#0x2
   \   00008E   12....       LCALL     ?XSTACK_DISP101_8
   \   000091   12....       LCALL     `??fillAndSend::?relay`; Banked call to: fillAndSend
   \   000094   7402         MOV       A,#0x2
   \   000096   12....       LCALL     ?DEALLOC_XSTACK8
   \   000099   E9           MOV       A,R1
   \   00009A   F9           MOV       R1,A
   \   00009B   90....       MOV       DPTR,#ZDP_TxOptions
   \   00009E   E4           CLR       A
   \   00009F   F0           MOVX      @DPTR,A
   \   0000A0   04           INC       A
   \   0000A1   02....       LJMP      ?Subroutine3 & 0xFFFF
   1050          }

   \                                 In  segment BANKED_CODE, align 1, keep-with-next
   \                     ?Subroutine58:
   \   000000   12....       LCALL     ?Subroutine79 & 0xFFFF
   \                     ??CrossCallReturnLabel_188:
   \   000003   FA           MOV       R2,A
   \   000004   E9           MOV       A,R1
   \   000005   FB           MOV       R3,A
   \   000006   22           RET

   \                                 In  segment BANKED_CODE, align 1, keep-with-next
   \                     ?Subroutine15:
   \   000000   12....       LCALL     ?Subroutine78 & 0xFFFF
   \                     ??CrossCallReturnLabel_139:
   \   000003   A3           INC       DPTR
   \   000004   12....       LCALL     ?Subroutine90 & 0xFFFF
   \                     ??CrossCallReturnLabel_153:
   \   000007   F0           MOVX      @DPTR,A
   \   000008   22           RET

   \                                 In  segment BANKED_CODE, align 1, keep-with-next
   \                     ?Subroutine84:
   \   000000   E0           MOVX      A,@DPTR
   \   000001   8A82         MOV       DPL,R2
   \   000003   8B83         MOV       DPH,R3
   \   000005   22           RET

   \                                 In  segment BANKED_CODE, align 1, keep-with-next
   \                     ?Subroutine63:
   \   000000   12....       LCALL     ?Subroutine84 & 0xFFFF
   \                     ??CrossCallReturnLabel_213:
   \   000003   F0           MOVX      @DPTR,A
   \   000004   22           RET

   \                                 In  segment BANKED_CODE, align 1, keep-with-next
   \                     ?Subroutine78:
   \   000000   E0           MOVX      A,@DPTR
   \   000001   F8           MOV       R0,A
   \   000002   A3           INC       DPTR
   \   000003   E0           MOVX      A,@DPTR
   \   000004   F9           MOV       R1,A
   \   000005   E8           MOV       A,R0
   \   000006   8A82         MOV       DPL,R2
   \   000008   8B83         MOV       DPH,R3
   \   00000A   22           RET

   \                                 In  segment BANKED_CODE, align 1, keep-with-next
   \                     ?Subroutine50:
   \   000000   E0           MOVX      A,@DPTR
   \   000001   F5..         MOV       ?V4,A
   \   000003   A3           INC       DPTR
   \   000004   E0           MOVX      A,@DPTR
   \   000005   F5..         MOV       ?V5,A
   \   000007   75..00       MOV       ?V6,#0x0
   \   00000A   78..         MOV       R0,#?V4
   \   00000C   22           RET

   \                                 In  segment BANKED_CODE, align 1, keep-with-next
   \                     ?Subroutine90:
   \   000000   F0           MOVX      @DPTR,A
   \   000001   E9           MOV       A,R1
   \   000002   8A82         MOV       DPL,R2
   \   000004   8B83         MOV       DPH,R3
   \   000006   A3           INC       DPTR
   \   000007   A3           INC       DPTR
   \   000008   22           RET
   1051          
   1052          /*********************************************************************
   1053           * @fn          ZDP_UserDescRsp
   1054           *
   1055           * @brief       Build and send the User Decriptor Response.
   1056           *
   1057           *
   1058           * @param       dstAddr - destination address
   1059           * @param       nwkAddrOfInterest -
   1060           * @param       userDesc -
   1061           * @param       SecurityEnable - Security Options
   1062           *
   1063           * @return      ZStatus_t
   1064           */

   \                                 In  segment BANKED_CODE, align 1, keep-with-next
   1065          ZStatus_t ZDP_UserDescRsp( byte TransSeq, zAddrType_t *dstAddr,
   \                     ZDP_UserDescRsp:
   1066                          uint16 nwkAddrOfInterest, UserDescriptorFormat_t *userDesc,
   1067                          byte SecurityEnable )
   1068          {
   \   000000                REQUIRE ?V0
   \   000000                REQUIRE ?V1
   \   000000                REQUIRE ?V2
   \   000000                REQUIRE ?V4
   \   000000                REQUIRE ?V5
   \   000000                REQUIRE ?V6
   \   000000                REQUIRE ?V8
   \   000000                REQUIRE ?V9
   \   000000   74EE         MOV       A,#-0x12
   \   000002   12....       LCALL     ?BANKED_ENTER_XDATA
   \   000005                ; Saved register size: 18
   \   000005                ; Auto size: 1
   \   000005   74FF         MOV       A,#-0x1
   \   000007   12....       LCALL     ?ALLOC_XSTACK8
   \   00000A   E9           MOV       A,R1
   \   00000B   85..82       MOV       DPL,?XSP + 0
   \   00000E   85..83       MOV       DPH,?XSP + 1
   \   000011   F0           MOVX      @DPTR,A
   \   000012   12....       LCALL     ?Subroutine60 & 0xFFFF
   1069            uint8 *pBuf = ZDP_TmpBuf;
